:020000040800F2
:100000000000082419860108158101081D810108D6
:10001000258101082D8101083581010800000000BB
:10002000000000000000000000000000C1360108D0
:100030003D8101080000000081390108E93901080B
:100040006D8601086D8601086D8601086D860108C0
:100050006D8601086D8601086D8601086D860108B0
:100060006D8601086D8601086D8601084D810108C5
:10007000A98101086D8601086D8601086D86010859
:100080006D8601086D8601086D8601086D86010880
:100090006D8601086D8601086D8601086D86010870
:1000A0006D860108058201086D8601086D860108CC
:1000B0006D8601086D8601086D8601086D86010850
:1000C0006D8601086D8601086D8601086D86010840
:1000D0006D86010811820108498201086D860108B8
:1000E0006D8601086D860108000000006D8601081C
:1000F0006D8601086D8601086D8601088182010800
:100100006D860108C98201086D8601086D860108A7
:100110006D8601086D8601086D860108DD82010883
:10012000F18201084D8301086D8601086D86010882
:100130006D8601086D8601086D8601086D860108CF
:100140006D8601086D8601080000000000000000B7
:100150006D8601086D8601086D860108B58301086A
:100160006D8601086D8601086D8601086D8601089F
:100170006D8601086D8601086D860108000000008B
:100180006D8601086D860108ED8301086D86010802
:100190006D8601082D8401083B8401086D860108E5
:1001A0006D8601086D8601086D8601086D8601085F
:1001B0006D8601086D8601086D8601086D8601084F
:1001C0006D8601086D8601086D8601086D8601083F
:1001D0006D860108498401086D8601086D86010855
:1001E0006D8601086D8601086D8601086D8601081F
:1001F0006D8601086D8601086D8601086D8601080F
:100200006D8601086D8601086D8601086D860108FE
:100210006D8601086D8601086D8601086D860108EE
:100220006D8601086D8601085D84010800000000EC
:100230006D8601086D8601086D8601086D860108CE
:100240006D860108718401087D8401086D860108AE
:100250006D8601086D8601086D8601086D860108AE
:100260006D8601086D8601086D8601086D8601089E
:100270006D8601086D8601086D8601086D8601088E
:100280006D8601086D8601086D860108000000007A
:080290006D8601086D8601086E
:1002A00010B5054C237833B9044B13B10448AFF3B0
:1002B00000800123237010BDB44A01240000000017
:1002C000F8B6020808B5034B1BB103490348AFF366
:1002D000008008BD00000000B84A0124F8B60208FA
:1002E00010F8012B11F8013B012A28BF9A42F7D0E0
:1002F000D01A7047034613F8012B002AFBD1181AB5
:1003000001387047000000000000000000000000FD
:1003100001F0FF01102A2BDB10F0070F08D010F8B6
:10032000013B013A8B422DD010F0070F42B3F6D1BA
:10033000F0B441EA012141EA014122F007047FF0D3
:1003400000070023F0E80256083C85EA010586EA2A
:10035000010685FA47F5A3FA87F586FA47F6A5FA66
:1003600087F68EB9EED1F0BC01F0FF0102F0070272
:1003700032B110F8013B013A83EA010313B1F8D11D
:100380000020704701387047002D06BF35460338FE
:10039000073815F0010F07D1013015F4807F02BF37
:1003A000013015F4C03F0130F0BC0138704700BF88
:1003B00053B94AB9002908BF00281CBF4FF0FF31CC
:1003C0004FF0FF3000F088B9ADF1080C6DE904CEB4
:1003D00000F006F8DDF804E0DDE9022304B0704720
:1003E0002DE9F047089D8E4604468846002B4AD1E9
:1003F0008A42174662D9B2FA82F64EB1C6F120039C
:1004000001FA06F820FA03F3B74043EA0808B440BB
:100410004FEA174E1FFA87FCB8FBFEF1230C0EFBC8
:10042000118843EA084301FB0CF29A4209D9FB18F0
:1004300001F1FF3080F0EA809A4240F2E780023911
:100440003B449A1AA3B2B2FBFEF00EFB102243EA21
:10045000024300FB0CFC9C4509D9FB1800F1FF325C
:1004600080F0D6809C4540F2D3803B44023840EA7D
:100470000140A3EB0C0300211DB1F3400022C5E9AC
:100480000032BDE8F0878B4205D90DB1C5E9000106
:1004900000210846F5E7B3FA83F1002946D17345F8
:1004A00002D3824200F20581841A6EEB030201201E
:1004B0009046002DE5D0C5E90048E2E7002A00F0AB
:1004C0009080B2FA82F6002E40F0A4808A1A030CC3
:1004D0004FEA174E80B2BCB20121B2FBFEFC0EFB0C
:1004E0001C2243EA024304FB0CF29A4207D9FB1890
:1004F0000CF1FF3802D29A4200F2E080C4469B1A07
:10050000B3FBFEF20EFB123340EA034302FB04F49A
:100510009C4207D9FB1802F1FF3002D29C4200F244
:10052000CA8002461B1B42EA0C40A5E7C1F1200627
:100530008B4022FA06F71F430EFA01F420FA06F365
:100540002EFA06FE4FEA1749234300FA01F81FFA74
:1005500087FCBEFBF9F01C0C09FB10EE44EA0E44CC
:1005600000FB0CFEA64502FA01F209D93C1900F184
:10057000FF3A80F09C80A64540F2998002383C44C6
:10058000A4EB0E041FFA83FEB4FBF9F309FB13443A
:100590004EEA044403FB0CFCA44508D93C1903F1C2
:1005A000FF3E80F08280A4457FD9023B3C4443EA71
:1005B0000040A4EB0C04A0FB02EC64457346E1464A
:1005C00062D35FD05DB1B8EB030264EB090404FAB7
:1005D00006F622FA01F31E43CC40C5E9006400216F
:1005E0004FE7B1FBF2FC010C41EA0E4180B240EA58
:1005F00001423B4638463C46B846BE462026B1FB43
:10060000F7F1A2EB080241EA0C4166E7014618E760
:1006100010462CE7C6F120022EFA02F3B740B14093
:1006200020FA02F24FEA174E0A43B3FBFEF8BCB2BF
:100630000EFB1833110C41EA034108FB04F9B040EA
:1006400089454FEA104380B23ED9791808F1FF3C42
:1006500001D289451FD8A1EB0901B1FBFEF909FBC5
:1006600004F80EFB191192B242EA0142424529D226
:10067000BA1809F1FF31C4D24245C2D2A9F1020130
:100680003A44BEE7F0459DD2BEEB02036CEB070C8B
:100690000138E14696E7A7EB09094944A8F1020CA5
:1006A000B1FBFEF909FB04F8DBE773467FE7504630
:1006B00066E70846FDE63B44023A33E7ACF1020C3C
:1006C0003B441CE749469CE7A1EB0901C446B1FB4A
:1006D000FEF909FB04F8C4E7704700BF80B582B09B
:1006E00000AF0123FB711C4B01221A701B4807F05D
:1006F00027FB10221A491B4807F07AFC01F08CFCFA
:100700000346FB7107F014FC08F09AFF02F006F8AC
:1007100001221549022007F04BF80122124900205E
:1007200007F046F801221049012007F041F80122A4
:100730000D49032007F03CF801220B49042007F083
:1007400037F801220849052007F032F8FB791846EE
:100750000837BD4680BD00BFD04A01240058004084
:10076000001002580034014010B7020880B500AFF5
:1007700001220449022007F01BF800F0C3F800BF73
:1007800080BD00BF24B7020880B582B000AF01234E
:10079000FB71144B02221A7009F028F90346FB7111
:1007A00009F024F90346002B04D10F490F4801F04A
:1007B00049FE05E00B4AFB7993700A4B07221A7039
:1007C000FB79002B01D0FB7908E00949074801F0CB
:1007D00039FE0849054801F035FEFB79184608370F
:1007E000BD4680BDD04A012430B702080010014048
:1007F00044B702085CB7020880B582B000AF204B56
:1008000003221A701F49204801F01CFE0123FB71CE
:1008100004F0D0FB0346FB71FB79002B09D01B4988
:10082000194801F00FFE164AFB799370144B07220A
:100830001A7006F02FFA0346FB71FB79002B0AD0E1
:100840001349114801F0FEFD0D4AFB7993700C4BE2
:1008500007221A7003E00F490B4801F0F3FD07F07F
:10086000B1F8FB79002B01D0FB7904E00A49064876
:1008700001F0E8FDFB7918460837BD4680BD00BF92
:10088000D04A012464B70208001001407CB7020876
:1008900090B70208A8B702085CB7020880B500AF9D
:1008A000064B04221A700649064801F0CBFD0649A2
:1008B000044801F0C7FD0023184680BDD04A01243A
:1008C000C8B70208001001405CB7020880B500AF4D
:1008D000084B05221A700849084801F0B3FD084981
:1008E000064801F0AFFD034B06221A70002318469C
:1008F00080BD00BFD04A0124E0B7020800100140CB
:100900005CB7020880B500AF00F088F900BF80BD79
:1009100080B483B000AF786039607B685A693B6807
:1009200013403A689A4201D1012300E0002318469F
:100930000C37BD465DF8047B704780B483B000AFD0
:10094000786039607B683A689A6100BF0C37BD46B1
:100950005DF8047B704780B483B000AF7860396085
:100960003B681A047B689A6100BF0C37BD465DF88E
:10097000047B704780B500AF4FF480410648FFF715
:10098000DCFF4FF400410448FFF7D7FF032000F0DD
:1009900005F800BF80BD00BF0014025880B582B0CA
:1009A00000AF0346FB71FB79032B37D801A252F845
:1009B00023F000BFC5090008DB090008F1090008A1
:1009C000070A00084FF480411C48FFF7C4FF4FF4AA
:1009D00000411A48FFF7BFFF2BE04FF48041174852
:1009E000FFF7B9FF4FF400411448FFF7A6FF20E0DE
:1009F0004FF480411148FFF7A0FF4FF400410F482A
:100A0000FFF7A9FF15E04FF480410C48FFF795FF71
:100A10004FF400410948FFF790FF0AE04FF480418E
:100A20000648FFF798FF4FF400410448FFF793FF93
:100A300000BF00BF0837BD4680BD00BF001402588C
:100A400080B582B000AF4FF480411948FFF760FFD6
:100A50000346002B14BF01230023DBB2FB714FF4CC
:100A600000411348FFF754FF0346002B14BF012336
:100A70000023DBB2BB71FB79002B04D1BB79002BC7
:100A800001D1002310E0FB79002B04D1BB79012BAD
:100A900001D1012308E0FB79012B04D1BB79002BA4
:100AA00001D1022300E0032318460837BD4680BD6C
:100AB0000014025880B483B000AF0346FB71064AAD
:100AC000FB791370054B00221A7000BF0C37BD462E
:100AD0005DF8047B704700BFD34A0124D44A012447
:100AE00080B400AF034B1B781846BD465DF8047B0D
:100AF000704700BFD34A012480B483B000AF0346DF
:100B0000FB71FB795C2B06D10E4B1B780133DAB2FB
:100B10000C4B1A7002E00B4B00221A70094B1B7829
:100B2000092B07D9084B00221A70064B00221A70B5
:100B3000012300E0002318460C37BD465DF8047B16
:100B4000704700BFD44A0124D34A012480B483B043
:100B500000AF786039607B683A689A6100BF0C37F3
:100B6000BD465DF8047B704780B483B000AF786009
:100B700039603B681A047B689A6100BF0C37BD4638
:100B80005DF8047B704780B582B000AF0346FB710F
:100B9000FB79184601F01EFF00BF0837BD4680BD37
:100BA00080B584B000AF0346FB71FB79FB73FB7B20
:100BB0001946034801F010FC00BF1037BD4680BD48
:100BC0000010014080B582B000AF786000220F496C
:100BD000022006F0EDFD00F043F80346002B08D09C
:100BE00001220B49042006F0E3FD0A4B02225A7051
:100BF00004E000220849022006F0DAFD002010F08F
:100C000045FA00BF0837BD4680BD00BFF4B70208F3
:100C100008B80208D84A01242CB8020880B582B06E
:100C200002AF002301930523009300234FF4A06239
:100C30000849094810F0DBF80346012B04D00122D3
:100C40000649042006F0B4FD10F0EEFB00BFBD46DF
:100C500080BD00BF44B80208C50B000854B80208A4
:100C600080B582B002AFFFF78FFD0346002B06D0A0
:100C700001229849042006F09BFD012326E1FFF79D
:100C8000BBFD0346002B06D001229349042006F049
:100C90008FFD01231AE1FFF701FE0346002B06D06A
:100CA00001228E49042006F083FD01230EE1FFF7A7
:100CB0000DFE0346002B06D001228949042006F0D0
:100CC00077FD012302E105F095FE08F035F81022CA
:100CD0008449854807F0F6FC0346002B06D0012224
:100CE0008249042006F064FD0123EFE006F0E8FAF3
:100CF000002301930223009300234FF420627C49D8
:100D00007C4810F074F80346012B01D00123DDE08C
:100D1000002301930123009300234FF420627649BE
:100D2000764810F064F80346012B01D00123CDE092
:100D3000002301930123009300234FF4A062704924
:100D4000704810F054F80346012B01D00123BDE098
:100D5000002301930123009300234FF480726A491A
:100D60006A4810F044F80346012B01D00123ADE09E
:100D7000674801F027F90346002201920122009200
:100D80004FF4A0626349644810F031F80346012B28
:100D900001D001239AE0614801F014F903460022D2
:100DA0000192012200924FF4A0625D495D4810F06B
:100DB0001EF80346012B01D0012387E00023019395
:100DC0000123009300234FF4A0625749574810F0C5
:100DD0000EF80346012B01D0012377E00023019395
:100DE0000123009300238022514952480FF0FFFF56
:100DF0000346012B01D0012368E000230193012366
:100E00000093002380224C494C480FF0F0FF03462A
:100E1000012B01D0012359E000230193012300930A
:100E200000238022464947480FF0E1FF0346012B8B
:100E300001D001234AE00023019301230093002302
:100E40004FF48072404941480FF0D1FF0346012B17
:100E500001D001233AE000230193012300930023F2
:100E60004FF420723A493B480FF0C1FF0346012B73
:100E700001D001232AE000230193012300930023E2
:100E80004FF42072344935480FF0B1FF0346012B6F
:100E900001D001231AE000230193012300930023D2
:100EA00080222F492F480FF0A2FF0346012B01D0CB
:100EB00001230BE0012010F08DF92B492B4801F0A4
:100EC00097FE2B492B4801F093FE00231846BD46A0
:100ED00080BD00BF70B8020890B80208ACB8020824
:100EE000C8B802080000025800140058E4B802080C
:100EF000FCB80208796A00080CB90208B5130008AA
:100F000018B902082D7A000824B90208790F0008E0
:100F10000010014034B902086510000800140140B7
:100F200044B902087511000850B90208C90F000839
:100F300060B90208CD13000868B90208011400085E
:100F400070B902083514000878B902087513000852
:100F500088B902080D13000898B9020809120008A0
:100F6000A8B9020847140008A10B0008DC4A0124B4
:100F7000870B0008384B012480B582B000AF786041
:100F800008F08EF90D4B1B6801330C4A13600B4BB4
:100F90001B68B3F5E15F0BD9084B00221A6008F01B
:100FA00025FD0346002B03D10549064801F04AFA06
:100FB0004FF47A7010F00EF9E2E700BF944B012471
:100FC000B8B902080010014080B584B000AF786065
:100FD000214802F0A1F80346FB73FB7B032B02D0F0
:100FE000FB7B042B13D11C4B1B6A012B09D104F092
:100FF00079F803461949184604F01EFA164B0022E8
:101000001A6204F06FF80346184604F084F9144895
:1010100002F082F80346FB73FB7B032B02D0FB7BC1
:10102000042B13D10E4B1B6A012B09D104F04EF88F
:1010300003460A49184604F0FFF9094B00221A62D8
:1010400004F044F80346184604F065F94FF4FA70CA
:1010500010F0C0F8BCE700BFDC4A0124CCB902089C
:10106000384B012480B586B000AF78607B687B6127
:101070007B695B6E4FF0FF3118460FF0EDF90346C8
:10108000012B6DD162E0FFF72BFD0346FB73FB7B69
:10109000012B15D13B69DBB21946334801F09CF9AD
:1010A0003B69DBB21846FFF727FD0346002B4DD006
:1010B00004F018F803462D49184604F0BDF945E040
:1010C000FB7B032B1ED13B69DBB21846FFF714FDF7
:1010D0000346002B06D004F005F8034623491846C2
:1010E00004F0AAF903F0FEFF02463B69DBB21946A1
:1010F000104604F0EDF803F0F5FF0346184604F03F
:101100000AF923E01A4802F007F80346BB73BB7BD9
:10111000032B02D0BB7B042B12D1154801F056FDE6
:1011200003F0E0FF02463B69DBB21946104604F0CB
:10113000CFF803F0D7FF0346184604F0ECF805E0BB
:101140003B69DBB219460A4801F062FE7B691B6805
:10115000184601F059FA38613B69B3F1FF3F92D16B
:10116000012010F037F883E700140140D0B90208DD
:10117000DC4A012480B586B000AF78607B687B6173
:101180007B695B6E002118460FF066F90346012B60
:1011900033D128E0FFF7A4FC0346FB73FB7B012B54
:1011A00006D13B69DBB21946164801F015F91AE081
:1011B000FB7B022B05D13B69DBB2184601F00AFC30
:1011C00011E0FB7B032B06D13B69DBB219460D48CE
:1011D00001F002F907E0FB7B042B04D13B69DBB291
:1011E000184601F0F7FB7B691B68184601F00CFA02
:1011F00038613B69B3F1FF3FCCD101200FF0EAFF2A
:10120000BEE700BF0010014080B584B000AF786039
:1012100011F016F8F860F86801F03EFB0A2201218F
:10122000002011F061FA0346002B65D05CE0FFF767
:1012300057FC0346FB72FB7A022B13D17B7A1946CB
:101240002F4801F0C9F87B7A1846FFF755FC034692
:10125000002B49D003F03AFF03462A49184604F010
:10126000EBF841E0FB7A042B1CD17B7A1846FFF7A0
:1012700043FC0346002B06D003F028FF0346214918
:10128000184604F0D9F803F021FF02467B7A19468C
:10129000104604F01DF803F019FF0346184604F049
:1012A0003AF821E0184801F037FF0346BB72BB7AD9
:1012B000032B02D0BB7A042B11D1134801F086FC1A
:1012C00003F004FF02467B7A1946104604F000F84A
:1012D00003F0FCFE0346184604F01DF804E07B7A98
:1012E0001946094801F094FD07F10903184601F079
:1012F000B3FA0346002B9AD10A200FF06BFF8DE75B
:1013000000140140D0B90208384B012480B586B0E2
:1013100000AF786010F094FF3861386901F0ACFAE2
:1013200001220121002011F0DFF90346002B1CD01F
:1013300013E0FB7B3B730023FB7505E001200FF0FE
:1013400049FFFB7D0133FB7507F10C0301211846B2
:1013500028F01CFA0346002BF0D107F10F031846C2
:1013600001F06AFA0346002BE3D101200FF032FFAF
:10137000D6E7000080B584B000AF786010F060FF61
:10138000F860F86801F098FA4FF0FF320121002070
:1013900011F0AAF90346002BF6D028F02FFA0346E5
:1013A000002BF1D00249022006F01AFBECE700BF47
:1013B00004BA020880B582B000AF786005F0B0FFD3
:1013C00001200FF007FF00BFF8E7000080B582B0F2
:1013D00000AF78604FF480710848FFF7C5FB4FF409
:1013E0007A700FF0F7FE4FF480710448FFF7AEFB00
:1013F0004FF47A700FF0EEFE00BFEBE7000C0258DE
:1014000080B582B000AF78604FF400710848FFF7F4
:101410009DFB4FF47A700FF0DDFE4FF4007104482D
:10142000FFF7A2FB4FF47A700FF0D4FE00BFEBE79A
:10143000000C025880B582B000AF78604FF47A702B
:101440000FF0C8FEFAE780B582B000AF786006F012
:101450007FFD06F099FD0346012B03D1C8200FF054
:10146000B9FEF4E74FF416700FF0B4FEEFE780B466
:1014700083B000AF78607B689B6903F00103012BA8
:1014800001D1012300E0002318460C37BD465DF86A
:10149000047B704780B483B000AF78607B689B6941
:1014A00003F00203022B01D1012300E000231846C0
:1014B0000C37BD465DF8047B704780B483B000AF45
:1014C00078607B689B6903F00403042B01D101233E
:1014D00000E0002318460C37BD465DF8047B7047DA
:1014E00080B483B000AF78607B689B6903F0100321
:1014F000102B01D1012300E0002318460C37BD4614
:101500005DF8047B704780B483B000AF78607B687F
:101510009B6903F40043B3F5004F01D1012300E0C0
:10152000002318460C37BD465DF8047B704780B435
:1015300083B000AF786039607B685B6823F4004259
:101540003B681A437B685A6000BF0C37BD465DF8A4
:10155000047B704780B487B000AFF860B9607A60F0
:101560003B60BB68C3F309027B6803F400631A4362
:101570003B681B0403F47F031A433B6A1A437B6AEC
:10158000134323F000437B61FB685A687B6A5B0D61
:1015900003F48061064B0B43DB431A407B691A431B
:1015A000FB685A6000BF1C37BD465DF8047B70477E
:1015B000FF7BFF0380B483B000AF78607B685B6A19
:1015C000DBB218460C37BD465DF8047B704780B42B
:1015D00083B000AF78600B46FB70FA787B689A6244
:1015E00000BF0C37BD465DF8047B704780B588B0FE
:1015F00002AFF8607B600B46FB721346BB7208F0CB
:101600006DFB38610DE008F069FB02463B69D31AB7
:101610000A2B06D9FB681B68184614F09FFF0223AB
:1016200096E0FB681B681846FFF76DFF0346002B2A
:10163000E9D1FB681868FB7A590097F8203001332C
:101640001A46454B01934FF0007300931346002256
:10165000FFF780FF08F042FB386117E0FB681B686A
:101660001846FFF73DFF0346002B01D001236FE032
:1016700008F034FB02463B69D31A0A2B06D9FB68F3
:101680001B68184614F06AFF032361E0FB681B68BF
:101690001846FFF7FFFE0346002BDFD0FB681B68F0
:1016A000BA7A11461846FFF792FF0023FB752FE028
:1016B00008F014FB386117E0FB681B681846FFF759
:1016C0000FFF0346002B01D0012341E008F006FB89
:1016D00002463B69D31A0A2B06D9FB681B681846D9
:1016E00014F03CFF032333E0FB681B681846FFF748
:1016F000D1FE0346002BDFD0FB681868FB7D7A68BB
:1017000013441B781946FFF762FFFB7D0133FB751D
:10171000FA7D97F820309A42CAD308F0DFFA386190
:101720000DE008F0DBFA02463B69D31A0A2B06D912
:10173000FB681B68184614F011FF032308E0FB68E0
:101740001B681846FFF793FE0346002BE9D00023E1
:1017500018461837BD4680BD0020008090B589B07E
:1017600002AFF8607B600B46FB721346BB7208F059
:10177000B5FA38610DE008F0B1FA02463B69D31AB8
:101780000A2B06D9FB681B68184614F0E7FE0223F3
:10179000B8E0FB681B681846FFF7B5FE0346002B50
:1017A000E9D1FB681868FB7A5900584B0193002374
:1017B000009301230022FFF7CDFE08F08FFA386175
:1017C00017E0FB681B681846FFF78AFE0346002BEC
:1017D00001D0012396E008F081FA02463B69D31A52
:1017E0000A2B06D9FB681B68184614F0B7FE0323C2
:1017F00088E0FB681B681846FFF74CFE0346002B89
:10180000DFD0FB681B68BA7A11461846FFF7DFFE87
:1018100008F064FA386117E0FB681B681846FFF7A8
:101820005FFE0346002B01D001236BE008F056FA5F
:1018300002463B69D31A0A2B06D9FB681B68184677
:1018400014F08CFE03235DE0FB681B681846FFF76D
:101850000EFE0346002BDFD0FB681B6800211846F4
:10186000FFF765FEFB681868FB7A5900FB7A5B009E
:1018700043F001031C4697F82830254A01924FF0A7
:10188000007200922246FFF765FE08F027FA3861E1
:101890000023FB7530E008F021FA386117E0FB689F
:1018A0001B681846FFF71CFE0346002B01D00123DE
:1018B00028E008F013FA02463B69D31A0A2B06D92E
:1018C000FB681B68184614F049FE03231AE0FB6806
:1018D0001B681846FFF7F1FD0346002BDFD0FB68BD
:1018E0001968FB7D7A68D4180846FFF763FE034643
:1018F0002370FB7D0133FB75FA7D97F828309A42FF
:10190000C9D3002318461C37BD4690BD0020008077
:101910000024008080B584B000AF78600023FB60B5
:10192000786800F095F8786800F00BF80346002B13
:1019300002D06FF00303FB60FB6818461037BD460A
:1019400080BD80B584B000AF78600023FB737868F9
:1019500019F0D2FE0346002B01D00123FB73FB7B61
:1019600018461037BD4680BD80B586B000AFF86020
:10197000B9607A603B603B687A68B968F86819F0CA
:1019800097FF0346002B03D06FF003037B6101E058
:1019900000237B617B6918461837BD4680BD80B542
:1019A00086B000AFF860B9607A603B603B687A68E7
:1019B000B968F8681AF040F80346002B03D06FF0BE
:1019C00003037B6101E000237B617B6918461837C4
:1019D000BD4680BD80B582B000AF786078681AF0EF
:1019E0003FFE0346042B14BF01230023DBB218463D
:1019F0000837BD4680BD80B584B000AF78603960DF
:101A0000396878681AF03CFC0346002B03D06FF06D
:101A10000303FB6001E00023FB60FB6818461037FE
:101A2000BD4680BD80B582B000AF786078680DF0AB
:101A3000FBFD00BF0837BD4680BD80B582B000AF5A
:101A4000786078680DF01AFE00BF0837BD4680BD8B
:101A500080B582B000AF7860786815F085FF00BF70
:101A60000837BD4680BD80B483B000AF78607B6826
:101A70001B6803F00103012B01D1012300E00023C7
:101A800018460C37BD465DF8047B704780B483B0C0
:101A900000AF78607B685B6903F00103012B01D123
:101AA000012300E0002318460C37BD465DF8047B97
:101AB000704780B483B000AF78607B685B6903F4E3
:101AC0008053B3F5805F01D1012300E00023184665
:101AD0000C37BD465DF8047B704780B483B000AF1F
:101AE00078607B6830331B78DBB218460C37BD4614
:101AF0005DF8047B704780B483B000AF78600B461C
:101B0000FB707B682033FA781A7000BF0C37BD4633
:101B10005DF8047B704780B586B000AFF8600B4677
:101B20007A60FB72F868FFF79EFF0346002B01D135
:101B3000012335E008F0D2F87861FB7A1946F8689D
:101B4000FFF7D9FF08E008F0C9F802467B69D31A0D
:101B50000A2B01D9032323E0F868FFF7AAFF034605
:101B6000002BF0D008F0BAF8786108E008F0B6F879
:101B700002467B69D31A0A2B01D9032310E0F868C7
:101B8000FFF784FF0346002BF0D07B68002B06D0C4
:101B9000F868FFF7A2FF03461A467B681A70002315
:101BA00018461837BD4680BD80B584B000AF786058
:101BB0000B46FB707868FFF756FF0346002B01D1F8
:101BC00001231BE008F08AF8F860FB781946786872
:101BD000FFF791FF08E008F081F80246FB68D31A8E
:101BE0000A2B01D9032309E07868FFF762FF034657
:101BF000002BF0D07868FFF770FF002318461037ED
:101C0000BD4680BD80B483B000AF78607B68DB697F
:101C100003F04003402B01D1012300E000231846CC
:101C20000C37BD465DF8047B704780B483B000AFCD
:101C300078607B68DB6903F08003802B01D101238E
:101C400000E0002318460C37BD465DF8047B704762
:101C500080B489B000AF78607B68FB60FB6853E8B4
:101C6000003FBB60BB6843F01003FB617B68FA690F
:101C7000BA617B617969BA6941E800233B613B69DC
:101C8000002BE9D100BF00BF2437BD465DF8047BBF
:101C9000704780B489B000AF78607B68FB60FB68F8
:101CA00053E8003FBB60BB6843F02003FB617B68E7
:101CB000FA69BA617B617969BA6941E800233B61DD
:101CC0003B69002BE9D100BF00BF2437BD465DF85A
:101CD000047B704780B489B000AF78607B68FB609C
:101CE000FB6853E8003FBB60BB6843F08003FB61C7
:101CF0007B68FA69BA617B617969BA6941E8002356
:101D00003B613B69002BE9D100BF00BF2437BD46D2
:101D10005DF8047B704780B489B000AF78607B6861
:101D2000FB60FB6853E8003FBB60BB6823F08003A7
:101D3000FB617B68FA69BA617B617969BA6941E8DC
:101D400000233B613B69002BE9D100BF00BF243772
:101D5000BD465DF8047B704780B483B000AF786007
:101D60007B681B6803F08003802B01D1012300E016
:101D7000002318460C37BD465DF8047B704780B4DD
:101D800089B000AF78607B680833FB60FB6853E87C
:101D9000003FBB60BB6843F04003FB617B680833D6
:101DA000FA69BA617B617969BA6941E800233B61EC
:101DB0003B69002BE7D100BF00BF2437BD465DF86B
:101DC000047B704780B485B000AF786039603B68B1
:101DD000002B03D17B682833FB6002E07B6824334F
:101DE000FB60FB6818461437BD465DF8047B7047FE
:101DF00080B483B000AF78600B46FB70FA787B68E4
:101E00009A6200BF0C37BD465DF8047B7047000046
:101E100080B485B000AF786039607B68FB600C4AA5
:101E20003B6813441B781A46FB6813441B68084937
:101E30003A680A4412781146FA680A4443F00103EA
:101E4000136000BF1437BD465DF8047B704700BFC8
:101E500000DC020880B487B000AFF860B9607A6037
:101E6000FB687B610D4ABB6813441B781A467B698B
:101E700013445A680A4B13400849BA680A44127856
:101E800011467A690A4411467A6813434B6000BFD1
:101E90001C37BD465DF8047B704700BF00DC0208BC
:101EA0000000FFFF80B485B000AF786039607B68C8
:101EB000FB60074A3B6813441B781A46FB681344CF
:101EC0005B689BB218461437BD465DF8047B7047CB
:101ED00000DC020880B487B000AFF860B9607A60B7
:101EE000FB687B61074ABB6813441B781A467B6911
:101EF00013441A467B68D36000BF1C37BD465DF8AB
:101F0000047B704700DC020880B487B000AFF86043
:101F1000B9607A60FB687B61074ABB6813441B7831
:101F20001A467B6913441A467B68936000BF1C37CE
:101F3000BD465DF8047B704700DC020880B485B0C4
:101F400000AF786039607B68FB600C4A3B681344E3
:101F50001B781A46FB6813441B6808493A680A4410
:101F600012781146FA680A4443F00803136000BF70
:101F70001437BD465DF8047B704700BF00DC0208E3
:101F800080B485B000AF786039607B68FB600C4A34
:101F90003B6813441B781A46FB6813441B680849C6
:101FA0003A680A4412781146FA680A4443F010036A
:101FB000136000BF1437BD465DF8047B704700BF57
:101FC00000DC020880B485B000AF78600023FB60BD
:101FD00015E01049FA6813465B019B1A9B000B44FD
:101FE0001B687A689A4207D1FA6813465B019B1A0C
:101FF0009B00084A134406E0FB680133FB60FB6862
:10200000032BE6DD002318461437BD465DF8047B3C
:10201000704700BF28470124B0B582B002AF4FF42B
:1020200080630093C34BC44A0121C44807F0F9FC04
:102030004FF480630093C24BC24A0221C24807F0AA
:10204000F0FC0322002101200DF0B7FE0346BF4A39
:102050005366BE4B9C6EBD4BDD6E0121BC48FFF745
:10206000B1FE03461A4629462046FFF74DFFB74BFF
:102070009B6EB64AD16EB54AB2F874201846FFF787
:10208000E9FEB24B9B6EB14AD16EB04A126F184650
:10209000FFF720FFAD4B9B6EAC4AD26E114618463F
:1020A000FFF76EFFA94B9B6EA84AD26E11461846E9
:1020B000FFF744FFA648FFF762FEA44B9B6EA34ABE
:1020C000D26E11461846FFF7A3FEA148FFF7C0FDE8
:1020D0009F48FFF7DEFD4FF4806300939D4B9E4ABF
:1020E00005219E4807F09DFC4FF4806300939C4BB4
:1020F0009C4A06219C4807F094FC03220021012001
:102100000DF05BFE0346914AC2F8E0308F4BD3F8E6
:10211000E4408E4BD3F8E85001219448FFF752FE7B
:1021200003461A4629462046FFF7EEFE874BD3F8B2
:10213000E430864AD2F8E810844AB2F8F020184613
:10214000FFF788FE814BD3F8E430804AD2F8E810DC
:102150007E4AD2F8EC201846FFF7BCFE7B4BD3F842
:10216000E4307A4AD2F8E82011461846FFF708FF13
:10217000764BD3F8E430754AD2F8E8201146184679
:10218000FFF7DCFE7948FFF7FAFD704BD3F8E43037
:102190006E4AD2F8E82011461846FFF739FE734818
:1021A000FFF756FD7148FFF774FD4FF480730093FD
:1021B0006F4B704A0921704807F033FC4FF480736D
:1021C00000936E4B6E4A0A216E4807F02AFC0322E8
:1021D000002101200DF0F1FD03465C4AC2F85C319C
:1021E0005A4BD3F86041594BD3F8645101216648EA
:1021F000FFF7E8FD03461A4629462046FFF784FE0E
:10220000524BD3F86031514AD2F864114F4AB2F8B8
:102210006C211846FFF71EFE4C4BD3F860314B4A39
:10222000D2F86411494AD2F868211846FFF752FEE5
:10223000464BD3F86031454AD2F86421114618461E
:10224000FFF79EFE414BD3F86031404AD2F864213B
:1022500011461846FFF772FE4B48FFF790FD3B4BC7
:10226000D3F86031394AD2F8642111461846FFF795
:10227000CFFD4548FFF7ECFC4348FFF70AFD4FF45C
:1022800080630093414B424A0721424807F0C9FB53
:102290004FF480630093404B404A0821404807F0C8
:1022A000C0FB0322002101200DF087FD0346274AD1
:1022B000C2F8D831254BD3F8DC41244BD3F8E05198
:1022C00001213848FFF77EFD03461A46294620467D
:1022D000FFF71AFE1D4BD3F8DC311C4AD2F8E0118F
:1022E0001A4AB2F8E8211846FFF7B4FD174BD3F8A5
:1022F000DC31164AD2F8E011144AD2F8E42118462B
:10230000FFF7E8FD114BD3F8DC31104AD2F8E02199
:1023100011461846FFF734FE0C4BD3F8DC310B4A5C
:10232000D2F8E02111461846FFF708FE1D48FFF7D6
:1023300026FD39E0984F012410BA02082C470124E9
:10234000985301241CBA02085C4701242847012441
:1023500000100140985E012428BA0208A847012411
:102360009862012434BA0208D8470124004400408E
:102370009858012440BA020824480124985901249D
:102380004CBA02085448012400140140986A012400
:1023900058BA0208A0480124986E012464BA0208C1
:1023A000D048012400780040094BD3F8DC31084ABA
:1023B000D2F8E02111461846FFF72AFD0548FFF73D
:1023C00047FC0448FFF765FC00231846BD46B0BD36
:1023D000284701240078004080B584B000AF7860C1
:1023E0000B46FB707868FFF7EDFDB860BB68002B0B
:1023F0001FD0134BFB6005E0FB68013BFB60FB68F3
:10240000002B18D0BB683433FA781146184607F011
:102410003BFB034683F00103DBB2002BECD1786871
:10242000FFF79AFC0346002B06D17868FFF752FCB1
:1024300002E000BF00E000BF1037BD4680BD00BF16
:1024400020A1070080B584B000AF7860396078685B
:10245000FFF7B8FDF860FB68002B11D03B68002B3C
:102460000ED008E03B681B7819467868FFF7B4FF88
:102470003B6801333B603B681B78002BF2D100E0E6
:1024800000BF1037BD4680BD80B584B000AF786016
:102490007868FFF797FDF860FB68002B20D078681C
:1024A000FFF7C3FB0346002B1BD07868FFF754FCF3
:1024B0000346002B15D0FB68343307F10B0211469D
:1024C000184607F027FB0346002B05D0FB7A194678
:1024D0007868FFF78DFC04E07868FFF71CFC00E0EB
:1024E00000BF1037BD4680BD80B58AB000AF7860B0
:1024F0000023BB607868FFF765FDB861BB69002BFE
:102500007CD0BB699B6F7B61BB699A6EBB69DB6EDC
:1025100019461046FFF7C6FC03467B82BB69B3F839
:1025200074301A467B8AD31AFB60FA687B699A4238
:1025300056D0FA687B699A4214D97B697B620CE0B9
:10254000BB69181DBB691A6F7B6A13441B78194657
:1025500007F09AFA7B6A01337B627A6AFB689A42D7
:10256000EED32AE07B693B620CE0BB69181DBB69B6
:102570001A6F3B6A13441B78194607F085FA3B6AC9
:1025800001333B62BB69B3F874301A463B6A93422D
:10259000EBD30023FB610CE0BB69181DBB691A6F0C
:1025A000FB6913441B78194607F06EFAFB69013387
:1025B000FB61FA69FB689A42EED3BB695B6E07F177
:1025C0000802114618460DF0ADFDBB68002B07D080
:1025D0000C4B4FF080521A60BFF34F8FBFF36F8FD9
:1025E000BB69FA689A67BB699B6FBA69B2F87420D5
:1025F000934204D1BB6900229A6700E000BF2837EC
:10260000BD4680BD04ED00E080B584B000AF7860C9
:102610007868FFF7D7FCF860FB68002B02D14FF019
:10262000FF330EE0FB68043307F10B021146184636
:1026300007F070FA0346002B01D0FB7A01E04FF05F
:10264000FF3318461037BD4680BD80B584B000AF5B
:1026500078607868FFF7B6FCF860FB68002B01D162
:10266000002305E0FB680433184607F0D0FA034660
:1026700018461037BD4680BD80B584B000AF786085
:102680007868FFF79FFCF860FB68002B01D10023FE
:1026900006E0FB683433184607F07DFA034600BFB6
:1026A00018461037BD4680BD80B582B000AF786057
:1026B0000B46FB7000BF7868FFF7B7FA0346002BA4
:1026C000F9D0FB7819467868FFF792FB00BF78686D
:1026D000FFF798FA0346002BF9D000BF00BF083778
:1026E000BD4680BD80B582B000AF786039603B6880
:1026F000002B0ED008E03B681B7819467868FFF77E
:10270000D3FF3B6801333B603B681B78002BF2D161
:1027100000E000BF0837BD4680BD000080B582B034
:1027200002AF4FF400630093084B094A03210948A4
:1027300007F077F94FF480630093074B074A0421B1
:10274000074807F06EF900BFBD4680BDCC76012476
:1027500070BA0208CC7E01249872012478BA02086B
:102760009876012480B582B000AF0346FB71FB79F7
:102770001946044807F088F9034618460837BD464D
:1027800080BD00BFCC7E012480B582B000AF03467F
:10279000FB71FB791946044807F076F903461846A1
:1027A0000837BD4680BD00BF9876012480B584B04F
:1027B00000AF786039600023FB600023BB600FE04E
:1027C0007A68BB6813441B781846FFF7CBFF0346B3
:1027D000002B02D0FB680133FB60BB680133BB6098
:1027E000BA683B689A42EBD3FB6818461037BD467F
:1027F00080BD80B584B000AF786039600023FB6095
:102800000023BB600FE07A68BB6813441B7818464E
:10281000FFF7BAFF0346002B02D0FB680133FB60D1
:10282000BB680133BB60BA683B689A42EBD3FB6874
:1028300018461037BD4680BD80B582B000AF7860C5
:102840007968044807F066F9034618460837BD461C
:1028500080BD00BFCC7E012480B582B000AF78601F
:102860007968044807F056F9034618460837BD460C
:1028700080BD00BF9876012480B483B000AF78603B
:10288000044A7B68136000BF0C37BD465DF8047BCB
:10289000704700BFFC7E012480B483B000AF786035
:1028A000044A7B68136000BF0C37BD465DF8047BAB
:1028B000704700BFC876012480B483B000AF786051
:1028C000044A7B68136000BF0C37BD465DF8047B8B
:1028D000704700BF007F012480B582B000AF0E4B6F
:1028E0001B68002B13D000237B600B4B1B683A1D29
:1028F0000021184610F04AF97B68002B07D0074BDF
:102900004FF080521A60BFF34F8FBFF36F8F00BF3D
:102910000837BD4680BD00BFFC7E012404ED00E009
:1029200080B582B000AF0E4B1B68002B13D0002384
:102930007B600B4B1B683A1D0021184610F026F9EE
:102940007B68002B07D0074B4FF080521A60BFF313
:102950004F8FBFF36F8F00BF0837BD4680BD00BFEC
:10296000C876012404ED00E080B582B000AF0E4BC4
:102970001B68002B13D000237B600B4B1B683A1D98
:102980000021184610F002F97B68002B07D0074B96
:102990004FF080521A60BFF34F8FBFF36F8F00BFAD
:1029A0000837BD4680BD00BF007F012404ED00E074
:1029B00080B582B000AF78600B467B807B8819467B
:1029C0007868FFF7F3FEFFF787FF01231846083703
:1029D000BD4680BD80B582B000AF0346FB71FB7978
:1029E0001846FFF7BFFEFFF777FF012318460837A9
:1029F000BD4680BD80B485B000AF78600D4BFB60F4
:102A00000CE07B685A1C7A601B781A46FB685340BE
:102A1000FB60FB68084A02FB03F3FB607B681B78E2
:102A2000002BEED1FB6818461437BD465DF8047BD9
:102A3000704700BFC59D1C819301000180B485B023
:102A400000AF786039607A683B685340FB60FB6890
:102A50001B0CFA681343FB60FB681B0AFA681343FC
:102A6000FB60FB68DBB2002B0CBF01230023DBB251
:102A700018461437BD465DF8047B704780B584B0B6
:102A800000AF78607868FFF7B5FFF860054BBB6072
:102A9000B968F868FFF7D2FF034618461037BD46FD
:102AA00080BD00BFA37B47C580B584B000AF786010
:102AB00005F094FAF8600023FB7207F10B02012382
:102AC0000021F86805F081FB0346002B02D1FB7A58
:102AD000102B07D91549786800F020F9144B012212
:102AE0001A6020E0FB7A002B16D0FB7A114A0121F4
:102AF000F86805F06AFB0346002B05D1FB7A1A46FD
:102B00000C4B002199540EE00849786800F006F952
:102B1000074B01221A6006E00449786800F0FEF8CD
:102B2000034B01221A601037BD4680BD80BA0208EF
:102B3000187F0124047F012480B584B000AF786041
:102B40000E4B1B68012B0BD17868FFF753FFF86021
:102B50000B4BBB60B968F868FFF770FF034609E0EC
:102B600008497868FDF7BCFB0346002B01D101231F
:102B700000E0002318461037BD4680BD187F0124B1
:102B8000A37B47C5047F012480B582B000AF786085
:102B90007B6893F82830042B10D17B685B6D5A1C3E
:102BA0007B685A657B685B6D064A934206D37868FA
:102BB00000F068F80449786800F0B0F800BF083702
:102BC000BD4680BDE0930400BCBA020880B483B067
:102BD00000AF78607B6893F82830042B02D17B68C3
:102BE00000225A6500BF0C37BD465DF8047B704774
:102BF00080B582B000AF786039607B683A689A65CA
:102C00007B6800221A627B6800225A627B6800227D
:102C100083F828207B680022DA627B6800221A652C
:102C20007B6800225A657B6820220021184627F025
:102C30000EFD7B68303320220021184627F007FD67
:102C40000B49786800F06AF80A49786800F066F87D
:102C50000949786800F062F80849786800F05EF881
:102C60000749786800F05AF800BF0837BD4680BDB4
:102C7000E8BA0208F0BA0208F8BA02080CBB020867
:102C800014BB020880B582B000AF78607B68012277
:102C90001A627B6800225A627B68002283F828202F
:102CA0007B680022DA627B6800221A657B6800225A
:102CB0005A657B6820220021184627F0C8FC7B68F3
:102CC000303320220021184627F0C1FC0D497868D6
:102CD00000F024F80C49786800F020F80B49786877
:102CE00000F01CF80A49786800F018F8094978687B
:102CF00000F014F80849786800F010F800BF0837B1
:102D0000BD4680BDE8BA0208F0BA0208F8BA020867
:102D10000CBB020814BB020818BB020880B582B0C5
:102D200000AF7860396007E07B689A6D3B68591C9A
:102D300039601B78184690473B681B78002BF3D10D
:102D400000BF00BF0837BD4680BD000080B582B01F
:102D500000AF78607B6893F82830002B37D17B6810
:102D600024491846FDF7BCFA0346002B0BD17B68BB
:102D7000012283F828207B680022DA621E497868E5
:102D8000FFF7CCFF31E07B681C491846FDF7A8FA35
:102D90000346002B0ED17868FFF786FE7B6802227F
:102DA00083F828207B680022DA6213497868FFF7ED
:102DB000B5FF1AE012497868FFF7B0FF114978684B
:102DC000FFF7ACFF10497868FFF7A8FF0DE07B68BC
:102DD00093F82830032B04D07B6893F82830042B19
:102DE00003D10A497868FFF799FF00BF0837BD464D
:102DF00080BD00BF30BB020838BB020844BB0208DC
:102E00004CBB020814BB020818BB020878BB0208BE
:102E100080B582B000AF78600B46FB707B6893F89A
:102E20002830012B05D07B6893F82830022B40F026
:102E3000ED800A22FB78934204D00D22FB78934266
:102E400040F0B6807B681B6D7A681344002283F8DB
:102E500030207B6893F82830012B38D17B683033E1
:102E60001846FFF70BFE0346012B30D17B68032287
:102E700083F828209A497868FFF750FF99497868C5
:102E8000FFF74CFF98497868FFF748FF9449786846
:102E9000FFF744FF95497868FFF740FF9449786849
:102EA000FFF73CFF93497868FFF738FF924978684D
:102EB000FFF734FF91497868FFF730FF8B49786856
:102EC000FFF72CFF86497868FFF728FF6CE07B68E6
:102ED00093F82830022B38D17B6830331846FFF73F
:102EE0002BFE0346012B30D17B68042283F8282077
:102EF0007B497868FFF712FF7A497868FFF70EFF81
:102F00007F497868FFF70AFF75497868FFF706FF81
:102F100076497868FFF702FF75497868FFF7FEFE8B
:102F200074497868FFF7FAFE73497868FFF7F6FE90
:102F300072497868FFF7F2FE6C497868FFF7EEFE99
:102F400067497868FFF7EAFE2EE07B68DB6A5A1C67
:102F50007B68DA6262497868FFF7E0FE7B68DB6ACB
:102F60000322934214DB7B68002283F82820654902
:102F70007868FFF7D3FE5A497868FFF7CFFE5849C3
:102F80007868FFF7CBFE60497868FFF7C7FE0BE073
:102F90005E497868FFF7C2FE51497868FFF7BEFEC8
:102FA0005B497868FFF7BAFE7B6800221A6592E0F9
:102FB0007F22FB78934216D17B681B6D002B40F378
:102FC0008A807B681B6D5A1E7B681A657B689B6DC7
:102FD000082098477B689B6D202098477B689B6DF5
:102FE0000820984777E07B681B6D1E2B73DC7B689D
:102FF0001B6D591C7A6811657A681344FA7883F856
:1030000030207B689B6D2A20984764E07B6893F8AA
:103010002830032B04D07B6893F82830042B04D18C
:103020003C497868FFF77AFE56E00A22FB78934223
:1030300003D00D22FB7893421CD17B685B6A7A68CF
:103040000021D1547B685B6A002B0ADD2449786833
:10305000FFF764FE7868FFF779FE7B6800225A620A
:103060003AE01F497868FFF759FE27497868FFF76B
:1030700055FE31E07F22FB7893421AD17B685B6A70
:10308000002B29DD7B685B6A5A1E7B685A627B686D
:103090005B6A7A680021D1547B689B6D0820984751
:1030A0007B689B6D202098477B689B6D0820984724
:1030B00012E07B685B6A1E2B0EDC7B685B6A591C26
:1030C0007A6851627A68F978D1547B689B6DFA7896
:1030D0001046984700E000BF00BF0837BD4680BDDE
:1030E00014BB020888BB0208F4BB020818BC020823
:1030F00040BC020868BC020890BC0208B8BC0208C8
:10310000E0BC020804BD020818BB020830BD02087A
:1031100038BB020858BD020880B483B000AF7860A5
:103120007B6893F8283018460C37BD465DF8047B61
:103130007047000080B400AFBFF34F8F00BF064B55
:10314000DB6803F4E0620449044B1343CB60BFF334
:103150004F8F00BF00BFFDE700ED00E00400FA055F
:1031600080B483B000AF786039607B683A689A6158
:1031700000BF0C37BD465DF8047B704780B483B058
:1031800000AF786039603B681A047B689A6100BFC1
:103190000C37BD465DF8047B704780B485B000AF46
:1031A00003460A46FB8013467B7141F22103BB8133
:1031B0007B791BB21B021AB2B7F9063053401BB21F
:1031C000FB800023FB7313E0B7F90630002B09DA0C
:1031D000B7F906305B001AB2B7F90C3053401BB296
:1031E000FB8002E0FB885B00FB80FB7B0133FB7311
:1031F000FB7B072BE8D9FB8818461437BD465DF8E2
:10320000047B704780B586B000AFF860B9607A6023
:103210000121B86802F0D2F978617B69002B04D1F2
:103220003F49F86802F008F976E0786926F04AFF2D
:1032300038613B691E2B6AD801A252F823F000BF07
:10324000BD320008C5320008CF3200080F33000835
:103250000F3300080F3300080F3300080F33000846
:103260000F3300080F330008D9320008E13200089C
:10327000E9320008F13200080F3300080F3300086C
:103280000F3300080F3300080F3300080F33000816
:10329000F9320008033300080F3300080F33000829
:1032A0000F3300080F3300080F3300080F330008F6
:1032B0000F3300080F330008093300081E2004F004
:1032C00057F825E04FF4806004F094F820E04FF4C4
:1032D000007004F0DFF81BE0002004F025F917E08F
:1032E000012004F021F913E0022004F01DF90FE0A1
:1032F000032004F019F90BE04AF6CD3004F056F93A
:1033000006E004F0A3F903E004F0DCF900E000BFFC
:103310000449F86802F090F81837BD4680BD00BF38
:10332000A8C30208BCC3020880B5A8B002AFF86009
:10333000B9607A600121B86802F040F9C7F88400EA
:103340000221B86802F03AF9C7F880000023A7F814
:103350009630D7F88430002B03D0D7F88030002B7C
:1033600004D1A049F86802F067F838E1D7F8840082
:1033700026F0A8FEF86700220021D7F8800026F08A
:10338000D5FFB867BB6F002B03D0BB6FB3F5483FC9
:103390000ED907F110004FF44833934A642127F007
:1033A00091F807F110031946F86802F045F816E1A4
:1033B000FDF746FB0346032B1BD0FDF741FB0346FD
:1033C000022B08D0FDF73CFB0346012B01D1874BB4
:1033D00002E0874B00E0874B07F11000864A64212A
:1033E00027F070F807F110031946F86802F024F886
:1033F000F5E00220FDF7D2FAFB6F032B6DD0FB6FD7
:10340000032B00F39C80FB6F012B03D0FB6F022B7F
:103410002CD094E00023C7F890301AE0D7F8903011
:1034200087F87530D7F89030744A134497F87520B0
:103430001A7097F87520B7F8963011461846FFF7BE
:10344000ACFE0346A7F89630D7F890300133C7F8A2
:103450009030D7F89020BB6F9A42DFD307F110006D
:10346000BB6F674A642127F02DF870E00023C7F88E
:103470008C3025E0D7F88C10624BA3FB01239A090E
:1034800013465B0013445B01CA1AD3B2203387F89A
:103490007630D7F88C30594A134497F876201A7052
:1034A00097F87620B7F8963011461846FFF775FE64
:1034B0000346A7F89630D7F88C300133C7F88C3024
:1034C000D7F88C20BB6F9A42D4D307F11000BB6FA2
:1034D0004D4A642126F0F6FF39E00023C7F8883012
:1034E00020E026F0F3FD03465A42DBB2D2B258BFC9
:1034F000534287F87730D7F88830404A134497F81A
:1035000077201A7097F87720B7F89630114618464A
:10351000FFF743FE0346A7F89630D7F8883001330B
:10352000C7F88830D7F88820BB6F9A42D9D307F103
:103530001000BB6F354A642126F0C4FF07E0344910
:10354000F86801F079FF0320FDF728FA47E04FF40F
:103550007A700DF03FFE0120FDF720FA07F110030D
:103560001946F86801F068FF244A244B1B7807F1DC
:10357000100000931346274A642126F0A3FF07F1A9
:1035800010031946F86801F057FFBB6F013B1B4A57
:1035900013441946BB6F013B184A13441B7807F1CB
:1035A000100000930B461C4A642126F08BFF07F1A4
:1035B00010031946F86801F03FFFB7F8963007F19D
:1035C0001000164A642126F07DFF07F1100319460A
:1035D000F86801F031FF1249F86801F02DFF9837C3
:1035E000BD4680BDC0C3020810C4020838C402082A
:1035F00044C402084CC4020854C40208000000304D
:1036000078C40208ABAAAAAAA8C40208D8C40208AF
:10361000FCC402082CC5020850C5020870C5020887
:10362000BCC3020880B5AAB002AFF860B9607A6086
:103630000121B86801F0C2FFC7F884001023C7F861
:1036400080300023C7F89C300023A7F89A30D7F8C1
:103650008430002B04D18049F86801F0EDFEF7E0DA
:1036600000220021D7F8840026F060FEF867FB6F87
:10367000002B03D0FB6FB3F5483F0ED907F11400C0
:103680004FF44833754A642126F01CFF07F11403F8
:103690001946F86801F0D0FEDAE007F11400FB6F7C
:1036A0006F4A642126F00EFF07F114031946F868EB
:1036B00001F0C2FE0023C7F89430AEE0D7F8943092
:1036C00003F1605307F11400664A642126F0FAFE04
:1036D00007F114031846FCF70DFE024607F1140328
:1036E0001344C7F890300023C7F88C3031E0D7F886
:1036F0009420D7F88C30134403F160531B7887F87B
:103700007B3007F11403D7F89020D31AC3F164017A
:1037100097F87B30544AD7F8900026F0D3FED7F8BC
:1037200090300333C7F89030D7F89C300133C7F896
:103730009C3097F87B20B7F89A3011461846FFF76F
:103740002CFD0346A7F89A30D7F88C300133C7F820
:103750008C30D7F88C20D7F880309A4207D2D7F82F
:103760009420D7F88C301344FA6F9A42BFD8D7F818
:1037700090305A1CC7F8902020221A70D7F8903049
:103780005A1CC7F890207C221A700023C7F8883092
:1037900021E0D7F89420D7F88830134403F1605320
:1037A0001B7887F87A3097F87A301F2B06D997F86C
:1037B0007A307E2B02D897F87A1000E02E21D7F8C5
:1037C00090305A1CC7F890200A461A70D7F88830F3
:1037D0000133C7F88830D7F88820D7F880309A426C
:1037E00007D2D7F89420D7F888301344FA6F9A425A
:1037F000CFD8D7F8903000221A7007F11403194679
:10380000F86801F019FE01200DF0E4FCD7F89420CF
:10381000D7F880301344C7F89430D7F89420FB6F62
:103820009A42FFF44BAFB7F89A3007F114000093B7
:10383000D7F89C300D4A642126F044FE07F11403AA
:103840001946F86801F0F8FD0949F86801F0F4FD3F
:10385000A037BD4680BD00BF88C5020810C402085D
:10386000B0C50208D8C50208E4C50208ECC50208C4
:10387000BCC3020880B5A0B000AFF860B9607A6040
:103880000121B86801F09AFEF867FB6F002B04D1A4
:103890003449F86801F0D0FD60E03349F86FFCF777
:1038A0001FFD0346002B42D1FDF7CAF8034687F8F7
:1038B0007B3097F87B30032B2AD801A252F823F0F3
:1038C000D1380008E1380008F13800080139000853
:1038D00007F11403254A6421184626F0F3FD1FE082
:1038E00007F11403224A6421184626F0EBFD17E085
:1038F00007F114031F4A6421184626F0E3FD0FE088
:1039000007F114031C4A6421184626F0DBFD07E08A
:1039100007F11403194A6421184626F0D3FD00BFAD
:1039200007F114031946F86801F086FD12E0144906
:10393000F86FFCF7D5FC0346002B07D10320FDF7F9
:103940002DF81049F86801F077FD03E00E49F8689A
:1039500001F072FD0D49F86801F06EFD8037BD463B
:1039600080BD00BF24C6020844C6020848C602083B
:103970005CC6020874C6020888C602089CC6020813
:10398000D4C10208B4C60208D0C60208BCC30208EB
:1039900080B5A0B000AFF860B9607A6005F0C2F9F8
:1039A000F867FB6F1B7D83F00103DBB2002B04D0B3
:1039B0001749F86801F040FD27E005F0FDFA0346DD
:1039C00087F87B3097F87B30002B0DD107F114037B
:1039D000104A6421184626F075FD07F114031946B4
:1039E000F86801F029FD0CE007F114030A4A64218C
:1039F000184626F067FD07F114031946F86801F030
:103A00001BFD0649F86801F017FD8037BD4680BDF3
:103A100000C7020824C702084CC70208BCC302083A
:103A200090B5ABB004AFF860B9607A600121B868B6
:103A300001F0C4FDC7F894000221B86801F0BEFD92
:103A4000C7F89000D7F89430002B03D0D7F8903007
:103A5000002B04D13449F86801F0EEFC61E0D7F89E
:103A6000940026F02FFB034687F88F3000220021B8
:103A7000D7F8900026F05AFCC7F888002B4A97F830
:103A80008F30D7F88810184605F084F9034687F878
:103A9000873097F88730002B1ED107F110031846A6
:103AA00005F014FA0346002B37D17A693B7C19469E
:103AB000BB69B88B044607F1200002940193009182
:103AC00013461B4A642126F0FDFC07F1200319462A
:103AD000F86801F0B1FC20E097F88730022B0ED196
:103AE00097F88F3007F12000124A642126F0EAFC93
:103AF00007F120031946F86801F09EFC0DE097F8E5
:103B0000873007F120000C4A642126F0DBFC07F126
:103B100020031946F86801F08FFC0849F86801F0A5
:103B20008BFC9C37BD4690BD70C70208000000307A
:103B300094C70208D4C70208F4C70208BCC302082D
:103B400080B5A4B002AFF860B9607A6005F06EFA93
:103B5000034687F8873097F88730032B38D801A2BF
:103B600052F823F0C73B0008893B00087F3B000860
:103B7000753B00081D49F86801F05EFC2DE01C490A
:103B8000F86801F059FC28E007F11003184605F029
:103B90009DF90346002B11D1BB8B1A46BB6907F177
:103BA000200000931346134A642126F08BFC07F192
:103BB00020031946F86801F03FFC0EE00E49F86852
:103BC00001F03AFC09E00D49F86801F035FC04E029
:103BD0000B49F86801F030FC00BF0A49F86801F0B1
:103BE0002BFC00BF8837BD4680BD00BF1CC8020843
:103BF00028C8020834C8020864C8020890C802082D
:103C0000A0C80208BCC3020880B5A6B002AFF86025
:103C1000B9607A600121B86801F0D0FCC7F884006F
:103C2000D7F88430002B04D14349F86801F004FC34
:103C30007FE000220021D7F8840026F077FBC7F848
:103C40008000D7F88030002B04D0D7F88030B3F54F
:103C5000483F0ED907F114004FF44833374A642126
:103C600026F030FC07F114031946F86801F0E4FB74
:103C70005FE004F01DFDF867FB6FDB7A83F0010362
:103C8000DBB2002B04D02E49F86801F0D5FB50E0E0
:103C9000D7F880104FF0605004F056FD034687F8C7
:103CA0007B3097F87B30002B31D10023A7F88E3082
:103CB0000023C7F8883012E0D7F8883003F160534A
:103CC0001A78B7F88E3011461846FFF766FA0346A1
:103CD000A7F88E30D7F888300133C7F88830D7F886
:103CE0008820D7F880309A42E6D3B7F88E3007F1B3
:103CF00014000093D7F88030124A642126F0E2FBCA
:103D000007F114031946F86801F096FB0DE097F8E7
:103D10007B3007F114000C4A642126F0D3FB07F135
:103D200014031946F86801F087FB0849F86801F0A8
:103D300083FB9037BD4680BDB0C8020810C402089E
:103D4000DCC8020800C902082CC90208BCC302086A
:103D500080B588B000AFF860B9607A6007F11403ED
:103D6000074A0A21184626F0ADFB07F1140319464D
:103D7000F86801F061FB00BF2037BD4680BD00BF81
:103D800050C90208F0B5B3B006AFF860B9607A6008
:103D90000121B86801F012FCC7F8AC000221B86834
:103DA00001F00CFCC7F8A8000321B86801F006FC7C
:103DB000C7F8A4000421B86801F000FCC7F8A0000F
:103DC0000521B86801F0FAFBC7F89C000621B86825
:103DD00001F0F4FBC7F89800D7F8AC30002B13D0F3
:103DE000D7F8A830002B0FD0D7F8A430002B0BD079
:103DF000D7F8A030002B07D0D7F89C30002B03D089
:103E0000D7F89830002B0DD107F11803624A6421CE
:103E1000184626F057FB07F118031946F86801F019
:103E20000BFBB6E0D7F8AC0026F04CF9C7F89400CD
:103E3000D7F8A80026F046F9C7F89000D7F8A400F4
:103E400026F040F9C7F88C00D7F8A00026F03AF920
:103E5000C7F88800D7F89C0026F034F9C7F884002A
:103E6000D7F8980026F02EF9C7F88000D7F89430DC
:103E7000002B03DBD7F89430172B04DD4749F86893
:103E800001F0DAFA85E0D7F89030002B03DBD7F8A1
:103E900090303B2B04DD4249F86801F0CDFA78E020
:103EA000D7F88C30002B03DBD7F88C303B2B04DDAC
:103EB0003C49F86801F0C0FA6BE0D7F88830002B75
:103EC00003DDD7F888301F2B04DD3749F86801F08F
:103ED000B3FA5EE0D7F88430002B03DDD7F88430E6
:103EE0000C2B04DD3149F86801F0A6FA51E0D7F84F
:103EF0008030002B03DBD7F88030632B04DD2C49A6
:103F0000F86801F099FA44E0D7F89430DBB2FB741A
:103F1000D7F89030DBB23B75D7F88C30DBB27B75CD
:103F2000D7F88830DBB23B74D7F88430DBB27B74CF
:103F3000D7F88030DBB2BB7407F11003184605F0E8
:103F4000D9FB03F01BFFF86707F110031946F86F60
:103F500003F06AFFFB7C1E463B7D7A7D397C787CD2
:103F60000446B87C054607F11800049503940291B5
:103F70000192009333460F4A642126F0A3FA07F119
:103F800018031946F86801F057FA0B49F86801F070
:103F900053FAB437BD46F0BD58C9020898C90208A3
:103FA000CCC9020800CA020834CA020864CA02085E
:103FB00098CA0208E0CA0208BCC30208F0B5B5B04E
:103FC00006AFF860B9607A600121B86801F0F6FACE
:103FD000C7F8B400D7F8B430002B0DD107F1440373
:103FE000B94A6421184626F06DFA07F144031946D0
:103FF000F86801F021FA63E1B449D7F8B400FCF79E
:104000006FF90346002B3FD103F0B8FEC7F8A800B4
:1040100007F13C031946D7F8A80003F0B9FE0346A0
:10402000002B2CD107F13A031946D7F8A80003F06A
:104030003FFF97F83F309C4697F8403097F8412073
:1040400097F83C1097F83D00044697F83E00054667
:10405000B7F93A00064607F1440005960495039423
:104060000291019200936346994A642126F02AFA4C
:1040700007F144031946F86801F0DEF91CE195499F
:10408000F86801F0D9F917E19349D7F8B400FCF7C3
:1040900027F90346002B26D107F13403184605F013
:1040A00013FB97F837301E4697F8383097F83920C9
:1040B00097F8341097F83500044697F8360005460F
:1040C00007F1440004950394029101920093334652
:1040D000824A642126F0F6F907F144031946F8688C
:1040E00001F0AAF9E8E07E49D7F8B400FCF7F8F847
:1040F0000346002B2ED100233B63002387F82F308B
:10410000002387F82E30002387F82D3007F12D0388
:1041100007F12E0207F12F0107F1300005F02EFB09
:1041200097F82F301C4697F82E3097F82D20396BD2
:10413000C9B207F144000291019200932346694AF3
:10414000642126F0BFF907F144031946F86801F02D
:1041500073F9B1E06449D7F8B400FCF7C1F803463D
:10416000002B40F09C8003F009FEC7F8B00007F177
:1041700024031946D7F8B00003F00AFE0346002BCB
:104180002CD107F112031946D7F8B00003F090FEC6
:1041900097F827309C4697F8283097F8292097F809
:1041A000241097F82500044697F826000546B7F92D
:1041B0001200064607F14400059604950394029107
:1041C000019200936346424A642126F07BF907F18D
:1041D00044031946F86801F02FF903E04349F868F1
:1041E00001F02AF907F11C03184605F06DFAFB7F70
:1041F0001E4697F8203097F82120397F787F0446B3
:10420000B87F054607F1440004950394029101929A
:1042100000933346314A642126F054F907F14403F0
:104220001946F86801F008F90023BB610023FB750B
:104230000023BB7500237B7507F1150307F11602F8
:1042400007F1170107F1180005F098FAFB7D1C46ED
:10425000BB7D7A7DB969C9B207F144000291019230
:10426000009323461F4A642126F02CF907F14403EA
:104270001946F86801F0E0F805F072FAC7F8AC00EA
:1042800007F14400D7F8AC30194A642126F01AF936
:1042900007F144031946F86801F0CEF80CE007F185
:1042A0004403144A6421184626F00CF907F144032C
:1042B0001946F86801F0C0F80F49F86801F0BCF839
:1042C000BC37BD46F0BD00BF10CB020834CB02089E
:1042D0003CCB020884CB0208A0CB0208A8CB020882
:1042E000E4CB0208ECCB020820CC020824CC020864
:1042F0003CCC02084CCC0208BCC30208F0B5A9B003
:1043000006AFF860B9607A600121B86801F056F92B
:10431000C7F88400D7F88430002B0DD107F11C03B7
:104320002B4A6421184626F0CDF807F11C031946E4
:10433000F86801F081F847E000220021D7F88400F6
:1043400025F0F4FFC7F88000D7F88030214A934267
:104350000DD807F11C00204B204A642126F0B2F84A
:1043600007F11C031946F86801F066F82CE0D7F84D
:10437000800005F0D5F9D7F88020194B134407F1D8
:1043800014021146184604F003FFFB7D1E463B7ED7
:104390007A7E397D787D0446B87D054607F11C009C
:1043A0000495039402910192009333460D4A6421CF
:1043B00026F088F807F11C031946F86801F03CF86C
:1043C0000949F86801F038F88C37BD46F0BD00BFE8
:1043D0007CCC02087F436D3880436D3898CC02084E
:1043E00080BC92C7E0CA0208BCC3020880B5A4B072
:1043F00002AFF860B9607A600121B86801F0DEF8B8
:10440000C7F884000221B86801F0D8F8C7F8800026
:10441000D7F88430002B03D0D7F88030002B0DD193
:1044200007F11403254A6421184626F04BF807F1DA
:1044300014031946F86800F0FFFF3CE00022002159
:10444000D7F8840025F0FAFE0346A7F87E30002254
:104450000021D7F8800025F0F1FE0346DBB2FB74A3
:1044600003F0BCFDB867B7F87E1007F11302012313
:10447000B86F03F01BFE0346002B0AD1B7F87E305D
:10448000FA7C07F1140000920D4A642126F01AF814
:1044900007E0B7F87E3007F114000A4A642126F0DD
:1044A00011F807F114031946F86800F0C5FF064932
:1044B000F86800F0C1FF8837BD4680BDB8CC02085F
:1044C000DCCC0208FCCC0208BCC3020880B5A4B056
:1044D00002AFF860B9607A600121B86801F06EF847
:1044E000C7F88400D7F88430002B0DD107F11803EA
:1044F000224A6421184625F0E5FF07F11803194602
:10450000F86800F099FF35E000220021D7F8840018
:1045100025F094FE0346A7F882300023FB7503F0D4
:104520005DFDF867B7F8821007F117020123F86FF5
:1045300003F04BFE0346002B0AD1B7F88230FA7D18
:1045400007F1180000920E4A642125F0BBFF07E036
:10455000B7F8823007F118000A4A642125F0B2FF4B
:1045600007F118031946F86800F066FF0649F86875
:1045700000F062FF8837BD4680BD00BF18CD02083D
:1045800034CD020854CD0208BCC3020880B584B003
:1045900000AFF860B9607A60F86802F063FD044922
:1045A000F86800F049FF00BF1037BD4680BD00BF6E
:1045B000BCC3020880B586B000AFF860B9607A600D
:1045C00002F0F4F90D49F86800F036FF02F062FBE2
:1045D0000346FB75FB7D002B04D00949F86800F009
:1045E0002BFF03E00749F86800F026FF0649F8684A
:1045F00000F022FF00BF1837BD4680BD70CD020815
:1046000088CD02089CCD0208BCC3020880B584B0E6
:1046100000AFF860B9607A6002F0DAF90549F8682D
:1046200000F00AFF0449F86800F006FF00BF1037E9
:10463000BD4680BDB8CD0208BCC3020880B5A6B097
:1046400000AFF860B9607A600121B86800F0B6FF89
:10465000C7F894000221B86800F0B0FFC7F89000D6
:10466000D7F89430002B03D0D7F89030002B04D12A
:104670001149F86800F0E0FE1BE0D7F89020D7F869
:104680009410F86802F002FC0346002B0DD107F1EC
:104690001000D7F89430094A802125F013FF07F164
:1046A00010031946F86800F0C7FE0549F86800F0E5
:1046B000C3FE9837BD4680BDD0CD0208F0CD0208BC
:1046C000BCC3020880B5A8B000AFF860B9607A60DA
:1046D0000121B86800F072FFC7F89C000221B86899
:1046E00000F06CFFC7F89800D7F89C30002B03D07F
:1046F000D7F89830002B04D11C49F86800F09CFED4
:1047000031E0D7F89800FBF7F5FDC7F89400D7F82B
:104710009430B3F5005F04D91549F86800F08CFEB9
:1047200021E0D7F89420D7F89810D7F89C0002F031
:1047300009FA0346002B0ED107F11400D7F89C307C
:104740000C4A802125F0BEFE07F114031946F868D3
:1047500000F072FE03E00849F86800F06DFE0749BA
:10476000F86800F069FEA037BD4680BDD0CD0208D4
:1047700008CE0208F0CD020824CE0208BCC302080D
:1047800080B586B000AFF860B9607A600121B86882
:1047900000F014FF78617B69002B04D10749F868A9
:1047A00000F04AFE07E07969F86802F095FA0449DA
:1047B000F86800F041FE1837BD4680BD3CCE0208C7
:1047C000BCC3020880B584B000AFF860B9607A60FD
:1047D00080210B48FEF7D2FC64200CF0FBFC80210A
:1047E0000748FEF7BDFC0749F86800F025FE0649BA
:1047F000F86800F021FE00BF1037BD4680BD00BF45
:104800000018025854CE0208BCC3020880B584B018
:1048100000AFF860B9607A604FF480710748FEF726
:10482000ADFC0749F86800F007FE0649F86800F09B
:1048300003FE00BF1037BD4680BD00BF0018025800
:1048400070CE0208BCC3020880B584B000AFF86027
:10485000B9607A604FF480710748FEF781FC074920
:10486000F86800F0E9FD0649F86800F0E5FD00BFD2
:104870001037BD4680BD00BF0018025898CE020810
:10488000BCC3020880B586B000AFF860B9607A603A
:104890000121B86800F092FE78617B69002B04D199
:1048A0001E49F86800F0C8FD35E01D497869FBF73E
:1048B00017FD0346002B07D11A49F86800F0BCFD2C
:1048C0000120FCF7F7F822E017497869FBF708FDAB
:1048D0000346002B07D11549F86800F0ADFD022012
:1048E000FCF7E8F813E012497869FBF7F9FC034696
:1048F000002B07D10F49F86800F09EFD0020FCF75F
:10490000D9F804E00C49F86800F096FD03E00B4983
:10491000F86800F091FD1837BD4680BDC0CE020892
:10492000E4CE0208E8CE020818CF02081CCF020825
:104930004CCF020854CF020888CF0208BCC302083B
:1049400080B586B000AFF860B9607A600121B868C0
:1049500000F034FE78617B69002B04D11E49F868B1
:1049600000F06AFD34E01D497869FBF7B9FC0346A5
:10497000002B07D10320FCF79DF81949F86800F0D7
:104980005BFD21E017497869FBF7AAFC0346002B81
:1049900007D10420FCF78EF81349F86800F04CFDAD
:1049A00012E012497869FBF79BFC0346002B07D104
:1049B0000020FCF77FF80E49F86800F03DFD03E0A9
:1049C0000C49F86800F038FD0B49F86800F034FD38
:1049D0001837BD4680BD00BFC0CF0208E4CE020834
:1049E000E0CF020818CF020828D0020868D00208D9
:1049F0006CD002089CD00208BCC3020880B588B005
:104A000000AFF860B9607A600121B86800F0D6FDA7
:104A1000B861BB69002B04D11649F86800F00CFDA1
:104A200025E0B869FBF766FC78610D211248FDF7B7
:104A3000D3FC0023FB610AE0BA69FB6913441B78CD
:104A400019460D48FDF7C8FCFB690133FB61FA69A3
:104A50007B699A42F0D30D210748FDF7BDFC074959
:104A6000F86800F0E9FC0649F86800F0E5FC20373A
:104A7000BD4680BDD0D0020800140140ECD0020831
:104A8000BCC3020880B584B000AF78607B68FB606F
:104A90000349F86800F0D0FC00BF1037BD4680BD68
:104AA0000CD1020880B584B000AF78607B68FB60F1
:104AB0000349F86800F0C0FC00BF1037BD4680BD58
:104AC0001CD1020880B584B000AF78607B68FB60C1
:104AD0000349F86800F0B0FC00BF1037BD4680BD48
:104AE0002CD1020880B588B004AFF860B9607A6054
:104AF00000230193FB680093164B00220A21022039
:104B000004F008FF01230293FB680193124B00930A
:104B100000231E2214210A2004F05CFE02230093CD
:104B2000FB680E4A0021142004F0AAFE0C49F86824
:104B300000F082FC0B49F86800F07EFC0A49F86836
:104B400000F07AFC0949F86800F076FC00BF1037E5
:104B5000BD4680BD854A0008A54A0008C54A000830
:104B600040D1020864D1020884D10208BCC3020803
:104B700090B5ADF20C4D04AF07F57E73A3F57B73D2
:104B8000186007F57E73A3F57C73196007F57E73D3
:104B9000A3F57D731A601423C7F8EC330CF0B4FD51
:104BA000C7F8E80307F11400D7F8E833734A4FF465
:104BB000807125F087FC07F1140207F57E73A3F5D9
:104BC0007B731146186800F037FC07F58A730022E2
:104BD000D7F8EC1318460CF0A3FDC7F8E403D7F898
:104BE000E433002B10D107F57E73A3F57B73644982
:104BF000186800F021FC07F57E73A3F57B7361490B
:104C0000186800F019FCB4E007F11400D7F8E43399
:104C10005D4A4FF4807125F055FC07F1140207F549
:104C20007E73A3F57B731146186800F005FC07F549
:104C30007E73A3F57B735549186800F0FDFB07F5FB
:104C40007E73A3F57B735249186800F0F5FB0023CF
:104C5000C7F8F43377E007F57E73A3F53971D7F819
:104C6000F4231346DB0013449B000B440C331B78E6
:104C7000042B21D801A252F823F000BF914C000868
:104C8000994C0008A14C0008A94C0008B14C000840
:104C9000404BC7F8F03313E03F4BC7F8F0330FE059
:104CA0003E4BC7F8F0330BE03D4BC7F8F03307E05D
:104CB0003C4BC7F8F03303E03B4BC7F8F03300BF81
:104CC00007F57E73A3F53971D7F8F4231346DB009B
:104CD00013449B000B4404331C6807F57E73A3F553
:104CE0003971D7F8F4231346DB0013449B000B44BF
:104CF0001033196807F57E73A3F53970D7F8F423DC
:104D00001346DB0013449B00034420331B6807F168
:104D1000140002930191D7F8F03300932346234AFD
:104D20004FF4807125F0CEFB07F1140207F57E7376
:104D3000A3F57B731146186800F07EFBD7F8F433B7
:104D40000133C7F8F433D7F8F423D7F8E4339A42A1
:104D500081D307F57E73A3F57B730D49186800F0C6
:104D60006BFB07F57E73A3F57B730649186800F0AB
:104D700063FB07F57F77BD4690BD00BFA0D1020859
:104D8000C0D10208BCC30208E4D10208F8D102086D
:104D900028D2020854D202085CD2020864D2020867
:104DA0006CD2020874D202087CD2020884D20208B3
:104DB00080B582B000AF78600448FDF763FF044817
:104DC000FDF760FF00BF0837BD4680BD384B0124AA
:104DD000DC4A012490B587B002AFF860B9607A6010
:104DE0001349F86800F028FB124B1B68002B0AD10E
:104DF000114B009300230022642110480EF0DCF8D0
:104E000003460C4A13600B4B1B68002B0BD0094B5D
:104E10001C680CF069FC024600230093002301216A
:104E200020460EF025F900BF1437BD4690BD00BFE7
:104E30009CD202081C7F0124B14D0008ACD20208AC
:104E400080B58AB000AFF860B9607A600121B868B7
:104E500000F0B4FB78627B6A002B04D12E49F8681D
:104E600000F0EAFA55E02D48FEF756F9034687F8B8
:104E700023302B48FEF750F9034687F8223097F885
:104E80002330032B03D097F82230032B3CD1786AD0
:104E9000FBF730FAF861FB69102B04D92149F86857
:104EA00000F0CAFA35E003F099F8B861FB69DBB2AB
:104EB000FB7507F1170201230021B86903F0F6F82A
:104EC0000346002B04D01849F86800F0B5FA20E03A
:104ED000FB69002B0ED0FB699BB27A6A0121B8698D
:104EE00003F0E4F80346002B04D01049F86800F002
:104EF000A3FA0EE00E49F86800F09EFA00BF0D49D3
:104F0000F86800F099FA04E00B49F86800F094FAA8
:104F100000BF2837BD4680BDB8D20208DC4A012454
:104F2000384B0124DCD2020804D3020830D3020833
:104F300054D30208BCC3020878D3020880B584B0F9
:104F400000AFF860B9607A60FEF7F4F880B400AFA3
:104F5000024B1846BD465DF8047B704708DC02082A
:104F600080B400AF20231846BD465DF8047B70472F
:104F700080B582B000AF78600B46FB70FB781846B6
:104F8000FDF728FD00BF0837BD4680BD80B584B061
:104F900000AF78600B46FB70FB78FB73FB7B194618
:104FA0000348FDF719FA00BF1037BD4680BD00BFAA
:104FB0000010014080B582B000AF00F09FF878602B
:104FC0007B68394ADA607B684FF400621A827B683A
:104FD00010229A807B684022DA807B6880221A81C6
:104FE0007B6820225A817B6801229A747B682F4A51
:104FF0001A60FFF7ABFF02467B685A61FFF7B0FF0C
:1050000003461A467B681A83786800F0D2F8034694
:10501000274A1360264B1B68002B01D101233EE079
:10502000234B1B68234A1A6000F068F838603B681D
:10503000214ADA603B684FF400621A823B68102212
:105040009A803B684022DA803B6880221A813B6864
:1050500020225A813B6801229A743B68174A1A60E1
:10506000FFF774FF02463B685A61FFF779FF03467A
:105070001A463B681A83386800F09BF80346104ACA
:1050800013600F4B1B68002B01D1012307E00C4B71
:105090001B680C4A1A600C4B01221A700023184638
:1050A0000837BD4680BD00BF207F0124A8D3020879
:1050B000208F0124714F000820870124BCD30208EF
:1050C000248F01248D4F0008288F012480B400AF65
:1050D000034B1B681846BD465DF8047B704700BF54
:1050E000208F012480B400AF034B1B681846BD46D7
:1050F0005DF8047B704700BF248F012480B400AFAB
:10510000114B40229A80104B4022DA800E4B8022B5
:105110001A810D4B0022DA600B4B00221A820A4BD7
:1051200008225A81084B01229A74074B074A1A60D9
:10513000054B00221A83044B00225A61024B184689
:10514000BD465DF8047B70472C8F0124ECD3020828
:1051500080B485B000AF78607B685B69002B02D1BA
:105160007B685B8900E00023FB817B689B880333BD
:105170009A087B68DB8803339B081A447B681B8989
:1051800003339B08D118FA8913465B001344DB00F4
:1051900003339B08CA18FB8903339B08134412335B
:1051A0009BB29B009BB218461437BD465DF8047B4A
:1051B000704780B588B000AF78600023FB617868E5
:1051C000FFF7C6FF0346BB610023FB757B68DB6806
:1051D000002B05D07B681B8A1A46BB69934201D914
:1051E000002371E07B68DB683B61BA6900213869A4
:1051F00025F02DFA3B69FB613B6910333B61FB698C
:105200003A69DA603B6938333B61FB69DB68FB6014
:10521000FB683A691A617B689B88033323F00303B8
:105220003A6913443B61FB683A69DA617B68DB8861
:10523000033323F003033A6913443B617B685A69E3
:10524000FB685A627B681A8BFB689A857B681A8BAD
:10525000FB68DA85FB683A695A607B681A89FB68E3
:105260001A81FB7D002B08D0FB6893F8333043F0A4
:105270000403DAB2FB6883F833207B689B7C002B45
:1052800008D0FB6893F8333043F02003DAB2FB68B0
:1052900083F833207B689A88FB681A83FB680022B6
:1052A0009A82FB680022DA827B68DA88FB685A847B
:1052B000FB68002283F832207B681A68FB681A605A
:1052C000FB6800229A86FB6918462037BD4680BDE0
:1052D00080B584B000AF78600B46FB707B68DB68FC
:1052E000FB60FB681033FA781146184600F08AFF1D
:1052F000034683F00103DBB2002B08D0FB6893F870
:10530000333043F00103DAB2FB6883F8332000BF87
:105310001037BD4680BD80B584B000AF78607B6833
:105320001B68002B00F083807B68DB68FB60FB68F8
:1053300093F8333003F00203002B55D1FB6893F848
:10534000333043F00203DAB2FB6883F83320FB68A2
:105350001B681946786800F07EFE45E0FB68103354
:10536000184600F027FF0346FB72FB6893F83330C2
:1053700003F00803002B05D0FB7A1946786800F08B
:10538000F5F92AE0FB6893F832301B2B0CD1FB7A3D
:105390005B2B09D1FB6893F8333043F00803DAB292
:1053A000FB6883F8332018E0FB7A184600F0AAFE69
:1053B0000346002B05D0FB7A1946786800F086FA80
:1053C0000BE0FB7A184600F0BDFE0346002B04D02C
:1053D000FB7A1946786800F027FA786800F012FD29
:1053E000FB68FA7A83F83220FB681033184600F025
:1053F000C0FE0346002BB1D1FB6893F8333003F0B5
:105400000103002B14D0FB6800221A84FB68DB69BF
:10541000FA68128C134400221A70FB6893F8333038
:1054200023F00103DAB2FB6883F8332000E000BF09
:105430001037BD4680BD000080B584B000AF7860F5
:1054400039607B681B68002B3ED07B68DB68FB60A3
:10545000FB689B8E7B81FB6893F8333003F010036D
:10546000002B02D1786800F0C1FDFB687A899A862A
:105470003968786800F0EFFD154B1B6819467868AD
:1054800000F0E9FDFB6893F8333003F01003002BC4
:105490001BD1FB681B681946786800F0DCFDFB68CF
:1054A000DB691946786800F0D6FDFB681A8CFB684A
:1054B0001A86FB689B8E00221946786800F0ECFD86
:1054C000786800F09FFC00E000BF1037BD4680BD4B
:1054D0001849012480B588B000AF78607B68002B44
:1054E00066D0354BFB600023FB770023BB7700239E
:1054F000BB6100237B6147E07B6901337B61BB7F3C
:10550000002B02D00023BB7729E0FB7C5C2B02D16F
:105510000123BB7738E0FB7C222B10D1FB7F002BD3
:1055200014BF01230023DBB283F00103DBB2FB775E
:10553000FB7F03F00103FB770023FB740FE0FB7F8D
:1055400083F00103DBB2002B09D0FB7C1946F8681D
:1055500025F085F80346002B01D00023FB74FB7C6B
:10556000002B09D1BB69002B0EDDBB69013B7A68BA
:1055700013441B78002B07D0BB697A681344FA7C6C
:105580001A70BB690133BB617B697A6813441B786D
:10559000FB74FB7C002BAFD1BB697A6813440022FB
:1055A0001A70BB6901337A68134400221A7000E054
:1055B00000BF2037BD4680BDF0D3020880B584B05F
:1055C00000AF78600B467B807B881946786800F0D6
:1055D00020FF0346FB81FB894FF6FF72934203D005
:1055E000FB897A68134400E0002318461037BD4653
:1055F00080BD80B584B000AF78600B467B807B882F
:105600001946786800F005FF0346FB81FB894FF6D9
:10561000FF72934203D0FB897A68134400E00023B1
:1056200018461037BD4680BD80B485B000AF7860A5
:105630007B68002B03D07B681B78002B01D10023F3
:1056400019E00023FB6001237B81FB687A68134427
:105650001B78002B09D1FB6801337A6813441B784F
:10566000002B06D07B8901337B81FB680133FB6013
:10567000EBE700BF7B8918461437BD465DF8047B15
:105680007047000080B586B000AF78600B46FB70B5
:105690007B68DB683B613B699B89002B5FD0FB78B3
:1056A000002B05D03B695A893B699B899A4256D0A9
:1056B000FB7883F00103DBB2002B03D03B695B89ED
:1056C000002B4CD0786800F091FC3B691B681946B0
:1056D000786800F0C0FCFB78002B06D03B695B8942
:1056E00001339AB23B695A8105E03B695B89013B12
:1056F0009AB23B695A813B691A1D3B695B8919461D
:10570000104600F00DFE78617B69002B01D1164B2D
:105710007B617869FAF7EEFD0346FB813B69DB6943
:10572000FA897969184625F02EF83B69DA69FB8910
:10573000134400221A703B69FA891A843B69DB69B9
:105740001946786800F087FC3B691A8C3B691A8619
:105750003B6900229A86786800F054FB00E000BFA5
:105760001837BD4680BD00BFF4D3020890B585B0A0
:1057700000AF78600B46FB707B68DB68FB60FB78F2
:105780003F2B48D9FB787E2B45D8FB6893F8333004
:1057900023F00803DAB2FB6883F83320FB78412B4F
:1057A00002D0FB78422B09D1FB78412B0CBF01239F
:1057B0000023DBB219467868FFF764FFFB78432BC0
:1057C0000FD1FB689B8E002B0BD0FB689B8E013B9F
:1057D0009AB2FB689A86124B1B681946786800F0EB
:1057E0003AFCFB78442B16D1FB689B8E1C46FB6869
:1057F000DB691846FAF77EFD03469C420BD2FB6834
:105800009B8E01339AB2FB689A86064B1B68194639
:10581000786800F020FC00BF1437BD4690BD00BF83
:105820001C4901242049012480B584B000AF786070
:105830000B46FB707B68DB68FB60FB681B8C0233EC
:10584000FA68528C93423BDAFB68DB691846FAF738
:1058500051FD0246FB689B8ED31ABB60FB68DA6978
:10586000BB680133D018FB68DA69BB68D118FB68E4
:105870009B8E01331A4624F0D0FEFB681B8C01334B
:105880009AB2FB681A84FB681B8E01339AB2FB68DC
:105890001A86FB68DA69BB681344FA781A70FB68E9
:1058A0009B8E002B05D0084B1B681946786800F0CA
:1058B000D2FB7B681B68FA7811467868984700E04D
:1058C00000BF1037BD4680BD2C49012480B584B08F
:1058D00000AF78600B46FB707B68DB68FB60FB68A1
:1058E00093F832300D2B02D1FB780A2B78D0FB686D
:1058F00093F832300A2B02D1FB780D2B70D0FB7855
:105900000D2B02D0FB780A2B29D1786800F0DCFA45
:10591000354B1B681946786800F09DFBFB681B8CB3
:10592000002B02D0786800F065F8FB6800221A842A
:10593000FB68DB69FA68128C134400221A70FB685A
:1059400000221A86FB6800225A81FB6800229A8690
:10595000FB681B681946786800F07DFB41E0FB7826
:10596000082B02D0FB787F2B33D1FB681B8C1A46A7
:10597000FB689B8ED31A002B2BDD1C4B1B68194632
:10598000786800F068FB1A4B1B681946786800F0CD
:1059900062FBFB68DB691846FAF7ACFC0246FB6861
:1059A0009B8ED31ABB60FB68DA69BB68013BD018D9
:1059B000FB68DA69BB68D118FB689B8E01331A4615
:1059C00024F02BFEFB681B8C013B9AB2FB681A8407
:1059D00007E0FB78092B04D1786800F075FA00E045
:1059E00000BF1037BD4680BD18490124204901245D
:1059F0003049012490B58FB000AF78607B68DB68D8
:105A0000BB61012387F8373000233B630DE0BB699E
:105A1000DA693B6B13441B78202B03D0002387F8F3
:105A2000373008E03B6B01333B63BB691B8C1A4684
:105A30003B6B9342EBDB97F83730002B40F0FA805A
:105A4000BB691A1DBB69DB691946104600F004FCEE
:105A50000023FB620023BB62002387F8273000236A
:105A60003B6230E0BB69DA693B6A13441B78FB7523
:105A7000FB7D202B0FD1BB6A002B05D1BB69DA69F6
:105A80003B6A134400221A70FB6A002B18D00123D2
:105A900087F8273014E0FB6A002B05D1BB69DA696F
:105AA0003B6A1344FB620BE0BB6A002B08D197F8FA
:105AB0002730002B04D0BB69DA693B6A1344BB6210
:105AC0003B6A01333B62BB691B8C1A463B6A9342BB
:105AD000C8DBBB69DA69BB691B8C01331344002244
