:020000040800F2
:10000000000008240D9301084D8E0108558E01084B
:100010005D8E0108658E01086D8E010800000000EC
:10002000000000000000000000000000313E010858
:10003000758E010800000000F140010859410108D7
:1000400061930108619301086193010861930108BC
:1000500061930108619301086193010861930108AC
:10006000619301086193010861930108858E01087D
:10007000098F0108619301086193010861930108E8
:10008000619301086193010861930108619301087C
:10009000619301086193010861930108619301086C
:1000A000619301088D8F0108619301086193010834
:1000B000619301086193010861930108619301084C
:1000C000619301086193010861930108619301083C
:1000D00061930108998F0108D18F0108619301088C
:1000E0006193010861930108000000006193010819
:1000F0006193010861930108619301080990010867
:10010000619301085190010861930108619301080E
:1001100061930108619301086193010865900108EA
:1001200061930108799001086193010861930108C6
:1001300061930108619301086193010861930108CB
:1001400061930108619301080000000000000000B5
:1001500061930108619301086193010861930108AB
:10016000619301086193010861930108619301089B
:100170006193010861930108619301080000000088
:100180006193010861930108FD90010861930108E2
:1001900061930108359101084391010861930108B9
:1001A000619301086193010861930108619301085B
:1001B000619301086193010861930108619301084B
:1001C000619301086193010861930108619301083B
:1001D000619301086193010861930108619301082B
:1001E000619301086193010861930108619301081B
:1001F000619301086193010861930108619301080B
:1002000061930108619301086193010861930108FA
:1002100061930108619301086193010861930108EA
:1002200061930108619301085191010800000000E9
:1002300061930108619301086193010861930108CA
:1002400061930108659101087191010861930108AA
:1002500061930108619301086193010861930108AA
:10026000619301086193010861930108619301089A
:10027000619301086193010861930108619301088A
:100280006193010861930108619301080000000077
:0802900061930108619301086C
:1002A00010B5054C237833B9044B13B10448AFF3B0
:1002B00000800123237010BD484A01240000000083
:1002C0005431020808B5034B1BB103490348AFF38F
:1002D000008008BD000000004C4A0124543102088F
:1002E00010F8012B11F8013B012A28BF9A42F7D0E0
:1002F000D01A7047034613F8012B002AFBD1181AB5
:1003000001387047000000000000000000000000FD
:1003100001F0FF01102A2BDB10F0070F08D010F8B6
:10032000013B013A8B422DD010F0070F42B3F6D1BA
:10033000F0B441EA012141EA014122F007047FF0D3
:1003400000070023F0E80256083C85EA010586EA2A
:10035000010685FA47F5A3FA87F586FA47F6A5FA66
:1003600087F68EB9EED1F0BC01F0FF0102F0070272
:1003700032B110F8013B013A83EA010313B1F8D11D
:100380000020704701387047002D06BF35460338FE
:10039000073815F0010F07D1013015F4807F02BF37
:1003A000013015F4C03F0130F0BC0138704700BF88
:1003B00053B94AB9002908BF00281CBF4FF0FF31CC
:1003C0004FF0FF3000F088B9ADF1080C6DE904CEB4
:1003D00000F006F8DDF804E0DDE9022304B0704720
:1003E0002DE9F047089D8E4604468846002B4AD1E9
:1003F0008A42174662D9B2FA82F64EB1C6F120039C
:1004000001FA06F820FA03F3B74043EA0808B440BB
:100410004FEA174E1FFA87FCB8FBFEF1230C0EFBC8
:10042000118843EA084301FB0CF29A4209D9FB18F0
:1004300001F1FF3080F0EA809A4240F2E780023911
:100440003B449A1AA3B2B2FBFEF00EFB102243EA21
:10045000024300FB0CFC9C4509D9FB1800F1FF325C
:1004600080F0D6809C4540F2D3803B44023840EA7D
:100470000140A3EB0C0300211DB1F3400022C5E9AC
:100480000032BDE8F0878B4205D90DB1C5E9000106
:1004900000210846F5E7B3FA83F1002946D17345F8
:1004A00002D3824200F20581841A6EEB030201201E
:1004B0009046002DE5D0C5E90048E2E7002A00F0AB
:1004C0009080B2FA82F6002E40F0A4808A1A030CC3
:1004D0004FEA174E80B2BCB20121B2FBFEFC0EFB0C
:1004E0001C2243EA024304FB0CF29A4207D9FB1890
:1004F0000CF1FF3802D29A4200F2E080C4469B1A07
:10050000B3FBFEF20EFB123340EA034302FB04F49A
:100510009C4207D9FB1802F1FF3002D29C4200F244
:10052000CA8002461B1B42EA0C40A5E7C1F1200627
:100530008B4022FA06F71F430EFA01F420FA06F365
:100540002EFA06FE4FEA1749234300FA01F81FFA74
:1005500087FCBEFBF9F01C0C09FB10EE44EA0E44CC
:1005600000FB0CFEA64502FA01F209D93C1900F184
:10057000FF3A80F09C80A64540F2998002383C44C6
:10058000A4EB0E041FFA83FEB4FBF9F309FB13443A
:100590004EEA044403FB0CFCA44508D93C1903F1C2
:1005A000FF3E80F08280A4457FD9023B3C4443EA71
:1005B0000040A4EB0C04A0FB02EC64457346E1464A
:1005C00062D35FD05DB1B8EB030264EB090404FAB7
:1005D00006F622FA01F31E43CC40C5E9006400216F
:1005E0004FE7B1FBF2FC010C41EA0E4180B240EA58
:1005F00001423B4638463C46B846BE462026B1FB43
:10060000F7F1A2EB080241EA0C4166E7014618E760
:1006100010462CE7C6F120022EFA02F3B740B14093
:1006200020FA02F24FEA174E0A43B3FBFEF8BCB2BF
:100630000EFB1833110C41EA034108FB04F9B040EA
:1006400089454FEA104380B23ED9791808F1FF3C42
:1006500001D289451FD8A1EB0901B1FBFEF909FBC5
:1006600004F80EFB191192B242EA0142424529D226
:10067000BA1809F1FF31C4D24245C2D2A9F1020130
:100680003A44BEE7F0459DD2BEEB02036CEB070C8B
:100690000138E14696E7A7EB09094944A8F1020CA5
:1006A000B1FBFEF909FB04F8DBE773467FE7504630
:1006B00066E70846FDE63B44023A33E7ACF1020C3C
:1006C0003B441CE749469CE7A1EB0901C446B1FB4A
:1006D000FEF909FB04F8C4E7704700BF80B582B09B
:1006E00000AF0123FB711C4B01221A701B4808F05C
:1006F000E9F810221A491B4808F03CFA01F034FED0
:100700000346FB7108F0D6F909F05CFD002001F00A
:10071000CDFB154A0221002007F008FE124A0021F5
:10072000002007F003FE104A0121002007F0FEFD23
:100730000D4A0321002007F0F9FD0B4A0421002097
:1007400007F0F4FD084A0521002007F0EFFDFB79D2
:1007500018460837BD4680BD644A01240058004051
:1007600000100258003401406C31020880B500AF1F
:10077000044A0221002007F0D9FD00F0EDF800BF87
:1007800080BD00BF8031020880B582B000AF012378
:10079000FB71114B02221A70104A0021002007F051
:1007A000C5FD09F0E5FE0346FB7109F0E1FE0346D5
:1007B000002B05D10A4A0221002007F0A9FC05E020
:1007C000054AFB799370044B07221A70FB7918468F
:1007D0000837BD4680BD00BF644A01249431020839
:1007E000AC31020880B582B000AF204B03221A70F2
:1007F0000123FB711E4A0021002007F097FD04F041
:1008000073FC0346FB71FB79002B0BD0194A0421C2
:10081000012007F07DFC154AFB799370134B0722EA
:100820001A7004E0144A0221002007F071FC06F05F
:10083000ABFE0346FB71FB79002B0BD00F4A042162
:10084000012007F065FC094AFB799370074B0722EA
:100850001A7004E00A4A0221002007F059FC07F050
:1008600003FFFB7918460837BD4680BD644A012462
:10087000BC310208D4310208F03102080C320208FF
:100880002032020880B582B000AF214B04221A70DA
:100890000123FB711F4A0021002007F047FD09F0EA
:1008A0000DF80346FB71FB79002B0BD01A4A04218B
:1008B000012007F02DFC164AFB799370144B072298
:1008C0001A7004E0154A0221002007F021FC1022D2
:1008D0001349144808F0B8FC0346FB71FB79002B60
:1008E0000BD0114A0421012007F012FC084AFB79C1
:1008F0009370074B07221A7004E00C4A0221002073
:1009000007F006FCFB7918460837BD4680BD00BFDE
:10091000644A012438320208503202086832020860
:100920000000025800140058803202089832020871
:1009300080B500AF064B05221A70054B06221A70CF
:10094000044A0021002007F0F1FC0023184680BD76
:10095000644A0124B032020880B500AF00F0E6F925
:1009600000BF80BD80B5C2B000AF07F58473A3F5AA
:100970008273186007F58473A3F58473196007F513
:100980008473A3F5847307F108001B68084A4FF4C9
:10099000807121F0B7FA07F10803012219460520FA
:1009A00007F068FD00BF07F58477BD4680BD00BF36
:1009B000C832020880B5C0B000AF3B46084A4FF4C9
:1009C0008071184621F09EFA3B4601221946052007
:1009D00007F050FD00BF07F58077BD4680BD00BF22
:1009E000E432020880B483B000AF786039607B687D
:1009F0005A693B6813403A689A4201D1012300E0EA
:100A0000002318460C37BD465DF8047B704780B460
:100A100083B000AF786039607B683A689A6100BF44
:100A20000C37BD465DF8047B704780B483B000AFDF
:100A3000786039603B681A047B689A6100BF0C37A4
:100A4000BD465DF8047B704780B500AF4FF4804130
:100A50000648FFF7DCFF4FF400410448FFF7D7FFDB
:100A6000032000F005F800BF80BD00BF001402584D
:100A700080B582B000AF0346FB71FB79032B37D8FA
:100A800001A252F823F000BF990A0008AF0A00083B
:100A9000C50A0008DB0A00084FF480411C48FFF734
:100AA000C4FF4FF400411A48FFF7BFFF2BE04FF49B
:100AB00080411748FFF7B9FF4FF400411448FFF792
:100AC000A6FF20E04FF480411148FFF7A0FF4FF44C
:100AD00000410F48FFF7A9FF15E04FF480410C4893
:100AE000FFF795FF4FF400410948FFF790FF0AE038
:100AF0004FF480410648FFF798FF4FF40041044847
:100B0000FFF793FF00BF00BF0837BD4680BD00BFA1
:100B10000014025880B582B000AF4FF480411948EC
:100B2000FFF760FF0346002B14BF01230023DBB255
:100B3000FB714FF400411348FFF754FF0346002BAD
:100B400014BF01230023DBB2BB71FB79002B04D15E
:100B5000BB79002B01D1002310E0FB79002B04D1DD
:100B6000BB79012B01D1012308E0FB79012B04D1D2
:100B7000BB79002B01D1022300E00323184608377C
:100B8000BD4680BD0014025880B483B000AF034658
:100B9000FB71064AFB791370054B00221A7000BFE7
:100BA0000C37BD465DF8047B704700BF674A0124DF
:100BB000684A012480B400AF034B1B781846BD4639
:100BC0005DF8047B704700BF674A012480B483B09E
:100BD00000AF0346FB71FB795C2B06D10E4B1B78F3
:100BE0000133DAB20C4B1A7002E00B4B00221A7080
:100BF000094B1B78092B07D9084B00221A70064BAA
:100C000000221A70012300E0002318460C37BD466D
:100C10005DF8047B704700BF684A0124674A0124DD
:100C200080B483B000AF78607B68DB6903F0400379
:100C3000402B01D1012300E0002318460C37BD46AC
:100C40005DF8047B704780B483B000AF78607B6848
:100C5000DB6903F08003802B01D1012300E0002336
:100C600018460C37BD465DF8047B704780B483B0EE
:100C700000AF78600B46FB70FA787B689A6200BF21
:100C80000C37BD465DF8047B704780B483B000AF7D
:100C9000786039607B683A689A6100BF0C37BD465E
:100CA0005DF8047B704780B483B000AF7860396032
:100CB0003B681A047B689A6100BF0C37BD465DF83B
:100CC000047B704780B584B000AF0346FB71FB79AD
:100CD000FB73FB7B1946034801F0FCFC00BF103797
:100CE000BD4680BD0010014080B582B000AF786085
:100CF0000B4A0221002007F019FB00F043F80346DD
:100D0000002B07D0074A0421012007F001FA064B07
:100D100002225A70002010F077FF00BFFDE700BFED
:100D2000FC320208103302086C4A012480B586B0F8
:100D300004AF0F4B02930F4B019305230093002345
:100D40004FF4A0620C490D4810F0ABFD78607B6851
:100D5000002B06D10A4A0521012007F0D9F900BF6E
:100D6000FDE711F0F7F800BF0837BD4680BD00BFB2
:100D7000CC5E0124CC4A012438330208E90C000877
:100D800048330208F0B5CFB006AF012387F817311A
:100D9000FFF7FAFC034687F8173197F81731002B55
:100DA00005D0C94A0521012007F0B2F904E0C74A7D
:100DB0000021002007F0ACF9FFF714FD034687F887
:100DC000173197F81731002B05D0C14A05210120B2
:100DD00007F09EF904E0BF4A0021002007F098F9CF
:100DE000FFF750FD034687F8173197F81731002BAE
:100DF00005D0B94A0521012007F08AF904E0B74A75
:100E00000021002007F084F9FFF792FD034687F8E0
:100E1000173197F81731002B05D0B14A0521012071
:100E200007F076F904E0AF4A0021002007F070F9DE
:100E300006F05AFA06F0BEFE97F81731002B05D0DF
:100E4000A94A0521012007F063F904E0A74A00211F
:100E5000002007F05DF907F59073A3F58873184635
:100E60004FF480731A46002121F011F90023C7F8CE
:100E7000103107F10803184609F0E8F9D7F81031E6
:100E800007F11002D018D7F81031C3F5807107F5BB
:100E90009073A3F58C739B789C4607F59073A3F52C
:100EA0008C735B781A4607F59073A3F58C731B78E7
:100EB0001C4607F59073A3F58C73DB781D4607F588
:100EC0009073A3F58C731B791E4607F59073A3F5F9
:100ED0008C735B79049303960295019400926346A8
:100EE000834A21F00FF80246D7F810311344C7F8AF
:100EF000103107F59073A3F2191300221A7007F549
:100F00009073A3F58D7300221A7007F59073A3F206
:100F10001B1300221A707B1DBA1DF91D002009F059
:100F2000EFF9D7F8103107F11002D018D7F81031C7
:100F3000C3F5807107F59073A3F219131B781C4653
:100F400007F59073A3F58D731B781A4607F5907318
:100F5000A3F21B131B78019300922346654A20F0ED
:100F6000D1FF0246D7F810311344C7F81031D7F833
:100F7000103107F11002D018D7F81031C3F5807383
:100F80005D4A194620F0BEFF0246D7F810311344DF
:100F9000C7F810310023C7F81C3117E000BF5748CD
:100FA000FFF751FE0346002BF9D007F59073A3F528
:100FB0008872D7F81C3113441B7819464F48FFF745
:100FC00055FED7F81C310133C7F81C3107F5907373
:100FD000A3F58872D7F81C3113441B78002BDDD1A0
:100FE00000BF4648FFF71CFE0346002BF9D0002344
:100FF000C7F8183117E000BF4148FFF724FE034649
:10100000002BF9D007F59073A3F58872D7F8183143
:1010100013441B7819463A48FFF728FED7F81831D1
:101020000133C7F8183107F59073A3F58872D7F824
:10103000183113441B78002BDDD100BF3048FFF777
:10104000EFFD0346002BF9D0002301930223009308
:1010500000234FF420622B492B4810F086FC0346F6
:10106000012B01D00123EDE0002301930123009324
:1010700000234FF420622549254810F076FC0346F2
:10108000012B01D00123DDE0002301930123009314
:1010900000234FF4A0621F491F4810F066FC03466E
:1010A000012B01D00123CDE0002301930123009304
:1010B00000234FF420721949194810F056FC0346DA
:1010C000012B2FD00123BDE06433020884330208D2
:1010D00098330208B8330208C8330208E83302081C
:1010E000F833020814340208283402083C34020899
:1010F0004834020878340208943402080010014091
:1011000000440040C83402086D730008D834020857
:10111000E5150008E434020885860008F03402086A
:10112000A51200084A4801F0F5F803460022019292
:10113000012200924FF420624649474810F015FC06
:101140000346012B01D001237CE0444801F0E2F882
:10115000034600220192012200924FF4206240498E
:10116000404810F002FC0346012B01D0012369E046
:10117000002301930123009300234FF4A0623A4916
:101180003A4810F0F2FB0346012B01D0012359E04D
:101190000023019301230093002380223449354822
:1011A00010F0E3FB0346012B01D001234AE00023AA
:1011B000019301230093002380222F492F4810F030
:1011C000D4FB0346012B01D001233BE00023019314
:1011D0000123009300234FF420722949294810F07D
:1011E000C4FB0346012B01D001232BE0264801F06C
:1011F00091F8034600220192012200924FF42062EE
:101200002249234810F0B1FB0346012B01D00123F2
:1012100018E00023019301230093002380221D493D
:101220001D4810F0A2FB0346012B01D0012309E069
:10123000012010F08DFD1949194801F00DFD05F050
:10124000F9FD0023184607F59277BD46F0BD00BFB3
:1012500000440040003502080115000800780040F5
:1012600010350208651400081C350208F112000848
:101270002C350208FD150008343502083116000827
:101280003C3502086516000800100140443502088C
:101290005513000858350208A9160008C50C0008A7
:1012A000704A012480B582B000AF786008F0BAFDC2
:1012B0000D4B1B6801330C4A13600B4B1B68B3F5D5
:1012C000E15F0CD9084B00221A6009F051F903467E
:1012D000002B04D100220549022007F0CBF84FF47F
:1012E0007A7010F035FDE1E72847012468350208DF
:1012F00080B584B000AF786003F08EFF03461846D7
:1013000004F0A3F8114801F03BFF0346FB73FB7B9D
:10131000032B02D0FB7B042B13D10C4B1B6A012B3C
:1013200009D103F06DFF03460949184604F01EF980
:10133000064B00221A6203F063FF0346184604F0CE
:1013400084F84FF4FA7010F003FDD5E7704A0124D9
:101350007835020880B586B000AF78607B687B6125
:101360007B695B6E4FF0FF3118460FF033FE03468A
:10137000012B6DD162E0FFF71DFC0346FB73FB7B85
:10138000022B15D13B69DBB21946334801F0A2F9B3
:101390003B69DBB21846FFF719FC0346002B4DD022
:1013A00003F02EFF03462D49184604F0DFF845E010
:1013B000FB7B042B1ED13B69DBB21846FFF706FC12
:1013C0000346002B06D003F01BFF034623491846B3
:1013D00004F0CCF803F014FF02463B69DBB2194677
:1013E000104604F00FF803F00BFF0346184604F014
:1013F0002CF823E01A4801F0C3FE0346BB73BB7B05
:10140000032B02D0BB7B042B12D1154801F012FC38
:1014100003F0F6FE02463B69DBB21946104603F0C4
:10142000F1FF03F0EDFE0346184604F00EF805E068
:101430003B69DBB219460A4801F01EFD7B691B6857
:10144000184601F081FA38613B69B3F1FF3F92D150
:10145000012010F07DFC83E7007800407C35020815
:10146000704A012480B586B000AF78607B687B61EC
:101470007B695B6E002118460FF0ACFD0346012B23
:1014800035D12AE0FFF796FB0346FB73FB7B012B6C
:1014900006D13B69DBB21946174801F01BF91CE085
:1014A000FB7B022B06D13B69DBB21946134801F0E6
:1014B00011F912E0FB7B032B06D13B69DBB2194625
:1014C0000D4801F007F908E0FB7B042B05D13B69CF
:1014D000DBB21946094801F0FDF87B691B68184624
:1014E00001F032FA38613B69B3F1FF3FCAD1012004
:1014F00010F02EFCBCE700BF00440040001001408B
:1015000080B586B000AF78607B687B617B695B6E7D
:101510004FF0FF3118460FF05DFD0346012B58D107
:101520004DE0FFF747FB0346FB73FB7B012B15D117
:101530003B69DBB21946294801F0CCF83B69DBB2C4
:101540001846FFF743FB0346002B38D003F064FE38
:1015500003462349184604F009F830E0FB7B032BCF
:101560001ED13B69DBB21846FFF730FB0346002B68
:1015700006D003F051FE03461949184603F0F6FF62
:1015800003F04AFE02463B69DBB21946104603F0FF
:1015900039FF03F041FE0346184603F056FF0EE004
:1015A00003F03AFE02463B69DBB21946104603F0EF
:1015B00029FF03F031FE0346184603F046FF7B691E
:1015C0001B68184601F0C0F938613B69B3F1FF3F71
:1015D000A7D1012010F0BCFB98E700BF00780040C5
:1015E0007C35020880B582B000AF786006F012FB4F
:1015F000012010F0ADFB00BFF8E7000080B582B01D
:1016000000AF78604FF480710848FFF74CFB4FF44F
:101610007A7010F09DFB4FF480710448FFF735FBA2
:101620004FF47A7010F094FB00BFEBE7000C025807
:1016300080B582B000AF78604FF400710848FFF7C2
:1016400024FB4FF47A7010F083FB4FF400710448D0
:10165000FFF729FB4FF47A7010F07AFB00BFEBE73D
:10166000000C025880B592B000AF78600C4B1B782C
:101670005A1CD1B20A4A117007F10800094A4021E8
:1016800020F040FC07F1080300221946022006F072
:10169000F1FE4EF6602010F05BFB00BFE6E700BFF6
:1016A000285F0124B035020880B582B000AF7860B1
:1016B00007F010FA07F02AFA0346012B03D1C820DD
:1016C00010F046FBF4E74FF4167010F041FBEFE723
:1016D00080B483B000AF78607B689B6903F001033E
:1016E000012B01D1012300E0002318460C37BD4631
:1016F0005DF8047B704780B483B000AF78607B688E
:101700009B6903F00203022B01D1012300E00023B7
:1017100018460C37BD465DF8047B704780B483B033
:1017200000AF78607B689B6903F00403042B01D150
:10173000012300E0002318460C37BD465DF8047B0A
:10174000704780B483B000AF78607B689B6903F01A
:101750001003102B01D1012300E0002318460C37A1
:10176000BD465DF8047B704780B483B000AF7860FD
:101770007B689B6903F40043B3F5004F01D101235B
:1017800000E0002318460C37BD465DF8047B704727
:1017900080B483B000AF786039607B685B6823F405
:1017A00000423B681A437B685A6000BF0C37BD4655
:1017B0005DF8047B7047000080B487B000AFF8602C
:1017C000B9607A603B60BB68C3F309027B6803F4CD
:1017D00000631A433B681B0403F47F031A433B6A0C
:1017E0001A437B6A134323F000437B61FB685A680A
:1017F0007B6A5B0D03F48061064B0B43DB431A40AD
:101800007B691A43FB685A6000BF1C37BD465DF810
:10181000047B7047FF7BFF0380B483B000AF786028
:101820007B685B6ADBB218460C37BD465DF8047B0B
:10183000704780B483B000AF78600B46FB70FA78D5
:101840007B689A6200BF0C37BD465DF8047B704729
:1018500080B588B002AFF8607B600B46FB72134620
:10186000BB7208F0F9FF38610DE008F0F5FF0246A1
:101870003B69D31A0A2B06D9FB681B68184615F07A
:101880005FFA022396E0FB681B681846FFF76CFFBF
:101890000346002BE9D1FB681868FB7A590097F8DA
:1018A000203001331A46454B01934FF000730093EB
:1018B00013460022FFF780FF08F0CEFF386117E0E3
:1018C000FB681B681846FFF73CFF0346002B01D05E
:1018D00001236FE008F0C0FF02463B69D31A0A2BD0
:1018E00006D9FB681B68184615F02AFA032361E045
:1018F000FB681B681846FFF7FEFE0346002BDFD08F
:10190000FB681B68BA7A11461846FFF792FF00235E
:10191000FB752FE008F0A0FF386117E0FB681B683B
:101920001846FFF70EFF0346002B01D0012341E0CC
:1019300008F092FF02463B69D31A0A2B06D9FB68CE
:101940001B68184615F0FCF9032333E0FB681B689D
:101950001846FFF7D0FE0346002BDFD0FB6818685F
:10196000FB7D7A6813441B781946FFF762FFFB7D05
:101970000133FB75FA7D97F820309A42CAD308F0FC
:101980006BFF38610DE008F067FF02463B69D31A30
:101990000A2B06D9FB681B68184615F0D1F90323FA
:1019A00008E0FB681B681846FFF792FE0346002B11
:1019B000E9D0002318461837BD4680BD00200080BE
:1019C00090B589B002AFF8607B600B46FB7213469E
:1019D000BB7208F041FF38610DE008F03DFF0246A0
:1019E0003B69D31A0A2B06D9FB681B68184615F009
:1019F000A7F90223B8E0FB681B681846FFF7B4FE9E
:101A00000346002BE9D1FB681868FB7A5900584B54
:101A100001930023009301230022FFF7CDFE08F07D
:101A20001BFF386117E0FB681B681846FFF789FE4B
:101A30000346002B01D0012396E008F00DFF02467B
:101A40003B69D31A0A2B06D9FB681B68184615F0A8
:101A500077F9032388E0FB681B681846FFF74BFE05
:101A60000346002BDFD0FB681B68BA7A1146184684
:101A7000FFF7DFFE08F0F0FE386117E0FB681B6837
:101A80001846FFF75EFE0346002B01D001236BE0F2
:101A900008F0E2FE02463B69D31A0A2B06D9FB681E
:101AA0001B68184615F04CF903235DE0FB681B68C2
:101AB0001846FFF70DFE0346002BDFD0FB681B68BE
:101AC00000211846FFF764FEFB681868FB7A59008E
:101AD000FB7A5B0043F001031C4697F82830254A47
:101AE00001924FF0007200922246FFF765FE08F067
:101AF000B3FE38610023FB7530E008F0ADFE3861BD
:101B000017E0FB681B681846FFF71BFE0346002B17
:101B100001D0012328E008F09FFE02463B69D31A5A
:101B20000A2B06D9FB681B68184615F009F9032330
:101B30001AE0FB681B681846FFF7F0FD0346002B10
:101B4000DFD0FB681968FB7D7A68D4180846FFF778
:101B500063FE03462370FB7D0133FB75FA7D97F826
:101B600028309A42C9D3002318461C37BD4690BD81
:101B7000002000800024008080B584B000AF786031
:101B80000023FB60786800F095F8786800F00BF8A7
:101B90000346002B02D06FF00303FB60FB6818467E
:101BA0001037BD4680BD80B584B000AF786000239B
:101BB000FB73786818F05EFB0346002B01D001230D
:101BC000FB73FB7B18461037BD4680BD80B586B0E1
:101BD00000AFF860B9607A603B603B687A68B968CA
:101BE000F86818F043FC0346002B03D06FF00303A2
:101BF0007B6101E000237B617B6918461837BD4695
:101C000080BD80B586B000AFF860B9607A603B6097
:101C10003B687A68B968F86818F0ECFC0346002B5A
:101C200003D06FF003037B6101E000237B617B69DC
:101C300018461837BD4680BD80B582B000AF7860C9
:101C4000786819F0EBFA0346042B14BF0123002334
:101C5000DBB218460837BD4680BD80B584B000AF02
:101C6000786039603968786819F0E8F80346002B25
:101C700003D06FF00303FB6001E00023FB60FB680F
:101C800018461037BD4680BD80B582B000AF786081
:101C900078680EF087FA00BF0837BD4680BD80B572
:101CA00082B000AF786078680EF0A6FA00BF0837FF
:101CB000BD4680BD80B582B000AF7860786816F010
:101CC000B1FD00BF0837BD4680BD80B483B000AF12
:101CD00078607B681B6803F00103012B01D10123AD
:101CE00000E0002318460C37BD465DF8047B7047C2
:101CF00080B483B000AF78607B685B6903F0010358
:101D0000012B01D1012300E0002318460C37BD460A
:101D10005DF8047B704780B483B000AF78607B6867
:101D20005B6903F48053B3F5805F01D1012300E0C8
:101D3000002318460C37BD465DF8047B704780B41D
:101D400083B000AF78607B6830331B78DBB2184615
:101D50000C37BD465DF8047B704780B483B000AF9C
:101D600078600B46FB707B682033FA781A7000BFEE
:101D70000C37BD465DF8047B704780B586B000AF78
:101D8000F8600B467A60FB72F868FFF79EFF034627
:101D9000002B01D1012335E008F05EFD7861FB7A6C
:101DA0001946F868FFF7D9FF08E008F055FD02462C
:101DB0007B69D31A0A2B01D9032323E0F868FFF7C4
:101DC000AAFF0346002BF0D008F046FD786108E03A
:101DD00008F042FD02467B69D31A0A2B01D903237E
:101DE00010E0F868FFF784FF0346002BF0D07B6813
:101DF000002B06D0F868FFF7A2FF03461A467B685F
:101E00001A70002318461837BD4680BD80B584B0CF
:101E100000AF78600B46FB707868FFF756FF03460B
:101E2000002B01D101231BE008F016FDF860FB78C0
:101E300019467868FFF791FF08E008F00DFD0246AB
:101E4000FB68D31A0A2B01D9032309E07868FFF74E
:101E500062FF0346002BF0D07868FFF770FF002385
:101E600018461037BD4680BD80B582B000AF03462E
:101E7000FB71FB79002B10D1FB79002B06D14FF4BD
:101E800080620021074820F002F907E04FF48062E9
:101E90000021054820F0FBF800E000BF0837BD46F0
:101EA00080BD00BF00F8003800FC003880B582B06B
:101EB00000AF0346FB71FB79002B04D1FB79184678
:101EC000FFF7D2FF00E000BF0837BD4680BD80B4F9
:101ED00083B000AF78607B681B6843F001027B68C9
:101EE0001A6000BF0C37BD465DF8047B704780B4B4
:101EF00083B000AF78607B681B6823F001027B68C9
:101F00001A6000BF0C37BD465DF8047B704780B493
:101F100083B000AF78607B68DB6903F04003402B3F
:101F200001D1012300E0002318460C37BD465DF8BF
:101F3000047B704780B483B000AF78607B68DB6956
:101F400003F08003802B01D1012300E00023184619
:101F50000C37BD465DF8047B704780B489B000AF94
:101F600078607B68FB60FB6853E8003FBB60BB6840
:101F700043F01003FB617B68FA69BA617B617969A0
:101F8000BA6941E800233B613B69002BE9D100BFFE
:101F900000BF2437BD465DF8047B704780B489B02C
:101FA00000AF78607B68FB60FB6853E8003FBB6074
:101FB000BB6843F08003FB617B68FA69BA617B61AF
:101FC0007969BA6941E800233B613B69002BE9D19B
:101FD00000BF00BF2437BD465DF8047B704780B466
:101FE00089B000AF78607B68FB60FB6853E8003F16
:101FF000BB60BB6823F08003FB617B68FA69BA6150
:102000007B617969BA6941E800233B613B69002B38
:10201000E9D100BF00BF2437BD465DF8047B70479F
:1020200080B483B000AF78607B681B6803F08003E6
:10203000802B01D1012300E0002318460C37BD4658
:102040005DF8047B704780B489B000AF78607B682E
:102050000833FB60FB6853E8003FBB60BB6843F09C
:102060004003FB617B680833FA69BA617B61796977
:10207000BA6941E800233B613B69002BE7D100BF0F
:1020800000BF2437BD465DF8047B704780B485B03F
:1020900000AF786039603B68002B03D17B68283340
:1020A000FB6002E07B682433FB60FB681846143752
:1020B000BD465DF8047B704780B483B000AF7860A4
:1020C0000B46FB70FA787B689A6200BF0C37BD46FE
:1020D0005DF8047B7047000080B485B000AF786085
:1020E00039607B68FB600C4A3B6813441B781A46D6
:1020F000FB6813441B6808493A680A441278114681
:10210000FA680A4443F00103136000BF1437BD4668
:102110005DF8047B704700BF205C020880B485B086
:1021200000AF786039607B68FB600C4A3B68134401
:102130001B781A46FB6813441B6808493A680A442E
:1021400012781146FA680A4423F00103136000BFB5
:102150001437BD465DF8047B704700BF205C020861
:1021600080B487B000AFF860B9607A60FB687B61CB
:102170000D4ABB6813441B781A467B6913445A689E
:102180000A4B13400849BA680A44127811467A6922
:102190000A4411467A6813434B6000BF1C37BD46A2
:1021A0005DF8047B704700BF205C02080000FFFF61
:1021B00080B485B000AF786039607B68FB60074A07
:1021C0003B6813441B781A46FB6813445B689BB258
:1021D00018461437BD465DF8047B7047205C020842
:1021E00080B487B000AFF860B9607A60FB687B614B
:1021F000074ABB6813441B781A467B6913441A4686
:102200007B68D36000BF1C37BD465DF8047B704718
:10221000205C020880B487B000AFF860B9607A60D3
:10222000FB687B61074ABB6813441B781A467B69CD
:1022300013441A467B68936000BF1C37BD465DF8A7
:10224000047B7047205C020880B485B000AF7860E2
:1022500039607B68FB600C4A3B6813441B781A4664
:10226000FB6813441B6808493A680A44127811460F
:10227000FA680A4443F00803136000BF1437BD46F0
:102280005DF8047B704700BF205C020880B485B015
:1022900000AF786039607B68FB600C4A3B68134490
:1022A0001B781A46FB6813441B6808493A680A44BD
:1022B00012781146FA680A4443F00403136000BF21
:1022C0001437BD465DF8047B704700BF205C0208F0
:1022D00080B485B000AF786039607B68FB600C4AE1
:1022E0003B6813441B781A46FB6813441B68084973
:1022F0003A680A4412781146FA680A4443F0100317
:10230000136000BF1437BD465DF8047B704700BF03
:10231000205C020880B485B000AF78600023FB60C9
:1023200015E01049FA6813465B019B1A9B000B44A9
:102330001B687A689A4207D1FA6813465B019B1AB8
:102340009B00084A134406E0FB680133FB60FB680E
:10235000022BE6DD002318461437BD465DF8047BEA
:10236000704700BF2C470124B0B584B002AF0023F2
:102370007B6022E0B5497A6813465B019B1A9B009B
:102380000B441B681846FFF7B2FDB0497A68134644
:102390005B019B1A9B000B4468331868AB497A6851
:1023A00013465B019B1A9B000B446C331B68194658
:1023B000FFF7B4FE7B6801337B607B68022BD9DDBD
:1023C0004FF480630093A24BA24A0121A24808F077
:1023D000EAF84FF480630093A04BA14A0221A14880
:1023E00008F0E1F80322002101200EF0A4FA0346D0
:1023F000964A5366954B9C6E944BDD6E01219A482C
:10240000FFF744FE03461A4629462046FFF702FF1F
:102410008E4B9B6E8D4AD16E8C4AB2F87420184652
:10242000FFF79EFE894B9B6E884AD16E874A126FDA
:102430001846FFF7D5FE854B9B6E844AD26E114637
:102440001846FFF745FF814B9B6E804AD26E1146BE
:102450001846FFF7F9FE7D4B9B6E7C4AD26E114603
:102460001846FFF713FF8048FFF7EDFD774B9B6E93
:10247000764AD26E11461846FFF72EFE7A48FFF7CD
:102480006CFD4FF480630093784B794A05217948BD
:1024900008F089F84FF480630093774B774A062160
:1024A000774808F080F80322002101200EF043FA5B
:1024B0000346664AC2F8E030644BD3F8E440634B0D
:1024C000D3F8E85001216F48FFF7E0FD03461A46B4
:1024D00029462046FFF79EFE5C4BD3F8E4305B4A6A
:1024E000D2F8E810594AB2F8F0201846FFF738FE43
:1024F000564BD3F8E430554AD2F8E810534AD2F894
:10250000EC201846FFF76CFE504BD3F8E4304F4AEE
:10251000D2F8E82011461846FFF7DAFE4B4BD3F805
:10252000E4304A4AD2F8E82011461846FFF78CFEFC
:10253000464BD3F8E430454AD2F8E8201146184615
:10254000FFF7A4FE4F48FFF77EFD404BD3F8E43081
:102550003E4AD2F8E82011461846FFF7BDFD49482B
:10256000FFF7FBFC4FF480630093474B474A07217A
:10257000474808F018F84FF480630093454B464AEB
:102580000821464808F00FF80322002101200EF030
:10259000D2F903462D4AC2F85C312C4BD3F8604186
:1025A0002A4BD3F8645101213D48FFF76FFD0346E4
:1025B0001A4629462046FFF72DFE244BD3F86031FA
:1025C000224AD2F86411214AB2F86C211846FFF76A
:1025D000C7FD1E4BD3F860311C4AD2F864111B4A68
:1025E000D2F868211846FFF7FBFD184BD3F860318D
:1025F000164AD2F8642111461846FFF769FE134BBC
:10260000D3F86031114AD2F8642111461846FFF719
:102610001BFE0E4BD3F860310C4AD2F864211146F0
:102620001846FFF733FE1E48FFF70DFD074BD3F8A2
:102630006031064AD2F8642111461846FFF74CFD76
:102640001748FFF78AFC00233B6039E02C47012440
:102650002C630124C8350208304701242C6701246B
:10266000D435020860470124001001402C6F01247A
:10267000E0350208AC4701242C730124EC35020834
:10268000DC470124004400402C7B0124F83502087B
:10269000284801242C7F01240436020858480124CC
:1026A000007800400A493A6813465B019B1A9B0078
:1026B0000B441B681846FFF70AFC3B6801333B607C
:1026C0003B68022BEEDD002318460837BD46B0BD3F
:1026D0002C47012480B584B000AF78600B46FB70B6
:1026E0007868FFF717FEB860BB68002B1FD0134B4C
:1026F000FB6005E0FB68013BFB60FB68002B18D02A
:10270000BB683433FA781146184607F07FFF03465A
:1027100083F00103DBB2002BECD17868FFF780FC7B
:102720000346002B06D17868FFF738FC02E000BFB3
:1027300000E000BF1037BD4680BD00BF20A10700EC
:1027400080B584B000AF786039607868FFF7E2FD4B
:10275000F860FB68002B11D03B68002B0ED008E01E
:102760003B681B7819467868FFF7B4FF3B68013374
:102770003B603B681B78002BF2D100E000BF1037B4
:10278000BD4680BD80B584B000AF78607868FFF743
:10279000C1FDF860FB68002B42D0FB681B68DB6959
:1027A00003F00203002B03D0FB681B6802221A62AD
:1027B000FB681B68DB6903F00403002B03D0FB6894
:1027C0001B6804221A62FB681B68DB6903F4003390
:1027D000002B04D0FB681B684FF400321A62786843
:1027E000FFF7A8FB0346002B1BD07868FFF718FC07
:1027F0000346002B15D0FB68343307F10B0211465A
:10280000184607F049FF0346002B05D0FB7A19460E
:102810007868FFF751FC04E07868FFF7E0FB00E020
:1028200000BF1037BD4680BD80B58AB000AF78606C
:102830000023BB607868FFF76DFDB861BB69002BB2
:102840007CD0BB699B6F7B61BB699A6EBB69DB6E99
:1028500019461046FFF7ACFC03467B82BB69B3F810
:1028600074301A467B8AD31AFB60FA687B699A42F5
:1028700065D0FA687B699A4214D97B697B620CE067
:10288000BB69181DBB691A6F7B6A13441B78194614
:1028900007F0BCFE7B6A01337B627A6AFB689A426E
:1028A000EED32AE07B693B620CE0BB69181DBB6973
:1028B0001A6F3B6A13441B78194607F0A7FE3B6A60
:1028C00001333B62BB69B3F874301A463B6A9342EA
:1028D000EBD30023FB610CE0BB69181DBB691A6FC9
:1028E000FB6913441B78194607F090FEFB6901331E
:1028F000FB61FA69FB689A42EED3BB695B6E07F134
:102900000802114618460EF0CBF9BB68002B07D021
:102910000C4B4FF080521A60BFF34F8FBFF36F8F95
:10292000BB69FA689A67BB699B6FBA69B2F8742091
:10293000934204D1BB6900229A6700E000BF2837A8
:10294000BD4680BD04ED00E080B584B000AF786086
:102950007868FFF7DFFCF860FB68002B02D14FF0CE
:10296000FF330EE0FB68043307F10B0211461846F3
:1029700007F092FE0346002B01D0FB7A01E04FF0F6
:10298000FF3318461037BD4680BD80B584B000AF18
:1029900078607868FFF7BEFCF860FB68002B01D117
:1029A000002305E0FB680433184607F0F2FE0346F7
:1029B00018461037BD4680BD80B584B000AF786042
:1029C0007868FFF7A7FCF860FB68002B01D10023B3
:1029D00006E0FB683433184607F09FFE034600BF4D
:1029E00018461037BD4680BD80B582B000AF786014
:1029F0000B46FB7000BF7868FFF79CFA0346002B7C
:102A0000F9D0FB7819467868FFF756FB00BF786865
:102A1000FFF77DFA0346002BF9D000BF00BF08374F
:102A2000BD4680BD80B582B000AF786039603B683C
:102A3000002B0ED008E03B681B7819467868FFF73A
:102A4000D3FF3B6801333B603B681B78002BF2D11E
:102A500000E000BF0837BD4680BD000080B485B0EF
:102A600000AF78600D4BFB600CE07B685A1C7A600D
:102A70001B781A46FB685340FB60FB68084A02FB60
:102A800003F3FB607B681B78002BEED1FB681846D4
:102A90001437BD465DF8047B704700BFC59D1C819F
:102AA0009301000180B485B000AF786039607A6826
:102AB0003B685340FB60FB681B0CFA681343FB60E8
:102AC000FB681B0AFA681343FB60FB68DBB2002B50
:102AD0000CBF01230023DBB218461437BD465DF856
:102AE000047B704780B584B000AF78607868FFF7EA
:102AF000B5FFF860054BBB60B968F868FFF7D2FF17
:102B0000034618461037BD4680BD00BFA37B47C5AE
:102B100080B584B000AF786006F022F8F86000233A
:102B2000FB7207F10B0201230021F86806F00FF990
:102B30000346002B02D1FB7A102B07D91549786880
:102B400000F020F9144B01221A6020E0FB7A002BE0
:102B500016D0FB7A114A0121F86806F0F8F803460E
:102B6000002B05D1FB7A1A460C4B002199540EE03C
:102B70000849786800F006F9074B01221A6006E060
:102B80000449786800F0FEF8034B01221A60103700
:102B9000BD4680BD10360208408301242C830124E9
:102BA00080B584B000AF78600E4B1B68012B0BD151
:102BB0007868FFF753FFF8600B4BBB60B968F868A3
:102BC000FFF770FF034609E008497868FDF788FBC6
:102BD0000346002B01D1012300E0002318461037E3
:102BE000BD4680BD40830124A37B47C52C830124BF
:102BF00080B582B000AF78607B6893F82830042BF2
:102C000010D17B685B6D5A1C7B685A657B685B6D75
:102C1000064A934206D3786800F068F80449786859
:102C200000F0B0F800BF0837BD4680BDE093040057
:102C30004C36020880B483B000AF78607B6893F8AC
:102C40002830042B02D17B6800225A6500BF0C3764
:102C5000BD465DF8047B704780B582B000AF7860F8
:102C600039607B683A689A657B6800221A627B68E3
:102C700000225A627B68002283F828207B680022A9
:102C8000DA627B6800221A657B6800225A657B68DD
:102C90002022002118461FF0FAF97B6830332022E9
:102CA000002118461FF0F3F90B49786800F06AF824
:102CB0000A49786800F066F80949786800F062F817
:102CC0000849786800F05EF80749786800F05AF81B
:102CD00000BF0837BD4680BD78360208803602083E
:102CE000883602089C360208A436020880B582B0F5
:102CF00000AF78607B6801221A627B6800225A620A
:102D00007B68002283F828207B680022DA627B68D7
:102D100000221A657B6800225A657B682022002108
:102D200018461FF0B4F97B68303320220021184682
:102D30001FF0ADF90D49786800F024F80C49786867
:102D400000F020F80B49786800F01CF80A49786810
:102D500000F018F80949786800F014F80849786814
:102D600000F010F800BF0837BD4680BD7836020875
:102D700080360208883602089C360208A43602080B
:102D8000A836020880B582B000AF7860396007E0ED
:102D90007B689A6D3B68591C39601B7818469047D0
:102DA0003B681B78002BF3D100BF00BF0837BD463E
:102DB00080BD000080B582B000AF78607B6893F87A
:102DC0002830002B37D17B6824491846FDF788FA54
:102DD0000346002B0BD17B68012283F828207B68F7
:102DE0000022DA621E497868FFF7CCFF31E07B6889
:102DF0001C491846FDF774FA0346002B0ED178687B
:102E0000FFF786FE7B68022283F828207B68002279
:102E1000DA6213497868FFF7B5FF1AE0124978685B
:102E2000FFF7B0FF11497868FFF7ACFF10497868E9
:102E3000FFF7A8FF0DE07B6893F82830032B04D040
:102E40007B6893F82830042B03D10A497868FFF790
:102E500099FF00BF0837BD4680BD00BFC0360208DD
:102E6000C8360208D4360208DC360208A436020846
:102E7000A83602080837020880B582B000AF786033
:102E80000B46FB707B6893F82830012B05D07B68DC
:102E900093F82830022B40F0ED800A22FB78934211
:102EA00004D00D22FB78934240F0B6807B681B6D06
:102EB0007A681344002283F830207B6893F8283026
:102EC000012B38D17B6830331846FFF70BFE0346E1
:102ED000012B30D17B68032283F828209A49786837
:102EE000FFF750FF99497868FFF74CFF98497868D9
:102EF000FFF748FF94497868FFF744FF95497868E1
:102F0000FFF740FF94497868FFF73CFF93497868E2
:102F1000FFF738FF92497868FFF734FF91497868E6
:102F2000FFF730FF8B497868FFF72CFF86497868F8
:102F3000FFF728FF6CE07B6893F82830022B38D12C
:102F40007B6830331846FFF72BFE0346012B30D148
:102F50007B68042283F828207B497868FFF712FFFA
:102F60007A497868FFF70EFF7F497868FFF70AFF14
:102F700075497868FFF706FF76497868FFF702FF22
:102F800075497868FFF7FEFE74497868FFF7FAFE26
:102F900073497868FFF7F6FE72497868FFF7F2FE2A
:102FA0006C497868FFF7EEFE67497868FFF7EAFE3C
:102FB0002EE07B68DB6A5A1C7B68DA6262497868BB
:102FC000FFF7E0FE7B68DB6A0322934214DB7B6839
:102FD000002283F8282065497868FFF7D3FE5A4914
:102FE0007868FFF7CFFE58497868FFF7CBFE604955
:102FF0007868FFF7C7FE0BE05E497868FFF7C2FE0E
:1030000051497868FFF7BEFE5B497868FFF7BAFE62
:103010007B6800221A6592E07F22FB78934216D1EA
:103020007B681B6D002B40F38A807B681B6D5A1EEA
:103030007B681A657B689B6D082098477B689B6D51
:10304000202098477B689B6D0820984777E07B6835
:103050001B6D1E2B73DC7B681B6D591C7A68116518
:103060007A681344FA7883F830207B689B6D2A20B5
:10307000984764E07B6893F82830032B04D07B6882
:1030800093F82830042B04D13C497868FFF77AFE86
:1030900056E00A22FB78934203D00D22FB7893423C
:1030A0001CD17B685B6A7A680021D1547B685B6ABB
:1030B000002B0ADD24497868FFF764FE7868FFF783
:1030C00079FE7B6800225A623AE01F497868FFF770
:1030D00059FE27497868FFF755FE31E07F22FB78DB
:1030E00093421AD17B685B6A002B29DD7B685B6A9F
:1030F0005A1E7B685A627B685B6A7A680021D154E9
:103100007B689B6D082098477B689B6D20209847C3
:103110007B689B6D0820984712E07B685B6A1E2BDA
:103120000EDC7B685B6A591C7A6851627A68F978B0
:10313000D1547B689B6DFA781046984700E000BF39
:1031400000BF0837BD4680BDA43602081837020804
:1031500084370208A8370208D0370208F837020877
:1031600020380208483802087038020894380208EB
:10317000A8360208C0380208C8360208E838020833
:1031800080B483B000AF78607B6893F8283018462D
:103190000C37BD465DF8047B7047000080B400AF7B
:1031A000BFF34F8F00BF064BDB6803F4E0620449B6
:1031B000044B1343CB60BFF34F8F00BF00BFFDE74D
:1031C00000ED00E00400FA0580B483B000AF786041
:1031D00039607B683A689A6100BF0C37BD465DF87C
:1031E000047B704780B483B000AF786039603B687F
:1031F0001A047B689A6100BF0C37BD465DF8047BFA
:10320000704780B485B000AF03460A46FB80134682
:103210007B7141F22103BB817B791BB21B021AB285
:10322000B7F9063053401BB2FB800023FB7313E059
:10323000B7F90630002B09DAB7F906305B001AB28D
:10324000B7F90C3053401BB2FB8002E0FB885B00F7
:10325000FB80FB7B0133FB73FB7B072BE8D9FB88EF
:1032600018461437BD465DF8047B704780B586B0BC
:1032700000AFF860B9607A600121B86802F038FAEE
:1032800078617B69002B04D13F49F86802F06EF940
:1032900076E078691EF036FC38613B691E2B6AD8EF
:1032A00001A252F823F000BF253300082D33000897
:1032B0003733000877330008773300087733000886
:1032C0007733000877330008773300087733000836
:1032D00041330008493300085133000859330008CE
:1032E0007733000877330008773300087733000816
:1032F0007733000877330008613300086B33000828
:1033000077330008773300087733000877330008F5
:1033100077330008773300087733000877330008E5
:10332000713300081E2004F09DFC25E04FF48060FE
:1033300004F0DAFC20E04FF4007004F025FD1BE0FF
:10334000002004F06BFD17E0012004F067FD13E09E
:10335000022004F063FD0FE0032004F05FFD0BE0AA
:103360004AF6CD3004F09CFD06E004F0E9FD03E0F0
:1033700004F022FE00E000BF0449F86802F0F6F80D
:103380001837BD4680BD00BF783F02088C3F020859
:1033900080B5A8B002AFF860B9607A600121B86862
:1033A00002F0A6F9C7F884000221B86802F0A0F97B
:1033B000C7F880000023A7F89630D7F88430002B98
:1033C00003D0D7F88030002B04D1A049F86802F070
:1033D000CDF838E1D7F884001EF094FBF86700229E
:1033E0000021D7F880001EF0C1FCB867BB6F002B2E
:1033F00003D0BB6FB3F5483F0ED907F110004FF46F
:103400004833934A64211EF07DFD07F110031946ED
:10341000F86802F0ABF816E1FDF77CFB0346032BDE
:103420001BD0FDF777FB0346022B08D0FDF772FB9C
:103430000346012B01D1874B02E0874B00E0874B0D
:1034400007F11000864A64211EF05CFD07F11003AD
:103450001946F86802F08AF8F5E00220FDF708FB4B
:10346000FB6F032B6DD0FB6F032B00F39C80FB6F76
:10347000012B03D0FB6F022B2CD094E00023C7F864
:1034800090301AE0D7F8903087F87530D7F8903040
:10349000744A134497F875201A7097F87520B7F896
:1034A000963011461846FFF7ACFE0346A7F8963053
:1034B000D7F890300133C7F89030D7F89020BB6F21
:1034C0009A42DFD307F11000BB6F674A64211EF0F8
:1034D00019FD70E00023C7F88C3025E0D7F88C1078
:1034E000624BA3FB01239A0913465B0013445B0163
:1034F000CA1AD3B2203387F87630D7F88C30594ABD
:10350000134497F876201A7097F87620B7F896301B
:1035100011461846FFF775FE0346A7F89630D7F810
:103520008C300133C7F88C30D7F88C20BB6F9A42AF
:10353000D4D307F11000BB6F4D4A64211EF0E2FCAA
:1035400039E00023C7F8883020E01EF0DFFA034698
:103550005A42DBB2D2B258BF534287F87730D7F81D
:103560008830404A134497F877201A7097F87720EC
:10357000B7F8963011461846FFF743FE0346A7F802
:103580009630D7F888300133C7F88830D7F88820CC
:10359000BB6F9A42D9D307F11000BB6F354A642143
:1035A0001EF0B0FC07E03449F86801F0DFFF0320AB
:1035B000FDF75EFA47E04FF47A700EF0C9FB012088
:1035C000FDF756FA07F110031946F86801F0CEFF2F
:1035D000244A244B1B7807F1100000931346274A16
:1035E00064211EF08FFC07F110031946F86801F002
:1035F000BDFFBB6F013B1B4A13441946BB6F013B28
:10360000184A13441B7807F1100000930B461C4A1C
:1036100064211EF077FC07F110031946F86801F0E9
:10362000A5FFB7F8963007F11000164A64211EF086
:1036300069FC07F110031946F86801F097FF124979
:10364000F86801F093FF9837BD4680BD903F0208AF
:10365000E03F020808400208144002081C4002082B
:10366000244002080000003048400208ABAAAAAA81
:1036700078400208A8400208CC400208FC4002083A
:1036800020410208404102088C3F020880B5AAB0E0
:1036900002AFF860B9607A600121B86802F028F8DA
:1036A000C7F884001023C7F880300023C7F89C3087
:1036B0000023A7F89A30D7F88430002B04D1804932
:1036C000F86801F053FFF7E000220021D7F88400EA
:1036D0001EF04CFBF867FB6F002B03D0FB6FB3F5BC
:1036E000483F0ED907F114004FF44833754A64215E
:1036F0001EF008FC07F114031946F86801F036FFC4
:10370000DAE007F11400FB6F6F4A64211EF0FAFB48
:1037100007F114031946F86801F028FF0023C7F8E1
:103720009430AEE0D7F8943003F1605307F1140001
:10373000664A64211EF0E6FB07F114031846FCF705
:10374000D9FD024607F114031344C7F89030002353
:10375000C7F88C3031E0D7F89420D7F88C30134478
:1037600003F160531B7887F87B3007F11403D7F817
:103770009020D31AC3F1640197F87B30544AD7F8EC
:1037800090001EF0BFFBD7F890300333C7F890309D
:10379000D7F89C300133C7F89C3097F87B20B7F8F6
:1037A0009A3011461846FFF72CFD0346A7F89A30C9
:1037B000D7F88C300133C7F88C30D7F88C20D7F885
:1037C00080309A4207D2D7F89420D7F88C3013442F
:1037D000FA6F9A42BFD8D7F890305A1CC7F8902099
:1037E00020221A70D7F890305A1CC7F890207C22FB
:1037F0001A700023C7F8883021E0D7F89420D7F852
:103800008830134403F160531B7887F87A3097F8B7
:103810007A301F2B06D997F87A307E2B02D897F88A
:103820007A1000E02E21D7F890305A1CC7F890206B
:103830000A461A70D7F888300133C7F88830D7F8AD
:103840008820D7F880309A4207D2D7F89420D7F84A
:1038500088301344FA6F9A42CFD8D7F890300022BC
:103860001A7007F114031946F86801F07FFE012071
:103870000EF06EFAD7F89420D7F880301344C7F8CA
:103880009430D7F89420FB6F9A42FFF44BAFB7F80F
:103890009A3007F114000093D7F89C300D4A642148
:1038A0001EF030FB07F114031946F86801F05EFEC4
:1038B0000949F86801F05AFEA037BD4680BD00BF37
:1038C00058410208E03F020880410208A84102086E
:1038D000B4410208BC4102088C3F020880B5A0B088
:1038E00000AFF860B9607A600121B86801F000FFAC
:1038F000F867FB6F002B04D13449F86801F036FEFD
:1039000060E03349F86FFCF7EBFC0346002B42D133
:10391000FDF700F9034687F87B3097F87B30032BDF
:103920002AD801A252F823F0393900084939000891
:10393000593900086939000807F11403254A642140
:1039400018461EF0DFFA1FE007F11403224A642133
:1039500018461EF0D7FA17E007F114031F4A642136
:1039600018461EF0CFFA0FE007F114031C4A642139
:1039700018461EF0C7FA07E007F11403194A64213C
:1039800018461EF0BFFA00BF07F114031946F86885
:1039900001F0ECFD12E01449F86FFCF7A1FC0346BE
:1039A000002B07D10320FDF763F81049F86801F0F8
:1039B000DDFD03E00E49F86801F0D8FD0D49F86817
:1039C00001F0D4FD8037BD4680BD00BFF441020840
:1039D00014420208184202082C420208444202081B
:1039E000584202086C420208B03D020884420208B4
:1039F000A04202088C3F020880B5A0B000AFF8607A
:103A0000B9607A6005F050FFF867FB6F1B7D83F0AB
:103A10000103DBB2002B04D01749F86801F0A6FDC2
:103A200027E006F08BF8034687F87B3097F87B3069
:103A3000002B0DD107F11403104A642118461EF023
:103A400061FA07F114031946F86801F08FFD0CE0E4
:103A500007F114030A4A642118461EF053FA07F1CD
:103A600014031946F86801F081FD0649F86801F071
:103A70007DFD8037BD4680BDD0420208F442020879
:103A80001C4302088C3F020890B5ABB004AFF8604D
:103A9000B9607A600121B86801F02AFEC7F8940085
:103AA0000221B86801F024FEC7F89000D7F89430DE
:103AB000002B03D0D7F89030002B04D13449F8689C
:103AC00001F054FD61E0D7F894001EF01BF80346A6
:103AD00087F88F3000220021D7F890001EF046F9B9
:103AE000C7F888002B4A97F88F30D7F88810184607
:103AF00005F012FF034687F8873097F88730002BD0
:103B00001ED107F11003184605F0A2FF0346002B53
:103B100037D17A693B7C1946BB69B88B044607F1FB
:103B2000200002940193009113461B4A64211EF069
:103B3000E9F907F120031946F86801F017FD20E0C4
:103B400097F88730022B0ED197F88F3007F12000BD
:103B5000124A64211EF0D6F907F120031946F868CD
:103B600001F004FD0DE097F8873007F120000C4AC2
:103B700064211EF0C7F907F120031946F86801F027
:103B8000F5FC0849F86801F0F1FC9C37BD4690BD92
:103B9000404302080000003064430208A4430208C6
:103BA000C44302088C3F020880B5A4B002AFF8609D
:103BB000B9607A6005F0FCFF034687F8873097F814
:103BC0008730032B38D801A252F823F02F3C00088D
:103BD000F13B0008E73B0008DD3B00081D49F868A1
:103BE00001F0C4FC2DE01C49F86801F0BFFC28E09E
:103BF00007F11003184605F02BFF0346002B11D1E7
:103C0000BB8B1A46BB6907F1200000931346134A89
:103C100064211EF077F907F120031946F86801F0D6
:103C2000A5FC0EE00E49F86801F0A0FC09E00D4982
:103C3000F86801F09BFC04E00B49F86801F096FC81
:103C400000BF0A49F86801F091FC00BF8837BD4603
:103C500080BD00BFEC430208F84302080444020898
:103C60003444020860440208704402088C3F020891
:103C700080B5A6B002AFF860B9607A600121B8687B
:103C800001F036FDC7F88400D7F88430002B04D14A
:103C90004349F86801F06AFC7FE000220021D7F870
:103CA00084001EF063F8C7F88000D7F88030002B3E
:103CB00004D0D7F88030B3F5483F0ED907F114008F
:103CC0004FF44833374A64211EF01CF907F11403FE
:103CD0001946F86801F04AFC5FE005F0ABFAF867B6
:103CE000FB6FDB7A83F00103DBB2002B04D02E499B
:103CF000F86801F03BFC50E0D7F880104FF06050BE
:103D000005F0E4FA034687F87B3097F87B30002B08
:103D100031D10023A7F88E300023C7F8883012E095
:103D2000D7F8883003F160531A78B7F88E3011460F
:103D30001846FFF766FA0346A7F88E30D7F88830A2
:103D40000133C7F88830D7F88820D7F880309A42F6
:103D5000E6D3B7F88E3007F114000093D7F880301F
:103D6000124A64211EF0CEF807F114031946F868D0
:103D700001F0FCFB0DE097F87B3007F114000C4AD2
:103D800064211EF0BFF807F114031946F86801F02A
:103D9000EDFB0849F86801F0E9FB9037BD4680BDAE
:103DA00080440208E03F0208AC440208D044020804
:103DB000FC4402088C3F020880B588B000AFF86070
:103DC000B9607A6007F11403074A0A2118461EF009
:103DD00099F807F114031946F86801F0C7FB00BF12
:103DE0002037BD4680BD00BF20450208F0B5B3B006
:103DF00006AFF860B9607A600121B86801F078FC1C
:103E0000C7F8AC000221B86801F072FCC7F8A8003E
:103E10000321B86801F06CFCC7F8A4000421B8685D
:103E200001F066FCC7F8A0000521B86801F060FC4D
:103E3000C7F89C000621B86801F05AFCC7F8980042
:103E4000D7F8AC30002B13D0D7F8A830002B0FD008
:103E5000D7F8A430002B0BD0D7F8A030002B07D018
:103E6000D7F89C30002B03D0D7F89830002B0DD119
:103E700007F11803624A642118461EF043F807F15F
:103E800018031946F86801F071FBB6E0D7F8AC00EA
:103E90001DF038FEC7F89400D7F8A8001DF032FED8
:103EA000C7F89000D7F8A4001DF02CFEC7F88C00CE
:103EB000D7F8A0001DF026FEC7F88800D7F89C00B0
:103EC0001DF020FEC7F88400D7F898001DF01AFEF8
:103ED000C7F88000D7F89430002B03DBD7F8943074
:103EE000172B04DD4749F86801F040FB85E0D7F85F
:103EF0009030002B03DBD7F890303B2B04DD424998
:103F0000F86801F033FB78E0D7F88C30002B03DB46
:103F1000D7F88C303B2B04DD3C49F86801F026FBD8
:103F20006BE0D7F88830002B03DDD7F888301F2BE3
:103F300004DD3749F86801F019FB5EE0D7F88430FA
:103F4000002B03DDD7F884300C2B04DD3149F868F1
:103F500001F00CFB51E0D7F88030002B03DBD7F8E1
:103F60008030632B04DD2C49F86801F0FFFA44E04F
:103F7000D7F89430DBB2FB74D7F89030DBB23B75E6
:103F8000D7F88C30DBB27B75D7F88830DBB23B7466
:103F9000D7F88430DBB27B74D7F88030DBB2BB74E7
:103FA00007F11003184606F067F904F0A9FCF8675A
:103FB00007F110031946F86F04F0F8FCFB7C1E466D
:103FC0003B7D7A7D397C787C0446B87C054607F1D8
:103FD00018000495039402910192009333460F4A0E
:103FE00064211DF08FFF07F118031946F86801F0EE
:103FF000BDFA0B49F86801F0B9FAB437BD46F0BD17
:1040000028450208684502089C450208D045020878
:10401000044602083446020868460208B046020810
:104020008C3F0208F0B5B7B006AFF860B9607A60AF
:104030000121B86801F05CFBC7F8BC00D7F8BC30C0
:10404000002B0DD107F14803C84A642118461DF022
:1040500059FF07F148031946F86801F087FA82E131
:10406000C349D7F8BC00FCF73BF90346002B3FD10E
:1040700004F046FCC7F8AC0007F140031946D7F836
:10408000AC0004F047FC0346002B2CD107F13E03A3
:104090001946D7F8AC0004F0CDFC97F843309C46A5
:1040A00097F8443097F8452097F8401097F841006A
:1040B000044697F842000546B7F93E00064607F168
:1040C000480005960495039402910192009363467B
:1040D000A84A64211DF016FF07F148031946F86845
:1040E00001F044FA3BE1A449F86801F03FFA36E1F7
:1040F000A249D7F8BC00FCF7F3F80346002B26D101
:1041000007F13803184606F0A1F897F83B301E4631
:1041100097F83C3097F83D2097F8381097F8390019
:10412000044697F83A00054607F1480004950394C1
:104130000291019200933346914A64211DF0E2FE00
:1041400007F148031946F86801F010FA07E18D49B4
:10415000D7F8BC00FCF7C4F80346002B2ED100238F
:104160007B63002387F83330002387F83230002345
:1041700087F8313007F1310307F1320207F13301DB
:1041800007F1340006F0BCF897F833301C4697F876
:10419000323097F83120796BC9B207F148000291AB
:1041A000019200932346784A64211DF0ABFE07F18B
:1041B00048031946F86801F0D9F9D0E07349D7F8F7
:1041C000BC00FCF78DF80346002B12D106F08AF8EC
:1041D000C7F8B00007F14800D7F8B0306C4A642146
:1041E0001DF090FE07F148031946F86801F0BEF98A
:1041F000B5E06849D7F8BC00FCF772F80346002B1D
:1042000040F0A08004F07CFBC7F8B80007F1280359
:104210001946D7F8B80004F07DFB0346002B2CD1DB
:1042200007F116031946D7F8B80004F003FC97F815
:104230002B309C4697F82C3097F82D2097F82810B3
:1042400097F82900044697F82A000546B7F91600A2
:10425000064607F1480005960495039402910192E1
:1042600000936346434A64211DF04CFE07F1480366
:104270001946F86801F07AF903E04749F86801F057
:1042800075F907F12003184605F0E0FF97F8233091
:104290001E4697F8243097F8252097F8201097F8B5
:1042A0002100044697F82200054607F148000495CE
:1042B00003940291019200933346314A64211DF028
:1042C00021FE07F148031946F86801F04FF9002371
:1042D000FB610023FB760023BB7600237B7607F18E
:1042E000190307F11A0207F11B0107F11C0006F080
:1042F00007F8FB7E1C46BB7E7A7EF969C9B207F1DE
:10430000480002910192009323461F4A64211DF048
:10431000F9FD07F148031946F86801F027F905F09F
:10432000E1FFC7F8B40007F14800D7F8B430184AE5
:1043300064211DF0E7FD07F148031946F86801F014
:1043400015F90CE007F14803144A642118461DF0E2
:10435000D9FD07F148031946F86801F007F910493B
:10436000F86801F003F9C437BD46F0BDE046020825
:104370000C470208144702085C4702087847020805
:1043800080470208BC470208C4470208F8470208F1
:104390000048020810480208144802082C48020885
:1043A0008C3F0208F0B5A9B006AFF860B9607A603A
:1043B0000121B86801F09CF9C7F88400D7F884306F
:1043C000002B0DD107F118032F4A642118461DF068
:1043D00099FD07F118031946F86801F0C7F850E095
:1043E00000220021D7F884001DF0C0FCC7F880002F
:1043F000D7F88030254A93420DD807F11800244B96
:10440000244A64211DF07EFD07F118031946F8685F
:1044100001F0ACF835E0D7F8800005F043FFD7F89D
:1044200080201D4B134407F110021146184605F079
:1044300071FC04F065FAF86707F110031946F86F8C
:1044400004F0B4FAFB7C1E463B7D7A7D397C787C97
:104450000446B87C054607F11800049503940291C0
:104460000192009333460D4A64211DF04BFD07F184
:1044700018031946F86801F079F80949F86801F05D
:1044800075F88C37BD46F0BD644802087F436D382F
:1044900080436D388048020880BC92C7B04602084D
:1044A0008C3F020880B5A4B002AFF860B9607A60B2
:1044B0000121B86801F01CF9C7F884000221B8682E
:1044C00001F016F9C7F88000D7F88430002B03D02C
:1044D000D7F88030002B0DD107F11403254A642151
:1044E00018461DF00FFD07F114031946F86801F096
:1044F0003DF83CE000220021D7F884001DF0BEFB0F
:104500000346A7F87E3000220021D7F880001DF076
:10451000B5FB0346DBB2FB7404F022FBB867B7F8C7
:104520007E1007F113020123B86F04F081FB0346EC
:10453000002B0AD1B7F87E30FA7C07F11400009204
:104540000D4A64211DF0DEFC07E0B7F87E3007F16C
:1045500014000A4A64211DF0D5FC07F11403194622
:10456000F86801F003F80649F86800F0FFFF8837A3
:10457000BD4680BDA0480208C4480208E4480208BD
:104580008C3F020880B5A4B002AFF860B9607A60D1
:104590000121B86801F0ACF8C7F88400D7F884307E
:1045A000002B0DD107F11803224A642118461DF093
:1045B000A9FC07F118031946F86800F0D7FF35E0A9
:1045C00000220021D7F884001DF058FB0346A7F80D
:1045D00082300023FB7504F0C3FAF867B7F8821045
:1045E00007F117020123F86F04F0B1FB0346002B1B
:1045F0000AD1B7F88230FA7D07F1180000920E4A0E
:1046000064211DF07FFC07E0B7F8823007F1180045
:104610000A4A64211DF076FC07F118031946F86870
:1046200000F0A4FF0649F86800F0A0FF8837BD46F7
:1046300080BD00BF004902081C4902083C4902082D
:104640008C3F020880B584B000AFF860B9607A6032
:10465000F86803F081F90449F86800F087FF00BFAB
:104660001037BD4680BD00BF8C3F020880B586B0C4
:1046700000AFF860B9607A6002F012FE0D49F86888
:1046800000F074FF02F080FF0346FB75FB7D002BFA
:1046900004D00949F86800F069FF03E00749F868A9
:1046A00000F064FF0649F86800F060FF00BF1837AB
:1046B000BD4680BD58490208704902088449020875
:1046C0008C3F020880B584B000AFF860B9607A60B2
:1046D00002F0F8FD0549F86800F048FF0449F86861
:1046E00000F044FF00BF1037BD4680BDA04902085E
:1046F0008C3F020880B5A6B000AFF860B9607A6060
:104700000121B86800F0F4FFC7F894000221B868EE
:1047100000F0EEFFC7F89000D7F89430002B03D0DC
:10472000D7F89030002B04D11149F86800F01EFF33
:104730001BE0D7F89020D7F89410F86803F020F821
:104740000346002B0DD107F11000D7F89430094A29
:1047500080211DF0D7FB07F110031946F86800F01F
:1047600005FF0549F86800F001FF9837BD4680BD98
:10477000B8490208D84902088C3F020880B5A8B0A1
:1047800000AFF860B9607A600121B86800F0B0FF4E
:10479000C7F89C000221B86800F0AAFFC7F898008B
:1047A000D7F89C30002B03D0D7F89830002B04D1D9
:1047B0001C49F86800F0DAFE31E0D7F89800FBF702
:1047C00099FDC7F89400D7F89430B3F5005F04D989
:1047D0001549F86800F0CAFE21E0D7F89420D7F810
:1047E0009810D7F89C0002F027FE0346002B0ED14C
:1047F00007F11400D7F89C300C4A80211DF082FB91
:1048000007F114031946F86800F0B0FE03E0084908
:10481000F86800F0ABFE0749F86800F0A7FEA03783
:10482000BD4680BDB8490208F0490208D8490208CF
:104830000C4A02088C3F020880B586B000AFF860D1
:10484000B9607A600121B86800F052FF78617B6935
:10485000002B04D10749F86800F088FE07E0796969
:10486000F86802F0B3FE0449F86800F07FFE1837DC
:10487000BD4680BD244A02088C3F020880B584B042
:1048800000AFF860B9607A6080210B48FEF7AAFC9F
:1048900064200DF05DFA80210748FEF795FC07497A
:1048A000F86800F063FE0649F86800F05FFE00BF9C
:1048B0001037BD4680BD00BF001802583C4A0208B0
:1048C0008C3F020880B584B000AFF860B9607A60B0
:1048D0004FF480710748FEF785FC0749F86800F03F
:1048E00045FE0649F86800F041FE00BF1037BD469E
:1048F00080BD00BF00180258584A02088C3F0208C9
:1049000080B584B000AFF860B9607A604FF4807110
:104910000748FEF759FC0749F86800F027FE0649EA
:10492000F86800F023FE00BF1037BD4680BD00BF11
:1049300000180258804A02088C3F020880B586B0F1
:1049400000AFF860B9607A600121B86800F0D0FE6D
:1049500078617B69002B04D11E49F86800F006FEDF
:1049600035E01D497869FBF7BBFC0346002B07D1F6
:104970001A49F86800F0FAFD0120FCF705F922E079
:1049800017497869FBF7ACFC0346002B07D11549A2
:10499000F86800F0EBFD0220FCF7F6F813E012498E
:1049A0007869FBF79DFC0346002B07D10F49F86897
:1049B00000F0DCFD0020FCF7E7F804E00C49F868A3
:1049C00000F0D4FD03E00B49F86800F0CFFD183784
:1049D000BD4680BDA84A0208CC4A0208D04A020857
:1049E000004B0208044B0208344B02083C4B0208FF
:1049F000704B02088C3F020880B586B000AFF860AB
:104A0000B9607A600121B86800F072FE78617B6954
:104A1000002B04D11E49F86800F0A8FD34E01D49C0
:104A20007869FBF75DFC0346002B07D10320FCF7F8
:104A3000ABF81949F86800F099FD21E01749786949
:104A4000FBF74EFC0346002B07D10420FCF79CF833
:104A50001349F86800F08AFD12E012497869FBF703
:104A60003FFC0346002B07D10020FCF78DF80E49D0
:104A7000F86800F07BFD03E00C49F86800F076FD73
:104A80000B49F86800F072FD1837BD4680BD00BFC5
:104A9000A84B0208CC4A0208C84B0208004B020887
:104AA000104C0208504C0208544C0208844C020876
:104AB0008C3F020880B588B000AFF860B9607A60BA
:104AC0000121B86800F014FEB861BB69002B04D165
:104AD0001649F86800F04AFD25E0B869FBF70AFCC2
:104AE00078610D211248FDF7F5FD0023FB610AE016
:104AF000BA69FB6913441B7819460D48FDF7EAFDB6
:104B0000FB690133FB61FA697B699A42F0D30D219D
:104B10000748FDF7DFFD0749F86800F027FD064963
:104B2000F86800F023FD2037BD4680BDB84C020870
:104B300000780040D44C02088C3F020880B584B055
:104B400000AF78607B68FB600349F86800F00EFDF9
:104B500000BF1037BD4680BDF44C020880B584B05C
:104B600000AF78607B68FB600349F86800F0FEFCEA
:104B700000BF1037BD4680BD044D020880B584B02B
:104B800000AF78607B68FB600349F86800F0EEFCDA
:104B900000BF1037BD4680BD144D020880B588B0F7
:104BA00004AFF860B9607A6000230193FB6800935A
:104BB000164B00220A21022005F06EFC012302930D
:104BC000FB680193124B009300231E2214210A203C
:104BD00005F0C2FB02230093FB680E4A002114205B
:104BE00005F010FC0C49F86800F0C0FC0B49F868AF
:104BF00000F0BCFC0A49F86800F0B8FC0949F86804
:104C000000F0B4FC00BF1037BD4680BD3D4B00082E
:104C10005D4B00087D4B0008284D02084C4D0208F2
:104C20006C4D02088C3F020890B5ADF20C4D04AFFC
:104C300007F57E73A3F57B73186007F57E73A3F504
:104C40007C73196007F57E73A3F57D731A601423D6
:104C5000C7F8EC330DF0EEFAC7F8E80307F11400DB
:104C6000D7F8E833734A4FF480711DF04BF907F120
:104C7000140207F57E73A3F57B731146186800F0E4
:104C800075FC07F58A730022D7F8EC1318460DF06F
:104C9000DDFAC7F8E403D7F8E433002B10D107F5A9
:104CA0007E73A3F57B736449186800F05FFC07F519
:104CB0007E73A3F57B736149186800F057FCB4E07C
:104CC00007F11400D7F8E4335D4A4FF480711DF00A
:104CD00019F907F1140207F57E73A3F57B731146EA
:104CE000186800F043FC07F57E73A3F57B73554904
:104CF000186800F03BFC07F57E73A3F57B735249FF
:104D0000186800F033FC0023C7F8F43377E007F5A8
:104D10007E73A3F53971D7F8F4231346DB001344EF
:104D20009B000B440C331B78042B21D801A252F8B2
:104D300023F000BF494D0008514D0008594D0008AF
:104D4000614D0008694D0008404BC7F8F03313E08F
:104D50003F4BC7F8F0330FE03E4BC7F8F0330BE0A2
:104D60003D4BC7F8F03307E03C4BC7F8F03303E0A6
:104D70003B4BC7F8F03300BF07F57E73A3F53971DD
:104D8000D7F8F4231346DB0013449B000B44043391
:104D90001C6807F57E73A3F53971D7F8F423134621
:104DA000DB0013449B000B441033196807F57E7336
:104DB000A3F53970D7F8F4231346DB0013449B00A6
:104DC000034420331B6807F1140002930191D7F8C4
:104DD000F03300932346234A4FF480711DF092F87C
:104DE00007F1140207F57E73A3F57B73114618686B
:104DF00000F0BCFBD7F8F4330133C7F8F433D7F82D
:104E0000F423D7F8E4339A4281D307F57E73A3F5F0
:104E10007B730D49186800F0A9FB07F57E73A3F5B5
:104E20007B730649186800F0A1FB07F57F77BD4644
:104E300090BD00BF884D0208A84D02088C3F0208B3
:104E4000CC4D0208E04D0208104E02083C4E02080C
:104E5000444E02084C4E0208544E02085C4E0208B2
:104E6000644E02086C4E020880B582B000AF7860D4
:104E70000348FDF73BFF00BF0837BD4680BD00BFBC
:104E8000704A012490B587B002AFF860B9607A60CB
:104E90001349F86800F06AFB124B1B68002B0AD11B
:104EA000114B009300230022642110480EF03AFCBD
:104EB00003460C4A13600B4B1B68002B0BD0094BAD
:104EC0001C680DF0A7F9024600230093002301217E
:104ED00020460EF083FC00BF1437BD4690BD00BFD6
:104EE000844E020844830124694E0008944E02084F
:104EF00080B58AB000AFF860B9607A600121B86807
:104F000000F0F6FB78627B6A002B04D12949F8682F
:104F100000F02CFB4AE02848FEF732F9034687F8F8
:104F2000233097F82330032B3BD1786AFBF7E2F963
:104F3000F861FB69102B04D92049F86800F016FBD2
:104F400034E003F00DFEB861FB69DBB2FB7507F1DD
:104F5000170201230021B86903F06AFE0346002B03
:104F600004D01749F86800F001FB1FE0FB69002B33
:104F70000ED0FB699BB27A6A0121B86903F058FE32
:104F80000346002B04D00F49F86800F0EFFA0DE05B
:104F90000D49F86800F0EAFA0C49F86800F0E6FA02
:104FA00004E00B49F86800F0E1FA00BF2837BD467D
:104FB00080BD00BFA04E0208704A0124C44E020802
:104FC000EC4E0208184F02083C4F02088C3F0208C2
:104FD000604F020880B596B000AFF860B9607A60A3
:104FE0000121B86800F084FB78651949F86800F081
:104FF000BDFA7B6D002B0BD11649F86800F0B6FAAC
:10500000F86802F06BF81449F86800F0AFFA16E09F
:105010000A220021786D1CF0A9FE386507F1100006
:105020003B6D0E4A40211CF06DFF07F1100319463D
:10503000F86800F09BFAF968386D02F083F80849C7
:10504000F86800F093FA00BF5837BD4680BD00BF36
:10505000904F0208A84F0208B84F0208C84F020834
:105060008C3F020880B584B000AFF860B9607A6008
:10507000FEF794F880B400AF024B1846BD465DF8C9
:10508000047B7047285C020880B400AF22231846D6
:10509000BD465DF8047B704780B584B000AF786092
:1050A0000B46FB70FB78FB73FB7B19460348FDF74F
:1050B00011FB00BF1037BD4680BD00BF001001408E
:1050C00080B584B000AF78600B46FB70FB78FB7353
:1050D000FB7B19460348FDF7FDFA00BF1037BD46BC
:1050E00080BD00BF0044004080B582B000AF00F03A
:1050F0009FF878607B68394ADA607B684FF4006219
:105100001A827B6810229A807B684022DA807B6852
:1051100080221A817B6820225A817B6801229A743E
:105120007B682F4A1A60FFF7A5FF02467B685A6129
:10513000FFF7AAFF03461A467B681A83786800F0D7
:10514000D2F80346274A1360264B1B68002B01D177
:1051500001233EE0234B1B68234A1A6000F068F8E5
:1051600038603B68214ADA603B684FF400621A827B
:105170003B6810229A803B684022DA803B6880229C
:105180001A813B6820225A813B6801229A743B684D
:10519000174A1A60FFF76EFF02463B685A61FFF735
:1051A00073FF03461A463B681A83386800F09BF881
:1051B0000346104A13600F4B1B68002B01D10123DB
:1051C00007E00C4B1B680C4A1A600C4B01221A704A
:1051D000002318460837BD4680BD00BF4883012420
:1051E000DC4F02084893012499500008488B0124A1
:1051F000F04F02084C930124C15000085093012441
:1052000080B400AF034B1B681846BD465DF8047BB5
:10521000704700BF4893012480B400AF034B1B6864
:105220001846BD465DF8047B704700BF4C930124CF
:1052300080B400AF114B40229A80104B4022DA809C
:105240000E4B80221A810D4B0022DA600B4B00229C
:105250001A820A4B08225A81084B01229A74074B82
:10526000074A1A60054B00221A83044B00225A6138
:10527000024B1846BD465DF8047B704754930124E9
:105280002050020880B485B000AF78607B685B690D
:10529000002B02D17B685B8900E00023FB817B68E7
:1052A0009B8803339A087B68DB8803339B081A4486
:1052B0007B681B8903339B08D118FA8913465B006E
:1052C0001344DB0003339B08CA18FB8903339B0894
:1052D000134412339BB29B009BB218461437BD4651
:1052E0005DF8047B704780B588B000AF786000231C
:1052F000FB617868FFF7C6FF0346BB610023FB75BF
:105300007B68DB68002B05D07B681B8A1A46BB696B
:10531000934201D9002371E07B68DB683B61BA6985
:10532000002138691CF0B3FE3B69FB613B69103317
:105330003B61FB693A69DA603B6938333B61FB6981
:10534000DB68FB60FB683A691A617B689B88033302
:1053500023F003033A6913443B61FB683A69DA615D
:105360007B68DB88033323F003033A6913443B6112
:105370007B685A69FB685A627B681A8BFB689A855E
:105380007B681A8BFB68DA85FB683A695A607B6830
:105390001A89FB681A81FB7D002B08D0FB6893F803
:1053A000333043F00403DAB2FB6883F833207B68C0
:1053B0009B7C002B08D0FB6893F8333043F020032C
:1053C000DAB2FB6883F833207B689A88FB681A831B
:1053D000FB6800229A82FB680022DA827B68DA8806
:1053E000FB685A84FB68002283F832207B681A68C5
:1053F000FB681A60FB6800229A86FB691846203712
:10540000BD4680BD80B584B000AF78600B46FB70B0
:105410007B68DB68FB60FB681033FA78114618463E
:1054200000F08AFF034683F00103DBB2002B08D0B3
:10543000FB6893F8333043F00103DAB2FB6883F87A
:10544000332000BF1037BD4680BD80B584B000AFAB
:1054500078607B681B68002B00F083807B68DB68CA
:10546000FB60FB6893F8333003F00203002B55D147
:10547000FB6893F8333043F00203DAB2FB6883F839
:105480003320FB681B681946786800F07EFE45E013
:10549000FB681033184600F027FF0346FB72FB68D9
:1054A00093F8333003F00803002B05D0FB7A19463C
:1054B000786800F0F5F92AE0FB6893F832301B2B8E
:1054C0000CD1FB7A5B2B09D1FB6893F8333043F0A6
:1054D0000803DAB2FB6883F8332018E0FB7A184639
:1054E00000F0AAFE0346002B05D0FB7A1946786827
:1054F00000F086FA0BE0FB7A184600F0BDFE03468A
:10550000002B04D0FB7A1946786800F027FA7868F7
:1055100000F012FDFB68FA7A83F83220FB68103342
:10552000184600F0C0FE0346002BB1D1FB6893F88B
:10553000333003F00103002B14D0FB6800221A84DF
:10554000FB68DB69FA68128C134400221A70FB684E
:1055500093F8333023F00103DAB2FB6883F8332089
:1055600000E000BF1037BD4680BD000080B584B0AC
:1055700000AF786039607B681B68002B3ED07B6889
:10558000DB68FB60FB689B8E7B81FB6893F83330A4
:1055900003F01003002B02D1786800F0C1FDFB6816
:1055A0007A899A863968786800F0EFFD154B1B6898
:1055B0001946786800F0E9FDFB6893F8333003F092
:1055C0001003002B1BD1FB681B681946786800F09C
:1055D000DCFDFB68DB691946786800F0D6FDFB68E6
:1055E0001A8CFB681A86FB689B8E00221946786825
:1055F00000F0ECFD786800F09FFC00E000BF103781
:10560000BD4680BDA048012480B588B000AF786059
:105610007B68002B66D0354BFB600023FB770023B3
:10562000BB770023BB6100237B6147E07B690133CB
:105630007B61BB7F002B02D00023BB7729E0FB7C82
:105640005C2B02D10123BB7738E0FB7C222B10D1ED
:10565000FB7F002B14BF01230023DBB283F0010387
:10566000DBB2FB77FB7F03F00103FB770023FB74C6
:105670000FE0FB7F83F00103DBB2002B09D0FB7C42
:105680001946F8681CF01AFD0346002B01D00023D0
:10569000FB74FB7C002B09D1BB69002B0EDDBB69C1
:1056A000013B7A6813441B78002B07D0BB697A68EA
:1056B0001344FA7C1A70BB690133BB617B697A6859
:1056C00013441B78FB74FB7C002BAFD1BB697A6859
:1056D000134400221A70BB6901337A681344002214
:1056E0001A7000E000BF2037BD4680BD245002087C
:1056F00080B584B000AF78600B467B807B8819460C
:10570000786800F020FF0346FB81FB894FF6FF72AB
:10571000934203D0FB897A68134400E000231846C3
:105720001037BD4680BD80B584B000AF78600B46B1
:105730007B807B881946786800F005FF0346FB8173
:10574000FB894FF6FF72934203D0FB897A681344BA
:1057500000E0002318461037BD4680BD80B485B0F8
:1057600000AF78607B68002B03D07B681B78002B30
:1057700001D1002319E00023FB6001237B81FB683A
:105780007A6813441B78002B09D1FB6801337A68CF
:1057900013441B78002B06D07B8901337B81FB6887
:1057A0000133FB60EBE700BF7B8918461437BD4629
:1057B0005DF8047B7047000080B586B000AF78606C
:1057C0000B46FB707B68DB683B613B699B89002B68
:1057D0005FD0FB78002B05D03B695A893B699B89D8
:1057E0009A4256D0FB7883F00103DBB2002B03D042
:1057F0003B695B89002B4CD0786800F091FC3B69D9
:105800001B681946786800F0C0FCFB78002B06D0B6
:105810003B695B8901339AB23B695A8105E03B6978
:105820005B89013B9AB23B695A813B691A1D3B690E
:105830005B891946104600F00DFE78617B69002BEC
:1058400001D1164B7B617869FAF754FD0346FB8161
:105850003B69DB69FA89796918461CF0C2FC3B692F
:10586000DA69FB89134400221A703B69FA891A84A9
:105870003B69DB691946786800F087FC3B691A8C44
:105880003B691A863B6900229A86786800F054FBCF
:1058900000E000BF1837BD4680BD00BF2850020899
:1058A00090B585B000AF78600B46FB707B68DB6815
:1058B000FB60FB783F2B48D9FB787E2B45D8FB68F3
:1058C00093F8333023F00803DAB2FB6883F833200F
:1058D000FB78412B02D0FB78422B09D1FB78412B7E
:1058E0000CBF01230023DBB219467868FFF764FF81
:1058F000FB78432B0FD1FB689B8E002B0BD0FB68F2
:105900009B8E013B9AB2FB689A86124B1B68194624
:10591000786800F03AFCFB78442B16D1FB689B8E2C
:105920001C46FB68DB691846FAF7E4FC03469C4218
:105930000BD2FB689B8E01339AB2FB689A86064BAA
:105940001B681946786800F020FC00BF1437BD467C
:1059500090BD00BFA4480124A848012480B584B0AC
:1059600000AF78600B46FB707B68DB68FB60FB6810
:105970001B8C0233FA68528C93423BDAFB68DB697A
:105980001846FAF7B7FC0246FB689B8ED31ABB6039
:10599000FB68DA69BB680133D018FB68DA69BB6859
:1059A000D118FB689B8E01331A461CF056FBFB682E
:1059B0001B8C01339AB2FB681A84FB681B8E01337F
:1059C0009AB2FB681A86FB68DA69BB681344FA78F6
:1059D0001A70FB689B8E002B05D0084B1B6819467C
:1059E000786800F0D2FB7B681B68FA78114678680B
:1059F000984700E000BF1037BD4680BDB448012481
:105A000080B584B000AF78600B46FB707B68DB68C4
:105A1000FB60FB6893F832300D2B02D1FB780A2B28
:105A200078D0FB6893F832300A2B02D1FB780D2B2B
:105A300070D0FB780D2B02D0FB780A2B29D1786827
:105A400000F0DCFA354B1B681946786800F09DFBC6
:105A5000FB681B8C002B02D0786800F065F8FB68AF
:105A600000221A84FB68DB69FA68128C1344002256
:105A70001A70FB6800221A86FB6800225A81FB68B4
:105A800000229A86FB681B681946786800F07DFB47
:105A900041E0FB78082B02D0FB787F2B33D1FB68E9
:105AA0001B8C1A46FB689B8ED31A002B2BDD1C4BDC
:105AB0001B681946786800F068FB1A4B1B6819468A
:105AC000786800F062FBFB68DB691846FAF712FCA5
:105AD0000246FB689B8ED31ABB60FB68DA69BB6821
