:020000040800F2
:10000000000008241D9301085D8E0108658E01081B
:100010006D8E0108758E01087D8E010800000000BC
:10002000000000000000000000000000413E010848
:10003000858E0108000000000141010869410108A6
:10004000719301087193010871930108719301087C
:10005000719301087193010871930108719301086C
:10006000719301087193010871930108958E01083D
:10007000198F0108719301087193010871930108A8
:10008000719301087193010871930108719301083C
:10009000719301087193010871930108719301082C
:1000A000719301089D8F01087193010871930108F4
:1000B000719301087193010871930108719301080C
:1000C00071930108719301087193010871930108FC
:1000D00071930108A98F0108E18F0108719301084C
:1000E00071930108719301080000000071930108E9
:1000F0007193010871930108719301081990010827
:1001000071930108619001087193010871930108CE
:1001100071930108719301087193010875900108AA
:100120007193010889900108719301087193010886
:10013000719301087193010871930108719301088B
:100140007193010871930108000000000000000095
:10015000719301087193010871930108719301086B
:10016000719301087193010871930108719301085B
:100170007193010871930108719301080000000058
:1001800071930108719301080D91010871930108A1
:100190007193010845910108539101087193010879
:1001A000719301087193010871930108719301081B
:1001B000719301087193010871930108719301080B
:1001C00071930108719301087193010871930108FB
:1001D00071930108719301087193010871930108EB
:1001E00071930108719301087193010871930108DB
:1001F00071930108719301087193010871930108CB
:1002000071930108719301087193010871930108BA
:1002100071930108719301087193010871930108AA
:1002200071930108719301086191010800000000B9
:10023000719301087193010871930108719301088A
:10024000719301087591010881910108719301086A
:10025000719301087193010871930108719301086A
:10026000719301087193010871930108719301085A
:10027000719301087193010871930108719301084A
:100280007193010871930108719301080000000047
:0802900071930108719301084C
:1002A00010B5054C237833B9044B13B10448AFF3B0
:1002B00000800123237010BD484A01240000000083
:1002C0006431020808B5034B1BB103490348AFF37F
:1002D000008008BD000000004C4A0124643102087F
:1002E00010F8012B11F8013B012A28BF9A42F7D0E0
:1002F000D01A7047034613F8012B002AFBD1181AB5
:1003000001387047000000000000000000000000FD
:1003100001F0FF01102A2BDB10F0070F08D010F8B6
:10032000013B013A8B422DD010F0070F42B3F6D1BA
:10033000F0B441EA012141EA014122F007047FF0D3
:1003400000070023F0E80256083C85EA010586EA2A
:10035000010685FA47F5A3FA87F586FA47F6A5FA66
:1003600087F68EB9EED1F0BC01F0FF0102F0070272
:1003700032B110F8013B013A83EA010313B1F8D11D
:100380000020704701387047002D06BF35460338FE
:10039000073815F0010F07D1013015F4807F02BF37
:1003A000013015F4C03F0130F0BC0138704700BF88
:1003B00053B94AB9002908BF00281CBF4FF0FF31CC
:1003C0004FF0FF3000F088B9ADF1080C6DE904CEB4
:1003D00000F006F8DDF804E0DDE9022304B0704720
:1003E0002DE9F047089D8E4604468846002B4AD1E9
:1003F0008A42174662D9B2FA82F64EB1C6F120039C
:1004000001FA06F820FA03F3B74043EA0808B440BB
:100410004FEA174E1FFA87FCB8FBFEF1230C0EFBC8
:10042000118843EA084301FB0CF29A4209D9FB18F0
:1004300001F1FF3080F0EA809A4240F2E780023911
:100440003B449A1AA3B2B2FBFEF00EFB102243EA21
:10045000024300FB0CFC9C4509D9FB1800F1FF325C
:1004600080F0D6809C4540F2D3803B44023840EA7D
:100470000140A3EB0C0300211DB1F3400022C5E9AC
:100480000032BDE8F0878B4205D90DB1C5E9000106
:1004900000210846F5E7B3FA83F1002946D17345F8
:1004A00002D3824200F20581841A6EEB030201201E
:1004B0009046002DE5D0C5E90048E2E7002A00F0AB
:1004C0009080B2FA82F6002E40F0A4808A1A030CC3
:1004D0004FEA174E80B2BCB20121B2FBFEFC0EFB0C
:1004E0001C2243EA024304FB0CF29A4207D9FB1890
:1004F0000CF1FF3802D29A4200F2E080C4469B1A07
:10050000B3FBFEF20EFB123340EA034302FB04F49A
:100510009C4207D9FB1802F1FF3002D29C4200F244
:10052000CA8002461B1B42EA0C40A5E7C1F1200627
:100530008B4022FA06F71F430EFA01F420FA06F365
:100540002EFA06FE4FEA1749234300FA01F81FFA74
:1005500087FCBEFBF9F01C0C09FB10EE44EA0E44CC
:1005600000FB0CFEA64502FA01F209D93C1900F184
:10057000FF3A80F09C80A64540F2998002383C44C6
:10058000A4EB0E041FFA83FEB4FBF9F309FB13443A
:100590004EEA044403FB0CFCA44508D93C1903F1C2
:1005A000FF3E80F08280A4457FD9023B3C4443EA71
:1005B0000040A4EB0C04A0FB02EC64457346E1464A
:1005C00062D35FD05DB1B8EB030264EB090404FAB7
:1005D00006F622FA01F31E43CC40C5E9006400216F
:1005E0004FE7B1FBF2FC010C41EA0E4180B240EA58
:1005F00001423B4638463C46B846BE462026B1FB43
:10060000F7F1A2EB080241EA0C4166E7014618E760
:1006100010462CE7C6F120022EFA02F3B740B14093
:1006200020FA02F24FEA174E0A43B3FBFEF8BCB2BF
:100630000EFB1833110C41EA034108FB04F9B040EA
:1006400089454FEA104380B23ED9791808F1FF3C42
:1006500001D289451FD8A1EB0901B1FBFEF909FBC5
:1006600004F80EFB191192B242EA0142424529D226
:10067000BA1809F1FF31C4D24245C2D2A9F1020130
:100680003A44BEE7F0459DD2BEEB02036CEB070C8B
:100690000138E14696E7A7EB09094944A8F1020CA5
:1006A000B1FBFEF909FB04F8DBE773467FE7504630
:1006B00066E70846FDE63B44023A33E7ACF1020C3C
:1006C0003B441CE749469CE7A1EB0901C446B1FB4A
:1006D000FEF909FB04F8C4E7704700BF80B582B09B
:1006E00000AF0123FB711C4B01221A701B4808F05C
:1006F000EFF810221A491B4808F042FA01F03AFEBE
:100700000346FB7108F0DCF909F062FD002001F0FE
:10071000D3FB154A0221002007F00EFE124A0021E9
:10072000002007F009FE104A0121002007F004FE16
:100730000D4A0321002007F0FFFD0B4A0421002091
:1007400007F0FAFD084A0521002007F0F5FDFB79C6
:1007500018460837BD4680BD644A01240058004051
:1007600000100258003401407C31020880B500AF0F
:10077000044A0221002007F0DFFD00F0EDF800BF81
:1007800080BD00BF9031020880B582B000AF012368
:10079000FB71114B02221A70104A0021002007F051
:1007A000CBFD09F0EBFE0346FB7109F0E7FE0346C3
:1007B000002B05D10A4A0221002007F0AFFC05E01A
:1007C000054AFB799370044B07221A70FB7918468F
:1007D0000837BD4680BD00BF644A0124A431020829
:1007E000BC31020880B582B000AF204B03221A70E2
:1007F0000123FB711E4A0021002007F09DFD04F03B
:1008000079FC0346FB71FB79002B0BD0194A0421BC
:10081000012007F083FC154AFB799370134B0722E4
:100820001A7004E0144A0221002007F077FC06F059
:10083000B1FE0346FB71FB79002B0BD00F4A04215C
:10084000012007F06BFC094AFB799370074B0722E4
:100850001A7004E00A4A0221002007F05FFC07F04A
:1008600009FFFB7918460837BD4680BD644A01245C
:10087000CC310208E4310208003202081C320208BE
:100880003032020880B582B000AF214B04221A70CA
:100890000123FB711F4A0021002007F04DFD09F0E4
:1008A00013F80346FB71FB79002B0BD01A4A042185
:1008B000012007F033FC164AFB799370144B072292
:1008C0001A7004E0154A0221002007F027FC1022CC
:1008D0001349144808F0BEFC0346FB71FB79002B5A
:1008E0000BD0114A0421012007F018FC084AFB79BB
:1008F0009370074B07221A7004E00C4A0221002073
:1009000007F00CFCFB7918460837BD4680BD00BFD8
:10091000644A012448320208603202087832020830
:10092000000002580014005890320208A832020851
:1009300080B500AF064B05221A70054B06221A70CF
:10094000044A0021002007F0F7FC0023184680BD70
:10095000644A0124C032020880B500AF00F0E6F915
:1009600000BF80BD80B5C2B000AF07F58473A3F5AA
:100970008273186007F58473A3F58473196007F513
:100980008473A3F5847307F108001B68084A4FF4C9
:10099000807121F0BFFA07F10803012219460520F2
:1009A00007F06EFD00BF07F58477BD4680BD00BF30
:1009B000D832020880B5C0B000AF3B46084A4FF4B9
:1009C0008071184621F0A6FA3B46012219460520FF
:1009D00007F056FD00BF07F58077BD4680BD00BF1C
:1009E000F432020880B483B000AF786039607B686D
:1009F0005A693B6813403A689A4201D1012300E0EA
:100A0000002318460C37BD465DF8047B704780B460
:100A100083B000AF786039607B683A689A6100BF44
:100A20000C37BD465DF8047B704780B483B000AFDF
:100A3000786039603B681A047B689A6100BF0C37A4
:100A4000BD465DF8047B704780B500AF4FF4804130
:100A50000648FFF7DCFF4FF400410448FFF7D7FFDB
:100A6000032000F005F800BF80BD00BF001402584D
:100A700080B582B000AF0346FB71FB79032B37D8FA
:100A800001A252F823F000BF990A0008AF0A00083B
:100A9000C50A0008DB0A00084FF480411C48FFF734
:100AA000C4FF4FF400411A48FFF7BFFF2BE04FF49B
:100AB00080411748FFF7B9FF4FF400411448FFF792
:100AC000A6FF20E04FF480411148FFF7A0FF4FF44C
:100AD00000410F48FFF7A9FF15E04FF480410C4893
:100AE000FFF795FF4FF400410948FFF790FF0AE038
:100AF0004FF480410648FFF798FF4FF40041044847
:100B0000FFF793FF00BF00BF0837BD4680BD00BFA1
:100B10000014025880B582B000AF4FF480411948EC
:100B2000FFF760FF0346002B14BF01230023DBB255
:100B3000FB714FF400411348FFF754FF0346002BAD
:100B400014BF01230023DBB2BB71FB79002B04D15E
:100B5000BB79002B01D1002310E0FB79002B04D1DD
:100B6000BB79012B01D1012308E0FB79012B04D1D2
:100B7000BB79002B01D1022300E00323184608377C
:100B8000BD4680BD0014025880B483B000AF034658
:100B9000FB71064AFB791370054B00221A7000BFE7
:100BA0000C37BD465DF8047B704700BF674A0124DF
:100BB000684A012480B400AF034B1B781846BD4639
:100BC0005DF8047B704700BF674A012480B483B09E
:100BD00000AF0346FB71FB795C2B06D10E4B1B78F3
:100BE0000133DAB20C4B1A7002E00B4B00221A7080
:100BF000094B1B78092B07D9084B00221A70064BAA
:100C000000221A70012300E0002318460C37BD466D
:100C10005DF8047B704700BF684A0124674A0124DD
:100C200080B483B000AF78607B68DB6903F0400379
:100C3000402B01D1012300E0002318460C37BD46AC
:100C40005DF8047B704780B483B000AF78607B6848
:100C5000DB6903F08003802B01D1012300E0002336
:100C600018460C37BD465DF8047B704780B483B0EE
:100C700000AF78600B46FB70FA787B689A6200BF21
:100C80000C37BD465DF8047B704780B483B000AF7D
:100C9000786039607B683A689A6100BF0C37BD465E
:100CA0005DF8047B704780B483B000AF7860396032
:100CB0003B681A047B689A6100BF0C37BD465DF83B
:100CC000047B704780B584B000AF0346FB71FB79AD
:100CD000FB73FB7B1946034801F002FD00BF103790
:100CE000BD4680BD0010014080B582B000AF786085
:100CF0000B4A0221002007F01FFB00F043F80346D7
:100D0000002B07D0074A0421012007F007FA064B01
:100D100002225A70002010F07DFF00BFFDE700BFE7
:100D20000C330208203302086C4A012480B586B0D7
:100D300004AF0F4B02930F4B019305230093002345
:100D40004FF4A0620C490D4810F0B1FD78607B684B
:100D5000002B06D10A4A0521012007F0DFF900BF68
:100D6000FDE711F0FDF800BF0837BD4680BD00BFAC
:100D7000CC5E0124CC4A012448330208E90C000867
:100D800058330208F0B5CFB006AF012387F817310A
:100D9000FFF7FAFC034687F8173197F81731002B55
:100DA00005D0C94A0521012007F0B8F904E0C74A77
:100DB0000021002007F0B2F9FFF714FD034687F881
:100DC000173197F81731002B05D0C14A05210120B2
:100DD00007F0A4F904E0BF4A0021002007F09EF9C3
:100DE000FFF750FD034687F8173197F81731002BAE
:100DF00005D0B94A0521012007F090F904E0B74A6F
:100E00000021002007F08AF9FFF792FD034687F8DA
:100E1000173197F81731002B05D0B14A0521012071
:100E200007F07CF904E0AF4A0021002007F076F9D2
:100E300006F060FA06F0C4FE97F81731002B05D0D3
:100E4000A94A0521012007F069F904E0A74A002119
:100E5000002007F063F907F59073A3F5887318462F
:100E60004FF480731A46002121F019F90023C7F8C6
:100E7000103107F10803184609F0EEF9D7F81031E0
:100E800007F11002D018D7F81031C3F5807107F5BB
:100E90009073A3F58C739B789C4607F59073A3F52C
:100EA0008C735B781A4607F59073A3F58C731B78E7
:100EB0001C4607F59073A3F58C73DB781D4607F588
:100EC0009073A3F58C731B791E4607F59073A3F5F9
:100ED0008C735B79049303960295019400926346A8
:100EE000834A21F017F80246D7F810311344C7F8A7
:100EF000103107F59073A3F2191300221A7007F549
:100F00009073A3F58D7300221A7007F59073A3F206
:100F10001B1300221A707B1DBA1DF91D002009F059
:100F2000F5F9D7F8103107F11002D018D7F81031C1
:100F3000C3F5807107F59073A3F219131B781C4653
:100F400007F59073A3F58D731B781A4607F5907318
:100F5000A3F21B131B78019300922346654A20F0ED
:100F6000D9FF0246D7F810311344C7F81031D7F82B
:100F7000103107F11002D018D7F81031C3F5807383
:100F80005D4A194620F0C6FF0246D7F810311344D7
:100F9000C7F810310023C7F81C3117E000BF5748CD
:100FA000FFF751FE0346002BF9D007F59073A3F528
:100FB0008872D7F81C3113441B7819464F48FFF745
:100FC00055FED7F81C310133C7F81C3107F5907373
:100FD000A3F58872D7F81C3113441B78002BDDD1A0
:100FE00000BF4648FFF71CFE0346002BF9D0002344
:100FF000C7F8183117E000BF4148FFF724FE034649
:10100000002BF9D007F59073A3F58872D7F8183143
:1010100013441B7819463A48FFF728FED7F81831D1
:101020000133C7F8183107F59073A3F58872D7F824
:10103000183113441B78002BDDD100BF3048FFF777
:10104000EFFD0346002BF9D0002301930223009308
:1010500000234FF420622B492B4810F08CFC0346F0
:10106000012B01D00123EDE0002301930123009324
:1010700000234FF420622549254810F07CFC0346EC
:10108000012B01D00123DDE0002301930123009314
:1010900000234FF4A0621F491F4810F06CFC034668
:1010A000012B01D00123CDE0002301930123009304
:1010B00000234FF420721949194810F05CFC0346D4
:1010C000012B2FD00123BDE07433020894330208B2
:1010D000A8330208C8330208D8330208F8330208DC
:1010E0000834020824340208383402084C34020858
:1010F0005834020888340208A43402080010014061
:1011000000440040D834020879730008E83402082B
:10111000E5150008F434020891860008003502083D
:10112000A51200084A4801F0FBF80346002201928C
:10113000012200924FF420624649474810F01BFC00
:101140000346012B01D001237CE0444801F0E8F87C
:10115000034600220192012200924FF4206240498E
:10116000404810F008FC0346012B01D0012369E040
:10117000002301930123009300234FF4A0623A4916
:101180003A4810F0F8FB0346012B01D0012359E047
:101190000023019301230093002380223449354822
:1011A00010F0E9FB0346012B01D001234AE00023A4
:1011B000019301230093002380222F492F4810F030
:1011C000DAFB0346012B01D001233BE0002301930E
:1011D0000123009300234FF420722949294810F07D
:1011E000CAFB0346012B01D001232BE0264801F066
:1011F00097F8034600220192012200924FF42062E8
:101200002249234810F0B7FB0346012B01D00123EC
:1012100018E00023019301230093002380221D493D
:101220001D4810F0A8FB0346012B01D0012309E063
:10123000012010F093FD1949194801F013FD05F044
:10124000FFFD0023184607F59277BD46F0BD00BFAD
:1012500000440040103502080115000800780040E5
:1012600020350208651400082C350208F112000828
:101270003C35020809160008443502083D160008EE
:101280004C35020871160008001001405435020860
:101290005513000868350208B5160008C50C00088B
:1012A000704A012480B582B000AF786008F0C0FDBC
:1012B0000D4B1B6801330C4A13600B4B1B68B3F5D5
:1012C000E15F0CD9084B00221A6009F057F9034678
:1012D000002B04D100220549022007F0D1F84FF479
:1012E0007A7010F03BFDE1E72847012478350208C9
:1012F00080B584B000AF786003F094FF03461846D1
:1013000004F0A9F8114801F041FF0346FB73FB7B91
:10131000032B02D0FB7B042B13D10C4B1B6A012B3C
:1013200009D103F073FF03460949184604F024F974
:10133000064B00221A6203F069FF0346184604F0C8
:101340008AF84FF4FA7010F009FDD5E7704A0124CD
:101350008835020880B586B000AF78607B687B6115
:101360007B695B6E4FF0FF3118460FF039FE034684
:10137000012B6DD162E0FFF71DFC0346FB73FB7B85
:10138000022B15D13B69DBB21946334801F0A8F9AD
:101390003B69DBB21846FFF719FC0346002B4DD022
:1013A00003F034FF03462D49184604F0E5F845E004
:1013B000FB7B042B1ED13B69DBB21846FFF706FC12
:1013C0000346002B06D003F021FF034623491846AD
:1013D00004F0D2F803F01AFF02463B69DBB219466B
:1013E000104604F015F803F011FF0346184604F008
:1013F00032F823E01A4801F0C9FE0346BB73BB7BF9
:10140000032B02D0BB7B042B12D1154801F018FC32
:1014100003F0FCFE02463B69DBB21946104603F0BE
:10142000F7FF03F0F3FE0346184604F014F805E056
:101430003B69DBB219460A4801F024FD7B691B6851
:10144000184601F087FA38613B69B3F1FF3F92D14A
:10145000012010F083FC83E7007800408C350208FF
:10146000704A012480B586B000AF78607B687B61EC
:101470007B695B6E002118460FF0B2FD0346012B1D
:1014800035D12AE0FFF796FB0346FB73FB7B012B6C
:1014900006D13B69DBB21946174801F021F91CE07F
:1014A000FB7B022B06D13B69DBB21946134801F0E6
:1014B00017F912E0FB7B032B06D13B69DBB219461F
:1014C0000D4801F00DF908E0FB7B042B05D13B69C9
:1014D000DBB21946094801F003F97B691B6818461D
:1014E00001F038FA38613B69B3F1FF3FCAD10120FE
:1014F00010F034FCBCE700BF004400400010014085
:1015000080B586B000AF78607B687B617B695B6E7D
:101510004FF0FF3118460FF063FD0346012B58D101
:101520004DE0FFF747FB0346FB73FB7B012B15D117
:101530003B69DBB21946294801F0D2F83B69DBB2BE
:101540001846FFF743FB0346002B38D003F06AFE32
:1015500003462349184604F00FF830E0FB7B032BC9
:101560001ED13B69DBB21846FFF730FB0346002B68
:1015700006D003F057FE03461949184603F0FCFF56
:1015800003F050FE02463B69DBB21946104603F0F9
:101590003FFF03F047FE0346184603F05CFF0EE0F2
:1015A00003F040FE02463B69DBB21946104603F0E9
:1015B0002FFF03F037FE0346184603F04CFF7B690C
:1015C0001B68184601F0C6F938613B69B3F1FF3F6B
:1015D000A7D1012010F0C2FB98E700BF00780040BF
:1015E0008C35020880B584B000AF7860FFF7E2FA6E
:1015F0000346FB73FB7B002B01D106F011FB01209E
:1016000010F0ACFBF2E7000080B582B000AF78606C
:101610004FF480710848FFF746FB4FF47A7010F0E2
:101620009DFB4FF480710448FFF72FFB4FF47A7055
:1016300010F094FB00BFEBE7000C025880B582B0BD
:1016400000AF78604FF400710848FFF71EFB4FF4BD
:101650007A7010F083FB4FF400710448FFF723FB0E
:101660004FF47A7010F07AFB00BFEBE7000C0258E1
:1016700080B592B000AF78600C4B1B785A1CD1B289
:101680000A4A117007F10800094A402120F042FC83
:1016900007F1080300221946022006F0F1FE4EF67B
:1016A000602010F05BFB00BFE6E700BF285F01246D
:1016B000C035020880B582B000AF786007F010FA3C
:1016C00007F02AFA0346012B03D1C82010F046FB8D
:1016D000F4E74FF4167010F041FBEFE780B483B0ED
:1016E00000AF78607B689B6903F00103012B01D197
:1016F000012300E0002318460C37BD465DF8047B4B
:10170000704780B483B000AF78607B689B6903F05A
:101710000203022B01D1012300E0002318460C37FD
:10172000BD465DF8047B704780B483B000AF78603D
:101730007B689B6903F00403042B01D1012300E0C3
:10174000002318460C37BD465DF8047B704780B413
:1017500083B000AF78607B689B6903F01003102BA7
:1017600001D1012300E0002318460C37BD465DF887
:10177000047B704780B483B000AF78607B689B695E
:1017800003F40043B3F5004F01D1012300E000232F
:1017900018460C37BD465DF8047B704780B483B0B3
:1017A00000AF786039607B685B6823F400423B6877
:1017B0001A437B685A6000BF0C37BD465DF8047B56
:1017C0007047000080B487B000AFF860B9607A60FD
:1017D0003B60BB68C3F309027B6803F400631A43F0
:1017E0003B681B0403F47F031A433B6A1A437B6A7A
:1017F000134323F000437B61FB685A687B6A5B0DEF
:1018000003F48061064B0B43DB431A407B691A43A8
:10181000FB685A6000BF1C37BD465DF8047B70470B
:10182000FF7BFF0380B483B000AF78607B685B6AA6
:10183000DBB218460C37BD465DF8047B704780B4B8
:1018400083B000AF78600B46FB70FA787B689A62D1
:1018500000BF0C37BD465DF8047B704780B588B08B
:1018600002AFF8607B600B46FB721346BB7208F058
:10187000F9FF38610DE008F0F5FF02463B69D31A25
:101880000A2B06D9FB681B68184615F061FA02237B
:1018900096E0FB681B681846FFF76CFF0346002BB9
:1018A000E9D1FB681868FB7A590097F820300133BA
:1018B0001A46454B01934FF00073009313460022E4
:1018C000FFF780FF08F0CEFF386117E0FB681B6868
:1018D0001846FFF73CFF0346002B01D001236FE0C1
:1018E00008F0C0FF02463B69D31A0A2B06D9FB68F1
:1018F0001B68184615F02CFA032361E0FB681B688F
:101900001846FFF7FEFE0346002BDFD0FB681B687E
:10191000BA7A11461846FFF792FF0023FB752FE0B5
:1019200008F0A0FF386117E0FB681B681846FFF756
:101930000EFF0346002B01D0012341E008F092FF87
:1019400002463B69D31A0A2B06D9FB681B68184666
:1019500015F0FEF9032333E0FB681B681846FFF718
:10196000D0FE0346002BDFD0FB681868FB7D7A6849
:1019700013441B781946FFF762FFFB7D0133FB75AB
:10198000FA7D97F820309A42CAD308F06BFF38618D
:101990000DE008F067FF02463B69D31A0A2B06D90F
:1019A000FB681B68184615F0D3F9032308E0FB68B1
:1019B0001B681846FFF792FE0346002BE9D0002370
:1019C00018461837BD4680BD0020008090B589B00C
:1019D00002AFF8607B600B46FB721346BB7208F0E7
:1019E00041FF38610DE008F03DFF02463B69D31A24
:1019F0000A2B06D9FB681B68184615F0A9F90223C3
:101A0000B8E0FB681B681846FFF7B4FE0346002BDE
:101A1000E9D1FB681868FB7A5900584B0193002301
:101A2000009301230022FFF7CDFE08F01BFF386171
:101A300017E0FB681B681846FFF789FE0346002B7A
:101A400001D0012396E008F00DFF02463B69D31A4E
:101A50000A2B06D9FB681B68184615F079F9032391
:101A600088E0FB681B681846FFF74BFE0346002B17
:101A7000DFD0FB681B68BA7A11461846FFF7DFFE15
:101A800008F0F0FE386117E0FB681B681846FFF7A6
:101A90005EFE0346002B01D001236BE008F0E2FE5E
:101AA00002463B69D31A0A2B06D9FB681B68184605
:101AB00015F04EF903235DE0FB681B681846FFF73D
:101AC0000DFE0346002BDFD0FB681B680021184683
:101AD000FFF764FEFB681868FB7A5900FB7A5B002D
:101AE00043F001031C4697F82830254A01924FF035
:101AF000007200922246FFF765FE08F0B3FE3861DF
:101B00000023FB7530E008F0ADFE386117E0FB689C
:101B10001B681846FFF71BFE0346002B01D001236C
:101B200028E008F09FFE02463B69D31A0A2B06D92B
:101B3000FB681B68184615F00BF903231AE0FB68D5
:101B40001B681846FFF7F0FD0346002BDFD0FB684B
:101B50001968FB7D7A68D4180846FFF763FE0346D0
:101B60002370FB7D0133FB75FA7D97F828309A428C
:101B7000C9D3002318461C37BD4690BD0020008005
:101B80000024008080B584B000AF78600023FB6043
:101B9000786800F095F8786800F00BF80346002BA1
:101BA00002D06FF00303FB60FB6818461037BD4698
:101BB00080BD80B584B000AF78600023FB73786887
:101BC00018F060FB0346002B01D00123FB73FB7B65
:101BD00018461037BD4680BD80B586B000AFF860AE
:101BE000B9607A603B603B687A68B968F86818F059
:101BF00045FC0346002B03D06FF003037B6101E03B
:101C000000237B617B6918461837BD4680BD80B5CF
:101C100086B000AFF860B9607A603B603B687A6874
:101C2000B968F86818F0EEFC0346002B03D06FF09B
:101C300003037B6101E000237B617B691846183751
:101C4000BD4680BD80B582B000AF7860786819F07D
:101C5000EDFA0346042B14BF01230023DBB2184620
:101C60000837BD4680BD80B584B000AF786039606C
:101C70003968786819F0EAF80346002B03D06FF052
:101C80000303FB6001E00023FB60FB68184610378C
:101C9000BD4680BD80B582B000AF786078680EF038
:101CA00087FA00BF0837BD4680BD80B582B000AF5F
:101CB000786078680EF0A6FA00BF0837BD4680BD90
:101CC00080B582B000AF7860786816F0B3FD00BFD1
:101CD0000837BD4680BD80B483B000AF78607B68B4
:101CE0001B6803F00103012B01D1012300E0002355
:101CF00018460C37BD465DF8047B704780B483B04E
:101D000000AF78607B685B6903F00103012B01D1B0
:101D1000012300E0002318460C37BD465DF8047B24
:101D2000704780B483B000AF78607B685B6903F470
:101D30008053B3F5805F01D1012300E000231846F2
:101D40000C37BD465DF8047B704780B483B000AFAC
:101D500078607B6830331B78DBB218460C37BD46A1
:101D60005DF8047B704780B483B000AF78600B46A9
:101D7000FB707B682033FA781A7000BF0C37BD46C1
:101D80005DF8047B704780B586B000AFF8600B4605
:101D90007A60FB72F868FFF79EFF0346002B01D1C3
:101DA000012335E008F05EFD7861FB7A1946F8689A
:101DB000FFF7D9FF08E008F055FD02467B69D31A0A
:101DC0000A2B01D9032323E0F868FFF7AAFF034693
:101DD000002BF0D008F046FD786108E008F042FDE5
:101DE00002467B69D31A0A2B01D9032310E0F86855
:101DF000FFF784FF0346002BF0D07B68002B06D052
:101E0000F868FFF7A2FF03461A467B681A700023A2
:101E100018461837BD4680BD80B584B000AF7860E5
:101E20000B46FB707868FFF756FF0346002B01D185
:101E300001231BE008F016FDF860FB78194678686E
:101E4000FFF791FF08E008F00DFD0246FB68D31A8A
:101E50000A2B01D9032309E07868FFF762FF0346E4
:101E6000002BF0D07868FFF770FF0023184610377A
:101E7000BD4680BD80B582B000AF0346FB71FB79E3
:101E8000002B10D1FB79002B06D14FF4806200218A
:101E9000074820F004F907E04FF48062002105486C
:101EA00020F0FDF800E000BF0837BD4680BD00BF50
:101EB00000F8003800FC003880B582B000AF03465F
:101EC000FB71FB79002B04D1FB791846FFF7D2FF99
:101ED00000E000BF0837BD4680BD80B483B000AFCE
:101EE00078607B681B6843F001027B681A6000BF62
:101EF0000C37BD465DF8047B704780B483B000AFFB
:101F000078607B681B6823F001027B681A6000BF61
:101F10000C37BD465DF8047B704780B483B000AFDA
:101F200078607B68DB6903F04003402B01D101231B
:101F300000E0002318460C37BD465DF8047B70476F
:101F400080B483B000AF78607B68DB6903F0800306
:101F5000802B01D1012300E0002318460C37BD4639
:101F60005DF8047B704780B489B000AF78607B680F
:101F7000FB60FB6853E8003FBB60BB6843F01003A5
:101F8000FB617B68FA69BA617B617969BA6941E88A
:101F900000233B613B69002BE9D100BF00BF243720
:101FA000BD465DF8047B704780B489B000AF7860AF
:101FB0007B68FB60FB6853E8003FBB60BB6843F095
:101FC0008003FB617B68FA69BA617B617969BA69F0
:101FD00041E800233B613B69002BE9D100BF00BF12
:101FE0002437BD465DF8047B704780B489B000AFEC
:101FF00078607B68FB60FB6853E8003FBB60BB68B0
:1020000023F08003FB617B68FA69BA617B617969BF
:10201000BA6941E800233B613B69002BE9D100BF6D
:1020200000BF2437BD465DF8047B704780B483B0A1
:1020300000AF78607B681B6803F08003802B01D1C0
:10204000012300E0002318460C37BD465DF8047BF1
:10205000704780B489B000AF78607B680833FB605C
:10206000FB6853E8003FBB60BB6843F04003FB6183
:102070007B680833FA69BA617B617969BA6941E8BA
:1020800000233B613B69002BE7D100BF00BF243731
:10209000BD465DF8047B704780B485B000AF7860C2
:1020A00039603B68002B03D17B682833FB6002E07A
:1020B0007B682433FB60FB6818461437BD465DF827
:1020C000047B704780B483B000AF78600B46FB7030
:1020D000FA787B689A6200BF0C37BD465DF8047BD6
:1020E0007047000080B485B000AF786039607B68CD
:1020F000FB600C4A3B6813441B781A46FB68134488
:102100001B6808493A680A4412781146FA680A447A
:1021100043F00103136000BF1437BD465DF8047B34
:10212000704700BF305C020880B485B000AF7860B3
:1021300039607B68FB600C4A3B6813441B781A4685
:10214000FB6813441B6808493A680A441278114630
:10215000FA680A4423F00103136000BF1437BD4638
:102160005DF8047B704700BF305C020880B487B024
:1021700000AFF860B9607A60FB687B610D4ABB68AC
:1021800013441B781A467B6913445A680A4B134060
:102190000849BA680A44127811467A690A44114615
:1021A0007A6813434B6000BF1C37BD465DF8047B63
:1021B000704700BF305C02080000FFFF80B485B0AC
:1021C00000AF786039607B68FB60074A3B68134466
:1021D0001B781A46FB6813445B689BB21846143799
:1021E000BD465DF8047B7047305C020880B487B060
:1021F00000AFF860B9607A60FB687B61074ABB6832
:1022000013441B781A467B6913441A467B68D360D3
:1022100000BF1C37BD465DF8047B7047305C020888
:1022200080B487B000AFF860B9607A60FB687B610A
:10223000074ABB6813441B781A467B6913441A4645
:102240007B68936000BF1C37BD465DF8047B704718
:10225000305C020880B485B000AF786039607B687C
:10226000FB600C4A3B6813441B781A46FB68134416
:102270001B6808493A680A4412781146FA680A4409
:1022800043F00803136000BF1437BD465DF8047BBC
:10229000704700BF305C020880B485B000AF786042
:1022A00039607B68FB600C4A3B6813441B781A4614
:1022B000FB6813441B6808493A680A4412781146BF
:1022C000FA680A4443F00403136000BF1437BD46A4
:1022D0005DF8047B704700BF305C020880B485B0B5
:1022E00000AF786039607B68FB600C4A3B68134440
:1022F0001B781A46FB6813441B6808493A680A446D
:1023000012781146FA680A4443F01003136000BFC4
:102310001437BD465DF8047B704700BF305C02088F
:1023200080B485B000AF78600023FB6015E01049F1
:10233000FA6813465B019B1A9B000B441B687A6882
:102340009A4207D1FA6813465B019B1A9B00084A20
:10235000134406E0FB680133FB60FB68022BE6DDFB
:10236000002318461437BD465DF8047B704700BF54
:102370002C470124B0B584B002AF00237B6022E07B
:10238000B5497A6813465B019B1A9B000B441B6896
:102390001846FFF7B2FDB0497A6813465B019B1AF5
:1023A0009B000B4468331868AB497A6813465B019D
:1023B0009B1A9B000B446C331B681946FFF7B4FE55
:1023C0007B6801337B607B68022BD9DD4FF480632F
:1023D0000093A24BA24A0121A24808F0EAF84FF468
:1023E00080630093A04BA14A0221A14808F0E1F8C4
:1023F0000322002101200EF0A4FA0346964A5366F8
:10240000954B9C6E944BDD6E01219A48FFF744FE7C
:1024100003461A4629462046FFF702FF8E4B9B6E65
:102420008D4AD16E8C4AB2F874201846FFF79EFE92
:10243000894B9B6E884AD16E874A126F1846FFF708
:10244000D5FE854B9B6E844AD26E11461846FFF727
:1024500045FF814B9B6E804AD26E11461846FFF7AE
:10246000F9FE7D4B9B6E7C4AD26E11461846FFF7F3
:1024700013FF8048FFF7EDFD774B9B6E764AD26ED7
:1024800011461846FFF72EFE7A48FFF76CFD4FF411
:1024900080630093784B794A0521794808F089F8E0
:1024A0004FF480630093774B774A0621774808F012
:1024B00080F80322002101200EF043FA0346664A09
:1024C000C2F8E030644BD3F8E440634BD3F8E850F3
:1024D00001216F48FFF7E0FD03461A4629462046D2
:1024E000FFF79EFE5C4BD3F8E4305B4AD2F8E8106D
:1024F000594AB2F8F0201846FFF738FE564BD3F889
:10250000E430554AD2F8E810534AD2F8EC20184685
:10251000FFF76CFE504BD3F8E4304F4AD2F8E82076
:1025200011461846FFF7DAFE4B4BD3F8E4304A4A1F
:10253000D2F8E82011461846FFF78CFE464BD3F838
:10254000E430454AD2F8E82011461846FFF7A4FEC9
:102550004F48FFF77EFD404BD3F8E4303E4AD2F8B7
:10256000E82011461846FFF7BDFD4948FFF7FBFC80
:102570004FF480630093474B474A0B21474808F0CC
:1025800018F84FF480630093454B464A0C214648A7
:1025900008F00FF80322002101200EF0D2F90346C3
:1025A0002D4AC2F85C312C4BD3F860412A4BD3F84A
:1025B000645101213D48FFF76FFD03461A46294645
:1025C0002046FFF72DFE244BD3F86031224AD2F883
:1025D0006411214AB2F86C211846FFF7C7FD1E4B63
:1025E000D3F860311C4AD2F864111B4AD2F8682132
:1025F0001846FFF7FBFD184BD3F86031164AD2F8A6
:10260000642111461846FFF769FE134BD3F8603179
:10261000114AD2F8642111461846FFF71BFE0E4BF3
:10262000D3F860310C4AD2F8642111461846FFF7FE
:1026300033FE1E48FFF70DFD074BD3F86031064A05
:10264000D2F8642111461846FFF74CFD1748FFF7F2
:102650008AFC00233B6039E02C4701242C630124D1
:10266000D8350208304701242C670124E4350208DC
:1026700060470124001001402C6F0124F03502084E
:10268000AC4701242C730124FC350208DC470124EB
:10269000004400402C7B012408360208284801240D
:1026A0002C7F012414360208584801240078004089
:1026B0000A493A6813465B019B1A9B000B441B684E
:1026C0001846FFF70AFC3B6801333B603B68022B6E
:1026D000EEDD002318460837BD46B0BD2C47012467
:1026E00080B584B000AF78600B46FB707868FFF768
:1026F00017FEB860BB68002B1FD0134BFB6005E0D2
:10270000FB68013BFB60FB68002B18D0BB683433CF
:10271000FA781146184607F07FFF034683F001035D
:10272000DBB2002BECD17868FFF780FC0346002B6E
:1027300006D17868FFF738FC02E000BF00E000BF78
:102740001037BD4680BD00BF20A1070080B584B012
:1027500000AF786039607868FFF7E2FDF860FB68E9
:10276000002B11D03B68002B0ED008E03B681B7893
:1027700019467868FFF7B4FF3B6801333B603B685C
:102780001B78002BF2D100E000BF1037BD4680BDA2
:1027900080B584B000AF78607868FFF7C1FDF8605D
:1027A000FB68002B42D0FB681B68DB6903F0020367
:1027B000002B03D0FB681B6802221A62FB681B68AF
:1027C000DB6903F00403002B03D0FB681B680422C1
:1027D0001A62FB681B68DB6903F40033002B04D02A
:1027E000FB681B684FF400321A627868FFF7A8FB99
:1027F0000346002B1BD07868FFF718FC0346002B1C
:1028000015D0FB68343307F10B021146184607F068
:1028100049FF0346002B05D0FB7A19467868FFF77D
:1028200051FC04E07868FFF7E0FB00E000BF1037E0
:10283000BD4680BD80B58AB000AF78600023BB6024
:102840007868FFF76DFDB861BB69002B7CD0BB6970
:102850009B6F7B61BB699A6EBB69DB6E1946104644
:10286000FFF7ACFC03467B82BB69B3F874301A46B1
:102870007B8AD31AFB60FA687B699A4265D0FA6852
:102880007B699A4214D97B697B620CE0BB69181D95
:10289000BB691A6F7B6A13441B78194607F0BCFEAC
:1028A0007B6A01337B627A6AFB689A42EED32AE044
:1028B0007B693B620CE0BB69181DBB691A6F3B6A00
:1028C00013441B78194607F0A7FE3B6A01333B62AD
:1028D000BB69B3F874301A463B6A9342EBD30023CA
:1028E000FB610CE0BB69181DBB691A6FFB691344DF
:1028F0001B78194607F090FEFB690133FB61FA690A
:10290000FB689A42EED3BB695B6E07F10802114681
:1029100018460EF0CBF9BB68002B07D00C4B4FF0DC
:1029200080521A60BFF34F8FBFF36F8FBB69FA6895
:102930009A67BB699B6FBA69B2F87420934204D15D
:10294000BB6900229A6700E000BF2837BD4680BD02
:1029500004ED00E080B584B000AF78607868FFF7E0
:10296000DFFCF860FB68002B02D14FF0FF330EE074
:10297000FB68043307F10B021146184607F092FE7C
:102980000346002B01D0FB7A01E04FF0FF331846DD
:102990001037BD4680BD80B584B000AF78607868E0
:1029A000FFF7BEFCF860FB68002B01D1002305E0B7
:1029B000FB680433184607F0F2FE0346184610374A
:1029C000BD4680BD80B584B000AF78607868FFF701
:1029D000A7FCF860FB68002B01D1002306E0FB6830
:1029E0003433184607F09FFE034600BF18461037E1
:1029F000BD4680BD80B582B000AF78600B46FB70ED
:102A000000BF7868FFF79CFA0346002BF9D0FB78EB
:102A100019467868FFF756FB00BF7868FFF77DFA24
:102A20000346002BF9D000BF00BF0837BD4680BD6C
:102A300080B582B000AF786039603B68002B0ED063
:102A400008E03B681B7819467868FFF7D3FF3B68BE
:102A500001333B603B681B78002BF2D100E000BFE4
:102A60000837BD4680BD000080B485B000AF7860F7
:102A70000D4BFB600CE07B685A1C7A601B781A4691
:102A8000FB685340FB60FB68084A02FB03F3FB60F2
:102A90007B681B78002BEED1FB6818461437BD46C7
:102AA0005DF8047B704700BFC59D1C819301000148
:102AB00080B485B000AF786039607A683B68534075
:102AC000FB60FB681B0CFA681343FB60FB681B0A86
:102AD000FA681343FB60FB68DBB2002B0CBF0123D9
:102AE0000023DBB218461437BD465DF8047B7047FF
:102AF00080B584B000AF78607868FFF7B5FFF86004
:102B0000054BBB60B968F868FFF7D2FF034618466B
:102B10001037BD4680BD00BFA37B47C580B584B0DC
:102B200000AF786006F022F8F8600023FB7207F12E
:102B30000B0201230021F86806F00FF90346002B71
:102B400002D1FB7A102B07D91549786800F020F9DB
:102B5000144B01221A6020E0FB7A002B16D0FB7A7E
:102B6000114A0121F86806F0F8F80346002B05D158
:102B7000FB7A1A460C4B002199540EE008497868FC
:102B800000F006F9074B01221A6006E00449786854
:102B900000F0FEF8034B01221A601037BD4680BDDD
:102BA00020360208408301242C83012480B584B0A0
:102BB00000AF78600E4B1B68012B0BD17868FFF7D4
:102BC00053FFF8600B4BBB60B968F868FFF770FF04
:102BD000034609E008497868FDF782FB0346002BAD
:102BE00001D1012300E0002318461037BD4680BD07
:102BF00040830124A37B47C52C83012480B582B088
:102C000000AF78607B6893F82830042B10D17B6884
:102C10005B6D5A1C7B685A657B685B6D064A934204
:102C200006D3786800F068F80449786800F0B0F8D6
:102C300000BF0837BD4680BDE09304005C36020843
:102C400080B483B000AF78607B6893F82830042BA1
:102C500002D17B6800225A6500BF0C37BD465DF883
:102C6000047B704780B582B000AF786039607B68C4
:102C70003A689A657B6800221A627B6800225A6271
:102C80007B68002283F828207B680022DA627B6858
:102C900000221A657B6800225A657B682022002189
:102CA00018461FF0FCF97B683033202200211846BB
:102CB0001FF0F5F90B49786800F06AF80A4978685E
:102CC00000F066F80949786800F062F80849786809
:102CD00000F05EF80749786800F05AF800BF08373E
:102CE000BD4680BD88360208903602089836020834
:102CF000AC360208B436020880B582B000AF786006
:102D00007B6801221A627B6800225A627B6800227B
:102D100083F828207B680022DA627B6800221A652B
:102D20007B6800225A657B682022002118461FF02C
:102D3000B6F97B6830332022002118461FF0AFF926
:102D40000D49786800F024F80C49786800F020F804
:102D50000B49786800F01CF80A49786800F018F808
:102D60000949786800F014F80849786800F010F80C
:102D700000BF0837BD4680BD88360208903602087D
:102D800098360208AC360208B4360208B836020893
:102D900080B582B000AF7860396007E07B689A6DDB
:102DA0003B68591C39601B78184690473B681B7874
:102DB000002BF3D100BF00BF0837BD4680BD000027
:102DC00080B582B000AF78607B6893F82830002B24
:102DD00037D17B6824491846FDF782FA0346002B59
:102DE0000BD17B68012283F828207B680022DA62FD
:102DF0001E497868FFF7CCFF31E07B681C49184614
:102E0000FDF76EFA0346002B0ED17868FFF786FEB9
:102E10007B68022283F828207B680022DA6213494B
:102E20007868FFF7B5FF1AE012497868FFF7B0FF3E
:102E300011497868FFF7ACFF10497868FFF7A8FFE1
:102E40000DE07B6893F82830032B04D07B6893F85F
:102E50002830042B03D10A497868FFF799FF00BF97
:102E60000837BD4680BD00BFD0360208D8360208FC
:102E7000E4360208EC360208B4360208B836020816
:102E80001837020880B582B000AF78600B46FB703F
:102E90007B6893F82830012B05D07B6893F82830A5
:102EA000022B40F0ED800A22FB78934204D00D22E1
:102EB000FB78934240F0B6807B681B6D7A681344C0
:102EC000002283F830207B6893F82830012B38D11A
:102ED0007B6830331846FFF70BFE0346012B30D1D9
:102EE0007B68032283F828209A497868FFF750FF0F
:102EF00099497868FFF74CFF98497868FFF748FFD1
:102F000094497868FFF744FF95497868FFF740FFD8
:102F100094497868FFF73CFF93497868FFF738FFDA
:102F200092497868FFF734FF91497868FFF730FFDE
:102F30008B497868FFF72CFF86497868FFF728FFF0
:102F40006CE07B6893F82830022B38D17B683033F3
:102F50001846FFF72BFE0346012B30D17B68042275
:102F600083F828207B497868FFF712FF7A49786850
:102F7000FFF70EFF7F497868FFF70AFF7549786809
:102F8000FFF706FF76497868FFF702FF7549786812
:102F9000FFF7FEFE74497868FFF7FAFE7349786818
:102FA000FFF7F6FE72497868FFF7F2FE6C49786821
:102FB000FFF7EEFE67497868FFF7EAFE2EE07B68D0
:102FC000DB6A5A1C7B68DA6262497868FFF7E0FEC8
:102FD0007B68DB6A0322934214DB7B68002283F860
:102FE000282065497868FFF7D3FE5A497868FFF7CB
:102FF000CFFE58497868FFF7CBFE60497868FFF745
:10300000C7FE0BE05E497868FFF7C2FE5149786859
:10301000FFF7BEFE5B497868FFF7BAFE7B680022C7
:103020001A6592E07F22FB78934216D17B681B6D74
:10303000002B40F38A807B681B6D5A1E7B681A65E3
:103040007B689B6D082098477B689B6D2020984784
:103050007B689B6D0820984777E07B681B6D1E2B73
:1030600073DC7B681B6D591C7A6811657A681344A0
:10307000FA7883F830207B689B6D2A20984764E0BB
:103080007B6893F82830032B04D07B6893F82830B2
:10309000042B04D13C497868FFF77AFE56E00A22F7
:1030A000FB78934203D00D22FB7893421CD17B68BE
:1030B0005B6A7A680021D1547B685B6A002B0ADD69
:1030C00024497868FFF764FE7868FFF779FE7B682B
:1030D00000225A623AE01F497868FFF759FE2749F3
:1030E0007868FFF755FE31E07F22FB7893421AD1D2
:1030F0007B685B6A002B29DD7B685B6A5A1E7B68F4
:103100005A627B685B6A7A680021D1547B689B6D48
:10311000082098477B689B6D202098477B689B6DB3
:103120000820984712E07B685B6A1E2B0EDC7B68E8
:103130005B6A591C7A6851627A68F978D1547B6865
:103140009B6DFA781046984700E000BF00BF083733
:10315000BD4680BDB43602082837020894370208FD
:10316000B8370208E0370208083802083038020889
:103170005838020880380208A4380208B836020815
:10318000D0380208D8360208F838020880B483B074
:1031900000AF78607B6893F8283018460C37BD463E
:1031A0005DF8047B7047000080B400AFBFF34F8F21
:1031B00000BF064BDB6803F4E0620449044B134391
:1031C000CB60BFF34F8F00BF00BFFDE700ED00E015
:1031D0000400FA0580B483B000AF786039607B6882
:1031E0003A689A6100BF0C37BD465DF8047B7047B2
:1031F00080B483B000AF786039603B681A047B68A4
:103200009A6100BF0C37BD465DF8047B704780B4FF
:1032100085B000AF03460A46FB8013467B7141F23E
:103220002103BB817B791BB21B021AB2B7F90630AE
:1032300053401BB2FB800023FB7313E0B7F9063049
:10324000002B09DAB7F906305B001AB2B7F90C3077
:1032500053401BB2FB8002E0FB885B00FB80FB7BE2
:103260000133FB73FB7B072BE8D9FB881846143727
:10327000BD465DF8047B704780B586B000AFF8604E
:10328000B9607A600121B86802F038FA78617B6928
:10329000002B04D13F49F86802F06EF976E07869B6
:1032A0001EF038FC38613B691E2B6AD801A252F827
:1032B00023F000BF313300083933000843330008DE
:1032C0008333000883330008833300088333000806
:1032D0008333000883330008833300084D3300082C
:1032E000553300085D330008653300088333000858
:1032F00083330008833300088333000883330008D6
:10330000833300086D3300087733000883330008E7
:1033100083330008833300088333000883330008B5
:103320008333000883330008833300087D330008AB
:103330001E2004F09DFC25E04FF4806004F0DAFCD0
:1033400020E04FF4007004F025FD1BE0002004F0A5
:103350006BFD17E0012004F067FD13E0022004F08C
:1033600063FD0FE0032004F05FFD0BE04AF6CD3073
:1033700004F09CFD06E004F0E9FD03E004F022FE09
:1033800000E000BF0449F86802F0F6F81837BD46BF
:1033900080BD00BF883F02089C3F020880B5A8B0EE
:1033A00002AFF860B9607A600121B86802F0A6F94E
:1033B000C7F884000221B86802F0A0F9C7F88000BD
:1033C0000023A7F89630D7F88430002B03D0D7F825
:1033D0008030002B04D1A049F86802F0CDF838E124
:1033E000D7F884001EF096FBF86700220021D7F87A
:1033F00080001EF0C3FCB867BB6F002B03D0BB6F0F
:10340000B3F5483F0ED907F110004FF44833934A03
:1034100064211EF07FFD07F110031946F86802F0E1
:10342000ABF816E1FDF776FB0346032B1BD0FDF747
:1034300071FB0346022B08D0FDF76CFB0346012B02
:1034400001D1874B02E0874B00E0874B07F110006A
:10345000864A64211EF05EFD07F110031946F868E4
:1034600002F08AF8F5E00220FDF702FBFB6F032B68
:103470006DD0FB6F032B00F39C80FB6F012B03D0FF
:10348000FB6F022B2CD094E00023C7F890301AE099
:10349000D7F8903087F87530D7F89030744A1344D5
:1034A00097F875201A7097F87520B7F8963011467E
:1034B0001846FFF7ACFE0346A7F89630D7F89030D1
:1034C0000133C7F89030D7F89020BB6F9A42DFD312
:1034D00007F11000BB6F674A64211EF01BFD70E00E
:1034E0000023C7F88C3025E0D7F88C10624BA3FB83
:1034F00001239A0913465B0013445B01CA1AD3B235
:10350000203387F87630D7F88C30594A134497F82F
:1035100076201A7097F87620B7F89630114618463C
:10352000FFF775FE0346A7F89630D7F88C300133C5
:10353000C7F88C30D7F88C20BB6F9A42D4D307F1F0
:103540001000BB6F4D4A64211EF0E4FC39E00023FB
:10355000C7F8883020E01EF0E1FA03465A42DBB299
:10356000D2B258BF534287F87730D7F88830404AF4
:10357000134497F877201A7097F87720B7F89630A9
:1035800011461846FFF743FE0346A7F89630D7F8D2
:1035900088300133C7F88830D7F88820BB6F9A424B
:1035A000D9D307F11000BB6F354A64211EF0B2FC7D
:1035B00007E03449F86801F0DFFF0320FDF758FA0F
:1035C00047E04FF47A700EF0C9FB0120FDF750FA86
:1035D00007F110031946F86801F0CEFF244A244B86
:1035E0001B7807F1100000931346274A64211EF050
:1035F00091FC07F110031946F86801F0BDFFBB6F9D
:10360000013B1B4A13441946BB6F013B184A134444
:103610001B7807F1100000930B461C4A64211EF032
:1036200079FC07F110031946F86801F0A5FFB7F817
:10363000963007F11000164A64211EF06BFC07F16A
:1036400010031946F86801F097FF1249F86801F075
:1036500093FF9837BD4680BDA03F0208F03F0208A7
:1036600018400208244002082C4002083440020896
:103670000000003058400208ABAAAAAA88400208FD
:10368000B8400208DC4002080C4102083041020840
:10369000504102089C3F020880B5AAB002AFF86012
:1036A000B9607A600121B86802F028F8C7F8840090
:1036B0001023C7F880300023C7F89C300023A7F8F8
:1036C0009A30D7F88430002B04D18049F86801F093
:1036D00053FFF7E000220021D7F884001EF04EFBD4
:1036E000F867FB6F002B03D0FB6FB3F5483F0ED993
:1036F00007F114004FF44833754A64211EF00AFCA8
:1037000007F114031946F86801F036FFDAE007F113
:103710001400FB6F6F4A64211EF0FCFB07F11403D9
:103720001946F86801F028FF0023C7F89430AEE08E
:10373000D7F8943003F1605307F11400664A64210E
:103740001EF0E8FB07F114031846FCF7D3FD024610
:1037500007F114031344C7F890300023C7F88C30E6
:1037600031E0D7F89420D7F88C30134403F160533C
:103770001B7887F87B3007F11403D7F89020D31A11
:10378000C3F1640197F87B30544AD7F890001EF0DB
:10379000C1FBD7F890300333C7F89030D7F89C308E
:1037A0000133C7F89C3097F87B20B7F89A30114660
:1037B0001846FFF72CFD0346A7F89A30D7F88C304F
:1037C0000133C7F88C30D7F88C20D7F880309A4274
:1037D00007D2D7F89420D7F88C301344FA6F9A4266
:1037E000BFD8D7F890305A1CC7F8902020221A7002
:1037F000D7F890305A1CC7F890207C221A7000230A
:10380000C7F8883021E0D7F89420D7F888301344DF
:1038100003F160531B7887F87A3097F87A301F2BC2
:1038200006D997F87A307E2B02D897F87A1000E004
:103830002E21D7F890305A1CC7F890200A461A70EB
:10384000D7F888300133C7F88830D7F88820D7F800
:1038500080309A4207D2D7F89420D7F888301344A2
:10386000FA6F9A42CFD8D7F8903000221A7007F139
:1038700014031946F86801F07FFE01200EF06EFA7D
:10388000D7F89420D7F880301344C7F89430D7F88D
:103890009420FB6F9A42FFF44BAFB7F89A3007F1D0
:1038A00014000093D7F89C300D4A64211EF032FBBF
:1038B00007F114031946F86801F05EFE0949F8683B
:1038C00001F05AFEA037BD4680BD00BF6841020826
:1038D000F03F020890410208B8410208C4410208C2
:1038E000CC4102089C3F020880B5A0B000AFF86050
:1038F000B9607A600121B86801F000FFF867FB6FDA
:10390000002B04D13449F86801F036FE60E03349F9
:10391000F86FFCF7E5FC0346002B42D1FDF7FAF8FF
:10392000034687F87B3097F87B30032B2AD801A217
:1039300052F823F045390008553900086539000868
:103940007539000807F11403254A642118461EF052
:10395000E1FA1FE007F11403224A642118461EF021
:10396000D9FA17E007F114031F4A642118461EF024
:10397000D1FA0FE007F114031C4A642118461EF027
:10398000C9FA07E007F11403194A642118461EF02A
:10399000C1FA00BF07F114031946F86801F0ECFD05
:1039A00012E01449F86FFCF79BFC0346002B07D18B
:1039B0000320FDF75DF81049F86801F0DDFD03E034
:1039C0000E49F86801F0D8FD0D49F86801F0D4FD02
:1039D0008037BD4680BD00BF044202082442020871
:1039E000284202083C420208544202086842020887
:1039F0007C420208C03D020894420208B04202081C
:103A00009C3F020880B5A0B000AFF860B9607A6052
:103A100005F050FFF867FB6F1B7D83F00103DBB2FD
:103A2000002B04D01749F86801F0A6FD27E006F046
:103A30008BF8034687F87B3097F87B30002B0DD14D
:103A400007F11403104A642118461EF063FA07F1C7
:103A500014031946F86801F08FFD0CE007F1140318
:103A60000A4A642118461EF055FA07F11403194654
:103A7000F86801F081FD0649F86801F07DFD8037A6
:103A8000BD4680BDE0420208044302082C43020800
:103A90009C3F020890B5ABB004AFF860B9607A60A3
:103AA0000121B86801F02AFEC7F894000221B86825
:103AB00001F024FEC7F89000D7F89430002B03D013
:103AC000D7F89030002B04D13449F86801F054FD48
:103AD00061E0D7F894001EF01DF8034687F88F3098
:103AE00000220021D7F890001EF048F9C7F888009E
:103AF0002B4A97F88F30D7F88810184605F012FF38
:103B0000034687F8873097F88730002B1ED107F1DE
:103B10001003184605F0A2FF0346002B37D17A693F
:103B20003B7C1946BB69B88B044607F12000029420
:103B30000193009113461B4A64211EF0EBF907F133
:103B400020031946F86801F017FD20E097F8873048
:103B5000022B0ED197F88F3007F12000124A642112
:103B60001EF0D8F907F120031946F86801F004FDAA
:103B70000DE097F8873007F120000C4A64211EF011
:103B8000C9F907F120031946F86801F0F5FC084966
:103B9000F86801F0F1FC9C37BD4690BD5043020827
:103BA0000000003074430208B4430208D443020802
:103BB0009C3F020880B5A4B002AFF860B9607A609B
:103BC00005F0FCFF034687F8873097F88730032B12
:103BD00038D801A252F823F03B3C0008FD3B000816
:103BE000F33B0008E93B00081D49F86801F0C4FCFC
:103BF0002DE01C49F86801F0BFFC28E007F1100334
:103C0000184605F02BFF0346002B11D1BB8B1A463B
:103C1000BB6907F1200000931346134A64211EF08C
:103C200079F907F120031946F86801F0A5FC0EE0C8
:103C30000E49F86801F0A0FC09E00D49F86801F0B0
:103C40009BFC04E00B49F86801F096FC00BF0A49B0
:103C5000F86801F091FC00BF8837BD4680BD00BF09
:103C6000FC430208084402081444020844440208C1
:103C700070440208804402089C3F020880B5A6B048
:103C800002AFF860B9607A600121B86801F036FDD2
:103C9000C7F88400D7F88430002B04D14349F86872
:103CA00001F06AFC7FE000220021D7F884001EF0BA
:103CB00065F8C7F88000D7F88030002B04D0D7F81B
:103CC0008030B3F5483F0ED907F114004FF4483364
:103CD000374A64211EF01EF907F114031946F868EB
:103CE00001F04AFC5FE005F0ABFAF867FB6FDB7AA6
:103CF00083F00103DBB2002B04D02E49F86801F0F9
:103D00003BFC50E0D7F880104FF0605005F0E4FA2B
:103D1000034687F87B3097F87B30002B31D10023A6
:103D2000A7F88E300023C7F8883012E0D7F8883023
:103D300003F160531A78B7F88E3011461846FFF732
:103D400066FA0346A7F88E30D7F888300133C7F8F3
:103D50008830D7F88820D7F880309A42E6D3B7F871
:103D60008E3007F114000093D7F88030124A642196
:103D70001EF0D0F807F114031946F86801F0FCFBB7
:103D80000DE097F87B3007F114000C4A64211EF017
:103D9000C1F807F114031946F86801F0EDFB084972
:103DA000F86801F0E9FB9037BD4680BD90440208F9
:103DB000F03F0208BC440208E04402080C45020837
:103DC0009C3F020880B588B000AFF860B9607A60A7
:103DD00007F11403074A0A2118461EF09BF807F161
:103DE00014031946F86801F0C7FB00BF2037BD4631
:103DF00080BD00BF30450208F0B5B3B006AFF86033
:103E0000B9607A600121B86801F078FCC7F8AC00AD
:103E10000221B86801F072FCC7F8A8000321B86855
:103E200001F06CFCC7F8A4000421B86801F066FC3E
:103E3000C7F8A0000521B86801F060FCC7F89C0035
:103E40000621B86801F05AFCC7F89800D7F8AC30E2
:103E5000002B13D0D7F8A830002B0FD0D7F8A43000
:103E6000002B0BD0D7F8A030002B07D0D7F89C3010
:103E7000002B03D0D7F89830002B0DD107F1180391
:103E8000624A642118461EF045F807F118031946E6
:103E9000F86801F071FBB6E0D7F8AC001DF03AFE0F
:103EA000C7F89400D7F8A8001DF034FEC7F89000BA
:103EB000D7F8A4001DF02EFEC7F88C00D7F8A0009C
:103EC0001DF028FEC7F88800D7F89C001DF022FEE0
:103ED000C7F88400D7F898001DF01CFEC7F88000D2
:103EE000D7F89430002B03DBD7F89430172B04DD80
:103EF0004749F86801F040FB85E0D7F89030002B87
:103F000003DBD7F890303B2B04DD4249F86801F021
:103F100033FB78E0D7F88C30002B03DBD7F88C30FC
:103F20003B2B04DD3C49F86801F026FB6BE0D7F839
:103F30008830002B03DDD7F888301F2B04DD37498C
:103F4000F86801F019FB5EE0D7F88430002B03DD40
:103F5000D7F884300C2B04DD3149F86801F00CFBF4
:103F600051E0D7F88030002B03DBD7F88030632B8B
:103F700004DD2C49F86801F0FFFA44E0D7F89430EA
:103F8000DBB2FB74D7F89030DBB23B75D7F88C30DE
:103F9000DBB27B75D7F88830DBB23B74D7F884305E
:103FA000DBB27B74D7F88030DBB2BB7407F110034F
:103FB000184606F067F904F0A9FCF86707F110034A
:103FC0001946F86F04F0F8FCFB7C1E463B7D7A7DB9
:103FD000397C787C0446B87C054607F118000495C6
:103FE000039402910192009333460F4A64211DF01D
:103FF00091FF07F118031946F86801F0BDFA0B4963
:10400000F86801F0B9FAB437BD46F0BD384502088A
:1040100078450208AC450208E0450208144602084B
:104020004446020878460208C04602089C3F02083F
:10403000F0B5B7B006AFF860B9607A600121B86832
:1040400001F05CFBC7F8BC00D7F8BC30002B0DD1E9
:1040500007F14803C84A642118461DF05BFF07F1C9
:1040600048031946F86801F087FA82E1C349D7F896
:10407000BC00FCF735F90346002B3FD104F046FCA9
:10408000C7F8AC0007F140031946D7F8AC0004F0BC
:1040900047FC0346002B2CD107F13E031946D7F805
:1040A000AC0004F0CDFC97F843309C4697F84430C0
:1040B00097F8452097F8401097F84100044697F884
:1040C00042000546B7F93E00064607F1480005964E
:1040D000049503940291019200936346A84A6421D7
:1040E0001DF018FF07F148031946F86801F044FA7B
:1040F0003BE1A449F86801F03FFA36E1A249D7F85C
:10410000BC00FCF7EDF80346002B26D107F138037D
:10411000184606F0A1F897F83B301E4697F83C3059
:1041200097F83D2097F8381097F83900044697F82B
:104130003A00054607F14800049503940291019264
:1041400000933346914A64211DF0E4FE07F14803D1
:104150001946F86801F010FA07E18D49D7F8BC005C
:10416000FCF7BEF80346002B2ED100237B6300230F
:1041700087F83330002387F83230002387F8313056
:1041800007F1310307F1320207F1330107F134007F
:1041900006F0BCF897F833301C4697F8323097F8A1
:1041A0003120796BC9B207F1480002910192009366
:1041B0002346784A64211DF0ADFE07F148031946F5
:1041C000F86801F0D9F9D0E07349D7F8BC00FCF7E2
:1041D00087F80346002B12D106F08AF8C7F8B00022
:1041E00007F14800D7F8B0306C4A64211DF092FE08
:1041F00007F148031946F86801F0BEF9B5E06849CF
:10420000D7F8BC00FCF76CF80346002B40F0A08008
:1042100004F07CFBC7F8B80007F128031946D7F86B
:10422000B80004F07DFB0346002B2CD107F11603E8
:104230001946D7F8B80004F003FC97F82B309C46D9
:1042400097F82C3097F82D2097F8281097F8290028
:10425000044697F82A000546B7F91600064607F106
:1042600048000596049503940291019200936346D9
:10427000434A64211DF04EFE07F148031946F868D1
:1042800001F07AF903E04749F86801F075F907F1A0
:104290002003184605F0E0FF97F823301E4697F8F4
:1042A000243097F8252097F8201097F8210004462D
:1042B00097F82200054607F14800049503940291FF
:1042C000019200933346314A64211DF023FE07F129
:1042D00048031946F86801F04FF90023FB610023F9
:1042E000FB760023BB7600237B7607F1190307F1E9
:1042F0001A0207F11B0107F11C0006F007F8FB7E0C
:104300001C46BB7E7A7EF969C9B207F1480002916A
:104310000192009323461F4A64211DF0FBFD07F123
:1043200048031946F86801F027F905F0E1FFC7F8DE
:10433000B40007F14800D7F8B430184A64211DF0E2
:10434000E9FD07F148031946F86801F015F90CE09A
:1043500007F14803144A642118461DF0DBFD07F1FC
:1043600048031946F86801F007F91049F86801F0A8
:1043700003F9C437BD46F0BDF04602081C470208E9
:10438000244702086C470208884702089047020841
:10439000CC470208D447020808480208104802081F
:1043A00020480208244802083C4802089C3F0208B2
:1043B000F0B5A9B006AFF860B9607A600121B868BD
:1043C00001F09CF9C7F88400D7F88430002B0DD198
:1043D00007F118032F4A642118461DF09BFD07F1D1
:1043E00018031946F86801F0C7F850E000220021D0
:1043F000D7F884001DF0C2FCC7F88000D7F88030E1
:10440000254A93420DD807F11800244B244A642111
:104410001DF080FD07F118031946F86801F0ACF8AB
:1044200035E0D7F8800005F043FFD7F880201D4B1A
:10443000134407F110021146184605F071FC04F010
:1044400065FAF86707F110031946F86F04F0B4FA3B
:10445000FB7C1E463B7D7A7D397C787C0446B87CAB
:10446000054607F118000495039402910192009308
:1044700033460D4A64211DF04DFD07F1180319461E
:10448000F86801F079F80949F86801F075F88C3797
:10449000BD46F0BD744802087F436D3880436D38D7
:1044A0009048020880BC92C7C04602089C3F0208A0
:1044B00080B5A4B002AFF860B9607A600121B86835
:1044C00001F01CF9C7F884000221B86801F016F960
:1044D000C7F88000D7F88430002B03D0D7F880309D
:1044E000002B0DD107F11403254A642118461DF055
:1044F00011FD07F114031946F86801F03DF83CE09E
:1045000000220021D7F884001DF0C0FB0346A7F865
:104510007E3000220021D7F880001DF0B7FB034653
:10452000DBB2FB7404F022FBB867B7F87E1007F12A
:1045300013020123B86F04F081FB0346002B0AD15C
:10454000B7F87E30FA7C07F1140000920D4A64211E
:104550001DF0E0FC07E0B7F87E3007F114000A4ACE
:1045600064211DF0D7FC07F114031946F86801F027
:1045700003F80649F86800F0FFFF8837BD4680BDA4
:10458000B0480208D4480208F44802089C3F0208D8
:1045900080B5A4B002AFF860B9607A600121B86854
:1045A00001F0ACF8C7F88400D7F88430002B0DD1A7
:1045B00007F11803224A642118461DF0ABFC07F1ED
:1045C00018031946F86800F0D7FF35E000220021F3
:1045D000D7F884001DF05AFB0346A7F88230002369
:1045E000FB7504F0C3FAF867B7F8821007F11702F9
:1045F0000123F86F04F0B1FB0346002B0AD1B7F892
:104600008230FA7D07F1180000920E4A64211DF0F5
:1046100081FC07E0B7F8823007F118000A4A6421EC
:104620001DF078FC07F118031946F86800F0A4FFA4
:104630000649F86800F0A0FF8837BD4680BD00BF7E
:10464000104902082C4902084C4902089C3F020804
:1046500080B584B000AFF860B9607A60F86803F0A4
:1046600081F90449F86800F087FF00BF1037BD46A4
:1046700080BD00BF9C3F020880B586B000AFF860E7
:10468000B9607A6002F012FE0D49F86800F074FF1C
:1046900002F080FF0346FB75FB7D002B04D0094927
:1046A000F86800F069FF03E00749F86800F064FF6C
:1046B0000649F86800F060FF00BF1837BD4680BDAE
:1046C0006849020880490208944902089C3F020890
:1046D00080B584B000AFF860B9607A6002F0F8FD90
:1046E0000549F86800F048FF0449F86800F044FF05
:1046F00000BF1037BD4680BDB04902089C3F02088C
:1047000080B5A6B000AFF860B9607A600121B868E2
:1047100000F0F4FFC7F894000221B86800F0EEFF43
:10472000C7F89000D7F89430002B03D0D7F890301A
:10473000002B04D11149F86800F01EFF1BE0D7F8E8
:104740009020D7F89410F86803F020F80346002B67
:104750000DD107F11000D7F89430094A80211DF0DF
:10476000D9FB07F110031946F86800F005FF054969
:10477000F86800F001FF9837BD4680BDC8490208BF
:10478000E84902089C3F020880B5A8B000AFF86075
:10479000B9607A600121B86800F0B0FFC7F89C00EA
:1047A0000221B86800F0AAFFC7F89800D7F89C303B
:1047B000002B03D0D7F89830002B04D11C49F8689F
:1047C00000F0DAFE31E0D7F89800FBF793FDC7F868
:1047D0009400D7F89430B3F5005F04D91549F86810
:1047E00000F0CAFE21E0D7F89420D7F89810D7F847
:1047F0009C0002F027FE0346002B0ED107F11400A7
:10480000D7F89C300C4A80211DF084FB07F114037B
:104810001946F86800F0B0FE03E00849F86800F0B7
:10482000ABFE0749F86800F0A7FEA037BD4680BD83
:10483000C8490208004A0208E84902081C4A02085E
:104840009C3F020880B586B000AFF860B9607A601E
:104850000121B86800F052FF78617B69002B04D118
:104860000749F86800F088FE07E07969F86802F007
:10487000B3FE0449F86800F07FFE1837BD4680BDDE
:10488000344A02089C3F020880B584B000AFF8604B
:10489000B9607A6080210B48FEF7AAFC64200DF015
:1048A0005DFA80210748FEF795FC0749F86800F09B
:1048B00063FE0649F86800F05FFE00BF1037BD4692
:1048C00080BD00BF001802584C4A02089C3F0208F5
:1048D00080B584B000AFF860B9607A604FF4807141
:1048E0000748FEF785FC0749F86800F045FE0649D1
:1048F000F86800F041FE00BF1037BD4680BD00BF24
:1049000000180258684A02089C3F020880B584B02B
:1049100000AFF860B9607A604FF480710748FEF725
:1049200059FC0749F86800F027FE0649F86800F0CE
:1049300023FE00BF1037BD4680BD00BF00180258DF
:10494000904A02089C3F020880B586B000AFF8602C
:10495000B9607A600121B86800F0D0FE78617B69A7
:10496000002B04D11E49F86800F006FE35E01D4911
:104970007869FBF7B5FC0346002B07D11A49F868A4
:1049800000F0FAFD0120FCF7FFF822E017497869F2
:10499000FBF7A6FC0346002B07D11549F86800F089
:1049A000EBFD0220FCF7F0F813E012497869FBF701
:1049B00097FC0346002B07D10F49F86800F0DCFD97
:1049C0000020FCF7E1F804E00C49F86800F0D4FDA1
:1049D00003E00B49F86800F0CFFD1837BD4680BDF5
:1049E000B84A0208DC4A0208E04A0208104B0208F2
:1049F000144B0208444B02084C4B0208804B02083F
:104A00009C3F020880B586B000AFF860B9607A605C
:104A10000121B86800F072FE78617B69002B04D137
:104A20001E49F86800F0A8FD34E01D497869FBF7DD
:104A300057FC0346002B07D10320FCF7A5F81949C2
:104A4000F86800F099FD21E017497869FBF748FC08
:104A50000346002B07D10420FCF796F81349F868A9
:104A600000F08AFD12E012497869FBF739FC034631
:104A7000002B07D10020FCF787F80E49F86800F0FA
:104A80007BFD03E00C49F86800F076FD0B49F868FF
:104A900000F072FD1837BD4680BD00BFB84B02085C
:104AA000DC4A0208D84B0208104B0208204C0208CE
:104AB000604C0208644C0208944C02089C3F0208B7
:104AC00080B588B000AFF860B9607A600121B8683D
:104AD00000F014FEB861BB69002B04D11649F868D8
:104AE00000F04AFD25E0B869FBF704FC78610D2170
:104AF0001248FDF7F5FD0023FB610AE0BA69FB6986
:104B000013441B7819460D48FDF7EAFDFB69013394
:104B1000FB61FA697B699A42F0D30D210748FDF7E2
:104B2000DFFD0749F86800F027FD0649F86800F046
:104B300023FD2037BD4680BDC84C020800780040E8
:104B4000E44C02089C3F020880B584B000AF786056
:104B50007B68FB600349F86800F00EFD00BF10376A
:104B6000BD4680BD044D020880B584B000AF7860BA
:104B70007B68FB600349F86800F0FEFC00BF10375B
:104B8000BD4680BD144D020880B584B000AF78608A
:104B90007B68FB600349F86800F0EEFC00BF10374B
:104BA000BD4680BD244D020880B588B004AFF860D2
:104BB000B9607A6000230193FB680093164B0022D2
:104BC0000A21022005F06EFC01230293FB68019389
:104BD000124B009300231E2214210A2005F0C2FB71
:104BE00002230093FB680E4A0021142005F010FCFC
:104BF0000C49F86800F0C0FC0B49F86800F0BCFCF8
:104C00000A49F86800F0B8FC0949F86800F0B4FCFB
:104C100000BF1037BD4680BD494B0008694B0008F6
:104C2000894B0008384D02085C4D02087C4D020893
:104C30009C3F020890B5ADF20C4D04AF07F57E73B2
:104C4000A3F57B73186007F57E73A3F57C73196079
:104C500007F57E73A3F57D731A601423C7F8EC3350
:104C60000DF0EEFAC7F8E80307F11400D7F8E833BF
:104C7000734A4FF480711DF04DF907F1140207F5E6
:104C80007E73A3F57B731146186800F075FC07F579
:104C90008A730022D7F8EC1318460DF0DDFAC7F836
:104CA000E403D7F8E433002B10D107F57E73A3F5A6
:104CB0007B736449186800F05FFC07F57E73A3F509
:104CC0007B736149186800F057FCB4E007F11400E9
:104CD000D7F8E4335D4A4FF480711DF01BF907F1FA
:104CE000140207F57E73A3F57B731146186800F074
:104CF00043FC07F57E73A3F57B735549186800F0F4
:104D00003BFC07F57E73A3F57B735249186800F0EE
:104D100033FC0023C7F8F43377E007F57E73A3F57F
:104D20003971D7F8F4231346DB0013449B000B447E
:104D30000C331B78042B21D801A252F823F000BFBA
:104D4000554D00085D4D0008654D00086D4D00088B
:104D5000754D0008404BC7F8F03313E03F4BC7F8E0
:104D6000F0330FE03E4BC7F8F0330BE03D4BC7F894
:104D7000F03307E03C4BC7F8F03303E03B4BC7F898
:104D8000F03300BF07F57E73A3F53971D7F8F4232C
:104D90001346DB0013449B000B4404331C6807F5E7
:104DA0007E73A3F53971D7F8F4231346DB0013445F
:104DB0009B000B441033196807F57E73A3F5397017
:104DC000D7F8F4231346DB0013449B00034420333D
:104DD0001B6807F1140002930191D7F8F033009398
:104DE0002346234A4FF480711DF094F807F1140212
:104DF00007F57E73A3F57B731146186800F0BCFBC2
:104E0000D7F8F4330133C7F8F433D7F8F423D7F8DD
:104E1000E4339A4281D307F57E73A3F57B730D4982
:104E2000186800F0A9FB07F57E73A3F57B730649AC
:104E3000186800F0A1FB07F57F77BD4690BD00BF65
:104E4000984D0208B84D02089C3F0208DC4D02084C
:104E5000F04D0208204E02084C4E0208544E020843
:104E60005C4E0208644E02086C4E0208744E020842
:104E70007C4E020880B582B000AF78600348FDF731
:104E80003BFF00BF0837BD4680BD00BF704A01240C
:104E900090B587B002AFF860B9607A601349F868DE
:104EA00000F06AFB124B1B68002B0AD1114B0093D8
:104EB00000230022642110480EF03AFC03460C4AFD
:104EC00013600B4B1B68002B0BD0094B1C680DF0BB
:104ED000A7F90246002300930023012120460EF08B
:104EE00083FC00BF1437BD4690BD00BF944E02083E
:104EF00044830124754E0008A44E020880B58AB090
:104F000000AFF860B9607A600121B86800F0F6FB84
:104F100078627B6A002B04D12949F86800F02CFBE9
:104F20004AE02848FEF732F9034687F8233097F81D
:104F30002330032B3BD1786AFBF7DCF9F861FB697E
:104F4000102B04D92049F86800F016FB34E003F078
:104F50000DFEB861FB69DBB2FB7507F11702012397
:104F60000021B86903F06AFE0346002B04D01749FC
:104F7000F86800F001FB1FE0FB69002B0ED0FB6915
:104F80009BB27A6A0121B86903F058FE0346002BF0
:104F900004D00F49F86800F0EFFA0DE00D49F86809
:104FA00000F0EAFA0C49F86800F0E6FA04E00B4970
:104FB000F86800F0E1FA00BF2837BD4680BD00BFA9
:104FC000B04E0208704A0124D44E0208FC4E02087A
:104FD000284F02084C4F02089C3F0208704F0208FD
:104FE00080B596B000AFF860B9607A600121B8680A
:104FF00000F084FB78651949F86800F0BDFA7B6D14
:10500000002B0BD11649F86800F0B6FAF86802F0E8
:105010006BF81449F86800F0AFFA16E00A22002194
:10502000786D1CF0ABFE386507F110003B6D0E4A41
:1050300040211CF06FFF07F110031946F86800F0DB
:105040009BFAF968386D02F083F80849F86800F0B7
:1050500093FA00BF5837BD4680BD00BFA04F02087D
:10506000B84F0208C84F0208D84F02089C3F0208F8
:1050700080B584B000AFF860B9607A60FEF794F84C
:1050800080B400AF024B1846BD465DF8047B704704
:10509000385C020880B400AF22231846BD465DF894
:1050A000047B704780B584B000AF78600B46FB701E
:1050B000FB78FB73FB7B19460348FDF711FB00BF30
:1050C0001037BD4680BD00BF0010014080B584B0E0
:1050D00000AF78600B46FB70FB78FB73FB7B1946D7
:1050E0000348FDF7FDFA00BF1037BD4680BD00BF85
:1050F0000044004080B582B000AF00F09FF87860B7
:105100007B68394ADA607B684FF400621A827B68F8
:1051100010229A807B684022DA807B6880221A8184
:105120007B6820225A817B6801229A747B682F4A0F
:105130001A60FFF7A5FF02467B685A61FFF7AAFFD6
:1051400003461A467B681A83786800F0D2F8034653
:10515000274A1360264B1B68002B01D101233EE038
:10516000234B1B68234A1A6000F068F838603B68DC
:10517000214ADA603B684FF400621A823B681022D1
:105180009A803B684022DA803B6880221A813B6823
:1051900020225A813B6801229A743B68174A1A60A0
:1051A000FFF76EFF02463B685A61FFF773FF034645
:1051B0001A463B681A83386800F09BF80346104A89
:1051C00013600F4B1B68002B01D1012307E00C4B30
:1051D0001B680C4A1A600C4B01221A7000231846F7
:1051E0000837BD4680BD00BF48830124EC4F02084C
:1051F00048930124A5500008488B01240050020860
:105200004C930124CD5000085093012480B400AF8A
:10521000034B1B681846BD465DF8047B704700BF12
:105220004893012480B400AF034B1B681846BD4669
:105230005DF8047B704700BF4C93012480B400AF3D
:10524000114B40229A80104B4022DA800E4B802274
:105250001A810D4B0022DA600B4B00221A820A4B96
:1052600008225A81084B01229A74074B074A1A6098
:10527000054B00221A83044B00225A61024B184648
:10528000BD465DF8047B70475493012430500208FA
:1052900080B485B000AF78607B685B69002B02D179
:1052A0007B685B8900E00023FB817B689B8803337C
:1052B0009A087B68DB8803339B081A447B681B8948
:1052C00003339B08D118FA8913465B001344DB00B3
:1052D00003339B08CA18FB8903339B08134412331A
:1052E0009BB29B009BB218461437BD465DF8047B09
:1052F000704780B588B000AF78600023FB617868A4
:10530000FFF7C6FF0346BB610023FB757B68DB68C4
:10531000002B05D07B681B8A1A46BB69934201D9D2
:10532000002371E07B68DB683B61BA690021386962
:105330001CF0B5FE3B69FB613B6910333B61FB69C7
:105340003A69DA603B6938333B61FB69DB68FB60D3
:10535000FB683A691A617B689B88033323F0030377
:105360003A6913443B61FB683A69DA617B68DB8820
:10537000033323F003033A6913443B617B685A69A2
:10538000FB685A627B681A8BFB689A857B681A8B6C
:10539000FB68DA85FB683A695A607B681A89FB68A2
:1053A0001A81FB7D002B08D0FB6893F8333043F063
:1053B0000403DAB2FB6883F833207B689B7C002B04
:1053C00008D0FB6893F8333043F02003DAB2FB686F
:1053D00083F833207B689A88FB681A83FB68002275
:1053E0009A82FB680022DA827B68DA88FB685A843A
:1053F000FB68002283F832207B681A68FB681A6019
:10540000FB6800229A86FB6918462037BD4680BD9E
:1054100080B584B000AF78600B46FB707B68DB68BA
:10542000FB60FB681033FA781146184600F08AFFDB
:10543000034683F00103DBB2002B08D0FB6893F82E
:10544000333043F00103DAB2FB6883F8332000BF46
:105450001037BD4680BD80B584B000AF78607B68F2
:105460001B68002B00F083807B68DB68FB60FB68B7
:1054700093F8333003F00203002B55D1FB6893F807
:10548000333043F00203DAB2FB6883F83320FB6861
:105490001B681946786800F07EFE45E0FB68103313
:1054A000184600F027FF0346FB72FB6893F8333081
:1054B00003F00803002B05D0FB7A1946786800F04A
:1054C000F5F92AE0FB6893F832301B2B0CD1FB7AFC
:1054D0005B2B09D1FB6893F8333043F00803DAB251
:1054E000FB6883F8332018E0FB7A184600F0AAFE28
:1054F0000346002B05D0FB7A1946786800F086FA3F
:105500000BE0FB7A184600F0BDFE0346002B04D0EA
:10551000FB7A1946786800F027FA786800F012FDE7
:10552000FB68FA7A83F83220FB681033184600F0E3
:10553000C0FE0346002BB1D1FB6893F8333003F073
:105540000103002B14D0FB6800221A84FB68DB697E
:10555000FA68128C134400221A70FB6893F83330F7
:1055600023F00103DAB2FB6883F8332000E000BFC8
:105570001037BD4680BD000080B584B000AF7860B4
:1055800039607B681B68002B3ED07B68DB68FB6062
:10559000FB689B8E7B81FB6893F8333003F010032C
:1055A000002B02D1786800F0C1FDFB687A899A86E9
:1055B0003968786800F0EFFD154B1B68194678686C
:1055C00000F0E9FDFB6893F8333003F01003002B83
:1055D0001BD1FB681B681946786800F0DCFDFB688E
:1055E000DB691946786800F0D6FDFB681A8CFB6809
:1055F0001A86FB689B8E00221946786800F0ECFD45
:10560000786800F09FFC00E000BF1037BD4680BD09
:10561000A048012480B588B000AF78607B68002B7B
:1056200066D0354BFB600023FB770023BB7700235C
:10563000BB6100237B6147E07B6901337B61BB7FFA
:10564000002B02D00023BB7729E0FB7C5C2B02D12E
:105650000123BB7738E0FB7C222B10D1FB7F002B92
:1056600014BF01230023DBB283F00103DBB2FB771D
:10567000FB7F03F00103FB770023FB740FE0FB7F4C
:1056800083F00103DBB2002B09D0FB7C1946F868DC
:105690001CF01CFD0346002B01D00023FB74FB7C97
:1056A000002B09D1BB69002B0EDDBB69013B7A6879
:1056B00013441B78002B07D0BB697A681344FA7C2B
:1056C0001A70BB690133BB617B697A6813441B782C
:1056D000FB74FB7C002BAFD1BB697A6813440022BA
:1056E0001A70BB6901337A68134400221A7000E013
:1056F00000BF2037BD4680BD3450020880B584B05D
:1057000000AF78600B467B807B881946786800F094
:1057100020FF0346FB81FB894FF6FF72934203D0C3
:10572000FB897A68134400E0002318461037BD4611
:1057300080BD80B584B000AF78600B467B807B88ED
:105740001946786800F005FF0346FB81FB894FF698
:10575000FF72934203D0FB897A68134400E0002370
:1057600018461037BD4680BD80B485B000AF786064
:105770007B68002B03D07B681B78002B01D10023B2
:1057800019E00023FB6001237B81FB687A681344E6
:105790001B78002B09D1FB6801337A6813441B780E
:1057A000002B06D07B8901337B81FB680133FB60D2
:1057B000EBE700BF7B8918461437BD465DF8047BD4
:1057C0007047000080B586B000AF78600B46FB7074
:1057D0007B68DB683B613B699B89002B5FD0FB7872
:1057E000002B05D03B695A893B699B899A4256D068
:1057F000FB7883F00103DBB2002B03D03B695B89AC
:10580000002B4CD0786800F091FC3B691B6819466E
:10581000786800F0C0FCFB78002B06D03B695B8900
:1058200001339AB23B695A8105E03B695B89013BD0
:105830009AB23B695A813B691A1D3B695B891946DB
:10584000104600F00DFE78617B69002B01D1164BEC
:105850007B617869FAF74EFD0346FB813B69DB69A2
:10586000FA89796918461CF0C4FC3B69DA69FB893E
:10587000134400221A703B69FA891A843B69DB6978
:105880001946786800F087FC3B691A8C3B691A86D8
:105890003B6900229A86786800F054FB00E000BF64
:1058A0001837BD4680BD00BF3850020890B585B09E
:1058B00000AF78600B46FB707B68DB68FB60FB78B1
:1058C0003F2B48D9FB787E2B45D8FB6893F83330C3
:1058D00023F00803DAB2FB6883F83320FB78412B0E
:1058E00002D0FB78422B09D1FB78412B0CBF01235E
:1058F0000023DBB219467868FFF764FFFB78432B7F
:105900000FD1FB689B8E002B0BD0FB689B8E013B5D
:105910009AB2FB689A86124B1B681946786800F0A9
:105920003AFCFB78442B16D1FB689B8E1C46FB6827
:10593000DB691846FAF7DEFC03469C420BD2FB6893
:105940009B8E01339AB2FB689A86064B1B681946F8
:10595000786800F020FC00BF1437BD4690BD00BF42
:10596000A4480124A848012480B584B000AF786021
:105970000B46FB707B68DB68FB60FB681B8C0233AB
:10598000FA68528C93423BDAFB68DB691846FAF7F7
:10599000B1FC0246FB689B8ED31ABB60FB68DA69D8
:1059A000BB680133D018FB68DA69BB68D118FB68A3
:1059B0009B8E01331A461CF058FBFB681B8C01338D
:1059C0009AB2FB681A84FB681B8E01339AB2FB689B
:1059D0001A86FB68DA69BB681344FA781A70FB68A8
:1059E0009B8E002B05D0084B1B681946786800F089
:1059F000D2FB7B681B68FA7811467868984700E00C
:105A000000BF1037BD4680BDB448012480B584B0C6
:105A100000AF78600B46FB707B68DB68FB60FB685F
:105A200093F832300D2B02D1FB780A2B78D0FB682B
:105A300093F832300A2B02D1FB780D2B70D0FB7813
:105A40000D2B02D0FB780A2B29D1786800F0DCFA04
:105A5000354B1B681946786800F09DFBFB681B8C72
:105A6000002B02D0786800F065F8FB6800221A84E9
:105A7000FB68DB69FA68128C134400221A70FB6819
:105A800000221A86FB6800225A81FB6800229A864F
:105A9000FB681B681946786800F07DFB41E0FB78E5
:105AA000082B02D0FB787F2B33D1FB681B8C1A4666
:105AB000FB689B8ED31A002B2BDD1C4B1B681946F1
:105AC000786800F068FB1A4B1B681946786800F08C
:105AD00062FBFB68DB691846FAF70CFC0246FB68C0
