:020000040800F2
:100000000000082481900108398C0108418C010806
:10001000498C0108518C0108598C0108000000002E
:10002000000000000000000000000000713A01081C
:10003000618C010800000000313D0108993D010874
:10004000D5900108D5900108D5900108D5900108F8
:10005000D5900108D5900108D5900108D5900108E8
:10006000D5900108D5900108D5900108718C010840
:10007000CD8C0108D5900108D5900108D5900108D4
:10008000D5900108D5900108D5900108D5900108B8
:10009000D5900108D5900108D5900108D5900108A8
:1000A000D5900108298D0108D5900108D590010847
:1000B000D5900108D5900108D5900108D590010888
:1000C000D5900108D5900108D5900108D590010878
:1000D000D5900108358D01086D8D0108D590010876
:1000E000D5900108D590010800000000D5900108C6
:1000F000D5900108D5900108D5900108A58D01087B
:10010000D5900108ED8D0108D5900108D590010822
:10011000D5900108D5900108D5900108018E0108FD
:10012000D5900108158E0108D5900108D5900108D9
:10013000D5900108D5900108D5900108D590010807
:10014000D5900108D59001080000000000000000D3
:10015000D5900108D5900108D5900108D5900108E7
:10016000D5900108D5900108D5900108D5900108D7
:10017000D5900108D5900108D59001080000000035
:10018000D5900108D5900108718E0108D59001081D
:10019000D5900108A98E0108B78E0108D5900108F5
:1001A000D5900108D5900108D5900108D590010897
:1001B000D5900108D5900108D5900108D590010887
:1001C000D5900108D5900108D5900108D590010877
:1001D000D5900108D5900108D5900108D590010867
:1001E000D5900108D5900108D5900108D590010857
:1001F000D5900108D5900108D5900108D590010847
:10020000D5900108D5900108D5900108D590010836
:10021000D5900108D5900108D5900108D590010826
:10022000D5900108D5900108C58E01080000000096
:10023000D5900108D5900108D5900108D590010806
:10024000D5900108D98E0108E58E0108D5900108E6
:10025000D5900108D5900108D5900108D5900108E6
:10026000D5900108D5900108D5900108D5900108D6
:10027000D5900108D5900108D5900108D5900108C6
:10028000D5900108D5900108D59001080000000024
:08029000D5900108D59001088A
:1002A00010B5054C237833B9044B13B10448AFF3B0
:1002B00000800123237010BD444A01240000000087
:1002C000C82E020808B5034B1BB103490348AFF31E
:1002D000008008BD00000000484A0124C82E020822
:1002E00010F8012B11F8013B012A28BF9A42F7D0E0
:1002F000D01A7047034613F8012B002AFBD1181AB5
:1003000001387047000000000000000000000000FD
:1003100001F0FF01102A2BDB10F0070F08D010F8B6
:10032000013B013A8B422DD010F0070F42B3F6D1BA
:10033000F0B441EA012141EA014122F007047FF0D3
:1003400000070023F0E80256083C85EA010586EA2A
:10035000010685FA47F5A3FA87F586FA47F6A5FA66
:1003600087F68EB9EED1F0BC01F0FF0102F0070272
:1003700032B110F8013B013A83EA010313B1F8D11D
:100380000020704701387047002D06BF35460338FE
:10039000073815F0010F07D1013015F4807F02BF37
:1003A000013015F4C03F0130F0BC0138704700BF88
:1003B00053B94AB9002908BF00281CBF4FF0FF31CC
:1003C0004FF0FF3000F088B9ADF1080C6DE904CEB4
:1003D00000F006F8DDF804E0DDE9022304B0704720
:1003E0002DE9F047089D8E4604468846002B4AD1E9
:1003F0008A42174662D9B2FA82F64EB1C6F120039C
:1004000001FA06F820FA03F3B74043EA0808B440BB
:100410004FEA174E1FFA87FCB8FBFEF1230C0EFBC8
:10042000118843EA084301FB0CF29A4209D9FB18F0
:1004300001F1FF3080F0EA809A4240F2E780023911
:100440003B449A1AA3B2B2FBFEF00EFB102243EA21
:10045000024300FB0CFC9C4509D9FB1800F1FF325C
:1004600080F0D6809C4540F2D3803B44023840EA7D
:100470000140A3EB0C0300211DB1F3400022C5E9AC
:100480000032BDE8F0878B4205D90DB1C5E9000106
:1004900000210846F5E7B3FA83F1002946D17345F8
:1004A00002D3824200F20581841A6EEB030201201E
:1004B0009046002DE5D0C5E90048E2E7002A00F0AB
:1004C0009080B2FA82F6002E40F0A4808A1A030CC3
:1004D0004FEA174E80B2BCB20121B2FBFEFC0EFB0C
:1004E0001C2243EA024304FB0CF29A4207D9FB1890
:1004F0000CF1FF3802D29A4200F2E080C4469B1A07
:10050000B3FBFEF20EFB123340EA034302FB04F49A
:100510009C4207D9FB1802F1FF3002D29C4200F244
:10052000CA8002461B1B42EA0C40A5E7C1F1200627
:100530008B4022FA06F71F430EFA01F420FA06F365
:100540002EFA06FE4FEA1749234300FA01F81FFA74
:1005500087FCBEFBF9F01C0C09FB10EE44EA0E44CC
:1005600000FB0CFEA64502FA01F209D93C1900F184
:10057000FF3A80F09C80A64540F2998002383C44C6
:10058000A4EB0E041FFA83FEB4FBF9F309FB13443A
:100590004EEA044403FB0CFCA44508D93C1903F1C2
:1005A000FF3E80F08280A4457FD9023B3C4443EA71
:1005B0000040A4EB0C04A0FB02EC64457346E1464A
:1005C00062D35FD05DB1B8EB030264EB090404FAB7
:1005D00006F622FA01F31E43CC40C5E9006400216F
:1005E0004FE7B1FBF2FC010C41EA0E4180B240EA58
:1005F00001423B4638463C46B846BE462026B1FB43
:10060000F7F1A2EB080241EA0C4166E7014618E760
:1006100010462CE7C6F120022EFA02F3B740B14093
:1006200020FA02F24FEA174E0A43B3FBFEF8BCB2BF
:100630000EFB1833110C41EA034108FB04F9B040EA
:1006400089454FEA104380B23ED9791808F1FF3C42
:1006500001D289451FD8A1EB0901B1FBFEF909FBC5
:1006600004F80EFB191192B242EA0142424529D226
:10067000BA1809F1FF31C4D24245C2D2A9F1020130
:100680003A44BEE7F0459DD2BEEB02036CEB070C8B
:100690000138E14696E7A7EB09094944A8F1020CA5
:1006A000B1FBFEF909FB04F8DBE773467FE7504630
:1006B00066E70846FDE63B44023A33E7ACF1020C3C
:1006C0003B441CE749469CE7A1EB0901C446B1FB4A
:1006D000FEF909FB04F8C4E7704700BF80B582B09B
:1006E00000AF0123FB711B4B01221A701A4807F05F
:1006F0000BFF102219491A4808F05EF801F0BAFD04
:100700000346FB7107F0F8FF09F07EFB154A022152
:10071000002007F0CBFB134A0021002007F0C6FBA6
:10072000104A0121002007F0C1FB0E4A03210020DE
:1007300007F0BCFB0B4A0421002007F0B7FB094A75
:100740000521002007F0B2FBFB7918460837BD46AB
:1007500080BD00BF604A01240058004000100258CC
:1007600000340140E02E020880B500AF044A0221A7
:10077000002007F09BFB00F0EDF800BF80BD00BF3C
:10078000F42E020880B582B000AF0123FB71114B3B
:1007900002221A70104A0021002007F087FB09F09E
:1007A00009FD0346FB7109F005FD0346002B05D149
:1007B0000A4A0221002007F079FB05E0054AFB798F
:1007C0009370044B07221A70FB7918460837BD4610
:1007D00080BD00BF604A0124082F0208202F0208B4
:1007E00080B582B000AF204B03221A700123FB7149
:1007F0001E4A0021002007F059FB04F043FB03468A
:10080000FB71FB79002B0BD0194A0421012007F062
:100810004DFB154AFB799370134B07221A7004E0C5
:10082000144A0221002007F041FB06F07BFD03463D
:10083000FB71FB79002B0BD00F4A0421012007F03C
:1008400035FB094AFB799370074B07221A7004E0C5
:100850000A4A0221002007F029FB07F027FDFB7957
:1008600018460837BD4680BD604A0124302F020873
:10087000482F0208642F0208802F0208942F0208D4
:1008800080B582B000AF214B04221A700123FB71A6
:100890001F4A0021002007F009FB08F031FE034643
:1008A000FB71FB79002B0BD01A4A0421012007F0C1
:1008B000FDFA164AFB799370144B07221A7004E074
:1008C000154A0221002007F0F1FA102213491448BA
:1008D00008F0DCFA0346FB71FB79002B0BD0114AC0
:1008E0000421012007F0E2FA084AFB799370074BD4
:1008F00007221A7004E00C4A0221002007F0D6FA01
:10090000FB7918460837BD4680BD00BF604A012408
:10091000AC2F0208C42F0208DC2F02080000025886
:1009200000140058F42F02080C30020880B500AF04
:10093000064B05221A70054B06221A70044A002144
:10094000002007F0B3FA0023184680BD604A012456
:100950002430020880B500AF00F0E6F900BF80BD8A
:1009600080B5C2B000AF07F58473A3F58273186039
:1009700007F58473A3F58473196007F58473A3F5F1
:10098000847307F108001B68084A4FF4807121F056
:1009900073F907F1080301221946052007F094FBBB
:1009A00000BF07F58477BD4680BD00BF3C3002081C
:1009B00080B5C0B000AF3B46084A4FF4807118467E
:1009C00021F05AF93B4601221946052007F07CFB2D
:1009D00000BF07F58077BD4680BD00BF58300208D4
:1009E00080B483B000AF786039607B685A693B6837
:1009F00013403A689A4201D1012300E000231846CF
:100A00000C37BD465DF8047B704780B483B000AFFF
:100A1000786039607B683A689A6100BF0C37BD46E0
:100A20005DF8047B704780B483B000AF78603960B4
:100A30003B681A047B689A6100BF0C37BD465DF8BD
:100A4000047B704780B500AF4FF480410648FFF744
:100A5000DCFF4FF400410448FFF7D7FF032000F00C
:100A600005F800BF80BD00BF0014025880B582B0F9
:100A700000AF0346FB71FB79032B37D801A252F874
:100A800023F000BF950A0008AB0A0008C10A00085D
:100A9000D70A00084FF480411C48FFF7C4FF4FF409
:100AA00000411A48FFF7BFFF2BE04FF48041174881
:100AB000FFF7B9FF4FF400411448FFF7A6FF20E00D
:100AC0004FF480411148FFF7A0FF4FF400410F4859
:100AD000FFF7A9FF15E04FF480410C48FFF795FFA1
:100AE0004FF400410948FFF790FF0AE04FF48041BE
:100AF0000648FFF798FF4FF400410448FFF793FFC3
:100B000000BF00BF0837BD4680BD00BF00140258BB
:100B100080B582B000AF4FF480411948FFF760FF05
:100B20000346002B14BF01230023DBB2FB714FF4FB
:100B300000411348FFF754FF0346002B14BF012365
:100B40000023DBB2BB71FB79002B04D1BB79002BF6
:100B500001D1002310E0FB79002B04D1BB79012BDC
:100B600001D1012308E0FB79012B04D1BB79002BD3
:100B700001D1022300E0032318460837BD4680BD9B
:100B80000014025880B483B000AF0346FB71064ADC
:100B9000FB791370054B00221A7000BF0C37BD465D
:100BA0005DF8047B704700BF634A0124644A012456
:100BB00080B400AF034B1B781846BD465DF8047B3C
:100BC000704700BF634A012480B483B000AF03467E
:100BD000FB71FB795C2B06D10E4B1B780133DAB22B
:100BE0000C4B1A7002E00B4B00221A70094B1B7859
:100BF000092B07D9084B00221A70064B00221A70E5
:100C0000012300E0002318460C37BD465DF8047B45
:100C1000704700BF644A0124634A012480B483B052
:100C200000AF78607B68DB6903F04003402B01D1A3
:100C3000012300E0002318460C37BD465DF8047B15
:100C4000704780B483B000AF78607B68DB6903F0E5
:100C50008003802B01D1012300E0002318460C37CC
:100C6000BD465DF8047B704780B483B000AF786008
:100C70000B46FB70FA787B689A6200BF0C37BD4662
:100C80005DF8047B704780B483B000AF7860396052
:100C90007B683A689A6100BF0C37BD465DF8047BFB
:100CA000704780B483B000AF786039603B681A0445
:100CB0007B689A6100BF0C37BD465DF8047B7047C6
:100CC00080B584B000AF0346FB71FB79FB73FB7BFF
:100CD0001946034801F032FC00BF1037BD4680BD05
:100CE0000044004080B582B000AF78600B4A02211A
:100CF000002007F0DBF800F043F80346002B07D094
:100D0000074A0421012007F0D1F8064B02225A704D
:100D1000002010F09BFD00BFFDE700BF703002080F
:100D200084300208684A012480B586B004AF0F4BB6
:100D300002930F4B01930523009300234FF4A0620D
:100D40000C490D4810F0CFFB78607B68002B06D172
:100D50000A4A0521012007F0A9F800BFFDE710F0BD
:100D60001BFF00BF0837BD4680BD00BFC85E012421
:100D7000C84A0124AC300208E50C0008BC30020867
:100D8000F0B5CFB006AF012387F81731FFF7FAFCB3
:100D9000034687F8173197F81731002B05D0C94A59
:100DA0000521012007F082F804E0C74A0021002055
:100DB00007F07CF8FFF714FD034687F8173197F822
:100DC0001731002B05D0C14A0521012007F06EF82C
:100DD00004E0BF4A0021002007F068F8FFF750FD4B
:100DE000034687F8173197F81731002B05D0B94A19
:100DF0000521012007F05AF804E0B74A002100203D
:100E000007F054F8FFF792FD034687F8173197F87B
:100E10001731002B05D0B14A0521012007F046F813
:100E200004E0AF4A0021002007F040F806F02AF95C
:100E300006F08EFD97F81731002B05D0A94A052141
:100E4000012007F033F804E0A74A0021002007F052
:100E50002DF807F59073A3F5887318464FF4807347
:100E60001A46002120F0CDFF0023C7F8103107F10A
:100E70000803184609F00CF8D7F8103107F11002F2
:100E8000D018D7F81031C3F5807107F59073A3F52A
:100E90008C739B789C4607F59073A3F58C735B78F5
:100EA0001A4607F59073A3F58C731B781C4607F55B
:100EB0009073A3F58C73DB781D4607F59073A3F54B
:100EC0008C731B791E4607F59073A3F58C735B79C1
:100ED000049303960295019400926346834A20F09E
:100EE000CBFE0246D7F810311344C7F8103107F58E
:100EF0009073A3F2191300221A7007F59073A3F5EB
:100F00008D7300221A7007F59073A3F21B13002251
:100F10001A707B1DBA1DF91D002009F013F8D7F8CF
:100F2000103107F11002D018D7F81031C3F58071D5
:100F300007F59073A3F219131B781C4607F59073FD
:100F4000A3F58D731B781A4607F59073A3F21B1354
:100F50001B78019300922346654A20F08DFE0246DD
:100F6000D7F810311344C7F81031D7F8103107F112
:100F70001002D018D7F81031C3F580735D4A1946B6
:100F800020F07AFE0246D7F810311344C7F810312A
:100F90000023C7F81C3117E000BF5748FFF751FE88
:100FA0000346002BF9D007F59073A3F58872D7F8A4
:100FB0001C3113441B7819464F48FFF755FED7F8EC
:100FC0001C310133C7F81C3107F59073A3F5887203
:100FD000D7F81C3113441B78002BDDD100BF4648E5
:100FE000FFF71CFE0346002BF9D00023C7F8183189
:100FF00017E000BF4148FFF724FE0346002BF9D05D
:1010000007F59073A3F58872D7F8183113441B784D
:1010100019463A48FFF728FED7F818310133C7F8C8
:10102000183107F59073A3F58872D7F81831134477
:101030001B78002BDDD100BF3048FFF7EFFD0346E2
:10104000002BF9D0002301930223009300234FF4D7
:1010500020622B492B4810F0AAFA0346012B01D03D
:101060000123ECE0002301930123009300234FF4BC
:1010700020622549254810F09AFA0346012B01D039
:101080000123DCE0002301930123009300234FF4AC
:10109000A0621F491F4810F08AFA0346012B01D0B5
:1010A0000123CCE0002301930123009300234FF49C
:1010B00080721949194810F07AFA0346012B2FD093
:1010C0000123BCE0D8300208F83002080C310208D5
:1010D0002C3102083C3102085C3102086C310208F4
:1010E000883102089C310208B0310208BC31020884
:1010F000EC310208083202080010014000440040B0
:101100003C320208097100084C320208E11500085F
:1011100058320208C9820008643202089D12000891
:10112000494801F07DF80346002201920122009215
:101130004FF420624549464810F039FA0346012B26
:1011400001D001237BE0434801F06AF80346002206
:101150000192012200924FF420623F493F4810F073
:1011600026FA0346012B01D0012368E000230193F6
:101170000123009300234FF4A0623949394810F04D
:1011800016FA0346012B01D0012358E000230193F6
:1011900001230093002380223349344810F007FADA
:1011A0000346012B01D0012349E0002301930123D1
:1011B0000093002380222E492E4810F0F8F90346B0
:1011C000012B01D001233AE0002301930123009376
:1011D000002380222849294810F0E9F90346012B11
:1011E00001D001232BE0264801F01AF80346002223
:1011F0000192012200924FF420622249224810F00D
:10120000D6F90346012B01D0012318E000230193F6
:1012100001230093002380221C491D4810F0C7F9C8
:101220000346012B01D0012309E0012010F0B2FB9D
:101230001849194801F022FC05F0CAFC00231846A1
:1012400007F59277BD46F0BD0010014074320208E8
:10125000FD14000800780040843202086114000880
:1012600090320208ED120008A0320208F9150008B9
:10127000A83202082D160008B032020861160008D4
:1012800000440040B832020851130008CC32020872
:10129000A1160008C10C00086C4A012480B582B078
:1012A00000AF786008F0E0FB0D4B1B6801330C4A7F
:1012B00013600B4B1B68B3F5E15F0BD9084B0022A1
:1012C0001A6008F077FF0346002B03D10549064852
:1012D00001F06AF94FF47A7010F05CFBE2E700BFAE
:1012E000245F0124DC3202080010014080B584B084
:1012F00000AF786003F05EFE0346184603F073FF0C
:10130000114801F04FFE0346FB73FB7B032B02D019
:10131000FB7B042B13D10C4B1B6A012B09D103F06F
:101320003DFE03460949184603F0EEFF064B002236
:101330001A6203F033FE0346184603F054FF4FF4DD
:10134000FA7010F027FBD5E76C4A0124F03202084E
:1013500080B586B000AF78607B687B617B695B6E2F
:101360004FF0FF3118460FF057FC0346012B6DD1AB
:1013700062E0FFF71DFC0346FB73FB7B022B15D1DC
:101380003B69DBB21946334801F0D8F83B69DBB260
:101390001846FFF719FC0346002B4DD003F0FEFD65
:1013A00003462D49184603F0AFFF45E0FB7B042BB5
:1013B0001ED13B69DBB21846FFF706FC0346002B43
:1013C00006D003F0EBFD03462349184603F09CFFCB
:1013D00003F0E4FD02463B69DBB21946104603F018
:1013E000DFFE03F0DBFD0346184603F0FCFE23E0BE
:1013F0001A4801F0D7FD0346BB73BB7B032B02D019
:10140000BB7B042B12D1154801F026FB03F0C6FD6F
:1014100002463B69DBB21946104603F0C1FE03F0F9
:10142000BDFD0346184603F0DEFE05E03B69DBB276
:1014300019460A4801F032FC7B691B68184601F026
:1014400095F938613B69B3F1FF3F92D1012010F06B
:10145000A1FA83E700780040F43202086C4A0124C4
:1014600080B586B000AF78607B687B617B695B6E1E
:10147000002118460FF0D0FB0346012B35D12AE09E
:10148000FFF796FB0346FB73FB7B012B06D13B6901
:10149000DBB21946174801F051F81CE0FB7B022B28
:1014A00006D13B69DBB21946134801F047F812E058
:1014B000FB7B032B06D13B69DBB219460D4801F0DB
:1014C0003DF808E0FB7B042B05D13B69DBB21946F4
:1014D000094801F033F87B691B68184601F046F9AA
:1014E00038613B69B3F1FF3FCAD1012010F052FAD5
:1014F000BCE700BF001001400044004080B586B04A
:1015000000AF78607B687B617B695B6E4FF0FF3179
:1015100018460FF081FB0346012B58D14DE0FFF731
:1015200047FB0346FB73FB7B012B15D13B69DBB209
:101530001946294801F002F83B69DBB21846FFF76B
:1015400043FB0346002B38D003F034FD0346234908
:10155000184603F0D9FE30E0FB7B032B1ED13B691C
:10156000DBB21846FFF730FB0346002B06D003F032
:1015700021FD03461949184603F0C6FE03F01AFD83
:1015800002463B69DBB21946104603F009FE03F040
:1015900011FD0346184603F026FE0EE003F00AFD97
:1015A00002463B69DBB21946104603F0F9FD03F031
:1015B00001FD0346184603F016FE7B691B681846BA
:1015C00001F0D4F838613B69B3F1FF3FA7D10120A6
:1015D00010F0E0F998E700BF00780040F43202080C
:1015E00080B582B000AF786006F0E2F9012010F01B
:1015F000D1F900BFF8E7000080B582B000AF786095
:101600004FF480710848FFF74CFB4FF47A7010F0EC
:10161000C1F94FF480710448FFF735FB4FF47A703D
:1016200010F0B8F900BFEBE7000C025880B582B0AB
:1016300000AF78604FF400710848FFF724FB4FF4C7
:101640007A7010F0A7F94FF400710448FFF729FBF6
:101650004FF47A7010F09EF900BFEBE7000C0258CF
:1016600080B592B000AF78600B4B1B785A1CD1B29A
:10167000094A117007F10800084A402120F0FCFADD
:1016800007F10803184605F079FB47F2305010F0D7
:1016900081F900BFE8E700BF285F01242833020872
:1016A00080B582B000AF786007F036F807F050F8E8
:1016B0000346012B03D1C82010F06CF9F4E74FF476
:1016C000167010F067F9EFE780B483B000AF786070
:1016D0007B689B6903F00103012B01D1012300E02A
:1016E000002318460C37BD465DF8047B704780B474
:1016F00083B000AF78607B689B6903F00203022B24
:1017000001D1012300E0002318460C37BD465DF8E7
:10171000047B704780B483B000AF78607B689B69BE
:1017200003F00403042B01D1012300E00023184639
:101730000C37BD465DF8047B704780B483B000AFC2
:1017400078607B689B6903F01003102B01D10123A3
:1017500000E0002318460C37BD465DF8047B704757
:1017600080B483B000AF78607B689B6903F400436A
:10177000B3F5004F01D1012300E0002318460C37D8
:10178000BD465DF8047B704780B483B000AF7860DD
:1017900039607B685B6823F400423B681A437B68CE
:1017A0005A6000BF0C37BD465DF8047B70470000EF
:1017B00080B487B000AFF860B9607A603B60BB6806
:1017C000C3F309027B6803F400631A433B681B04FC
:1017D00003F47F031A433B6A1A437B6A134323F0E3
:1017E00000437B61FB685A687B6A5B0D03F4806190
:1017F000064B0B43DB431A407B691A43FB685A6074
:1018000000BF1C37BD465DF8047B7047FF7BFF03BC
:1018100080B483B000AF78607B685B6ADBB2184647
:101820000C37BD465DF8047B704780B483B000AFD1
:1018300078600B46FB70FA787B689A6200BF0C37C1
:10184000BD465DF8047B704780B588B002AFF86094
:101850007B600B46FB721346BB7208F01FFE3861BB
:101860000DE008F01BFE02463B69D31A0A2B06D98D
:10187000FB681B68184615F083F8022396E0FB68A6
:101880001B681846FFF76CFF0346002BE9D1FB6885
:101890001868FB7A590097F8203001331A46454BF7
:1018A00001934FF00073009313460022FFF780FF6F
:1018B00008F0F4FD386117E0FB681B681846FFF775
:1018C0003CFF0346002B01D001236FE008F0E6FD4A
:1018D00002463B69D31A0A2B06D9FB681B681846D7
:1018E00015F04EF8032361E0FB681B681846FFF70C
:1018F000FEFE0346002BDFD0FB681B68BA7A114658
:101900001846FFF792FF0023FB752FE008F0C6FD95
:10191000386117E0FB681B681846FFF70EFF0346A7
:10192000002B01D0012341E008F0B8FD02463B69DD
:10193000D31A0A2B06D9FB681B68184615F020F845
:10194000032333E0FB681B681846FFF7D0FE03460D
:10195000002BDFD0FB681868FB7D7A6813441B7886
:101960001946FFF762FFFB7D0133FB75FA7D97F89F
:1019700020309A42CAD308F091FD38610DE008F09A
:101980008DFD02463B69D31A0A2B06D9FB681B68FA
:10199000184614F0F5FF032308E0FB681B6818469F
:1019A000FFF792FE0346002BE9D0002318461837B4
:1019B000BD4680BD0020008090B589B002AFF860C0
:1019C0007B600B46FB721346BB7208F067FD386103
:1019D0000DE008F063FD02463B69D31A0A2B06D9D5
:1019E000FB681B68184614F0CBFF0223B8E0FB68C5
:1019F0001B681846FFF7B4FE0346002BE9D1FB68CD
:101A00001868FB7A5900584B019300230093012377
:101A10000022FFF7CDFE08F041FD386117E0FB68BA
:101A20001B681846FFF789FE0346002B01D00123EF
:101A300096E008F033FD02463B69D31A0A2B06D91B
:101A4000FB681B68184614F09BFF032388E0FB68C3
:101A50001B681846FFF74BFE0346002BDFD0FB68E0
:101A60001B68BA7A11461846FFF7DFFE08F016FD2C
:101A7000386117E0FB681B681846FFF75EFE0346F7
:101A8000002B01D001236BE008F008FD02463B6902
:101A9000D31A0A2B06D9FB681B68184614F070FF8E
:101AA00003235DE0FB681B681846FFF70DFE034645
:101AB000002BDFD0FB681B6800211846FFF764FE8F
:101AC000FB681868FB7A5900FB7A5B0043F001035E
:101AD0001C4697F82830254A01924FF00072009278
:101AE0002246FFF765FE08F0D9FC38610023FB753C
:101AF00030E008F0D3FC386117E0FB681B6818463B
:101B0000FFF71BFE0346002B01D0012328E008F05D
:101B1000C5FC02463B69D31A0A2B06D9FB681B6831
:101B2000184614F02DFF03231AE0FB681B681846C3
:101B3000FFF7F0FD0346002BDFD0FB681968FB7D43
:101B40007A68D4180846FFF763FE03462370FB7DCE
:101B50000133FB75FA7D97F828309A42C9D30023E8
:101B600018461C37BD4690BD002000800024008030
:101B700080B584B000AF78600023FB60786800F027
:101B800095F8786800F00BF80346002B02D06FF050
:101B90000303FB60FB6818461037BD4680BD80B567
:101BA00084B000AF78600023FB73786818F01CFAEB
:101BB0000346002B01D00123FB73FB7B1846103733
:101BC000BD4680BD80B586B000AFF860B9607A6070
:101BD0003B603B687A68B968F86818F001FB034617
:101BE000002B03D06FF003037B6101E000237B61D6
:101BF0007B6918461837BD4680BD80B586B000AFFA
:101C0000F860B9607A603B603B687A68B968F868E8
:101C100018F0AAFB0346002B03D06FF003037B618F
:101C200001E000237B617B6918461837BD4680BD03
:101C300080B582B000AF7860786819F0A9F90346E2
:101C4000042B14BF01230023DBB218460837BD461E
:101C500080BD80B584B000AF78603960396878683D
:101C600018F0A6FF0346002B03D06FF00303FB60C0
:101C700001E00023FB60FB6818461037BD4680BDBD
:101C800080B582B000AF786078680EF0ADF800BF24
:101C90000837BD4680BD80B582B000AF78607868F7
:101CA0000EF0CCF800BF0837BD4680BD80B582B0CD
:101CB00000AF7860786816F02DFD00BF0837BD468C
:101CC00080BD80B483B000AF78607B681B6803F090
:101CD0000103012B01D1012300E0002318460C373A
:101CE000BD465DF8047B704780B483B000AF786078
:101CF0007B685B6903F00103012B01D1012300E044
:101D0000002318460C37BD465DF8047B704780B44D
:101D100083B000AF78607B685B6903F48053B3F5F0
:101D2000805F01D1012300E0002318460C37BD4637
:101D30005DF8047B704780B483B000AF78607B6847
:101D400030331B78DBB218460C37BD465DF8047B98
:101D5000704780B483B000AF78600B46FB707B683F
:101D60002033FA781A7000BF0C37BD465DF8047B4B
:101D7000704780B586B000AFF8600B467A60FB72A2
:101D8000F868FFF79EFF0346002B01D1012335E0E1
:101D900008F084FB7861FB7A1946F868FFF7D9FFF1
:101DA00008E008F07BFB02467B69D31A0A2B01D9B5
:101DB000032323E0F868FFF7AAFF0346002BF0D0C7
:101DC00008F06CFB786108E008F068FB02467B696C
:101DD000D31A0A2B01D9032310E0F868FFF784FF18
:101DE0000346002BF0D07B68002B06D0F868FFF785
:101DF000A2FF03461A467B681A700023184618375C
:101E0000BD4680BD80B584B000AF78600B46FB70E6
:101E10007868FFF756FF0346002B01D101231BE032
:101E200008F03CFBF860FB7819467868FFF791FFF3
:101E300008E008F033FB0246FB68D31A0A2B01D9ED
:101E4000032309E07868FFF762FF0346002BF0D018
:101E50007868FFF770FF002318461037BD4680BD35
:101E600080B483B000AF78607B68DB6903F0400327
:101E7000402B01D1012300E0002318460C37BD465A
:101E80005DF8047B704780B483B000AF78607B68F6
:101E9000DB6903F08003802B01D1012300E00023E4
:101EA00018460C37BD465DF8047B704780B489B096
:101EB00000AF78607B68FB60FB6853E8003FBB6065
:101EC000BB6843F01003FB617B68FA69BA617B6110
:101ED0007969BA6941E800233B613B69002BE9D18C
:101EE00000BF00BF2437BD465DF8047B704780B457
:101EF00089B000AF78607B68FB60FB6853E8003F07
:101F0000BB60BB6843F02003FB617B68FA69BA6180
:101F10007B617969BA6941E800233B613B69002B29
:101F2000E9D100BF00BF2437BD465DF8047B704790
:101F300080B489B000AF78607B68FB60FB6853E8D1
:101F4000003FBB60BB6843F08003FB617B68FA69BC
:101F5000BA617B617969BA6941E800233B613B69F9
:101F6000002BE9D100BF00BF2437BD465DF8047BDC
:101F7000704780B489B000AF78607B68FB60FB6815
:101F800053E8003FBB60BB6823F08003FB617B68C4
:101F9000FA69BA617B617969BA6941E800233B61FA
:101FA0003B69002BE9D100BF00BF2437BD465DF877
:101FB000047B704780B483B000AF78607B681B6897
:101FC00003F08003802B01D1012300E00023184699
:101FD0000C37BD465DF8047B704780B489B000AF14
:101FE00078607B680833FB60FB6853E8003FBB60A8
:101FF000BB6843F04003FB617B680833FA69BA6150
:102000007B617969BA6941E800233B613B69002B38
:10201000E7D100BF00BF2437BD465DF8047B7047A1
:1020200080B485B000AF786039603B68002B03D185
:102030007B682833FB6002E07B682433FB60FB682D
:1020400018461437BD465DF8047B704780B483B0F2
:1020500000AF78600B46FB70FA787B689A6200BF2D
:102060000C37BD465DF8047B7047000080B485B036
:1020700000AF786039607B68FB600C4A3B681344B2
:102080001B781A46FB6813441B6808493A680A44DF
:1020900012781146FA680A4443F00103136000BF46
:1020A0001437BD465DF8047B704700BF6C590208C9
:1020B00080B487B000AFF860B9607A60FB687B617C
:1020C0000D4ABB6813441B781A467B6913445A684F
:1020D0000A4B13400849BA680A44127811467A69D3
:1020E0000A4411467A6813434B6000BF1C37BD4653
:1020F0005DF8047B704700BF6C5902080000FFFFC9
:1021000080B485B000AF786039607B68FB60074AB7
:102110003B6813441B781A46FB6813445B689BB208
:1021200018461437BD465DF8047B70476C590208A9
:1021300080B487B000AFF860B9607A60FB687B61FB
:10214000074ABB6813441B781A467B6913441A4636
:102150007B68D36000BF1C37BD465DF8047B7047C9
:102160006C59020880B487B000AFF860B9607A603B
:10217000FB687B61074ABB6813441B781A467B697E
:1021800013441A467B68936000BF1C37BD465DF858
:10219000047B70476C59020880B485B000AF78604A
:1021A00039607B68FB600C4A3B6813441B781A4615
:1021B000FB6813441B6808493A680A4412781146C0
:1021C000FA680A4443F00803136000BF1437BD46A1
:1021D0005DF8047B704700BF6C59020880B485B07D
:1021E00000AF786039607B68FB600C4A3B68134441
:1021F0001B781A46FB6813441B6808493A680A446E
:1022000012781146FA680A4443F01003136000BFC5
:102210001437BD465DF8047B704700BF6C59020857
:1022200080B485B000AF78600023FB6015E01049F2
:10223000FA6813465B019B1A9B000B441B687A6883
:102240009A4207D1FA6813465B019B1A9B00084A21
:10225000134406E0FB680133FB60FB68022BE6DDFC
:10226000002318461437BD465DF8047B704700BF55
:1022700028470124B0B582B002AF4FF480630093C9
:10228000984B994A0121994807F0AFFF4FF48063BA
:102290000093974B974A0221974807F0A6FF032225
:1022A000002101200EF069F90346944A5366934BCE
:1022B0009C6E924BDD6E01219148FFF7B1FE034603
:1022C0001A4629462046FFF74DFF8C4B9B6E8B4AE2
:1022D000D16E8A4AB2F874201846FFF7E9FE874BA0
:1022E0009B6E864AD16E854A126F1846FFF720FF13
:1022F000824B9B6E814AD26E11461846FFF76EFFE5
:102300007E4B9B6E7D4AD26E11461846FFF744FF06
:102310007B48FFF762FE794B9B6E784AD26E11467E
:102320001846FFF7A3FE7648FFF7C0FD7448FFF795
:10233000DEFD4FF480630093724B734A05217348AE
:1023400007F053FF4FF480630093714B714A0621ED
:10235000714807F04AFF0322002101200EF00DF919
:102360000346664AC2F8E030644BD3F8E440634B5E
:10237000D3F8E85001216948FFF752FE03461A4698
:1023800029462046FFF7EEFE5C4BD3F8E4305B4A6B
:10239000D2F8E810594AB2F8F0201846FFF788FE44
:1023A000564BD3F8E430554AD2F8E810534AD2F8E5
:1023B000EC201846FFF7BCFE504BD3F8E4304F4AF0
:1023C000D2F8E82011461846FFF708FF4B4BD3F828
:1023D000E4304A4AD2F8E82011461846FFF7DCFEFE
:1023E0004E48FFF7FAFD454BD3F8E430434AD2F8A4
:1023F000E82011461846FFF739FE4848FFF756FD1A
:102400004648FFF774FD4FF480630093444B454A00
:102410000721454807F0E9FE4FF480630093434BE2
:10242000434A0821434807F0E0FE0322002101202F
:102430000EF0A3F80346314AC2F85C312F4BD3F8B3
:1024400060412E4BD3F8645101213B48FFF7E8FD72
:1024500003461A4629462046FFF784FE274BD3F849
:102460006031264AD2F86411244AB2F86C21184629
:10247000FFF71EFE214BD3F86031204AD2F86411D9
:102480001E4AD2F868211846FFF752FE1B4BD3F8BC
:1024900060311A4AD2F8642111461846FFF79EFEB1
:1024A000164BD3F86031154AD2F86421114618460C
:1024B000FFF772FE2048FFF790FD104BD3F8603114
:1024C0000E4AD2F8642111461846FFF7CFFD1A488C
:1024D000FFF7ECFC1848FFF70AFD00231846BD463D
:1024E000B0BD00BF2C630124403302082C470124F7
:1024F0002C6701244C3302085C470124284701243F
:10250000001001402C6F012458330208A847012411
:102510002C73012464330208D8470124004400408E
:102520002C7B012470330208244801242C7F0124D1
:102530007C330208544801240078004080B584B000
:1025400000AF78600B46FB707868FFF769FEB860F3
:10255000BB68002B1FD0134BFB6005E0FB68013B01
:10256000FB60FB68002B18D0BB683433FA78114647
:10257000184607F06DFE034683F00103DBB2002B23
:10258000ECD17868FFF716FD0346002B06D178687A
:10259000FFF7CEFC02E000BF00E000BF1037BD46F1
:1025A00080BD00BF20A1070080B584B000AF786077
:1025B00039607868FFF734FEF860FB68002B11D0B3
:1025C0003B68002B0ED008E03B681B781946786802
:1025D000FFF7B4FF3B6801333B603B681B78002B7F
:1025E000F2D100E000BF1037BD4680BD80B584B099
:1025F00000AF78607868FFF713FEF860FB68002B87
:1026000020D07868FFF73FFC0346002B1BD078688A
:10261000FFF7D0FC0346002B15D0FB68343307F1DD
:102620000B021146184607F059FE0346002B05D051
:10263000FB7A19467868FFF709FD04E07868FFF730
:1026400098FC00E000BF1037BD4680BD80B58AB061
:1026500000AF78600023BB607868FFF7E1FDB861E8
:10266000BB69002B7CD0BB699B6F7B61BB699A6E99
:10267000BB69DB6E19461046FFF742FD03467B82BD
:10268000BB69B3F874301A467B8AD31AFB60FA68C8
:102690007B699A4256D0FA687B699A4214D97B6961
:1026A0007B620CE0BB69181DBB691A6F7B6A13441F
:1026B0001B78194607F0CCFD7B6A01337B627A6A8E
:1026C000FB689A42EED32AE07B693B620CE0BB696F
:1026D000181DBB691A6F3B6A13441B78194607F033
:1026E000B7FD3B6A01333B62BB69B3F874301A46ED
:1026F0003B6A9342EBD30023FB610CE0BB69181DDE
:10270000BB691A6FFB6913441B78194607F0A0FDDB
:10271000FB690133FB61FA69FB689A42EED3BB693E
:102720005B6E07F10802114618460EF0DBF8BB6835
:10273000002B07D00C4B4FF080521A60BFF34F8F25
:10274000BFF36F8FBB69FA689A67BB699B6FBA6901
:10275000B2F87420934204D1BB6900229A6700E06A
:1027600000BF2837BD4680BD04ED00E080B584B0D1
:1027700000AF78607868FFF753FDF860FB68002BC6
:1027800002D14FF0FF330EE0FB68043307F10B0278
:102790001146184607F0A2FD0346002B01D0FB7A34
:1027A00001E04FF0FF3318461037BD4680BD80B5BD
:1027B00084B000AF78607868FFF732FDF860FB689E
:1027C000002B01D1002305E0FB680433184607F015
:1027D00002FE034618461037BD4680BD80B584B062
:1027E00000AF78607868FFF71BFDF860FB68002B8E
:1027F00001D1002306E0FB683433184607F0AFFD33
:10280000034600BF18461037BD4680BD80B582B074
:1028100000AF78600B46FB7000BF7868FFF733FBB2
:102820000346002BF9D0FB7819467868FFF70EFCB9
:1028300000BF7868FFF714FB0346002BF9D000BFF8
:1028400000BF0837BD4680BD80B582B000AF78605C
:1028500039603B68002B0ED008E03B681B781946B6
:102860007868FFF7D3FF3B6801333B603B681B7818
:10287000002BF2D100E000BF0837BD4680BD00004C
:1028800080B485B000AF78600D4BFB600CE07B68D6
:102890005A1C7A601B781A46FB685340FB60FB6841
:1028A000084A02FB03F3FB607B681B78002BEED128
:1028B000FB6818461437BD465DF8047B704700BFBF
:1028C000C59D1C819301000180B485B000AF786084
:1028D00039607A683B685340FB60FB681B0CFA6800
:1028E0001343FB60FB681B0AFA681343FB60FB6839
:1028F000DBB2002B0CBF01230023DBB218461437D8
:10290000BD465DF8047B704780B584B000AF786049
:102910007868FFF7B5FFF860054BBB60B968F868E9
:10292000FFF7D2FF034618461037BD4680BD00BFF3
:10293000A37B47C580B584B000AF786005F032FF57
:10294000F8600023FB7207F10B0201230021F868F5
:1029500006F01FF80346002B02D1FB7A102B07D993
:102960001549786800F020F9144B01221A6020E024
:10297000FB7A002B16D0FB7A114A0121F86806F089
:1029800008F80346002B05D1FB7A1A460C4B0021B0
:1029900099540EE00849786800F006F9074B0122C7
:1029A0001A6006E00449786800F0FEF8034B012243
:1029B0001A601037BD4680BD883302084083012469
:1029C0002C83012480B584B000AF78600E4B1B6867
:1029D000012B0BD17868FFF753FFF8600B4BBB60FE
:1029E000B968F868FFF770FF034609E0084978689E
:1029F000FDF776FC0346002B01D1012300E0002304
:102A000018461037BD4680BD40830124A37B47C5CF
:102A10002C83012480B582B000AF78607B6893F886
:102A20002830042B10D17B685B6D5A1C7B685A657B
:102A30007B685B6D064A934206D3786800F068F8BD
:102A40000449786800F0B0F800BF0837BD4680BD83
:102A5000E0930400C433020880B483B000AF786010
:102A60007B6893F82830042B02D17B6800225A65DA
:102A700000BF0C37BD465DF8047B704780B582B05F
:102A800000AF786039607B683A689A657B6800229D
:102A90001A627B6800225A627B68002283F8282031
:102AA0007B680022DA627B6800221A657B6800225C
:102AB0005A657B682022002118461FF0A2F97B6826
:102AC00030332022002118461FF09BF90B4978680B
:102AD00000F06AF80A49786800F066F809497868F1
:102AE00000F062F80849786800F05EF807497868F5
:102AF00000F05AF800BF0837BD4680BDF033020829
:102B0000F833020800340208143402081C340208A6
:102B100080B582B000AF78607B6801221A627B6862
:102B200000225A627B68002283F828207B680022FA
:102B3000DA627B6800221A657B6800225A657B682E
:102B40002022002118461FF05CF97B6830332022D8
:102B5000002118461FF055F90D49786800F024F857
:102B60000C49786800F020F80B49786800F01CF8F0
:102B70000A49786800F018F80949786800F014F8F4
:102B80000849786800F010F800BF0837BD4680BDDE
:102B9000F0330208F8330208003402081434020843
:102BA0001C3402082034020880B582B000AF78607F
:102BB000396007E07B689A6D3B68591C39601B7867
:102BC000184690473B681B78002BF3D100BF00BF2D
:102BD0000837BD4680BD000080B582B000AF786088
:102BE0007B6893F82830002B37D17B68244918463E
:102BF000FDF776FB0346002B0BD17B68012283F89F
:102C000028207B680022DA621E497868FFF7CCFF33
:102C100031E07B681C491846FDF762FB0346002B38
:102C20000ED17868FFF786FE7B68022283F82820A1
:102C30007B680022DA6213497868FFF7B5FF1AE073
:102C400012497868FFF7B0FF11497868FFF7ACFFC9
:102C500010497868FFF7A8FF0DE07B6893F82830EB
:102C6000032B04D07B6893F82830042B03D10A4946
:102C70007868FFF799FF00BF0837BD4680BD00BFE9
:102C800038340208403402084C3402085434020834
:102C90001C340208203402088034020880B582B057
:102CA00000AF78600B46FB707B6893F82830012BEF
:102CB00005D07B6893F82830022B40F0ED800A2283
:102CC000FB78934204D00D22FB78934240F0B6800B
:102CD0007B681B6D7A681344002283F830207B6880
:102CE00093F82830012B38D17B6830331846FFF732
:102CF0000BFE0346012B30D17B68032283F828208A
:102D00009A497868FFF750FF99497868FFF74CFFB8
:102D100098497868FFF748FF94497868FFF744FFBF
:102D200095497868FFF740FF94497868FFF73CFFC2
:102D300093497868FFF738FF92497868FFF734FFC6
:102D400091497868FFF730FF8B497868FFF72CFFCF
:102D500086497868FFF728FF6CE07B6893F8283095
:102D6000022B38D17B6830331846FFF72BFE034621
:102D7000012B30D17B68042283F828207B497868B6
:102D8000FFF712FF7A497868FFF70EFF7F497868EE
:102D9000FFF70AFF75497868FFF706FF76497868FC
:102DA000FFF702FF75497868FFF7FEFE74497868FF
:102DB000FFF7FAFE73497868FFF7F6FE7249786804
:102DC000FFF7F2FE6C497868FFF7EEFE6749786816
:102DD000FFF7EAFE2EE07B68DB6A5A1C7B68DA624A
:102DE00062497868FFF7E0FE7B68DB6A0322934262
:102DF00014DB7B68002283F8282065497868FFF798
:102E0000D3FE5A497868FFF7CFFE58497868FFF734
:102E1000CBFE60497868FFF7C7FE0BE05E49786833
:102E2000FFF7C2FE51497868FFF7BEFE5B4978683C
:102E3000FFF7BAFE7B6800221A6592E07F22FB78DA
:102E4000934216D17B681B6D002B40F38A807B6810
:102E50001B6D5A1E7B681A657B689B6D082098471E
:102E60007B689B6D202098477B689B6D0820984766
:102E700077E07B681B6D1E2B73DC7B681B6D591C18
:102E80007A6811657A681344FA7883F830207B6891
:102E90009B6D2A20984764E07B6893F82830032BC9
:102EA00004D07B6893F82830042B04D13C4978681F
:102EB000FFF77AFE56E00A22FB78934203D00D22F8
:102EC000FB7893421CD17B685B6A7A680021D154FD
:102ED0007B685B6A002B0ADD24497868FFF764FE93
:102EE0007868FFF779FE7B6800225A623AE01F4952
:102EF0007868FFF759FE27497868FFF755FE31E0FB
:102F00007F22FB7893421AD17B685B6A002B29DD14
:102F10007B685B6A5A1E7B685A627B685B6A7A6868
:102F20000021D1547B689B6D082098477B689B6D7E
:102F3000202098477B689B6D0820984712E07B68AB
:102F40005B6A1E2B0EDC7B685B6A591C7A685162D7
:102F50007A68F978D1547B689B6DFA781046984767
:102F600000E000BF00BF0837BD4680BD1C3402082A
:102F700090340208FC340208203502084835020863
:102F80007035020898350208C0350208E835020895
:102F90000C36020820340208383602084034020891
:102FA0006036020880B483B000AF78607B6893F825
:102FB000283018460C37BD465DF8047B704700008A
:102FC00080B400AFBFF34F8F00BF064BDB6803F444
:102FD000E0620449044B1343CB60BFF34F8F00BF43
:102FE00000BFFDE700ED00E00400FA0580B483B007
:102FF00000AF786039607B683A689A6100BF0C372F
:10300000BD465DF8047B704780B483B000AF786044
:1030100039603B681A047B689A6100BF0C37BD4673
:103020005DF8047B704780B485B000AF03460A4664
:10303000FB8013467B7141F22103BB817B791BB27C
:103040001B021AB2B7F9063053401BB2FB800023B3
:10305000FB7313E0B7F90630002B09DAB7F9063035
:103060005B001AB2B7F90C3053401BB2FB8002E090
:10307000FB885B00FB80FB7B0133FB73FB7B072B37
:10308000E8D9FB8818461437BD465DF8047B7047C5
:1030900080B586B000AFF860B9607A600121B86889
:1030A00002F0F4F978617B69002B04D13F49F8689C
:1030B00002F02AF976E078691EF0DEFB38613B69A0
:1030C0001E2B6AD801A252F823F000BF4931000834
:1030D000513100085B3100089B3100089B3100082A
:1030E0009B3100089B3100089B3100089B31000890
:1030F0009B310008653100086D310008753100080A
:103100007D3100089B3100089B3100089B3100088D
:103110009B3100089B3100089B3100088531000875
:103120008F3100089B3100089B3100089B3100085B
:103130009B3100089B3100089B3100089B3100083F
:103140009B310008953100081E2004F059FC25E051
:103150004FF4806004F096FC20E04FF4007004F01F
:10316000E1FC1BE0002004F027FD17E0012004F043
:1031700023FD13E0022004F01FFD0FE0032004F004
:103180001BFD0BE04AF6CD3004F058FD06E004F0DC
:10319000A5FD03E004F0DEFD00E000BF0449F8688F
:1031A00002F0B2F81837BD4680BD00BF003D0208EE
:1031B000143D020880B5A8B002AFF860B9607A602B
:1031C0000121B86802F062F9C7F884000221B868EA
:1031D00002F05CF9C7F880000023A7F89630D7F812
:1031E0008430002B03D0D7F88030002B04D1A049C5
:1031F000F86802F089F838E1D7F884001EF03CFB4B
:10320000F86700220021D7F880001EF069FCB8673B
:10321000BB6F002B03D0BB6FB3F5483F0ED907F14E
:1032200010004FF44833934A64211EF025FD07F146
:1032300010031946F86802F067F816E1FDF768FC1C
:103240000346032B1BD0FDF763FC0346022B08D07B
:10325000FDF75EFC0346012B01D1874B02E0874B53
:1032600000E0874B07F11000864A64211EF004FD40
:1032700007F110031946F86802F046F8F5E002205D
:10328000FDF7F4FBFB6F032B6DD0FB6F032B00F3FB
:103290009C80FB6F012B03D0FB6F022B2CD094E0A2
:1032A0000023C7F890301AE0D7F8903087F87530CF
:1032B000D7F89030744A134497F875201A7097F82D
:1032C0007520B7F8963011461846FFF7ACFE034656
:1032D000A7F89630D7F890300133C7F89030D7F878
:1032E0009020BB6F9A42DFD307F11000BB6F674A93
:1032F00064211EF0C1FC70E00023C7F88C3025E08B
:10330000D7F88C10624BA3FB01239A0913465B008C
:1033100013445B01CA1AD3B2203387F87630D7F84A
:103320008C30594A134497F876201A7097F8762013
:10333000B7F8963011461846FFF775FE0346A7F812
:103340009630D7F88C300133C7F88C30D7F88C2002
:10335000BB6F9A42D4D307F11000BB6F4D4A642172
:103360001EF08AFC39E00023C7F8883020E01EF008
:1033700087FA03465A42DBB2D2B258BF534287F8AB
:103380007730D7F88830404A134497F877201A707E
:1033900097F87720B7F8963011461846FFF743FEA6
:1033A0000346A7F89630D7F888300133C7F888303D
:1033B000D7F88820BB6F9A42D9D307F11000BB6FB2
:1033C000354A64211EF058FC07E03449F86801F0E2
:1033D0009BFF0320FDF74AFB47E04FF47A700EF0A5
:1033E000D9FA0120FDF742FB07F110031946F868EE
:1033F00001F08AFF244A244B1B7807F11000009348
:103400001346274A64211EF037FC07F110031946C2
:10341000F86801F079FFBB6F013B1B4A1344194662
:10342000BB6F013B184A13441B7807F1100000934F
:103430000B461C4A64211EF01FFC07F110031946BD
:10344000F86801F061FFB7F8963007F11000164AEE
:1034500064211EF011FC07F110031946F86801F011
:1034600053FF1249F86801F04FFF9837BD4680BD01
:10347000183D0208683D0208903D02089C3D020884
:10348000A43D0208AC3D020800000030D03D020817
:10349000ABAAAAAA003E0208303E0208543E020827
:1034A000843E0208A83E0208C83E0208143D0208F5
:1034B00080B5AAB002AFF860B9607A600121B8683F
:1034C00001F0E4FFC7F884001023C7F88030002320
:1034D000C7F89C300023A7F89A30D7F88430002B27
:1034E00004D18049F86801F00FFFF7E000220021C5
:1034F000D7F884001EF0F4FAF867FB6F002B03D0B6
:10350000FB6FB3F5483F0ED907F114004FF4483371
:10351000754A64211EF0B0FB07F114031946F868E0
:1035200001F0F2FEDAE007F11400FB6F6F4A64214C
:103530001EF0A2FB07F114031946F86801F0E4FE3F
:103540000023C7F89430AEE0D7F8943003F160530D
:1035500007F11400664A64211EF08EFB07F1140384
:103560001846FCF7C7FE024607F114031344C7F8D8
:1035700090300023C7F88C3031E0D7F89420D7F88A
:103580008C30134403F160531B7887F87B3007F1CC
:103590001403D7F89020D31AC3F1640197F87B3055
:1035A000544AD7F890001EF067FBD7F890300333E9
:1035B000C7F89030D7F89C300133C7F89C3097F8A3
:1035C0007B20B7F89A3011461846FFF72CFD0346CA
:1035D000A7F89A30D7F88C300133C7F88C30D7F879
:1035E0008C20D7F880309A4207D2D7F89420D7F8A9
:1035F0008C301344FA6F9A42BFD8D7F890305A1CD7
:10360000C7F8902020221A70D7F890305A1CC7F8BB
:1036100090207C221A700023C7F8883021E0D7F868
:103620009420D7F88830134403F160531B7887F84F
:103630007A3097F87A301F2B06D997F87A307E2B9C
:1036400002D897F87A1000E02E21D7F890305A1C53
:10365000C7F890200A461A70D7F888300133C7F8A7
:103660008830D7F88820D7F880309A4207D2D7F828
:103670009420D7F888301344FA6F9A42CFD8D7F8FD
:10368000903000221A7007F114031946F86801F00F
:103690003BFE01200EF07EF9D7F89420D7F8803059
:1036A0001344C7F89430D7F89420FB6F9A42FFF484
:1036B0004BAFB7F89A3007F114000093D7F89C305D
:1036C0000D4A64211EF0D8FA07F114031946F86870
:1036D00001F01AFE0949F86801F016FEA037BD4650
:1036E00080BD00BFE03E0208683D0208083F0208B6
:1036F000303F02083C3F0208443F0208143D0208E4
:1037000080B5A0B000AFF860B9607A600121B868F8
:1037100001F0BCFEF867FB6F002B04D13449F86858
:1037200001F0F2FD60E03349F86FFCF7D9FD034684
:10373000002B42D1FDF7ECF9034687F87B3097F870
:103740007B30032B2AD801A252F823F05D37000802
:103750006D3700087D3700088D37000807F1140326
:10376000254A642118461EF087FA1FE007F114036A
:10377000224A642118461EF07FFA17E007F114036D
:103780001F4A642118461EF077FA0FE007F1140370
:103790001C4A642118461EF06FFA07E007F1140373
:1037A000194A642118461EF067FA00BF07F1140396
:1037B0001946F86801F0A8FD12E01449F86FFCF70B
:1037C0008FFD0346002B07D10320FDF74FF9104969
:1037D000F86801F099FD03E00E49F86801F094FDE6
:1037E0000D49F86801F090FD8037BD4680BD00BFEF
:1037F0007C3F02089C3F0208A03F0208B43F020839
:10380000CC3F0208E03F0208F43F02082C3B0208CC
:103810000C40020828400208143D020880B5A0B000
:1038200000AFF860B9607A6005F060FEF867FB6F82
:103830001B7D83F00103DBB2002B04D01749F8682D
:1038400001F062FD27E005F09BFF034687F87B301F
:1038500097F87B30002B0DD107F11403104A642137
:1038600018461EF009FA07F114031946F86801F02A
:103870004BFD0CE007F114030A4A642118461EF0C0
:10388000FBF907F114031946F86801F03DFD0649FC
:10389000F86801F039FD8037BD4680BD5840020808
:1038A0007C400208A4400208143D020890B5ABB069
:1038B00004AFF860B9607A600121B86801F0E6FDF4
:1038C000C7F894000221B86801F0E0FDC7F8900045
:1038D000D7F89430002B03D0D7F89030002B04D1C8
:1038E0003449F86801F010FD61E0D7F894001DF04C
:1038F000C3FF034687F88F3000220021D7F89000DD
:103900001EF0EEF8C7F888002B4A97F88F30D7F8EA
:103910008810184605F022FE034687F8873097F88E
:103920008730002B1ED107F11003184605F0B2FEB8
:103930000346002B37D17A693B7C1946BB69B88BAB
:10394000044607F1200002940193009113461B4A9C
:1039500064211EF091F907F120031946F86801F07F
:10396000D3FC20E097F88730022B0ED197F88F30E8
:1039700007F12000124A64211EF07EF907F12003AE
:103980001946F86801F0C0FC0DE097F8873007F1A0
:1039900020000C4A64211EF06FF907F1200319463C
:1039A000F86801F0B1FC0849F86801F0ADFC9C37FB
:1039B000BD4690BDC840020800000030EC4002083F
:1039C0002C4102084C410208143D020880B5A4B005
:1039D00002AFF860B9607A6005F00CFF034687F823
:1039E000873097F88730032B38D801A252F823F09C
:1039F000533A0008153A00080B3A0008013A00084B
:103A00001D49F86801F080FC2DE01C49F86801F0C0
:103A10007BFC28E007F11003184605F03BFE034647
:103A2000002B11D1BB8B1A46BB6907F12000009314
:103A30001346134A64211EF01FF907F120031946AB
:103A4000F86801F061FC0EE00E49F86801F05CFCDA
:103A500009E00D49F86801F057FC04E00B49F868EB
:103A600001F052FC00BF0A49F86801F04DFC00BFAC
:103A70008837BD4680BD00BF7441020880410208FE
:103A80008C410208BC410208E8410208F8410208E2
:103A9000143D020880B5A6B002AFF860B9607A6044
:103AA0000121B86801F0F2FCC7F88400D7F884302F
:103AB000002B04D14349F86801F026FC7FE0002286
:103AC0000021D7F884001EF00BF8C7F88000D7F863
:103AD0008030002B04D0D7F88030B3F5483F0ED9A2
:103AE00007F114004FF44833374A64211EF0C4F83C
:103AF00007F114031946F86801F006FC5FE005F0D1
:103B0000BBF9F867FB6FDB7A83F00103DBB2002BB4
:103B100004D02E49F86801F0F7FB50E0D7F8801088
:103B20004FF0605005F0F4F9034687F87B3097F8C2
:103B30007B30002B31D10023A7F88E300023C7F84B
:103B4000883012E0D7F8883003F160531A78B7F85C
:103B50008E3011461846FFF766FA0346A7F88E30F6
:103B6000D7F888300133C7F88830D7F88820D7F8DD
:103B700080309A42E6D3B7F88E3007F114000093F4
:103B8000D7F88030124A64211EF076F807F114034A
:103B90001946F86801F0B8FB0DE097F87B3007F1A3
:103BA00014000C4A64211EF067F807F1140319464B
:103BB000F86801F0A9FB0849F86801F0A5FB903707
:103BC000BD4680BD08420208683D02083442020832
:103BD0005842020884420208143D020880B588B0A9
:103BE00000AFF860B9607A6007F11403074A0A2150
:103BF00018461EF041F807F114031946F86801F061
:103C000083FB00BF2037BD4680BD00BFA84202082D
:103C1000F0B5B3B006AFF860B9607A600121B8685A
:103C200001F034FCC7F8AC000221B86801F02EFCAA
:103C3000C7F8A8000321B86801F028FCC7F8A40061
:103C40000421B86801F022FCC7F8A0000521B8687B
:103C500001F01CFCC7F89C000621B86801F016FCB6
:103C6000C7F89800D7F8AC30002B13D0D7F8A8309D
:103C7000002B0FD0D7F8A430002B0BD0D7F8A030F2
:103C8000002B07D0D7F89C30002B03D0D7F8983002
:103C9000002B0DD107F11803624A642118461DF06C
:103CA000EBFF07F118031946F86801F02DFBB6E0A9
:103CB000D7F8AC001DF0E0FDC7F89400D7F8A800D5
:103CC0001DF0DAFDC7F89000D7F8A4001DF0D4FD70
:103CD000C7F88C00D7F8A0001DF0CEFDC7F888000B
:103CE000D7F89C001DF0C8FDC7F88400D7F89800ED
:103CF0001DF0C2FDC7F88000D7F89430002B03DB1D
:103D0000D7F89430172B04DD4749F86801F0FCFA26
:103D100085E0D7F89030002B03DBD7F890303B2BB1
:103D200004DD4249F86801F0EFFA78E0D7F88C300A
:103D3000002B03DBD7F88C303B2B04DD3C49F868C3
:103D400001F0E2FA6BE0D7F88830002B03DDD7F8FA
:103D500088301F2B04DD3749F86801F0D5FA5EE0A2
:103D6000D7F88430002B03DDD7F884300C2B04DD2A
:103D70003149F86801F0C8FA51E0D7F88030002BDB
:103D800003DBD7F88030632B04DD2C49F86801F0A1
:103D9000BBFA44E0D7F89430DBB2FB74D7F890302C
:103DA000DBB23B75D7F88C30DBB27B75D7F8883047
:103DB000DBB23B74D7F88430DBB27B74D7F8803049
:103DC000DBB2BB7407F11003184606F077F804F075
:103DD000B9FBF86707F110031946F86F04F008FC07
:103DE000FB7C1E463B7D7A7D397C787C0446B87C22
:103DF000054607F11800049503940291019200937F
:103E000033460F4A64211DF037FF07F118031946A6
:103E1000F86801F079FA0B49F86801F075FAB437DF
:103E2000BD46F0BDB0420208F04202082443020839
:103E3000584302088C430208BC430208F0430208BE
:103E400038440208143D0208F0B5B5B006AFF8607A
:103E5000B9607A600121B86801F018FBC7F8B400B6
:103E6000D7F8B430002B0DD107F14403B94A6421CF
:103E700018461DF001FF07F144031946F86801F0E8
:103E800043FA63E1B449D7F8B400FCF729FA0346D2
:103E9000002B3FD104F056FBC7F8A80007F13C0304
:103EA0001946D7F8A80004F057FB0346002B2CD185
:103EB00007F13A031946D7F8A80004F0DDFB97F89C
:103EC0003F309C4697F8403097F8412097F83C10D7
:103ED00097F83D00044697F83E000546B7F93A00CA
:103EE000064607F144000596049503940291019259
:103EF00000936346994A64211DF0BEFE07F1440316
:103F00001946F86801F000FA1CE19549F86801F0DB
:103F1000FBF917E19349D7F8B400FCF7E1F9034640
:103F2000002B26D107F13403184605F0B1FF97F8AE
:103F300037301E4697F8383097F8392097F8341004
:103F400097F83500044697F83600054607F1440017
:103F5000049503940291019200933346824A6421AE
:103F60001DF08AFE07F144031946F86801F0CCF908
:103F7000E8E07E49D7F8B400FCF7B2F90346002B1D
:103F80002ED100233B63002387F82F30002387F8CE
:103F90002E30002387F82D3007F12D0307F12E0274
:103FA00007F12F0107F1300005F0CCFF97F82F3013
:103FB0001C4697F82E3097F82D20396BC9B207F1BF
:103FC00044000291019200932346694A64211DF046
:103FD00053FE07F144031946F86801F095F9B1E082
:103FE0006449D7F8B400FCF77BF90346002B40F096
:103FF0009C8004F0A7FAC7F8B00007F12403194623
:10400000D7F8B00004F0A8FA0346002B2CD107F132
:1040100012031946D7F8B00004F02EFB97F82730AA
:104020009C4697F8283097F8292097F8241097F89D
:104030002500044697F826000546B7F91200064603
:1040400007F14400059604950394029101920093B0
:104050006346424A64211DF00FFE07F144031946EE
:10406000F86801F051F903E04349F86801F04CF9B0
:1040700007F11C03184605F00BFFFB7F1E4697F85F
:10408000203097F82120397F787F0446B87F054695
:1040900007F1440004950394029101920093334682
:1040A000314A64211DF0E8FD07F144031946F86820
:1040B00001F02AF90023BB610023FB750023BB75C7
:1040C00000237B7507F1150307F1160207F11701AD
:1040D00007F1180005F036FFFB7D1C46BB7D7A7D9D
:1040E000B969C9B207F144000291019200932346D5
:1040F0001F4A64211DF0C0FD07F144031946F8680A
:1041000001F002F905F010FFC7F8AC0007F1440018
:10411000D7F8AC30194A64211DF0AEFD07F1440315
:104120001946F86801F0F0F80CE007F14403144A6E
:10413000642118461DF0A0FD07F144031946F868F4
:1041400001F0E2F80F49F86801F0DEF8BC37BD462F
:10415000F0BD00BF684402088C4402089444020881
:10416000DC440208F8440208004502083C45020805
:1041700044450208784502087C4502089445020837
:10418000A4450208143D0208F0B5A9B006AFF860D6
:10419000B9607A600121B86801F078F9C7F8840045
:1041A000D7F88430002B0DD107F11C032B4A642172
:1041B00018461DF061FD07F11C031946F86801F06F
:1041C000A3F847E000220021D7F884001DF088FC06
:1041D000C7F88000D7F88030214A93420DD807F104
:1041E0001C00204B204A64211DF046FD07F11C03F2
:1041F0001946F86801F088F82CE0D7F8800005F03F
:1042000073FED7F88020194B134407F114021146AE
:10421000184605F0A1FBFB7D1E463B7E7A7E397D6C
:10422000787D0446B87D054607F11C00049503948B
:1042300002910192009333460D4A64211DF01CFD4A
:1042400007F11C031946F86801F05EF80949F8689F
:1042500001F05AF88C37BD46F0BD00BFD4450208C6
:104260007F436D3880436D38F045020880BC92C7AB
:1042700038440208143D020880B5A4B002AFF860CB
:10428000B9607A600121B86801F000F9C7F88400CC
:104290000221B86801F0FAF8C7F88000D7F8843036
:1042A000002B03D0D7F88030002B0DD107F1140379
:1042B000254A642118461DF0DFFC07F11403194656
:1042C000F86801F021F83CE000220021D7F88400D2
:1042D0001DF08EFB0346A7F87E3000220021D7F8A0
:1042E00080001DF085FB0346DBB2FB7404F05AFA34
:1042F000B867B7F87E1007F113020123B86F04F016
:10430000B9FA0346002B0AD1B7F87E30FA7C07F1E0
:10431000140000920D4A64211DF0AEFC07E0B7F8CE
:104320007E3007F114000A4A64211DF0A5FC07F154
:1043300014031946F86800F0E7FF0649F86800F032
:10434000E3FF8837BD4680BD1046020834460208A8
:1043500054460208143D020880B5A4B002AFF860CC
:10436000B9607A600121B86801F090F8C7F884005C
:10437000D7F88430002B0DD107F11803224A6421AD
:1043800018461DF079FC07F118031946F86800F08B
:10439000BBFF35E000220021D7F884001DF028FB88
:1043A0000346A7F882300023FB7504F0FBF9F86799
:1043B000B7F8821007F117020123F86F04F0E9FA49
:1043C0000346002B0AD1B7F88230FA7D07F11800B6
:1043D00000920E4A64211DF04FFC07E0B7F88230CE
:1043E00007F118000A4A64211DF046FC07F1180382
:1043F0001946F86800F088FF0649F86800F084FF65
:104400008837BD4680BD00BF704602088C46020852
:10441000AC460208143D020880B584B000AFF860D5
:10442000B9607A60F86803F065F90449F86800F04B
:104430006BFF00BF1037BD4680BD00BF143D0208B2
:1044400080B586B000AFF860B9607A6002F0F6FD22
:104450000D49F86800F058FF02F064FF0346FB7551
:10446000FB7D002B04D00949F86800F04DFF03E004
:104470000749F86800F048FF0649F86800F044FF73
:1044800000BF1837BD4680BDC8460208E046020896
:10449000F4460208143D020880B584B000AFF8600D
:1044A000B9607A6002F0DCFD0549F86800F02CFF85
:1044B0000449F86800F028FF00BF1037BD4680BDF2
:1044C00010470208143D020880B5A6B000AFF8609E
:1044D000B9607A600121B86800F0D8FFC7F894008D
:1044E0000221B86800F0D2FFC7F89000D7F89430E6
:1044F000002B03D0D7F89030002B04D11149F86875
:1045000000F002FF1BE0D7F89020D7F89410F8686D
:1045100003F004F80346002B0DD107F11000D7F883
:104520009430094A80211DF0A7FB07F110031946BA
:10453000F86800F0E9FE0549F86800F0E5FE9837F4
:10454000BD4680BD2847020848470208143D0208BE
:1045500080B5A8B000AFF860B9607A600121B86892
:1045600000F094FFC7F89C000221B86800F08EFFAD
:10457000C7F89800D7F89C30002B03D0D7F89830B4
:10458000002B04D11C49F86800F0BEFE31E0D7F8DA
:104590009800FBF7AFFEC7F89400D7F89430B3F556
:1045A000005F04D91549F86800F0AEFE21E0D7F8A5
:1045B0009420D7F89810D7F89C0002F00BFE034621
:1045C000002B0ED107F11400D7F89C300C4A802143
:1045D0001DF052FB07F114031946F86800F094FE31
:1045E00003E00849F86800F08FFE0749F86800F01A
:1045F0008BFEA037BD4680BD2847020860470208F1
:10460000484702087C470208143D020880B586B07E
:1046100000AFF860B9607A600121B86800F036FF39
:1046200078617B69002B04D10749F86800F06CFEC3
:1046300007E07969F86802F097FE0449F86800F02D
:1046400063FE1837BD4680BD94470208143D02083A
:1046500080B584B000AFF860B9607A6080210B4803
:10466000FEF7D2FC64200DF095F980210748FEF793
:10467000BDFC0749F86800F047FE0649F86800F0FD
:1046800043FE00BF1037BD4680BD00BF0018025872
:10469000AC470208143D020880B584B000AFF86052
:1046A000B9607A604FF480710748FEF7ADFC0749A6
:1046B000F86800F029FE0649F86800F025FE00BF02
:1046C0001037BD4680BD00BF00180258C847020819
:1046D000143D020880B584B000AFF860B9607A601C
:1046E0004FF480710748FEF781FC0749F86800F035
:1046F0000BFE0649F86800F007FE00BF1037BD4604
:1047000080BD00BF00180258F0470208143D02089F
:1047100080B586B000AFF860B9607A600121B868F2
:1047200000F0B4FE78617B69002B04D11E49F86863
:1047300000F0EAFD35E01D497869FBF7D1FD03463D
:10474000002B07D11A49F86800F0DEFD0120FCF7C4
:1047500019FA22E017497869FBF7C2FD0346002BDE
:1047600007D11549F86800F0CFFD0220FCF70AFADE
:1047700013E012497869FBF7B3FD0346002B07D11C
:104780000F49F86800F0C0FD0020FCF7FBF904E0D9
:104790000C49F86800F0B8FD03E00B49F86800F038
:1047A000B3FD1837BD4680BD184802083C480208D2
:1047B000404802087048020874480208A4480208E9
:1047C000AC480208E0480208143D020880B586B0F3
:1047D00000AFF860B9607A600121B86800F056FE59
:1047E00078617B69002B04D11E49F86800F08CFDCC
:1047F00034E01D497869FBF773FD0346002B07D1B0
:104800000320FCF7BFF91949F86800F07DFD21E0AD
:1048100017497869FBF764FD0346002B07D1042094
:10482000FCF7B0F91349F86800F06EFD12E0124988
:104830007869FBF755FD0346002B07D10020FCF7F4
:10484000A1F90E49F86800F05FFD03E00C49F86833
:1048500000F05AFD0B49F86800F056FD1837BD46C8
:1048600080BD00BF184902083C48020838490208C8
:104870007048020880490208C0490208C449020879
:10488000F4490208143D020880B588B000AFF86012
:10489000B9607A600121B86800F0F8FDB861BB69C1
:1048A000002B04D11649F86800F02EFD25E0B86908
:1048B000FBF720FD78610D211248FDF73FFE002334
:1048C000FB610AE0BA69FB6913441B7819460D487D
:1048D000FDF734FEFB690133FB61FA697B699A429B
:1048E000F0D30D210748FDF729FE0749F86800F0CD
:1048F0000BFD0649F86800F007FD2037BD4680BD76
:10490000284A020800780040444A0208143D020880
:1049100080B584B000AF78607B68FB600349F868BD
:1049200000F0F2FC00BF1037BD4680BD644A0208AB
:1049300080B584B000AF78607B68FB600349F8689D
:1049400000F0E2FC00BF1037BD4680BD744A02088B
:1049500080B584B000AF78607B68FB600349F8687D
:1049600000F0D2FC00BF1037BD4680BD844A02086B
:1049700080B588B004AFF860B9607A600023019315
:10498000FB680093164B00220A21022005F0A6FBCB
:1049900001230293FB680193124B009300231E2214
:1049A00014210A2005F0FAFA02230093FB680E4A4C
:1049B0000021142005F048FB0C49F86800F0A4FC25
:1049C0000B49F86800F0A0FC0A49F86800F09CFC6C
:1049D0000949F86800F098FC00BF1037BD4680BD5B
:1049E000114900083149000851490008984A020855
:1049F000BC4A0208DC4A0208143D020890B5ADF238
:104A00000C4D04AF07F57E73A3F57B73186007F5B3
:104A10007E73A3F57C73196007F57E73A3F57D7330
:104A20001A601423C7F8EC330DF026FAC7F8E80330
:104A300007F11400D7F8E833734A4FF480711DF082
:104A40001BF907F1140207F57E73A3F57B7311467A
:104A5000186800F059FC07F58A730022D7F8EC13A8
:104A600018460DF015FAC7F8E403D7F8E433002B25
:104A700010D107F57E73A3F57B736449186800F0C5
:104A800043FC07F57E73A3F57B736149186800F05A
:104A90003BFCB4E007F11400D7F8E4335D4A4FF46F
:104AA00080711DF0E9F807F1140207F57E73A3F594
:104AB0007B731146186800F027FC07F57E73A3F599
:104AC0007B735549186800F01FFC07F57E73A3F54A
:104AD0007B735249186800F017FC0023C7F8F433C1
:104AE00077E007F57E73A3F53971D7F8F423134601
:104AF000DB0013449B000B440C331B78042B21D8A0
:104B000001A252F823F000BF1D4B0008254B0008FE
:104B10002D4B0008354B00083D4B0008404BC7F8B3
:104B2000F03313E03F4BC7F8F0330FE03E4BC7F8CC
:104B3000F0330BE03D4BC7F8F03307E03C4BC7F8D0
:104B4000F03303E03B4BC7F8F03300BF07F57E734B
:104B5000A3F53971D7F8F4231346DB0013449B0007
:104B60000B4404331C6807F57E73A3F53971D7F83D
:104B7000F4231346DB0013449B000B4410331968E5
:104B800007F57E73A3F53970D7F8F4231346DB00DD
:104B900013449B00034420331B6807F11400029365
:104BA0000191D7F8F03300932346234A4FF48071E4
:104BB0001DF062F807F1140207F57E73A3F57B730D
:104BC0001146186800F0A0FBD7F8F4330133C7F89A
:104BD000F433D7F8F423D7F8E4339A4281D307F5B6
:104BE0007E73A3F57B730D49186800F08DFB07F504
:104BF0007E73A3F57B730649186800F085FB07F503
:104C00007F77BD4690BD00BFF84A0208184B0208E6
:104C1000143D02083C4B0208504B0208804B02082E
:104C2000AC4B0208B44B0208BC4B0208C44B020850
:104C3000CC4B0208D44B0208DC4B020880B582B092
:104C400000AF78600348FDF763FF00BF0837BD463B
:104C500080BD00BF6C4A012490B587B002AFF860F8
:104C6000B9607A601349F86800F04EFB124B1B687C
:104C7000002B0AD1114B009300230022642110481D
:104C80000EF072FB03460C4A13600B4B1B68002BA3
:104C90000BD0094B1C680DF0DFF80246002300938F
:104CA0000023012120460EF0BBFB00BF1437BD4698
:104CB00090BD00BFF44B0208448301243D4C000822
:104CC000044C020880B58AB000AFF860B9607A6021
:104CD0000121B86800F0DAFB78627B6A002B04D10E
:104CE0002949F86800F010FB4AE02848FEF75AF915
:104CF000034687F8233097F82330032B3BD1786A9B
:104D0000FBF7F8FAF861FB69102B04D92049F86821
:104D100000F0FAFA34E003F045FDB861FB69DBB25C
:104D2000FB7507F1170201230021B86903F0A2FD0A
:104D30000346002B04D01749F86800F0E5FA1FE09D
:104D4000FB69002B0ED0FB699BB27A6A0121B8691E
:104D500003F090FD0346002B04D00F49F86800F0E3
:104D6000D3FA0DE00D49F86800F0CEFA0C49F86866
:104D700000F0CAFA04E00B49F86800F0C5FA00BF79
:104D80002837BD4680BD00BF104C02086C4A012484
:104D9000344C02085C4C0208884C0208AC4C0208F7
:104DA000143D0208D04C020880B586B000AFF86010
:104DB000B9607A600121B86800F068FB78617B69AE
:104DC000002B03D1F86802F057F809E00A2200210D
:104DD00078691CF085FE3861F968386902F080F85E
:104DE0000549F86800F090FA0449F86800F08CFA78
:104DF00000BF1837BD4680BD004D0208143D0208B3
:104E000080B584B000AFF860B9607A60FEF7D8F87A
:104E100080B400AF024B1846BD465DF8047B704776
:104E20007459020880B400AF22231846BD465DF8CD
:104E3000047B704780B584B000AF78600B46FB7090
:104E4000FB78FB73FB7B19460348FDF777FB00BF3C
:104E50001037BD4680BD00BF0044004080B584B01F
:104E600000AF78600B46FB70FB78FB73FB7B194649
:104E70000348FDF763FB00BF1037BD4680BD00BF90
:104E80000010014080B582B000AF00F09FF878605C
:104E90007B68394ADA607B684FF400621A827B686B
:104EA00010229A807B684022DA807B6880221A81F7
:104EB0007B6820225A817B6801229A747B682F4A82
:104EC0001A60FFF7A5FF02467B685A61FFF7AAFF49
:104ED00003461A467B681A83786800F0D2F80346C6
:104EE000274A1360264B1B68002B01D101233EE0AB
:104EF000234B1B68234A1A6000F068F838603B684F
:104F0000214ADA603B684FF400621A823B68102243
:104F10009A803B684022DA803B6880221A813B6895
:104F200020225A813B6801229A743B68174A1A6012
:104F3000FFF76EFF02463B685A61FFF773FF0346B7
:104F40001A463B681A83386800F09BF80346104AFB
:104F500013600F4B1B68002B01D1012307E00C4BA2
:104F60001B680C4A1A600C4B01221A700023184669
:104F70000837BD4680BD00BF488301241C4D020890
:104F800048930124354E0008488B0124304D020817
:104F90004C9301245D4E00085093012480B400AF6F
:104FA000034B1B681846BD465DF8047B704700BF85
:104FB0004893012480B400AF034B1B681846BD46DC
:104FC0005DF8047B704700BF4C93012480B400AFB0
:104FD000114B40229A80104B4022DA800E4B8022E7
:104FE0001A810D4B0022DA600B4B00221A820A4B09
:104FF00008225A81084B01229A74074B074A1A600B
:10500000054B00221A83044B00225A61024B1846BA
:10501000BD465DF8047B704754930124604D02083F
:1050200080B485B000AF78607B685B69002B02D1EB
:105030007B685B8900E00023FB817B689B880333EE
:105040009A087B68DB8803339B081A447B681B89BA
:1050500003339B08D118FA8913465B001344DB0025
:1050600003339B08CA18FB8903339B08134412338C
:105070009BB29B009BB218461437BD465DF8047B7B
:10508000704780B588B000AF78600023FB61786816
:10509000FFF7C6FF0346BB610023FB757B68DB6837
:1050A000002B05D07B681B8A1A46BB69934201D945
:1050B000002371E07B68DB683B61BA6900213869D5
:1050C0001CF09FFE3B69FB613B6910333B61FB6950
:1050D0003A69DA603B6938333B61FB69DB68FB6046
:1050E000FB683A691A617B689B88033323F00303EA
:1050F0003A6913443B61FB683A69DA617B68DB8893
:10510000033323F003033A6913443B617B685A6914
:10511000FB685A627B681A8BFB689A857B681A8BDE
:10512000FB68DA85FB683A695A607B681A89FB6814
:105130001A81FB7D002B08D0FB6893F8333043F0D5
:105140000403DAB2FB6883F833207B689B7C002B76
:1051500008D0FB6893F8333043F02003DAB2FB68E1
:1051600083F833207B689A88FB681A83FB680022E7
:105170009A82FB680022DA827B68DA88FB685A84AC
:10518000FB68002283F832207B681A68FB681A608B
:10519000FB6800229A86FB6918462037BD4680BD11
:1051A00080B584B000AF78600B46FB707B68DB682D
:1051B000FB60FB681033FA781146184600F08AFF4E
:1051C000034683F00103DBB2002B08D0FB6893F8A1
:1051D000333043F00103DAB2FB6883F8332000BFB9
:1051E0001037BD4680BD80B584B000AF78607B6865
:1051F0001B68002B00F083807B68DB68FB60FB682A
:1052000093F8333003F00203002B55D1FB6893F879
:10521000333043F00203DAB2FB6883F83320FB68D3
:105220001B681946786800F07EFE45E0FB68103385
:10523000184600F027FF0346FB72FB6893F83330F3
:1052400003F00803002B05D0FB7A1946786800F0BC
:10525000F5F92AE0FB6893F832301B2B0CD1FB7A6E
:105260005B2B09D1FB6893F8333043F00803DAB2C3
:10527000FB6883F8332018E0FB7A184600F0AAFE9A
:105280000346002B05D0FB7A1946786800F086FAB1
:105290000BE0FB7A184600F0BDFE0346002B04D05D
:1052A000FB7A1946786800F027FA786800F012FD5A
:1052B000FB68FA7A83F83220FB681033184600F056
:1052C000C0FE0346002BB1D1FB6893F8333003F0E6
:1052D0000103002B14D0FB6800221A84FB68DB69F1
:1052E000FA68128C134400221A70FB6893F833306A
:1052F00023F00103DAB2FB6883F8332000E000BF3B
:105300001037BD4680BD000080B584B000AF786026
:1053100039607B681B68002B3ED07B68DB68FB60D4
:10532000FB689B8E7B81FB6893F8333003F010039E
:10533000002B02D1786800F0C1FDFB687A899A865B
:105340003968786800F0EFFD154B1B6819467868DE
:1053500000F0E9FDFB6893F8333003F01003002BF5
:105360001BD1FB681B681946786800F0DCFDFB6800
:10537000DB691946786800F0D6FDFB681A8CFB687B
:105380001A86FB689B8E00221946786800F0ECFDB7
:10539000786800F09FFC00E000BF1037BD4680BD7C
:1053A0009C48012480B588B000AF78607B68002BF2
:1053B00066D0354BFB600023FB770023BB770023CF
:1053C000BB6100237B6147E07B6901337B61BB7F6D
:1053D000002B02D00023BB7729E0FB7C5C2B02D1A1
:1053E0000123BB7738E0FB7C222B10D1FB7F002B05
:1053F00014BF01230023DBB283F00103DBB2FB7790
:10540000FB7F03F00103FB770023FB740FE0FB7FBE
:1054100083F00103DBB2002B09D0FB7C1946F8684E
:105420001CF006FD0346002B01D00023FB74FB7C1F
:10543000002B09D1BB69002B0EDDBB69013B7A68EB
:1054400013441B78002B07D0BB697A681344FA7C9D
:105450001A70BB690133BB617B697A6813441B789E
:10546000FB74FB7C002BAFD1BB697A68134400222C
:105470001A70BB6901337A68134400221A7000E085
:1054800000BF2037BD4680BD644D020880B584B0A2
:1054900000AF78600B467B807B881946786800F007
:1054A00020FF0346FB81FB894FF6FF72934203D036
:1054B000FB897A68134400E0002318461037BD4684
:1054C00080BD80B584B000AF78600B467B807B8860
:1054D0001946786800F005FF0346FB81FB894FF60B
:1054E000FF72934203D0FB897A68134400E00023E3
:1054F00018461037BD4680BD80B485B000AF7860D7
:105500007B68002B03D07B681B78002B01D1002324
:1055100019E00023FB6001237B81FB687A68134458
:105520001B78002B09D1FB6801337A6813441B7880
:10553000002B06D07B8901337B81FB680133FB6044
:10554000EBE700BF7B8918461437BD465DF8047B46
:105550007047000080B586B000AF78600B46FB70E6
:105560007B68DB683B613B699B89002B5FD0FB78E4
:10557000002B05D03B695A893B699B899A4256D0DA
:10558000FB7883F00103DBB2002B03D03B695B891E
:10559000002B4CD0786800F091FC3B691B681946E1
:1055A000786800F0C0FCFB78002B06D03B695B8973
:1055B00001339AB23B695A8105E03B695B89013B43
:1055C0009AB23B695A813B691A1D3B695B8919464E
:1055D000104600F00DFE78617B69002B01D1164B5F
:1055E0007B617869FAF786FE0346FB813B69DB69DC
:1055F000FA89796918461CF0AEFC3B69DA69FB89C7
:10560000134400221A703B69FA891A843B69DB69EA
:105610001946786800F087FC3B691A8C3B691A864A
:105620003B6900229A86786800F054FB00E000BFD6
:105630001837BD4680BD00BF684D020890B585B0E3
:1056400000AF78600B46FB707B68DB68FB60FB7823
:105650003F2B48D9FB787E2B45D8FB6893F8333035
:1056600023F00803DAB2FB6883F83320FB78412B80
:1056700002D0FB78422B09D1FB78412B0CBF0123D0
:105680000023DBB219467868FFF764FFFB78432BF1
:105690000FD1FB689B8E002B0BD0FB689B8E013BD0
:1056A0009AB2FB689A86124B1B681946786800F01C
:1056B0003AFCFB78442B16D1FB689B8E1C46FB689A
:1056C000DB691846FAF716FE03469C420BD2FB68CC
:1056D0009B8E01339AB2FB689A86064B1B6819466B
:1056E000786800F020FC00BF1437BD4690BD00BFB5
:1056F000A0480124A448012480B584B000AF78609C
:105700000B46FB707B68DB68FB60FB681B8C02331D
:10571000FA68528C93423BDAFB68DB691846FAF769
:10572000E9FD0246FB689B8ED31ABB60FB68DA6911
:10573000BB680133D018FB68DA69BB68D118FB6815
:105740009B8E01331A461CF042FBFB681B8C013315
:105750009AB2FB681A84FB681B8E01339AB2FB680D
:105760001A86FB68DA69BB681344FA781A70FB681A
:105770009B8E002B05D0084B1B681946786800F0FB
:10578000D2FB7B681B68FA7811467868984700E07E
:1057900000BF1037BD4680BDB048012480B584B03D
:1057A00000AF78600B46FB707B68DB68FB60FB68D2
:1057B00093F832300D2B02D1FB780A2B78D0FB689E
:1057C00093F832300A2B02D1FB780D2B70D0FB7886
:1057D0000D2B02D0FB780A2B29D1786800F0DCFA77
:1057E000354B1B681946786800F09DFBFB681B8CE5
:1057F000002B02D0786800F065F8FB6800221A845C
:10580000FB68DB69FA68128C134400221A70FB688B
:1058100000221A86FB6800225A81FB6800229A86C1
:10582000FB681B681946786800F07DFB41E0FB7857
:10583000082B02D0FB787F2B33D1FB681B8C1A46D8
:10584000FB689B8ED31A002B2BDD1C4B1B68194663
:10585000786800F068FB1A4B1B681946786800F0FE
:1058600062FBFB68DB691846FAF744FD0246FB68F9
:105870009B8ED31ABB60FB68DA69BB68013BD0180A
:10588000FB68DA69BB68D118FB689B8E01331A4646
:105890001CF09DFAFB681B8C013B9AB2FB681A84D2
:1058A00007E0FB78092B04D1786800F075FA00E076
:1058B00000BF1037BD4680BD9C480124A448012488
:1058C000B448012490B58FB000AF78607B68DB6886
:1058D000BB61012387F8373000233B630DE0BB69D0
:1058E000DA693B6B13441B78202B03D0002387F825
:1058F000373008E03B6B01333B63BB691B8C1A46B6
:105900003B6B9342EBDB97F83730002B40F0FA808B
:10591000BB691A1DBB69DB691946104600F004FC1F
:105920000023FB620023BB62002387F8273000239B
:105930003B6230E0BB69DA693B6A13441B78FB7554
:10594000FB7D202B0FD1BB6A002B05D1BB69DA6927
:105950003B6A134400221A70FB6A002B18D0012303
:1059600087F8273014E0FB6A002B05D1BB69DA69A0
:105970003B6A1344FB620BE0BB6A002B08D197F82B
:105980002730002B04D0BB69DA693B6A1344BB6241
:105990003B6A01333B62BB691B8C1A463B6A9342EC
:1059A000C8DBBB69DA69BB691B8C01331344002275
:1059B0001A70FB6A002B00F0A7800023FB6172E0E5
:1059C000BB69596AFA6913465B001344DB000B4458
:1059D0005B681946F86AFAF783FC0346002B5FD12F
:1059E000BB69596AFA6913465B001344DB000B4438
:1059F0005B69002B5ED0BB69596AFA6913465B008C
:105A00001344DB000B441B7B002B02D0B86AFFF76A
:105A1000C9FCBB6993F8333043F01003DAB2BB69B9
:105A200083F83320BB6A002B1AD03949B86AFAF7D9
:105A300057FC0346002B06D03649B86AFAF750FCEB
:105A40000346002B0CD1BB69596AFA6913465B0007
:105A50001344DB000B441946786800F05DF815E04C
:105A6000BB69596AFA6913465B001344DB000B44B7
:105A70005C69BB69596AFA6913465B001344DB0031
:105A80000B441B691A46B96A7868A047BB6993F84A
:105A9000333023F01003DAB2BB6983F8332034E0EB
:105AA000FB690133FB61BB699B8D1A46FB6993421D
:105AB00086DB00E000BF7B685B68002B1DD0FB6AC3
:105AC000FB60BB6A3B61BB6993F8333043F0100362
:105AD000DAB2BB6983F833207B685B6807F10C029C
