:020000040800F2
:100000000000082445430208853E02088D3E020890
:10001000953E02089D3E0208A53E02080000000031
:10002000000000000000000000000000D1C4010832
:10003000AD3E02080000000091C70108F9C70108A1
:100040009943020899430208994302089943020818
:100050009943020899430208994302089943020808
:10006000994302089943020899430208BD3E0208D9
:10007000413F020899430208994302089943020844
:1000800099430208994302089943020899430208D8
:1000900099430208994302089943020899430208C8
:1000A00099430208C53F0208994302089943020890
:1000B00099430208994302089943020899430208A8
:1000C0009943020899430208994302089943020898
:1000D00099430208D13F02080940020899430208E7
:1000E000994302089943020800000000994302085E
:1000F00099430208994302089943020841400208C3
:10010000994302088940020899430208994302086A
:100110009943020899430208994302089D40020846
:1001200099430208B1400208994302089943020822
:100130009943020899430208994302089943020827
:1001400099430208994302080000000000000000E3
:100150009943020899430208994302089943020807
:1001600099430208994302089943020899430208F7
:1001700099430208994302089943020800000000CD
:10018000994302089943020835410208994302083D
:10019000994302086D4102087B4102089943020815
:1001A00099430208994302089943020899430208B7
:1001B00099430208994302089943020899430208A7
:1001C0009943020899430208994302089943020897
:1001D0009943020899430208994302089943020887
:1001E0009943020899430208994302089943020877
:1001F0009943020899430208994302089943020867
:100200009943020899430208994302089943020856
:100210009943020899430208994302089943020846
:10022000994302089943020889410208000000002E
:100230009943020899430208994302089943020826
:10024000994302089D410208A94102089943020806
:100250009943020899430208994302089943020806
:1002600099430208994302089943020899430208F6
:1002700099430208994302089943020899430208E6
:1002800099430208994302089943020800000000BC
:0802900099430208994302089A
:1002A00010B5054C237833B9044B13B10448AFF3B0
:1002B00000800123237010BDE80700240000000027
:1002C00090E9020808B5034B1BB103490348AFF39B
:1002D000008008BD00000000EC07002490E902083F
:1002E00010F8012B11F8013B012A28BF9A42F7D0E0
:1002F000D01A7047034613F8012B002AFBD1181AB5
:1003000001387047000000000000000000000000FD
:1003100001F0FF01102A2BDB10F0070F08D010F8B6
:10032000013B013A8B422DD010F0070F42B3F6D1BA
:10033000F0B441EA012141EA014122F007047FF0D3
:1003400000070023F0E80256083C85EA010586EA2A
:10035000010685FA47F5A3FA87F586FA47F6A5FA66
:1003600087F68EB9EED1F0BC01F0FF0102F0070272
:1003700032B110F8013B013A83EA010313B1F8D11D
:100380000020704701387047002D06BF35460338FE
:10039000073815F0010F07D1013015F4807F02BF37
:1003A000013015F4C03F0130F0BC0138704700BF88
:1003B00053B94AB9002908BF00281CBF4FF0FF31CC
:1003C0004FF0FF3000F088B9ADF1080C6DE904CEB4
:1003D00000F006F8DDF804E0DDE9022304B0704720
:1003E0002DE9F047089D8E4604468846002B4AD1E9
:1003F0008A42174662D9B2FA82F64EB1C6F120039C
:1004000001FA06F820FA03F3B74043EA0808B440BB
:100410004FEA174E1FFA87FCB8FBFEF1230C0EFBC8
:10042000118843EA084301FB0CF29A4209D9FB18F0
:1004300001F1FF3080F0EA809A4240F2E780023911
:100440003B449A1AA3B2B2FBFEF00EFB102243EA21
:10045000024300FB0CFC9C4509D9FB1800F1FF325C
:1004600080F0D6809C4540F2D3803B44023840EA7D
:100470000140A3EB0C0300211DB1F3400022C5E9AC
:100480000032BDE8F0878B4205D90DB1C5E9000106
:1004900000210846F5E7B3FA83F1002946D17345F8
:1004A00002D3824200F20581841A6EEB030201201E
:1004B0009046002DE5D0C5E90048E2E7002A00F0AB
:1004C0009080B2FA82F6002E40F0A4808A1A030CC3
:1004D0004FEA174E80B2BCB20121B2FBFEFC0EFB0C
:1004E0001C2243EA024304FB0CF29A4207D9FB1890
:1004F0000CF1FF3802D29A4200F2E080C4469B1A07
:10050000B3FBFEF20EFB123340EA034302FB04F49A
:100510009C4207D9FB1802F1FF3002D29C4200F244
:10052000CA8002461B1B42EA0C40A5E7C1F1200627
:100530008B4022FA06F71F430EFA01F420FA06F365
:100540002EFA06FE4FEA1749234300FA01F81FFA74
:1005500087FCBEFBF9F01C0C09FB10EE44EA0E44CC
:1005600000FB0CFEA64502FA01F209D93C1900F184
:10057000FF3A80F09C80A64540F2998002383C44C6
:10058000A4EB0E041FFA83FEB4FBF9F309FB13443A
:100590004EEA044403FB0CFCA44508D93C1903F1C2
:1005A000FF3E80F08280A4457FD9023B3C4443EA71
:1005B0000040A4EB0C04A0FB02EC64457346E1464A
:1005C00062D35FD05DB1B8EB030264EB090404FAB7
:1005D00006F622FA01F31E43CC40C5E9006400216F
:1005E0004FE7B1FBF2FC010C41EA0E4180B240EA58
:1005F00001423B4638463C46B846BE462026B1FB43
:10060000F7F1A2EB080241EA0C4166E7014618E760
:1006100010462CE7C6F120022EFA02F3B740B14093
:1006200020FA02F24FEA174E0A43B3FBFEF8BCB2BF
:100630000EFB1833110C41EA034108FB04F9B040EA
:1006400089454FEA104380B23ED9791808F1FF3C42
:1006500001D289451FD8A1EB0901B1FBFEF909FBC5
:1006600004F80EFB191192B242EA0142424529D226
:10067000BA1809F1FF31C4D24245C2D2A9F1020130
:100680003A44BEE7F0459DD2BEEB02036CEB070C8B
:100690000138E14696E7A7EB09094944A8F1020CA5
:1006A000B1FBFEF909FB04F8DBE773467FE7504630
:1006B00066E70846FDE63B44023A33E7ACF1020C3C
:1006C0003B441CE749469CE7A1EB0901C446B1FB4A
:1006D000FEF909FB04F8C4E7704700BF80B582B09B
:1006E00000AF0123FB711C4B01221A701B480EF056
:1006F000F3FB10221A491B480EF046FD01F02AFFB9
:100700000346FB710EF0E0FC10F050F8002001F001
:10071000C3FC154A022100200EF012F9124A0021F2
:1007200000200EF00DF9104A012100200EF008F90A
:100730000D4A032100200EF003F90B4A042100208A
:100740000EF0FEF8084A052100200EF0F9F8FB79BA
:1007500018460837BD4680BD0408002400580040F4
:100760000010025800340140A8E9020880B500AF2B
:10077000044A022100200EF0E3F800F00BF900BF5C
:1007800080BD00BFBCE90208B0B588B004AF01234A
:10079000FB73204B02221A701F4A002100200EF02A
:1007A000CFF81CF0CBFD1CF0D1FB1CF0A1FE10F02B
:1007B000C7F80346FB7310F0C3F80346002B1DD1A6
:1007C000164A022100200DF0ADFF3B1D184610F027
:1007D00031F8BB7903F5FA63BB813B791C467B7921
:1007E0001D46BB89FA79397A787A02900191009294
:1007F0002A4621461A201CF0ADFD05E0054AFB7B88
:100800009370044B07221A70FB7B18461037BD46C5
:10081000B0BD00BF04080024D0E90208E8E90208DE
:1008200080B582B000AF204B03221A700123FB7108
:100830001E4A002100200EF083F805F049FC034613
:10084000FB71FB79002B0BD0194A042101200DF01C
:1008500069FF154AFB799370134B07221A7004E065
:10086000144A022100200DF05DFF07F07BFD0346D6
:10087000FB71FB79002B0BD00F4A042101200DF0F6
:1008800051FF094AFB799370074B07221A7004E065
:100890000A4A022100200DF045FF0EF0EFF9FB7926
:1008A00018460837BD4680BD04080024F8E9020850
:1008B00010EA02082CEA020848EA02085CEA020888
:1008C00080B582B000AF214B04221A700123FB7166
:1008D0001F4A002100200EF033F80FF0EFFA034614
:1008E000FB71FB79002B0BD01A4A042101200DF07B
:1008F00019FF164AFB799370144B07221A7004E013
:10090000154A022100200DF00DFF10221349144852
:100910000EF0A4FF0346FB71FB79002B0BD0114AAC
:10092000042101200DF0FEFE084AFB799370074B6D
:1009300007221A7004E00C4A022100200DF0F2FE9A
:10094000FB7918460837BD4680BD00BF0408002467
:1009500074EA02088CEA0208A4EA020800000258BD
:1009600000140058BCEA0208D4EA020880B500AFBF
:10097000064B05221A70054B06221A70044A002104
:1009800000200DF0DDFF0023184680BD0408002480
:10099000ECEA020880B500AF00F07CF900BF80BD32
:1009A00080B5C2B000AF07F58473A3F582731860F9
:1009B00007F58473A3F58473196007F58473A3F5B1
:1009C000847307F108001B68084A4FF480712CF00B
:1009D000B9FA07F108030122194605200EF054F870
:1009E00000BF07F58477BD4680BD00BF04EB020859
:1009F00080B5C0B000AF3B46084A4FF4807118463E
:100A00002CF0A0FA3B460122194605200EF03CF8D6
:100A100000BF07F58077BD4680BD00BF20EB020810
:100A200080B500AF032000F003F800BF80BD0000D8
:100A300080B483B000AF0346FB71FB79032B0BD866
:100A400001A252F823F000BF590A0008590A000811
:100A5000590A0008590A000800BF00BF0C37BD46FC
:100A60005DF8047B704700BF80B400AF03231846D5
:100A7000BD465DF8047B704780B483B000AF034689
:100A8000FB71064AFB791370054B00221A7000BFF8
:100A90000C37BD465DF8047B704700BF0708002493
:100AA0000808002480B400AF034B1B781846BD46ED
:100AB0005DF8047B704700BF0708002480B483B052
:100AC00000AF0346FB71FB795C2B06D10E4B1B7804
:100AD0000133DAB20C4B1A7002E00B4B00221A7091
:100AE000094B1B78092B07D9084B00221A70064BBB
:100AF00000221A70012300E0002318460C37BD467F
:100B00005DF8047B704700BF080800240708002434
:100B100080B483B000AF78607B68DB6903F040038A
:100B2000402B01D1012300E0002318460C37BD46BD
:100B30005DF8047B704780B483B000AF78607B6859
:100B4000DB6903F08003802B01D1012300E0002347
:100B500018460C37BD465DF8047B704780B483B0FF
:100B600000AF78600B46FB70FA787B689A6200BF32
:100B70000C37BD465DF8047B704780B483B000AF8E
:100B8000786039607B681A693B6813403A689A421A
:100B900001D1012300E0002318460C37BD465DF863
:100BA000047B704780B483B000AF786039607B68A5
:100BB0003A689A6100BF0C37BD465DF8047B704708
:100BC00080B483B000AF786039603B681A047B68FA
:100BD0009A6100BF0C37BD465DF8047B704700008A
:100BE00080B584B000AF0346FB71FB79FB73FB7BE0
:100BF0001946034801F064FE00BF1037BD4680BDB2
:100C00000010014080B584B000AF78600023FB6025
:100C100014E00E4AFB6852F8333079681846FFF743
:100C20005FFB0346002B06D1084AFB68DB00134438
:100C300001221A7106E0FB680133FB60FB68022B9E
:100C4000E7DD00BF00BF1037BD4680BDA80400240B
:100C500080B582B000AF78600B4A022100200DF011
:100C60006FFE00F043F80346002B07D0074A04212B
:100C700001200DF057FD064B02225A70002019F09A
:100C80006BFC00BFFDE700BF48EB02085CEB02080D
:100C90000C08002480B586B004AF0F4B02930F4BB5
:100CA00001930523009300234FF4A0620C490D48E3
:100CB00019F09FFA78607B68002B06D10A4A05215B
:100CC00001200DF02FFD00BFFDE719F073FE00BFFE
:100CD0000837BD4680BD00BF7C3000247C1C00244A
:100CE00084EB0208510C000894EB0208F0B5CFB079
:100CF00006AF012387F81731FFF746FD034687F853
:100D0000173197F81731002B05D0CC4A0521012067
:100D10000DF008FD04E0CA4A002100200DF002FD9C
:100D2000FFF77EFD034687F8173197F81731002B40
:100D300005D0C44A052101200DF0F4FC04E0C24AAC
:100D4000002100200DF0EEFCFFF7BAFD034687F806
:100D5000173197F81731002B05D0BC4A0521012027
:100D60000DF0E0FC04E0BA4A002100200DF0DAFCAE
:100D7000FFF7FCFD034687F8173197F81731002B72
:100D800005D0B44A052101200DF0CCFC04E0B24AA4
:100D9000002100200DF0C6FC07F030FA07F018FF24
:100DA00097F81731002B05D0AC4A052101200DF032
:100DB000B9FC04E0AA4A002100200DF0B3FC07F5BD
:100DC0009073A3F5887318464FF480731A46002178
:100DD0002CF0E8F90023C7F8103107F10803184692
:100DE0000FF028FDD7F8103107F11002D018D7F80E
:100DF0001031C3F5807107F59073A3F58C739B7860
:100E00009C4607F59073A3F58C735B781A4607F53B
:100E10009073A3F58C731B781C4607F59073A3F5AC
:100E20008C73DB781D4607F59073A3F58C731B79E3
:100E30001E4607F59073A3F58C735B7904930396B4
:100E40000295019400926346864A2CF07BF8024694
:100E5000D7F810311344C7F8103107F59073A3F297
:100E6000191300221A7007F59073A3F58D730022F1
:100E70001A7007F59073A3F21B1300221A707B1DE2
:100E8000BA1DF91D00200FF02FFDD7F8103107F122
:100E90001002D018D7F81031C3F5807107F59073A0
:100EA000A3F219131B781C4607F59073A3F58D73F5
:100EB0001B781A4607F59073A3F21B131B78019356
:100EC00000922346684A2CF03DF80246D7F81031CC
:100ED0001344C7F81031D7F8103107F11002D018B9
:100EE000D7F81031C3F58073604A19462CF02AF800
:100EF0000246D7F810311344C7F810310023C7F861
:100F00001C3117E000BF5A48FFF715FE0346002BBF
:100F1000F9D007F59073A3F58872D7F81C31134404
:100F20001B7819465248FFF719FED7F81C310133D8
:100F3000C7F81C3107F59073A3F58872D7F81C31F8
:100F400013441B78002BDDD100BF4948FFF7E0FDBB
:100F50000346002BF9D00023C7F8183117E000BF73
:100F60004448FFF7E8FD0346002BF9D007F59073DE
:100F7000A3F58872D7F8183113441B7819463D48F9
:100F8000FFF7ECFDD7F818310133C7F8183107F532
:100F90009073A3F58872D7F8183113441B78002B8F
:100FA000DDD100BF3348FFF7B3FD0346002BF9D076
:100FB0000AF0ECF830481FF029FC002301930123CC
:100FC000009300234FF420622C492D4819F075F945
:100FD0000346012B01D0012361E10023019301238A
:100FE000009300234FF420622649274819F065F941
:100FF0000346012B01D0012351E10023019301237A
:10100000009300234FF4A0622049214819F055F9BC
:101010000346012B01D0012341E100230193012369
:10102000009300234FF420721A491B4819F045F928
:101030000346012B32D0012331E100BFB0EB02089F
:10104000D0EB0208E4EB020804EC020814EC0208FE
:1010500034EC020844EC020860EC020874EC02086C
:1010600088EC020894EC0208C4EC0208E0EC0208E8
:1010700000100140004400406C08002414ED0208F8
:101080009D16000820ED02085116000830ED0208F8
:1010900099EC00083CED020835130008824801F085
:1010A0002FFA034600220192012200924FF420629F
:1010B0007E497F4819F001F90346012B01D0012335
:1010C000EDE07C4801F01CFA034600220192012267
:1010D00000924FF420627849784819F0EEF8034600
:1010E000012B01D00123DAE00023019301230093B7
:1010F00000234FF4A0627249724819F0DEF80346EB
:10110000012B01D00123CAE00023019301230093A6
:10111000002380226C496D4819F0CFF80346012B5B
:1011200001D00123BBE0002301930123009300239E
:1011300080226749674819F0C0F80346012B01D0A7
:101140000123ACE0002301930123009300234FF41B
:1011500020626149614819F0B0F80346012B01D0C3
:1011600001239CE0002301930123009300234FF40B
:1011700020625B495B4819F0A0F80346012B01D0BF
:1011800001238CE0002301930123009300234FF4FB
:1011900020625549554819F090F80346012B01D0BB
:1011A00001237CE0524801F0ABF903460022019292
:1011B000012200924FF420624E494F4819F07DF809
:1011C0000346012B01D0012369E000230193012391
:1011D000009300234FF420724849494819F06DF8F4
:1011E0000346012B01D0012359E000230193012381
:1011F000009300234FF480724249434819F05DF890
:101200000346012B01D0012349E000230193012370
:10121000009300234FF480723C493D4819F04DF88B
:101220000346012B01D0012339E000230193012360
:10123000009300234FF4A0623649374819F03DF877
:101240000346012B01D0012329E000230193012350
:10125000009300234FF480723049314819F02DF883
:101260000346012B01D0012319E000230193012340
:10127000009300234FF420722A492B4819F01DF8DF
:101280000346012B01D0012309E0012019F090FA57
:101290002649274801F0E2FD06F074FD00231846B8
:1012A00007F59277BD46F0BD004400404CED0208C2
:1012B000C5150008007800405CED0208E91400083C
:1012C00068ED02088113000878ED0208C9160008CD
:1012D00080ED0208FD16000888ED020869BB0008D1
:1012E00090ED020855BD000898ED0208E9BE00081F
:1012F00000100140A0ED0208D9130008B4ED020867
:1013000031170008C0ED02084D170008D4ED02089F
:10131000D1170008E8ED02087DC00008FCED0208C6
:10132000091800080CEE0208F5C10008E10B0008DE
:101330001008002480B582B000AF78600FF066F826
:101340000D4B1B6801330C4A13600B4B1B68B3F544
:10135000E15F0CD9084B00221A600FF0F1FA034646
:10136000002B04D10022054902200DF08DFB4FF423
:101370007A7019F01DFAE1E7C404002420EE020897
:1013800080B584B000AF7860114801F0FBFF0346E0
:10139000FB73FB7B032B02D0FB7B042B13D10C4B89
:1013A0001B6A012B09D104F0DFFE034609491846E8
:1013B00005F084F8064B00221A6204F0D5FE0346BD
:1013C000184604F0EAFF642019F0F2F9DCE700BFE8
:1013D0001008002430EE020880B586B000AF7860B7
:1013E0007B687B617B695B6E4FF0FF31184618F0BC
:1013F00099FA0346012B6DD162E0FFF753FB0346D8
:10140000FB73FB7B022B15D13B69DBB219463348DA
:1014100001F056FA3B69DBB21846FFF74FFB034673
:10142000002B4DD004F0A0FE03462D49184605F0D0
:1014300045F845E0FB7B042B1ED13B69DBB2184627
:10144000FFF73CFB0346002B06D004F08DFE03465D
:101450002349184605F032F804F086FE02463B693F
:10146000DBB21946104604F075FF04F07DFE03461A
:10147000184604F092FF23E01A4801F083FF034668
:10148000BB73BB7B032B02D0BB7B042B12D1154853
:1014900001F0D2FC04F068FE02463B69DBB219465B
:1014A000104604F057FF04F05FFE0346184604F0B0
:1014B00074FF05E03B69DBB219460A4801F0DEFD26
:1014C0007B691B68184601F035FB38613B69B3F155
:1014D000FF3F92D1012019F06BF983E700780040BB
:1014E00034EE02081008002480B588B000AF7860A0
:1014F0007B68FB61FB695B6E0021184618F012FAED
:101500000346012B56D1FFF7CDFA0346FB76FB7E4F
:10151000012B11D105E0BB68DBB21946274801F069
:10152000CFF9FB691B68184601F004FBB860BB6883
:10153000B3F1FF3FEFD13DE0FB7E022B11D105E07F
:10154000FB68DBB219461E4801F0BAF9FB691B685B
:10155000184601F0EFFAF860FB68B3F1FF3FEFD1F6
:1015600028E0FB7E032B11D105E03B69DBB2194675
:10157000124801F0A5F9FB691B68184601F0DAFA78
:1015800038613B69B3F1FF3FEFD113E0FB7E042BE1
:1015900010D105E07B69DBB21946094801F090F9EA
:1015A000FB691B68184601F0C5FA78617B69B3F1E5
:1015B000FF3FEFD1012019F0FBF89BE7004400400A
:1015C0000010014080B586B000AF78607B687B6119
:1015D0007B695B6E4FF0FF31184618F0A3F90346A4
:1015E000012B2CD1FFF75EFA0346FB74FB7C012B29
:1015F00011D105E0BB68DBB21946134801F060F970
:101600007B691B68184601F095FAB860BB68B3F1B6
:10161000FF3FEFD113E0FB7C032B10D105E0FB680B
:10162000DBB21946094801F04BF97B691B68184683
:1016300001F080FAF860FB68B3F1FF3FEFD10120C1
:1016400019F0B6F8C4E700BF00780040004400403D
:1016500080B584B000AF78600D48FFF7D3FAFFF78C
:1016600021FA0346FB73FB7B002B0CD1094801F0E8
:1016700082FA0346002B03D007481FF0F1FB02E07B
:1016800005481FF0EDFB012019F092F8E4E700BFD8
:101690003CEB0208004400406C08002480B584B094
:1016A00000AF78600748FFF7ADFAFFF7FBF9034694
:1016B000FB73FB7B002B01D107F0BCFA012019F072
:1016C00077F8EFE738EB020880B582B000AF7860BA
:1016D0004FF480710848FFF773FA4FF47A7019F0ED
:1016E00067F84FF480710448FFF75CFA4FF47A70A2
:1016F00019F05EF800BFEBE7000C025880B582B02D
:1017000000AF78604FF400710848FFF74BFA4FF4D0
:101710007A7019F04DF84FF400710448FFF750FA51
:101720004FF47A7019F044F800BFEBE7000C025850
:1017300080B582B000AF78600348FFF763FA642099
:1017400019F036F800BFF7E744EB020880B586B021
:1017500000AF786001237B6100233B6110E0194AF0
:101760003B69DB0013441B79002B06D100237B610E
:101770000022154903200DF087F93B6901333B61D5
:101780003B69022BEBDD7B69002B03D00F4B012261
:101790001A7002E00D4B00221A700023FB6008E073
:1017A000084AFB68DB00134400221A71FB6801330E
:1017B000FB60FB68022BF3DD4FF4FA7018F0F8FFC2
:1017C000C8E700BFA804002480EE0208C00400247B
:1017D00080B582B000AF78600A4B1B78DBB2002B7B
:1017E00001D00DF081FC0DF09BFC0346012B03D1D1
:1017F000C82018F0DDFFEFE74FF4167018F0D8FF9F
:10180000EAE700BFC004002480B588B000AF78606C
:101810004FF480612848FFF7B0F90346002B0CBF56
:1018200001230023DBB2FB7719F024FAB8610AF038
:101830008FF90346002B03D1642018F0B9FF39E07B
:101840004FF480611C48FFF798F90346002B0CBF4A
:1018500001230023DBB2FB7519F00CFA3861FA7D25
:10186000FB7F9A4204D0FB7DFB773B69BB611EE0A6
:101870003A69BB69D31AFB60FB7D002B0BD0FB6878
:10188000632B08D907F0FEF90120FFF7F5F80020D7
:101890000AF044F90BE0FB7D002B08D1FB68632BB9
:1018A00005D90020FFF7E8F800200AF037F90A20F0
:1018B00018F07EFFBBE700BF0010025880B483B071
:1018C00000AF78607B689B6903F00103012B01D1B5
:1018D000012300E0002318460C37BD465DF8047B69
:1018E000704780B483B000AF78607B689B6903F079
:1018F0000203022B01D1012300E0002318460C371C
:10190000BD465DF8047B704780B483B000AF78605B
:101910007B689B6903F00403042B01D1012300E0E1
:10192000002318460C37BD465DF8047B704780B431
:1019300083B000AF78607B689B6903F01003102BC5
:1019400001D1012300E0002318460C37BD465DF8A5
:10195000047B704780B483B000AF78607B689B697C
:1019600003F40043B3F5004F01D1012300E000234D
:1019700018460C37BD465DF8047B704780B483B0D1
:1019800000AF786039607B685B6823F400423B6895
:101990001A437B685A6000BF0C37BD465DF8047B74
:1019A0007047000080B487B000AFF860B9607A601B
:1019B0003B60BB68C3F309027B6803F400631A430E
:1019C0003B681B0403F47F031A433B6A1A437B6A98
:1019D000134323F000437B61FB685A687B6A5B0D0D
:1019E00003F48061064B0B43DB431A407B691A43C7
:1019F000FB685A6000BF1C37BD465DF8047B70472A
:101A0000FF7BFF0380B483B000AF78607B685B6AC4
:101A1000DBB218460C37BD465DF8047B704780B4D6
:101A200083B000AF78600B46FB70FA787B689A62EF
:101A300000BF0C37BD465DF8047B704780B588B0A9
:101A400002AFF8607B600B46FB721346BB720FF06F
:101A5000EBF838610DE00FF0E7F802463B69D31A66
:101A60000A2B06D9FB681B68184620F07BF9022375
:101A700096E0FB681B681846FFF76CFF0346002BD7
:101A8000E9D1FB681868FB7A590097F820300133D8
:101A90001A46454B01934FF0007300931346002202
:101AA000FFF780FF0FF0C0F8386117E0FB681B6894
:101AB0001846FFF73CFF0346002B01D001236FE0DF
:101AC0000FF0B2F802463B69D31A0A2B06D9FB681D
:101AD0001B68184620F046F9032361E0FB681B6889
:101AE0001846FFF7FEFE0346002BDFD0FB681B689D
:101AF000BA7A11461846FFF792FF0023FB752FE0D4
:101B00000FF092F8386117E0FB681B681846FFF782
:101B10000EFF0346002B01D0012341E00FF084F8B3
:101B200002463B69D31A0A2B06D9FB681B68184684
:101B300020F018F9032333E0FB681B681846FFF711
:101B4000D0FE0346002BDFD0FB681868FB7D7A6867
:101B500013441B781946FFF762FFFB7D0133FB75C9
:101B6000FA7D97F820309A42CAD30FF05DF83861B9
:101B70000DE00FF059F802463B69D31A0A2B06D93B
:101B8000FB681B68184620F0EDF8032308E0FB68AB
:101B90001B681846FFF792FE0346002BE9D000238E
:101BA00018461837BD4680BD0020008090B589B02A
:101BB00002AFF8607B600B46FB721346BB720FF0FE
:101BC00033F838610DE00FF02FF802463B69D31A65
:101BD0000A2B06D9FB681B68184620F0C3F80223BD
:101BE000B8E0FB681B681846FFF7B4FE0346002BFD
:101BF000E9D1FB681868FB7A5900584B0193002320
:101C0000009301230022FFF7CDFE0FF00DF838619D
:101C100017E0FB681B681846FFF789FE0346002B98
:101C200001D0012396E00EF0FFFF02463B69D31A74
:101C30000A2B06D9FB681B68184620F093F803238B
:101C400088E0FB681B681846FFF74BFE0346002B35
:101C5000DFD0FB681B68BA7A11461846FFF7DFFE33
:101C60000EF0E2FF386117E0FB681B681846FFF7CB
:101C70005EFE0346002B01D001236BE00EF0D4FF83
:101C800002463B69D31A0A2B06D9FB681B68184623
:101C900020F068F803235DE0FB681B681846FFF737
:101CA0000DFE0346002BDFD0FB681B6800211846A1
:101CB000FFF764FEFB681868FB7A5900FB7A5B004B
:101CC00043F001031C4697F82830254A01924FF053
:101CD000007200922246FFF765FE0EF0A5FF386104
:101CE0000023FB7530E00EF09FFF386117E0FB68C2
:101CF0001B681846FFF71BFE0346002B01D001238B
:101D000028E00EF091FF02463B69D31A0A2B06D950
:101D1000FB681B68184620F025F803231AE0FB68CF
:101D20001B681846FFF7F0FD0346002BDFD0FB6869
:101D30001968FB7D7A68D4180846FFF763FE0346EE
:101D40002370FB7D0133FB75FA7D97F828309A42AA
:101D5000C9D3002318461C37BD4690BD0020008023
:101D60000024008080B584B000AF78600023FB6061
:101D7000786800F095F8786800F00BF80346002BBF
:101D800002D06FF00303FB60FB6818461037BD46B6
:101D900080BD80B584B000AF78600023FB737868A5
:101DA00023F084FA0346002B01D00123FB73FB7B55
:101DB00018461037BD4680BD80B586B000AFF860CC
:101DC000B9607A603B603B687A68B968F86823F06C
:101DD00069FB0346002B03D06FF003037B6101E036
:101DE00000237B617B6918461837BD4680BD80B5EE
:101DF00086B000AFF860B9607A603B603B687A6893
:101E0000B968F86823F012FC0346002B03D06FF08A
:101E100003037B6101E000237B617B69184618376F
:101E2000BD4680BD80B582B000AF7860786824F090
:101E300011FA0346042B14BF01230023DBB218461A
:101E40000837BD4680BD80B584B000AF786039608A
:101E50003968786824F00EF80346002B03D06FF041
:101E60000303FB6001E00023FB60FB6818461037AA
:101E7000BD4680BD80B582B000AF7860786816F04E
:101E800039FE00BF0837BD4680BD80B582B000AFC7
:101E90007860786816F058FE00BF0837BD4680BDF0
:101EA00080B582B000AF7860786821F0D7FC00BFC1
:101EB0000837BD4680BD80B483B000AF78607B68D2
:101EC0001B6803F00103012B01D1012300E0002373
:101ED00018460C37BD465DF8047B704780B483B06C
:101EE00000AF78607B685B6903F00103012B01D1CF
:101EF000012300E0002318460C37BD465DF8047B43
:101F0000704780B483B000AF78607B685B6903F48E
:101F10008053B3F5805F01D1012300E00023184610
:101F20000C37BD465DF8047B704780B483B000AFCA
:101F300078607B6830331B78DBB218460C37BD46BF
:101F40005DF8047B704780B483B000AF78600B46C7
:101F5000FB707B682033FA781A7000BF0C37BD46DF
:101F60005DF8047B704780B586B000AFF8600B4623
:101F70007A60FB72F868FFF79EFF0346002B01D1E1
:101F8000012335E00EF050FE7861FB7A1946F868BF
:101F9000FFF7D9FF08E00EF047FE02467B69D31A2F
:101FA0000A2B01D9032323E0F868FFF7AAFF0346B1
:101FB000002BF0D00EF038FE786108E00EF034FE11
:101FC00002467B69D31A0A2B01D9032310E0F86873
:101FD000FFF784FF0346002BF0D07B68002B06D070
:101FE000F868FFF7A2FF03461A467B681A700023C1
:101FF00018461837BD4680BD80B584B000AF786004
:102000000B46FB707868FFF756FF0346002B01D1A3
:1020100001231BE00EF008FEF860FB781946786893
:10202000FFF791FF08E00EF0FFFD0246FB68D31AB0
:102030000A2B01D9032309E07868FFF762FF034602
:10204000002BF0D07868FFF770FF00231846103798
:10205000BD4680BD80B582B000AF0346FB71FB7901
:10206000002B10D1FB79002B06D14FF480620021A8
:1020700007482BF097F807E04FF4806200210548ED
:102080002BF090F800E000BF0837BD4680BD00BFD0
:1020900000F8003800FC003880B582B000AF03467D
:1020A000FB71FB79002B04D1FB791846FFF7D2FFB7
:1020B00000E000BF0837BD4680BD80B483B000AFEC
:1020C00078607B681B6843F001027B681A6000BF80
:1020D0000C37BD465DF8047B704780B483B000AF19
:1020E00078607B681B6823F001027B681A6000BF80
:1020F0000C37BD465DF8047B704780B483B000AFF9
:1021000078607B68DB6903F04003402B01D1012339
:1021100000E0002318460C37BD465DF8047B70478D
:1021200080B483B000AF78607B68DB6903F0800324
:10213000802B01D1012300E0002318460C37BD4657
:102140005DF8047B704780B489B000AF78607B682D
:10215000FB60FB6853E8003FBB60BB6843F01003C3
:10216000FB617B68FA69BA617B617969BA6941E8A8
:1021700000233B613B69002BE9D100BF00BF24373E
:10218000BD465DF8047B704780B489B000AF7860CD
:102190007B68FB60FB6853E8003FBB60BB6843F0B3
:1021A0008003FB617B68FA69BA617B617969BA690E
:1021B00041E800233B613B69002BE9D100BF00BF30
:1021C0002437BD465DF8047B704780B489B000AF0A
:1021D00078607B68FB60FB6853E8003FBB60BB68CE
:1021E00023F08003FB617B68FA69BA617B617969DE
:1021F000BA6941E800233B613B69002BE9D100BF8C
:1022000000BF2437BD465DF8047B704780B483B0BF
:1022100000AF78607B681B6803F08003802B01D1DE
:10222000012300E0002318460C37BD465DF8047B0F
:10223000704780B489B000AF78607B680833FB607A
:10224000FB6853E8003FBB60BB6843F04003FB61A1
:102250007B680833FA69BA617B617969BA6941E8D8
:1022600000233B613B69002BE7D100BF00BF24374F
:10227000BD465DF8047B704780B485B000AF7860E0
:1022800039603B68002B03D17B682833FB6002E098
:102290007B682433FB60FB6818461437BD465DF845
:1022A000047B704780B483B000AF78600B46FB704E
:1022B000FA787B689A6200BF0C37BD465DF8047BF4
:1022C0007047000080B485B000AF786039607B68EB
:1022D000FB600C4A3B6813441B781A46FB681344A6
:1022E0001B6808493A680A4412781146FA680A4499
:1022F00043F00103136000BF1437BD465DF8047B53
:10230000704700BF4478030880B485B000AF7860A0
:1023100039607B68FB600C4A3B6813441B781A46A3
:10232000FB6813441B6808493A680A44127811464E
:10233000FA680A4423F00103136000BF1437BD4656
:102340005DF8047B704700BF4478030880B487B011
:1023500000AFF860B9607A60FB687B610D4ABB68CA
:1023600013441B781A467B6913445A680A4B13407E
:102370000849BA680A44127811467A690A44114633
:102380007A6813434B6000BF1C37BD465DF8047B81
:10239000704700BF447803080000FFFF80B485B099
:1023A00000AF786039607B68FB60074A3B68134484
:1023B0001B781A46FB6813445B689BB218461437B7
:1023C000BD465DF8047B70474478030880B487B04D
:1023D00000AFF860B9607A60FB687B61074ABB6850
:1023E00013441B781A467B6913441A467B68D360F2
:1023F00000BF1C37BD465DF8047B70474478030876
:1024000080B487B000AFF860B9607A60FB687B6128
:10241000074ABB6813441B781A467B6913441A4663
:102420007B68936000BF1C37BD465DF8047B704736
:102430004478030880B485B000AF786039607B6869
:10244000FB600C4A3B6813441B781A46FB68134434
:102450001B6808493A680A4412781146FA680A4427
:1024600043F00803136000BF1437BD465DF8047BDA
:10247000704700BF4478030880B485B000AF78602F
:1024800039607B68FB600C4A3B6813441B781A4632
:10249000FB6813441B6808493A680A4412781146DD
:1024A000FA680A4443F00403136000BF1437BD46C2
:1024B0005DF8047B704700BF4478030880B485B0A2
:1024C00000AF786039607B68FB600C4A3B6813445E
:1024D0001B781A46FB6813441B6808493A680A448B
:1024E00012781146FA680A4443F01003136000BFE3
:1024F0001437BD465DF8047B704700BF447803087D
:1025000080B485B000AF78600023FB6015E010490F
:10251000FA6813465B019B1A9B000B441B687A68A0
:102520009A4207D1FA6813465B019B1A9B00084A3E
:10253000134406E0FB680133FB60FB68022BE6DD19
:10254000002318461437BD465DF8047B704700BF72
:10255000C8040024B0B584B002AF00237B6022E041
:10256000B5497A6813465B019B1A9B000B441B68B4
:102570001846FFF7B2FDB0497A6813465B019B1A13
:102580009B000B4468331868AB497A6813465B01BB
:102590009B1A9B000B446C331B681946FFF7B4FE73
:1025A0007B6801337B607B68022BD9DD4FF40063CD
:1025B0000093A24BA24A0121A2480EF0DCF94FF48D
:1025C00000630093A04BA14A0221A1480EF0D3F969
:1025D00003220021012016F056FE0346964A536658
:1025E000954B9C6E944BDD6E01219A48FFF744FE9B
:1025F00003461A4629462046FFF702FF8E4B9B6E84
:102600008D4AD16E8C4AB2F874201846FFF79EFEB0
:10261000894B9B6E884AD16E874A126F1846FFF726
:10262000D5FE854B9B6E844AD26E11461846FFF745
:1026300045FF814B9B6E804AD26E11461846FFF7CC
:10264000F9FE7D4B9B6E7C4AD26E11461846FFF711
:1026500013FF8048FFF7EDFD774B9B6E764AD26EF5
:1026600011461846FFF72EFE7A48FFF76CFD4FF42F
:1026700080530093784B794A052179480EF07BF915
:102680004FF480530093774B774A062177480EF03A
:1026900072F903220021012016F0F5FD0346664A77
:1026A000C2F8E030644BD3F8E440634BD3F8E85011
:1026B00001216F48FFF7E0FD03461A4629462046F0
:1026C000FFF79EFE5C4BD3F8E4305B4AD2F8E8108B
:1026D000594AB2F8F0201846FFF738FE564BD3F8A7
:1026E000E430554AD2F8E810534AD2F8EC201846A4
:1026F000FFF76CFE504BD3F8E4304F4AD2F8E82095
:1027000011461846FFF7DAFE4B4BD3F8E4304A4A3D
:10271000D2F8E82011461846FFF78CFE464BD3F856
:10272000E430454AD2F8E82011461846FFF7A4FEE7
:102730004F48FFF77EFD404BD3F8E4303E4AD2F8D5
:10274000E82011461846FFF7BDFD4948FFF7FBFC9E
:102750004FF440630093474B474A0B2147480EF024
:102760000AF94FF440630093454B464A0C21464812
:102770000EF001F903220021012016F084FD03462A
:102780002D4AC2F85C312C4BD3F860412A4BD3F868
:10279000645101213D48FFF76FFD03461A46294663
:1027A0002046FFF72DFE244BD3F86031224AD2F8A1
:1027B0006411214AB2F86C211846FFF7C7FD1E4B81
:1027C000D3F860311C4AD2F864111B4AD2F8682150
:1027D0001846FFF7FBFD184BD3F86031164AD2F8C4
:1027E000642111461846FFF769FE134BD3F8603198
:1027F000114AD2F8642111461846FFF71BFE0E4B12
:10280000D3F860310C4AD2F8642111461846FFF71C
:1028100033FE1E48FFF70DFD074BD3F86031064A23
:10282000D2F8642111461846FFF74CFD1748FFF710
:102830008AFC00233B6039E0C8040024D838002417
:1028400094EE0208CC040024D8400024A0EE020834
:10285000FC04002400100140D8580024ACEE02080B
:1028600048050024D8680024B8EE02087805002442
:1028700000440040D8840024C4EE0208C4050024AB
:10288000D8900024D0EE0208F4050024007800401F
:102890000A493A6813465B019B1A9B000B441B686C
:1028A0001846FFF70AFC3B6801333B603B68022B8C
:1028B000EEDD002318460837BD46B0BDC80400242D
:1028C00080B584B000AF78600B46FB707868FFF786
:1028D00017FEB860BB68002B1FD0134BFB6005E0F0
:1028E000FB68013BFB60FB68002B18D0BB683433EE
:1028F000FA78114618460EF071F8034683F001038A
:10290000DBB2002BECD17868FFF780FC0346002B8C
:1029100006D17868FFF738FC02E000BF00E000BF96
:102920001037BD4680BD00BF20A1070080B584B030
:1029300000AF786039607868FFF7E2FDF860FB6807
:10294000002B11D03B68002B0ED008E03B681B78B1
:1029500019467868FFF7B4FF3B6801333B603B687A
:102960001B78002BF2D100E000BF1037BD4680BDC0
:1029700080B584B000AF78607868FFF7C1FDF8607B
:10298000FB68002B42D0FB681B68DB6903F0020385
:10299000002B03D0FB681B6802221A62FB681B68CD
:1029A000DB6903F00403002B03D0FB681B680422DF
:1029B0001A62FB681B68DB6903F40033002B04D048
:1029C000FB681B684FF400321A627868FFF7A8FBB7
:1029D0000346002B1BD07868FFF718FC0346002B3A
:1029E00015D0FB68343307F10B02114618460EF080
:1029F0003BF80346002B05D0FB7A19467868FFF7B1
:102A000051FC04E07868FFF7E0FB00E000BF1037FE
:102A1000BD4680BD80B58AB000AF78600023BB6042
:102A20007868FFF76DFDB861BB69002B7CD0BB698E
:102A30009B6F7B61BB699A6EBB69DB6E1946104662
:102A4000FFF7ACFC03467B82BB69B3F874301A46CF
:102A50007B8AD31AFB60FA687B699A4265D0FA6870
:102A60007B699A4214D97B697B620CE0BB69181DB3
:102A7000BB691A6F7B6A13441B7819460DF0AEFFD1
:102A80007B6A01337B627A6AFB689A42EED32AE062
:102A90007B693B620CE0BB69181DBB691A6F3B6A1E
:102AA00013441B7819460DF099FF3B6A01333B62D2
:102AB000BB69B3F874301A463B6A9342EBD30023E8
:102AC000FB610CE0BB69181DBB691A6FFB691344FD
:102AD0001B7819460DF082FFFB690133FB61FA692F
:102AE000FB689A42EED3BB695B6E07F108021146A0
:102AF000184616F07DFDBB68002B07D00C4B4FF03D
:102B000080521A60BFF34F8FBFF36F8FBB69FA68B3
:102B10009A67BB699B6FBA69B2F87420934204D17B
:102B2000BB6900229A6700E000BF2837BD4680BD20
:102B300004ED00E080B584B000AF78607868FFF7FE
:102B4000DFFCF860FB68002B02D14FF0FF330EE092
:102B5000FB68043307F10B02114618460DF084FFA1
:102B60000346002B01D0FB7A01E04FF0FF331846FB
:102B70001037BD4680BD80B584B000AF78607868FE
:102B8000FFF7BEFCF860FB68002B01D1002305E0D5
:102B9000FB68043318460DF0E4FF0346184610376F
:102BA000BD4680BD80B584B000AF78607868FFF71F
:102BB000A7FCF860FB68002B01D1002306E0FB684E
:102BC000343318460DF091FF034600BF1846103706
:102BD000BD4680BD80B582B000AF78600B46FB700B
:102BE00000BF7868FFF79CFA0346002BF9D0FB780A
:102BF00019467868FFF756FB00BF7868FFF77DFA43
:102C00000346002BF9D000BF00BF0837BD4680BD8A
:102C100080B582B000AF786039603B68002B0ED081
:102C200008E03B681B7819467868FFF7D3FF3B68DC
:102C300001333B603B681B78002BF2D100E000BF02
:102C40000837BD4680BD000080B400AF034B1B8831
:102C50001846BD465DF8047B704700BFD89C002431
:102C600080B485B000AF78600D4BFB600CE07B68F2
:102C70005A1C7A601B781A46FB685340FB60FB685D
:102C8000084A02FB03F3FB607B681B78002BEED144
:102C9000FB6818461437BD465DF8047B704700BFDB
:102CA000C59D1C819301000180B485B000AF7860A0
:102CB00039607A683B685340FB60FB681B0CFA681C
:102CC0001343FB60FB681B0AFA681343FB60FB6855
:102CD000DBB2002B0CBF01230023DBB218461437F4
:102CE000BD465DF8047B704780B584B000AF786066
:102CF0007868FFF7B5FFF860054BBB60B968F86806
:102D0000FFF7D2FF034618461037BD4680BD00BF0F
:102D1000A37B47C580B584B000AF78600CF02AFA79
:102D2000F8600023FB7207F10B0201230021F86811
:102D30000CF017FB0346002B02D1FB7A102B07D9AE
:102D40001549786800F020F9144B01221A6020E040
:102D5000FB7A002B16D0FB7A114A0121F8680CF09F
:102D600000FB0346002B05D1FB7A1A460C4B0021D1
:102D700099540EE00849786800F006F9074B0122E3
:102D80001A6006E00449786800F0FEF8034B01225F
:102D90001A601037BD4680BDDCEE0208F09C0024AE
:102DA000DC9C002480B584B000AF78600E4B1B68BB
:102DB000012B0BD17868FFF753FFF8600B4BBB601A
:102DC000B968F868FFF770FF034609E008497868BA
:102DD000FDF786FA0346002B01D1012300E0002312
:102DE00018461037BD4680BDF09C0024A37B47C524
:102DF000DC9C002480B582B000AF78607B6893F8DB
:102E00002830042B10D17B685B6D5A1C7B685A6597
:102E10007B685B6D064A934206D3786800F068F8D9
:102E20000449786800F0B0F800BF0837BD4680BD9F
:102E3000E093040018EF020880B483B000AF78601C
:102E40007B6893F82830042B02D17B6800225A65F6
:102E500000BF0C37BD465DF8047B704780B582B07B
:102E600000AF786039607B683A689A657B680022B9
:102E70001A627B6800225A627B68002283F828204D
:102E80007B680022DA627B6800221A657B68002278
:102E90005A657B682022002118462AF083F97B6856
:102EA00030332022002118462AF07CF90B4978683B
:102EB00000F06AF80A49786800F066F8094978680D
:102EC00000F062F80849786800F05EF80749786811
:102ED00000F05AF800BF0837BD4680BD44EF020835
:102EE0004CEF020854EF020868EF020870EF020886
:102EF00080B582B000AF78607B6801221A627B687F
:102F000000225A627B68002283F828207B68002216
:102F1000DA627B6800221A657B6800225A657B684A
:102F20002022002118462AF03DF97B683033202208
:102F3000002118462AF036F90D49786800F024F887
:102F40000C49786800F020F80B49786800F01CF80C
:102F50000A49786800F018F80949786800F014F810
:102F60000849786800F010F800BF0837BD4680BDFA
:102F700044EF02084CEF020854EF020868EF020821
:102F800070EF020874EF020880B582B000AF78607D
:102F9000396007E07B689A6D3B68591C39601B7883
:102FA000184690473B681B78002BF3D100BF00BF49
:102FB0000837BD4680BD000080B582B000AF7860A4
:102FC0007B6893F82830002B37D17B68244918465A
:102FD000FDF786F90346002B0BD17B68012283F8AD
:102FE00028207B680022DA621E497868FFF7CCFF50
:102FF00031E07B681C491846FDF772F90346002B47
:103000000ED17868FFF786FE7B68022283F82820BD
:103010007B680022DA6213497868FFF7B5FF1AE08F
:1030200012497868FFF7B0FF11497868FFF7ACFFE5
:1030300010497868FFF7A8FF0DE07B6893F8283007
:10304000032B04D07B6893F82830042B03D10A4962
:103050007868FFF799FF00BF0837BD4680BD00BF05
:103060008CEF020894EF0208A0EF0208A8EF020814
:1030700070EF020874EF0208D4EF020880B582B046
:1030800000AF78600B46FB707B6893F82830012B0B
:1030900005D07B6893F82830022B40F0ED800A229F
:1030A000FB78934204D00D22FB78934240F0B68027
:1030B0007B681B6D7A681344002283F830207B689C
:1030C00093F82830012B38D17B6830331846FFF74E
:1030D0000BFE0346012B30D17B68032283F82820A6
:1030E0009A497868FFF750FF99497868FFF74CFFD5
:1030F00098497868FFF748FF94497868FFF744FFDC
:1031000095497868FFF740FF94497868FFF73CFFDE
:1031100093497868FFF738FF92497868FFF734FFE2
:1031200091497868FFF730FF8B497868FFF72CFFEB
:1031300086497868FFF728FF6CE07B6893F82830B1
:10314000022B38D17B6830331846FFF72BFE03463D
:10315000012B30D17B68042283F828207B497868D2
:10316000FFF712FF7A497868FFF70EFF7F4978680A
:10317000FFF70AFF75497868FFF706FF7649786818
:10318000FFF702FF75497868FFF7FEFE744978681B
:10319000FFF7FAFE73497868FFF7F6FE7249786820
:1031A000FFF7F2FE6C497868FFF7EEFE6749786832
:1031B000FFF7EAFE2EE07B68DB6A5A1C7B68DA6266
:1031C00062497868FFF7E0FE7B68DB6A032293427E
:1031D00014DB7B68002283F8282065497868FFF7B4
:1031E000D3FE5A497868FFF7CFFE58497868FFF751
:1031F000CBFE60497868FFF7C7FE0BE05E49786850
:10320000FFF7C2FE51497868FFF7BEFE5B49786858
:10321000FFF7BAFE7B6800221A6592E07F22FB78F6
:10322000934216D17B681B6D002B40F38A807B682C
:103230001B6D5A1E7B681A657B689B6D082098473A
:103240007B689B6D202098477B689B6D0820984782
:1032500077E07B681B6D1E2B73DC7B681B6D591C34
:103260007A6811657A681344FA7883F830207B68AD
:103270009B6D2A20984764E07B6893F82830032BE5
:1032800004D07B6893F82830042B04D13C4978683B
:10329000FFF77AFE56E00A22FB78934203D00D2214
:1032A000FB7893421CD17B685B6A7A680021D15419
:1032B0007B685B6A002B0ADD24497868FFF764FEAF
:1032C0007868FFF779FE7B6800225A623AE01F496E
:1032D0007868FFF759FE27497868FFF755FE31E017
:1032E0007F22FB7893421AD17B685B6A002B29DD31
:1032F0007B685B6A5A1E7B685A627B685B6A7A6885
:103300000021D1547B689B6D082098477B689B6D9A
:10331000202098477B689B6D0820984712E07B68C7
:103320005B6A1E2B0EDC7B685B6A591C7A685162F3
:103330007A68F978D1547B689B6DFA781046984783
:1033400000E000BF00BF0837BD4680BD70EF020837
:10335000E4EF020850F0020874F002089CF0020842
:10336000C4F00208ECF0020814F102083CF1020873
:1033700060F1020874EF02088CF1020894EF020871
:10338000B4F1020880B483B000AF78607B6893F832
:10339000283018460C37BD465DF8047B70470000A6
:1033A00080B400AFBFF34F8F00BF064BDB6803F460
:1033B000E0620449044B1343CB60BFF34F8F00BF5F
:1033C00000BFFDE700ED00E00400FA0580B483B023
:1033D00000AF786039607B683A689A6100BF0C374B
:1033E000BD465DF8047B704780B483B000AF786061
:1033F00039603B681A047B689A6100BF0C37BD4690
:103400005DF8047B704780B485B000AF03460A4680
:10341000FB8013467B7141F22103BB817B791BB298
:103420001B021AB2B7F9063053401BB2FB800023CF
:10343000FB7313E0B7F90630002B09DAB7F9063051
:103440005B001AB2B7F90C3053401BB2FB8002E0AC
:10345000FB885B00FB80FB7B0133FB73FB7B072B53
:10346000E8D9FB8818461437BD465DF8047B7047E1
:1034700080B5A8B002AFF860B9607A600121B86881
:1034800003F0DEF8C7F884000221B86803F0D8F82A
:10349000C7F880000023A7F89630D7F88430002BB7
:1034A00003D0D7F88030002B04D1A049F86803F08E
:1034B00005F838E1D7F8840029F040FBF8670022CE
:1034C0000021D7F8800029F071FCB867BB6F002B92
:1034D00003D0BB6FB3F5483F0ED907F110004FF48E
:1034E0004833934A642129F02DFD07F11003194652
:1034F000F86802F0E3FF16E1FDF7B6FA0346032B86
:103500001BD0FDF7B1FA0346022B08D0FDF7ACFA49
:103510000346012B01D1874B02E0874B00E0874B2C
:1035200007F11000864A642129F00CFD07F1100311
:103530001946F86802F0C2FFF5E00220FDF778FABC
:10354000FB6F032B6DD0FB6F032B00F39C80FB6F95
:10355000012B03D0FB6F022B2CD094E00023C7F883
:1035600090301AE0D7F8903087F87530D7F890305F
:10357000744A134497F875201A7097F87520B7F8B5
:10358000963011461846FFF73EFF0346A7F89630DF
:10359000D7F890300133C7F89030D7F89020BB6F40
:1035A0009A42DFD307F11000BB6F674A642129F00C
:1035B000C9FC70E00023C7F88C3025E0D7F88C10E8
:1035C000624BA3FB01239A0913465B0013445B0182
:1035D000CA1AD3B2203387F87630D7F88C30594ADC
:1035E000134497F876201A7097F87620B7F896303B
:1035F00011461846FFF707FF0346A7F89630D7F89D
:103600008C300133C7F88C30D7F88C20BB6F9A42CE
:10361000D4D307F11000BB6F4D4A642129F092FC0E
:1036200039E00023C7F8883020E029F08BFA034600
:103630005A42DBB2D2B258BF534287F87730D7F83C
:103640008830404A134497F877201A7097F877200B
:10365000B7F8963011461846FFF7D5FE0346A7F88F
:103660009630D7F888300133C7F88830D7F88820EB
:10367000BB6F9A42D9D307F11000BB6F354A642162
:1036800029F060FC07E03449F86802F017FF0320D6
:10369000FDF7CEF947E04FF47A7017F089F8012072
:1036A000FDF7C6F907F110031946F86802F006FFA6
:1036B000244A244B1B7807F1100000931346274A35
:1036C000642129F03FFC07F110031946F86802F065
:1036D000F5FEBB6F013B1B4A13441946BB6F013B10
:1036E000184A13441B7807F1100000930B461C4A3C
:1036F000642129F027FC07F110031946F86802F04D
:10370000DDFEB7F8963007F11000164A642129F063
:1037100019FC07F110031946F86802F0CFFE1249B0
:10372000F86802F0CBFE9837BD4680BD44FD020824
:1037300094FD0208BCFD0208C8FD0208D0FD020885
:10374000D8FD020800000030FCFD0208ABAAAAAABE
:103750002CFE02085CFE020880FE0208B0FE020891
:10376000D4FE0208F4FE02080CFF020880B5AAB0DD
:1037700002AFF860B9607A600121B86802F060FFBA
:10378000C7F884001023C7F880300023C7F89C30A6
:103790000023A7F89A30D7F88430002B04D17C4955
:1037A000F86802F08BFEEFE000220021D7F88400D9
:1037B00029F0FCFAF86707F11400FB6F754A6421E1
:1037C00029F0C0FB07F114031946F86802F076FEF1
:1037D000714A07F11400704B009313466F4A64213D
:1037E00029F0B0FB07F114031946F86802F066FEF1
:1037F0000023C7F89430ACE0674AD7F894301344FC
:1038000007F11400664A642129F09CFB07F11403B8
:103810001846FCF76FFD024607F114031344C7F87E
:1038200090300023C7F88C3030E0D7F89420D7F8D8
:103830008C301344584AD35C87F87B3007F114036B
:10384000D7F89020D31AC3F1640197F87B30554A1A
:10385000D7F8900029F076FBD7F890300333C7F8FB
:103860009030D7F89C300133C7F89C3097F87B2014
:10387000B7F89A3011461846FFF7C5FD0346A7F87A
:103880009A30D7F88C300133C7F88C30D7F88C20B9
:10389000D7F880309A4207D2D7F89420D7F88C30E6
:1038A0001344FA6F9A42C0D8D7F890305A1CC7F820
:1038B000902020221A70D7F890305A1CC7F8902018
:1038C0007C221A700023C7F8883020E0D7F89420B3
:1038D000D7F888301344304AD35C87F87A3097F8A9
:1038E0007A301F2B06D997F87A307E2B02D897F8BA
:1038F0007A1000E02E21D7F890305A1CC7F890209B
:103900000A461A70D7F888300133C7F88830D7F8DC
:103910008820D7F880309A4207D2D7F89420D7F879
:1039200088301344FA6F9A42D0D8D7F890300022EA
:103930001A7007F114031946F86802F0BFFD012060
:1039400016F036FFD7F89420D7F880301344C7F824
:103950009430D7F89420FB6F9A42FFF44DAFB7F83C
:103960009A3007F114000093D7F89C300E4A642176
:1039700029F0E8FA07F114031946F86802F09EFDF1
:103980000A49F86802F09AFDA037BD4680BD00BF25
:1039900010FF020838FF02080000003860FF02082C
:1039A00084FF020890FF020898FF02080CFF02083B
:1039B00080B5A0B000AFF860B9607A600121B86846
:1039C00002F03EFEF867FB6F002B04D13449F86823
:1039D00002F074FD60E03349F86FFCF781FC0346A8
:1039E000002B42D1FDF740F8034687F87B3097F86B
:1039F0007B30032B2AD801A252F823F00D3A00089D
:103A00001D3A00082D3A00083D3A000807F114035A
:103A1000254A6421184629F095FA1FE007F114039E
:103A2000224A6421184629F08DFA17E007F11403A1
:103A30001F4A6421184629F085FA0FE007F11403A4
:103A40001C4A6421184629F07DFA07E007F11403A7
:103A5000194A6421184629F075FA00BF07F11403CA
:103A60001946F86802F02AFD12E01449F86FFCF7D5
:103A700037FC0346002B07D10320FCF7D9FF104980
:103A8000F86802F01BFD03E00E49F86802F016FD2D
:103A90000D49F86802F012FD8037BD4680BD00BFB9
:103AA000D0FF0208F0FF0208F4FF02080800030834
:103AB0002000030834000308480003087CF60208CD
:103AC000600003087C0003080CFF020880B5A0B06A
:103AD00000AFF860B9607A600CF0E6F9F867FB6F48
:103AE0001B7D83F00103DBB2002B04D01749F8687B
:103AF00002F0E4FC27E00CF015FB034687F87B306E
:103B000097F87B30002B0DD107F11403104A642184
:103B1000184629F017FA07F114031946F86802F05D
:103B2000CDFC0CE007F114030A4A6421184629F081
:103B300009FA07F114031946F86802F0BFFC0649B8
:103B4000F86802F0BBFC8037BD4680BDAC000308BE
:103B5000D0000308F80003080CFF020890B5ABB0D2
:103B600004AFF860B9607A600121B86802F068FDBE
:103B7000C7F894000221B86802F062FDC7F890000F
:103B8000D7F89430002B03D0D7F89030002B04D115
:103B90003449F86802F092FC61E0D7F8940028F00C
:103BA000CDFF034687F88F3000220021D7F8900020
:103BB00029F0FCF8C7F888002B4A97F88F30D7F81F
:103BC000881018460CF0A8F9034687F8873097F854
:103BD0008730002B1ED107F1100318460CF038FA7D
:103BE0000346002B37D17A693B7C1946BB69B88BF9
:103BF000044607F1200002940193009113461B4AEA
:103C0000642129F09FF907F120031946F86802F0B2
:103C100055FC20E097F88730022B0ED197F88F30B3
:103C200007F12000124A642129F08CF907F12003E2
:103C30001946F86802F042FC0DE097F8873007F16A
:103C400020000C4A642129F07DF907F12003194670
:103C5000F86802F033FC0849F86802F02FFC9C3742
:103C6000BD4690BD1C010308000000304001030860
:103C700080010308A00103080CFF020880B5A4B06E
:103C800002AFF860B9607A600CF086FA034687F8F4
:103C9000873097F88730032B38D801A252F823F0E9
:103CA000033D0008C53C0008BB3C0008B13C0008CF
:103CB0001D49F86802F002FC2DE01C49F86802F08A
:103CC000FDFB28E007F1100318460CF0C1F903468C
:103CD000002B11D1BB8B1A46BB6907F12000009362
:103CE0001346134A642129F02DF907F120031946E0
:103CF000F86802F0E3FB0EE00E49F86802F0DEFB24
:103D000009E00D49F86802F0D9FB04E00B49F868B6
:103D100002F0D4FB00BF0A49F86802F0CFFB00BFF5
:103D20008837BD4680BD00BFC8010308D401030821
:103D3000E0010308100203083C0203084C020308D8
:103D40000CFF020880B5A6B002AFF860B9607A60D7
:103D50000121B86802F074FCC7F88400D7F88430F9
:103D6000002B04D13749F86802F0A8FB67E0002275
:103D70000021D7F8840029F019F8C7F880000BF06B
:103D800063FDF867FB6FDB7A83F00103DBB2002B86
:103D900004D02D49F86802F091FB50E02B4BD7F886
:103DA000801018460BF09CFD034687F87B3097F88F
:103DB0007B30002B31D10023A7F88E300023C7F8C9
:103DC000883012E0214AD7F8883013441A78B7F8BF
:103DD0008E3011461846FFF716FB0346A7F88E30C3
:103DE000D7F888300133C7F88830D7F88820D7F85B
:103DF00080309A42E6D3B7F88E3007F11400009372
:103E0000D7F88030124A642129F09CF807F1140396
:103E10001946F86802F052FB0DE097F87B3007F185
:103E200014000C4A642129F08DF807F11403194697
:103E3000F86802F043FB0849F86802F03FFB90374E
:103E4000BD4680BD5C0203088802030800000038FC
:103E5000AC020308D80203080CFF020880B588B042
:103E600000AFF860B9607A6007F11403074A0A21CD
:103E7000184629F067F807F114031946F86802F0AC
:103E80001DFB00BF2037BD4680BD00BFFC020308FC
:103E9000F0B5B3B006AFF860B9607A600121B868D8
:103EA00002F0CEFBC7F8AC000221B86802F0C8FBF4
:103EB000C7F8A8000321B86802F0C2FBC7F8A40045
:103EC0000421B86802F0BCFBC7F8A0000521B8685F
:103ED00002F0B6FBC7F89C000621B86802F0B0FB00
:103EE000C7F89800D7F8AC30002B13D0D7F8A8301B
:103EF000002B0FD0D7F8A430002B0BD0D7F8A03070
:103F0000002B07D0D7F89C30002B03D0D7F898307F
:103F1000002B0DD107F11803624A6421184629F0DD
:103F200011F807F118031946F86802F0C7FAB6E06D
:103F3000D7F8AC0028F002FEC7F89400D7F8A80024
:103F400028F0FCFDC7F89000D7F8A40028F0F6FD93
:103F5000C7F88C00D7F8A00028F0F0FDC7F888005B
:103F6000D7F89C0028F0EAFDC7F88400D7F898003D
:103F700028F0E4FDC7F88000D7F89430002B03DB6D
:103F8000D7F89430172B04DD4749F86802F096FA09
:103F900085E0D7F89030002B03DBD7F890303B2B2F
:103FA00004DD4249F86802F089FA78E0D7F88C30ED
:103FB000002B03DBD7F88C303B2B04DD3C49F86841
:103FC00002F07CFA6BE0D7F88830002B03DDD7F8DD
:103FD00088301F2B04DD3749F86802F06FFA5EE085
:103FE000D7F88430002B03DDD7F884300C2B04DDA8
:103FF0003149F86802F062FA51E0D7F88030002BBE
:1040000003DBD7F88030632B04DD2C49F86802F01D
:1040100055FA44E0D7F89430DBB2FB74D7F890300F
:10402000DBB23B75D7F88C30DBB27B75D7F88830C4
:10403000DBB23B74D7F88430DBB27B74D7F88030C6
:10404000DBB2BB7407F1100318460CF009FC0AF050
:1040500061FFF86707F110031946F86F0AF0B0FF27
:10406000FB7C1E463B7D7A7D397C787C0446B87C9F
:10407000054607F1180004950394029101920093FC
:1040800033460F4A642128F05DFF07F118031946F3
:10409000F86802F013FA0B49F86802F00FFAB43727
:1040A000BD46F0BD04030308440303087803030876
:1040B000AC030308E00303081004030844040308E6
:1040C0008C0403080CFF0208F0B5B7B006AFF86027
:1040D000B9607A600121B86802F0B2FAC7F8BC0092
:1040E000D7F8BC30002B0DD107F14803C84A642132
:1040F000184628F027FF07F148031946F86802F030
:10410000DDF982E1C349D7F8BC00FCF7E9F80346C2
:10411000002B3FD10AF0FEFEC7F8AC0007F14003C8
:104120001946D7F8AC000AF0FFFE0346002B2CD14D
:1041300007F13E031946D7F8AC000AF085FF97F85F
:1041400043309C4697F8443097F8452097F8401044
:1041500097F84100044697F842000546B7F93E003B
:10416000064607F1480005960495039402910192D2
:1041700000936346A84A642128F0E4FE07F148034F
:104180001946F86802F09AF93BE1A449F86802F090
:1041900095F936E1A249D7F8BC00FCF7A1F803462F
:1041A000002B26D107F1380318460CF043FB97F893
:1041B0003B301E4697F83C3097F83D2097F8381072
:1041C00097F83900044697F83A00054607F1480089
:1041D000049503940291019200933346914A64211D
:1041E00028F0B0FE07F148031946F86802F066F9B6
:1041F00007E18D49D7F8BC00FCF772F80346002BA5
:104200002ED100237B63002387F83330002387F807
:104210003230002387F8313007F1310307F13202E1
:1042200007F1330107F134000CF05EFB97F83330EF
:104230001C4697F8323097F83120796BC9B207F1F4
:1042400048000291019200932346784A642128F0A5
:1042500079FE07F148031946F86802F02FF9D0E01B
:104260007349D7F8BC00FCF73BF80346002B12D18A
:104270000CF02CFBC7F8B00007F14800D7F8B030BD
:104280006C4A642128F05EFE07F148031946F8687D
:1042900002F014F9B5E06849D7F8BC00FCF720F843
:1042A0000346002B40F0A0800AF034FEC7F8B800A7
:1042B00007F128031946D7F8B8000AF035FE03467F
:1042C000002B2CD107F116031946D7F8B8000AF0D5
:1042D000BBFE97F82B309C4697F82C3097F82D2092
:1042E00097F8281097F82900044697F82A00054601
:1042F000B7F91600064607F14800059604950394A1
:104300000291019200936346434A642128F01AFE09
:1043100007F148031946F86802F0D0F803E047496E
:10432000F86802F0CBF807F1200318460CF082FA87
:1043300097F823301E4697F8243097F8252097F8F1
:10434000201097F82100044697F82200054607F14F
:104350004800049503940291019200933346314A38
:10436000642128F0EFFD07F148031946F86802F0D0
:10437000A5F80023FB610023FB760023BB76002316
:104380007B7607F1190307F11A0207F11B0107F108
:104390001C000CF0A9FAFB7E1C46BB7E7A7EF969F4
:1043A000C9B207F1480002910192009323461F4AC7
:1043B000642128F0C7FD07F148031946F86802F0A8
:1043C0007DF80CF083FAC7F8B40007F14800D7F87D
:1043D000B430184A642128F0B5FD07F148031946A6
:1043E000F86802F06BF80CE007F14803144A642106
:1043F000184628F0A7FD07F148031946F86802F0AF
:104400005DF81049F86802F059F8C437BD46F0BDB0
:10441000BC040308E8040308F00403083805030893
:10442000540503085C05030898050308A005030864
:10443000D4050308DC050308EC050308F0050308B0
:10444000080603080CFF0208F0B5A9B006AFF86033
:10445000B9607A600121B86802F0F2F8C7F8840008
:10446000D7F88430002B0DD107F118032F4A6421AF
:10447000184628F067FD07F118031946F86802F09E
:104480001DF850E000220021D7F8840028F08EFCAF
:10449000C7F88000D7F88030254A93420DD807F13D
:1044A0001800244B244A642128F04CFD07F118031E
:1044B0001946F86802F002F835E0D7F880000CF0F1
:1044C000E5F9D7F880201D4B134407F1100211467F
:1044D00018460BF013FF0AF01DFDF86707F11003F3
:1044E0001946F86F0AF06CFDFB7C1E463B7D7A7D19
:1044F000397C787C0446B87C054607F118000495A1
:10450000039402910192009333460D4A642128F0EE
:1045100019FD07F118031946F86801F0CFFF0949A2
:10452000F86801F0CBFF8C37BD46F0BD40060308AC
:104530007F436D3880436D385C06030880BC92C7AA
:104540008C0403080CFF020880B5A4B002AFF86029
:10455000B9607A600121B86802F072F8C7F8840087
:104560000221B86802F06CF8C7F88000D7F88430F0
:10457000002B03D0D7F88030002B0DD107F11403A6
:10458000254A6421184628F0DDFC07F1140319467A
:10459000F86801F093FF3CE000220021D7F8840086
:1045A00028F08AFB0346A7F87E3000220021D7F8C6
:1045B000800028F081FB0346DBB2FB740AF0DAFDD1
:1045C000B867B7F87E1007F113020123B86F0AF03D
:1045D00039FE0346002B0AD1B7F87E30FA7C07F18A
:1045E000140000920D4A642128F0ACFC07E0B7F8F3
:1045F0007E3007F114000A4A642128F0A3FC07F179
:1046000014031946F86801F059FF0649F86801F0EB
:1046100055FF8837BD4680BD7C060308A006030809
:10462000C00603080CFF020880B5A4B002AFF86012
:10463000B9607A600121B86802F002F8C7F8840016
:10464000D7F88430002B0DD107F11803224A6421DA
:10465000184628F077FC07F118031946F86801F0AE
:104660002DFF35E000220021D7F8840028F024FB3C
:104670000346A7F882300023FB750AF07BFDF8673C
:10468000B7F8821007F117020123F86F0AF069FEEC
:104690000346002B0AD1B7F88230FA7D07F11800E3
:1046A00000920E4A642128F04DFC07E0B7F88230F2
:1046B00007F118000A4A642128F044FC07F11803A6
:1046C0001946F86801F0FAFE0649F86801F0F6FEAE
:1046D0008837BD4680BD00BFDC060308F806030826
:1046E000180703080CFF020880B584B000AFF8601B
:1046F000B9607A60F86804F01DF80449F86801F0C0
:10470000DDFE00BF1037BD4680BD00BF0CFF0208B4
:1047100080B586B000AFF860B9607A6003F04AFDFA
:104720001DF04AFB0D49F86801F0C8FE03F01AFEBF
:104730000346FB75FB7D002B04D00949F86801F0A6
:10474000BDFE03E00749F86801F0B8FE0649F868C5
:1047500001F0B4FE00BF1837BD4680BD3407030822
:104760004C070308600703080CFF020880B584B0FB
:1047700000AFF860B9607A601DF014FB03F02CFD07
:104780000549F86801F09AFE0449F86801F096FEC0
:1047900000BF1037BD4680BD7C0703080CFF020830
:1047A00080B5A6B000AFF860B9607A600121B86842
:1047B00001F046FFC7F894000221B86801F040FFFD
:1047C000C7F89000D7F89430002B03D0D7F890307A
:1047D000002B04D11149F86801F070FE1BE0D7F8F6
:1047E0009020D7F89410F86803F0B8FE0346002B29
:1047F0000DD107F11000D7F89430094A802128F034
:10480000A1FB07F110031946F86801F057FE0549AE
:10481000F86801F053FE9837BD4680BD9407030841
:10482000B40703080CFF020880B5A8B000AFF86019
:10483000B9607A600121B86801F002FFC7F89C00F6
:104840000221B86801F0FCFEC7F89800D7F89C3048
:10485000002B03D0D7F89830002B04D11C49F868FE
:1048600001F02CFE31E0D7F89800FBF743FDC7F8C4
:104870009400D7F89430B3F5005F04D91549F8686F
:1048800001F01CFE21E0D7F89420D7F89810D7F853
:104890009C0003F057FD0346002B0ED107F11400D6
:1048A000D7F89C300C4A802128F04CFB07F1140308
:1048B0001946F86801F002FE03E00849F86801F0C3
:1048C000FDFD0749F86801F0F9FDA037BD4680BD40
:1048D00094070308CC070308B4070308E807030894
:1048E0000CFF020880B586B000AFF860B9607A604E
:1048F0000121B86801F0A4FE78617B69002B04D126
:104900000749F86801F0DAFD07E07969F86803F013
:104910004BFD0449F86801F0D1FD1837BD4680BD54
:10492000000803080CFF020880B584B000AFF860EF
:10493000B9607A6080210B48FEF756FD642015F0BF
:1049400037FF80210748FEF741FD0749F86801F06D
:10495000B5FD0649F86801F0B1FD00BF1037BD464E
:1049600080BD00BF00180258180803080CFF020899
:1049700080B584B000AFF860B9607A604FF48071A0
:104980000748FEF723FD0749F86801F097FD06493F
:10499000F86801F093FD00BF1037BD4680BD00BF31
:1049A00000180258340803080CFF020880B584B0D0
:1049B00000AFF860B9607A604FF480710748FEF785
:1049C00013FD0749F86801F079FD0649F86801F020
:1049D00075FD00BF1037BD4680BD00BF00180258EE
:1049E0005C0803080CFF020880B586B000AFF860D1
:1049F000B9607A600121B86801F022FE78617B69B4
:104A0000002B04D11E49F86801F058FD35E01D491E
:104A10007869FBF765FC0346002B07D11A49F86853
:104A200001F04CFD0120FCF727F822E017497869D6
:104A3000FBF756FC0346002B07D11549F86801F037
:104A40003DFD0220FCF718F813E012497869FBF7E6
:104A500047FC0346002B07D10F49F86801F02EFDF3
:104A60000020FCF709F804E00C49F86801F026FD85
:104A700003E00B49F86801F021FD1837BD4680BD01
:104A800084080308A8080308AC080308DC08030826
:104A9000E008030810090308180903084C09030873
:104AA0000CFF020880B586B000AFF860B9607A608C
:104AB0000121B86801F0C4FD78617B69002B04D145
:104AC0001E49F86801F0FAFC34E01D497869FBF7EB
:104AD00007FC0346002B07D10320FBF7CDFF194944
:104AE000F86801F0EBFC21E017497869FBF7F8FB67
:104AF0000346002B07D10420FBF7BEFF1349F868DB
:104B000001F0DCFC12E012497869FBF7E9FB03468F
:104B1000002B07D10020FBF7AFFF0E49F86801F02A
:104B2000CDFC03E00C49F86801F0C8FC0B49F868BB
:104B300001F0C4FC1837BD4680BD00BF84090308DE
:104B4000A8080308A4090308DC080308EC09030803
:104B50002C0A0308300A0308600A03080CFF020845
:104B600080B588B000AFF860B9607A600121B8689C
:104B700001F066FDB861BB69002B04D11649F868E5
:104B800001F09CFC25E0B869FBF7B4FB78610D21CE
:104B90001248FDF795FE0023FB610AE0BA69FB6944
:104BA00013441B7819460D48FDF78AFEFB69013353
:104BB000FB61FA697B699A42F0D30D210748FDF742
:104BC0007FFE0749F86801F079FC0649F86801F0B2
:104BD00075FC2037BD4680BD940A0308007800406C
:104BE000B00A03080CFF020880B584B000AFF8607B
:104BF000B9607A600949F86801F060FC0849F86812
:104C000001F05CFC0749F86801F058FC0649F868B7
:104C100001F054FC00BF1037BD4680BD040B0308F3
:104C2000280B0308480B03080CFF020890B5ADF2EF
:104C3000544D04AF07F58863A3F23443186007F5B9
:104C40008863A3F58763196007F58863A3F23C4383
:104C50001A601623C7F8343416F01CF8C7F830046D
:104C600007F11400D7F83034734A4FF4807128F0FC
:104C700069F907F1140207F58863A3F2344311467A
:104C8000186801F01BFC07F58A730022D7F834146A
:104C9000184616F00BF8C7F82C04D7F82C34002B64
:104CA00010D107F58863A3F234436449186801F012
:104CB00005FC07F58863A3F234436149186801F0E5
:104CC000FDFBB4E007F11400D7F82C345D4A4FF433
:104CD000807128F037F907F1140207F58863A3F211
:104CE00034431146186801F0E9FB07F58863A3F225
:104CF00034435549186801F0E1FB07F58863A3F2D6
:104D000034435249186801F0D9FB0023C7F83C34FA
:104D100077E007F58863A3F54B71D7F83C24134679
:104D2000DB0013449B000B440C331B78042B21D86D
:104D300001A252F823F000BF4D4D0008554D000868
:104D40005D4D0008654D00086D4D0008404BC7F8EB
:104D5000383413E03F4BC7F838340FE03E4BC7F808
:104D600038340BE03D4BC7F8383407E03C4BC7F80C
:104D7000383403E03B4BC7F8383400BF07F588638D
:104D8000A3F54B71D7F83C241346DB0013449B007A
:104D90000B4404331C6807F58863A3F54B71D7F8FF
:104DA0003C241346DB0013449B000B44103319686A
:104DB00007F58863A3F54B70D7F83C241346DB0056
:104DC00013449B00034420331B6807F11400029333
:104DD0000191D7F8383400932346234A4FF4807169
:104DE00028F0B0F807F1140207F58863A3F2344302
:104DF0001146186801F062FBD7F83C340133C7F85C
:104E00003C34D7F83C24D7F82C349A4281D307F5A8
:104E10008863A3F234430D49186801F04FFB07F58E
:104E20008863A3F234430649186801F047FB07F290
:104E30004447BD4690BD00BF640B0308840B0308C4
:104E40000CFF0208A80B0308BC0B0308EC0B0308BB
:104E5000180C0308200C0308280C0308300C030866
:104E6000380C0308400C0308480C030880B582B0D6
:104E700000AF78600348FEF73BF800BF0837BD4637
:104E800080BD00BF1008002490B587B002AFF86065
:104E9000B9607A601349F86801F010FB124B1B6887
:104EA000002B0AD1114B00930023002264211048EB
:104EB00016F086FF03460C4A13600B4B1B68002B51
:104EC0000BD0094B1C6815F0D5FE02460023009359
:104ED00000230121204616F0CFFF00BF1437BD4646
:104EE00090BD00BF600C0308F49C00246D4E0008C8
:104EF000700C030880B58AB000AFF860B9607A60C2
:104F00000121B86801F09CFB78627B6A002B04D118
:104F10002949F86801F0D2FA4AE02848FEF732FA47
:104F2000034687F8233097F82330032B3BD1786A68
:104F3000FBF7E0F9F861FB69102B04D92049F86808
:104F400001F0BCFA34E00AF015F9B861FB69DBB294
:104F5000FB7507F1170201230021B8690AF072F905
:104F60000346002B04D01749F86801F0A7FA1FE0A8
:104F7000FB69002B0ED0FB699BB27A6A0121B869EC
:104F80000AF060F90346002B04D00F49F86801F0DD
:104F900095FA0DE00D49F86801F090FA0C49F868AF
:104FA00001F08CFA04E00B49F86801F087FA00BFC1
:104FB0002837BD4680BD00BF7C0C030810080024C4
:104FC000A00C0308C80C0308F40C0308180D030810
:104FD0000CFF02083C0D030880B596B000AFF860E6
:104FE000B9607A600121B86801F02AFB7865194937
:104FF000F86801F063FA7B6D002B0BD11649F86855
:1050000001F05CFAF86803F011F81449F86801F04F
:1050100055FA16E00A220021786D27F0C7FE3865A0
:1050200007F110003B6D0E4A402127F08BFF07F17E
:1050300010031946F86801F041FAF968386D03F079
:1050400029F80849F86801F039FA00BF5837BD4619
:1050500080BD00BF6C0D0308840D0308940D030888
:10506000A40D03080CFF020880B584B000AFF860FF
:10507000B9607A60FEF794F980B59EB000AFF86031
:10508000B9607A6003F0FEFD07F11403094A642158
:10509000184627F057FF07F114031946F86801F086
:1050A0000DFA0549F86801F009FA00BF7837BD46E6
:1050B00080BD00BFB80D03080CFF020880B5A0B08A
:1050C00000AFF860B9607A600121B86801F0B8FA01
:1050D000F867FB6F002B0DD107F11403144A64210C
:1050E000184627F02FFF07F114031946F86801F05E
:1050F000E5F919E000220021F86F27F057FEB867A4
:10510000B86F03F0FBFD07F11400BB6F094A64217F
:1051100027F018FF07F114031946F86801F0CEF9DB
:105120000549F86801F0CAF98037BD4680BD00BF67
:10513000D40D0308FC0D03080CFF020890B5A5B0C0
:1051400004AFF860B9607A6003F028FE07F1140339
:1051500018460BF06FFB3B7D1C46FB7D3A7E797E4B
:1051600007F11C000291019200932346084A642132
:1051700027F0E8FE07F11C031946F86801F09EF9D4
:105180000449F86801F09AF900BF8437BD4690BD24
:10519000280E03080CFF0208F0B5BFB008AFF86096
:1051A000B9607A60002387F8D7300023C7F8D03081
:1051B00015E0D7F8D0309BB201339BB21946B868DE
:1051C00001F03EFA0246D7F8D0309B00D8333B447A
:1051D00043F8C82CD7F8D0300133C7F8D030D7F80F
:1051E000D030072BE5DD0023C7F8CC301BE0D7F823
:1051F000CC309B00D8333B4453F8C83C002B0DD136
:1052000007F13003534A9621184627F09BFE07F119
:1052100030031946F86801F051F997E0D7F8CC301F
:105220000133C7F8CC30D7F8CC30072BDFDD0023B3
:10523000C7F8C83033E0D7F8C8309B00D8333B44B8
:1052400053F8C83C00220021184627F0AFFD034662
:1052500087F8C73097F8C730012B0ED907F1300017
:10526000D7F8C8303C4A962127F06CFE07F130038E
:105270001946F86801F022F968E097F8C720D7F8D6
:10528000C83002FA03F35AB297F9D73013435BB22E
:1052900087F8D730D7F8C8300133C7F8C830D7F807
:1052A000C830072BC7DD97F8D730184603F0C6FD86
:1052B00097F8D7E097F8D73003F001033B6097F8F1
:1052C000D7205208D2B202F0010297F8D71089080D
:1052D000C9B201F0010197F8D700C008C0B200F0D0
:1052E000010097F8D7402409E4B204F0010497F8CC
:1052F000D7506D09EDB205F0010597F8D760B609F2
:10530000F6B206F0010697F8D7C04FEADC1C5FFA48
:105310008CFC0CF0010307F1300C07930696059501
:1053200004940390029101923B68009373460B4AE8
:105330009621604627F006FE07F130031946F8680B
:1053400001F0BCF80649F86801F0B8F8DC37BD4652
:10535000F0BD00BF540E0308900E0308CC0E0308E6
:105360000CFF0208F0B5DFB00AAF07F5A873A3F58C
:105370009E73186007F5A873A3F5A073196007F56D
:10538000A873A3F5A2731A6007F5A873A3F5A07319
:105390000121186801F054F9C7F84C0107F5A8730A
:1053A000A3F5A0730221186801F04AF9C7F8480173
:1053B00007F5A873A3F5A0730321186801F040F95D
:1053C000C7F8440107F5A873A3F5A0730421186872
:1053D00001F036F9C7F8400107F5A873A3F5A073EB
:1053E0000521186801F02CF9C7F83C0107F5A873EE
:1053F000A3F5A0730621186801F022F9C7F8380157
:1054000007F5A873A3F5A0730721186801F018F930
:10541000C7F8340107F5A873A3F5A073082118682D
:1054200001F00EF9C7F8300107F5A873A3F5A073D2
:105430000921186801F004F9C7F82C0107F5A873D1
:10544000A3F5A0730A21186801F0FAF8C7F828013B
:10545000D7F84C31002B23D0D7F84831002B1FD080
:10546000D7F84431002B1BD0D7F84031002B17D090
:10547000D7F83C31002B13D0D7F83831002B0FD0A0
:10548000D7F83431002B0BD0D7F83031002B07D0B0
:10549000D7F82C31002B03D0D7F82831002B12D1AC
:1054A00007F11803644A4FF48071184627F04AFD4B
:1054B00007F1180207F5A873A3F59E731146186843
:1054C00000F0FCFFB3E000220021D7F84C0127F0E8
:1054D0006DFC0346A7F8263100220021D7F84801C9
:1054E00027F064FC0346A7F8243100220021D7F8F6
:1054F000440127F05BFC0346A7F82231002200217B
:10550000D7F8400127F052FC034687F821310022EA
:105510000021D7F83C0127F049FC034687F82031E9
:1055200000220021D7F8380127F040FC034687F815
:105530001F3100220021D7F8340127F037FC034641
:1055400087F81E3100220021D7F8300127F02EFC09
:10555000034687F81D3100220021D7F82C0127F0DF
:1055600025FC0346A7F81A3100220021D7F82801AC
:1055700027F01CFC034687F8193197F82141B7F84A
:105580002221B7F82411B7F8260197F819310593AD
:10559000B7F81A31049397F81D31039397F81E3129
:1055A000029397F81F31019397F820310093234617
:1055B00003F086FCB7F826E1B7F82431BB60B7F8F2
:1055C000222197F8211197F8200197F81F4197F8A9
:1055D0001E5197F81D61B7F81A317B6097F819C111
:1055E000634607F1180C08937B68079306960595A8
:1055F0000494039002910192BB68009373460F4A92
:105600004FF48071604627F09DFC07F1180207F502
:10561000A873A3F59E731146186800F04FFF07F5B5
:10562000A873A3F59E730649186800F047FF07F5B5
:10563000AA77BD46F0BD00BF4C0F0308CC0F03088E
:105640000CFF020880B584B000AFF860B9607A60E2
:1056500003F0BCFC0549F86800F030FF0449F86825
:1056600000F02CFF00BF1037BD4680BD1C100308A2
:105670000CFF020880B584B000AFF860B9607A60B2
:1056800003F0E2FC0549F86800F018FF0449F868E7
:1056900000F014FF00BF1037BD4680BD381003086E
:1056A0000CFF020880B5A4B002AFF860B9607A6060
:1056B0000121B86800F0C4FFC7F884000221B8686F
:1056C00000F0BEFFC7F880000321B86800F0B8FF03
:1056D000F867D7F88430002B06D0D7F88030002B3D
:1056E00002D0FB6F002B0DD107F11003254A642176
:1056F000184627F027FC07F110031946F86800F058
:10570000DDFE3BE000220021D7F8840027F04EFBAD
:105710000346A7F87A3000220021D7F8800027F04E
:1057200045FB034687F8793000220021F86F27F007
:105730003DFB0346A7F87630B7F8762097F8791046
:10574000B7F87A30184603F0BDFCB7F87A1097F82E
:105750007930B7F8762007F11000019200930B46DC
:10576000094A642127F0EEFB07F110031946F86897
:1057700000F0A4FE0549F86800F0A0FE8837BD4699
:1057800080BD00BF54100308981003080CFF0208E6
:1057900080B584B000AFF860B9607A6003F0EEFCC9
:1057A0000549F86800F08AFE0449F86800F086FEB2
:1057B00000BF1037BD4680BDD41003080CFF02089F
:1057C00080B584B000AFF860B9607A6003F014FD72
:1057D0000549F86800F072FE0449F86800F06EFEB2
:1057E00000BF1037BD4680BDF81003080CFF02084B
:1057F00080B5B0B004AFF860B9607A600121B868D4
:1058000000F01EFFC7F8AC000221B86800F018FFD6
:10581000C7F8A8000321B86800F012FFC7F8A40079
:105820000421B86800F00CFFC7F8A000D7F8AC302E
:10583000002B0BD0D7F8A830002B07D0D7F8A43016
:10584000002B03D0D7F8A030002B0DD107F11403A3
:105850002B4A8021184627F075FB07F114031946DF
:10586000F86800F02BFE47E000220021D7F8AC00DA
:1058700027F09CFAC7F89C0000220021D7F8A80066
:1058800027F094FA0346A7F89A3000220021D7F8AF
:10589000A40027F08BFA0346A7F8983000220021D5
:1058A000D7F8A00027F082FA0346A7F89630B7F899
:1058B0009630B7F89820B7F89A10D7F89C0003F004
:1058C000D9FCB7F89A30B7F89820B7F8961007F1D6
:1058D0001400029101920093D7F89C30094A80216C
:1058E00027F030FB07F114031946F86800F0E6FDD5
:1058F0000549F86800F0E2FDB037BD4680BD00BF45
:105900001C110308541103080CFF020880B5A0B055
:1059100000AFF860B9607A600121B86800F090FECD
:10592000F867FB6F002B0DD107F11403164A6421B1
:10593000184627F007FB07F114031946F86800F032
:10594000BDFD1EE000220021F86F27F02FFA03466C
:1059500087F87B3097F87B30184603F003FD97F803
:105960007B3007F11400094A642127F0EBFA07F1B4
:1059700014031946F86800F0A1FD0549F86800F025
:105980009DFD8037BD4680BDA0110308C8110308E6
:105990000CFF020880B5A0B000AFF860B9607A6073
:1059A0000121B86800F04CFEF867FB6F002B0DD1A9
:1059B00007F11403164A6421184627F0C3FA07F1C9
:1059C00014031946F86800F079FD1EE0002200215A
:1059D000F86F27F0EBF9034687F87B3097F87B30B8
:1059E000184603F005FD97F87B3007F11400094ACB
:1059F000642127F0A7FA07F114031946F86800F0AC
:105A00005DFD0549F86800F059FD8037BD4680BD51
:105A1000F8110308181203080CFF020880B584B0BF
:105A200000AFF860B9607A6003F028FD0549F868B6
:105A300000F044FD0449F86800F040FD00BF103755
:105A4000BD4680BD401203080CFF020880B584B03B
:105A500000AFF860B9607A6003F04EFD0549F86860
:105A600000F02CFD0449F86800F028FD00BF103755
:105A7000BD4680BD601203080CFF020880B5A0B0CF
:105A800000AFF860B9607A600121B86800F0D8FD15
:105A9000F867FB6F002B0DD107F11403164A642140
:105AA000184627F04FFA07F114031946F86800F07A
:105AB00005FD1EE000220021F86F27F077F903466C
:105AC00087F87B3097F87B30184603F053FD97F842
:105AD0007B3007F11400094A642127F033FA07F1FB
