:020000040800F2
:1000000000000824BD920108FD8D0108058E01083D
:100010000D8E0108158E01081D8E010800000000DC
:10002000000000000000000000000000E13D0108A9
:10003000258E010800000000A140010809410108C7
:1000400011930108119301081193010811930108FC
:1000500011930108119301081193010811930108EC
:10006000119301081193010811930108358E0108BD
:10007000B98E010811930108119301081193010829
:1000800011930108119301081193010811930108BC
:1000900011930108119301081193010811930108AC
:1000A000119301083D8F0108119301081193010874
:1000B000119301081193010811930108119301088C
:1000C000119301081193010811930108119301087C
:1000D00011930108498F0108818F010811930108CC
:1000E0001193010811930108000000001193010809
:1000F000119301081193010811930108B98F0108A8
:10010000119301080190010811930108119301084E
:10011000119301081193010811930108159001082A
:100120001193010829900108119301081193010806
:10013000119301081193010811930108119301080B
:100140001193010811930108000000000000000055
:1001500011930108119301081193010811930108EB
:1001600011930108119301081193010811930108DB
:100170001193010811930108119301080000000078
:100180001193010811930108AD9001081193010822
:1001900011930108E5900108F390010811930108FB
:1001A000119301081193010811930108119301089B
:1001B000119301081193010811930108119301088B
:1001C000119301081193010811930108119301087B
:1001D000119301081193010811930108119301086B
:1001E000119301081193010811930108119301085B
:1001F000119301081193010811930108119301084B
:10020000119301081193010811930108119301083A
:10021000119301081193010811930108119301082A
:1002200011930108119301080191010800000000D9
:10023000119301081193010811930108119301080A
:1002400011930108159101082191010811930108EA
:1002500011930108119301081193010811930108EA
:1002600011930108119301081193010811930108DA
:1002700011930108119301081193010811930108CA
:100280001193010811930108119301080000000067
:0802900011930108119301080C
:1002A00010B5054C237833B9044B13B10448AFF3B0
:1002B00000800123237010BD484A01240000000083
:1002C0000431020808B5034B1BB103490348AFF3DF
:1002D000008008BD000000004C4A012404310208DF
:1002E00010F8012B11F8013B012A28BF9A42F7D0E0
:1002F000D01A7047034613F8012B002AFBD1181AB5
:1003000001387047000000000000000000000000FD
:1003100001F0FF01102A2BDB10F0070F08D010F8B6
:10032000013B013A8B422DD010F0070F42B3F6D1BA
:10033000F0B441EA012141EA014122F007047FF0D3
:1003400000070023F0E80256083C85EA010586EA2A
:10035000010685FA47F5A3FA87F586FA47F6A5FA66
:1003600087F68EB9EED1F0BC01F0FF0102F0070272
:1003700032B110F8013B013A83EA010313B1F8D11D
:100380000020704701387047002D06BF35460338FE
:10039000073815F0010F07D1013015F4807F02BF37
:1003A000013015F4C03F0130F0BC0138704700BF88
:1003B00053B94AB9002908BF00281CBF4FF0FF31CC
:1003C0004FF0FF3000F088B9ADF1080C6DE904CEB4
:1003D00000F006F8DDF804E0DDE9022304B0704720
:1003E0002DE9F047089D8E4604468846002B4AD1E9
:1003F0008A42174662D9B2FA82F64EB1C6F120039C
:1004000001FA06F820FA03F3B74043EA0808B440BB
:100410004FEA174E1FFA87FCB8FBFEF1230C0EFBC8
:10042000118843EA084301FB0CF29A4209D9FB18F0
:1004300001F1FF3080F0EA809A4240F2E780023911
:100440003B449A1AA3B2B2FBFEF00EFB102243EA21
:10045000024300FB0CFC9C4509D9FB1800F1FF325C
:1004600080F0D6809C4540F2D3803B44023840EA7D
:100470000140A3EB0C0300211DB1F3400022C5E9AC
:100480000032BDE8F0878B4205D90DB1C5E9000106
:1004900000210846F5E7B3FA83F1002946D17345F8
:1004A00002D3824200F20581841A6EEB030201201E
:1004B0009046002DE5D0C5E90048E2E7002A00F0AB
:1004C0009080B2FA82F6002E40F0A4808A1A030CC3
:1004D0004FEA174E80B2BCB20121B2FBFEFC0EFB0C
:1004E0001C2243EA024304FB0CF29A4207D9FB1890
:1004F0000CF1FF3802D29A4200F2E080C4469B1A07
:10050000B3FBFEF20EFB123340EA034302FB04F49A
:100510009C4207D9FB1802F1FF3002D29C4200F244
:10052000CA8002461B1B42EA0C40A5E7C1F1200627
:100530008B4022FA06F71F430EFA01F420FA06F365
:100540002EFA06FE4FEA1749234300FA01F81FFA74
:1005500087FCBEFBF9F01C0C09FB10EE44EA0E44CC
:1005600000FB0CFEA64502FA01F209D93C1900F184
:10057000FF3A80F09C80A64540F2998002383C44C6
:10058000A4EB0E041FFA83FEB4FBF9F309FB13443A
:100590004EEA044403FB0CFCA44508D93C1903F1C2
:1005A000FF3E80F08280A4457FD9023B3C4443EA71
:1005B0000040A4EB0C04A0FB02EC64457346E1464A
:1005C00062D35FD05DB1B8EB030264EB090404FAB7
:1005D00006F622FA01F31E43CC40C5E9006400216F
:1005E0004FE7B1FBF2FC010C41EA0E4180B240EA58
:1005F00001423B4638463C46B846BE462026B1FB43
:10060000F7F1A2EB080241EA0C4166E7014618E760
:1006100010462CE7C6F120022EFA02F3B740B14093
:1006200020FA02F24FEA174E0A43B3FBFEF8BCB2BF
:100630000EFB1833110C41EA034108FB04F9B040EA
:1006400089454FEA104380B23ED9791808F1FF3C42
:1006500001D289451FD8A1EB0901B1FBFEF909FBC5
:1006600004F80EFB191192B242EA0142424529D226
:10067000BA1809F1FF31C4D24245C2D2A9F1020130
:100680003A44BEE7F0459DD2BEEB02036CEB070C8B
:100690000138E14696E7A7EB09094944A8F1020CA5
:1006A000B1FBFEF909FB04F8DBE773467FE7504630
:1006B00066E70846FDE63B44023A33E7ACF1020C3C
:1006C0003B441CE749469CE7A1EB0901C446B1FB4A
:1006D000FEF909FB04F8C4E7704700BF80B582B09B
:1006E00000AF0123FB711C4B01221A701B4808F05C
:1006F000C1F810221A491B4808F014FA01F034FE20
:100700000346FB7108F0AEF909F034FD002001F05A
:10071000CDFB154A0221002007F0E0FD124A00211E
:10072000002007F0DBFD104A0121002007F0D6FD74
:100730000D4A0321002007F0D1FD0B4A04210020BF
:1007400007F0CCFD084A0521002007F0C7FDFB7922
:1007500018460837BD4680BD644A01240058004051
:1007600000100258003401401C31020880B500AF6F
:10077000044A0221002007F0B1FD00F0EDF800BFAF
:1007800080BD00BF3031020880B582B000AF0123C8
:10079000FB71114B02221A70104A0021002007F051
:1007A0009DFD09F0BDFE0346FB7109F0B9FE03464D
:1007B000002B05D10A4A0221002007F081FC05E048
:1007C000054AFB799370044B07221A70FB7918468F
:1007D0000837BD4680BD00BF644A01244431020889
:1007E0005C31020880B582B000AF204B03221A7042
:1007F0000123FB711E4A0021002007F06FFD04F069
:100800004BFC0346FB71FB79002B0BD0194A0421EA
:10081000012007F055FC154AFB799370134B072212
:100820001A7004E0144A0221002007F049FC06F087
:1008300083FE0346FB71FB79002B0BD00F4A04218A
:10084000012007F03DFC094AFB799370074B072212
:100850001A7004E00A4A0221002007F031FC07F078
:10086000DBFEFB7918460837BD4680BD644A01248B
:100870006C31020884310208A0310208BC31020840
:10088000D031020880B582B000AF214B04221A702B
:100890000123FB711F4A0021002007F01FFD08F013
:1008A000E5FF0346FB71FB79002B0BD01A4A0421AC
:1008B000012007F005FC164AFB799370144B0722C0
:1008C0001A7004E0154A0221002007F0F9FB1022FB
:1008D0001349144808F090FC0346FB71FB79002B88
:1008E0000BD0114A0421012007F0EAFB084AFB79EA
:1008F0009370074B07221A7004E00C4A0221002073
:1009000007F0DEFBFB7918460837BD4680BD00BF07
:10091000644A0124E8310208003202081832020851
:100920000000025800140058303202084832020811
:1009300080B500AF064B05221A70054B06221A70CF
:10094000044A0021002007F0C9FC0023184680BD9E
:10095000644A01246032020880B500AF00F0E6F975
:1009600000BF80BD80B5C2B000AF07F58473A3F5AA
:100970008273186007F58473A3F58473196007F513
:100980008473A3F5847307F108001B68084A4FF4C9
:10099000807121F08FFA07F1080301221946052022
:1009A00007F040FD00BF07F58477BD4680BD00BF5E
:1009B0007832020880B5C0B000AF3B46084A4FF419
:1009C0008071184621F076FA3B460122194605202F
:1009D00007F028FD00BF07F58077BD4680BD00BF4A
:1009E0009432020880B483B000AF786039607B68CD
:1009F0005A693B6813403A689A4201D1012300E0EA
:100A0000002318460C37BD465DF8047B704780B460
:100A100083B000AF786039607B683A689A6100BF44
:100A20000C37BD465DF8047B704780B483B000AFDF
:100A3000786039603B681A047B689A6100BF0C37A4
:100A4000BD465DF8047B704780B500AF4FF4804130
:100A50000648FFF7DCFF4FF400410448FFF7D7FFDB
:100A6000032000F005F800BF80BD00BF001402584D
:100A700080B582B000AF0346FB71FB79032B37D8FA
:100A800001A252F823F000BF990A0008AF0A00083B
:100A9000C50A0008DB0A00084FF480411C48FFF734
:100AA000C4FF4FF400411A48FFF7BFFF2BE04FF49B
:100AB00080411748FFF7B9FF4FF400411448FFF792
:100AC000A6FF20E04FF480411148FFF7A0FF4FF44C
:100AD00000410F48FFF7A9FF15E04FF480410C4893
:100AE000FFF795FF4FF400410948FFF790FF0AE038
:100AF0004FF480410648FFF798FF4FF40041044847
:100B0000FFF793FF00BF00BF0837BD4680BD00BFA1
:100B10000014025880B582B000AF4FF480411948EC
:100B2000FFF760FF0346002B14BF01230023DBB255
:100B3000FB714FF400411348FFF754FF0346002BAD
:100B400014BF01230023DBB2BB71FB79002B04D15E
:100B5000BB79002B01D1002310E0FB79002B04D1DD
:100B6000BB79012B01D1012308E0FB79012B04D1D2
:100B7000BB79002B01D1022300E00323184608377C
:100B8000BD4680BD0014025880B483B000AF034658
:100B9000FB71064AFB791370054B00221A7000BFE7
:100BA0000C37BD465DF8047B704700BF674A0124DF
:100BB000684A012480B400AF034B1B781846BD4639
:100BC0005DF8047B704700BF674A012480B483B09E
:100BD00000AF0346FB71FB795C2B06D10E4B1B78F3
:100BE0000133DAB20C4B1A7002E00B4B00221A7080
:100BF000094B1B78092B07D9084B00221A70064BAA
:100C000000221A70012300E0002318460C37BD466D
:100C10005DF8047B704700BF684A0124674A0124DD
:100C200080B483B000AF78607B68DB6903F0400379
:100C3000402B01D1012300E0002318460C37BD46AC
:100C40005DF8047B704780B483B000AF78607B6848
:100C5000DB6903F08003802B01D1012300E0002336
:100C600018460C37BD465DF8047B704780B483B0EE
:100C700000AF78600B46FB70FA787B689A6200BF21
:100C80000C37BD465DF8047B704780B483B000AF7D
:100C9000786039607B683A689A6100BF0C37BD465E
:100CA0005DF8047B704780B483B000AF7860396032
:100CB0003B681A047B689A6100BF0C37BD465DF83B
:100CC000047B704780B584B000AF0346FB71FB79AD
:100CD000FB73FB7B1946034801F0FCFC00BF103797
:100CE000BD4680BD0010014080B582B000AF786085
:100CF0000B4A0221002007F0F1FA00F043F8034606
:100D0000002B07D0074A0421012007F0D9F9064B30
:100D100002225A70002010F04FFF00BFFDE700BF15
:100D2000AC320208C03202086C4A012480B586B099
:100D300004AF0F4B02930F4B019305230093002345
:100D40004FF4A0620C490D4810F083FD78607B6879
:100D5000002B06D10A4A0521012007F0B1F900BF96
:100D6000FDE711F0CFF800BF0837BD4680BD00BFDA
:100D7000CC5E0124CC4A0124E8320208E90C0008C8
:100D8000F8320208F0B5CFB006AF012387F817316B
:100D9000FFF7FAFC034687F8173197F81731002B55
:100DA00005D0C94A0521012007F08AF904E0C74AA5
:100DB0000021002007F084F9FFF714FD034687F8AF
:100DC000173197F81731002B05D0C14A05210120B2
:100DD00007F076F904E0BF4A0021002007F070F91F
:100DE000FFF750FD034687F8173197F81731002BAE
:100DF00005D0B94A0521012007F062F904E0B74A9D
:100E00000021002007F05CF9FFF792FD034687F808
:100E1000173197F81731002B05D0B14A0521012071
:100E200007F04EF904E0AF4A0021002007F048F92E
:100E300006F032FA06F096FE97F81731002B05D02F
:100E4000A94A0521012007F03BF904E0A74A002147
:100E5000002007F035F907F59073A3F5887318465D
:100E60004FF480731A46002121F0E9F80023C7F8F7
:100E7000103107F10803184609F0C0F9D7F810310E
:100E800007F11002D018D7F81031C3F5807107F5BB
:100E90009073A3F58C739B789C4607F59073A3F52C
:100EA0008C735B781A4607F59073A3F58C731B78E7
:100EB0001C4607F59073A3F58C73DB781D4607F588
:100EC0009073A3F58C731B791E4607F59073A3F5F9
:100ED0008C735B79049303960295019400926346A8
:100EE000834A20F0E7FF0246D7F810311344C7F8D1
:100EF000103107F59073A3F2191300221A7007F549
:100F00009073A3F58D7300221A7007F59073A3F206
:100F10001B1300221A707B1DBA1DF91D002009F059
:100F2000C7F9D7F8103107F11002D018D7F81031EF
:100F3000C3F5807107F59073A3F219131B781C4653
:100F400007F59073A3F58D731B781A4607F5907318
:100F5000A3F21B131B78019300922346654A20F0ED
:100F6000A9FF0246D7F810311344C7F81031D7F85B
:100F7000103107F11002D018D7F81031C3F5807383
:100F80005D4A194620F096FF0246D7F81031134407
:100F9000C7F810310023C7F81C3117E000BF5748CD
:100FA000FFF751FE0346002BF9D007F59073A3F528
:100FB0008872D7F81C3113441B7819464F48FFF745
:100FC00055FED7F81C310133C7F81C3107F5907373
:100FD000A3F58872D7F81C3113441B78002BDDD1A0
:100FE00000BF4648FFF71CFE0346002BF9D0002344
:100FF000C7F8183117E000BF4148FFF724FE034649
:10100000002BF9D007F59073A3F58872D7F8183143
:1010100013441B7819463A48FFF728FED7F81831D1
:101020000133C7F8183107F59073A3F58872D7F824
:10103000183113441B78002BDDD100BF3048FFF777
:10104000EFFD0346002BF9D0002301930223009308
:1010500000234FF420622B492B4810F05EFC03461E
:10106000012B01D00123EDE0002301930123009324
:1010700000234FF420622549254810F04EFC03461A
:10108000012B01D00123DDE0002301930123009314
:1010900000234FF4A0621F491F4810F03EFC034696
:1010A000012B01D00123CDE0002301930123009304
:1010B00000234FF420721949194810F02EFC034602
:1010C000012B2FD00123BDE0143302083433020872
:1010D000483302086833020878330208983302085C
:1010E000A8330208C4330208D8330208EC330208DC
:1010F000F833020828340208443402080010014082
:1011000000440040783402081D7300088834020847
:10111000E51500089434020835860008A03402085A
:10112000A51200084A4801F0F5F803460022019292
:10113000012200924FF420624649474810F0EDFB2F
:101140000346012B01D001237CE0444801F0E2F882
:10115000034600220192012200924FF4206240498E
:10116000404810F0DAFB0346012B01D0012369E06F
:10117000002301930123009300234FF4A0623A4916
:101180003A4810F0CAFB0346012B01D0012359E075
:101190000023019301230093002380223449354822
:1011A00010F0BBFB0346012B01D001234AE00023D2
:1011B000019301230093002380222F492F4810F030
:1011C000ACFB0346012B01D001233BE0002301933C
:1011D0000123009300234FF420722949294810F07D
:1011E0009CFB0346012B01D001232BE0264801F094
:1011F00091F8034600220192012200924FF42062EE
:101200002249234810F089FB0346012B01D001231A
:1012100018E00023019301230093002380221D493D
:101220001D4810F07AFB0346012B01D0012309E091
:10123000012010F065FD1949194801F00DFD05F078
:10124000D1FD0023184607F59277BD46F0BD00BFDB
:1012500000440040B0340208011500080078004046
:10126000C034020865140008CC340208F1120008EA
:10127000DC340208FD150008E434020831160008C9
:10128000EC3402086516000800100140F43402082E
:101290005513000808350208A9160008C50C0008F7
:1012A000704A012480B582B000AF786008F092FDEA
:1012B0000D4B1B6801330C4A13600B4B1B68B3F5D5
:1012C000E15F0CD9084B00221A6009F029F90346A6
:1012D000002B04D100220549022007F0A3F84FF4A7
:1012E0007A7010F00DFDE1E7284701241835020857
:1012F00080B584B000AF786003F066FF03461846FF
:1013000004F07BF8114801F03BFF0346FB73FB7BC5
:10131000032B02D0FB7B042B13D10C4B1B6A012B3C
:1013200009D103F045FF03460949184604F0F6F8D1
:10133000064B00221A6203F03BFF0346184604F0F6
:101340005CF84FF4FA7010F0DBFCD5E7704A01242A
:101350002835020880B586B000AF78607B687B6175
:101360007B695B6E4FF0FF3118460FF00BFE0346B2
:10137000012B6DD162E0FFF71DFC0346FB73FB7B85
:10138000022B15D13B69DBB21946334801F0A2F9B3
:101390003B69DBB21846FFF719FC0346002B4DD022
:1013A00003F006FF03462D49184604F0B7F845E060
:1013B000FB7B042B1ED13B69DBB21846FFF706FC12
:1013C0000346002B06D003F0F3FE034623491846DC
:1013D00004F0A4F803F0ECFE02463B69DBB21946C8
:1013E000104603F0E7FF03F0E3FE0346184604F05F
:1013F00004F823E01A4801F0C3FE0346BB73BB7B2D
:10140000032B02D0BB7B042B12D1154801F012FC38
:1014100003F0CEFE02463B69DBB21946104603F0EC
:10142000C9FF03F0C5FE0346184603F0E6FF05E0DA
:101430003B69DBB219460A4801F01EFD7B691B6857
:10144000184601F081FA38613B69B3F1FF3F92D150
:10145000012010F055FC83E7007800402C3502088D
:10146000704A012480B586B000AF78607B687B61EC
:101470007B695B6E002118460FF084FD0346012B4B
:1014800035D12AE0FFF796FB0346FB73FB7B012B6C
:1014900006D13B69DBB21946174801F01BF91CE085
:1014A000FB7B022B06D13B69DBB21946134801F0E6
:1014B00011F912E0FB7B032B06D13B69DBB2194625
:1014C0000D4801F007F908E0FB7B042B05D13B69CF
:1014D000DBB21946094801F0FDF87B691B68184624
:1014E00001F032FA38613B69B3F1FF3FCAD1012004
:1014F00010F006FCBCE700BF0044004000100140B3
:1015000080B586B000AF78607B687B617B695B6E7D
:101510004FF0FF3118460FF035FD0346012B58D12F
:101520004DE0FFF747FB0346FB73FB7B012B15D117
:101530003B69DBB21946294801F0CCF83B69DBB2C4
:101540001846FFF743FB0346002B38D003F03CFE60
:1015500003462349184603F0E1FF30E0FB7B032BF1
:101560001ED13B69DBB21846FFF730FB0346002B68
:1015700006D003F029FE03461949184603F0CEFFB2
:1015800003F022FE02463B69DBB21946104603F027
:1015900011FF03F019FE0346184603F02EFF0EE07C
:1015A00003F012FE02463B69DBB21946104603F017
:1015B00001FF03F009FE0346184603F01EFF7B6996
:1015C0001B68184601F0C0F938613B69B3F1FF3F71
:1015D000A7D1012010F094FB98E700BF00780040ED
:1015E0002C35020880B582B000AF786006F0EAFAC8
:1015F000012010F085FB00BFF8E7000080B582B045
:1016000000AF78604FF480710848FFF74CFB4FF44F
:101610007A7010F075FB4FF480710448FFF735FBCA
:101620004FF47A7010F06CFB00BFEBE7000C02582F
:1016300080B582B000AF78604FF400710848FFF7C2
:1016400024FB4FF47A7010F05BFB4FF400710448F8
:10165000FFF729FB4FF47A7010F052FB00BFEBE765
:10166000000C025880B592B000AF78600C4B1B782C
:101670005A1CD1B20A4A117007F10800094A4021E8
:1016800020F018FC07F1080300221946022006F09A
:10169000C9FE4EF6602010F033FB00BFE6E700BF46
:1016A000285F01246035020880B582B000AF786001
:1016B00007F0E8F907F002FA0346012B03D1C8202E
:1016C00010F01EFBF4E74FF4167010F019FBEFE773
:1016D00080B483B000AF78607B689B6903F001033E
:1016E000012B01D1012300E0002318460C37BD4631
:1016F0005DF8047B704780B483B000AF78607B688E
:101700009B6903F00203022B01D1012300E00023B7
:1017100018460C37BD465DF8047B704780B483B033
:1017200000AF78607B689B6903F00403042B01D150
:10173000012300E0002318460C37BD465DF8047B0A
:10174000704780B483B000AF78607B689B6903F01A
:101750001003102B01D1012300E0002318460C37A1
:10176000BD465DF8047B704780B483B000AF7860FD
:101770007B689B6903F40043B3F5004F01D101235B
:1017800000E0002318460C37BD465DF8047B704727
:1017900080B483B000AF786039607B685B6823F405
:1017A00000423B681A437B685A6000BF0C37BD4655
:1017B0005DF8047B7047000080B487B000AFF8602C
:1017C000B9607A603B60BB68C3F309027B6803F4CD
:1017D00000631A433B681B0403F47F031A433B6A0C
:1017E0001A437B6A134323F000437B61FB685A680A
:1017F0007B6A5B0D03F48061064B0B43DB431A40AD
:101800007B691A43FB685A6000BF1C37BD465DF810
:10181000047B7047FF7BFF0380B483B000AF786028
:101820007B685B6ADBB218460C37BD465DF8047B0B
:10183000704780B483B000AF78600B46FB70FA78D5
:101840007B689A6200BF0C37BD465DF8047B704729
:1018500080B588B002AFF8607B600B46FB72134620
:10186000BB7208F0D1FF38610DE008F0CDFF0246F1
:101870003B69D31A0A2B06D9FB681B68184615F07A
:1018800037FA022396E0FB681B681846FFF76CFFE7
:101890000346002BE9D1FB681868FB7A590097F8DA
:1018A000203001331A46454B01934FF000730093EB
:1018B00013460022FFF780FF08F0A6FF386117E00B
:1018C000FB681B681846FFF73CFF0346002B01D05E
:1018D00001236FE008F098FF02463B69D31A0A2BF8
:1018E00006D9FB681B68184615F002FA032361E06D
:1018F000FB681B681846FFF7FEFE0346002BDFD08F
:10190000FB681B68BA7A11461846FFF792FF00235E
:10191000FB752FE008F078FF386117E0FB681B6863
:101920001846FFF70EFF0346002B01D0012341E0CC
:1019300008F06AFF02463B69D31A0A2B06D9FB68F6
:101940001B68184615F0D4F9032333E0FB681B68C5
:101950001846FFF7D0FE0346002BDFD0FB6818685F
:10196000FB7D7A6813441B781946FFF762FFFB7D05
:101970000133FB75FA7D97F820309A42CAD308F0FC
:1019800043FF38610DE008F03FFF02463B69D31A80
:101990000A2B06D9FB681B68184615F0A9F9032322
:1019A00008E0FB681B681846FFF792FE0346002B11
:1019B000E9D0002318461837BD4680BD00200080BE
:1019C00090B589B002AFF8607B600B46FB7213469E
:1019D000BB7208F019FF38610DE008F015FF0246F0
:1019E0003B69D31A0A2B06D9FB681B68184615F009
:1019F0007FF90223B8E0FB681B681846FFF7B4FEC6
:101A00000346002BE9D1FB681868FB7A5900584B54
:101A100001930023009301230022FFF7CDFE08F07D
:101A2000F3FE386117E0FB681B681846FFF789FE74
:101A30000346002B01D0012396E008F0E5FE0246A4
:101A40003B69D31A0A2B06D9FB681B68184615F0A8
:101A50004FF9032388E0FB681B681846FFF74BFE2D
:101A60000346002BDFD0FB681B68BA7A1146184684
:101A7000FFF7DFFE08F0C8FE386117E0FB681B685F
:101A80001846FFF75EFE0346002B01D001236BE0F2
:101A900008F0BAFE02463B69D31A0A2B06D9FB6846
:101AA0001B68184615F024F903235DE0FB681B68EA
:101AB0001846FFF70DFE0346002BDFD0FB681B68BE
:101AC00000211846FFF764FEFB681868FB7A59008E
:101AD000FB7A5B0043F001031C4697F82830254A47
:101AE00001924FF0007200922246FFF765FE08F067
:101AF0008BFE38610023FB7530E008F085FE38610D
:101B000017E0FB681B681846FFF71BFE0346002B17
:101B100001D0012328E008F077FE02463B69D31A82
:101B20000A2B06D9FB681B68184615F0E1F8032359
:101B30001AE0FB681B681846FFF7F0FD0346002B10
:101B4000DFD0FB681968FB7D7A68D4180846FFF778
:101B500063FE03462370FB7D0133FB75FA7D97F826
:101B600028309A42C9D3002318461C37BD4690BD81
:101B7000002000800024008080B584B000AF786031
:101B80000023FB60786800F095F8786800F00BF8A7
:101B90000346002B02D06FF00303FB60FB6818467E
:101BA0001037BD4680BD80B584B000AF786000239B
:101BB000FB73786818F036FB0346002B01D0012335
:101BC000FB73FB7B18461037BD4680BD80B586B0E1
:101BD00000AFF860B9607A603B603B687A68B968CA
:101BE000F86818F01BFC0346002B03D06FF00303CA
:101BF0007B6101E000237B617B6918461837BD4695
:101C000080BD80B586B000AFF860B9607A603B6097
:101C10003B687A68B968F86818F0C4FC0346002B82
:101C200003D06FF003037B6101E000237B617B69DC
:101C300018461837BD4680BD80B582B000AF7860C9
:101C4000786819F0C3FA0346042B14BF012300235C
:101C5000DBB218460837BD4680BD80B584B000AF02
:101C6000786039603968786819F0C0F80346002B4D
:101C700003D06FF00303FB6001E00023FB60FB680F
:101C800018461037BD4680BD80B582B000AF786081
:101C900078680EF05FFA00BF0837BD4680BD80B59A
:101CA00082B000AF786078680EF07EFA00BF083727
:101CB000BD4680BD80B582B000AF7860786816F010
:101CC00089FD00BF0837BD4680BD80B483B000AF3A
:101CD00078607B681B6803F00103012B01D10123AD
:101CE00000E0002318460C37BD465DF8047B7047C2
:101CF00080B483B000AF78607B685B6903F0010358
:101D0000012B01D1012300E0002318460C37BD460A
:101D10005DF8047B704780B483B000AF78607B6867
:101D20005B6903F48053B3F5805F01D1012300E0C8
:101D3000002318460C37BD465DF8047B704780B41D
:101D400083B000AF78607B6830331B78DBB2184615
:101D50000C37BD465DF8047B704780B483B000AF9C
:101D600078600B46FB707B682033FA781A7000BFEE
:101D70000C37BD465DF8047B704780B586B000AF78
:101D8000F8600B467A60FB72F868FFF79EFF034627
:101D9000002B01D1012335E008F036FD7861FB7A94
:101DA0001946F868FFF7D9FF08E008F02DFD024654
:101DB0007B69D31A0A2B01D9032323E0F868FFF7C4
:101DC000AAFF0346002BF0D008F01EFD786108E062
:101DD00008F01AFD02467B69D31A0A2B01D90323A6
:101DE00010E0F868FFF784FF0346002BF0D07B6813
:101DF000002B06D0F868FFF7A2FF03461A467B685F
:101E00001A70002318461837BD4680BD80B584B0CF
:101E100000AF78600B46FB707868FFF756FF03460B
:101E2000002B01D101231BE008F0EEFCF860FB78E9
:101E300019467868FFF791FF08E008F0E5FC0246D4
:101E4000FB68D31A0A2B01D9032309E07868FFF74E
:101E500062FF0346002BF0D07868FFF770FF002385
:101E600018461037BD4680BD80B582B000AF03462E
:101E7000FB71FB79002B10D1FB79002B06D14FF4BD
:101E800080620021074820F0DAF807E04FF4806212
:101E90000021054820F0D3F800E000BF0837BD4618
:101EA00080BD00BF00F8003800FC003880B582B06B
:101EB00000AF0346FB71FB79002B04D1FB79184678
:101EC000FFF7D2FF00E000BF0837BD4680BD80B4F9
:101ED00083B000AF78607B681B6843F001027B68C9
:101EE0001A6000BF0C37BD465DF8047B704780B4B4
:101EF00083B000AF78607B681B6823F001027B68C9
:101F00001A6000BF0C37BD465DF8047B704780B493
:101F100083B000AF78607B68DB6903F04003402B3F
:101F200001D1012300E0002318460C37BD465DF8BF
:101F3000047B704780B483B000AF78607B68DB6956
:101F400003F08003802B01D1012300E00023184619
:101F50000C37BD465DF8047B704780B489B000AF94
:101F600078607B68FB60FB6853E8003FBB60BB6840
:101F700043F01003FB617B68FA69BA617B617969A0
:101F8000BA6941E800233B613B69002BE9D100BFFE
:101F900000BF2437BD465DF8047B704780B489B02C
:101FA00000AF78607B68FB60FB6853E8003FBB6074
:101FB000BB6843F08003FB617B68FA69BA617B61AF
:101FC0007969BA6941E800233B613B69002BE9D19B
:101FD00000BF00BF2437BD465DF8047B704780B466
:101FE00089B000AF78607B68FB60FB6853E8003F16
:101FF000BB60BB6823F08003FB617B68FA69BA6150
:102000007B617969BA6941E800233B613B69002B38
:10201000E9D100BF00BF2437BD465DF8047B70479F
:1020200080B483B000AF78607B681B6803F08003E6
:10203000802B01D1012300E0002318460C37BD4658
:102040005DF8047B704780B489B000AF78607B682E
:102050000833FB60FB6853E8003FBB60BB6843F09C
:102060004003FB617B680833FA69BA617B61796977
:10207000BA6941E800233B613B69002BE7D100BF0F
:1020800000BF2437BD465DF8047B704780B485B03F
:1020900000AF786039603B68002B03D17B68283340
:1020A000FB6002E07B682433FB60FB681846143752
:1020B000BD465DF8047B704780B483B000AF7860A4
:1020C0000B46FB70FA787B689A6200BF0C37BD46FE
:1020D0005DF8047B7047000080B485B000AF786085
:1020E00039607B68FB600C4A3B6813441B781A46D6
:1020F000FB6813441B6808493A680A441278114681
:10210000FA680A4443F00103136000BF1437BD4668
:102110005DF8047B704700BFB85B020880B485B0EF
:1021200000AF786039607B68FB600C4A3B68134401
:102130001B781A46FB6813441B6808493A680A442E
:1021400012781146FA680A4423F00103136000BFB5
:102150001437BD465DF8047B704700BFB85B0208CA
:1021600080B487B000AFF860B9607A60FB687B61CB
:102170000D4ABB6813441B781A467B6913445A689E
:102180000A4B13400849BA680A44127811467A6922
:102190000A4411467A6813434B6000BF1C37BD46A2
:1021A0005DF8047B704700BFB85B02080000FFFFCA
:1021B00080B485B000AF786039607B68FB60074A07
:1021C0003B6813441B781A46FB6813445B689BB258
:1021D00018461437BD465DF8047B7047B85B0208AB
:1021E00080B487B000AFF860B9607A60FB687B614B
:1021F000074ABB6813441B781A467B6913441A4686
:102200007B68D36000BF1C37BD465DF8047B704718
:10221000B85B020880B487B000AFF860B9607A603C
:10222000FB687B61074ABB6813441B781A467B69CD
:1022300013441A467B68936000BF1C37BD465DF8A7
:10224000047B7047B85B020880B485B000AF78604B
:1022500039607B68FB600C4A3B6813441B781A4664
:10226000FB6813441B6808493A680A44127811460F
:10227000FA680A4443F00803136000BF1437BD46F0
:102280005DF8047B704700BFB85B020880B485B07E
:1022900000AF786039607B68FB600C4A3B68134490
:1022A0001B781A46FB6813441B6808493A680A44BD
:1022B00012781146FA680A4443F00403136000BF21
:1022C0001437BD465DF8047B704700BFB85B020859
:1022D00080B485B000AF786039607B68FB600C4AE1
:1022E0003B6813441B781A46FB6813441B68084973
:1022F0003A680A4412781146FA680A4443F0100317
:10230000136000BF1437BD465DF8047B704700BF03
:10231000B85B020880B485B000AF78600023FB6032
:1023200015E01049FA6813465B019B1A9B000B44A9
:102330001B687A689A4207D1FA6813465B019B1AB8
:102340009B00084A134406E0FB680133FB60FB680E
:10235000022BE6DD002318461437BD465DF8047BEA
:10236000704700BF2C470124B0B584B002AF0023F2
:102370007B6022E0B5497A6813465B019B1A9B009B
:102380000B441B681846FFF7B2FDB0497A68134644
:102390005B019B1A9B000B4468331868AB497A6851
:1023A00013465B019B1A9B000B446C331B68194658
:1023B000FFF7B4FE7B6801337B607B68022BD9DDBD
:1023C0004FF480630093A24BA24A0121A24808F077
:1023D000C2F84FF480630093A04BA14A0221A148A8
:1023E00008F0B9F80322002101200EF07CFA034620
:1023F000964A5366954B9C6E944BDD6E01219A482C
:10240000FFF744FE03461A4629462046FFF702FF1F
:102410008E4B9B6E8D4AD16E8C4AB2F87420184652
:10242000FFF79EFE894B9B6E884AD16E874A126FDA
:102430001846FFF7D5FE854B9B6E844AD26E114637
:102440001846FFF745FF814B9B6E804AD26E1146BE
:102450001846FFF7F9FE7D4B9B6E7C4AD26E114603
:102460001846FFF713FF8048FFF7EDFD774B9B6E93
:10247000764AD26E11461846FFF72EFE7A48FFF7CD
:102480006CFD4FF480630093784B794A05217948BD
:1024900008F061F84FF480630093774B774A062188
:1024A000774808F058F80322002101200EF01BFAAB
:1024B0000346664AC2F8E030644BD3F8E440634B0D
:1024C000D3F8E85001216F48FFF7E0FD03461A46B4
:1024D00029462046FFF79EFE5C4BD3F8E4305B4A6A
:1024E000D2F8E810594AB2F8F0201846FFF738FE43
:1024F000564BD3F8E430554AD2F8E810534AD2F894
:10250000EC201846FFF76CFE504BD3F8E4304F4AEE
:10251000D2F8E82011461846FFF7DAFE4B4BD3F805
:10252000E4304A4AD2F8E82011461846FFF78CFEFC
:10253000464BD3F8E430454AD2F8E8201146184615
:10254000FFF7A4FE4F48FFF77EFD404BD3F8E43081
:102550003E4AD2F8E82011461846FFF7BDFD49482B
:10256000FFF7FBFC4FF480630093474B474A07217A
:10257000474807F0F0FF4FF480630093454B464A0D
:102580000821464807F0E7FF0322002101200EF052
:10259000AAF903462D4AC2F85C312C4BD3F86041AE
:1025A0002A4BD3F8645101213D48FFF76FFD0346E4
:1025B0001A4629462046FFF72DFE244BD3F86031FA
:1025C000224AD2F86411214AB2F86C211846FFF76A
:1025D000C7FD1E4BD3F860311C4AD2F864111B4A68
:1025E000D2F868211846FFF7FBFD184BD3F860318D
:1025F000164AD2F8642111461846FFF769FE134BBC
:10260000D3F86031114AD2F8642111461846FFF719
:102610001BFE0E4BD3F860310C4AD2F864211146F0
:102620001846FFF733FE1E48FFF70DFD074BD3F8A2
:102630006031064AD2F8642111461846FFF74CFD76
:102640001748FFF78AFC00233B6039E02C47012440
:102650002C63012478350208304701242C670124BB
:102660008435020860470124001001402C6F0124CA
:1026700090350208AC4701242C7301249C350208D4
:10268000DC470124004400402C7B0124A8350208CB
:10269000284801242C7F0124B4350208584801241D
:1026A000007800400A493A6813465B019B1A9B0078
:1026B0000B441B681846FFF70AFC3B6801333B607C
:1026C0003B68022BEEDD002318460837BD46B0BD3F
:1026D0002C47012480B584B000AF78600B46FB70B6
:1026E0007868FFF717FEB860BB68002B1FD0134B4C
:1026F000FB6005E0FB68013BFB60FB68002B18D02A
:10270000BB683433FA781146184607F057FF034682
:1027100083F00103DBB2002BECD17868FFF780FC7B
:102720000346002B06D17868FFF738FC02E000BFB3
:1027300000E000BF1037BD4680BD00BF20A10700EC
:1027400080B584B000AF786039607868FFF7E2FD4B
:10275000F860FB68002B11D03B68002B0ED008E01E
:102760003B681B7819467868FFF7B4FF3B68013374
:102770003B603B681B78002BF2D100E000BF1037B4
:10278000BD4680BD80B584B000AF78607868FFF743
:10279000C1FDF860FB68002B42D0FB681B68DB6959
:1027A00003F00203002B03D0FB681B6802221A62AD
:1027B000FB681B68DB6903F00403002B03D0FB6894
:1027C0001B6804221A62FB681B68DB6903F4003390
:1027D000002B04D0FB681B684FF400321A62786843
:1027E000FFF7A8FB0346002B1BD07868FFF718FC07
:1027F0000346002B15D0FB68343307F10B0211465A
:10280000184607F021FF0346002B05D0FB7A194636
:102810007868FFF751FC04E07868FFF7E0FB00E020
:1028200000BF1037BD4680BD80B58AB000AF78606C
:102830000023BB607868FFF76DFDB861BB69002BB2
:102840007CD0BB699B6F7B61BB699A6EBB69DB6E99
:1028500019461046FFF7ACFC03467B82BB69B3F810
:1028600074301A467B8AD31AFB60FA687B699A42F5
:1028700065D0FA687B699A4214D97B697B620CE067
:10288000BB69181DBB691A6F7B6A13441B78194614
:1028900007F094FE7B6A01337B627A6AFB689A4296
:1028A000EED32AE07B693B620CE0BB69181DBB6973
:1028B0001A6F3B6A13441B78194607F07FFE3B6A88
:1028C00001333B62BB69B3F874301A463B6A9342EA
:1028D000EBD30023FB610CE0BB69181DBB691A6FC9
:1028E000FB6913441B78194607F068FEFB69013346
:1028F000FB61FA69FB689A42EED3BB695B6E07F134
:102900000802114618460EF0A3F9BB68002B07D049
:102910000C4B4FF080521A60BFF34F8FBFF36F8F95
:10292000BB69FA689A67BB699B6FBA69B2F8742091
:10293000934204D1BB6900229A6700E000BF2837A8
:10294000BD4680BD04ED00E080B584B000AF786086
:102950007868FFF7DFFCF860FB68002B02D14FF0CE
:10296000FF330EE0FB68043307F10B0211461846F3
:1029700007F06AFE0346002B01D0FB7A01E04FF01E
:10298000FF3318461037BD4680BD80B584B000AF18
:1029900078607868FFF7BEFCF860FB68002B01D117
:1029A000002305E0FB680433184607F0CAFE03461F
:1029B00018461037BD4680BD80B584B000AF786042
:1029C0007868FFF7A7FCF860FB68002B01D10023B3
:1029D00006E0FB683433184607F077FE034600BF75
:1029E00018461037BD4680BD80B582B000AF786014
:1029F0000B46FB7000BF7868FFF79CFA0346002B7C
:102A0000F9D0FB7819467868FFF756FB00BF786865
:102A1000FFF77DFA0346002BF9D000BF00BF08374F
:102A2000BD4680BD80B582B000AF786039603B683C
:102A3000002B0ED008E03B681B7819467868FFF73A
:102A4000D3FF3B6801333B603B681B78002BF2D11E
:102A500000E000BF0837BD4680BD000080B485B0EF
:102A600000AF78600D4BFB600CE07B685A1C7A600D
:102A70001B781A46FB685340FB60FB68084A02FB60
:102A800003F3FB607B681B78002BEED1FB681846D4
:102A90001437BD465DF8047B704700BFC59D1C819F
:102AA0009301000180B485B000AF786039607A6826
:102AB0003B685340FB60FB681B0CFA681343FB60E8
:102AC000FB681B0AFA681343FB60FB68DBB2002B50
:102AD0000CBF01230023DBB218461437BD465DF856
:102AE000047B704780B584B000AF78607868FFF7EA
:102AF000B5FFF860054BBB60B968F868FFF7D2FF17
:102B0000034618461037BD4680BD00BFA37B47C5AE
:102B100080B584B000AF786005F0FAFFF86000235C
:102B2000FB7207F10B0201230021F86806F0E7F8B9
:102B30000346002B02D1FB7A102B07D91549786880
:102B400000F020F9144B01221A6020E0FB7A002BE0
:102B500016D0FB7A114A0121F86806F0D0F8034636
:102B6000002B05D1FB7A1A460C4B002199540EE03C
:102B70000849786800F006F9074B01221A6006E060
:102B80000449786800F0FEF8034B01221A60103700
:102B9000BD4680BDC0350208408301242C8301243A
:102BA00080B584B000AF78600E4B1B68012B0BD151
:102BB0007868FFF753FFF8600B4BBB60B968F868A3
:102BC000FFF770FF034609E008497868FDF788FBC6
:102BD0000346002B01D1012300E0002318461037E3
:102BE000BD4680BD40830124A37B47C52C830124BF
:102BF00080B582B000AF78607B6893F82830042BF2
:102C000010D17B685B6D5A1C7B685A657B685B6D75
:102C1000064A934206D3786800F068F80449786859
:102C200000F0B0F800BF0837BD4680BDE093040057
:102C3000FC35020880B483B000AF78607B6893F8FD
:102C40002830042B02D17B6800225A6500BF0C3764
:102C5000BD465DF8047B704780B582B000AF7860F8
:102C600039607B683A689A657B6800221A627B68E3
:102C700000225A627B68002283F828207B680022A9
:102C8000DA627B6800221A657B6800225A657B68DD
:102C90002022002118461FF0D2F97B683033202211
:102CA000002118461FF0CBF90B49786800F06AF84C
:102CB0000A49786800F066F80949786800F062F817
:102CC0000849786800F05EF80749786800F05AF81B
:102CD00000BF0837BD4680BD2836020830360208DE
:102CE000383602084C3602085436020880B582B0E5
:102CF00000AF78607B6801221A627B6800225A620A
:102D00007B68002283F828207B680022DA627B68D7
:102D100000221A657B6800225A657B682022002108
:102D200018461FF08CF97B683033202200211846AA
:102D30001FF085F90D49786800F024F80C4978688F
:102D400000F020F80B49786800F01CF80A49786810
:102D500000F018F80949786800F014F80849786814
:102D600000F010F800BF0837BD4680BD28360208C5
:102D700030360208383602084C360208543602084B
:102D80005836020880B582B000AF7860396007E03D
:102D90007B689A6D3B68591C39601B7818469047D0
:102DA0003B681B78002BF3D100BF00BF0837BD463E
:102DB00080BD000080B582B000AF78607B6893F87A
:102DC0002830002B37D17B6824491846FDF788FA54
:102DD0000346002B0BD17B68012283F828207B68F7
:102DE0000022DA621E497868FFF7CCFF31E07B6889
:102DF0001C491846FDF774FA0346002B0ED178687B
:102E0000FFF786FE7B68022283F828207B68002279
:102E1000DA6213497868FFF7B5FF1AE0124978685B
:102E2000FFF7B0FF11497868FFF7ACFF10497868E9
:102E3000FFF7A8FF0DE07B6893F82830032B04D040
:102E40007B6893F82830042B03D10A497868FFF790
:102E500099FF00BF0837BD4680BD00BF703602082D
:102E600078360208843602088C3602085436020886
:102E700058360208B836020880B582B000AF7860D4
:102E80000B46FB707B6893F82830012B05D07B68DC
:102E900093F82830022B40F0ED800A22FB78934211
:102EA00004D00D22FB78934240F0B6807B681B6D06
:102EB0007A681344002283F830207B6893F8283026
:102EC000012B38D17B6830331846FFF70BFE0346E1
:102ED000012B30D17B68032283F828209A49786837
:102EE000FFF750FF99497868FFF74CFF98497868D9
:102EF000FFF748FF94497868FFF744FF95497868E1
:102F0000FFF740FF94497868FFF73CFF93497868E2
:102F1000FFF738FF92497868FFF734FF91497868E6
:102F2000FFF730FF8B497868FFF72CFF86497868F8
:102F3000FFF728FF6CE07B6893F82830022B38D12C
:102F40007B6830331846FFF72BFE0346012B30D148
:102F50007B68042283F828207B497868FFF712FFFA
:102F60007A497868FFF70EFF7F497868FFF70AFF14
:102F700075497868FFF706FF76497868FFF702FF22
:102F800075497868FFF7FEFE74497868FFF7FAFE26
:102F900073497868FFF7F6FE72497868FFF7F2FE2A
:102FA0006C497868FFF7EEFE67497868FFF7EAFE3C
:102FB0002EE07B68DB6A5A1C7B68DA6262497868BB
:102FC000FFF7E0FE7B68DB6A0322934214DB7B6839
:102FD000002283F8282065497868FFF7D3FE5A4914
:102FE0007868FFF7CFFE58497868FFF7CBFE604955
:102FF0007868FFF7C7FE0BE05E497868FFF7C2FE0E
:1030000051497868FFF7BEFE5B497868FFF7BAFE62
:103010007B6800221A6592E07F22FB78934216D1EA
:103020007B681B6D002B40F38A807B681B6D5A1EEA
:103030007B681A657B689B6D082098477B689B6D51
:10304000202098477B689B6D0820984777E07B6835
:103050001B6D1E2B73DC7B681B6D591C7A68116518
:103060007A681344FA7883F830207B689B6D2A20B5
:10307000984764E07B6893F82830032B04D07B6882
:1030800093F82830042B04D13C497868FFF77AFE86
:1030900056E00A22FB78934203D00D22FB7893423C
:1030A0001CD17B685B6A7A680021D1547B685B6ABB
:1030B000002B0ADD24497868FFF764FE7868FFF783
:1030C00079FE7B6800225A623AE01F497868FFF770
:1030D00059FE27497868FFF755FE31E07F22FB78DB
:1030E00093421AD17B685B6A002B29DD7B685B6A9F
:1030F0005A1E7B685A627B685B6A7A680021D154E9
:103100007B689B6D082098477B689B6D20209847C3
:103110007B689B6D0820984712E07B685B6A1E2BDA
:103120000EDC7B685B6A591C7A6851627A68F978B0
:10313000D1547B689B6DFA781046984700E000BF39
:1031400000BF0837BD4680BD54360208C8360208A5
:10315000343702085837020880370208A8370208B7
:10316000D0370208F837020820380208443802082D
:103170005836020870380208783602089838020873
:1031800080B483B000AF78607B6893F8283018462D
:103190000C37BD465DF8047B7047000080B400AF7B
:1031A000BFF34F8F00BF064BDB6803F4E0620449B6
:1031B000044B1343CB60BFF34F8F00BF00BFFDE74D
:1031C00000ED00E00400FA0580B483B000AF786041
:1031D00039607B683A689A6100BF0C37BD465DF87C
:1031E000047B704780B483B000AF786039603B687F
:1031F0001A047B689A6100BF0C37BD465DF8047BFA
:10320000704780B485B000AF03460A46FB80134682
:103210007B7141F22103BB817B791BB21B021AB285
:10322000B7F9063053401BB2FB800023FB7313E059
:10323000B7F90630002B09DAB7F906305B001AB28D
:10324000B7F90C3053401BB2FB8002E0FB885B00F7
:10325000FB80FB7B0133FB73FB7B072BE8D9FB88EF
:1032600018461437BD465DF8047B704780B586B0BC
:1032700000AFF860B9607A600121B86802F010FA16
:1032800078617B69002B04D13F49F86802F046F968
:1032900076E078691EF00EFC38613B691E2B6AD817
:1032A00001A252F823F000BF253300082D33000897
:1032B0003733000877330008773300087733000886
:1032C0007733000877330008773300087733000836
:1032D00041330008493300085133000859330008CE
:1032E0007733000877330008773300087733000816
:1032F0007733000877330008613300086B33000828
:1033000077330008773300087733000877330008F5
:1033100077330008773300087733000877330008E5
:10332000713300081E2004F075FC25E04FF4806026
:1033300004F0B2FC20E04FF4007004F0FDFC1BE050
:10334000002004F043FD17E0012004F03FFD13E0EE
:10335000022004F03BFD0FE0032004F037FD0BE0FA
:103360004AF6CD3004F074FD06E004F0C1FD03E040
:1033700004F0FAFD00E000BF0449F86802F0CEF85E
:103380001837BD4680BD00BF283F02083C3F0208F9
:1033900080B5A8B002AFF860B9607A600121B86862
:1033A00002F07EF9C7F884000221B86802F078F9CB
:1033B000C7F880000023A7F89630D7F88430002B98
:1033C00003D0D7F88030002B04D1A049F86802F070
:1033D000A5F838E1D7F884001EF06CFBF8670022EE
:1033E0000021D7F880001EF099FCB867BB6F002B56
:1033F00003D0BB6FB3F5483F0ED907F110004FF46F
:103400004833934A64211EF055FD07F11003194615
:10341000F86802F083F816E1FDF77CFB0346032B06
:103420001BD0FDF777FB0346022B08D0FDF772FB9C
:103430000346012B01D1874B02E0874B00E0874B0D
:1034400007F11000864A64211EF034FD07F11003D5
:103450001946F86802F062F8F5E00220FDF708FB73
:10346000FB6F032B6DD0FB6F032B00F39C80FB6F76
:10347000012B03D0FB6F022B2CD094E00023C7F864
:1034800090301AE0D7F8903087F87530D7F8903040
:10349000744A134497F875201A7097F87520B7F896
:1034A000963011461846FFF7ACFE0346A7F8963053
:1034B000D7F890300133C7F89030D7F89020BB6F21
:1034C0009A42DFD307F11000BB6F674A64211EF0F8
:1034D000F1FC70E00023C7F88C3025E0D7F88C10A1
:1034E000624BA3FB01239A0913465B0013445B0163
:1034F000CA1AD3B2203387F87630D7F88C30594ABD
:10350000134497F876201A7097F87620B7F896301B
:1035100011461846FFF775FE0346A7F89630D7F810
:103520008C300133C7F88C30D7F88C20BB6F9A42AF
:10353000D4D307F11000BB6F4D4A64211EF0BAFCD2
:1035400039E00023C7F8883020E01EF0B7FA0346C0
:103550005A42DBB2D2B258BF534287F87730D7F81D
:103560008830404A134497F877201A7097F87720EC
:10357000B7F8963011461846FFF743FE0346A7F802
:103580009630D7F888300133C7F88830D7F88820CC
:10359000BB6F9A42D9D307F11000BB6F354A642143
:1035A0001EF088FC07E03449F86801F0B7FF0320FB
:1035B000FDF75EFA47E04FF47A700EF0A1FB0120B0
:1035C000FDF756FA07F110031946F86801F0A6FF57
:1035D000244A244B1B7807F1100000931346274A16
:1035E00064211EF067FC07F110031946F86801F02A
:1035F00095FFBB6F013B1B4A13441946BB6F013B50
:10360000184A13441B7807F1100000930B461C4A1C
:1036100064211EF04FFC07F110031946F86801F011
:103620007DFFB7F8963007F11000164A64211EF0AE
:1036300041FC07F110031946F86801F06FFF1249C9
:10364000F86801F06BFF9837BD4680BD403F020827
:10365000903F0208B83F0208C43F0208CC3F02086E
:10366000D43F020800000030F83F0208ABAAAAAA23
:1036700028400208584002087C400208AC4002087A
:10368000D0400208F04002083C3F020880B5AAB0D2
:1036900002AFF860B9607A600121B86802F000F802
:1036A000C7F884001023C7F880300023C7F89C3087
:1036B0000023A7F89A30D7F88430002B04D1804932
:1036C000F86801F02BFFF7E000220021D7F8840012
:1036D0001EF024FBF867FB6F002B03D0FB6FB3F5E4
:1036E000483F0ED907F114004FF44833754A64215E
:1036F0001EF0E0FB07F114031946F86801F00EFF15
:10370000DAE007F11400FB6F6F4A64211EF0D2FB70
:1037100007F114031946F86801F000FF0023C7F809
:103720009430AEE0D7F8943003F1605307F1140001
:10373000664A64211EF0BEFB07F114031846FCF72D
:10374000D9FD024607F114031344C7F89030002353
:10375000C7F88C3031E0D7F89420D7F88C30134478
:1037600003F160531B7887F87B3007F11403D7F817
:103770009020D31AC3F1640197F87B30544AD7F8EC
:1037800090001EF097FBD7F890300333C7F89030C5
:10379000D7F89C300133C7F89C3097F87B20B7F8F6
:1037A0009A3011461846FFF72CFD0346A7F89A30C9
:1037B000D7F88C300133C7F88C30D7F88C20D7F885
:1037C00080309A4207D2D7F89420D7F88C3013442F
:1037D000FA6F9A42BFD8D7F890305A1CC7F8902099
:1037E00020221A70D7F890305A1CC7F890207C22FB
:1037F0001A700023C7F8883021E0D7F89420D7F852
:103800008830134403F160531B7887F87A3097F8B7
:103810007A301F2B06D997F87A307E2B02D897F88A
:103820007A1000E02E21D7F890305A1CC7F890206B
:103830000A461A70D7F888300133C7F88830D7F8AD
:103840008820D7F880309A4207D2D7F89420D7F84A
:1038500088301344FA6F9A42CFD8D7F890300022BC
:103860001A7007F114031946F86801F057FE012099
:103870000EF046FAD7F89420D7F880301344C7F8F2
:103880009430D7F89420FB6F9A42FFF44BAFB7F80F
:103890009A3007F114000093D7F89C300D4A642148
:1038A0001EF008FB07F114031946F86801F036FE14
:1038B0000949F86801F032FEA037BD4680BD00BF5F
:1038C00008410208903F02083041020858410208AE
:1038D000644102086C4102083C3F020880B5A0B078
:1038E00000AFF860B9607A600121B86801F0D8FED5
:1038F000F867FB6F002B04D13449F86801F00EFE25
:1039000060E03349F86FFCF7EBFC0346002B42D133
:10391000FDF700F9034687F87B3097F87B30032BDF
:103920002AD801A252F823F0393900084939000891
:10393000593900086939000807F11403254A642140
:1039400018461EF0B7FA1FE007F11403224A64215B
:1039500018461EF0AFFA17E007F114031F4A64215E
:1039600018461EF0A7FA0FE007F114031C4A642161
:1039700018461EF09FFA07E007F11403194A642164
:1039800018461EF097FA00BF07F114031946F868AD
:1039900001F0C4FD12E01449F86FFCF7A1FC0346E6
:1039A000002B07D10320FDF763F81049F86801F0F8
:1039B000B5FD03E00E49F86801F0B0FD0D49F86867
:1039C00001F0ACFD8037BD4680BD00BFA4410208B8
:1039D000C4410208C8410208DC410208F44102085F
:1039E000084202081C420208603D020834420208F4
:1039F000504202083C3F020880B5A0B000AFF8601A
:103A0000B9607A6005F028FFF867FB6F1B7D83F0D3
:103A10000103DBB2002B04D01749F86801F07EFDEA
:103A200027E006F063F8034687F87B3097F87B3091
:103A3000002B0DD107F11403104A642118461EF023
:103A400039FA07F114031946F86801F067FD0CE034
:103A500007F114030A4A642118461EF02BFA07F1F5
:103A600014031946F86801F059FD0649F86801F099
:103A700055FD8037BD4680BD80420208A442020841
:103A8000CC4202083C3F020890B5ABB004AFF860EE
:103A9000B9607A600121B86801F002FEC7F89400AD
:103AA0000221B86801F0FCFDC7F89000D7F8943007
:103AB000002B03D0D7F89030002B04D13449F8689C
:103AC00001F02CFD61E0D7F894001DF0F3FF0346F0
:103AD00087F88F3000220021D7F890001EF01EF9E1
:103AE000C7F888002B4A97F88F30D7F88810184607
:103AF00005F0EAFE034687F8873097F88730002BF9
:103B00001ED107F11003184605F07AFF0346002B7B
:103B100037D17A693B7C1946BB69B88B044607F1FB
:103B2000200002940193009113461B4A64211EF069
:103B3000C1F907F120031946F86801F0EFFC20E015
:103B400097F88730022B0ED197F88F3007F12000BD
:103B5000124A64211EF0AEF907F120031946F868F5
:103B600001F0DCFC0DE097F8873007F120000C4AEB
:103B700064211EF09FF907F120031946F86801F04F
:103B8000CDFC0849F86801F0C9FC9C37BD4690BDE2
:103B9000F0420208000000301443020854430208B7
:103BA000744302083C3F020880B5A4B002AFF8603D
:103BB000B9607A6005F0D4FF034687F8873097F83C
:103BC0008730032B38D801A252F823F02F3C00088D
:103BD000F13B0008E73B0008DD3B00081D49F868A1
:103BE00001F09CFC2DE01C49F86801F097FC28E0EE
:103BF00007F11003184605F003FF0346002B11D10F
:103C0000BB8B1A46BB6907F1200000931346134A89
:103C100064211EF04FF907F120031946F86801F0FE
:103C20007DFC0EE00E49F86801F078FC09E00D49D2
:103C3000F86801F073FC04E00B49F86801F06EFCD1
:103C400000BF0A49F86801F069FC00BF8837BD462B
:103C500080BD00BF9C430208A8430208B443020889
:103C6000E443020810440208204402083C3F0208D2
:103C700080B5A6B002AFF860B9607A600121B8687B
:103C800001F00EFDC7F88400D7F88430002B04D172
:103C90004349F86801F042FC7FE000220021D7F898
:103CA00084001EF03BF8C7F88000D7F88030002B66
:103CB00004D0D7F88030B3F5483F0ED907F114008F
:103CC0004FF44833374A64211EF0F4F807F1140327
:103CD0001946F86801F022FC5FE005F083FAF86706
:103CE000FB6FDB7A83F00103DBB2002B04D02E499B
:103CF000F86801F013FC50E0D7F880104FF06050E6
:103D000005F0BCFA034687F87B3097F87B30002B30
:103D100031D10023A7F88E300023C7F8883012E095
:103D2000D7F8883003F160531A78B7F88E3011460F
:103D30001846FFF766FA0346A7F88E30D7F88830A2
:103D40000133C7F88830D7F88820D7F880309A42F6
:103D5000E6D3B7F88E3007F114000093D7F880301F
:103D6000124A64211EF0A6F807F114031946F868F8
:103D700001F0D4FB0DE097F87B3007F114000C4AFA
:103D800064211EF097F807F114031946F86801F052
:103D9000C5FB0849F86801F0C1FB9037BD4680BDFE
:103DA00030440208903F02085C4402088044020844
:103DB000AC4402083C3F020880B588B000AFF86010
:103DC000B9607A6007F11403074A0A2118461EF009
:103DD00071F807F114031946F86801F09FFB00BF62
:103DE0002037BD4680BD00BFD0440208F0B5B3B057
:103DF00006AFF860B9607A600121B86801F050FC44
:103E0000C7F8AC000221B86801F04AFCC7F8A80066
:103E10000321B86801F044FCC7F8A4000421B86885
:103E200001F03EFCC7F8A0000521B86801F038FC9D
:103E3000C7F89C000621B86801F032FCC7F898006A
:103E4000D7F8AC30002B13D0D7F8A830002B0FD008
:103E5000D7F8A430002B0BD0D7F8A030002B07D018
:103E6000D7F89C30002B03D0D7F89830002B0DD119
:103E700007F11803624A642118461EF01BF807F187
:103E800018031946F86801F049FBB6E0D7F8AC0012
:103E90001DF010FEC7F89400D7F8A8001DF00AFE28
:103EA000C7F89000D7F8A4001DF004FEC7F88C00F6
:103EB000D7F8A0001DF0FEFDC7F88800D7F89C00D9
:103EC0001DF0F8FDC7F88400D7F898001DF0F2FD4A
:103ED000C7F88000D7F89430002B03DBD7F8943074
:103EE000172B04DD4749F86801F018FB85E0D7F887
:103EF0009030002B03DBD7F890303B2B04DD424998
:103F0000F86801F00BFB78E0D7F88C30002B03DB6E
:103F1000D7F88C303B2B04DD3C49F86801F0FEFA01
:103F20006BE0D7F88830002B03DDD7F888301F2BE3
:103F300004DD3749F86801F0F1FA5EE0D7F8843023
:103F4000002B03DDD7F884300C2B04DD3149F868F1
:103F500001F0E4FA51E0D7F88030002B03DBD7F80A
:103F60008030632B04DD2C49F86801F0D7FA44E077
:103F7000D7F89430DBB2FB74D7F89030DBB23B75E6
:103F8000D7F88C30DBB27B75D7F88830DBB23B7466
:103F9000D7F88430DBB27B74D7F88030DBB2BB74E7
:103FA00007F11003184606F03FF904F081FCF867AA
:103FB00007F110031946F86F04F0D0FCFB7C1E4695
:103FC0003B7D7A7D397C787C0446B87C054607F1D8
:103FD00018000495039402910192009333460F4A0E
:103FE00064211DF067FF07F118031946F86801F016
:103FF00095FA0B49F86801F091FAB437BD46F0BD67
:10400000D8440208184502084C45020880450208B9
:10401000B4450208E4450208184602086046020852
:104020003C3F0208F0B5B5B006AFF860B9607A6001
:104030000121B86801F034FBC7F8B400D7F8B430F8
:10404000002B0DD107F14403B94A642118461DF035
:1040500031FF07F144031946F86801F05FFA63E1A4
:10406000B449D7F8B400FCF73BF90346002B3FD125
:1040700004F01EFCC7F8A80007F13C031946D7F866
:10408000A80004F01FFC0346002B2CD107F13A03D3
:104090001946D7F8A80004F0A5FC97F83F309C46D5
:1040A00097F8403097F8412097F83C1097F83D007A
:1040B000044697F83E000546B7F93A00064607F170
:1040C000440005960495039402910192009363467F
:1040D000994A64211DF0EEFE07F144031946F86881
:1040E00001F01CFA1CE19549F86801F017FA17E194
:1040F0009349D7F8B400FCF7F3F80346002B26D118
:1041000007F13403184606F079F897F837301E4661
:1041100097F8383097F8392097F8341097F8350029
:10412000044697F83600054607F1440004950394C9
:104130000291019200933346824A64211DF0BAFE37
:1041400007F144031946F86801F0E8F9E8E07E4910
:10415000D7F8B400FCF7C4F80346002B2ED1002397
:104160003B63002387F82F30002387F82E3000238D
:1041700087F82D3007F12D0307F12E0207F12F01EB
:1041800007F1300006F094F897F82F301C4697F8A6
:104190002E3097F82D20396BC9B207F144000291F7
:1041A000019200932346694A64211DF083FE07F1C2
:1041B00044031946F86801F0B1F9B1E06449D7F851
:1041C000B400FCF78DF80346002B40F09C8004F00F
:1041D0006FFBC7F8B00007F124031946D7F8B00009
:1041E00004F070FB0346002B2CD107F11203194693
:1041F000D7F8B00004F0F6FB97F827309C4697F804
:10420000283097F8292097F8241097F825000446BD
:1042100097F826000546B7F91200064607F1440054
:104220000596049503940291019200936346424AD5
:1042300064211DF03FFE07F144031946F86801F0C0
:104240006DF903E04349F86801F068F907F11C03D0
:10425000184605F0D3FFFB7F1E4697F8203097F8ED
:104260002120397F787F0446B87F054607F1440056
:10427000049503940291019200933346314A6421DC
:104280001DF018FE07F144031946F86801F046F9DD
:104290000023BB610023FB750023BB7500237B75E6
:1042A00007F1150307F1160207F1170107F11800CE
:1042B00005F0FEFFFB7D1C46BB7D7A7DB969C9B266
:1042C00007F1440002910192009323461F4A6421A2
:1042D0001DF0F0FD07F144031946F86801F01EF9DE
:1042E00005F0D8FFC7F8AC0007F14400D7F8AC30B0
:1042F000194A64211DF0DEFD07F144031946F868F0
:1043000001F00CF90CE007F14403144A642118464B
:104310001DF0D0FD07F144031946F86801F0FEF8DE
:104320000F49F86801F0FAF8BC37BD46F0BD00BF90
:1043300090460208B4460208BC4602080447020838
:104340002047020828470208644702086C47020811
:10435000A0470208A4470208BC470208CC4702084D
:104360003C3F0208F0B5A9B006AFF860B9607A60CA
:104370000121B86801F094F9C7F88400D7F88430B7
:10438000002B0DD107F11C032B4A642118461DF0A8
:1043900091FD07F11C031946F86801F0BFF847E0EA
:1043A00000220021D7F884001DF0B8FCC7F8800077
:1043B000D7F88030214A93420DD807F11C00204BDA
:1043C000204A64211DF076FD07F11C031946F868A8
:1043D00001F0A4F82CE0D7F8800005F03BFFD7F8F7
:1043E0008020194B134407F114021146184605F0BA
:1043F00069FCFB7D1E463B7E7A7E397D787D0446D6
:10440000B87D054607F11C000495039402910192C2
:10441000009333460D4A64211DF04CFD07F11C0347
:104420001946F86801F07AF80949F86801F076F859
:104430008C37BD46F0BD00BFFC4702087F436D3896
:1044400080436D381848020880BC92C76046020855
:104450003C3F020880B5A4B002AFF860B9607A6052
:104460000121B86801F01CF9C7F884000221B8687E
:1044700001F016F9C7F88000D7F88430002B03D07C
:10448000D7F88030002B0DD107F11403254A6421A1
:1044900018461DF00FFD07F114031946F86801F0E6
:1044A0003DF83CE000220021D7F884001DF0BEFB5F
:1044B0000346A7F87E3000220021D7F880001DF0C7
:1044C000B5FB0346DBB2FB7404F022FBB867B7F818
:1044D0007E1007F113020123B86F04F081FB03463D
:1044E000002B0AD1B7F87E30FA7C07F11400009255
:1044F0000D4A64211DF0DEFC07E0B7F87E3007F1BD
:1045000014000A4A64211DF0D5FC07F11403194672
:10451000F86801F003F80649F86800F0FFFF8837F3
:10452000BD4680BD384802085C4802087C48020845
:104530003C3F020880B5A4B002AFF860B9607A6071
:104540000121B86801F0ACF8C7F88400D7F88430CE
:10455000002B0DD107F11803224A642118461DF0E3
:10456000A9FC07F118031946F86800F0D7FF35E0F9
:1045700000220021D7F884001DF058FB0346A7F85D
:1045800082300023FB7504F0C3FAF867B7F8821095
:1045900007F117020123F86F04F0B1FB0346002B6B
:1045A0000AD1B7F88230FA7D07F1180000920E4A5E
:1045B00064211DF07FFC07E0B7F8823007F1180096
:1045C0000A4A64211DF076FC07F118031946F868C1
:1045D00000F0A4FF0649F86800F0A0FF8837BD4648
:1045E00080BD00BF98480208B4480208D4480208B9
:1045F0003C3F020880B584B000AFF860B9607A60D3
:10460000F86803F081F90449F86800F087FF00BFFB
:104610001037BD4680BD00BF3C3F020880B586B064
:1046200000AFF860B9607A6002F012FE0D49F868D8
:1046300000F074FF02F080FF0346FB75FB7D002B4A
:1046400004D00949F86800F069FF03E00749F868F9
:1046500000F064FF0649F86800F060FF00BF1837FB
:10466000BD4680BDF0480208084902081C490208FE
:104670003C3F020880B584B000AFF860B9607A6052
:1046800002F0F8FD0549F86800F048FF0449F868B1
:1046900000F044FF00BF1037BD4680BD3849020816
:1046A0003C3F020880B5A6B000AFF860B9607A6000
:1046B0000121B86800F0F4FFC7F894000221B8683F
:1046C00000F0EEFFC7F89000D7F89430002B03D02D
:1046D000D7F89030002B04D11149F86800F01EFF84
:1046E0001BE0D7F89020D7F89410F86803F020F872
:1046F0000346002B0DD107F11000D7F89430094A7A
:1047000080211DF0D7FB07F110031946F86800F06F
:1047100005FF0549F86800F001FF9837BD4680BDE8
:1047200050490208704902083C3F020880B5A8B011
:1047300000AFF860B9607A600121B86800F0B0FF9E
:10474000C7F89C000221B86800F0AAFFC7F89800DB
:10475000D7F89C30002B03D0D7F89830002B04D129
:104760001C49F86800F0DAFE31E0D7F89800FBF752
:10477000C1FDC7F89400D7F89430B3F5005F04D9B1
:104780001549F86800F0CAFE21E0D7F89420D7F860
:104790009810D7F89C0002F027FE0346002B0ED19C
:1047A00007F11400D7F89C300C4A80211DF082FBE1
:1047B00007F114031946F86800F0B0FE03E0084959
:1047C000F86800F0ABFE0749F86800F0A7FEA037D4
:1047D000BD4680BD50490208884902087049020858
:1047E000A44902083C3F020880B586B000AFF860DB
:1047F000B9607A600121B86800F052FF78617B6986
:10480000002B04D10749F86800F088FE07E07969B9
:10481000F86802F0B3FE0449F86800F07FFE18372C
:10482000BD4680BDBC4902083C3F020880B584B04B
:1048300000AFF860B9607A6080210B48FEF7D2FCC7
:1048400064200DF05DFA80210748FEF7BDFC0749A2
:10485000F86800F063FE0649F86800F05FFE00BFEC
:104860001037BD4680BD00BF00180258D449020869
:104870003C3F020880B584B000AFF860B9607A6050
:104880004FF480710748FEF7ADFC0749F86800F067
:1048900045FE0649F86800F041FE00BF1037BD46EE
:1048A00080BD00BF00180258F04902083C3F0208D2
:1048B00080B584B000AFF860B9607A604FF4807161
:1048C0000748FEF781FC0749F86800F027FE064913
:1048D000F86800F023FE00BF1037BD4680BD00BF62
:1048E00000180258184A02083C3F020880B586B0FA
:1048F00000AFF860B9607A600121B86800F0D0FEBE
:1049000078617B69002B04D11E49F86800F006FE2F
:1049100035E01D497869FBF7E3FC0346002B07D11E
:104920001A49F86800F0FAFD0120FCF72DF922E0A1
:1049300017497869FBF7D4FC0346002B07D11549CA
:10494000F86800F0EBFD0220FCF71EF913E01249B5
:104950007869FBF7C5FC0346002B07D10F49F868BF
:1049600000F0DCFD0020FCF70FF904E00C49F868CA
:1049700000F0D4FD03E00B49F86800F0CFFD1837D4
:10498000BD4680BD404A0208644A0208684A0208DF
:10499000984A02089C4A0208CC4A0208D44A0208F3
:1049A000084B02083C3F020880B586B000AFF860B3
:1049B000B9607A600121B86800F072FE78617B69A5
:1049C000002B04D11E49F86800F0A8FD34E01D4911
:1049D0007869FBF785FC0346002B07D10320FCF721
:1049E000D3F81949F86800F099FD21E01749786972
:1049F000FBF776FC0346002B07D10420FCF7C4F834
:104A00001349F86800F08AFD12E012497869FBF753
:104A100067FC0346002B07D10020FCF7B5F80E49D0
:104A2000F86800F07BFD03E00C49F86800F076FDC3
:104A30000B49F86800F072FD1837BD4680BD00BF15
:104A4000404B0208644A0208604B0208984A020878
:104A5000A84B0208E84B0208EC4B02081C4C020869
:104A60003C3F020880B588B000AFF860B9607A605A
:104A70000121B86800F014FEB861BB69002B04D1B5
:104A80001649F86800F04AFD25E0B869FBF732FCEA
:104A900078610D211248FDF71DFE0023FB610AE03D
:104AA000BA69FB6913441B7819460D48FDF712FEDD
:104AB000FB690133FB61FA697B699A42F0D30D21EE
:104AC0000748FDF707FE0749F86800F027FD06498B
:104AD000F86800F023FD2037BD4680BD504C020829
:104AE000007800406C4C02083C3F020880B584B05E
:104AF00000AF78607B68FB600349F86800F00EFD4A
:104B000000BF1037BD4680BD8C4C020880B584B014
:104B100000AF78607B68FB600349F86800F0FEFC3A
:104B200000BF1037BD4680BD9C4C020880B584B0E4
:104B300000AF78607B68FB600349F86800F0EEFC2A
:104B400000BF1037BD4680BDAC4C020880B588B0B0
:104B500004AFF860B9607A6000230193FB680093AA
:104B6000164B00220A21022005F06EFC012302935D
:104B7000FB680193124B009300231E2214210A208C
:104B800005F0C2FB02230093FB680E4A00211420AB
:104B900005F010FC0C49F86800F0C0FC0B49F868FF
:104BA00000F0BCFC0A49F86800F0B8FC0949F86854
:104BB00000F0B4FC00BF1037BD4680BDED4A0008D0
:104BC0000D4B00082D4B0008C04C0208E44C0208B5
:104BD000044D02083C3F020890B5ADF20C4D04AF05
:104BE00007F57E73A3F57B73186007F57E73A3F555
:104BF0007C73196007F57E73A3F57D731A60142327
:104C0000C7F8EC330DF0EEFAC7F8E80307F114002B
:104C1000D7F8E833734A4FF480711DF04BF907F170
:104C2000140207F57E73A3F57B731146186800F034
:104C300075FC07F58A730022D7F8EC1318460DF0BF
:104C4000DDFAC7F8E403D7F8E433002B10D107F5F9
:104C50007E73A3F57B736449186800F05FFC07F569
:104C60007E73A3F57B736149186800F057FCB4E0CC
:104C700007F11400D7F8E4335D4A4FF480711DF05A
:104C800019F907F1140207F57E73A3F57B7311463A
:104C9000186800F043FC07F57E73A3F57B73554954
:104CA000186800F03BFC07F57E73A3F57B7352494F
:104CB000186800F033FC0023C7F8F43377E007F5F9
:104CC0007E73A3F53971D7F8F4231346DB00134440
:104CD0009B000B440C331B78042B21D801A252F803
:104CE00023F000BFF94C0008014D0008094D0008F1
:104CF000114D0008194D0008404BC7F8F03313E080
:104D00003F4BC7F8F0330FE03E4BC7F8F0330BE0F2
:104D10003D4BC7F8F03307E03C4BC7F8F03303E0F6
:104D20003B4BC7F8F03300BF07F57E73A3F539712D
:104D3000D7F8F4231346DB0013449B000B440433E1
:104D40001C6807F57E73A3F53971D7F8F423134671
:104D5000DB0013449B000B441033196807F57E7386
:104D6000A3F53970D7F8F4231346DB0013449B00F6
:104D7000034420331B6807F1140002930191D7F814
:104D8000F03300932346234A4FF480711DF092F8CC
:104D900007F1140207F57E73A3F57B7311461868BB
:104DA00000F0BCFBD7F8F4330133C7F8F433D7F87D
:104DB000F423D7F8E4339A4281D307F57E73A3F541
:104DC0007B730D49186800F0A9FB07F57E73A3F506
:104DD0007B730649186800F0A1FB07F57F77BD4695
:104DE00090BD00BF204D0208404D02083C3F020824
:104DF000644D0208784D0208A84D0208D44D0208FF
:104E0000DC4D0208E44D0208EC4D0208F44D0208A6
:104E1000FC4D0208044E020880B582B000AF7860F5
:104E20000348FDF763FF00BF0837BD4680BD00BFE4
:104E3000704A012490B587B002AFF860B9607A601B
:104E40001349F86800F06AFB124B1B68002B0AD16B
:104E5000114B009300230022642110480EF03AFC0D
:104E600003460C4A13600B4B1B68002B0BD0094BFD
:104E70001C680DF0A7F902460023009300230121CE
:104E800020460EF083FC00BF1437BD4690BD00BF26
:104E90001C4E020844830124194E00082C4E0208BF
:104EA00080B58AB000AFF860B9607A600121B86857
:104EB00000F0F6FB78627B6A002B04D12949F86880
:104EC00000F02CFB4AE02848FEF75AF9034687F821
:104ED000233097F82330032B3BD1786AFBF70AFA8B
:104EE000F861FB69102B04D92049F86800F016FB23
:104EF00034E003F00DFEB861FB69DBB2FB7507F12E
:104F0000170201230021B86903F06AFE0346002B53
:104F100004D01749F86800F001FB1FE0FB69002B83
:104F20000ED0FB699BB27A6A0121B86903F058FE82
:104F30000346002B04D00F49F86800F0EFFA0DE0AB
:104F40000D49F86800F0EAFA0C49F86800F0E6FA52
:104F500004E00B49F86800F0E1FA00BF2837BD46CD
:104F600080BD00BF384E0208704A01245C4E020822
:104F7000844E0208B04E0208D44E02083C3F02089C
:104F8000F84E020880B596B000AFF860B9607A605C
:104F90000121B86800F084FB78651949F86800F0D1
:104FA000BDFA7B6D002B0BD11649F86800F0B6FAFC
:104FB000F86802F06BF81449F86800F0AFFA16E0F0
:104FC0000A220021786D1CF0A9FE386507F1100057
:104FD0003B6D0E4A40211CF06DFF07F1100319468E
:104FE000F86800F09BFAF968386D02F083F8084918
:104FF000F86800F093FA00BF5837BD4680BD00BF87
:10500000284F0208404F0208504F0208604F020824
:105010003C3F020880B584B000AFF860B9607A60A8
:10502000FEF7BCF880B400AF024B1846BD465DF8F1
:10503000047B7047C05B020880B400AF222318468F
:10504000BD465DF8047B704780B584B000AF7860E2
:105050000B46FB70FB78FB73FB7B19460348FDF79F
:1050600039FB00BF1037BD4680BD00BF00100140B6
:1050700080B584B000AF78600B46FB70FB78FB73A3
:10508000FB7B19460348FDF725FB00BF1037BD46E3
:1050900080BD00BF0044004080B582B000AF00F08A
:1050A0009FF878607B68394ADA607B684FF4006269
:1050B0001A827B6810229A807B684022DA807B68A3
:1050C00080221A817B6820225A817B6801229A748F
:1050D0007B682F4A1A60FFF7A5FF02467B685A617A
:1050E000FFF7AAFF03461A467B681A83786800F028
:1050F000D2F80346274A1360264B1B68002B01D1C8
:1051000001233EE0234B1B68234A1A6000F068F835
:1051100038603B68214ADA603B684FF400621A82CB
:105120003B6810229A803B684022DA803B688022EC
:105130001A813B6820225A813B6801229A743B689D
:10514000174A1A60FFF76EFF02463B685A61FFF785
:1051500073FF03461A463B681A83386800F09BF8D1
:105160000346104A13600F4B1B68002B01D101232B
:1051700007E00C4B1B680C4A1A600C4B01221A709A
:10518000002318460837BD4680BD00BF4883012470
:10519000744F02084893012449500008488B0124A9
:1051A000884F02084C930124715000085093012449
:1051B00080B400AF034B1B681846BD465DF8047B06
:1051C000704700BF4893012480B400AF034B1B68B5
:1051D0001846BD465DF8047B704700BF4C93012420
:1051E00080B400AF114B40229A80104B4022DA80ED
:1051F0000E4B80221A810D4B0022DA600B4B0022ED
:105200001A820A4B08225A81084B01229A74074BD2
:10521000074A1A60054B00221A83044B00225A6188
:10522000024B1846BD465DF8047B70475493012439
:10523000B84F020880B485B000AF78607B685B69C6
:10524000002B02D17B685B8900E00023FB817B6837
:105250009B8803339A087B68DB8803339B081A44D6
:105260007B681B8903339B08D118FA8913465B00BE
:105270001344DB0003339B08CA18FB8903339B08E4
:10528000134412339BB29B009BB218461437BD46A1
:105290005DF8047B704780B588B000AF786000236C
:1052A000FB617868FFF7C6FF0346BB610023FB750F
:1052B0007B68DB68002B05D07B681B8A1A46BB69BC
:1052C000934201D9002371E07B68DB683B61BA69D6
:1052D000002138691CF0B3FE3B69FB613B69103368
:1052E0003B61FB693A69DA603B6938333B61FB69D2
:1052F000DB68FB60FB683A691A617B689B88033353
:1053000023F003033A6913443B61FB683A69DA61AD
:105310007B68DB88033323F003033A6913443B6162
:105320007B685A69FB685A627B681A8BFB689A85AE
:105330007B681A8BFB68DA85FB683A695A607B6880
:105340001A89FB681A81FB7D002B08D0FB6893F853
:10535000333043F00403DAB2FB6883F833207B6810
:105360009B7C002B08D0FB6893F8333043F020037C
:10537000DAB2FB6883F833207B689A88FB681A836B
:10538000FB6800229A82FB680022DA827B68DA8856
:10539000FB685A84FB68002283F832207B681A6815
:1053A000FB681A60FB6800229A86FB691846203762
:1053B000BD4680BD80B584B000AF78600B46FB7001
:1053C0007B68DB68FB60FB681033FA78114618468F
:1053D00000F08AFF034683F00103DBB2002B08D004
:1053E000FB6893F8333043F00103DAB2FB6883F8CB
:1053F000332000BF1037BD4680BD80B584B000AFFC
:1054000078607B681B68002B00F083807B68DB681A
:10541000FB60FB6893F8333003F00203002B55D197
:10542000FB6893F8333043F00203DAB2FB6883F889
:105430003320FB681B681946786800F07EFE45E063
:10544000FB681033184600F027FF0346FB72FB6829
:1054500093F8333003F00803002B05D0FB7A19468C
:10546000786800F0F5F92AE0FB6893F832301B2BDE
:105470000CD1FB7A5B2B09D1FB6893F8333043F0F6
:105480000803DAB2FB6883F8332018E0FB7A184689
:1054900000F0AAFE0346002B05D0FB7A1946786877
:1054A00000F086FA0BE0FB7A184600F0BDFE0346DA
:1054B000002B04D0FB7A1946786800F027FA786848
:1054C00000F012FDFB68FA7A83F83220FB68103393
:1054D000184600F0C0FE0346002BB1D1FB6893F8DC
:1054E000333003F00103002B14D0FB6800221A8430
:1054F000FB68DB69FA68128C134400221A70FB689F
:1055000093F8333023F00103DAB2FB6883F83320D9
:1055100000E000BF1037BD4680BD000080B584B0FC
:1055200000AF786039607B681B68002B3ED07B68D9
:10553000DB68FB60FB689B8E7B81FB6893F83330F4
:1055400003F01003002B02D1786800F0C1FDFB6866
:105550007A899A863968786800F0EFFD154B1B68E8
:105560001946786800F0E9FDFB6893F8333003F0E2
:105570001003002B1BD1FB681B681946786800F0EC
:10558000DCFDFB68DB691946786800F0D6FDFB6836
:105590001A8CFB681A86FB689B8E00221946786875
:1055A00000F0ECFD786800F09FFC00E000BF1037D1
:1055B000BD4680BDA048012480B588B000AF7860AA
:1055C0007B68002B66D0354BFB600023FB77002304
:1055D000BB770023BB6100237B6147E07B6901331C
:1055E0007B61BB7F002B02D00023BB7729E0FB7CD3
:1055F0005C2B02D10123BB7738E0FB7C222B10D13E
:10560000FB7F002B14BF01230023DBB283F00103D7
:10561000DBB2FB77FB7F03F00103FB770023FB7416
:105620000FE0FB7F83F00103DBB2002B09D0FB7C92
:105630001946F8681CF01AFD0346002B01D0002320
:10564000FB74FB7C002B09D1BB69002B0EDDBB6911
:10565000013B7A6813441B78002B07D0BB697A683A
:105660001344FA7C1A70BB690133BB617B697A68A9
:1056700013441B78FB74FB7C002BAFD1BB697A68A9
:10568000134400221A70BB6901337A681344002264
:105690001A7000E000BF2037BD4680BDBC4F020835
:1056A00080B584B000AF78600B467B807B8819465C
:1056B000786800F020FF0346FB81FB894FF6FF72FC
:1056C000934203D0FB897A68134400E00023184614
:1056D0001037BD4680BD80B584B000AF78600B4602
:1056E0007B807B881946786800F005FF0346FB81C4
:1056F000FB894FF6FF72934203D0FB897A6813440B
:1057000000E0002318461037BD4680BD80B485B048
:1057100000AF78607B68002B03D07B681B78002B80
:1057200001D1002319E00023FB6001237B81FB688A
:105730007A6813441B78002B09D1FB6801337A681F
:1057400013441B78002B06D07B8901337B81FB68D7
:105750000133FB60EBE700BF7B8918461437BD4679
:105760005DF8047B7047000080B586B000AF7860BC
:105770000B46FB707B68DB683B613B699B89002BB8
:105780005FD0FB78002B05D03B695A893B699B8928
:105790009A4256D0FB7883F00103DBB2002B03D092
:1057A0003B695B89002B4CD0786800F091FC3B6929
:1057B0001B681946786800F0C0FCFB78002B06D007
:1057C0003B695B8901339AB23B695A8105E03B69C9
:1057D0005B89013B9AB23B695A813B691A1D3B695F
:1057E0005B891946104600F00DFE78617B69002B3D
:1057F00001D1164B7B617869FAF77CFD0346FB818A
:105800003B69DB69FA89796918461CF0C2FC3B697F
:10581000DA69FB89134400221A703B69FA891A84F9
:105820003B69DB691946786800F087FC3B691A8C94
:105830003B691A863B6900229A86786800F054FB1F
:1058400000E000BF1837BD4680BD00BFC04F020852
:1058500090B585B000AF78600B46FB707B68DB6865
:10586000FB60FB783F2B48D9FB787E2B45D8FB6843
:1058700093F8333023F00803DAB2FB6883F833205F
:10588000FB78412B02D0FB78422B09D1FB78412BCE
:105890000CBF01230023DBB219467868FFF764FFD1
:1058A000FB78432B0FD1FB689B8E002B0BD0FB6842
:1058B0009B8E013B9AB2FB689A86124B1B68194675
:1058C000786800F03AFCFB78442B16D1FB689B8E7D
:1058D0001C46FB68DB691846FAF70CFD03469C4240
:1058E0000BD2FB689B8E01339AB2FB689A86064BFB
:1058F0001B681946786800F020FC00BF1437BD46CD
:1059000090BD00BFA4480124A848012480B584B0FC
:1059100000AF78600B46FB707B68DB68FB60FB6860
:105920001B8C0233FA68528C93423BDAFB68DB69CA
:105930001846FAF7DFFC0246FB689B8ED31ABB6061
:10594000FB68DA69BB680133D018FB68DA69BB68A9
:10595000D118FB689B8E01331A461CF056FBFB687E
:105960001B8C01339AB2FB681A84FB681B8E0133CF
:105970009AB2FB681A86FB68DA69BB681344FA7846
:105980001A70FB689B8E002B05D0084B1B681946CC
:10599000786800F0D2FB7B681B68FA78114678685B
:1059A000984700E000BF1037BD4680BDB4480124D1
:1059B00080B584B000AF78600B46FB707B68DB6815
:1059C000FB60FB6893F832300D2B02D1FB780A2B79
:1059D00078D0FB6893F832300A2B02D1FB780D2B7C
:1059E00070D0FB780D2B02D0FB780A2B29D1786878
:1059F00000F0DCFA354B1B681946786800F09DFB17
:105A0000FB681B8C002B02D0786800F065F8FB68FF
:105A100000221A84FB68DB69FA68128C13440022A6
:105A20001A70FB6800221A86FB6800225A81FB6804
:105A300000229A86FB681B681946786800F07DFB97
:105A400041E0FB78082B02D0FB787F2B33D1FB6839
:105A50001B8C1A46FB689B8ED31A002B2BDD1C4B2C
:105A60001B681946786800F068FB1A4B1B681946DA
:105A7000786800F062FBFB68DB691846FAF73AFCCD
:105A80000246FB689B8ED31ABB60FB68DA69BB6871
:105A9000013BD018FB68DA69BB68D118FB689B8EA4
:105AA00001331A461CF0B1FAFB681B8C013B9AB219
:105AB000FB681A8407E0FB78092B04D1786800F0B2
:105AC00075FA00E000BF1037BD4680BDA048012434
:105AD000A8480124B848012490B58FB000AF786081
