:020000040804EE
:1000000000000824594A0608154506081D4506083B
:10001000254506082D450608354506080000000060
:10002000000000000000000000000000F1C9050809
:100030003D45060800000000B1CC050819CD0508B3
:10004000AD4A0608AD4A0608AD4A0608AD4A06089C
:10005000AD4A0608AD4A0608AD4A0608AD4A06088C
:10006000AD4A0608AD4A0608AD4A06084D450608E1
:10007000FD450608AD4A0608AD4A0608AD4A060821
:10008000AD4A0608AD4A0608AD4A0608AD4A06085C
:10009000AD4A0608AD4A0608AD4A0608AD4A06084C
:1000A000AD4A0608AD460608AD4A0608AD4A060840
:1000B000AD4A0608AD4A0608AD4A0608AD4A06082C
:1000C000AD4A0608AD4A0608AD4A0608AD4A06081C
:1000D000AD4A0608B9460608F1460608AD4A0608C4
:1000E000AD4A0608AD4A060800000000AD4A060801
:1000F000AD4A0608AD4A0608AD4A06082947060873
:10010000AD4A060871470608AD4A0608AD4A06081A
:10011000AD4A0608AD4A0608AD4A060885470608F6
:10012000AD4A060899470608AD4A0608AD4A0608D2
:10013000AD4A0608AD4A0608AD4A0608AD4A0608AB
:10014000AD4A0608AD4A06080000000000000000A5
:10015000AD4A0608AD4A0608AD4A0608AD4A06088B
:10016000AD4A0608AD4A0608AD4A0608AD4A06087B
:10017000AD4A0608AD4A0608AD4A06080000000070
:10018000AD4A0608AD4A060849480608AD4A0608C1
:10019000AD4A0608814806088F480608AD4A060899
:1001A000AD4A0608AD4A0608AD4A0608AD4A06083B
:1001B000AD4A0608AD4A0608AD4A0608AD4A06082B
:1001C000AD4A0608AD4A0608AD4A0608AD4A06081B
:1001D000AD4A0608AD4A0608AD4A0608AD4A06080B
:1001E000AD4A0608AD4A0608AD4A0608AD4A0608FB
:1001F000AD4A0608AD4A0608AD4A0608AD4A0608EB
:10020000AD4A0608AD4A0608AD4A0608AD4A0608DA
:10021000AD4A0608AD4A0608AD4A0608AD4A0608CA
:10022000AD4A0608AD4A06089D48060800000000D1
:10023000AD4A0608AD4A0608AD4A0608AD4A0608AA
:10024000AD4A0608B1480608BD480608AD4A06088A
:10025000AD4A0608AD4A0608AD4A0608AD4A06088A
:10026000AD4A0608AD4A0608AD4A0608AD4A06087A
:10027000AD4A0608AD4A0608AD4A0608AD4A06086A
:10028000AD4A0608AD4A0608AD4A0608000000005F
:08029000AD4A0608AD4A06085C
:1002A00010B5054C237833B9044B13B10448AFF3B0
:1002B00000800123237010BDD80700240000000037
:1002C00058F4060808B5034B1BB103490348AFF3C4
:1002D000008008BD00000000DC07002458F4060878
:1002E00010F8012B11F8013B012A28BF9A42F7D0E0
:1002F000D01A7047034613F8012B002AFBD1181AB5
:1003000001387047000000000000000000000000FD
:1003100001F0FF01102A2BDB10F0070F08D010F8B6
:10032000013B013A8B422DD010F0070F42B3F6D1BA
:10033000F0B441EA012141EA014122F007047FF0D3
:1003400000070023F0E80256083C85EA010586EA2A
:10035000010685FA47F5A3FA87F586FA47F6A5FA66
:1003600087F68EB9EED1F0BC01F0FF0102F0070272
:1003700032B110F8013B013A83EA010313B1F8D11D
:100380000020704701387047002D06BF35460338FE
:10039000073815F0010F07D1013015F4807F02BF37
:1003A000013015F4C03F0130F0BC0138704700BF88
:1003B00053B94AB9002908BF00281CBF4FF0FF31CC
:1003C0004FF0FF3000F088B9ADF1080C6DE904CEB4
:1003D00000F006F8DDF804E0DDE9022304B0704720
:1003E0002DE9F047089D8E4604468846002B4AD1E9
:1003F0008A42174662D9B2FA82F64EB1C6F120039C
:1004000001FA06F820FA03F3B74043EA0808B440BB
:100410004FEA174E1FFA87FCB8FBFEF1230C0EFBC8
:10042000118843EA084301FB0CF29A4209D9FB18F0
:1004300001F1FF3080F0EA809A4240F2E780023911
:100440003B449A1AA3B2B2FBFEF00EFB102243EA21
:10045000024300FB0CFC9C4509D9FB1800F1FF325C
:1004600080F0D6809C4540F2D3803B44023840EA7D
:100470000140A3EB0C0300211DB1F3400022C5E9AC
:100480000032BDE8F0878B4205D90DB1C5E9000106
:1004900000210846F5E7B3FA83F1002946D17345F8
:1004A00002D3824200F20581841A6EEB030201201E
:1004B0009046002DE5D0C5E90048E2E7002A00F0AB
:1004C0009080B2FA82F6002E40F0A4808A1A030CC3
:1004D0004FEA174E80B2BCB20121B2FBFEFC0EFB0C
:1004E0001C2243EA024304FB0CF29A4207D9FB1890
:1004F0000CF1FF3802D29A4200F2E080C4469B1A07
:10050000B3FBFEF20EFB123340EA034302FB04F49A
:100510009C4207D9FB1802F1FF3002D29C4200F244
:10052000CA8002461B1B42EA0C40A5E7C1F1200627
:100530008B4022FA06F71F430EFA01F420FA06F365
:100540002EFA06FE4FEA1749234300FA01F81FFA74
:1005500087FCBEFBF9F01C0C09FB10EE44EA0E44CC
:1005600000FB0CFEA64502FA01F209D93C1900F184
:10057000FF3A80F09C80A64540F2998002383C44C6
:10058000A4EB0E041FFA83FEB4FBF9F309FB13443A
:100590004EEA044403FB0CFCA44508D93C1903F1C2
:1005A000FF3E80F08280A4457FD9023B3C4443EA71
:1005B0000040A4EB0C04A0FB02EC64457346E1464A
:1005C00062D35FD05DB1B8EB030264EB090404FAB7
:1005D00006F622FA01F31E43CC40C5E9006400216F
:1005E0004FE7B1FBF2FC010C41EA0E4180B240EA58
:1005F00001423B4638463C46B846BE462026B1FB43
:10060000F7F1A2EB080241EA0C4166E7014618E760
:1006100010462CE7C6F120022EFA02F3B740B14093
:1006200020FA02F24FEA174E0A43B3FBFEF8BCB2BF
:100630000EFB1833110C41EA034108FB04F9B040EA
:1006400089454FEA104380B23ED9791808F1FF3C42
:1006500001D289451FD8A1EB0901B1FBFEF909FBC5
:1006600004F80EFB191192B242EA0142424529D226
:10067000BA1809F1FF31C4D24245C2D2A9F1020130
:100680003A44BEE7F0459DD2BEEB02036CEB070C8B
:100690000138E14696E7A7EB09094944A8F1020CA5
:1006A000B1FBFEF909FB04F8DBE773467FE7504630
:1006B00066E70846FDE63B44023A33E7ACF1020C3C
:1006C0003B441CE749469CE7A1EB0901C446B1FB4A
:1006D000FEF909FB04F8C4E7704700BF80B582B09B
:1006E00000AF0123FB711C4B01221A701B480FF055
:1006F000CBF810221A491B480FF01EFA01F0D6FE63
:100700000346FB710FF0B8F910F0E4FB002001F094
:1007100023FC154A022100200EF066FF124A002138
:1007200000200EF061FF104A012100200EF05CFF56
:100730000D4A032100200EF057FF0B4A0421002030
:100740000EF052FF084A052100200EF04DFFFB7904
:1007500018460837BD4680BDF40700240058004005
:10076000001002580034014070F4060880B500AF54
:10077000044A022100200EF037FF00F017F900BFF5
:1007800080BD00BF84F40608F0B589B004AF002333
:10079000FB73204B02221A701F4A002100200EF02A
:1007A00023FF1DF005F81CF0E7FD1DF0DBF810F04D
:1007B00041FC0346002B22D1184A022100200EF0F2
:1007C0006DFE3B1D184610F0AFFBBB7903F5FA63D5
:1007D000BB813B791D467B791E46BA89BB891B0AC2
:1007E0009BB2F979387A7C7A039402900191009354
:1007F0001346324629462B201CF0E6FF05E0054A49
:10080000FB7B9370034B07221A70FB7B184614374F
:10081000BD46F0BDF407002498F40608B0F40608BD
:1008200080B582B000AF234B03221A700123FB7105
:10083000214A002100200EF0D7FE05F0A7FE034656
:10084000FB71FB79002B0BD01C4A042101200EF018
:1008500025FE184AFB799370164B07221A7004E0A4
:10086000174A022100200EF019FE07F0B7FF0346D9
:10087000FB71FB79002B0BD0124A042101200EF0F2
:100880000DFE0C4AFB7993700A4B07221A7004E0A4
:100890000D4A022100200EF001FE0EF043FFFB790D
:1008A0001A4601212D201CF08FFFFB7918460837CE
:1008B000BD4680BDF4070024C0F40608D8F406083D
:1008C000F4F4060810F5060824F5060880B582B091
:1008D00000AF244B04221A700123FB71224A00212D
:1008E00000200EF081FE0FF0C1FF0346FB71FB7983
:1008F000002B0BD01D4A042101200EF0CFFD194A18
:10090000FB799370174B07221A7004E0184A0221F2
:1009100000200EF0C3FD1022164917480FF076FC98
:100920000346FB71FB79002B0BD0144A04210120F4
:100930000EF0B4FD0B4AFB7993700A4B07221A7034
:1009400004E00F4A022100200EF0A8FDFB791A46B0
:1009500002212D201CF038FFFB7918460837BD46D0
:1009600080BD00BFF40700243CF5060854F50608D6
:100970006CF50608000002580014005884F50608BB
:100980009CF5060880B500AF064B05221A70054B92
:1009900006221A70044A002100200EF025FE0023D2
:1009A000184680BDF4070024B4F5060880B500AFF2
:1009B00000F04CF900BF80BD80B5C2B000AF07F5B4
:1009C0008473A3F58273186007F58473A3F58473A9
:1009D000196007F58473A3F5847307F108001B6899
:1009E000054A4FF480712DF011F800BF00BF07F5E4
:1009F0008477BD4680BD00BFCCF5060880B5C0B089
:100A000000AF3B46054A4FF4807118462CF0FEFFBC
:100A100000BF00BF07F58077BD4680BDE8F506083A
:100A200080B500AF032000F003F800BF80BD0000D8
:100A300080B483B000AF0346FB71FB79032B0BD866
:100A400001A252F823F000BF590A0408590A040809
:100A5000590A0408590A040800BF00BF0C37BD46F4
:100A60005DF8047B704700BF80B400AF03231846D5
:100A7000BD465DF8047B704780B483B000AF034689
:100A8000FB71064AFB791370054B00221A7000BFF8
:100A90000C37BD465DF8047B704700BFF7070024A4
:100AA000F807002480B400AF034B1B781846BD46FE
:100AB0005DF8047B704700BFF707002480B483B063
:100AC00000AF0346FB71FB795C2B06D10E4B1B7804
:100AD0000133DAB20C4B1A7002E00B4B00221A7091
:100AE000094B1B78092B07D9084B00221A70064BBB
:100AF00000221A70012300E0002318460C37BD467F
:100B00005DF8047B704700BFF8070024F707002456
:100B100080B483B000AF786039607B681A693B6845
:100B200013403A689A4201D1012300E0002318469D
:100B30000C37BD465DF8047B704780B483B000AFCE
:100B4000786039607B683A689A6100BF0C37BD46AF
:100B50005DF8047B704780B483B000AF7860396083
:100B60003B681A047B689A6100BF0C37BD465DF88C
:100B7000047B704780B584B000AF0346FB71FB79FE
:100B8000FB73FB7B1946034801F046FE00BF10379C
:100B9000BD4680BD0010014080B584B000AF7860D4
:100BA000174B1B680A21184619F04CF90346012B14
:100BB00021D10023FB6014E0124AFB6852F8333065
:100BC00079681846FFF78CFB0346002B06D10D4AC7
:100BD000FB68DB00134401221A7105E0FB68013356
:100BE000FB60FB68022BE7DD054B18680023002241
:100BF000002118F083FE00BF1037BD4680BD00BF46
:100C0000C83000249804002480B582B000AF78601A
:100C10000B4A022100200EF0E7FC00F059F80346D1
:100C2000002B07D0074A042101200EF037FC064BA9
:100C300002225A70002019F01FFF00BFFDE700BF1D
:100C400010F6060824F60608FC07002480B586B0D6
:100C500004AF0F4B02930F4B019305230093002326
:100C60004FF4A0620C490D4819F053FD78607B6881
:100C7000002B06D10A4A052101200EF00FFC00BF0F
:100C8000FDE71AF027F900BF0837BD4680BD00BF59
:100C90006C3000246C1C00244CF60608090C040877
:100CA0005CF6060880B500AF012018F00EFE034682
:100CB000064A1360054B1B68002B02D100BF0123BD
:100CC00001E000BF0023184680BD00BFC8300024EB
:100CD00080B584B002AF0123FB71FFF755FD0346D9
:100CE000FB71FB79002B05D0B04A052101200EF0E5
:100CF000D5FB04E0AE4A002100200EF0CFFBFFF749
:100D00008FFD0346FB71FB79002B05D0A94A052115
:100D100001200EF0C3FB04E0A74A002100200EF0E2
:100D2000BDFBFFF7D3FD0346FB71FB79002B05D01C
:100D3000A24A052101200EF0B1FB04E0A04A0021E7
:100D400000200EF0ABFBFFF71DFE0346FB71FB79A5
:100D5000002B05D09B4A052101200EF09FFB04E0EB
:100D6000994A002100200EF099FB07F081FC08F061
:100D700095F9FB79002B05D0944A052101200EF04E
:100D80008DFB04E0924A002100200EF087FBFB79E6
:100D90001A4603212D201CF017FDFFF783FF0AF0F0
:100DA00085FC01200AF006FD8A4820F0DFF907F0F3
:100DB000FBFBC82019F08CFF07F086FB0023019392
:100DC0000123009300234FF420628349834819F0E4
:100DD00004FD0346012B01D001239EE10023019372
:100DE0000123009300234FF420627D497D4819F0D0
:100DF000F4FC0346012B01D001238EE10023019373
:100E00000123009300234FF4A0627749774819F03B
:100E1000E4FC0346012B01D001237EE10023019372
:100E20000123009300234FF420727149714819F097
:100E3000D4FC0346012B01D001236EE16E4801F082
:100E40000BFB034600220192012200924FF4206224
:100E50006A496B4819F0C1FC0346012B01D00123FC
:100E60005BE1684801F0F8FA034600220192012292
:100E700000924FF420626449644819F0AEFC0346C6
:100E8000012B01D0012348E10023019301230093AA
:100E900000234FF4A0625E495E4819F09EFC0346B1
:100EA000012B01D0012338E100230193012300939A
:100EB000002380225849594819F08FFC0346012B22
:100EC00001D0012329E10023019301230093002392
:100ED00080225349534819F080FC0346012B01D06E
:100EE00001231AE1002301930123009300234FF40F
:100EF00020624D494D4819F070FC0346012B01D08A
:100F000001230AE1002301930123009300234FF4FE
:100F100020624749474819F060FC0346012B01D085
:100F20000123FAE0002301930123009300234FF4EF
:100F300020624149414819F050FC0346012B01D081
:100F40000123EAE0002301930123009300234FF4DF
:100F500020723B493B4819F040FC0346012B01D06D
:100F60000123DAE0384801F077FA034600220192C3
:100F7000012200924FF420623449354819F02DFCCB
:100F80000346012B01D00123C7E000230193012375
:100F9000009300234FF480722E492F4819F01DFC56
:100FA0000346012B5AD00123B7E000BF78F60608AC
:100FB00098F60608ACF60608CCF60608DCF6060835
:100FC000FCF606080CF7060828F706083CF70608A2
:100FD00050F706085C0800245CF70608B114040802
:100FE00068F706086514040878F7060841F704084E
:100FF00080F7060855110408004400408CF70608E5
:10100000D91304080078004098F70608FD12040878
:10101000A0F7060895110408ACF70608DD140408CB
:10102000B4F7060811150408BCF70608DDC3040868
:10103000CCF70608C9C50408D8F7060869C704082C
:10104000E4F706084515040800100140F0F706080B
:10105000ED110408FCF7060861150408002301934C
:101060000123009300234FF480722E492E4819F07B
:10107000B4FB0346012B01D001234EE00023019372
:101080000123009300234FF420722849284819F0C7
:10109000A4FB0346012B01D001233EE00023019372
:1010A0000123009300234FF4A0622249224819F043
:1010B00094FB0346012B01D001232EE00023019372
:1010C0000123009300234FF480721C491C4819F03F
:1010D00084FB0346012B01D001231EE00023019372
:1010E0000123009300234FF420721649164819F08B
:1010F00074FB0346012B01D001230EE0012019F0FF
:10110000E7FD1249124801F0FFFE07F099F80022AE
:1011100001212D201CF058FB002318460837BD463E
:1011200080BD00BF0CF80608291604081CF8060844
:10113000F92B04082CF80608FDC8040838F806083E
:101140006116040844F80608D9CA0408750B040897
:101150000008002480B582B000AF78600FF02EFE4A
:101160000B4B1B6801330A4A1360094B1B68B3F52C
:10117000E15F08D9064B00221A600FF05BFF0346BF
:10118000002B00D100BF4FF47A7019F0A1FDE5E704
:10119000B404002480B584B000AF7860114802F038
:1011A00097F90346FB73FB7B032B02D0FB7B042BDD
:1011B00013D10C4B1B6A012B09D105F033FA0346FE
:1011C0000949184605F0D8FB064B00221A6205F0C3
:1011D00029FA0346184605F03EFB642019F078FD15
:1011E000DCE700BF0008002454F8060880B586B08C
:1011F00000AF78607B687B617B695B6E4FF0FF318D
:10120000184618F01FFE0346012B6DD162E0FFF770
:1012100049FC0346FB73FB7B022B15D13B69DBB218
:101220001946334801F0F8FA3B69DBB21846FFF77C
:1012300045FC0346002B4DD005F0F4F903462D493B
:10124000184605F099FB45E0FB7B042B1ED13B695A
:10125000DBB21846FFF732FC0346002B06D005F040
:10126000E1F903462349184605F086FB05F0DAF953
:1012700002463B69DBB21946104605F0C9FA05F093
:10128000D1F90346184605F0E6FA23E01A4802F0C1
:101290001FF90346BB73BB7B032B02D0BB7B042B24
:1012A00012D1154801F01EFE05F0BCF902463B695B
:1012B000DBB21946104605F0ABFA05F0B3F9034668
:1012C000184605F0C8FA05E03B69DBB219460A4842
:1012D00001F02AFF7B691B68184601F00BFC38619E
:1012E0003B69B3F1FF3F92D1012019F0F1FC83E794
:1012F0000078004058F806080008002480B588B03F
:1013000000AF78607B68FB61FB695B6E002118466B
:1013100018F098FD0346012B56D1FFF7C3FB034697
:10132000FB76FB7E012B11D105E0BB68DBB21946D1
:10133000274801F071FAFB691B68184601F0DAFBD7
:10134000B860BB68B3F1FF3FEFD13DE0FB7E022BFD
:1013500011D105E0FB68DBB219461E4801F05CFACA
:10136000FB691B68184601F0C5FBF860FB68B3F128
:10137000FF3FEFD128E0FB7E032B11D105E03B6955
:10138000DBB21946124801F047FAFB691B681846A0
:1013900001F0B0FB38613B69B3F1FF3FEFD113E0DF
:1013A000FB7E042B10D105E07B69DBB219460948AE
:1013B00001F032FAFB691B68184601F09BFB78616B
:1013C0007B69B3F1FF3FEFD1012019F081FC9BE76E
:1013D000004400400010014080B586B000AF786046
:1013E0007B687B617B695B6E4FF0FF31184618F0BC
:1013F00029FD0346012B2CD1FFF754FB0346FB7458
:10140000FB7C012B11D105E0BB68DBB21946134808
:1014100001F002FA7B691B68184601F06BFBB860AB
:10142000BB68B3F1FF3FEFD113E0FB7C032B10D17E
:1014300005E0FB68DBB21946094801F0EDF97B696C
:101440001B68184601F056FBF860FB68B3F1FF3FDC
:10145000EFD1012019F03CFCC4E700BF0078004048
:101460000044004080B584B000AF7860FFF71AFBFD
:101470000346FB73FB7B002B0CD10A4801F05BFB9E
:101480000346002B03D0084820F09AF902E00648F2
:1014900020F096F90548FFF77FFB022019F018FCB1
:1014A000E4E700BF004400405C08002404F606089E
:1014B00080B584B000AF7860FFF7F4FA0346FB73A1
:1014C000FB7B002B01D107F01BFE0348FFF764FBF9
:1014D000022019F0FDFBEFE700F6060880B582B0A8
:1014E00000AF78604FF480710848FFF734FB4FF489
:1014F0007A7019F0EDFB4FF480710448FFF71DFB83
:101500004FF47A7019F0E4FB00BFEBE7000C0258CF
:1015100080B582B000AF78604FF400710848FFF7E3
:101520000CFB4FF47A7019F0D3FB4FF400710448B0
:10153000FFF711FB4FF47A7019F0CAFB00BFEBE71D
:10154000000C025880B582B000AF78600348FFF706
:1015500023FB642019F0BCFB00BFF7E70CF606087C
:10156000B0B58CB004AF78604FF4FA7019F0B0FBEE
:101570000123FB61294B1B683221184618F062FCDD
:101580000346012B44D10023BB6123E0244ABB69FD
:10159000DB0013441B79002B19D10023FB6100BF32
:1015A00007F10C0318460FF0BFFC3B7B18467B7B12
:1015B0001C46BB7B1D46FB7B3A7C797C02910192E9
:1015C00000932B46224601462E201CF0FDF8BB69F5
:1015D0000133BB61BB69022BD8DDFB69DAB2114B69
:1015E0001A7000237B6108E00D4A7B69DB0013441D
:1015F00000221A717B6901337B617B69022BF3DD69
:10160000064B186800230022002118F077F9ABE799
:1016100000BF044B00221A70A6E700BFC8300024A8
:1016200098040024B004002480B582B000AF786034
:101630000A4B1B78DBB2002B01D00EF02DFA0EF016
:1016400047FA0346012B03D1C82019F041FBEFE70D
:101650004FF4167019F03CFBEAE700BFB004002419
:1016600080B58AB000AF78604FF480614148FFF7E1
:101670004FFA0346002B0CBF01230023DBB287F88F
:10168000273019F087FD38620023FB770AF09AFEB5
:101690000346002B05D10023FB77642019F018FBCB
:1016A00066E04FF480613348FFF732FA0346002BBF
:1016B0000CBF01230023DBB2BB7719F06BFDB861CF
:1016C000BA7F97F827309A4205D0BB7F87F827303A
:1016D000BB693B6249E0BA693B6AD31A7B61BB7F55
:1016E000002B36D07B69632B33D9FB7F002B30D1A5
:1016F0000023FB7307F10F0207F110031146184690
:1017000008F002FB0346002B09D00023002214211D
:1017100019481FF0A9FF0120FFF7AEF913E007F108
:101720000F0207F110031146184608F0EDFA0346C0
:10173000002B08D00023002214210F481FF094FF33
:101740000120FFF799F90120FFF796F90123FB77B4
:101750000BE0BB7F002B08D17B69632B05D90020F0
:10176000FFF78AF900200AF013FE0A2019F0B0FAF8
:101770008CE700BF001002585C08002480B483B0DE
:1017800000AF78607B689B6903F00103012B01D1F6
:10179000012300E0002318460C37BD465DF8047BAA
:1017A000704780B483B000AF78607B689B6903F0BA
:1017B0000203022B01D1012300E0002318460C375D
:1017C000BD465DF8047B704780B483B000AF78609D
:1017D0007B689B6903F00403042B01D1012300E023
:1017E000002318460C37BD465DF8047B704780B473
:1017F00083B000AF78607B689B6903F01003102B07
:1018000001D1012300E0002318460C37BD465DF8E6
:10181000047B704780B483B000AF78607B689B69BD
:1018200003F40043B3F5004F01D1012300E000238E
:1018300018460C37BD465DF8047B704780B483B012
:1018400000AF786039607B685B6823F400423B68D6
:101850001A437B685A6000BF0C37BD465DF8047BB5
:101860007047000080B487B000AFF860B9607A605C
:101870003B60BB68C3F309027B6803F400631A434F
:101880003B681B0403F47F031A433B6A1A437B6AD9
:10189000134323F000437B61FB685A687B6A5B0D4E
:1018A00003F48061064B0B43DB431A407B691A4308
:1018B000FB685A6000BF1C37BD465DF8047B70476B
:1018C000FF7BFF0380B483B000AF78607B685B6A06
:1018D000DBB218460C37BD465DF8047B704780B418
:1018E00083B000AF78600B46FB70FA787B689A6231
:1018F00000BF0C37BD465DF8047B704780B588B0EB
:1019000002AFF8607B600B46FB721346BB720FF0B0
:1019100005FD38610DE00FF001FD02463B69D31A69
:101920000A2B06D9FB681B68184620F0D7FE022355
:1019300096E0FB681B681846FFF76CFF0346002B18
:10194000E9D1FB681868FB7A590097F82030013319
:101950001A46454B01934FF0007300931346002243
:10196000FFF780FF0FF0DAFC386117E0FB681B68B7
:101970001846FFF73CFF0346002B01D001236FE020
:101980000FF0CCFC02463B69D31A0A2B06D9FB6840
:101990001B68184620F0A2FE032361E0FB681B6869
:1019A0001846FFF7FEFE0346002BDFD0FB681B68DE
:1019B000BA7A11461846FFF792FF0023FB752FE015
:1019C0000FF0ACFC386117E0FB681B681846FFF7A6
:1019D0000EFF0346002B01D0012341E00FF09EFCD7
:1019E00002463B69D31A0A2B06D9FB681B681846C6
:1019F00020F074FE032333E0FB681B681846FFF7F2
:101A0000D0FE0346002BDFD0FB681868FB7D7A68A8
:101A100013441B781946FFF762FFFB7D0133FB750A
:101A2000FA7D97F820309A42CAD30FF077FC3861DC
:101A30000DE00FF073FC02463B69D31A0A2B06D95E
:101A4000FB681B68184620F049FE032308E0FB688A
:101A50001B681846FFF792FE0346002BE9D00023CF
:101A600018461837BD4680BD0020008090B589B06B
:101A700002AFF8607B600B46FB721346BB720FF03F
:101A80004DFC38610DE00FF049FC02463B69D31A6A
:101A90000A2B06D9FB681B68184620F01FFE02239C
:101AA000B8E0FB681B681846FFF7B4FE0346002B3E
:101AB000E9D1FB681868FB7A5900584B0193002361
:101AC000009301230022FFF7CDFE0FF027FC3861C1
:101AD00017E0FB681B681846FFF789FE0346002BDA
:101AE00001D0012396E00FF019FC02463B69D31A9E
:101AF0000A2B06D9FB681B68184620F0EFFD03236C
:101B000088E0FB681B681846FFF74BFE0346002B76
:101B1000DFD0FB681B68BA7A11461846FFF7DFFE74
:101B20000FF0FCFB386117E0FB681B681846FFF7F5
:101B30005EFE0346002B01D001236BE00FF0EEFBAD
:101B400002463B69D31A0A2B06D9FB681B68184664
:101B500020F0C4FD03235DE0FB681B681846FFF717
:101B60000DFE0346002BDFD0FB681B6800211846E2
:101B7000FFF764FEFB681868FB7A5900FB7A5B008C
:101B800043F001031C4697F82830254A01924FF094
:101B9000007200922246FFF765FE0FF0BFFB38612E
:101BA0000023FB7530E00FF0B9FB386117E0FB68EC
:101BB0001B681846FFF71BFE0346002B01D00123CC
:101BC00028E00FF0ABFB02463B69D31A0A2B06D97B
:101BD000FB681B68184620F081FD03231AE0FB68B0
:101BE0001B681846FFF7F0FD0346002BDFD0FB68AB
:101BF0001968FB7D7A68D4180846FFF763FE034630
:101C00002370FB7D0133FB75FA7D97F828309A42EB
:101C1000C9D3002318461C37BD4690BD0020008064
:101C20000024008080B584B000AF78600023FB60A2
:101C3000786800F095F8786800F00BF80346002B00
:101C400002D06FF00303FB60FB6818461037BD46F7
:101C500080BD80B584B000AF78600023FB737868E6
:101C600024F01CF80346002B01D00123FB73FB7BFF
:101C700018461037BD4680BD80B586B000AFF8600D
:101C8000B9607A603B603B687A68B968F86824F0AC
:101C900001F90346002B03D06FF003037B6101E0E1
:101CA00000237B617B6918461837BD4680BD80B52F
:101CB00086B000AFF860B9607A603B603B687A68D4
:101CC000B968F86824F0AAF90346002B03D06FF036
:101CD00003037B6101E000237B617B6918461837B1
:101CE000BD4680BD80B582B000AF7860786824F0D2
:101CF000A9FF0346042B14BF01230023DBB21846BF
:101D00000837BD4680BD80B584B000AF78603960CB
:101D10003968786824F0A6FD0346002B03D06FF0E5
:101D20000303FB6001E00023FB60FB6818461037EB
:101D3000BD4680BD80B582B000AF7860786817F08E
:101D400069F900BF0837BD4680BD80B582B000AFDD
:101D50007860786817F088F900BF0837BD4680BD05
:101D600080B582B000AF7860786822F06BF800BF71
:101D70000837BD4680BD80B483B000AF78607B6813
:101D80001B6803F00103012B01D1012300E00023B4
:101D900018460C37BD465DF8047B704780B483B0AD
:101DA00000AF78607B685B6903F00103012B01D110
:101DB000012300E0002318460C37BD465DF8047B84
:101DC000704780B483B000AF78607B685B6903F4D0
:101DD0008053B3F5805F01D1012300E00023184652
:101DE0000C37BD465DF8047B704780B483B000AF0C
:101DF00078607B6830331B78DBB218460C37BD4601
:101E00005DF8047B704780B483B000AF78600B4608
:101E1000FB707B682033FA781A7000BF0C37BD4620
:101E20005DF8047B704780B586B000AFF8600B4664
:101E30007A60FB72F868FFF79EFF0346002B01D122
:101E4000012335E00FF06AFA7861FB7A1946F868E9
:101E5000FFF7D9FF08E00FF061FA02467B69D31A59
:101E60000A2B01D9032323E0F868FFF7AAFF0346F2
:101E7000002BF0D00FF052FA786108E00FF04EFA24
:101E800002467B69D31A0A2B01D9032310E0F868B4
:101E9000FFF784FF0346002BF0D07B68002B06D0B1
:101EA000F868FFF7A2FF03461A467B681A70002302
:101EB00018461837BD4680BD80B584B000AF786045
:101EC0000B46FB707868FFF756FF0346002B01D1E5
:101ED00001231BE00FF022FAF860FB7819467868BE
:101EE000FFF791FF08E00FF019FA0246FB68D31ADA
:101EF0000A2B01D9032309E07868FFF762FF034644
:101F0000002BF0D07868FFF770FF002318461037D9
:101F1000BD4680BD80B582B000AF0346FB71FB7942
:101F2000002B10D1FB79002B06D14FF480620021E9
:101F300007482BF09BFE07E04FF480620021054824
:101F40002BF094FE00E000BF0837BD4680BD00BF07
:101F500000F8003800FC003880B582B000AF0346BE
:101F6000FB71FB79002B04D1FB791846FFF7D2FFF8
:101F700000E000BF0837BD4680BD80B483B000AF2D
:101F800078607B681B6843F001027B681A6000BFC1
:101F90000C37BD465DF8047B704780B483B000AF5A
:101FA00078607B681B6823F001027B681A6000BFC1
:101FB0000C37BD465DF8047B704780B483B000AF3A
:101FC00078607B68DB6903F00203022B01D10123F7
:101FD00000E0002318460C37BD465DF8047B7047CF
:101FE00080B483B000AF78607B68DB6903F00403E2
:101FF000042B01D1012300E0002318460C37BD4615
:102000005DF8047B704780B483B000AF78607B6874
:10201000DB6903F00803082B01D1012300E0002352
:1020200018460C37BD465DF8047B704780B483B01A
:1020300000AF78607B68DB6903F08003802B01D1FF
:10204000012300E0002318460C37BD465DF8047BF1
:10205000704780B483B000AF78607B6802221A6258
:1020600000BF0C37BD465DF8047B704780B483B079
:1020700000AF78607B6804221A6200BF0C37BD464F
:102080005DF8047B704780B483B000AF78607B68F4
:1020900008221A6200BF0C37BD465DF8047B70470A
:1020A00080B489B000AF78607B68FB60FB6853E860
:1020B000003FBB60BB6843F01003FB617B68FA69BB
:1020C000BA617B617969BA6941E800233B613B6988
:1020D000002BE9D100BF00BF2437BD465DF8047B6B
:1020E000704780B489B000AF78607B68FB60FB68A4
:1020F00053E8003FBB60BB6843F08003FB617B6833
:10210000FA69BA617B617969BA6941E800233B6188
:102110003B69002BE9D100BF00BF2437BD465DF805
:10212000047B704780B489B000AF78607B68FB6047
:10213000FB6853E8003FBB60BB6823F08003FB6192
:102140007B68FA69BA617B617969BA6941E8002301
:102150003B613B69002BE9D100BF00BF2437BD467E
:102160005DF8047B704780B483B000AF78607B6813
:102170001B6803F08003802B01D1012300E00023C2
:1021800018460C37BD465DF8047B704780B489B0B3
:1021900000AF78607B680833FB60FB6853E8003F62
:1021A000BB60BB6843F04003FB617B680833FA699E
:1021B000BA617B617969BA6941E800233B613B6997
:1021C000002BE7D100BF00BF2437BD465DF8047B7C
:1021D000704780B485B000AF786039603B68002BF1
:1021E00003D17B682833FB6002E07B682433FB600B
:1021F000FB6818461437BD465DF8047B704780B411
:1022000083B000AF78600B46FB70FA787B689A6207
:1022100000BF0C37BD465DF8047B704780B485B0C5
:1022200000AF786039607B68FB600C4A3B68134400
:102230001B781A46FB6813441B6808493A680A442D
:1022400012781146FA680A4443F00103136000BF94
:102250001437BD465DF8047B704700BF448807080B
:1022600080B485B000AF786039607B68FB600C4A51
:102270003B6813441B781A46FB6813441B680849E3
:102280003A680A4412781146FA680A4423F00103B6
:10229000136000BF1437BD465DF8047B704700BF74
:1022A0004488070880B487B000AFF860B9607A60EE
:1022B000FB687B610D4ABB6813441B781A467B6937
:1022C00013445A680A4B13400849BA680A44127802
:1022D00011467A690A4411467A6813434B6000BF7D
:1022E0001C37BD465DF8047B704700BF4488070873
:1022F0000000FFFF80B485B000AF786039607B6874
:10230000FB60074A3B6813441B781A46FB6813447A
:102310005B689BB218461437BD465DF8047B704776
:102320004488070880B487B000AFF860B9607A606D
:10233000FB687B61074ABB6813441B781A467B69BC
:1023400013441A467B68D36000BF1C37BD465DF856
:10235000047B70474488070880B487B000AFF860FA
:10236000B9607A60FB687B61074ABB6813441B78DD
:102370001A467B6913441A467B68936000BF1C377A
:10238000BD465DF8047B70474488070880B485B07B
:1023900000AF786039607B68FB600C4A3B6813448F
:1023A0001B781A46FB6813441B6808493A680A44BC
:1023B00012781146FA680A4443F00803136000BF1C
:1023C0001437BD465DF8047B704700BF448807089A
:1023D00080B485B000AF786039607B68FB600C4AE0
:1023E0003B6813441B781A46FB6813441B68084972
:1023F0003A680A4412781146FA680A4443F0040322
:10240000136000BF1437BD465DF8047B704700BF02
:102410004488070880B485B000AF786039607B6875
:10242000FB600C4A3B6813441B781A46FB68134454
:102430001B6808493A680A4412781146FA680A4447
:1024400043F01003136000BF1437BD465DF8047BF2
:10245000704700BF4488070880B485B000AF78603B
:102460000023FB6015E01049FA6813465B019B1AD4
:102470009B000B441B687A689A4207D1FA6813469E
:102480005B019B1A9B00084A134406E0FB6801337A
:10249000FB60FB68022BE6DD002318461437BD46BF
:1024A0005DF8047B704700BFB8040024B0B584B069
:1024B00002AF00237B6022E0B5497A6813465B01D6
:1024C0009B1A9B000B441B681846FFF766FDB0493A
:1024D0007A6813465B019B1A9B000B4468331868AB
:1024E000AB497A6813465B019B1A9B000B446C3323
:1024F0001B681946FFF7B4FE7B6801337B607B687D
:10250000022BD9DD4FF400630093A24BA24A0121B4
:10251000A2480EF0AAFD4FF400630093A04BA14A1D
:102520000221A1480EF0A1FD03220021012017F095
:102530003AF90346964A5366954B9C6E944BDD6E72
:1025400001219A48FFF745FE03461A4629462046D0
:10255000FFF702FF8E4B9B6E8D4AD16E8C4AB2F80C
:1025600074201846FFF79EFE894B9B6E884AD16EF9
:10257000874A126F1846FFF7D5FE854B9B6E844A3B
:10258000D26E11461846FFF745FF814B9B6E804A7D
:10259000D26E11461846FFF7F9FE7D4B9B6E7C4AC2
:1025A000D26E11461846FFF713FF8048FFF7EEFD85
:1025B000774B9B6E764AD26E11461846FFF72EFE79
:1025C0007A48FFF76DFD4FF480530093784B794ABA
:1025D000052179480EF049FD4FF480530093774B65
:1025E000774A062177480EF040FD032200210120A2
:1025F00017F0D9F80346664AC2F8E030644BD3F8C6
:10260000E440634BD3F8E85001216F48FFF7E1FD48
:1026100003461A4629462046FFF79EFE5C4BD3F838
:10262000E4305B4AD2F8E810594AB2F8F020184674
:10263000FFF738FE564BD3F8E430554AD2F8E8108D
:10264000534AD2F8EC201846FFF76CFE504BD3F8F3
:10265000E4304F4AD2F8E82011461846FFF7DAFE78
:102660004B4BD3F8E4304A4AD2F8E82011461846DA
:10267000FFF78CFE464BD3F8E430454AD2F8E82009
:1026800011461846FFF7A4FE4F48FFF77FFD404B69
:10269000D3F8E4303E4AD2F8E82011461846FFF756
:1026A000BDFD4948FFF7FCFC4FF440630093474BE6
:1026B000474A0B2147480EF0D8FC4FF44063009383
:1026C000454B464A0C2146480EF0CFFC0322002120
:1026D000012017F068F803462D4AC2F85C312C4BF4
:1026E000D3F860412A4BD3F8645101213D48FFF7EC
:1026F00070FD03461A4629462046FFF72DFE244B5F
:10270000D3F86031224AD2F86411214AB2F86C2120
:102710001846FFF7C7FD1E4BD3F860311C4AD2F8AC
:1027200064111B4AD2F868211846FFF7FBFD184BCD
:10273000D3F86031164AD2F8642111461846FFF7E3
:1027400069FE134BD3F86031114AD2F86421114667
:102750001846FFF71BFE0E4BD3F860310C4AD2F837
:10276000642111461846FFF733FE1E48FFF70EFDA1
:10277000074BD3F86031064AD2F864211146184657
:10278000FFF74CFD1748FFF78BFC00233B6039E057
:10279000B8040024CC380024A4F80608BC040024A3
:1027A000CC400024B0F80608EC04002400100140DE
:1027B000CC580024BCF8060838050024CC68002456
:1027C000C8F806086805002400440040CC840024B2
:1027D000D4F80608B4050024CC900024E0F80608DC
:1027E000E4050024007800400A493A6813465B017A
:1027F0009B1A9B000B441B681846FFF7BEFB3B6807
:1028000001333B603B68022BEEDD0023184608379E
:10281000BD46B0BDB804002480B584B000AF786078
:102820000B46FB707868FFF717FEB860BB68002B9B
:102830001FD0134BFB6005E0FB68013BFB60FB68AE
:10284000002B18D0BB683433FA78114618460EF0C6
:102850003FFC034683F00103DBB2002BECD1786828
:10286000FFF781FC0346002B06D17868FFF739FC9F
:1028700002E000BF00E000BF1037BD4680BD00BFD2
:1028800020A1070080B584B000AF78603960786817
:10289000FFF7E2FDF860FB68002B11D03B68002BCE
:1028A0000ED008E03B681B7819467868FFF7B4FF44
:1028B0003B6801333B603B681B78002BF2D100E0A2
:1028C00000BF1037BD4680BD80B584B000AF7860D2
:1028D0007868FFF7C1FDF860FB68002B75D0FB68D6
:1028E0001B68DB6903F00203002B03D0FB681B6845
:1028F00002221A62FB681B68DB6903F00403002BE9
:1029000003D0FB681B6804221A62FB681B68DB6942
:1029100003F48053002B04D0FB681B684FF48052F3
:102920001A62FB681B68DB6903F40033002B04D0D8
:10293000FB681B684FF400321A62FB681B6818467C
:10294000FFF73BFB0346002B04D0FB681B681846CF
:10295000FFF77FFBFB681B681846FFF741FB034648
:10296000002B04D0FB681B681846FFF77FFBFB6851
:102970001B681846FFF747FB0346002B04D0FB6893
:102980001B681846FFF77FFB7868FFF74FFB03468D
:10299000002B1BD07868FFF7E6FB0346002B15D011
:1029A000FB68343307F10B02114618460EF0D6FBD4
:1029B0000346002B05D0FB7A19467868FFF71FFC09
:1029C00004E07868FFF7AEFB00E000BF1037BD46BB
:1029D00080BD000080B58AB000AF78600023BB6086
:1029E0007868FFF739FDB861BB69002B7CD0BB6903
:1029F0009B6F7B61BB699A6EBB69DB6E19461046A3
:102A0000FFF778FC03467B82BB69B3F874301A4643
:102A10007B8AD31AFB60FA687B699A4265D0FA68B0
:102A20007B699A4214D97B697B620CE0BB69181DF3
:102A3000BB691A6F7B6A13441B7819460EF048FB7A
:102A40007B6A01337B627A6AFB689A42EED32AE0A2
:102A50007B693B620CE0BB69181DBB691A6F3B6A5E
:102A600013441B7819460EF033FB3B6A01333B627B
:102A7000BB69B3F874301A463B6A9342EBD3002328
:102A8000FB610CE0BB69181DBB691A6FFB6913443D
:102A90001B7819460EF01CFBFB690133FB61FA69D8
:102AA000FB689A42EED3BB695B6E07F108021146E0
:102AB000184617F02DF8BB68002B07D00C4B4FF0D1
:102AC00080521A60BFF34F8FBFF36F8FBB69FA68F4
:102AD0009A67BB699B6FBA69B2F87420934204D1BC
:102AE000BB6900229A6700E000BF2837BD4680BD61
:102AF00004ED00E080B584B000AF78607868FFF73F
:102B0000ABFCF860FB68002B02D14FF0FF330EE006
:102B1000FB68043307F10B02114618460EF01EFB4A
:102B20000346002B01D0FB7A01E04FF0FF3318463B
:102B30001037BD4680BD80B584B000AF786078683E
:102B4000FFF78AFCF860FB68002B01D1002305E049
:102B5000FB68043318460EF07EFB03461846103718
:102B6000BD4680BD80B584B000AF78607868FFF75F
:102B700073FCF860FB68002B01D1002306E0FB68C2
:102B8000343318460EF02BFB034600BF18461037AF
:102B9000BD4680BD80B483B000AF786039607B688B
:102BA0001A693B6813403A689A4201D1012300E058
:102BB000002318460C37BD465DF8047B704780B48F
:102BC00083B000AF786039607B683A689A6100BF73
:102BD0000C37BD465DF8047B704780B483B000AF0E
:102BE000786039603B681A047B689A6100BF0C37D3
:102BF000BD465DF8047B704780B586B000AF786055
:102C000018F0C8FA0346FB604FF400413548FFF75F
:102C1000E4FF0023FB7518F0BDFA38610DE04FF4B6
:102C200000613148FFF7B6FF0346002B02D10123B4
:102C3000FB750AE0322018F04BF818F0ABFA0246A8
:102C40003B69D31AB3F5FA7FE9D34FF40041254825
:102C5000FFF7B5FF0023BB7518F09CFA38610DE053
:102C60004FF400612048FFF795FF0346002B02D088
:102C70000123BB750AE0322018F02AF818F08AFA0E
:102C800002463B69D31AB3F5FA7FE9D3FB7D002BEB
:102C900006D0BB7D002B03D0144B00221A8005E028
:102CA000124B1B8801339AB2104B1A800F4B1B88B2
:102CB000772B0ED900BF80210D48FFF78EFF6420CF
:102CC00018F006F880210A48FFF779FF074B002229
:102CD0001A8007F10C0341F28831184617F070FF93
:102CE00092E700BF0014025800100258CC9C002448
:102CF0000018025880B400AF034B1B881846BD462D
:102D00005DF8047B704700BFCC9C002480B485B084
:102D100000AF78600D4BFB600CE07B685A1C7A605A
:102D20001B781A46FB685340FB60FB68084A02FBAD
:102D300003F3FB607B681B78002BEED1FB68184621
:102D40001437BD465DF8047B704700BFC59D1C81EC
:102D50009301000180B485B000AF786039607A6873
:102D60003B685340FB60FB681B0CFA681343FB6035
:102D7000FB681B0AFA681343FB60FB68DBB2002B9D
:102D80000CBF01230023DBB218461437BD465DF8A3
:102D9000047B704780B584B000AF78607868FFF737
:102DA000B5FFF860054BBB60B968F868FFF7D2FF64
:102DB000034618461037BD4680BD00BFA37B47C5FC
:102DC00080B584B000AF78600CF0ACFEF8600023F2
:102DD000FB7207F10B0201230021F8680CF099FF48
:102DE0000346002B02D1FB7A102B07D915497868CE
:102DF00000F020F9144B01221A6020E0FB7A002B2E
:102E000016D0FB7A114A0121F8680CF082FF0346C4
:102E1000002B05D1FB7A1A460C4B002199540EE089
:102E20000849786800F006F9074B01221A6006E0AD
:102E30000449786800F0FEF8034B01221A6010374D
:102E4000BD4680BDECF80608E49C0024D09C00241C
:102E500080B584B000AF78600E4B1B68012B0BD19E
:102E60007868FFF753FFF8600B4BBB60B968F868F0
:102E7000FFF770FF034609E008497868FDF730FA6C
:102E80000346002B01D1012300E000231846103730
:102E9000BD4680BDE49C0024A37B47C5D09C002494
:102EA00080B582B000AF78607B6893F82830042B3F
:102EB00010D17B685B6D5A1C7B685A657B685B6DC3
:102EC000064A934206D3786800F068F804497868A7
:102ED00000F0B0F800BF0837BD4680BDE0930400A5
:102EE00028F9060880B483B000AF78607B6893F857
:102EF0002830042B02D17B6800225A6500BF0C37B2
:102F0000BD465DF8047B704780B582B000AF786045
:102F100039607B683A689A657B6800221A627B6830
:102F200000225A627B68002283F828207B680022F6
:102F3000DA627B6800221A657B6800225A657B682A
:102F40002022002118462AF091FE7B68303320228F
:102F5000002118462AF08AFE0B49786800F06AF8CA
:102F60000A49786800F066F80949786800F062F864
:102F70000849786800F05EF80749786800F05AF868
:102F800000BF0837BD4680BD54F906085CF9060845
:102F900064F9060878F9060880F9060880B582B059
:102FA00000AF78607B6801221A627B6800225A6257
:102FB0007B68002283F828207B680022DA627B6825
:102FC00000221A657B6800225A657B682022002156
:102FD00018462AF04BFE7B68303320220021184629
:102FE0002AF044FE0D49786800F024F80C4978680E
:102FF00000F020F80B49786800F01CF80A4978685E
:1030000000F018F80949786800F014F80849786861
:1030100000F010F800BF0837BD4680BD54F906081F
:103020005CF9060864F9060878F9060880F90608CC
:1030300084F9060880B582B000AF7860396007E097
:103040007B689A6D3B68591C39601B78184690471D
:103050003B681B78002BF3D100BF00BF0837BD468B
:1030600080BD000080B582B000AF78607B6893F8C7
:103070002830002B37D17B6824491846FDF730F9FA
:103080000346002B0BD17B68012283F828207B6844
:103090000022DA621E497868FFF7CCFF31E07B68D6
:1030A0001C491846FDF71CF90346002B0ED1786821
:1030B000FFF786FE7B68022283F828207B680022C7
:1030C000DA6213497868FFF7B5FF1AE012497868A9
:1030D000FFF7B0FF11497868FFF7ACFF1049786837
:1030E000FFF7A8FF0DE07B6893F82830032B04D08E
:1030F0007B6893F82830042B03D10A497868FFF7DE
:1031000099FF00BF0837BD4680BD00BF9CF9060887
:10311000A4F90608B0F90608B8F9060880F9060807
:1031200084F90608E4F90608F0B59DB006AF7860AA
:103130000B46FB707B6893F82830012B05D07B6829
:1031400093F82830022B40F03A810A22FB78934210
:1031500004D00D22FB78934240F002817B681B6D06
:103160007A681344002283F830207B6893F8283073
:10317000012B5ED17B6830331846FFF70BFE034608
:10318000012B56D17B68032283F82820A649786852
:10319000FFF750FFA5497868FFF74CFFA44978680E
:1031A000FFF748FF07F1500318460DF0BDFE97F8F2
:1031B00050301E4697F8513097F8522097F8531028
:1031C00097F85400044697F85500054607F10800A3
:1031D000049503940291019200933346954A40214D
:1031E0002AF014FC07F1080319467868FFF722FF5C
:1031F0008D497868FFF71EFF8F497868FFF71AFF3F
:103200008E497868FFF716FF8D497868FFF712FF3F
:103210008C497868FFF70EFF8B497868FFF70AFF43
:1032200085497868FFF706FF7F497868FFF702FF56
:1032300092E07B6893F82830022B5ED17B683033B4
:103240001846FFF705FE0346012B56D17B68042282
:1032500083F8282074497868FFF7ECFE7349786892
:10326000FFF7E8FE79497868FFF7E4FE07F14803C5
:1032700018460DF059FE97F848301E4697F8493029
:1032800097F84A2097F84B1097F84C00044697F8A7
:103290004D00054607F10800049503940291019240
:1032A00000933346634A40212AF0B0FB07F108033C
:1032B00019467868FFF7BEFE5B497868FFF7BAFEEB
:1032C0005D497868FFF7B6FE5C497868FFF7B2FEA3
:1032D0005B497868FFF7AEFE5A497868FFF7AAFEA7
:1032E00059497868FFF7A6FE53497868FFF7A2FEB0
:1032F0004D497868FFF79EFE2EE07B68DB6A5A1C1A
:103300007B68DA6248497868FFF794FE7B68DB6A7D
:103310000322934214DB7B68002283F828204C4967
:103320007868FFF787FE40497868FFF783FE3E49DB
:103330007868FFF77FFE47497868FFF77BFE0BE070
:1033400045497868FFF776FE37497868FFF772FEDF
:1033500042497868FFF76EFE7B6800221A65B2E08A
:103360007F22FB78934216D17B681B6D002B40F3C4
:10337000AA807B681B6D5A1E7B681A657B689B6DF3
:10338000082098477B689B6D202098477B689B6D41
:103390000820984797E07B681B6D1E2B00F39380F5
:1033A0007B681B6D591C7A6811657A681344FA783A
:1033B00083F830207B689B6D2A20984783E07B68E8
:1033C00093F82830032B04D07B6893F82830042B23
:1033D00004D123497868FFF72DFE75E00A22FB78B7
:1033E000934203D00D22FB7893423BD17B685B6A0A
:1033F0007A680021D1547B685B6A002B0ADD0A4998
:103400007868FFF717FE7868FFF72CFE7B680022CC
:103410005A6259E004497868FFF70CFE0D49786854
:10342000FFF708FE50E000BF80F90608F4F906082F
:1034300060FA060888FA0608B4FA0608DCFA0608F4
:1034400004FB06082CFB060854FB06087CFB060858
:10345000A0FB060884F90608CCFB0608A4F90608B8
:10346000F4FB06087F22FB7893421AD17B685B6AE3
:10347000002B29DD7B685B6A5A1E7B685A627B6879
:103480005B6A7A680021D1547B689B6D082098475D
:103490007B689B6D202098477B689B6D0820984730
:1034A00012E07B685B6A1E2B0EDC7B685B6A591C32
:1034B0007A6851627A68F978D1547B689B6DFA78A2
:1034C0001046984700E000BF00BF5C37BD46F0BD26
:1034D00080B483B000AF78607B6893F828301846DA
:1034E0000C37BD465DF8047B7047000080B400AF28
:1034F000BFF34F8F00BF064BDB6803F4E062044963
:10350000044B1343CB60BFF34F8F00BF00BFFDE7F9
:1035100000ED00E00400FA0580B483B000AF7860ED
:1035200039607B683A689A6100BF0C37BD465DF828
:10353000047B704780B483B000AF786039603B682B
:103540001A047B689A6100BF0C37BD465DF8047BA6
:10355000704780B485B000AF03460A46FB8013462F
:103560007B7141F22103BB817B791BB21B021AB232
:10357000B7F9063053401BB2FB800023FB7313E006
:10358000B7F90630002B09DAB7F906305B001AB23A
:10359000B7F90C3053401BB2FB8002E0FB885B00A4
:1035A000FB80FB7B0133FB73FB7B072BE8D9FB889C
:1035B00018461437BD465DF8047B704780B5A8B047
:1035C00002AFF860B9607A600121B86803F096FA3A
:1035D000C7F884000221B86803F090FAC7F88000A9
:1035E0000023A7F89630D7F88430002B03D0D7F803
:1035F0008030002B04D1A049F86803F0BDF938E110
:10360000D7F8840029F0FEFFF86700220021D7F8E0
:1036100080002AF02FF9B867BB6F002B03D0BB6F77
:10362000B3F5483F0ED907F110004FF44833934AE1
:1036300064212AF0EBF907F110031946F86803F04A
:103640009BF916E1FDF710FA0346032B1BD0FDF79B
:103650000BFA0346022B08D0FDF706FA0346012BAE
:1036600001D1874B02E0874B00E0874B07F1100048
:10367000864A64212AF0CAF907F110031946F8684E
:1036800003F07AF9F5E00220FDF7D2F9FB6F032B86
:103690006DD0FB6F032B00F39C80FB6F012B03D0DD
:1036A000FB6F022B2CD094E00023C7F890301AE077
:1036B000D7F8903087F87530D7F89030744A1344B3
:1036C00097F875201A7097F87520B7F8963011465C
:1036D0001846FFF73EFF0346A7F89630D7F890301C
:1036E0000133C7F89030D7F89020BB6F9A42DFD3F0
:1036F00007F11000BB6F674A64212AF087F970E078
:103700000023C7F88C3025E0D7F88C10624BA3FB60
:1037100001239A0913465B0013445B01CA1AD3B212
:10372000203387F87630D7F88C30594A134497F80D
:1037300076201A7097F87620B7F89630114618461A
:10374000FFF707FF0346A7F89630D7F88C30013310
:10375000C7F88C30D7F88C20BB6F9A42D4D307F1CE
:103760001000BB6F4D4A64212AF050F939E0002364
:10377000C7F8883020E029F049FF03465A42DBB2FF
:10378000D2B258BF534287F87730D7F88830404AD2
:10379000134497F877201A7097F87720B7F8963087
:1037A00011461846FFF7D5FE0346A7F89630D7F81E
:1037B00088300133C7F88830D7F88820BB6F9A4229
:1037C000D9D307F11000BB6F354A64212AF01EF9E6
:1037D00007E03449F86803F0CFF80320FDF728F933
:1037E00047E04FF47A7017F073FA0120FDF720F9E3
:1037F00007F110031946F86803F0BEF8244A244B79
:103800001B7807F1100000931346274A64212AF021
:10381000FDF807F110031946F86803F0ADF8BB6F27
:10382000013B1B4A13441946BB6F013B184A134422
:103830001B7807F1100000930B461C4A64212AF004
:10384000E5F807F110031946F86803F095F8B7F8A2
:10385000963007F11000164A64212AF0D7F807F1D4
:1038600010031946F86803F087F81249F86803F066
:1038700083F89837BD4680BD1C0807086C08070808
:1038800094080708A0080708A8080708B008070850
:1038900000000030D4080708ABAAAAAA0409070848
:1038A000340907085809070888090708AC090708F8
:1038B000CC090708E409070880B5AAB002AFF86090
:1038C000B9607A600121B86803F018F9C7F884007C
:1038D0001023C7F880300023C7F89C300023A7F8D6
:1038E0009A30D7F88430002B04D17C49F86803F073
:1038F00043F8EFE000220021D7F8840029F0BAFF56
:10390000F86707F11400FB6F754A64212AF07EF80E
:1039100007F114031946F86803F02EF8714A07F10D
:103920001400704B009313466F4A64212AF06EF81E
:1039300007F114031946F86803F01EF80023C7F8CE
:103940009430ACE0674AD7F89430134407F1140080
:10395000664A64212AF05AF807F114031846FCF766
:10396000C9FC024607F114031344C7F89030002342
:10397000C7F88C3030E0D7F89420D7F88C30134457
:10398000584AD35C87F87B3007F11403D7F89020AE
:10399000D31AC3F1640197F87B30554AD7F89000E9
:1039A0002AF034F8D7F890300333C7F89030D7F8BE
:1039B0009C300133C7F89C3097F87B20B7F89A30D9
:1039C00011461846FFF7C5FD0346A7F89A30D7F809
:1039D0008C300133C7F88C30D7F88C20D7F8803082
:1039E0009A4207D2D7F89420D7F88C301344FA6F54
:1039F0009A42C0D8D7F890305A1CC7F8902020229D
:103A00001A70D7F890305A1CC7F890207C221A7090
:103A10000023C7F8883020E0D7F89420D7F8883002
:103A20001344304AD35C87F87A3097F87A301F2BEA
:103A300006D997F87A307E2B02D897F87A1000E0F2
:103A40002E21D7F890305A1CC7F890200A461A70D9
:103A5000D7F888300133C7F88830D7F88820D7F8EE
:103A600080309A4207D2D7F89420D7F88830134490
:103A7000FA6F9A42D0D8D7F8903000221A7007F126
:103A800014031946F86802F077FF012017F020F9B7
:103A9000D7F89420D7F880301344C7F89430D7F87B
:103AA0009420FB6F9A42FFF44DAFB7F89A3007F1BC
:103AB00014000093D7F89C300E4A642129F0A6FF29
:103AC00007F114031946F86802F056FF0A49F8682E
:103AD00002F052FFA037BD4680BD00BFE8090708CD
:103AE000100A070800000038380A07085C0A0708AF
:103AF000680A0708700A0708E409070880B5A0B03B
:103B000000AFF860B9607A600121B86802F0F6FF92
:103B1000F867FB6F002B04D13449F86802F02CFFE2
:103B200060E03349F86FFCF7DBFB0346002B42D122
:103B3000FCF79AFF034687F87B3097F87B30032B1E
:103B40002AD801A252F823F0593B0408693B040823
:103B5000793B0408893B040807F11403254A6421D2
:103B6000184629F053FF1FE007F11403224A64218D
:103B7000184629F04BFF17E007F114031F4A642190
:103B8000184629F043FF0FE007F114031C4A642193
:103B9000184629F03BFF07E007F11403194A642196
:103BA000184629F033FF00BF07F114031946F868DF
:103BB00002F0E2FE12E01449F86FFCF791FB0346B5
:103BC000002B07D10320FCF733FF1049F86802F0FF
:103BD000D3FE03E00E49F86802F0CEFE0D49F86806
:103BE00002F0CAFE8037BD4680BD00BFA80A0708A4
:103BF000C80A0708CC0A0708E00A0708F80A0708F5
:103C00000C0B0708200B07080C010708380B0708E6
:103C1000540B0708E409070880B5A0B000AFF860AE
:103C2000B9607A600CF018FEF867FB6F1B7D83F0BB
:103C30000103DBB2002B04D01749F86802F09CFEA8
:103C400027E00CF047FF034687F87B3097F87B307E
:103C5000002B0DD107F11403104A6421184629F0F6
:103C6000D5FE07F114031946F86802F085FE0CE052
:103C700007F114030A4A6421184629F0C7FE07F128
:103C800014031946F86802F077FE0649F86802F056
:103C900073FE8037BD4680BD840B0708A80B07085C
:103CA000D00B0708E409070890B5ABB004AFF86083
:103CB000B9607A600121B86802F020FFC7F894006B
:103CC0000221B86802F01AFFC7F89000D7F89430C4
:103CD000002B03D0D7F89030002B04D13449F8687A
:103CE00002F04AFE61E0D7F8940029F08BFC03460D
:103CF00087F88F3000220021D7F8900029F0BAFD14
:103D0000C7F888002B4A97F88F30D7F888101846E4
:103D10000CF0DAFD034687F8873097F88730002BE0
:103D20001ED107F1100318460CF06AFE0346002B63
:103D300037D17A693B7C1946BB69B88B044607F1D9
:103D4000200002940193009113461B4A642129F03C
:103D50005DFE07F120031946F86802F00DFE20E031
:103D600097F88730022B0ED197F88F3007F120009B
:103D7000124A642129F04AFE07F120031946F86827
:103D800002F0FAFD0DE097F8873007F120000C4AA9
:103D9000642129F03BFE07F120031946F86802F080
:103DA000EBFD0849F86802F0E7FD9C37BD4690BD81
:103DB000F40B070800000030180C0708580C07081F
:103DC000780C0708E409070880B5A4B002AFF860D2
:103DD000B9607A600CF0B8FE034687F8873097F830
:103DE0008730032B38D801A252F823F04F3E040845
:103DF000113E0408073E0408FD3D04081D49F8680B
:103E000002F0BAFD2DE01C49F86802F0B5FD28E08B
:103E100007F1100318460CF0F3FD0346002B11D1F7
:103E2000BB8B1A46BB6907F1200000931346134A67
:103E3000642129F0EBFD07F120031946F86802F030
:103E40009BFD0EE00E49F86802F096FD09E00D4971
:103E5000F86802F091FD04E00B49F86802F08CFD6F
:103E600000BF0A49F86802F087FD00BF8837BD46E9
:103E700080BD00BFA00C0708AC0C0708B80C0708F1
:103E8000E80C0708140D0708240D0708E4090708C3
:103E900080B5A6B002AFF860B9607A600121B86859
:103EA00002F02CFEC7F88400D7F88430002B04D130
:103EB0003A49F86802F060FD6CE000220021D7F872
:103EC000840029F0D7FCC7F880000CF095F9F8675A
:103ED000FB6FDB7A83F00103DBB2002B04D03049A7
:103EE000F86802F049FD55E02E4BD7F880101846CF
:103EF0000CF0CEF9034687F87B304FF400512A4886
:103F0000FFF70AFB97F87B30002B31D10023A7F88D
:103F10008E300023C7F8883012E0224AD7F8883064
:103F200013441A78B7F88E3011461846FFF711FB84
:103F30000346A7F88E30D7F888300133C7F88830A9
:103F4000D7F88820D7F880309A42E6D3B7F88E3079
:103F500007F114000093D7F88030144A642129F047
:103F600055FD07F114031946F86802F005FD0DE050
:103F700097F87B3007F114000D4A642129F046FDC3
:103F800007F114031946F86802F0F6FC0949F868CD
:103F900002F0F2FC9037BD4680BD00BF340D07082B
:103FA000600D07080000003800100258840D070853
:103FB000B00D0708E409070880B588B000AFF860C5
:103FC000B9607A604FF400510948FFF7B3FA07F17E
:103FD0001403084A0A21184629F018FD07F11403B2
:103FE0001946F86802F0C8FC00BF2037BD4680BD06
:103FF00000100258D40D0708F0B5B3B006AFF86052
:10400000B9607A600121B86802F078FDC7F8AC00A9
:104010000221B86802F072FDC7F8A8000321B86851
:1040200002F06CFDC7F8A4000421B86802F066FD38
:10403000C7F8A0000521B86802F060FDC7F89C0031
:104040000621B86802F05AFDC7F89800D7F8AC30DE
:10405000002B13D0D7F8A830002B0FD0D7F8A430FE
:10406000002B0BD0D7F8A030002B07D0D7F89C300E
:10407000002B03D0D7F89830002B0DD107F118038F
:10408000624A6421184629F0C1FC07F11803194659
:10409000F86802F071FCB6E0D7F8AC0029F0B2FA8B
:1040A000C7F89400D7F8A80029F0ACFAC7F8900038
:1040B000D7F8A40029F0A6FAC7F88C00D7F8A0001A
:1040C00029F0A0FAC7F88800D7F89C0029F09AFADE
:1040D000C7F88400D7F8980029F094FAC7F8800050
:1040E000D7F89430002B03DBD7F89430172B04DD7E
:1040F0004749F86802F040FC85E0D7F89030002B83
:1041000003DBD7F890303B2B04DD4249F86802F01E
:1041100033FC78E0D7F88C30002B03DBD7F88C30F9
:104120003B2B04DD3C49F86802F026FC6BE0D7F835
:104130008830002B03DDD7F888301F2B04DD37498A
:10414000F86802F019FC5EE0D7F88430002B03DD3C
:10415000D7F884300C2B04DD3149F86802F00CFCF0
:1041600051E0D7F88030002B03DBD7F88030632B89
:1041700004DD2C49F86802F0FFFB44E0D7F89430E6
:10418000DBB2FB74D7F89030DBB23B75D7F88C30DC
:10419000DBB27B75D7F88830DBB23B74D7F884305C
:1041A000DBB27B74D7F88030DBB2BB7407F110034D
:1041B00018460CF0CFFE0BF085FBF86707F11003F3
:1041C0001946F86F0BF0D4FBFB7C1E463B7D7A7DD5
:1041D000397C787C0446B87C054607F118000495C4
:1041E000039402910192009333460F4A642129F00F
:1041F0000DFC07F118031946F86802F0BDFB0B49E6
:10420000F86802F0B9FBB437BD46F0BDDC0D070815
:104210001C0E0708500E0708840E0708B80E070882
:10422000E80E07081C0F0708640F0708E4090708D1
:10423000F0B5B7B006AFF860B9607A600121B86830
:1042400002F05CFCC7F8BC00D7F8BC30002B0DD1E5
:1042500007F14803C84A6421184629F0D7FB07F143
:1042600048031946F86802F087FB82E1C349D7F892
:10427000BC00FCF735F80346002B3FD10BF022FBC6
:10428000C7F8AC0007F140031946D7F8AC000BF0B3
:1042900023FB0346002B2CD107F13E031946D7F828
:1042A000AC000BF0A9FB97F843309C4697F84430DC
:1042B00097F8452097F8401097F84100044697F882
:1042C00042000546B7F93E00064607F1480005964C
:1042D000049503940291019200936346A84A6421D5
:1042E00029F094FB07F148031946F86802F044FBF3
:1042F0003BE1A449F86802F03FFB36E1A249D7F858
:10430000BC00FBF7EDFF0346002B26D107F1380375
:1043100018460CF009FE97F83B301E4697F83C30E3
:1043200097F83D2097F8381097F83900044697F829
:104330003A00054607F14800049503940291019262
:1043400000933346914A642129F060FB07F148034A
:104350001946F86802F010FB07E18D49D7F8BC0058
:10436000FBF7BEFF0346002B2ED100237B63002307
:1043700087F83330002387F83230002387F8313054
:1043800007F1310307F1320207F1330107F134007D
:104390000CF024FE97F833301C4697F8323097F82B
:1043A0003120796BC9B207F1480002910192009364
:1043B0002346784A642129F029FB07F1480319466E
:1043C000F86802F0D9FAD0E07349D7F8BC00FBF7DF
:1043D00087FF0346002B12D10CF0F2FDC7F8B000A6
:1043E00007F14800D7F8B0306C4A642129F00EFB81
:1043F00007F148031946F86802F0BEFAB5E06849CB
:10440000D7F8BC00FBF76CFF0346002B40F0A08000
:104410000BF058FAC7F8B80007F128031946D7F887
:10442000B8000BF059FA0346002B2CD107F1160304
:104430001946D7F8B8000BF0DFFA97F82B309C46F6
:1044400097F82C3097F82D2097F8281097F8290026
:10445000044697F82A000546B7F91600064607F104
:1044600048000596049503940291019200936346D7
:10447000434A642129F0CAFA07F148031946F8684B
:1044800002F07AFA03E04749F86802F075FA07F19A
:10449000200318460CF048FD97F823301E4697F885
:1044A000243097F8252097F8201097F8210004462B
:1044B00097F82200054607F14800049503940291FD
:1044C000019200933346314A642129F09FFA07F1A3
:1044D00048031946F86802F04FFA0023FB610023F5
:1044E000FB760023BB7600237B7607F1190307F1E7
:1044F0001A0207F11B0107F11C000CF06FFDFB7E97
:104500001C46BB7E7A7EF969C9B207F14800029168
:104510000192009323461F4A642129F077FA07F19C
:1045200048031946F86802F027FA0CF049FDC7F86D
:10453000B40007F14800D7F8B430184A642129F0D4
:1045400065FA07F148031946F86802F015FA0CE01D
:1045500007F14803144A6421184629F057FA07F175
:1045600048031946F86802F007FA1049F86802F0A3
:1045700003FAC437BD46F0BD940F0708C00F070803
:10458000C80F0708101007082C1007083410070878
:104590007010070878100708AC100708B410070857
:1045A000C4100708C8100708E0100708E409070846
:1045B000F0B5A9B006AFF860B9607A600121B868BB
:1045C00002F09CFAC7F88400D7F88430002B0DD194
:1045D00007F118032F4A6421184629F017FA07F14A
:1045E00018031946F86802F0C7F950E000220021CC
:1045F000D7F8840029F03EF9C7F88000D7F880305A
:10460000254A93420DD807F11800244B244A64210F
:1046100029F0FCF907F118031946F86802F0ACF923
:1046200035E0D7F880000CF0ABFCD7F880201D4BAC
:10463000134407F11002114618460CF037FB0BF03B
:1046400041F9F86707F110031946F86F0BF090F97C
:10465000FB7C1E463B7D7A7D397C787C0446B87CA9
:10466000054607F118000495039402910192009306
:1046700033460D4A642129F0C9F907F11803194698
:10468000F86802F079F90949F86802F075F98C3791
:10469000BD46F0BD181107087F436D3880436D3863
:1046A0003411070880BC92C7640F0708E4090708A3
:1046B00080B5A4B002AFF860B9607A600121B86833
:1046C00002F01CFAC7F884000221B86802F016FA5A
:1046D000C7F88000D7F88430002B03D0D7F880309B
:1046E000002B0DD107F11403254A6421184629F047
:1046F0008DF907F114031946F86802F03DF93CE022
:1047000000220021D7F8840029F03AF80346A7F8E0
:104710007E3000220021D7F8800029F031F80346CE
:10472000DBB2FB740BF0FEF9B867B7F87E1007F147
:1047300013020123B86F0BF05DFA0346002B0AD178
:10474000B7F87E30FA7C07F1140000920D4A64211C
:1047500029F05CF907E0B7F87E3007F114000A4A47
:10476000642129F053F907F114031946F86802F09F
:1047700003F90649F86802F0FFF88837BD4680BDA6
:10478000541107087811070898110708E409070869
:1047900080B5A4B002AFF860B9607A600121B86852
:1047A00002F0ACF9C7F88400D7F88430002B0DD1A3
:1047B00007F11803224A6421184629F027F907F166
:1047C00018031946F86802F0D7F835E000220021F6
:1047D000D7F8840028F0D4FF0346A7F882300023DE
:1047E000FB750BF09FF9F867B7F8821007F1170215
:1047F0000123F86F0BF08DFA0346002B0AD1B7F8AE
:104800008230FA7D07F1180000920E4A642129F0E7
:10481000FDF807E0B7F8823007F118000A4A642172
:1048200029F0F4F807F118031946F86802F0A4F823
:104830000649F86802F0A0F88837BD4680BD00BF81
:10484000B4110708D0110708F0110708E409070898
:1048500080B584B000AFF860B9607A60F86804F0A1
:10486000A5F90449F86802F087F800BF1037BD4683
:1048700080BD00BFE409070880B584B000AFF860D0
:10488000B9607A6003F020FE0549F86802F074F818
:104890000449F86802F070F800BF1037BD4680BDCB
:1048A0000C120708E409070880B584B000AFF8606F
:1048B000B9607A6003F078FE0549F86802F05CF8A8
:1048C0000449F86802F058F800BF1037BD4680BDB3
:1048D00024120708E409070880B5A6B000AFF86005
:1048E000B9607A600121B86802F008F9C7F894004D
:1048F0000221B86802F002F9C7F89000D7F89430A6
:10490000002B03D0D7F89030002B04D11149F86860
:1049100002F032F81BE0D7F89020D7F89410F8682E
:1049200004F058F80346002B0DD107F11000D7F81A
:104930009430094A802129F069F807F110031946DB
:10494000F86802F019F80549F86802F015F8983788
:10495000BD4680BD3C1207085C120708E409070841
:1049600080B5A8B000AFF860B9607A600121B8687E
:1049700002F0C4F8C7F89C000221B86802F0BEF843
:10498000C7F89800D7F89C30002B03D0D7F89830A0
:10499000002B04D11C49F86801F0EEFF31E0D7F894
:1049A0009800FBF7A7FCC7F89400D7F89430B3F54C
:1049B000005F04D91549F86801F0DEFF21E0D7F85F
:1049C0009420D7F89810D7F89C0003F063FE0346B4
:1049D000002B0ED107F11400D7F89C300C4A80212F
:1049E00029F014F807F114031946F86801F0C4FF20
:1049F00003E00849F86801F0BFFF0749F86801F0D3
:104A0000BBFFA037BD4680BD3C12070874120708E3
:104A10005C12070890120708E409070880B586B001
:104A200000AFF860B9607A600121B86802F066F8FA
:104A300078617B69002B04D10749F86801F09CFF7D
:104A400007E07969F86803F0EBFE0449F86801F0C3
:104A500093FF1837BD4680BDA8120708E409070870
:104A600080B584B000AFF860B9607A6080210B48EF
:104A7000FEF760FD642016F02BF980210748FEF751
:104A80004BFD0749F86801F077FF0649F86801F027
:104A900073FF00BF1037BD4680BD00BF001802582D
:104AA000C0120708E409070880B584B000AFF860B9
:104AB000B9607A604FF480710748FEF72DFD074911
:104AC000F86801F059FF0649F86801F055FF00BF8A
:104AD0001037BD4680BD00BF00180258DC12070821
:104AE000E409070880B584B000AFF860B9607A6067
:104AF0004FF480710748FEF71DFD0749F86801F083
:104B00003BFF0649F86801F037FF00BF1037BD468C
:104B100080BD00BF0018025804130708E409070805
:104B200080B586B000AFF860B9607A600121B868DE
:104B300001F0E4FF78617B69002B04D11E49F8681D
:104B400001F01AFF35E01D497869FBF7C9FB034600
:104B5000002B07D11A49F86801F00EFF0120FBF77E
:104B60008BFF22E017497869FBF7BAFB0346002B5D
:104B700007D11549F86801F0FFFE0220FBF77CFF22
:104B800013E012497869FBF7ABFB0346002B07D112
:104B90000F49F86801F0F0FE0020FBF76DFF04E01C
:104BA0000C49F86801F0E8FE03E00B49F86801F0F1
:104BB000E3FE1837BD4680BD2C13070850130708C5
:104BC000541307088413070888130708B813070845
:104BD000C0130708F4130708E409070880B584B078
:104BE00000AFF860B9607A600520FBF745FF044923
:104BF000F86801F0C1FE00BF1037BD4680BD00BFA0
:104C0000E409070880B586B000AFF860B9607A6043
:104C10000121B86801F072FF78617B69002B04D133
:104C20001E49F86801F0A8FE34E01D497869FBF7D9
:104C300057FB0346002B07D10320FBF71DFF194943
:104C4000F86801F099FE21E017497869FBF748FB05
:104C50000346002B07D10420FBF70EFF1349F86829
:104C600001F08AFE12E012497869FBF739FB03462E
:104C7000002B07D10020FBF7FFFE0E49F86801F07A
:104C80007BFE03E00C49F86801F076FE0B49F868FA
:104C900001F072FE1837BD4680BD00BF2C14070816
:104CA000501307084C1407088413070894140708C6
:104CB000D4140708D814070808150708E4090708DA
:104CC00080B588B000AFF860B9607A600121B8683B
:104CD00001F014FFB861BB69002B04D11649F868D4
:104CE00001F04AFE25E0B869FBF704FB78610D216D
:104CF0001248FDF791FD0023FB610AE0BA69FB69E8
:104D000013441B7819460D48FDF786FDFB690133F6
:104D1000FB61FA697B699A42F0D30D210748FDF7E0
:104D20007BFD0749F86801F027FE0649F86801F0A5
:104D300023FE2037BD4680BD3C15070800780040A3
:104D400058150708E409070880B584B000AFF8607B
:104D5000B9607A600949F86801F00EFE0849F86800
:104D600001F00AFE0749F86801F006FE0649F868F6
:104D700001F002FE00BF1037BD4680BDAC1507082C
:104D8000D0150708F0150708E409070890B5ADF23B
:104D9000544D04AF07F58863A3F23443186007F558
:104DA0008863A3F58763196007F58863A3F23C4322
:104DB0001A601623C7F8343416F0FCF9C7F830042B
:104DC00007F11400D7F83034734A4FF4807128F09B
:104DD0001DFE07F1140207F58863A3F23443114660
:104DE000186801F0C9FD07F58A730022D7F834145A
:104DF000184616F0EBF9C7F82C04D7F82C34002B22
:104E000010D107F58863A3F234436449186801F0B0
:104E1000B3FD07F58863A3F234436149186801F0D4
:104E2000ABFDB4E007F11400D7F82C345D4A4FF421
:104E3000807128F0EBFD07F1140207F58863A3F2F7
:104E400034431146186801F097FD07F58863A3F213
:104E500034435549186801F08FFD07F58863A3F2C4
:104E600034435249186801F087FD0023C7F83C34E9
:104E700077E007F58863A3F54B71D7F83C24134618
:104E8000DB0013449B000B440C331B78042B21D80C
:104E900001A252F823F000BFAD4E0408B54E04083D
:104EA000BD4E0408C54E0408CD4E0408404BC7F85B
:104EB000383413E03F4BC7F838340FE03E4BC7F8A7
:104EC00038340BE03D4BC7F8383407E03C4BC7F8AB
:104ED000383403E03B4BC7F8383400BF07F588632C
:104EE000A3F54B71D7F83C241346DB0013449B0019
:104EF0000B4404331C6807F58863A3F54B71D7F89E
:104F00003C241346DB0013449B000B441033196808
:104F100007F58863A3F54B70D7F83C241346DB00F4
:104F200013449B00034420331B6807F114000293D1
:104F30000191D7F8383400932346234A4FF4807107
:104F400028F064FD07F1140207F58863A3F23443E7
:104F50001146186801F010FDD7F83C340133C7F84A
:104F60003C34D7F83C24D7F82C349A4281D307F547
:104F70008863A3F234430D49186801F0FDFC07F57E
:104F80008863A3F234430649186801F0F5FC07F280
:104F90004447BD4690BD00BF0C1607082C160708F5
:104FA000E40907085016070864160708941607084E
:104FB000C0160708C8160708D0160708D81607082D
:104FC000E0160708E8160708F016070880B582B053
:104FD00000AF78600348FDF7E1FF00BF0837BD462A
:104FE00080BD00BF0008002490B587B002AFF86014
:104FF000B9607A601349F86801F0BEFC124B1B6877
:10500000002B0AD1114B0093002300226421104889
:1050100017F066F903460C4A13600B4B1B68002B14
:105020000BD0094B1C6816F0B5F80246002300931C
:1050300000230121204617F0AFF900BF1437BD4609
:1050400090BD00BF08170708E89C0024CD4F040856
:105050001817070880B58AB000AFF860B9607A60A9
:105060000121B86801F04AFD78627B6A002B04D107
:105070002949F86801F080FC4AE02848FEF728FA40
:10508000034687F8233097F82330032B3BD1786A07
:10509000FBF730F9F861FB69102B04D92049F86857
:1050A00001F06AFC34E00AF03DFDB861FB69DBB257
:1050B000FB7507F1170201230021B8690AF09AFD78
:1050C0000346002B04D01749F86801F055FC1FE097
:1050D000FB69002B0ED0FB699BB27A6A0121B8698B
:1050E0000AF088FD0346002B04D00F49F86801F050
:1050F00043FC0DE00D49F86801F03EFC0C49F868EE
:1051000001F03AFC04E00B49F86801F035FC00BFFF
:105110002837BD4680BD00BF2417070800080024BB
:1051200048170708701707089C170708C0170708D3
:10513000E4090708E417070880B596B000AFF860E7
:10514000B9607A600121B86801F0D8FC7865194926
:10515000F86801F011FC7B6D002B0BD11649F86843
:1051600001F00AFCF86803F0EBF81449F86801F064
:1051700003FC16E00A220021786D28F07BFB3865DD
:1051800007F110003B6D0E4A402128F03FFC07F16B
:1051900010031946F86801F0EFFBF968386D03F069
:1051A00003F90849F86801F0E7FB00BF5837BD462E
:1051B00080BD00BF141807082C1807083C18070802
:1051C0004C180708E409070880B584B000AFF86000
:1051D000B9607A60FEF78AF980B5A0B000AFF860D8
:1051E000B9607A600023FB7507F1170207F1180315
:1051F0001146184604F088FD0346002B07D0FB7DBE
:1052000007F11C000C4A642128F000FC06E007F1BD
:105210001C030A4A6421184628F0F8FB07F11C0316
:105220001946F86801F0A8FB0549F86801F0A4FBED
:1052300000BF8037BD4680BD60180708801807088A
:10524000E409070880B5A0B000AFF860B9607A60E3
:105250000121B86801F052FCF867FB6F002B0DD1FB
:1052600007F11403144A6421184628F0CFFB07F114
:1052700014031946F86801F07FFB19E000220021B1
:10528000F86F28F0F7FAB867B86F03F061FF07F11D
:105290001400BB6F094A642128F0B8FB07F114031E
:1052A0001946F86801F068FB0549F86801F064FBED
:1052B0008037BD4680BD00BFB0180708D818070862
:1052C000E409070880B5A0B000AFF860B9607A6063
:1052D0000121B86801F012FCF867FB6F002B0DD1BB
:1052E00007F114031D4A6421184628F08FFB07F1CB
:1052F00014031946F86801F03FFB2CE0002200215E
:10530000F86F28F0B7FAB867BB6F1B0EDBB23B74BF
:10531000BB6F1B0CDBB27B74BB6F1B0ADBB2BB74B5
:10532000BB6FDBB2FB7407F11002042399210C4818
:105330001CF09AF907F11400BB6F0A4A642128F0A7
:1053400065FB07F114031946F86801F015FB0649DF
:10535000F86801F011FB8037BD4680BD04190708CD
:105360005C08002430190708E409070890B5A5B0C7
:1053700004AFF860B9607A6003F02EFF07F1140300
:1053800018460BF0D1FD3B7D1C46FB7D3A7E797EB5
:1053900007F11C000291019200932346084A642100
:1053A00028F034FB07F11C031946F86801F0E4FA11
:1053B0000449F86801F0E0FA00BF8437BD4690BDAB
:1053C00060190708E4090708F0B5BFB008AFF86036
:1053D000B9607A60002387F8D7300023C7F8D0304F
:1053E00015E0D7F8D0309BB201339BB21946B868AC
:1053F00001F084FB0246D7F8D0309B00D8333B4401
:1054000043F8C82CD7F8D0300133C7F8D030D7F8DC
:10541000D030072BE5DD0023C7F8CC301BE0D7F8F0
:10542000CC309B00D8333B4453F8C83C002B0DD103
:1054300007F13003534A9621184628F0E7FA07F19E
:1054400030031946F86801F097FA97E0D7F8CC30A6
:105450000133C7F8CC30D7F8CC30072BDFDD002381
:10546000C7F8C83033E0D7F8C8309B00D8333B4486
:1054700053F8C83C00220021184628F0FBF90346E7
:1054800087F8C73097F8C730012B0ED907F13000E5
:10549000D7F8C8303C4A962128F0B8FA07F1300313
:1054A0001946F86801F068FA68E097F8C720D7F85D
:1054B000C83002FA03F35AB297F9D73013435BB2FC
:1054C00087F8D730D7F8C8300133C7F8C830D7F8D5
:1054D000C830072BC7DD97F8D730184603F0C0FE59
:1054E00097F8D7E097F8D73003F001033B6097F8BF
:1054F000D7205208D2B202F0010297F8D7108908DB
:10550000C9B201F0010197F8D700C008C0B200F09D
:10551000010097F8D7402409E4B204F0010497F899
:10552000D7506D09EDB205F0010597F8D760B609BF
:10553000F6B206F0010697F8D7C04FEADC1C5FFA16
:105540008CFC0CF0010307F1300C079306960595CF
:1055500004940390029101923B68009373460B4AB6
:105560009621604628F052FA07F130031946F86890
:1055700001F002FA0649F86801F0FEF9DC37BD4691
:10558000F0BD00BF8C190708C8190708041A0708DE
:10559000E4090708F0B5DFB00AAF07F5A873A3F573
:1055A0009E73186007F5A873A3F5A073196007F53B
:1055B000A873A3F5A2731A6007F5A873A3F5A073E7
:1055C0000121186801F09AFAC7F84C0107F5A87391
:1055D000A3F5A0730221186801F090FAC7F84801FA
:1055E00007F5A873A3F5A0730321186801F086FAE4
:1055F000C7F8440107F5A873A3F5A0730421186840
:1056000001F07CFAC7F8400107F5A873A3F5A07371
:105610000521186801F072FAC7F83C0107F5A87374
:10562000A3F5A0730621186801F068FAC7F83801DD
:1056300007F5A873A3F5A0730721186801F05EFAB7
:10564000C7F8340107F5A873A3F5A07308211868FB
:1056500001F054FAC7F8300107F5A873A3F5A07359
:105660000921186801F04AFAC7F82C0107F5A87358
:10567000A3F5A0730A21186801F040FAC7F82801C1
:10568000D7F84C31002B23D0D7F84831002B1FD04E
:10569000D7F84431002B1BD0D7F84031002B17D05E
:1056A000D7F83C31002B13D0D7F83831002B0FD06E
:1056B000D7F83431002B0BD0D7F83031002B07D07E
:1056C000D7F82C31002B03D0D7F82831002B12D17A
:1056D00007F11803644A4FF48071184628F096F9D0
:1056E00007F1180207F5A873A3F59E731146186811
:1056F00001F042F9B3E000220021D7F84C0128F074
:10570000B9F80346A7F8263100220021D7F848014E
:1057100028F0B0F80346A7F8243100220021D7F87A
:10572000440128F0A7F80346A7F8223100220021FF
:10573000D7F8400128F09EF8034687F8213100226F
:105740000021D7F83C0128F095F8034687F820316E
:1057500000220021D7F8380128F08CF8034687F89A
:105760001F3100220021D7F8340128F083F80346C6
:1057700087F81E3100220021D7F8300128F07AF88E
:10578000034687F81D3100220021D7F82C0128F0AC
:1057900071F80346A7F81A3100220021D7F8280132
:1057A00028F068F8034687F8193197F82141B7F8CF
:1057B0002221B7F82411B7F8260197F8193105937B
:1057C000B7F81A31049397F81D31039397F81E31F7
:1057D000029397F81F31019397F8203100932346E5
:1057E00003F074FDB7F826E1B7F82431BB60B7F8D1
:1057F000222197F8211197F8200197F81F4197F877
:105800001E5197F81D61B7F81A317B6097F819C1DE
:10581000634607F1180C08937B6807930696059575
:105820000494039002910192BB68009373460F4A5F
:105830004FF48071604628F0E9F807F1180207F587
:10584000A873A3F59E731146186801F095F807F543
:10585000A873A3F59E730649186801F08DF807F543
:10586000AA77BD46F0BD00BF841A0708041B0708CD
:10587000E409070880B584B000AFF860B9607A60C9
:1058800003F09EFD0549F86801F076F80449F868D0
:1058900001F072F800BF1037BD4680BD541B0708E9
:1058A000E409070880B584B000AFF860B9607A6099
:1058B00003F0B8FD0549F86801F05EF80449F8689E
:1058C00001F05AF800BF1037BD4680BD701B0708B5
:1058D000E409070880B5A4B002AFF860B9607A6047
:1058E0000121B86801F00AF9C7F884000221B868FC
:1058F00001F004F9C7F880000321B86801F0FEF850
:10590000F867D7F88430002B06D0D7F88030002B0A
:1059100002D0FB6F002B0DD107F11003254A642143
:10592000184628F073F807F110031946F86801F0DB
:1059300023F83BE000220021D7F8840027F09AFFEB
:105940000346A7F87A3000220021D7F8800027F01C
:1059500091FF034687F8793000220021F86F27F085
:1059600089FF0346A7F87630B7F8762097F87910C4
:10597000B7F87A30184603F087FDB7F87A1097F831
:105980007930B7F8762007F11000019200930B46AA
:10599000094A642128F03AF807F110031946F8681B
:1059A00000F0EAFF0549F86800F0E6FF8837BD46D9
:1059B00080BD00BF8C1B0708D01B0708E40907083F
:1059C00080B584B000AFF860B9607A6003F0ACFDD8
:1059D0000549F86800F0D0FF0449F86800F0CCFFF2
:1059E00000BF1037BD4680BD0C1C0708E40907083E
:1059F00080B584B000AFF860B9607A6003F0C6FD8E
:105A00000549F86800F0B8FF0449F86800F0B4FFF1
:105A100000BF1037BD4680BD301C0708E4090708E9
:105A200080B5B0B004AFF860B9607A600121B868A1
:105A300001F064F8C7F8AC000221B86801F05EF824
:105A4000C7F8A8000321B86801F058F8C7F8A40007
:105A50000421B86801F052F8C7F8A000D7F8AC30BC
:105A6000002B0BD0D7F8A830002B07D0D7F8A430E4
:105A7000002B03D0D7F8A030002B0DD107F1140371
:105A80002B4A8021184627F0C1FF07F1140319465D
:105A9000F86800F071FF47E000220021D7F8AC0061
:105AA00027F0E8FEC7F89C0000220021D7F8A800E4
:105AB00027F0E0FE0346A7F89A3000220021D7F82D
:105AC000A40027F0D7FE0346A7F898300022002153
:105AD000D7F8A00027F0CEFE0346A7F89630B7F817
