:020000040800F2
:10000000000008241D9201085D8D0108658D01081E
:100010006D8D0108758D01087D8D010800000000BF
:10002000000000000000000000000000713D010819
:10003000858D010800000000314001089940010849
:100040007192010871920108719201087192010880
:100050007192010871920108719201087192010870
:10006000719201087192010871920108958D010841
:10007000198E0108719201087192010871920108AC
:100080007192010871920108719201087192010840
:100090007192010871920108719201087192010830
:1000A000719201089D8E01087192010871920108F8
:1000B0007192010871920108719201087192010810
:1000C0007192010871920108719201087192010800
:1000D00071920108A98E0108E18E01087192010850
:1000E00071920108719201080000000071920108EC
:1000F000719201087192010871920108198F01082B
:1001000071920108618F01087192010871920108D2
:10011000719201087192010871920108758F0108AE
:1001200071920108898F010871920108719201088A
:10013000719201087192010871920108719201088F
:100140007192010871920108000000000000000097
:10015000719201087192010871920108719201086F
:10016000719201087192010871920108719201085F
:10017000719201087192010871920108000000005B
:1001800071920108719201080D90010871920108A5
:10019000719201084590010853900108719201087D
:1001A000719201087192010871920108719201081F
:1001B000719201087192010871920108719201080F
:1001C00071920108719201087192010871920108FF
:1001D00071920108719201087192010871920108EF
:1001E00071920108719201087192010871920108DF
:1001F00071920108719201087192010871920108CF
:1002000071920108719201087192010871920108BE
:1002100071920108719201087192010871920108AE
:1002200071920108719201086190010800000000BC
:10023000719201087192010871920108719201088E
:10024000719201087590010881900108719201086E
:10025000719201087192010871920108719201086E
:10026000719201087192010871920108719201085E
:10027000719201087192010871920108719201084E
:10028000719201087192010871920108000000004A
:0802900071920108719201084E
:1002A00010B5054C237833B9044B13B10448AFF3B0
:1002B00000800123237010BD484A01240000000083
:1002C0006430020808B5034B1BB103490348AFF380
:1002D000008008BD000000004C4A01246430020880
:1002E00010F8012B11F8013B012A28BF9A42F7D0E0
:1002F000D01A7047034613F8012B002AFBD1181AB5
:1003000001387047000000000000000000000000FD
:1003100001F0FF01102A2BDB10F0070F08D010F8B6
:10032000013B013A8B422DD010F0070F42B3F6D1BA
:10033000F0B441EA012141EA014122F007047FF0D3
:1003400000070023F0E80256083C85EA010586EA2A
:10035000010685FA47F5A3FA87F586FA47F6A5FA66
:1003600087F68EB9EED1F0BC01F0FF0102F0070272
:1003700032B110F8013B013A83EA010313B1F8D11D
:100380000020704701387047002D06BF35460338FE
:10039000073815F0010F07D1013015F4807F02BF37
:1003A000013015F4C03F0130F0BC0138704700BF88
:1003B00053B94AB9002908BF00281CBF4FF0FF31CC
:1003C0004FF0FF3000F088B9ADF1080C6DE904CEB4
:1003D00000F006F8DDF804E0DDE9022304B0704720
:1003E0002DE9F047089D8E4604468846002B4AD1E9
:1003F0008A42174662D9B2FA82F64EB1C6F120039C
:1004000001FA06F820FA03F3B74043EA0808B440BB
:100410004FEA174E1FFA87FCB8FBFEF1230C0EFBC8
:10042000118843EA084301FB0CF29A4209D9FB18F0
:1004300001F1FF3080F0EA809A4240F2E780023911
:100440003B449A1AA3B2B2FBFEF00EFB102243EA21
:10045000024300FB0CFC9C4509D9FB1800F1FF325C
:1004600080F0D6809C4540F2D3803B44023840EA7D
:100470000140A3EB0C0300211DB1F3400022C5E9AC
:100480000032BDE8F0878B4205D90DB1C5E9000106
:1004900000210846F5E7B3FA83F1002946D17345F8
:1004A00002D3824200F20581841A6EEB030201201E
:1004B0009046002DE5D0C5E90048E2E7002A00F0AB
:1004C0009080B2FA82F6002E40F0A4808A1A030CC3
:1004D0004FEA174E80B2BCB20121B2FBFEFC0EFB0C
:1004E0001C2243EA024304FB0CF29A4207D9FB1890
:1004F0000CF1FF3802D29A4200F2E080C4469B1A07
:10050000B3FBFEF20EFB123340EA034302FB04F49A
:100510009C4207D9FB1802F1FF3002D29C4200F244
:10052000CA8002461B1B42EA0C40A5E7C1F1200627
:100530008B4022FA06F71F430EFA01F420FA06F365
:100540002EFA06FE4FEA1749234300FA01F81FFA74
:1005500087FCBEFBF9F01C0C09FB10EE44EA0E44CC
:1005600000FB0CFEA64502FA01F209D93C1900F184
:10057000FF3A80F09C80A64540F2998002383C44C6
:10058000A4EB0E041FFA83FEB4FBF9F309FB13443A
:100590004EEA044403FB0CFCA44508D93C1903F1C2
:1005A000FF3E80F08280A4457FD9023B3C4443EA71
:1005B0000040A4EB0C04A0FB02EC64457346E1464A
:1005C00062D35FD05DB1B8EB030264EB090404FAB7
:1005D00006F622FA01F31E43CC40C5E9006400216F
:1005E0004FE7B1FBF2FC010C41EA0E4180B240EA58
:1005F00001423B4638463C46B846BE462026B1FB43
:10060000F7F1A2EB080241EA0C4166E7014618E760
:1006100010462CE7C6F120022EFA02F3B740B14093
:1006200020FA02F24FEA174E0A43B3FBFEF8BCB2BF
:100630000EFB1833110C41EA034108FB04F9B040EA
:1006400089454FEA104380B23ED9791808F1FF3C42
:1006500001D289451FD8A1EB0901B1FBFEF909FBC5
:1006600004F80EFB191192B242EA0142424529D226
:10067000BA1809F1FF31C4D24245C2D2A9F1020130
:100680003A44BEE7F0459DD2BEEB02036CEB070C8B
:100690000138E14696E7A7EB09094944A8F1020CA5
:1006A000B1FBFEF909FB04F8DBE773467FE7504630
:1006B00066E70846FDE63B44023A33E7ACF1020C3C
:1006C0003B441CE749469CE7A1EB0901C446B1FB4A
:1006D000FEF909FB04F8C4E7704700BF80B582B09B
:1006E00000AF0123FB711B4B01221A701A4808F05E
:1006F0008BF8102219491A4808F0DEF901F0FEFDC6
:100700000346FB7108F078F909F0FEFC154A022156
:10071000002007F0ADFD134A0021002007F0A8FDDE
:10072000104A0121002007F0A3FD0E4A03210020FA
:1007300007F09EFD0B4A0421002007F099FD094AAD
:100740000521002007F094FDFB7918460837BD46C7
:1007500080BD00BF644A01240058004000100258C8
:10076000003401407C30020880B500AF044A022109
:10077000002007F07DFD00F0EDF800BF80BD00BF58
:100780009030020880B582B000AF0123FB71114B9D
:1007900002221A70104A0021002007F069FD09F0BA
:1007A00089FE0346FB7109F085FE0346002B05D147
:1007B0000A4A0221002007F04DFC05E0054AFB79BA
:1007C0009370044B07221A70FB7918460837BD4610
:1007D00080BD00BF644A0124A4300208BC30020876
:1007E00080B582B000AF204B03221A700123FB7149
:1007F0001E4A0021002007F03BFD04F017FC0346D1
:10080000FB71FB79002B0BD0194A0421012007F062
:1008100021FC154AFB799370134B07221A7004E0F0
:10082000144A0221002007F015FC06F04FFE034693
:10083000FB71FB79002B0BD00F4A0421012007F03C
:1008400009FC094AFB799370074B07221A7004E0F0
:100850000A4A0221002007F0FDFB07F0A7FEFB7902
:1008600018460837BD4680BD644A0124CC300208D2
:10087000E4300208003102081C310208303102085D
:1008800080B582B000AF214B04221A700123FB71A6
:100890001F4A0021002007F0EBFC08F0B1FF0346DF
:1008A000FB71FB79002B0BD01A4A0421012007F0C1
:1008B000D1FB164AFB799370144B07221A7004E09F
:1008C000154A0221002007F0C5FB102213491448E5
:1008D00008F05CFC0346FB71FB79002B0BD0114A3E
:1008E0000421012007F0B6FB084AFB799370074BFF
:1008F00007221A7004E00C4A0221002007F0AAFB2C
:10090000FB7918460837BD4680BD00BF644A012404
:1009100048310208603102087831020800000258AC
:100920000014005890310208A831020880B500AFC9
:10093000064B05221A70054B06221A70044A002144
:10094000002007F095FC0023184680BD644A01246E
:10095000C031020880B500AF00F0E6F900BF80BDED
:1009600080B5C2B000AF07F58473A3F58273186039
:1009700007F58473A3F58473196007F58473A3F5F1
:10098000847307F108001B68084A4FF4807121F056
:1009900041FA07F1080301221946052007F00CFD72
:1009A00000BF07F58477BD4680BD00BFD83102087F
:1009B00080B5C0B000AF3B46084A4FF4807118467E
:1009C00021F028FA3B4601221946052007F0F4FCE5
:1009D00000BF07F58077BD4680BD00BFF431020837
:1009E00080B483B000AF786039607B685A693B6837
:1009F00013403A689A4201D1012300E000231846CF
:100A00000C37BD465DF8047B704780B483B000AFFF
:100A1000786039607B683A689A6100BF0C37BD46E0
:100A20005DF8047B704780B483B000AF78603960B4
:100A30003B681A047B689A6100BF0C37BD465DF8BD
:100A4000047B704780B500AF4FF480410648FFF744
:100A5000DCFF4FF400410448FFF7D7FF032000F00C
:100A600005F800BF80BD00BF0014025880B582B0F9
:100A700000AF0346FB71FB79032B37D801A252F874
:100A800023F000BF950A0008AB0A0008C10A00085D
:100A9000D70A00084FF480411C48FFF7C4FF4FF409
:100AA00000411A48FFF7BFFF2BE04FF48041174881
:100AB000FFF7B9FF4FF400411448FFF7A6FF20E00D
:100AC0004FF480411148FFF7A0FF4FF400410F4859
:100AD000FFF7A9FF15E04FF480410C48FFF795FFA1
:100AE0004FF400410948FFF790FF0AE04FF48041BE
:100AF0000648FFF798FF4FF400410448FFF793FFC3
:100B000000BF00BF0837BD4680BD00BF00140258BB
:100B100080B582B000AF4FF480411948FFF760FF05
:100B20000346002B14BF01230023DBB2FB714FF4FB
:100B300000411348FFF754FF0346002B14BF012365
:100B40000023DBB2BB71FB79002B04D1BB79002BF6
:100B500001D1002310E0FB79002B04D1BB79012BDC
:100B600001D1012308E0FB79012B04D1BB79002BD3
:100B700001D1022300E0032318460837BD4680BD9B
:100B80000014025880B483B000AF0346FB71064ADC
:100B9000FB791370054B00221A7000BF0C37BD465D
:100BA0005DF8047B704700BF674A0124684A01244E
:100BB00080B400AF034B1B781846BD465DF8047B3C
:100BC000704700BF674A012480B483B000AF03467A
:100BD000FB71FB795C2B06D10E4B1B780133DAB22B
:100BE0000C4B1A7002E00B4B00221A70094B1B7859
:100BF000092B07D9084B00221A70064B00221A70E5
:100C0000012300E0002318460C37BD465DF8047B45
:100C1000704700BF684A0124674A012480B483B04A
:100C200000AF78607B68DB6903F04003402B01D1A3
:100C3000012300E0002318460C37BD465DF8047B15
:100C4000704780B483B000AF78607B68DB6903F0E5
:100C50008003802B01D1012300E0002318460C37CC
:100C6000BD465DF8047B704780B483B000AF786008
:100C70000B46FB70FA787B689A6200BF0C37BD4662
:100C80005DF8047B704780B483B000AF7860396052
:100C90007B683A689A6100BF0C37BD465DF8047BFB
:100CA000704780B483B000AF786039603B681A0445
:100CB0007B689A6100BF0C37BD465DF8047B7047C6
:100CC00080B584B000AF0346FB71FB79FB73FB7BFF
:100CD0001946034801F0C8FC00BF1037BD4680BD6F
:100CE0000010014080B582B000AF78600B4A02214D
:100CF000002007F0BDFA00F043F80346002B07D0B0
:100D0000074A0421012007F0A5F9064B02225A7078
:100D1000002010F01BFF00BFFDE700BF0C320208EF
:100D2000203202086C4A012480B586B004AF0F4B14
:100D300002930F4B01930523009300234FF4A0620D
:100D40000C490D4810F04FFD78607B68002B06D1F0
:100D50000A4A0521012007F07DF900BFFDE711F0E7
:100D60009BF800BF0837BD4680BD00BFCC5E0124A4
:100D7000CC4A012448320208E50C00085832020827
:100D8000F0B5CFB006AF012387F81731FFF7FAFCB3
:100D9000034687F8173197F81731002B05D0C94A59
:100DA0000521012007F056F904E0C74A0021002080
:100DB00007F050F9FFF714FD034687F8173197F84D
:100DC0001731002B05D0C14A0521012007F042F957
:100DD00004E0BF4A0021002007F03CF9FFF750FD76
:100DE000034687F8173197F81731002B05D0B94A19
:100DF0000521012007F02EF904E0B74A0021002068
:100E000007F028F9FFF792FD034687F8173197F8A6
:100E10001731002B05D0B14A0521012007F01AF93E
:100E200004E0AF4A0021002007F014F906F0FEF9B3
:100E300006F062FE97F81731002B05D0A94A05216C
:100E4000012007F007F904E0A74A0021002007F07D
:100E500001F907F59073A3F5887318464FF4807372
:100E60001A46002121F09BF80023C7F8103107F142
:100E70000803184609F08CF9D7F8103107F1100271
:100E8000D018D7F81031C3F5807107F59073A3F52A
:100E90008C739B789C4607F59073A3F58C735B78F5
:100EA0001A4607F59073A3F58C731B781C4607F55B
:100EB0009073A3F58C73DB781D4607F59073A3F54B
:100EC0008C731B791E4607F59073A3F58C735B79C1
:100ED000049303960295019400926346834A20F09E
:100EE00099FF0246D7F810311344C7F8103107F5BF
:100EF0009073A3F2191300221A7007F59073A3F5EB
:100F00008D7300221A7007F59073A3F21B13002251
:100F10001A707B1DBA1DF91D002009F093F9D7F84E
:100F2000103107F11002D018D7F81031C3F58071D5
:100F300007F59073A3F219131B781C4607F59073FD
:100F4000A3F58D731B781A4607F59073A3F21B1354
:100F50001B78019300922346654A20F05BFF02460E
:100F6000D7F810311344C7F81031D7F8103107F112
:100F70001002D018D7F81031C3F580735D4A1946B6
:100F800020F048FF0246D7F810311344C7F810315B
:100F90000023C7F81C3117E000BF5748FFF751FE88
:100FA0000346002BF9D007F59073A3F58872D7F8A4
:100FB0001C3113441B7819464F48FFF755FED7F8EC
:100FC0001C310133C7F81C3107F59073A3F5887203
:100FD000D7F81C3113441B78002BDDD100BF4648E5
:100FE000FFF71CFE0346002BF9D00023C7F8183189
:100FF00017E000BF4148FFF724FE0346002BF9D05D
:1010000007F59073A3F58872D7F8183113441B784D
:1010100019463A48FFF728FED7F818310133C7F8C8
:10102000183107F59073A3F58872D7F81831134477
:101030001B78002BDDD100BF3048FFF7EFFD0346E2
:10104000002BF9D0002301930223009300234FF4D7
:1010500020622B492B4810F02AFC0346012B01D0BB
:101060000123EDE0002301930123009300234FF4BB
:1010700020622549254810F01AFC0346012B01D0B7
:101080000123DDE0002301930123009300234FF4AB
:10109000A0621F491F4810F00AFC0346012B01D033
:1010A0000123CDE0002301930123009300234FF49B
:1010B00020721949194810F0FAFB0346012B2FD072
:1010C0000123BDE07432020894320208A8320208FB
:1010D000C8320208D8320208F8320208083302087F
:1010E00024330208383302084C330208583302080C
:1010F00088330208A4330208001001400044004075
:10110000D8330208B1720008E8330208E11500087C
:10111000F4330208C985000800340208A11200084F
:101120004A4801F0C1F803460022019201220092D0
:101130004FF420624649474810F0B9FB0346012BA3
:1011400001D001237CE0444801F0AEF803460022C0
:101150000192012200924FF420624049404810F071
:10116000A6FB0346012B01D0012369E00023019374
:101170000123009300234FF4A0623A493A4810F04B
:1011800096FB0346012B01D0012359E00023019374
:1011900001230093002380223449354810F087FB57
:1011A0000346012B01D001234AE0002301930123D0
:1011B0000093002380222F492F4810F078FB03462C
:1011C000012B01D001233BE0002301930123009375
:1011D00000234FF420722949294810F068FB034688
:1011E000012B01D001232BE0264801F05DF80346D6
:1011F00000220192012200924FF4206222492348EA
:1012000010F055FB0346012B01D0012318E0002309
:10121000019301230093002380221D491D4810F0F3
:1012200046FB0346012B01D0012309E0012010F009
:1012300031FD1949194801F0D9FC05F09DFD002345
:10124000184607F59277BD46F0BD00BF0044004048
:1012500010340208FD140008007800402034020811
:10126000611400082C340208ED1200083C34020816
:10127000F9150008443402082D1600084C34020801
:101280006116000800100140543402085113000890
:1012900068340208A5160008C10C0008704A012431
:1012A00080B582B000AF786008F05EFD0D4B1B6822
:1012B00001330C4A13600B4B1B68B3F5E15F0CD98B
:1012C000084B00221A6009F0F5F80346002B04D100
:1012D00000220549022007F06FF84FF47A7010F0F1
:1012E000D9FCE1E7284701247834020880B584B0AE
:1012F00000AF786003F032FF0346184604F047F869
:10130000114801F007FF0346FB73FB7B032B02D060
:10131000FB7B042B13D10C4B1B6A012B09D103F06F
:1013200011FF03460949184604F0C2F8064B002293
:101330001A6203F007FF0346184604F028F84FF43A
:10134000FA7010F0A7FCD5E7704A0124883402082F
:1013500080B586B000AF78607B687B617B695B6E2F
:101360004FF0FF3118460FF0D7FD0346012B6DD12A
:1013700062E0FFF71DFC0346FB73FB7B022B15D1DC
:101380003B69DBB21946334801F06EF93B69DBB2C9
:101390001846FFF719FC0346002B4DD003F0D2FE90
:1013A00003462D49184604F083F845E0FB7B042BE7
:1013B0001ED13B69DBB21846FFF706FC0346002B43
:1013C00006D003F0BFFE03462349184604F070F828
:1013D00003F0B8FE02463B69DBB21946104603F043
:1013E000B3FF03F0AFFE0346184603F0D0FF23E03F
:1013F0001A4801F08FFE0346BB73BB7B032B02D060
:10140000BB7B042B12D1154801F0DEFB03F09AFEE2
:1014100002463B69DBB21946104603F095FF03F024
:1014200091FE0346184603F0B2FF05E03B69DBB2CC
:1014300019460A4801F0EAFC7B691B68184601F06E
:101440004DFA38613B69B3F1FF3F92D1012010F0B2
:1014500021FC83E7007800408C340208704A0124A4
:1014600080B586B000AF78607B687B617B695B6E1E
:10147000002118460FF050FD0346012B35D12AE01C
:10148000FFF796FB0346FB73FB7B012B06D13B6901
:10149000DBB21946174801F0E7F81CE0FB7B022B92
:1014A00006D13B69DBB21946134801F0DDF812E0C2
:1014B000FB7B032B06D13B69DBB219460D4801F0DB
:1014C000D3F808E0FB7B042B05D13B69DBB219465E
:1014D000094801F0C9F87B691B68184601F0FEF95C
:1014E00038613B69B3F1FF3FCAD1012010F0D2FB54
:1014F000BCE700BF004400400010014080B586B04A
:1015000000AF78607B687B617B695B6E4FF0FF3179
:1015100018460FF001FD0346012B58D14DE0FFF7AF
:1015200047FB0346FB73FB7B012B15D13B69DBB209
:101530001946294801F098F83B69DBB21846FFF7D5
:1015400043FB0346002B38D003F008FE0346234933
:10155000184603F0ADFF30E0FB7B032B1ED13B6947
:10156000DBB21846FFF730FB0346002B06D003F032
:10157000F5FD03461949184603F09AFF03F0EEFD06
:1015800002463B69DBB21946104603F0DDFE03F06C
:10159000E5FD0346184603F0FAFE0EE003F0DEFD1B
:1015A00002463B69DBB21946104603F0CDFE03F05C
:1015B000D5FD0346184603F0EAFE7B691B68184612
:1015C00001F08CF938613B69B3F1FF3FA7D10120ED
:1015D00010F060FB98E700BF007800408C340208F0
:1015E00080B582B000AF786006F0B6FA012010F046
:1015F00051FB00BFF8E7000080B582B000AF786013
:101600004FF480710848FFF74CFB4FF47A7010F0EC
:1016100041FB4FF480710448FFF735FB4FF47A70BB
:1016200010F038FB00BFEBE7000C025880B582B029
:1016300000AF78604FF400710848FFF724FB4FF4C7
:101640007A7010F027FB4FF400710448FFF729FB74
:101650004FF47A7010F01EFB00BFEBE7000C02584D
:1016600080B592B000AF78600C4B1B785A1CD1B299
:101670000A4A117007F10800094A402120F0CAFB0C
:1016800007F1080300221946022006F095FE4EF6E7
:10169000602010F0FFFA00BFE6E700BF285F0124DA
:1016A000C034020880B582B000AF786007F0B4F9AA
:1016B00007F0CEF90346012B03D1C82010F0EAFA57
:1016C000F4E74FF4167010F0E5FAEFE780B483B05A
:1016D00000AF78607B689B6903F00103012B01D1A7
:1016E000012300E0002318460C37BD465DF8047B5B
:1016F000704780B483B000AF78607B689B6903F06B
:101700000203022B01D1012300E0002318460C370D
:10171000BD465DF8047B704780B483B000AF78604D
:101720007B689B6903F00403042B01D1012300E0D3
:10173000002318460C37BD465DF8047B704780B423
:1017400083B000AF78607B689B6903F01003102BB7
:1017500001D1012300E0002318460C37BD465DF897
:10176000047B704780B483B000AF78607B689B696E
:1017700003F40043B3F5004F01D1012300E000233F
:1017800018460C37BD465DF8047B704780B483B0C3
:1017900000AF786039607B685B6823F400423B6887
:1017A0001A437B685A6000BF0C37BD465DF8047B66
:1017B0007047000080B487B000AFF860B9607A600D
:1017C0003B60BB68C3F309027B6803F400631A4300
:1017D0003B681B0403F47F031A433B6A1A437B6A8A
:1017E000134323F000437B61FB685A687B6A5B0DFF
:1017F00003F48061064B0B43DB431A407B691A43B9
:10180000FB685A6000BF1C37BD465DF8047B70471B
:10181000FF7BFF0380B483B000AF78607B685B6AB6
:10182000DBB218460C37BD465DF8047B704780B4C8
:1018300083B000AF78600B46FB70FA787B689A62E1
:1018400000BF0C37BD465DF8047B704780B588B09B
:1018500002AFF8607B600B46FB721346BB7208F068
:101860009DFF38610DE008F099FF02463B69D31AED
:101870000A2B06D9FB681B68184615F001FA0223EB
:1018800096E0FB681B681846FFF76CFF0346002BC9
:10189000E9D1FB681868FB7A590097F820300133CA
:1018A0001A46454B01934FF00073009313460022F4
:1018B000FFF780FF08F072FF386117E0FB681B68D4
:1018C0001846FFF73CFF0346002B01D001236FE0D1
:1018D00008F064FF02463B69D31A0A2B06D9FB685D
:1018E0001B68184615F0CCF9032361E0FB681B6800
:1018F0001846FFF7FEFE0346002BDFD0FB681B688F
:10190000BA7A11461846FFF792FF0023FB752FE0C5
:1019100008F044FF386117E0FB681B681846FFF7C2
:101920000EFF0346002B01D0012341E008F036FFF3
:1019300002463B69D31A0A2B06D9FB681B68184676
:1019400015F09EF9032333E0FB681B681846FFF788
:10195000D0FE0346002BDFD0FB681868FB7D7A6859
:1019600013441B781946FFF762FFFB7D0133FB75BB
:10197000FA7D97F820309A42CAD308F00FFF3861F9
:101980000DE008F00BFF02463B69D31A0A2B06D97B
:10199000FB681B68184615F073F9032308E0FB6821
:1019A0001B681846FFF792FE0346002BE9D0002380
:1019B00018461837BD4680BD0020008090B589B01C
:1019C00002AFF8607B600B46FB721346BB7208F0F7
:1019D000E5FE38610DE008F0E1FE02463B69D31AEE
:1019E0000A2B06D9FB681B68184615F049F9022333
:1019F000B8E0FB681B681846FFF7B4FE0346002BEF
:101A0000E9D1FB681868FB7A5900584B0193002311
:101A1000009301230022FFF7CDFE08F0BFFE3861DE
:101A200017E0FB681B681846FFF789FE0346002B8A
:101A300001D0012396E008F0B1FE02463B69D31ABB
:101A40000A2B06D9FB681B68184615F019F9032301
:101A500088E0FB681B681846FFF74BFE0346002B27
:101A6000DFD0FB681B68BA7A11461846FFF7DFFE25
:101A700008F094FE386117E0FB681B681846FFF712
:101A80005EFE0346002B01D001236BE008F086FECA
:101A900002463B69D31A0A2B06D9FB681B68184615
:101AA00015F0EEF803235DE0FB681B681846FFF7AE
:101AB0000DFE0346002BDFD0FB681B680021184693
:101AC000FFF764FEFB681868FB7A5900FB7A5B003D
:101AD00043F001031C4697F82830254A01924FF045
:101AE000007200922246FFF765FE08F057FE38614B
:101AF0000023FB7530E008F051FE386117E0FB6809
:101B00001B681846FFF71BFE0346002B01D001237C
:101B100028E008F043FE02463B69D31A0A2B06D997
:101B2000FB681B68184615F0ABF803231AE0FB6846
:101B30001B681846FFF7F0FD0346002BDFD0FB685B
:101B40001968FB7D7A68D4180846FFF763FE0346E0
:101B50002370FB7D0133FB75FA7D97F828309A429C
:101B6000C9D3002318461C37BD4690BD0020008015
:101B70000024008080B584B000AF78600023FB6053
:101B8000786800F095F8786800F00BF80346002BB1
:101B900002D06FF00303FB60FB6818461037BD46A8
:101BA00080BD80B584B000AF78600023FB73786897
:101BB00018F0E8FA0346002B01D00123FB73FB7BEE
:101BC00018461037BD4680BD80B586B000AFF860BE
:101BD000B9607A603B603B687A68B968F86818F069
:101BE000CDFB0346002B03D06FF003037B6101E0C4
:101BF00000237B617B6918461837BD4680BD80B5E0
:101C000086B000AFF860B9607A603B603B687A6884
:101C1000B968F86818F076FC0346002B03D06FF023
:101C200003037B6101E000237B617B691846183761
:101C3000BD4680BD80B582B000AF7860786819F08D
:101C400075FA0346042B14BF01230023DBB21846A8
:101C50000837BD4680BD80B584B000AF786039607C
:101C60003968786819F072F80346002B03D06FF0DA
:101C70000303FB6001E00023FB60FB68184610379C
:101C8000BD4680BD80B582B000AF786078680EF048
:101C90002BFA00BF0837BD4680BD80B582B000AFCB
:101CA000786078680EF04AFA00BF0837BD4680BDFC
:101CB00080B582B000AF7860786816F03BFD00BF59
:101CC0000837BD4680BD80B483B000AF78607B68C4
:101CD0001B6803F00103012B01D1012300E0002365
:101CE00018460C37BD465DF8047B704780B483B05E
:101CF00000AF78607B685B6903F00103012B01D1C1
:101D0000012300E0002318460C37BD465DF8047B34
:101D1000704780B483B000AF78607B685B6903F480
:101D20008053B3F5805F01D1012300E00023184602
:101D30000C37BD465DF8047B704780B483B000AFBC
:101D400078607B6830331B78DBB218460C37BD46B1
:101D50005DF8047B704780B483B000AF78600B46B9
:101D6000FB707B682033FA781A7000BF0C37BD46D1
:101D70005DF8047B704780B586B000AFF8600B4615
:101D80007A60FB72F868FFF79EFF0346002B01D1D3
:101D9000012335E008F002FD7861FB7A1946F86806
:101DA000FFF7D9FF08E008F0F9FC02467B69D31A77
:101DB0000A2B01D9032323E0F868FFF7AAFF0346A3
:101DC000002BF0D008F0EAFC786108E008F0E6FCAF
:101DD00002467B69D31A0A2B01D9032310E0F86865
:101DE000FFF784FF0346002BF0D07B68002B06D062
:101DF000F868FFF7A2FF03461A467B681A700023B3
:101E000018461837BD4680BD80B584B000AF7860F5
:101E10000B46FB707868FFF756FF0346002B01D195
:101E200001231BE008F0BAFCF860FB7819467868DB
:101E3000FFF791FF08E008F0B1FC0246FB68D31AF7
:101E40000A2B01D9032309E07868FFF762FF0346F4
:101E5000002BF0D07868FFF770FF0023184610378A
:101E6000BD4680BD80B483B000AF78607B681B68DE
:101E700043F001027B681A6000BF0C37BD465DF875
:101E8000047B704780B483B000AF78607B681B68C8
:101E900023F001027B681A6000BF0C37BD465DF875
:101EA000047B704780B483B000AF78607B68DB69E7
:101EB00003F04003402B01D1012300E0002318462A
:101EC0000C37BD465DF8047B704780B483B000AF2B
:101ED00078607B68DB6903F08003802B01D10123EC
:101EE00000E0002318460C37BD465DF8047B7047C0
:101EF00080B489B000AF78607B68FB60FB6853E812
:101F0000003FBB60BB6843F01003FB617B68FA696C
:101F1000BA617B617969BA6941E800233B613B6939
:101F2000002BE9D100BF00BF2437BD465DF8047B1C
:101F3000704780B489B000AF78607B68FB60FB6855
:101F400053E8003FBB60BB6843F08003FB617B68E4
:101F5000FA69BA617B617969BA6941E800233B613A
:101F60003B69002BE9D100BF00BF2437BD465DF8B7
:101F7000047B704780B489B000AF78607B68FB60F9
:101F8000FB6853E8003FBB60BB6823F08003FB6144
:101F90007B68FA69BA617B617969BA6941E80023B3
:101FA0003B613B69002BE9D100BF00BF2437BD4630
:101FB0005DF8047B704780B483B000AF78607B68C5
:101FC0001B6803F08003802B01D1012300E0002374
:101FD00018460C37BD465DF8047B704780B489B065
:101FE00000AF78607B680833FB60FB6853E8003F14
:101FF000BB60BB6843F04003FB617B680833FA6950
:10200000BA617B617969BA6941E800233B613B6948
:10201000002BE7D100BF00BF2437BD465DF8047B2D
:10202000704780B485B000AF786039603B68002BA2
:1020300003D17B682833FB6002E07B682433FB60BC
:10204000FB6818461437BD465DF8047B704780B4C2
:1020500083B000AF78600B46FB70FA787B689A62B9
:1020600000BF0C37BD465DF8047B704780B485B077
:1020700000AF786039607B68FB600C4A3B681344B2
:102080001B781A46FB6813441B6808493A680A44DF
:1020900012781146FA680A4443F00103136000BF46
:1020A0001437BD465DF8047B704700BF185B02081B
:1020B00080B485B000AF786039607B68FB600C4A03
:1020C0003B6813441B781A46FB6813441B68084995
:1020D0003A680A4412781146FA680A4423F0010368
:1020E000136000BF1437BD465DF8047B704700BF26
:1020F000185B020880B487B000AFF860B9607A60FE
:10210000FB687B610D4ABB6813441B781A467B69E8
:1021100013445A680A4B13400849BA680A441278B3
:1021200011467A690A4411467A6813434B6000BF2E
:102130001C37BD465DF8047B704700BF185B020882
:102140000000FFFF80B485B000AF786039607B6825
:10215000FB60074A3B6813441B781A46FB6813442C
:102160005B689BB218461437BD465DF8047B704728
:10217000185B020880B487B000AFF860B9607A607D
:10218000FB687B61074ABB6813441B781A467B696E
:1021900013441A467B68D36000BF1C37BD465DF808
:1021A000047B7047185B020880B487B000AFF8600A
:1021B000B9607A60FB687B61074ABB6813441B788F
:1021C0001A467B6913441A467B68936000BF1C372C
:1021D000BD465DF8047B7047185B020880B485B08B
:1021E00000AF786039607B68FB600C4A3B68134441
:1021F0001B781A46FB6813441B6808493A680A446E
:1022000012781146FA680A4443F00803136000BFCD
:102210001437BD465DF8047B704700BF185B0208A9
:1022200080B485B000AF786039607B68FB600C4A91
:102230003B6813441B781A46FB6813441B68084923
:102240003A680A4412781146FA680A4443F00403D3
:10225000136000BF1437BD465DF8047B704700BFB4
:10226000185B020880B485B000AF786039607B6885
:10227000FB600C4A3B6813441B781A46FB68134406
:102280001B6808493A680A4412781146FA680A44F9
:1022900043F01003136000BF1437BD465DF8047BA4
:1022A000704700BF185B020880B485B000AF78604B
:1022B0000023FB6015E01049FA6813465B019B1A86
:1022C0009B000B441B687A689A4207D1FA68134650
:1022D0005B019B1A9B00084A134406E0FB6801332C
:1022E000FB60FB68022BE6DD002318461437BD4671
:1022F0005DF8047B704700BF2C470124B0B584B063
:1023000002AF00237B6022E0B5497A6813465B0187
:102310009B1A9B000B441B681846FFF7B3FDB0499E
:102320007A6813465B019B1A9B000B44683318685C
:10233000AB497A6813465B019B1A9B000B446C33D4
:102340001B681946FFF7B4FE7B6801337B607B682E
:10235000022BD9DD4FF480630093A24BA24A0121E6
:10236000A24808F0C2F84FF480630093A04BA14A42
:102370000221A14808F0B9F80322002101200EF043
:102380007CFA0346964A5366954B9C6E944BDD6EE1
:1023900001219A48FFF745FE03461A462946204682
:1023A000FFF702FF8E4B9B6E8D4AD16E8C4AB2F8BE
:1023B00074201846FFF79EFE894B9B6E884AD16EAB
:1023C000874A126F1846FFF7D5FE854B9B6E844AED
:1023D000D26E11461846FFF745FF814B9B6E804A2F
:1023E000D26E11461846FFF7F9FE7D4B9B6E7C4A74
:1023F000D26E11461846FFF713FF8048FFF7EEFD37
:10240000774B9B6E764AD26E11461846FFF72EFE2A
:102410007A48FFF76DFD4FF480630093784B794A5B
:102420000521794808F061F84FF480630093774BF9
:10243000774A0621774808F058F803220021012046
:102440000EF01BFA0346664AC2F8E030644BD3F83C
:10245000E440634BD3F8E85001216F48FFF7E1FDFA
:1024600003461A4629462046FFF79EFE5C4BD3F8EA
:10247000E4305B4AD2F8E810594AB2F8F020184626
:10248000FFF738FE564BD3F8E430554AD2F8E8103F
:10249000534AD2F8EC201846FFF76CFE504BD3F8A5
:1024A000E4304F4AD2F8E82011461846FFF7DAFE2A
:1024B0004B4BD3F8E4304A4AD2F8E820114618468C
:1024C000FFF78CFE464BD3F8E430454AD2F8E820BB
:1024D00011461846FFF7A4FE4F48FFF77FFD404B1B
:1024E000D3F8E4303E4AD2F8E82011461846FFF708
:1024F000BDFD4948FFF7FCFC4FF480630093474B58
:10250000474A0721474807F0F0FF4FF480630093E4
:10251000454B464A0821464807F0E7FF03220021C1
:1025200001200EF0AAF903462D4AC2F85C312C4B6B
:10253000D3F860412A4BD3F8645101213D48FFF79D
:1025400070FD03461A4629462046FFF72DFE244B10
:10255000D3F86031224AD2F86411214AB2F86C21D2
:102560001846FFF7C7FD1E4BD3F860311C4AD2F85E
:1025700064111B4AD2F868211846FFF7FBFD184B7F
:10258000D3F86031164AD2F8642111461846FFF795
:1025900069FE134BD3F86031114AD2F86421114619
:1025A0001846FFF71BFE0E4BD3F860310C4AD2F8E9
:1025B000642111461846FFF733FE1E48FFF70EFD53
:1025C000074BD3F86031064AD2F864211146184609
:1025D000FFF74CFD1748FFF78BFC00233B6039E009
:1025E0002C4701242C630124D834020830470124ED
:1025F0002C670124E43402086047012400100140E4
:102600002C6F0124F0340208AC4701242C73012400
:10261000FC340208DC470124004400402C7B0124E8
:1026200008350208284801242C7F012414350208AB
:1026300058480124007800400A493A6813465B0173
:102640009B1A9B000B441B681846FFF70BFC3B686A
:1026500001333B603B68022BEEDD00231846083750
:10266000BD46B0BD2C47012480B584B000AF786072
:102670000B46FB707868FFF717FEB860BB68002B4D
:102680001FD0134BFB6005E0FB68013BFB60FB6860
:10269000002B18D0BB683433FA781146184607F07F
:1026A00057FF034683F00103DBB2002BECD17868BF
:1026B000FFF781FC0346002B06D17868FFF739FC51
:1026C00002E000BF00E000BF1037BD4680BD00BF84
:1026D00020A1070080B584B000AF786039607868C9
:1026E000FFF7E2FDF860FB68002B11D03B68002B80
:1026F0000ED008E03B681B7819467868FFF7B4FFF6
:102700003B6801333B603B681B78002BF2D100E053
:1027100000BF1037BD4680BD80B584B000AF786083
:102720007868FFF7C1FDF860FB68002B42D0FB68BA
:102730001B68DB6903F00203002B03D0FB681B68F6
:1027400002221A62FB681B68DB6903F00403002B9A
:1027500003D0FB681B6804221A62FB681B68DB69F4
:1027600003F40033002B04D0FB681B684FF40032E5
:102770001A627868FFF7A9FB0346002B1BD0786824
:10278000FFF719FC0346002B15D0FB68343307F123
:102790000B021146184607F021FF0346002B05D017
:1027A000FB7A19467868FFF752FC04E07868FFF777
:1027B000E1FB00E000BF1037BD4680BD80B58AB0A8
:1027C00000AF78600023BB607868FFF76DFDB861EB
:1027D000BB69002B7CD0BB699B6F7B61BB699A6E28
:1027E000BB69DB6E19461046FFF7ACFC03467B82E3
:1027F000BB69B3F874301A467B8AD31AFB60FA6857
:102800007B699A4265D0FA687B699A4214D97B69E0
:102810007B620CE0BB69181DBB691A6F7B6A1344AD
:102820001B78194607F094FE7B6A01337B627A6A53
:10283000FB689A42EED32AE07B693B620CE0BB69FD
:10284000181DBB691A6F3B6A13441B78194607F0C1
:102850007FFE3B6A01333B62BB69B3F874301A46B2
:102860003B6A9342EBD30023FB610CE0BB69181D6C
:10287000BB691A6FFB6913441B78194607F068FEA1
:10288000FB690133FB61FA69FB689A42EED3BB69CD
:102890005B6E07F10802114618460EF0A3F9BB68FB
:1028A000002B07D00C4B4FF080521A60BFF34F8FB4
:1028B000BFF36F8FBB69FA689A67BB699B6FBA6990
:1028C000B2F87420934204D1BB6900229A6700E0F9
:1028D00000BF2837BD4680BD04ED00E080B584B060
:1028E00000AF78607868FFF7DFFCF860FB68002BCA
:1028F00002D14FF0FF330EE0FB68043307F10B0207
:102900001146184607F06AFE0346002B01D0FB7AF9
:1029100001E04FF0FF3318461037BD4680BD80B54B
:1029200084B000AF78607868FFF7BEFCF860FB68A1
:10293000002B01D1002305E0FB680433184607F0A3
:10294000CAFE034618461037BD4680BD80B584B028
:1029500000AF78607868FFF7A7FCF860FB68002B91
:1029600001D1002306E0FB683433184607F077FEF8
:10297000034600BF18461037BD4680BD80B582B003
:1029800000AF78600B46FB7000BF7868FFF79DFAD8
:102990000346002BF9D0FB7819467868FFF757FB00
:1029A00000BF7868FFF77EFA0346002BF9D000BF1E
:1029B00000BF0837BD4680BD80B582B000AF7860EB
:1029C00039603B68002B0ED008E03B681B78194645
:1029D0007868FFF7D3FF3B6801333B603B681B78A7
:1029E000002BF2D100E000BF0837BD4680BD0000DB
:1029F00080B485B000AF78600D4BFB600CE07B6865
:102A00005A1C7A601B781A46FB685340FB60FB68CF
:102A1000084A02FB03F3FB607B681B78002BEED1B6
:102A2000FB6818461437BD465DF8047B704700BF4D
:102A3000C59D1C819301000180B485B000AF786012
:102A400039607A683B685340FB60FB681B0CFA688E
:102A50001343FB60FB681B0AFA681343FB60FB68C7
:102A6000DBB2002B0CBF01230023DBB21846143766
:102A7000BD465DF8047B704780B584B000AF7860D8
:102A80007868FFF7B5FFF860054BBB60B968F86878
:102A9000FFF7D2FF034618461037BD4680BD00BF82
:102AA000A37B47C580B584B000AF786005F0FAFF1E
:102AB000F8600023FB7207F10B0201230021F86884
:102AC00006F0E7F80346002B02D1FB7A102B07D95A
:102AD0001549786800F020F9144B01221A6020E0B3
:102AE000FB7A002B16D0FB7A114A0121F86806F018
:102AF000D0F80346002B05D1FB7A1A460C4B002177
:102B000099540EE00849786800F006F9074B012255
:102B10001A6006E00449786800F0FEF8034B0122D1
:102B20001A601037BD4680BD20350208408301245D
:102B30002C83012480B584B000AF78600E4B1B68F5
:102B4000012B0BD17868FFF753FFF8600B4BBB608C
:102B5000B968F868FFF770FF034609E0084978682C
:102B6000FDF7BEFB0346002B01D1012300E000234B
:102B700018461037BD4680BD40830124A37B47C55E
:102B80002C83012480B582B000AF78607B6893F815
:102B90002830042B10D17B685B6D5A1C7B685A650A
:102BA0007B685B6D064A934206D3786800F068F84C
:102BB0000449786800F0B0F800BF0837BD4680BD12
:102BC000E09304005C35020880B483B000AF786005
:102BD0007B6893F82830042B02D17B6800225A6569
:102BE00000BF0C37BD465DF8047B704780B582B0EE
:102BF00000AF786039607B683A689A657B6800222C
:102C00001A627B6800225A627B68002283F82820BF
:102C10007B680022DA627B6800221A657B680022EA
:102C20005A657B682022002118461FF0B8F97B689E
:102C300030332022002118461FF0B1F90B49786883
:102C400000F06AF80A49786800F066F8094978687F
:102C500000F062F80849786800F05EF80749786883
:102C600000F05AF800BF0837BD4680BD883502081D
:102C70009035020898350208AC350208B4350208D0
:102C800080B582B000AF78607B6801221A627B68F1
:102C900000225A627B68002283F828207B68002289
:102CA000DA627B6800221A657B6800225A657B68BD
:102CB0002022002118461FF072F97B683033202251
:102CC000002118461FF06BF90D49786800F024F8D0
:102CD0000C49786800F020F80B49786800F01CF87F
:102CE0000A49786800F018F80949786800F014F883
:102CF0000849786800F010F800BF0837BD4680BD6D
:102D0000883502089035020898350208AC3502086B
:102D1000B4350208B835020880B582B000AF7860DB
:102D2000396007E07B689A6D3B68591C39601B78F5
:102D3000184690473B681B78002BF3D100BF00BFBB
:102D40000837BD4680BD000080B582B000AF786016
:102D50007B6893F82830002B37D17B6824491846CC
:102D6000FDF7BEFA0346002B0BD17B68012283F8E6
:102D700028207B680022DA621E497868FFF7CCFFC2
:102D800031E07B681C491846FDF7AAFA0346002B80
:102D90000ED17868FFF786FE7B68022283F8282030
:102DA0007B680022DA6213497868FFF7B5FF1AE002
:102DB00012497868FFF7B0FF11497868FFF7ACFF58
:102DC00010497868FFF7A8FF0DE07B6893F828307A
:102DD000032B04D07B6893F82830042B03D10A49D5
:102DE0007868FFF799FF00BF0837BD4680BD00BF78
:102DF000D0350208D8350208E4350208EC3502085F
:102E0000B4350208B83502081836020880B582B019
:102E100000AF78600B46FB707B6893F82830012B7D
:102E200005D07B6893F82830022B40F0ED800A2211
:102E3000FB78934204D00D22FB78934240F0B68099
:102E40007B681B6D7A681344002283F830207B680E
:102E500093F82830012B38D17B6830331846FFF7C0
:102E60000BFE0346012B30D17B68032283F8282018
:102E70009A497868FFF750FF99497868FFF74CFF47
:102E800098497868FFF748FF94497868FFF744FF4E
:102E900095497868FFF740FF94497868FFF73CFF51
:102EA00093497868FFF738FF92497868FFF734FF55
:102EB00091497868FFF730FF8B497868FFF72CFF5E
:102EC00086497868FFF728FF6CE07B6893F8283024
:102ED000022B38D17B6830331846FFF72BFE0346B0
:102EE000012B30D17B68042283F828207B49786845
:102EF000FFF712FF7A497868FFF70EFF7F4978687D
:102F0000FFF70AFF75497868FFF706FF764978688A
:102F1000FFF702FF75497868FFF7FEFE744978688D
:102F2000FFF7FAFE73497868FFF7F6FE7249786892
:102F3000FFF7F2FE6C497868FFF7EEFE67497868A4
:102F4000FFF7EAFE2EE07B68DB6A5A1C7B68DA62D8
:102F500062497868FFF7E0FE7B68DB6A03229342F0
:102F600014DB7B68002283F8282065497868FFF726
:102F7000D3FE5A497868FFF7CFFE58497868FFF7C3
:102F8000CBFE60497868FFF7C7FE0BE05E497868C2
:102F9000FFF7C2FE51497868FFF7BEFE5B497868CB
:102FA000FFF7BAFE7B6800221A6592E07F22FB7869
:102FB000934216D17B681B6D002B40F38A807B689F
:102FC0001B6D5A1E7B681A657B689B6D08209847AD
:102FD0007B689B6D202098477B689B6D08209847F5
:102FE00077E07B681B6D1E2B73DC7B681B6D591CA7
:102FF0007A6811657A681344FA7883F830207B6820
:103000009B6D2A20984764E07B6893F82830032B57
:1030100004D07B6893F82830042B04D13C497868AD
:10302000FFF77AFE56E00A22FB78934203D00D2286
:10303000FB7893421CD17B685B6A7A680021D1548B
:103040007B685B6A002B0ADD24497868FFF764FE21
:103050007868FFF779FE7B6800225A623AE01F49E0
:103060007868FFF759FE27497868FFF755FE31E089
:103070007F22FB7893421AD17B685B6A002B29DDA3
:103080007B685B6A5A1E7B685A627B685B6A7A68F7
:103090000021D1547B689B6D082098477B689B6D0D
:1030A000202098477B689B6D0820984712E07B683A
:1030B0005B6A1E2B0EDC7B685B6A591C7A68516266
:1030C0007A68F978D1547B689B6DFA7810469847F6
:1030D00000E000BF00BF0837BD4680BDB435020820
:1030E0002836020894360208B8360208E03602088C
:1030F00008370208303702085837020880370208BC
:10310000A4370208B8350208D0370208D8350208BB
:10311000F837020880B483B000AF78607B6893F81A
:10312000283018460C37BD465DF8047B7047000018
:1031300080B400AFBFF34F8F00BF064BDB6803F4D2
:10314000E0620449044B1343CB60BFF34F8F00BFD1
:1031500000BFFDE700ED00E00400FA0580B483B095
:1031600000AF786039607B683A689A6100BF0C37BD
:10317000BD465DF8047B704780B483B000AF7860D3
:1031800039603B681A047B689A6100BF0C37BD4602
:103190005DF8047B704780B485B000AF03460A46F3
:1031A000FB8013467B7141F22103BB817B791BB20B
:1031B0001B021AB2B7F9063053401BB2FB80002342
:1031C000FB7313E0B7F90630002B09DAB7F90630C4
:1031D0005B001AB2B7F90C3053401BB2FB8002E01F
:1031E000FB885B00FB80FB7B0133FB73FB7B072BC6
:1031F000E8D9FB8818461437BD465DF8047B704754
:1032000080B586B000AFF860B9607A600121B86817
:1032100002F010FA78617B69002B04D13F49F8680D
:1032200002F046F976E078691EF0F4FB38613B69FC
:103230001E2B6AD801A252F823F000BFB932000851
:10324000C1320008CB3200080B3300080B330008F2
:103250000B3300080B3300080B3300080B33000856
:103260000B330008D5320008DD320008E5320008D3
:10327000ED3200080B3300080B3300080B33000855
:103280000B3300080B3300080B330008F53200083D
:10329000FF3200080B3300080B3300080B33000823
:1032A0000B3300080B3300080B3300080B33000806
:1032B0000B330008053300081E2004F075FC25E0E0
:1032C0004FF4806004F0B2FC20E04FF4007004F092
:1032D000FDFC1BE0002004F043FD17E0012004F09A
:1032E0003FFD13E0022004F03BFD0FE0032004F05B
:1032F00037FD0BE04AF6CD3004F074FD06E004F033
:10330000C1FD03E004F0FAFD00E000BF0449F868E5
:1033100002F0CEF81837BD4680BD00BF883E0208D7
:103320009C3E020880B5A8B002AFF860B9607A6030
:103330000121B86802F07EF9C7F884000221B8685C
:1033400002F078F9C7F880000023A7F89630D7F884
:103350008430002B03D0D7F88030002B04D1A04953
:10336000F86802F0A5F838E1D7F884001EF052FBA7
:10337000F86700220021D7F880001EF07FFCB867B4
:10338000BB6F002B03D0BB6FB3F5483F0ED907F1DD
:1033900010004FF44833934A64211EF03BFD07F1BF
:1033A00010031946F86802F083F816E1FDF7B0FB48
:1033B0000346032B1BD0FDF7ABFB0346022B08D0C3
:1033C000FDF7A6FB0346012B01D1874B02E0874B9B
:1033D00000E0874B07F11000864A64211EF01AFDB9
:1033E00007F110031946F86802F062F8F5E00220D0
:1033F000FDF73CFBFB6F032B6DD0FB6F032B00F342
:103400009C80FB6F012B03D0FB6F022B2CD094E030
:103410000023C7F890301AE0D7F8903087F875305D
:10342000D7F89030744A134497F875201A7097F8BB
:103430007520B7F8963011461846FFF7ACFE0346E4
:10344000A7F89630D7F890300133C7F89030D7F806
:103450009020BB6F9A42DFD307F11000BB6F674A21
:1034600064211EF0D7FC70E00023C7F88C3025E003
:10347000D7F88C10624BA3FB01239A0913465B001B
:1034800013445B01CA1AD3B2203387F87630D7F8D9
:103490008C30594A134497F876201A7097F87620A2
:1034A000B7F8963011461846FFF775FE0346A7F8A1
:1034B0009630D7F88C300133C7F88C30D7F88C2091
:1034C000BB6F9A42D4D307F11000BB6F4D4A642101
:1034D0001EF0A0FC39E00023C7F8883020E01EF081
:1034E0009DFA03465A42DBB2D2B258BF534287F824
:1034F0007730D7F88830404A134497F877201A700D
:1035000097F87720B7F8963011461846FFF743FE34
:103510000346A7F89630D7F888300133C7F88830CB
:10352000D7F88820BB6F9A42D9D307F11000BB6F40
:10353000354A64211EF06EFC07E03449F86801F05A
:10354000B7FF0320FDF792FA47E04FF47A700EF0D0
:10355000A1FB0120FDF78AFA07F110031946F8686C
:1035600001F0A6FF244A244B1B7807F110000093BA
:103570001346274A64211EF04DFC07F1100319463B
:10358000F86801F095FFBB6F013B1B4A13441946D5
:10359000BB6F013B184A13441B7807F110000093DE
:1035A0000B461C4A64211EF035FC07F11003194636
:1035B000F86801F07DFFB7F8963007F11000164A61
:1035C00064211EF027FC07F110031946F86801F08A
:1035D0006FFF1249F86801F06BFF9837BD4680BD58
:1035E000A03E0208F03E0208183F0208243F0208ED
:1035F0002C3F0208343F020800000030583F020808
:10360000ABAAAAAA883F0208B83F0208DC3F02081A
:103610000C40020830400208504002089C3E02085C
:1036200080B5AAB002AFF860B9607A600121B868CD
:1036300002F000F8C7F884001023C7F88030002398
:10364000C7F89C300023A7F89A30D7F88430002BB5
:1036500004D18049F86801F02BFFF7E00022002137
:10366000D7F884001EF00AFBF867FB6F002B03D02D
:10367000FB6FB3F5483F0ED907F114004FF4483300
:10368000754A64211EF0C6FB07F114031946F86859
:1036900001F00EFFDAE007F11400FB6F6F4A6421BE
:1036A0001EF0B8FB07F114031946F86801F000FF9B
:1036B0000023C7F89430AEE0D7F8943003F160539C
:1036C00007F11400664A64211EF0A4FB07F11403FD
:1036D0001846FCF70FFE024607F114031344C7F81F
:1036E00090300023C7F88C3031E0D7F89420D7F819
:1036F0008C30134403F160531B7887F87B3007F15B
:103700001403D7F89020D31AC3F1640197F87B30E3
:10371000544AD7F890001EF07DFBD7F89030033361
:10372000C7F89030D7F89C300133C7F89C3097F831
:103730007B20B7F89A3011461846FFF72CFD034658
:10374000A7F89A30D7F88C300133C7F88C30D7F807
:103750008C20D7F880309A4207D2D7F89420D7F837
:103760008C301344FA6F9A42BFD8D7F890305A1C65
:10377000C7F8902020221A70D7F890305A1CC7F84A
:1037800090207C221A700023C7F8883021E0D7F8F7
:103790009420D7F88830134403F160531B7887F8DE
:1037A0007A3097F87A301F2B06D997F87A307E2B2B
:1037B00002D897F87A1000E02E21D7F890305A1CE2
:1037C000C7F890200A461A70D7F888300133C7F836
:1037D0008830D7F88820D7F880309A4207D2D7F8B7
:1037E0009420D7F888301344FA6F9A42CFD8D7F88C
:1037F000903000221A7007F114031946F86801F09E
:1038000057FE01200EF046FAD7F89420D7F8803002
:103810001344C7F89430D7F89420FB6F9A42FFF412
:103820004BAFB7F89A3007F114000093D7F89C30EB
:103830000D4A64211EF0EEFA07F114031946F868E8
:1038400001F036FE0949F86801F032FEA037BD46A6
:1038500080BD00BF68400208F03E020890400208A8
:10386000B8400208C4400208CC4002089C3E02084E
:1038700080B5A0B000AFF860B9607A600121B86887
:1038800001F0D8FEF867FB6F002B04D13449F868CB
:1038900001F00EFE60E03349F86FFCF721FD0346AE
:1038A000002B42D1FDF734F9034687F87B3097F8B7
:1038B0007B30032B2AD801A252F823F0CD38000820
:1038C000DD380008ED380008FD38000807F1140362
:1038D000254A642118461EF09DFA1FE007F11403E3
:1038E000224A642118461EF095FA17E007F11403E6
:1038F0001F4A642118461EF08DFA0FE007F11403E9
:103900001C4A642118461EF085FA07E007F11403EB
:10391000194A642118461EF07DFA00BF07F114030E
:103920001946F86801F0C4FD12E01449F86FFCF77D
:10393000D7FC0346002B07D10320FDF797F8104969
:10394000F86801F0B5FD03E00E49F86801F0B0FD3C
:103950000D49F86801F0ACFD8037BD4680BD00BF61
:103960000441020824410208284102083C4102089F
:1039700054410208684102087C410208C03C020828
:1039800094410208B04102089C3E020880B5A0B0F4
:1039900000AFF860B9607A6005F028FFF867FB6F48
:1039A0001B7D83F00103DBB2002B04D01749F868BC
:1039B00001F07EFD27E006F063F8034687F87B30D0
:1039C00097F87B30002B0DD107F11403104A6421C6
:1039D00018461EF01FFA07F114031946F86801F0A3
:1039E00067FD0CE007F114030A4A642118461EF033
:1039F00011FA07F114031946F86801F059FD064958
:103A0000F86801F055FD8037BD4680BDE0410208F1
:103A1000044202082C4202089C3E020890B5ABB05A
:103A200004AFF860B9607A600121B86801F002FE65
:103A3000C7F894000221B86801F0FCFDC7F89000B7
:103A4000D7F89430002B03D0D7F89030002B04D156
:103A50003449F86801F02CFD61E0D7F894001DF0BE
:103A6000D9FF034687F88F3000220021D7F8900055
:103A70001EF004F9C7F888002B4A97F88F30D7F862
:103A80008810184605F0EAFE034687F8873097F855
:103A90008730002B1ED107F11003184605F07AFF7E
:103AA0000346002B37D17A693B7C1946BB69B88B3A
:103AB000044607F1200002940193009113461B4A2B
:103AC00064211EF0A7F907F120031946F86801F0F8
:103AD000EFFC20E097F88730022B0ED197F88F305B
:103AE00007F12000124A64211EF094F907F1200327
:103AF0001946F86801F0DCFC0DE097F8873007F113
:103B000020000C4A64211EF085F907F120031946B4
:103B1000F86801F0CDFC0849F86801F0C9FC9C3751
:103B2000BD4690BD504202080000003074420208B9
:103B3000B4420208D44202089C3E020880B5A4B0F8
:103B400002AFF860B9607A6005F0D4FF034687F8E9
:103B5000873097F88730032B38D801A252F823F02A
:103B6000C33B0008853B00087B3B0008713B000815
:103B70001D49F86801F09CFC2DE01C49F86801F033
:103B800097FC28E007F11003184605F003FF0346F1
:103B9000002B11D1BB8B1A46BB6907F120000093A3
:103BA0001346134A64211EF035F907F12003194624
:103BB000F86801F07DFC0EE00E49F86801F078FC31
:103BC00009E00D49F86801F073FC04E00B49F8685E
:103BD00001F06EFC00BF0A49F86801F069FC00BF03
:103BE0008837BD4680BD00BFFC420208084302087A
:103BF0001443020844430208704302088043020849
:103C00009C3E020880B5A6B002AFF860B9607A6049
:103C10000121B86801F00EFDC7F88400D7F88430A0
:103C2000002B04D14349F86801F042FC7FE00022F8
:103C30000021D7F884001EF021F8C7F88000D7F8DB
:103C40008030002B04D0D7F88030B3F5483F0ED930
:103C500007F114004FF44833374A64211EF0DAF8B4
:103C600007F114031946F86801F022FC5FE005F043
:103C700083FAF867FB6FDB7A83F00103DBB2002B7A
:103C800004D02E49F86801F013FC50E0D7F88010FA
:103C90004FF0605005F0BCFA034687F87B3097F888
:103CA0007B30002B31D10023A7F88E300023C7F8DA
:103CB000883012E0D7F8883003F160531A78B7F8EB
:103CC0008E3011461846FFF766FA0346A7F88E3085
:103CD000D7F888300133C7F88830D7F88820D7F86C
:103CE00080309A42E6D3B7F88E3007F11400009383
:103CF000D7F88030124A64211EF08CF807F11403C3
:103D00001946F86801F0D4FB0DE097F87B3007F115
:103D100014000C4A64211EF07DF807F114031946C3
:103D2000F86801F0C5FB0849F86801F0C1FB90375D
:103D3000BD4680BD90430208F03E0208BC43020825
:103D4000E04302080C4402089C3E020880B588B09B
:103D500000AFF860B9607A6007F11403074A0A21DE
:103D600018461EF057F807F114031946F86801F0D9
:103D70009FFB00BF2037BD4680BD00BF3044020816
:103D8000F0B5B3B006AFF860B9607A600121B868E9
:103D900001F050FCC7F8AC000221B86801F04AFC01
:103DA000C7F8A8000321B86801F044FCC7F8A400D4
:103DB0000421B86801F03EFCC7F8A0000521B868EE
:103DC00001F038FCC7F89C000621B86801F032FC0D
:103DD000C7F89800D7F8AC30002B13D0D7F8A8302C
:103DE000002B0FD0D7F8A430002B0BD0D7F8A03081
:103DF000002B07D0D7F89C30002B03D0D7F8983091
:103E0000002B0DD107F11803624A642118461EF0F9
:103E100001F807F118031946F86801F049FBB6E00C
:103E2000D7F8AC001DF0F6FDC7F89400D7F8A8004D
:103E30001DF0F0FDC7F89000D7F8A4001DF0EAFDD2
:103E4000C7F88C00D7F8A0001DF0E4FDC7F8880083
:103E5000D7F89C001DF0DEFDC7F88400D7F8980065
:103E60001DF0D8FDC7F88000D7F89430002B03DB95
:103E7000D7F89430172B04DD4749F86801F018FB98
:103E800085E0D7F89030002B03DBD7F890303B2B40
:103E900004DD4249F86801F00BFB78E0D7F88C307C
:103EA000002B03DBD7F88C303B2B04DD3C49F86852
:103EB00001F0FEFA6BE0D7F88830002B03DDD7F86D
:103EC00088301F2B04DD3749F86801F0F1FA5EE015
:103ED000D7F88430002B03DDD7F884300C2B04DDB9
:103EE0003149F86801F0E4FA51E0D7F88030002B4E
:103EF00003DBD7F88030632B04DD2C49F86801F030
:103F0000D7FA44E0D7F89430DBB2FB74D7F890309E
:103F1000DBB23B75D7F88C30DBB27B75D7F88830D5
:103F2000DBB23B74D7F88430DBB27B74D7F88030D7
:103F3000DBB2BB7407F11003184606F03FF904F03A
:103F400081FCF86707F110031946F86F04F0D0FC04
:103F5000FB7C1E463B7D7A7D397C787C0446B87CB0
:103F6000054607F11800049503940291019200930D
:103F700033460F4A64211DF04DFF07F1180319461F
:103F8000F86801F095FA0B49F86801F091FAB43736
:103F9000BD46F0BD3844020878440208AC4402082B
:103FA000E044020814450208444502087845020826
:103FB000C04502089C3E0208F0B5B5B006AFF860F7
:103FC000B9607A600121B86801F034FBC7F8B40029
:103FD000D7F8B430002B0DD107F14403B94A64215E
:103FE00018461DF017FF07F144031946F86801F061
:103FF0005FFA63E1B449D7F8B400FCF771F90346FE
:10400000002B3FD104F01EFCC7F8A80007F13C03C9
:104010001946D7F8A80004F01FFC0346002B2CD14A
:1040200007F13A031946D7F8A80004F0A5FC97F861
:104030003F309C4697F8403097F8412097F83C1065
:1040400097F83D00044697F83E000546B7F93A0058
:10405000064607F1440005960495039402910192E7
:1040600000936346994A64211DF0D4FE07F144038E
:104070001946F86801F01CFA1CE19549F86801F04E
:1040800017FA17E19349D7F8B400FCF729F903466A
:10409000002B26D107F13403184606F079F897F87B
:1040A00037301E4697F8383097F8392097F8341093
:1040B00097F83500044697F83600054607F14400A6
:1040C000049503940291019200933346824A64213D
:1040D0001DF0A0FE07F144031946F86801F0E8F965
:1040E000E8E07E49D7F8B400FCF7FAF80346002B65
:1040F0002ED100233B63002387F82F30002387F85D
:104100002E30002387F82D3007F12D0307F12E0202
:1041100007F12F0107F1300006F094F897F82F30DF
:104120001C4697F82E3097F82D20396BC9B207F14D
:1041300044000291019200932346694A64211DF0D4
:1041400069FE07F144031946F86801F0B1F9B1E0DE
:104150006449D7F8B400FCF7C3F80346002B40F0DD
:104160009C8004F06FFBC7F8B00007F124031946E8
:10417000D7F8B00004F070FB0346002B2CD107F1F8
:1041800012031946D7F8B00004F0F6FB97F8273071
:104190009C4697F8283097F8292097F8241097F82C
:1041A0002500044697F826000546B7F91200064692
:1041B00007F144000596049503940291019200933F
:1041C0006346424A64211DF025FE07F14403194667
:1041D000F86801F06DF903E04349F86801F068F907
:1041E00007F11C03184605F0D3FFFB7F1E4697F826
:1041F000203097F82120397F787F0446B87F054624
:1042000007F1440004950394029101920093334610
:10421000314A64211DF0FEFD07F144031946F86898
:1042200001F046F90023BB610023FB750023BB7539
:1042300000237B7507F1150307F1160207F117013B
:1042400007F1180005F0FEFFFB7D1C46BB7D7A7D63
:10425000B969C9B207F14400029101920093234663
:104260001F4A64211DF0D6FD07F144031946F86882
:1042700001F01EF905F0D8FFC7F8AC0007F14400C3
:10428000D7F8AC30194A64211DF0C4FD07F144038E
:104290001946F86801F00CF90CE007F14403144AE0
:1042A000642118461DF0B6FD07F144031946F8686D
:1042B00001F0FEF80F49F86801F0FAF8BC37BD4686
:1042C000F0BD00BFF0450208144602081C46020873
:1042D000644602088046020888460208C44602086E
:1042E000CC46020800470208044702081C4702089F
:1042F0002C4702089C3E0208F0B5A9B006AFF86052
:10430000B9607A600121B86801F094F9C7F88400B7
:10431000D7F88430002B0DD107F11C032B4A642100
:1043200018461DF077FD07F11C031946F86801F0E7
:10433000BFF847E000220021D7F884001DF09EFC62
:10434000C7F88000D7F88030214A93420DD807F192
:104350001C00204B204A64211DF05CFD07F11C036A
:104360001946F86801F0A4F82CE0D7F8800005F0B1
:104370003BFFD7F88020194B134407F11402114674
:10438000184605F069FCFB7D1E463B7E7A7E397D32
:10439000787D0446B87D054607F11C00049503941A
:1043A00002910192009333460D4A64211DF032FDC3
:1043B00007F11C031946F86801F07AF80949F86812
:1043C00001F076F88C37BD46F0BD00BF5C470208AF
:1043D0007F436D3880436D387847020880BC92C7B0
:1043E000C04502089C3E020880B5A4B002AFF86048
:1043F000B9607A600121B86801F01CF9C7F884003F
:104400000221B86801F016F9C7F88000D7F88430A7
:10441000002B03D0D7F88030002B0DD107F1140307
:10442000254A642118461DF0F5FC07F114031946CE
:10443000F86801F03DF83CE000220021D7F8840044
:104440001DF0A4FB0346A7F87E3000220021D7F818
:1044500080001DF09BFB0346DBB2FB7404F022FBE3
:10446000B867B7F87E1007F113020123B86F04F0A4
:1044700081FB0346002B0AD1B7F87E30FA7C07F1A6
:10448000140000920D4A64211DF0C4FC07E0B7F847
:104490007E3007F114000A4A64211DF0BBFC07F1CD
:1044A00014031946F86801F003F80649F86800F0AB
:1044B000FFFF8837BD4680BD98470208BC47020809
:1044C000DC4702089C3E020880B5A4B002AFF86049
:1044D000B9607A600121B86801F0ACF8C7F88400CF
:1044E000D7F88430002B0DD107F11803224A64213C
:1044F00018461DF08FFC07F118031946F86800F004
:10450000D7FF35E000220021D7F884001DF03EFBE4
:104510000346A7F882300023FB7504F0C3FAF8675E
:10452000B7F8821007F117020123F86F04F0B1FB0E
:104530000346002B0AD1B7F88230FA7D07F1180044
:1045400000920E4A64211DF065FC07E0B7F8823046
:1045500007F118000A4A64211DF05CFC07F11803FA
:104560001946F86800F0A4FF0649F86800F0A0FFBB
:104570008837BD4680BD00BFF847020814480208CE
:10458000344802089C3E020880B584B000AFF86051
:10459000B9607A60F86803F081F90449F86800F0BE
:1045A00087FF00BF1037BD4680BD00BF9C3E02089C
:1045B00080B586B000AFF860B9607A6002F012FE94
:1045C0000D49F86800F074FF02F080FF0346FB75A8
:1045D000FB7D002B04D00949F86800F069FF03E077
:1045E0000749F86800F064FF0649F86800F060FFCA
:1045F00000BF1837BD4680BD504802086848020811
:104600007C4802089C3E020880B584B000AFF86088
:10461000B9607A6002F0F8FD0549F86800F048FFDB
:104620000449F86800F044FF00BF1037BD4680BD64
:10463000984802089C3E020880B5A6B000AFF8601A
:10464000B9607A600121B86800F0F4FFC7F89400FF
:104650000221B86800F0EEFFC7F89000D7F8943058
:10466000002B03D0D7F89030002B04D11149F86803
:1046700000F01EFF1BE0D7F89020D7F89410F868E0
:1046800003F020F80346002B0DD107F11000D7F8F6
:104690009430094A80211DF0BDFB07F11003194633
:1046A000F86800F005FF0549F86800F001FF983749
:1046B000BD4680BDB0480208D04802089C3E0208B2
:1046C00080B5A8B000AFF860B9607A600121B86821
:1046D00000F0B0FFC7F89C000221B86800F0AAFF04
:1046E000C7F89800D7F89C30002B03D0D7F8983043
:1046F000002B04D11C49F86800F0DAFE31E0D7F84D
:104700009800FBF7F7FDC7F89400D7F89430B3F59D
:10471000005F04D91549F86800F0CAFE21E0D7F817
:104720009420D7F89810D7F89C0002F027FE034693
:10473000002B0ED107F11400D7F89C300C4A8021D1
:104740001DF068FB07F114031946F86800F0B0FE8D
:1047500003E00849F86800F0ABFE0749F86800F08C
:10476000A7FEA037BD4680BDB0480208E848020851
:10477000D0480208044902089C3E020880B586B071
:1047800000AFF860B9607A600121B86800F052FFAC
:1047900078617B69002B04D10749F86800F088FE36
:1047A00007E07969F86802F0B3FE0449F86800F0A0
:1047B0007FFE1837BD4680BD1C4902089C3E02089A
:1047C00080B584B000AFF860B9607A6080210B4892
:1047D000FEF7D2FC64200DF05DFA80210748FEF759
:1047E000BDFC0749F86800F063FE0649F86800F070
:1047F0005FFE00BF1037BD4680BD00BF00180258E5
:10480000344902089C3E020880B584B000AFF860CD
:10481000B9607A604FF480710748FEF7ADFC074934
:10482000F86800F045FE0649F86800F041FE00BF58
:104830001037BD4680BD00BF00180258504902081D
:104840009C3E020880B584B000AFF860B9607A6021
:104850004FF480710748FEF781FC0749F86800F0C3
:1048600027FE0649F86800F023FE00BF1037BD465A
:1048700080BD00BF00180258784902089C3E02081B
:1048800080B586B000AFF860B9607A600121B86881
:1048900000F0D0FE78617B69002B04D11E49F868D6
:1048A00000F006FE35E01D497869FBF719FD034667
:1048B000002B07D11A49F86800F0FAFD0120FCF737
:1048C00061F922E017497869FBF70AFD0346002BDE
:1048D00007D11549F86800F0EBFD0220FCF752F90A
:1048E00013E012497869FBF7FBFC0346002B07D164
:1048F0000F49F86800F0DCFD0020FCF743F904E004
:104900000C49F86800F0D4FD03E00B49F86800F0AA
:10491000CFFD1837BD4680BDA0490208C449020832
:10492000C8490208F8490208FC4902082C4A020852
:10493000344A0208684A02089C3E020880B586B0E4
:1049400000AFF860B9607A600121B86800F072FECB
:1049500078617B69002B04D11E49F86800F0A8FD3E
:1049600034E01D497869FBF7BBFC0346002B07D1F7
:104970000320FCF707F91949F86800F099FD21E0D8
:1049800017497869FBF7ACFC0346002B07D10420DC
:10499000FCF7F8F81349F86800F08AFD12E01249B4
:1049A0007869FBF79DFC0346002B07D10020FCF73C
:1049B000E9F80E49F86800F07BFD03E00C49F8685F
:1049C00000F076FD0B49F86800F072FD1837BD461F
:1049D00080BD00BFA04A0208C4490208C04A0208BC
:1049E000F8490208084B0208484B02084C4B0208E1
:1049F0007C4B02089C3E020880B588B000AFF8608E
:104A0000B9607A600121B86800F014FEB861BB6932
:104A1000002B04D11649F86800F04AFD25E0B8697A
:104A2000FBF768FC78610D211248FDF71DFE00239D
:104A3000FB610AE0BA69FB6913441B7819460D480B
:104A4000FDF712FEFB690133FB61FA697B699A424B
:104A5000F0D30D210748FDF707FE0749F86800F07D
:104A600027FD0649F86800F023FD2037BD4680BDCC
:104A7000B04B020800780040CC4B02089C3E020874
:104A800080B584B000AF78607B68FB600349F8684C
:104A900000F00EFD00BF1037BD4680BDEC4B020894
:104AA00080B584B000AF78607B68FB600349F8682C
:104AB00000F0FEFC00BF1037BD4680BDFC4B020875
:104AC00080B584B000AF78607B68FB600349F8680C
:104AD00000F0EEFC00BF1037BD4680BD0C4C020854
:104AE00080B588B004AFF860B9607A6000230193A4
:104AF000FB680093164B00220A21022005F06EFC91
:104B000001230293FB680193124B009300231E22A2
:104B100014210A2005F0C2FB02230093FB680E4A11
:104B20000021142005F010FC0C49F86800F0C0FCCE
:104B30000B49F86800F0BCFC0A49F86800F0B8FCC2
:104B40000949F86800F0B4FC00BF1037BD4680BDCD
:104B5000814A0008A14A0008C14A0008204C020806
:104B6000444C0208644C02089C3E020890B5ADF229
:104B70000C4D04AF07F57E73A3F57B73186007F542
:104B80007E73A3F57C73196007F57E73A3F57D73BF
:104B90001A601423C7F8EC330DF0EEFAC7F8E803F7
:104BA00007F11400D7F8E833734A4FF480711DF011
:104BB00031F907F1140207F57E73A3F57B731146F3
:104BC000186800F075FC07F58A730022D7F8EC131B
:104BD00018460DF0DDFAC7F8E403D7F8E433002BEC
:104BE00010D107F57E73A3F57B736449186800F054
:104BF0005FFC07F57E73A3F57B736149186800F0CD
:104C000057FCB4E007F11400D7F8E4335D4A4FF4E1
:104C100080711DF0FFF807F1140207F57E73A3F50C
:104C20007B731146186800F043FC07F57E73A3F50B
:104C30007B735549186800F03BFC07F57E73A3F5BC
:104C40007B735249186800F033FC0023C7F8F43333
:104C500077E007F57E73A3F53971D7F8F42313468F
:104C6000DB0013449B000B440C331B78042B21D82E
:104C700001A252F823F000BF8D4C0008954C0008AB
:104C80009D4C0008A54C0008AD4C0008404BC7F8EF
:104C9000F03313E03F4BC7F8F0330FE03E4BC7F85B
:104CA000F0330BE03D4BC7F8F03307E03C4BC7F85F
:104CB000F03303E03B4BC7F8F03300BF07F57E73DA
:104CC000A3F53971D7F8F4231346DB0013449B0096
:104CD0000B4404331C6807F57E73A3F53971D7F8CC
:104CE000F4231346DB0013449B000B441033196874
:104CF00007F57E73A3F53970D7F8F4231346DB006C
:104D000013449B00034420331B6807F114000293F3
:104D10000191D7F8F03300932346234A4FF4807172
:104D20001DF078F807F1140207F57E73A3F57B7385
:104D30001146186800F0BCFBD7F8F4330133C7F80C
:104D4000F433D7F8F423D7F8E4339A4281D307F544
:104D50007E73A3F57B730D49186800F0A9FB07F576
:104D60007E73A3F57B730649186800F0A1FB07F575
:104D70007F77BD4690BD00BF804C0208A04C020862
:104D80009C3E0208C44C0208D84C0208084D020898
:104D9000344D02083C4D0208444D02084C4D0208B7
:104DA000544D02085C4D0208644D020880B582B083
:104DB00000AF78600348FDF763FF00BF0837BD46CA
:104DC00080BD00BF704A012490B587B002AFF86083
:104DD000B9607A601349F86800F06AFB124B1B68EF
:104DE000002B0AD1114B00930023002264211048AC
:104DF0000EF03AFC03460C4A13600B4B1B68002B69
:104E00000BD0094B1C680DF0A7F902460023009354
:104E10000023012120460EF083FC00BF1437BD465D
:104E200090BD00BF7C4D020844830124AD4D0008B5
:104E30008C4D020880B58AB000AFF860B9607A6026
:104E40000121B86800F0F6FB78627B6A002B04D180
:104E50002949F86800F02CFB4AE02848FEF75AF987
:104E6000034687F8233097F82330032B3BD1786A29
:104E7000FBF740FAF861FB69102B04D92049F86868
:104E800000F016FB34E003F00DFEB861FB69DBB205
:104E9000FB7507F1170201230021B86903F06AFED0
:104EA0000346002B04D01749F86800F001FB1FE00F
:104EB000FB69002B0ED0FB699BB27A6A0121B869AD
:104EC00003F058FE0346002B04D00F49F86800F0A9
:104ED000EFFA0DE00D49F86800F0EAFA0C49F868BD
:104EE00000F0E6FA04E00B49F86800F0E1FA00BFD0
:104EF0002837BD4680BD00BF984D0208704A012486
:104F0000BC4D0208E44D0208104E0208344E02085F
:104F10009C3E0208584E020880B596B000AFF8607B
:104F2000B9607A600121B86800F084FB786519499E
:104F3000F86800F0BDFA7B6D002B0BD11649F868BC
:104F400000F0B6FAF86802F06BF81449F86800F05F
:104F5000AFFA16E00A220021786D1CF08FFE38654A
:104F600007F110003B6D0E4A40211CF053FF07F182
:104F700010031946F86800F09BFAF968386D02F0E2
:104F800083F80849F86800F093FA00BF5837BD4627
:104F900080BD00BF884E0208A04E0208B04E020835
:104FA000C04E02089C3E020880B584B000AFF86095
:104FB000B9607A60FEF7BCF880B400AF024B1846C7
:104FC000BD465DF8047B7047205B020880B400AFEB
:104FD00022231846BD465DF8047B704780B584B037
:104FE00000AF78600B46FB70FB78FB73FB7B1946C8
:104FF0000348FDF739FB00BF1037BD4680BD00BF39
:105000000010014080B584B000AF78600B46FB70A3
:10501000FB78FB73FB7B19460348FDF725FB00BFBC
:105020001037BD4680BD00BF0044004080B582B04F
:1050300000AF00F09FF878607B68394ADA607B68DF
:105040004FF400621A827B6810229A807B684022AB
:10505000DA807B6880221A817B6820225A817B68F3
:1050600001229A747B682F4A1A60FFF7A5FF024657
:105070007B685A61FFF7AAFF03461A467B681A83CA
:10508000786800F0D2F80346274A1360264B1B6865
:10509000002B01D101233EE0234B1B68234A1A60F9
:1050A00000F068F838603B68214ADA603B684FF4EA
:1050B00000621A823B6810229A803B684022DA80A4
:1050C0003B6880221A813B6820225A813B6801227A
:1050D0009A743B68174A1A60FFF76EFF02463B68F6
:1050E0005A61FFF773FF03461A463B681A83386814
:1050F00000F09BF80346104A13600F4B1B68002B0F
:1051000001D1012307E00C4B1B680C4A1A600C4BC1
:1051100001221A70002318460837BD4680BD00BF23
:1051200048830124D44E020848930124DD4F00082F
:10513000488B0124E84E02084C93012405500008D6
:105140005093012480B400AF034B1B681846BD4642
:105150005DF8047B704700BF4893012480B400AF22
:10516000034B1B681846BD465DF8047B704700BFC3
:105170004C93012480B400AF114B40229A80104B15
:105180004022DA800E4B80221A810D4B0022DA6019
:105190000B4B00221A820A4B08225A81084B01222B
:1051A0009A74074B074A1A60054B00221A83044B76
:1051B00000225A61024B1846BD465DF8047B7047D9
:1051C00054930124184F020880B485B000AF786072
:1051D0007B685B69002B02D17B685B8900E0002360
:1051E000FB817B689B8803339A087B68DB880333E9
:1051F0009B081A447B681B8903339B08D118FA89E2
:1052000013465B001344DB0003339B08CA18FB8979
:1052100003339B08134412339BB29B009BB2184686
:105220001437BD465DF8047B704780B588B000AF89
:1052300078600023FB617868FFF7C6FF0346BB6117
:105240000023FB757B68DB68002B05D07B681B8A1D
:105250001A46BB69934201D9002371E07B68DB6881
:105260003B61BA69002138691CF099FE3B69FB611A
:105270003B6910333B61FB693A69DA603B6938335B
:105280003B61FB69DB68FB60FB683A691A617B681C
:105290009B88033323F003033A6913443B61FB68A3
:1052A0003A69DA617B68DB88033323F003033A69E8
:1052B00013443B617B685A69FB685A627B681A8BAE
:1052C000FB689A857B681A8BFB68DA85FB683A690C
:1052D0005A607B681A89FB681A81FB7D002B08D015
:1052E000FB6893F8333043F00403DAB2FB6883F8C9
:1052F00033207B689B7C002B08D0FB6893F833300D
:1053000043F02003DAB2FB6883F833207B689A8885
:10531000FB681A83FB6800229A82FB680022DA820B
:105320007B68DA88FB685A84FB68002283F83220A5
:105330007B681A68FB681A60FB6800229A86FB6922
:1053400018462037BD4680BD80B584B000AF786078
:105350000B46FB707B68DB68FB60FB681033FA78F8
:105360001146184600F08AFF034683F00103DBB2C2
:10537000002B08D0FB6893F8333043F00103DAB216
:10538000FB6883F8332000BF1037BD4680BD80B571
:1053900084B000AF78607B681B68002B00F08380CE
:1053A0007B68DB68FB60FB6893F8333003F0020333
:1053B000002B55D1FB6893F8333043F00203DAB287
:1053C000FB6883F83320FB681B681946786800F097
:1053D0007EFE45E0FB681033184600F027FF0346C9
:1053E000FB72FB6893F8333003F00803002B05D001
:1053F000FB7A1946786800F0F5F92AE0FB6893F823
:1054000032301B2B0CD1FB7A5B2B09D1FB6893F854
:10541000333043F00803DAB2FB6883F8332018E036
:10542000FB7A184600F0AAFE0346002B05D0FB7A53
:105430001946786800F086FA0BE0FB7A184600F00F
:10544000BDFE0346002B04D0FB7A1946786800F0B5
:1054500027FA786800F012FDFB68FA7A83F83220A8
:10546000FB681033184600F0C0FE0346002BB1D194
:10547000FB6893F8333003F00103002B14D0FB6872
:1054800000221A84FB68DB69FA68128C134400223C
:105490001A70FB6893F8333023F00103DAB2FB682B
:1054A00083F8332000E000BF1037BD4680BD000008
:1054B00080B584B000AF786039607B681B68002BD2
:1054C0003ED07B68DB68FB60FB689B8E7B81FB6862
:1054D00093F8333003F01003002B02D1786800F00A
:1054E000C1FDFB687A899A863968786800F0EFFD1B
:1054F000154B1B681946786800F0E9FDFB6893F8C6
:10550000333003F01003002B1BD1FB681B681946D6
:10551000786800F0DCFDFB68DB691946786800F00C
:10552000D6FDFB681A8CFB681A86FB689B8E0022EE
:105530001946786800F0ECFD786800F09FFC00E008
:1055400000BF1037BD4680BDA048012480B588B09B
:1055500000AF78607B68002B66D0354BFB60002382
:10556000FB770023BB770023BB6100237B6147E00F
:105570007B6901337B61BB7F002B02D00023BB77AB
:1055800029E0FB7C5C2B02D10123BB7738E0FB7C5C
:10559000222B10D1FB7F002B14BF01230023DBB291
:1055A00083F00103DBB2FB77FB7F03F00103FB77A2
:1055B0000023FB740FE0FB7F83F00103DBB2002BC1
:1055C00009D0FB7C1946F8681CF000FD0346002B4F
:1055D00001D00023FB74FB7C002B09D1BB69002B9D
:1055E0000EDDBB69013B7A6813441B78002B07D0A2
:1055F000BB697A681344FA7C1A70BB690133BB61DA
:105600007B697A6813441B78FB74FB7C002BAFD159
:10561000BB697A68134400221A70BB6901337A6847
:10562000134400221A7000E000BF2037BD4680BD41
:105630001C4F020880B584B000AF78600B467B80B9
:105640007B881946786800F020FF0346FB81FB89C0
:105650004FF6FF72934203D0FB897A68134400E04F
:10566000002318461037BD4680BD80B584B000AF1A
:1056700078600B467B807B881946786800F005FFD0
:105680000346FB81FB894FF6FF72934203D0FB89EF
:105690007A68134400E0002318461037BD4680BDE9
:1056A00080B485B000AF78607B68002B03D07B6846
:1056B0001B78002B01D1002319E00023FB6001239C
:1056C0007B81FB687A6813441B78002B09D1FB6847
:1056D00001337A6813441B78002B06D07B89013391
:1056E0007B81FB680133FB60EBE700BF7B891846D9
:1056F0001437BD465DF8047B7047000080B586B066
:1057000000AF78600B46FB707B68DB683B613B69F0
:105710009B89002B5FD0FB78002B05D03B695A8911
:105720003B699B899A4256D0FB7883F00103DBB238
:10573000002B03D03B695B89002B4CD0786800F0CC
:1057400091FC3B691B681946786800F0C0FCFB7847
:10575000002B06D03B695B8901339AB23B695A81C1
:1057600005E03B695B89013B9AB23B695A813B6921
:105770001A1D3B695B891946104600F00DFE7861E1
:105780007B69002B01D1164B7B617869FAF7B2FD7A
:105790000346FB813B69DB69FA89796918461CF08D
:1057A000A8FC3B69DA69FB89134400221A703B6943
:1057B000FA891A843B69DB691946786800F087FC2E
:1057C0003B691A8C3B691A863B6900229A86786885
:1057D00000F054FB00E000BF1837BD4680BD00BF9D
:1057E000204F020890B585B000AF78600B46FB7083
:1057F0007B68DB68FB60FB783F2B48D9FB787E2B0E
:1058000045D8FB6893F8333023F00803DAB2FB681D
:1058100083F83320FB78412B02D0FB78422B09D14F
:10582000FB78412B0CBF01230023DBB219467868BB
:10583000FFF764FFFB78432B0FD1FB689B8E002B97
:105840000BD0FB689B8E013B9AB2FB689A86124B89
:105850001B681946786800F03AFCFB78442B16D197
:10586000FB689B8E1C46FB68DB691846FAF742FD15
:1058700003469C420BD2FB689B8E01339AB2FB68B5
:105880009A86064B1B681946786800F020FC00BF1A
:105890001437BD4690BD00BFA4480124A848012488
:1058A00080B584B000AF78600B46FB707B68DB6826
:1058B000FB60FB681B8C0233FA68528C93423BDA24
:1058C000FB68DB691846FAF715FD0246FB689B8EFC
:1058D000D31ABB60FB68DA69BB680133D018FB6878
:1058E000DA69BB68D118FB689B8E01331A461CF03D
:1058F0003CFBFB681B8C01339AB2FB681A84FB6883
:105900001B8E01339AB2FB681A86FB68DA69BB68A2
:105910001344FA781A70FB689B8E002B05D0084B55
:105920001B681946786800F0D2FB7B681B68FA7820
:1059300011467868984700E000BF1037BD4680BD2B
:10594000B448012480B584B000AF78600B46FB708A
:105950007B68DB68FB60FB6893F832300D2B02D16B
:10596000FB780A2B78D0FB6893F832300A2B02D1EF
:10597000FB780D2B70D0FB780D2B02D0FB780A2B17
:1059800029D1786800F0DCFA354B1B681946786835
:1059900000F09DFBFB681B8C002B02D0786800F0A8
:1059A00065F8FB6800221A84FB68DB69FA68128CD0
:1059B000134400221A70FB6800221A86FB6800223A
:1059C0005A81FB6800229A86FB681B681946786832
:1059D00000F07DFB41E0FB78082B02D0FB787F2BA9
:1059E00033D1FB681B8C1A46FB689B8ED31A002BA5
:1059F0002BDD1C4B1B681946786800F068FB1A4BBE
:105A00001B681946786800F062FBFB68DB69184682
:105A1000FAF770FC0246FB689B8ED31ABB60FB68EA
:105A2000DA69BB68013BD018FB68DA69BB68D1183A
:105A3000FB689B8E01331A461CF097FAFB681B8C9F
:105A4000013B9AB2FB681A8407E0FB78092B04D16A
:105A5000786800F075FA00E000BF1037BD4680BDE1
:105A6000A0480124A8480124B848012490B58FB06B
:105A700000AF78607B68DB68BB61012387F8373053
:105A800000233B630DE0BB69DA693B6B13441B7871
:105A9000202B03D0002387F8373008E03B6B01331D
:105AA0003B63BB691B8C1A463B6B9342EBDB97F85D
:105AB0003730002B40F0FA80BB691A1DBB69DB69E7
:105AC0001946104600F004FC0023FB620023BB6271
:105AD000002387F8273000233B6230E0BB69DA6996
