:020000040800F2
:1000000000000824C95402080950020811500208CF
:10001000195002082150020829500208000000006F
:10002000000000000000000000000000C1CB01083B
:10003000315002080000000081CE0108E9CE01081D
:100040001D5502081D5502081D5502081D550208C0
:100050001D5502081D5502081D5502081D550208B0
:100060001D5502081D5502081D5502084150020881
:10007000C55002081D5502081D5502081D550208ED
:100080001D5502081D5502081D5502081D55020880
:100090001D5502081D5502081D5502081D55020870
:1000A0001D550208495102081D5502081D55020838
:1000B0001D5502081D5502081D5502081D55020850
:1000C0001D5502081D5502081D5502081D55020840
:1000D0001D550208555102088D5102081D55020890
:1000E0001D5502081D550208000000001D5502089C
:1000F0001D5502081D5502081D550208C55102086C
:100100001D5502080D5202081D5502081D55020812
:100110001D5502081D5502081D55020821520208EE
:100120001D550208355202081D5502081D550208CA
:100130001D5502081D5502081D5502081D550208CF
:100140001D5502081D5502080000000000000000B7
:100150001D5502081D5502081D5502081D550208AF
:100160001D5502081D5502081D5502081D5502089F
:100170001D5502081D5502081D550208000000000B
:100180001D5502081D550208B95202081D550208E6
:100190001D550208F1520208FF5202081D550208BF
:1001A0001D5502081D5502081D5502081D5502085F
:1001B0001D5502081D5502081D5502081D5502084F
:1001C0001D5502081D5502081D5502081D5502083F
:1001D0001D5502081D5502081D5502081D5502082F
:1001E0001D5502081D5502081D5502081D5502081F
:1001F0001D5502081D5502081D5502081D5502080F
:100200001D5502081D5502081D5502081D550208FE
:100210001D5502081D5502081D5502081D550208EE
:100220001D5502081D5502080D530208000000006C
:100230001D5502081D5502081D5502081D550208CE
:100240001D550208215302082D5302081D550208AE
:100250001D5502081D5502081D5502081D550208AE
:100260001D5502081D5502081D5502081D5502089E
:100270001D5502081D5502081D5502081D5502088E
:100280001D5502081D5502081D55020800000000FA
:080290001D5502081D5502086E
:1002A00010B5054C237833B9044B13B10448AFF3B0
:1002B00000800123237010BDF0070024000000001F
:1002C000F8FC020808B5034B1BB103490348AFF320
:1002D000008008BD00000000F4070024F8FC0208BC
:1002E00010F8012B11F8013B012A28BF9A42F7D0E0
:1002F000D01A7047034613F8012B002AFBD1181AB5
:1003000001387047000000000000000000000000FD
:1003100001F0FF01102A2BDB10F0070F08D010F8B6
:10032000013B013A8B422DD010F0070F42B3F6D1BA
:10033000F0B441EA012141EA014122F007047FF0D3
:1003400000070023F0E80256083C85EA010586EA2A
:10035000010685FA47F5A3FA87F586FA47F6A5FA66
:1003600087F68EB9EED1F0BC01F0FF0102F0070272
:1003700032B110F8013B013A83EA010313B1F8D11D
:100380000020704701387047002D06BF35460338FE
:10039000073815F0010F07D1013015F4807F02BF37
:1003A000013015F4C03F0130F0BC0138704700BF88
:1003B00053B94AB9002908BF00281CBF4FF0FF31CC
:1003C0004FF0FF3000F088B9ADF1080C6DE904CEB4
:1003D00000F006F8DDF804E0DDE9022304B0704720
:1003E0002DE9F047089D8E4604468846002B4AD1E9
:1003F0008A42174662D9B2FA82F64EB1C6F120039C
:1004000001FA06F820FA03F3B74043EA0808B440BB
:100410004FEA174E1FFA87FCB8FBFEF1230C0EFBC8
:10042000118843EA084301FB0CF29A4209D9FB18F0
:1004300001F1FF3080F0EA809A4240F2E780023911
:100440003B449A1AA3B2B2FBFEF00EFB102243EA21
:10045000024300FB0CFC9C4509D9FB1800F1FF325C
:1004600080F0D6809C4540F2D3803B44023840EA7D
:100470000140A3EB0C0300211DB1F3400022C5E9AC
:100480000032BDE8F0878B4205D90DB1C5E9000106
:1004900000210846F5E7B3FA83F1002946D17345F8
:1004A00002D3824200F20581841A6EEB030201201E
:1004B0009046002DE5D0C5E90048E2E7002A00F0AB
:1004C0009080B2FA82F6002E40F0A4808A1A030CC3
:1004D0004FEA174E80B2BCB20121B2FBFEFC0EFB0C
:1004E0001C2243EA024304FB0CF29A4207D9FB1890
:1004F0000CF1FF3802D29A4200F2E080C4469B1A07
:10050000B3FBFEF20EFB123340EA034302FB04F49A
:100510009C4207D9FB1802F1FF3002D29C4200F244
:10052000CA8002461B1B42EA0C40A5E7C1F1200627
:100530008B4022FA06F71F430EFA01F420FA06F365
:100540002EFA06FE4FEA1749234300FA01F81FFA74
:1005500087FCBEFBF9F01C0C09FB10EE44EA0E44CC
:1005600000FB0CFEA64502FA01F209D93C1900F184
:10057000FF3A80F09C80A64540F2998002383C44C6
:10058000A4EB0E041FFA83FEB4FBF9F309FB13443A
:100590004EEA044403FB0CFCA44508D93C1903F1C2
:1005A000FF3E80F08280A4457FD9023B3C4443EA71
:1005B0000040A4EB0C04A0FB02EC64457346E1464A
:1005C00062D35FD05DB1B8EB030264EB090404FAB7
:1005D00006F622FA01F31E43CC40C5E9006400216F
:1005E0004FE7B1FBF2FC010C41EA0E4180B240EA58
:1005F00001423B4638463C46B846BE462026B1FB43
:10060000F7F1A2EB080241EA0C4166E7014618E760
:1006100010462CE7C6F120022EFA02F3B740B14093
:1006200020FA02F24FEA174E0A43B3FBFEF8BCB2BF
:100630000EFB1833110C41EA034108FB04F9B040EA
:1006400089454FEA104380B23ED9791808F1FF3C42
:1006500001D289451FD8A1EB0901B1FBFEF909FBC5
:1006600004F80EFB191192B242EA0142424529D226
:10067000BA1809F1FF31C4D24245C2D2A9F1020130
:100680003A44BEE7F0459DD2BEEB02036CEB070C8B
:100690000138E14696E7A7EB09094944A8F1020CA5
:1006A000B1FBFEF909FB04F8DBE773467FE7504630
:1006B00066E70846FDE63B44023A33E7ACF1020C3C
:1006C0003B441CE749469CE7A1EB0901C446B1FB4A
:1006D000FEF909FB04F8C4E7704700BF80B582B09B
:1006E00000AF0123FB711C4B01221A701B480EF056
:1006F00069FF10221A491B480FF0BCF801F030FFC7
:100700000346FB710FF056F810F0C6FB002001F015
:10071000C9FC154A022100200EF088FC124A002173
:1007200000200EF083FC104A012100200EF07EFC18
:100730000D4A032100200EF079FC0B4A0421002011
:100740000EF074FC084A052100200EF06FFCFB79C6
:1007500018460837BD4680BD0C08002400580040EC
:10076000001002580034014010FD020880B500AFAF
:10077000044A022100200EF059FC00F00BF900BFE2
:1007800080BD00BF24FD0208B0B588B004AF0123CE
:10079000FB73204B02221A701F4A002100200EF02A
:1007A00045FC1DF04FF91CF049FF1DF025FA10F033
:1007B0003DFC0346FB7310F039FC0346002B1DD1B2
:1007C000164A022100200EF023FB3B1D184610F0B4
:1007D000A7FBBB7903F5FA63BB813B791C467B79A8
:1007E0001D46BB89FA79397A787A02900191009294
:1007F0002A4621461A201DF031F905E0054AFB7B07
:100800009370044B07221A70FB7B18461037BD46C5
:10081000B0BD00BF0C08002438FD020850FD0208DE
:1008200080B582B000AF204B03221A700123FB7108
:100830001E4A002100200EF0F9FB05F0CFFD034613
:10084000FB71FB79002B0BD0194A042101200EF01B
:10085000DFFA154AFB799370134B07221A7004E0F4
:10086000144A022100200EF0D3FA07F0F1FE0346ED
:10087000FB71FB79002B0BD00F4A042101200EF0F5
:10088000C7FA094AFB799370074B07221A7004E0F4
:100890000A4A022100200EF0BBFA0EF065FDFB793A
:1008A00018460837BD4680BD0C08002460FD0208CC
:1008B00078FD020894FD0208B0FD0208C4FD02089C
:1008C00080B582B000AF214B04221A700123FB7166
:1008D0001F4A002100200EF0A9FB0FF065FE034621
:1008E000FB71FB79002B0BD01A4A042101200EF07A
:1008F0008FFA164AFB799370144B07221A7004E0A2
:10090000154A022100200EF083FA102213491448E0
:100910000FF01AFB0346FB71FB79002B0BD0114A39
:10092000042101200EF074FA084AFB799370074BFA
:1009300007221A7004E00C4A022100200EF068FA27
:10094000FB7918460837BD4680BD00BF0C0800245F
:10095000DCFD0208F4FD02080CFE0208000002584B
:100960000014005824FE02083CFE020880B500AFC7
:10097000064B05221A70054B06221A70044A002104
:1009800000200EF053FB0023184680BD0C08002405
:1009900054FE020880B500AF00F07CF900BF80BDB6
:1009A00080B5C2B000AF07F58473A3F582731860F9
:1009B00007F58473A3F58473196007F58473A3F5B1
:1009C000847307F108001B68084A4FF480712DF00A
:1009D0006DFC07F108030122194605200EF0CAFB41
:1009E00000BF07F58477BD4680BD00BF6CFE0208DE
:1009F00080B5C0B000AF3B46084A4FF4807118463E
:100A00002DF054FC3B460122194605200EF0B2FBA6
:100A100000BF07F58077BD4680BD00BF88FE020895
:100A200080B500AF032000F003F800BF80BD0000D8
:100A300080B483B000AF0346FB71FB79032B0BD866
:100A400001A252F823F000BF590A0008590A000811
:100A5000590A0008590A000800BF00BF0C37BD46FC
:100A60005DF8047B704700BF80B400AF03231846D5
:100A7000BD465DF8047B704780B483B000AF034689
:100A8000FB71064AFB791370054B00221A7000BFF8
:100A90000C37BD465DF8047B704700BF0F0800248B
:100AA0001008002480B400AF034B1B781846BD46E5
:100AB0005DF8047B704700BF0F08002480B483B04A
:100AC00000AF0346FB71FB795C2B06D10E4B1B7804
:100AD0000133DAB20C4B1A7002E00B4B00221A7091
:100AE000094B1B78092B07D9084B00221A70064BBB
:100AF00000221A70012300E0002318460C37BD467F
:100B00005DF8047B704700BF100800240F08002424
:100B100080B483B000AF78607B68DB6903F040038A
:100B2000402B01D1012300E0002318460C37BD46BD
:100B30005DF8047B704780B483B000AF78607B6859
:100B4000DB6903F08003802B01D1012300E0002347
:100B500018460C37BD465DF8047B704780B483B0FF
:100B600000AF78600B46FB70FA787B689A6200BF32
:100B70000C37BD465DF8047B704780B483B000AF8E
:100B8000786039607B681A693B6813403A689A421A
:100B900001D1012300E0002318460C37BD465DF863
:100BA000047B704780B483B000AF786039607B68A5
:100BB0003A689A6100BF0C37BD465DF8047B704708
:100BC00080B483B000AF786039603B681A047B68FA
:100BD0009A6100BF0C37BD465DF8047B704700008A
:100BE00080B584B000AF0346FB71FB79FB73FB7BE0
:100BF0001946034801F06AFE00BF1037BD4680BDAC
:100C00000010014080B584B000AF78600023FB6025
:100C100014E00E4AFB6852F8333079681846FFF743
:100C20005FFB0346002B06D1084AFB68DB00134438
:100C300001221A7106E0FB680133FB60FB68022B9E
:100C4000E7DD00BF00BF1037BD4680BDA80400240B
:100C500080B582B000AF78600B4A022100200EF010
:100C6000E5F900F043F80346002B07D0074A0421BA
:100C700001200EF0CDF8064B02225A70002019F028
:100C8000E1FF00BFFDE700BFB0FE0208C4FE02089E
:100C90001408002480B586B004AF0F4B02930F4BAD
:100CA00001930523009300234FF4A0620C490D48E3
:100CB00019F015FE78607B68002B06D10A4A0521E1
:100CC00001200EF0A5F800BFFDE71AF0E9F900BF1A
:100CD0000837BD4680BD00BF84300024841C00243A
:100CE000ECFE0208510C0008FCFE0208F0B5CFB083
:100CF00006AF012387F81731FFF746FD034687F853
:100D0000173197F81731002B05D0CC4A0521012067
:100D10000EF07EF804E0CA4A002100200EF078F8B8
:100D2000FFF77EFD034687F8173197F81731002B40
:100D300005D0C44A052101200EF06AF804E0C24A39
:100D4000002100200EF064F8FFF7BAFD034687F893
:100D5000173197F81731002B05D0BC4A0521012027
:100D60000EF056F804E0BA4A002100200EF050F8C8
:100D7000FFF7FCFD034687F8173197F81731002B72
:100D800005D0B44A052101200EF042F804E0B24A31
:100D9000002100200EF03CF807F0B6FB08F08EF8BA
:100DA00097F81731002B05D0AC4A052101200EF031
:100DB0002FF804E0AA4A002100200EF029F807F5D8
:100DC0009073A3F5887318464FF480731A46002178
:100DD0002DF09CFB0023C7F8103107F108031846DB
:100DE00010F09EF8D7F8103107F11002D018D7F89C
:100DF0001031C3F5807107F59073A3F58C739B7860
:100E00009C4607F59073A3F58C735B781A4607F53B
:100E10009073A3F58C731B781C4607F59073A3F5AC
:100E20008C73DB781D4607F59073A3F58C731B79E3
:100E30001E4607F59073A3F58C735B7904930396B4
:100E40000295019400926346864A2DF02FFA0246DD
:100E5000D7F810311344C7F8103107F59073A3F297
:100E6000191300221A7007F59073A3F58D730022F1
:100E70001A7007F59073A3F21B1300221A707B1DE2
:100E8000BA1DF91D002010F0A5F8D7F8103107F1B0
:100E90001002D018D7F81031C3F5807107F59073A0
:100EA000A3F219131B781C4607F59073A3F58D73F5
:100EB0001B781A4607F59073A3F21B131B78019356
:100EC00000922346684A2DF0F1F90246D7F8103116
:100ED0001344C7F81031D7F8103107F11002D018B9
:100EE000D7F81031C3F58073604A19462DF0DEF94A
:100EF0000246D7F810311344C7F810310023C7F861
:100F00001C3117E000BF5A48FFF715FE0346002BBF
:100F1000F9D007F59073A3F58872D7F81C31134404
:100F20001B7819465248FFF719FED7F81C310133D8
:100F3000C7F81C3107F59073A3F58872D7F81C31F8
:100F400013441B78002BDDD100BF4948FFF7E0FDBB
:100F50000346002BF9D00023C7F8183117E000BF73
:100F60004448FFF7E8FD0346002BF9D007F59073DE
:100F7000A3F58872D7F8183113441B7819463D48F9
:100F8000FFF7ECFDD7F818310133C7F8183107F532
:100F90009073A3F58872D7F8183113441B78002B8F
:100FA000DDD100BF3348FFF7B3FD0346002BF9D076
:100FB0000AF0B6FA304820F0A3FC00230193012385
:100FC000009300234FF420622C492D4819F0EBFCCC
:100FD0000346012B01D0012361E10023019301238A
:100FE000009300234FF420622649274819F0DBFCC8
:100FF0000346012B01D0012351E10023019301237A
:10100000009300234FF4A0622049214819F0CBFC43
:101010000346012B01D0012341E100230193012369
:10102000009300234FF420721A491B4819F0BBFCAF
:101030000346012B32D0012331E100BF18FF020823
:1010400038FF02084CFF02086CFF02087CFF020810
:101050009CFF0208ACFF0208C8FF0208DCFF020880
:10106000F0FF0208FCFF02082C00030848000308F8
:101070000010014000440040740800247C00030874
:101080009D16000888000308511600089800030800
:1010900085F30008A000030835130008824801F01A
:1010A00035FA034600220192012200924FF4206299
:1010B0007E497F4819F077FC0346012B01D00123BC
:1010C000EDE07C4801F022FA034600220192012261
:1010D00000924FF420627849784819F064FC034686
:1010E000012B01D00123DAE00023019301230093B7
:1010F00000234FF4A0627249724819F054FC034671
:10110000012B01D00123CAE00023019301230093A6
:10111000002380226C496D4819F045FC0346012BE1
:1011200001D00123BBE0002301930123009300239E
:1011300080226749674819F036FC0346012B01D02D
:101140000123ACE0002301930123009300234FF41B
:1011500020626149614819F026FC0346012B01D049
:1011600001239CE0002301930123009300234FF40B
:1011700020625B495B4819F016FC0346012B01D045
:1011800001238CE0002301930123009300234FF4FB
:1011900020625549554819F006FC0346012B01D041
:1011A00001237CE0002301930123009300234FF4EB
:1011B00020724F494F4819F0F6FB0346012B01D02E
:1011C00001236CE04C4801F0A1F903460022019292
:1011D000012200924FF420624849494819F0E3FB8C
:1011E0000346012B01D0012359E000230193012381
:1011F000009300234FF480724249434819F0D3FB17
:101200000346012B01D0012349E000230193012370
:10121000009300234FF480723C493D4819F0C3FB12
:101220000346012B01D0012339E000230193012360
:10123000009300234FF4A0623649374819F0B3FBFE
:101240000346012B01D0012329E000230193012350
:10125000009300234FF480723049314819F0A3FB0A
:101260000346012B01D0012319E000230193012340
:10127000009300234FF420722A492B4819F093FB66
:101280000346012B01D0012309E0012019F006FEDD
:101290002649274801F0E8FD06F0FAFE002318462B
:1012A00007F59277BD46F0BD00440040AC0003084E
:1012B000C515000800780040B8000308E9140008CC
:1012C000C000030881130008CC000308C9160008F9
:1012D000D4000308FD160008DC000308FDBE00086A
:1012E000EC000308E9C00008F800030881C2000808
:1012F0000401030831170008001001401001030821
:10130000D91300081C0103084D1700082C0103081D
:10131000D11700083C01030815C400084801030860
:101320000918000854010308B1C50008E10B0008C2
:101330001808002480B582B000AF78600FF0DCFBA5
:101340000D4B1B6801330C4A13600B4B1B68B3F544
:10135000E15F0CD9084B00221A600FF067FE0346CC
:10136000002B04D10022054902200DF003FF4FF4A9
:101370007A7019F093FDE1E7C404002464010308C6
:1013800080B584B000AF7860114802F051F8034690
:10139000FB73FB7B032B02D0FB7B042B13D10C4B89
:1013A0001B6A012B09D105F065F803460949184667
:1013B00005F00AFA064B00221A6205F05BF80346B4
:1013C000184605F070F9642019F068FDDCE700BFED
:1013D000180800247401030880B586B000AF786057
:1013E0007B687B617B695B6E4FF0FF31184618F0BC
:1013F0000FFE0346012B6DD162E0FFF753FB03465E
:10140000FB73FB7B022B15D13B69DBB219463348DA
:1014100001F05CFA3B69DBB21846FFF74FFB03466D
:10142000002B4DD005F026F803462D49184605F04F
:10143000CBF945E0FB7B042B1ED13B69DBB21846A0
:10144000FFF73CFB0346002B06D005F013F80346DC
:101450002349184605F0B8F905F00CF802463B6937
:10146000DBB21946104605F0FBF805F003F8034619
:10147000184605F018F923E01A4801F0D9FF034691
:10148000BB73BB7B032B02D0BB7B042B12D1154853
:1014900001F0D8FC04F0EEFF02463B69DBB21946CE
:1014A000104605F0DDF804F0E5FF0346184605F0A8
:1014B000FAF805E03B69DBB219460A4801F0E4FDA1
:1014C0007B691B68184601F03BFB38613B69B3F14F
:1014D000FF3F92D1012019F0E1FC83E70078004042
:1014E000780103081808002480B588B000AF786040
:1014F0007B68FB61FB695B6E0021184618F088FD74
:101500000346012B56D1FFF7CDFA0346FB76FB7E4F
:10151000012B11D105E0BB68DBB21946274801F069
:10152000D5F9FB691B68184601F00AFBB860BB6877
:10153000B3F1FF3FEFD13DE0FB7E022B11D105E07F
:10154000FB68DBB219461E4801F0C0F9FB691B6855
:10155000184601F0F5FAF860FB68B3F1FF3FEFD1F0
:1015600028E0FB7E032B11D105E03B69DBB2194675
:10157000124801F0ABF9FB691B68184601F0E0FA6C
:1015800038613B69B3F1FF3FEFD113E0FB7E042BE1
:1015900010D105E07B69DBB21946094801F096F9E4
:1015A000FB691B68184601F0CBFA78617B69B3F1DF
:1015B000FF3FEFD1012019F071FC9BE70044004090
:1015C0000010014080B586B000AF78607B687B6119
:1015D0007B695B6E4FF0FF31184618F019FD03462A
:1015E000012B2CD1FFF75EFA0346FB74FB7C012B29
:1015F00011D105E0BB68DBB21946134801F066F96A
:101600007B691B68184601F09BFAB860BB68B3F1B0
:10161000FF3FEFD113E0FB7C032B10D105E0FB680B
:10162000DBB21946094801F051F97B691B6818467D
:1016300001F086FAF860FB68B3F1FF3FEFD10120BB
:1016400019F02CFCC4E700BF0078004000440040C3
:1016500080B584B000AF78600D48FFF7D3FAFFF78C
:1016600021FA0346FB73FB7B002B0CD1094801F0E8
:1016700088FA0346002B03D0074820F06BFC02E0F9
:10168000054820F067FC012019F008FCE4E700BFE2
:10169000A4FE0208004400407408002480B584B011
:1016A00000AF78600748FFF7ADFAFFF7FBF9034694
:1016B000FB73FB7B002B01D107F032FC012019F0FA
:1016C000EDFBEFE7A0FE020880B582B000AF7860C6
:1016D0004FF480710848FFF773FA4FF47A7019F0ED
:1016E000DDFB4FF480710448FFF75CFA4FF47A7029
:1016F00019F0D4FB00BFEBE7000C025880B582B0B4
:1017000000AF78604FF400710848FFF74BFA4FF4D0
:101710007A7019F0C3FB4FF400710448FFF750FAD8
:101720004FF47A7019F0BAFB00BFEBE7000C0258D7
:1017300080B582B000AF78600348FFF763FA642099
:1017400019F0ACFB00BFF7E7ACFE020880B586B02D
:1017500000AF786001237B6100233B6110E0194AF0
:101760003B69DB0013441B79002B06D100237B610E
:101770000022154903200DF0FDFC3B6901333B615C
:101780003B69022BEBDD7B69002B03D00F4B012261
:101790001A7002E00D4B00221A700023FB6008E073
:1017A000084AFB68DB00134400221A71FB6801330E
:1017B000FB60FB68022BF3DD4FF4FA7019F06EFB4F
:1017C000C8E700BFA8040024C4010308C004002423
:1017D00080B582B000AF78600A4B1B78DBB2002B7B
:1017E00001D00DF0F7FF0EF011F80346012B03D1E5
:1017F000C82019F053FBEFE74FF4167019F04EFBB9
:10180000EAE700BFC004002480B588B000AF78606C
:101810004FF480612B48FFF7B0F90346002B0CBF53
:1018200001230023DBB2FB7719F09AFDB861002396
:10183000FB750AF057FB0346002B05D10023FB750F
:10184000642019F02BFB3BE04FF480611D48FFF74B
:1018500094F90346002B0CBF01230023DBB2BB75B8
:1018600019F07EFD3861BA7DFB7F9A4204D0BB7DC2
:10187000FB773B69BB6120E03A69BB69D31AFB6027
:10188000BB7D002B0DD0FB68632B0AD9FB7D002BA1
:1018900007D107F06DFB0120FFF7EEF80123FB7580
:1018A0000BE0BB7D002B08D1FB68632B05D9002022
:1018B000FFF7E2F800200AF0FBFA0A2019F0EEFA2E
:1018C000B7E700BF0010025880B483B000AF786063
:1018D0007B689B6903F00103012B01D1012300E028
:1018E000002318460C37BD465DF8047B704780B472
:1018F00083B000AF78607B689B6903F00203022B22
:1019000001D1012300E0002318460C37BD465DF8E5
:10191000047B704780B483B000AF78607B689B69BC
:1019200003F00403042B01D1012300E00023184637
:101930000C37BD465DF8047B704780B483B000AFC0
:1019400078607B689B6903F01003102B01D10123A1
:1019500000E0002318460C37BD465DF8047B704755
:1019600080B483B000AF78607B689B6903F4004368
:10197000B3F5004F01D1012300E0002318460C37D6
:10198000BD465DF8047B704780B483B000AF7860DB
:1019900039607B685B6823F400423B681A437B68CC
:1019A0005A6000BF0C37BD465DF8047B70470000ED
:1019B00080B487B000AFF860B9607A603B60BB6804
:1019C000C3F309027B6803F400631A433B681B04FA
:1019D00003F47F031A433B6A1A437B6A134323F0E1
:1019E00000437B61FB685A687B6A5B0D03F480618E
:1019F000064B0B43DB431A407B691A43FB685A6072
:101A000000BF1C37BD465DF8047B7047FF7BFF03BA
:101A100080B483B000AF78607B685B6ADBB2184645
:101A20000C37BD465DF8047B704780B483B000AFCF
:101A300078600B46FB70FA787B689A6200BF0C37BF
:101A4000BD465DF8047B704780B588B002AFF86092
:101A50007B600B46FB721346BB720FF05BFC386178
:101A60000DE00FF057FC02463B69D31A0A2B06D94A
:101A7000FB681B68184621F0EFF9022396E0FB682B
:101A80001B681846FFF76CFF0346002BE9D1FB6883
:101A90001868FB7A590097F8203001331A46454BF5
:101AA00001934FF00073009313460022FFF780FF6D
:101AB0000FF030FC386117E0FB681B681846FFF731
:101AC0003CFF0346002B01D001236FE00FF022FC06
:101AD00002463B69D31A0A2B06D9FB681B681846D5
:101AE00021F0BAF9032361E0FB681B681846FFF791
:101AF000FEFE0346002BDFD0FB681B68BA7A114656
:101B00001846FFF792FF0023FB752FE00FF002FC51
:101B1000386117E0FB681B681846FFF70EFF0346A5
:101B2000002B01D0012341E00FF0F4FB02463B699A
:101B3000D31A0A2B06D9FB681B68184621F08CF9CA
:101B4000032333E0FB681B681846FFF7D0FE03460B
:101B5000002BDFD0FB681868FB7D7A6813441B7884
:101B60001946FFF762FFFB7D0133FB75FA7D97F89D
:101B700020309A42CAD30FF0CDFB38610DE00FF050
:101B8000C9FB02463B69D31A0A2B06D9FB681B68BE
:101B9000184621F061F9032308E0FB681B6818462A
:101BA000FFF792FE0346002BE9D0002318461837B2
:101BB000BD4680BD0020008090B589B002AFF860BE
:101BC0007B600B46FB721346BB720FF0A3FB3861C0
:101BD0000DE00FF09FFB02463B69D31A0A2B06D992
:101BE000FB681B68184621F037F90223B8E0FB6850
:101BF0001B681846FFF7B4FE0346002BE9D1FB68CB
:101C00001868FB7A5900584B019300230093012375
:101C10000022FFF7CDFE0FF07DFB386117E0FB6877
:101C20001B681846FFF789FE0346002B01D00123ED
:101C300096E00FF06FFB02463B69D31A0A2B06D9D8
:101C4000FB681B68184621F007F9032388E0FB684E
:101C50001B681846FFF74BFE0346002BDFD0FB68DE
:101C60001B68BA7A11461846FFF7DFFE0FF052FBE9
:101C7000386117E0FB681B681846FFF75EFE0346F5
:101C8000002B01D001236BE00FF044FB02463B69BF
:101C9000D31A0A2B06D9FB681B68184621F0DCF81A
:101CA00003235DE0FB681B681846FFF70DFE034643
:101CB000002BDFD0FB681B6800211846FFF764FE8D
:101CC000FB681868FB7A5900FB7A5B0043F001035C
:101CD0001C4697F82830254A01924FF00072009276
:101CE0002246FFF765FE0FF015FB38610023FB75F8
:101CF00030E00FF00FFB386117E0FB681B681846F7
:101D0000FFF71BFE0346002B01D0012328E00FF054
:101D100001FB02463B69D31A0A2B06D9FB681B68F4
:101D2000184621F099F803231AE0FB681B6818464F
:101D3000FFF7F0FD0346002BDFD0FB681968FB7D41
:101D40007A68D4180846FFF763FE03462370FB7DCC
:101D50000133FB75FA7D97F828309A42C9D30023E6
:101D600018461C37BD4690BD00200080002400802E
:101D700080B584B000AF78600023FB60786800F025
:101D800095F8786800F00BF80346002B02D06FF04E
:101D90000303FB60FB6818461037BD4680BD80B565
:101DA00084B000AF78600023FB73786824F032FCC5
:101DB0000346002B01D00123FB73FB7B1846103731
:101DC000BD4680BD80B586B000AFF860B9607A606E
:101DD0003B603B687A68B968F86824F017FD0346F1
:101DE000002B03D06FF003037B6101E000237B61D4
:101DF0007B6918461837BD4680BD80B586B000AFF8
:101E0000F860B9607A603B603B687A68B968F868E6
:101E100024F0C0FD0346002B03D06FF003037B6169
:101E200001E000237B617B6918461837BD4680BD01
:101E300080B582B000AF7860786825F0BFFB0346BC
:101E4000042B14BF01230023DBB218460837BD461C
:101E500080BD80B584B000AF78603960396878683B
:101E600025F0BCF90346002B03D06FF00303FB60A1
:101E700001E00023FB60FB6818461037BD4680BDBB
:101E800080B582B000AF7860786817F0A9F900BF1C
:101E90000837BD4680BD80B582B000AF78607868F5
:101EA00017F0C8F900BF0837BD4680BD80B582B0C5
:101EB00000AF7860786822F093FD00BF0837BD4618
:101EC00080BD80B483B000AF78607B681B6803F08E
:101ED0000103012B01D1012300E0002318460C3738
:101EE000BD465DF8047B704780B483B000AF786076
:101EF0007B685B6903F00103012B01D1012300E042
:101F0000002318460C37BD465DF8047B704780B44B
:101F100083B000AF78607B685B6903F48053B3F5EE
:101F2000805F01D1012300E0002318460C37BD4635
:101F30005DF8047B704780B483B000AF78607B6845
:101F400030331B78DBB218460C37BD465DF8047B96
:101F5000704780B483B000AF78600B46FB707B683D
:101F60002033FA781A7000BF0C37BD465DF8047B49
:101F7000704780B586B000AFF8600B467A60FB72A0
:101F8000F868FFF79EFF0346002B01D1012335E0DF
:101F90000FF0C0F97861FB7A1946F868FFF7D9FFAE
:101FA00008E00FF0B7F902467B69D31A0A2B01D972
:101FB000032323E0F868FFF7AAFF0346002BF0D0C5
:101FC0000FF0A8F9786108E00FF0A4F902467B69E8
:101FD000D31A0A2B01D9032310E0F868FFF784FF16
:101FE0000346002BF0D07B68002B06D0F868FFF783
:101FF000A2FF03461A467B681A700023184618375A
:10200000BD4680BD80B584B000AF78600B46FB70E4
:102010007868FFF756FF0346002B01D101231BE030
:102020000FF078F9F860FB7819467868FFF791FFB0
:1020300008E00FF06FF90246FB68D31A0A2B01D9AA
:10204000032309E07868FFF762FF0346002BF0D016
:102050007868FFF770FF002318461037BD4680BD33
:1020600080B582B000AF0346FB71FB79002B10D125
:10207000FB79002B06D14FF48062002107482CF039
:1020800045FA07E04FF48062002105482CF03EFA43
:1020900000E000BF0837BD4680BD00BF00F8003833
:1020A00000FC003880B582B000AF0346FB71FB79BD
:1020B000002B04D1FB791846FFF7D2FF00E000BFE8
:1020C0000837BD4680BD80B483B000AF78607B68C0
:1020D0001B6843F001027B681A6000BF0C37BD46E5
:1020E0005DF8047B704780B483B000AF78607B6894
:1020F0001B6823F001027B681A6000BF0C37BD46E5
:102100005DF8047B704780B483B000AF78607B6873
:10211000DB6903F04003402B01D1012300E00023E1
:1021200018460C37BD465DF8047B704780B483B019
:1021300000AF78607B68DB6903F08003802B01D1FE
:10214000012300E0002318460C37BD465DF8047BF0
:10215000704780B489B000AF78607B68FB60FB6833
:1021600053E8003FBB60BB6843F01003FB617B6832
:10217000FA69BA617B617969BA6941E800233B6118
:102180003B69002BE9D100BF00BF2437BD465DF895
:10219000047B704780B489B000AF78607B68FB60D7
:1021A000FB6853E8003FBB60BB6843F08003FB6102
:1021B0007B68FA69BA617B617969BA6941E8002391
:1021C0003B613B69002BE9D100BF00BF2437BD460E
:1021D0005DF8047B704780B489B000AF78607B689D
:1021E000FB60FB6853E8003FBB60BB6823F08003E3
:1021F000FB617B68FA69BA617B617969BA6941E818
:1022000000233B613B69002BE9D100BF00BF2437AD
:10221000BD465DF8047B704780B483B000AF786042
:102220007B681B6803F08003802B01D1012300E051
:10223000002318460C37BD465DF8047B704780B418
:1022400089B000AF78607B680833FB60FB6853E8B7
:10225000003FBB60BB6843F04003FB617B68083311
:10226000FA69BA617B617969BA6941E800233B6127
:102270003B69002BE7D100BF00BF2437BD465DF8A6
:10228000047B704780B485B000AF786039603B68EC
:10229000002B03D17B682833FB6002E07B6824338A
:1022A000FB60FB6818461437BD465DF8047B704739
:1022B00080B483B000AF78600B46FB70FA787B681F
:1022C0009A6200BF0C37BD465DF8047B7047000082
:1022D00080B485B000AF786039607B68FB600C4AE1
:1022E0003B6813441B781A46FB6813441B68084973
:1022F0003A680A4412781146FA680A4443F0010326
:10230000136000BF1437BD465DF8047B704700BF03
:102310004891030880B485B000AF786039607B686D
:10232000FB600C4A3B6813441B781A46FB68134455
:102330001B6808493A680A4412781146FA680A4448
:1023400023F00103136000BF1437BD465DF8047B22
:10235000704700BF4891030880B487B000AFF860B1
:10236000B9607A60FB687B610D4ABB6813441B78D7
:102370001A467B6913445A680A4B13400849BA68E5
:102380000A44127811467A690A4411467A6813435E
:102390004B6000BF1C37BD465DF8047B704700BF33
:1023A000489103080000FFFF80B485B000AF78605B
:1023B00039607B68FB60074A3B6813441B781A4608
:1023C000FB6813445B689BB218461437BD465DF842
:1023D000047B70474891030880B487B000AFF86071
:1023E000B9607A60FB687B61074ABB6813441B785D
:1023F0001A467B6913441A467B68D36000BF1C37BA
:10240000BD465DF8047B70474891030880B487B0EF
:1024100000AFF860B9607A60FB687B61074ABB680F
:1024200013441B781A467B6913441A467B689360F1
:1024300000BF1C37BD465DF8047B70474891030818
:1024400080B485B000AF786039607B68FB600C4A6F
:102450003B6813441B781A46FB6813441B68084901
:102460003A680A4412781146FA680A4443F00803AD
:10247000136000BF1437BD465DF8047B704700BF92
:102480004891030880B485B000AF786039607B68FC
:10249000FB600C4A3B6813441B781A46FB681344E4
:1024A0001B6808493A680A4412781146FA680A44D7
:1024B00043F00403136000BF1437BD465DF8047B8E
:1024C000704700BF4891030880B485B000AF7860C2
:1024D00039607B68FB600C4A3B6813441B781A46E2
:1024E000FB6813441B6808493A680A44127811468D
:1024F000FA680A4443F01003136000BF1437BD4666
:102500005DF8047B704700BF4891030880B485B034
:1025100000AF78600023FB6015E01049FA681346AD
:102520005B019B1A9B000B441B687A689A4207D197
:10253000FA6813465B019B1A9B00084A134406E0A5
:10254000FB680133FB60FB68022BE6DD00231846C5
:102550001437BD465DF8047B704700BFC8040024F3
:10256000B0B584B002AF00237B6022E0B5497A6841
:1025700013465B019B1A9B000B441B681846FFF730
:10258000B2FDB0497A6813465B019B1A9B000B446D
:1025900068331868AB497A6813465B019B1A9B0045
:1025A0000B446C331B681946FFF7B4FE7B6801339C
:1025B0007B607B68022BD9DD4FF400630093A24B54
:1025C000A24A0121A2480EF04CFD4FF40063009393
:1025D000A04BA14A0221A1480EF043FD0322002195
:1025E000012017F0C6F90346964A5366954B9C6E38
:1025F000944BDD6E01219A48FFF744FE03461A46CC
:1026000029462046FFF702FF8E4B9B6E8D4AD16E06
:102610008C4AB2F874201846FFF79EFE894B9B6ED9
:10262000884AD16E874A126F1846FFF7D5FE854B50
:102630009B6E844AD26E11461846FFF745FF814BC8
:102640009B6E804AD26E11461846FFF7F9FE7D4B0D
:102650009B6E7C4AD26E11461846FFF713FF8048E6
:10266000FFF7EDFD774B9B6E764AD26E114618460A
:10267000FFF72EFE7A48FFF76CFD4FF4805300936E
:10268000784B794A052179480EF0EBFC4FF48053E2
:102690000093774B774A062177480EF0E2FC03223D
:1026A0000021012017F065F90346664AC2F8E030C0
:1026B000644BD3F8E440634BD3F8E85001216F48F2
:1026C000FFF7E0FD03461A4629462046FFF79EFE27
:1026D0005C4BD3F8E4305B4AD2F8E810594AB2F8C0
:1026E000F0201846FFF738FE564BD3F8E430554A31
:1026F000D2F8E810534AD2F8EC201846FFF76CFEE7
:10270000504BD3F8E4304F4AD2F8E820114618462F
:10271000FFF7DAFE4B4BD3F8E4304A4AD2F8E82010
:1027200011461846FFF78CFE464BD3F8E430454A75
:10273000D2F8E82011461846FFF7A4FE4F48FFF7ED
:102740007EFD404BD3F8E4303E4AD2F8E8201146F3
:102750001846FFF7BDFD4948FFF7FBFC4FF4406307
:102760000093474B474A0B2147480EF07AFC4FF441
:1027700040630093454B464A0C2146480EF071FCDD
:1027800003220021012017F0F4F803462D4AC2F875
:102790005C312C4BD3F860412A4BD3F864510121B2
:1027A0003D48FFF76FFD03461A4629462046FFF7CE
:1027B0002DFE244BD3F86031224AD2F86411214A0D
:1027C000B2F86C211846FFF7C7FD1E4BD3F86031F5
:1027D0001C4AD2F864111B4AD2F868211846FFF748
:1027E000FBFD184BD3F86031164AD2F8642111462C
:1027F0001846FFF769FE134BD3F86031114AD2F83F
:10280000642111461846FFF71BFE0E4BD3F86031CA
:102810000C4AD2F8642111461846FFF733FE1E48D1
:10282000FFF70DFD074BD3F86031064AD2F864215B
:1028300011461846FFF74CFD1748FFF78AFC0023A6
:102840003B6039E0C8040024E0380024D8010308C4
:10285000CC040024E0400024E4010308FC0400242C
:1028600000100140E0580024F0010308480500244E
:10287000E0680024FC0103087805002400440040BF
:10288000E084002408020308C4050024E09000242A
:1028900014020308F4050024007800400A493A684D
:1028A00013465B019B1A9B000B441B681846FFF7FD
:1028B0000AFC3B6801333B603B68022BEEDD0023E2
:1028C00018460837BD46B0BDC804002480B584B0A2
:1028D00000AF78600B46FB707868FFF717FEB860B2
:1028E000BB68002B1FD0134BFB6005E0FB68013B6E
:1028F000FB60FB68002B18D0BB683433FA781146B4
:1029000018460EF0E1FB034683F00103DBB2002B17
:10291000ECD17868FFF780FC0346002B06D178687D
:10292000FFF738FC02E000BF00E000BF1037BD46F3
:1029300080BD00BF20A1070080B584B000AF7860E3
:1029400039607868FFF7E2FDF860FB68002B11D072
:102950003B68002B0ED008E03B681B78194678686E
:10296000FFF7B4FF3B6801333B603B681B78002BEB
:10297000F2D100E000BF1037BD4680BD80B584B005
:1029800000AF78607868FFF7C1FDF860FB68002B46
:1029900042D0FB681B68DB6903F00203002B03D005
:1029A000FB681B6802221A62FB681B68DB6903F084
:1029B0000403002B03D0FB681B6804221A62FB6827
:1029C0001B68DB6903F40033002B04D0FB681B6831
:1029D0004FF400321A627868FFF7A8FB0346002B19
:1029E0001BD07868FFF718FC0346002B15D0FB6856
:1029F000343307F10B02114618460EF0ABFB0346C9
:102A0000002B05D0FB7A19467868FFF751FC04E0EB
:102A10007868FFF7E0FB00E000BF1037BD4680BDDF
:102A200080B58AB000AF78600023BB607868FFF79C
:102A30006DFDB861BB69002B7CD0BB699B6F7B616E
:102A4000BB699A6EBB69DB6E19461046FFF7ACFC9A
:102A500003467B82BB69B3F874301A467B8AD31A6B
:102A6000FB60FA687B699A4265D0FA687B699A4292
:102A700014D97B697B620CE0BB69181DBB691A6FB6
:102A80007B6A13441B7819460EF01EFB7B6A0133E8
:102A90007B627A6AFB689A42EED32AE07B693B62EA
:102AA0000CE0BB69181DBB691A6F3B6A13441B78A5
:102AB00019460EF009FB3B6A01333B62BB69B3F870
:102AC00074301A463B6A9342EBD30023FB610CE05F
:102AD000BB69181DBB691A6FFB6913441B78194643
:102AE0000EF0F2FAFB690133FB61FA69FB689A4266
:102AF000EED3BB695B6E07F108021146184617F06A
:102B0000EDF8BB68002B07D00C4B4FF080521A60D9
:102B1000BFF34F8FBFF36F8FBB69FA689A67BB69CA
:102B20009B6FBA69B2F87420934204D1BB6900224A
:102B30009A6700E000BF2837BD4680BD04ED00E085
:102B400080B584B000AF78607868FFF7DFFCF8608C
:102B5000FB68002B02D14FF0FF330EE0FB6804331B
:102B600007F10B02114618460EF0F4FA0346002B4B
:102B700001D0FB7A01E04FF0FF3318461037BD4615
:102B800080BD80B584B000AF78607868FFF7BEFC88
:102B9000F860FB68002B01D1002305E0FB680433DB
:102BA00018460EF054FB034618461037BD4680BD4C
:102BB00080B584B000AF78607868FFF7A7FCF86054
:102BC000FB68002B01D1002306E0FB683433184674
:102BD0000EF001FB034600BF18461037BD4680BD0E
:102BE00080B582B000AF78600B46FB7000BF78689C
:102BF000FFF79CFA0346002BF9D0FB78194678685A
:102C0000FFF756FB00BF7868FFF77DFA0346002BFD
:102C1000F9D000BF00BF0837BD4680BD80B582B087
:102C200000AF786039603B68002B0ED008E03B684D
:102C30001B7819467868FFF7D3FF3B6801333B6088
:102C40003B681B78002BF2D100E000BF0837BD467F
:102C500080BD000080B400AF034B1B881846BD4602
:102C60005DF8047B704700BFE09C002480B485B011
:102C700000AF78600D4BFB600CE07B685A1C7A60FB
:102C80001B781A46FB685340FB60FB68084A02FB4E
:102C900003F3FB607B681B78002BEED1FB681846C2
:102CA0001437BD465DF8047B704700BFC59D1C818D
:102CB0009301000180B485B000AF786039607A6814
:102CC0003B685340FB60FB681B0CFA681343FB60D6
:102CD000FB681B0AFA681343FB60FB68DBB2002B3E
:102CE0000CBF01230023DBB218461437BD465DF844
:102CF000047B704780B584B000AF78607868FFF7D8
:102D0000B5FFF860054BBB60B968F868FFF7D2FF04
:102D1000034618461037BD4680BD00BFA37B47C59C
:102D200080B584B000AF78600CF09AFDF8600023A5
:102D3000FB7207F10B0201230021F8680CF087FEFB
:102D40000346002B02D1FB7A102B07D9154978686E
:102D500000F020F9144B01221A6020E0FB7A002BCE
:102D600016D0FB7A114A0121F8680CF070FE034678
:102D7000002B05D1FB7A1A460C4B002199540EE02A
:102D80000849786800F006F9074B01221A6006E04E
:102D90000449786800F0FEF8034B01221A601037EE
:102DA000BD4680BD20020308F89C0024E49C00245A
:102DB00080B584B000AF78600E4B1B68012B0BD13F
:102DC0007868FFF753FFF8600B4BBB60B968F86891
:102DD000FFF770FF034609E008497868FDF780FABD
:102DE0000346002B01D1012300E0002318461037D1
:102DF000BD4680BDF89C0024A37B47C5E49C00240D
:102E000080B582B000AF78607B6893F82830042BDF
:102E100010D17B685B6D5A1C7B685A657B685B6D63
:102E2000064A934206D3786800F068F80449786847
:102E300000F0B0F800BF0837BD4680BDE093040045
:102E40005C02030880B483B000AF78607B6893F8BD
:102E50002830042B02D17B6800225A6500BF0C3752
:102E6000BD465DF8047B704780B582B000AF7860E6
:102E700039607B683A689A657B6800221A627B68D1
:102E800000225A627B68002283F828207B68002297
:102E9000DA627B6800221A657B6800225A657B68CB
:102EA0002022002118462BF031FB7B683033202292
:102EB000002118462BF02AFB0B49786800F06AF8CD
:102EC0000A49786800F066F80949786800F062F805
:102ED0000849786800F05EF80749786800F05AF809
:102EE00000BF0837BD4680BD880203089002030872
:102EF00098020308AC020308B402030880B582B04C
:102F000000AF78607B6801221A627B6800225A62F7
:102F10007B68002283F828207B680022DA627B68C5
:102F200000221A657B6800225A657B6820220021F6
:102F300018462BF0EBFA7B6830332022002118462C
:102F40002BF0E4FA0D49786800F024F80C49786811
:102F500000F020F80B49786800F01CF80A497868FE
:102F600000F018F80949786800F014F80849786802
:102F700000F010F800BF0837BD4680BD8802030886
:102F80009002030898020308AC020308B402030885
:102F9000B802030880B582B000AF7860396007E0FE
:102FA0007B689A6D3B68591C39601B7818469047BE
:102FB0003B681B78002BF3D100BF00BF0837BD462C
:102FC00080BD000080B582B000AF78607B6893F868
:102FD0002830002B37D17B6824491846FDF780F94B
:102FE0000346002B0BD17B68012283F828207B68E5
:102FF0000022DA621E497868FFF7CCFF31E07B6877
:103000001C491846FDF76CF90346002B0ED1786871
:10301000FFF786FE7B68022283F828207B68002267
:10302000DA6213497868FFF7B5FF1AE01249786849
:10303000FFF7B0FF11497868FFF7ACFF10497868D7
:10304000FFF7A8FF0DE07B6893F82830032B04D02E
:103050007B6893F82830042B03D10A497868FFF77E
:1030600099FF00BF0837BD4680BD00BFD0020308EE
:10307000D8020308E4020308EC020308B4020308C0
:10308000B802030818030308F0B59DB006AF7860D6
:103090000B46FB707B6893F82830012B05D07B68CA
:1030A00093F82830022B40F03A810A22FB789342B1
:1030B00004D00D22FB78934240F002817B681B6DA7
:1030C0007A681344002283F830207B6893F8283014
:1030D000012B5ED17B6830331846FFF70BFE0346A9
:1030E000012B56D17B68032283F82820A6497868F3
:1030F000FFF750FFA5497868FFF74CFFA4497868AF
:10310000FFF748FF07F1500318460DF009FF97F845
:1031100050301E4697F8513097F8522097F85310C8
:1031200097F85400044697F85500054607F1080043
:10313000049503940291019200933346954A4021ED
:103140002BF0B4F807F1080319467868FFF722FF5F
:103150008D497868FFF71EFF8F497868FFF71AFFDF
:103160008E497868FFF716FF8D497868FFF712FFE0
:103170008C497868FFF70EFF8B497868FFF70AFFE4
:1031800085497868FFF706FF7F497868FFF702FFF7
:1031900092E07B6893F82830022B5ED17B68303355
:1031A0001846FFF705FE0346012B56D17B68042223
:1031B00083F8282074497868FFF7ECFE7349786833
:1031C000FFF7E8FE79497868FFF7E4FE07F1480366
:1031D00018460DF0A5FE97F848301E4697F849307E
:1031E00097F84A2097F84B1097F84C00044697F848
:1031F0004D00054607F108000495039402910192E1
:1032000000933346634A40212BF050F807F108033E
:1032100019467868FFF7BEFE5B497868FFF7BAFE8B
:103220005D497868FFF7B6FE5C497868FFF7B2FE43
:103230005B497868FFF7AEFE5A497868FFF7AAFE47
:1032400059497868FFF7A6FE53497868FFF7A2FE50
:103250004D497868FFF79EFE2EE07B68DB6A5A1CBA
:103260007B68DA6248497868FFF794FE7B68DB6A1E
:103270000322934214DB7B68002283F828204C4908
:103280007868FFF787FE40497868FFF783FE3E497C
:103290007868FFF77FFE47497868FFF77BFE0BE011
:1032A00045497868FFF776FE37497868FFF772FE80
:1032B00042497868FFF76EFE7B6800221A65B2E02B
:1032C0007F22FB78934216D17B681B6D002B40F365
:1032D000AA807B681B6D5A1E7B681A657B689B6D94
:1032E000082098477B689B6D202098477B689B6DE2
:1032F0000820984797E07B681B6D1E2B00F3938096
:103300007B681B6D591C7A6811657A681344FA78DA
:1033100083F830207B689B6D2A20984783E07B6888
:1033200093F82830032B04D07B6893F82830042BC3
:1033300004D123497868FFF72DFE75E00A22FB7857
:10334000934203D00D22FB7893423BD17B685B6AAA
:103350007A680021D1547B685B6A002B0ADD0A4938
:103360007868FFF717FE7868FFF72CFE7B6800226D
:103370005A6259E004497868FFF70CFE0D497868F5
:10338000FFF708FE50E000BFB4020308280303085B
:1033900094030308BC030308E803030810040308AC
:1033A000380403086004030888040308B004030811
:1033B000D4040308B802030800050308D802030870
:1033C000280503087F22FB7893421AD17B685B6A49
:1033D000002B29DD7B685B6A5A1E7B685A627B681A
:1033E0005B6A7A680021D1547B689B6D08209847FE
:1033F0007B689B6D202098477B689B6D08209847D1
:1034000012E07B685B6A1E2B0EDC7B685B6A591CD2
:103410007A6851627A68F978D1547B689B6DFA7842
:103420001046984700E000BF00BF5C37BD46F0BDC6
:1034300080B483B000AF78607B6893F8283018467A
:103440000C37BD465DF8047B7047000080B400AFC8
:10345000BFF34F8F00BF064BDB6803F4E062044903
:10346000044B1343CB60BFF34F8F00BF00BFFDE79A
:1034700000ED00E00400FA0580B483B000AF78608E
:1034800039607B683A689A6100BF0C37BD465DF8C9
:10349000047B704780B483B000AF786039603B68CC
:1034A0001A047B689A6100BF0C37BD465DF8047B47
:1034B000704780B485B000AF03460A46FB801346D0
:1034C0007B7141F22103BB817B791BB21B021AB2D3
:1034D000B7F9063053401BB2FB800023FB7313E0A7
:1034E000B7F90630002B09DAB7F906305B001AB2DB
:1034F000B7F90C3053401BB2FB8002E0FB885B0045
:10350000FB80FB7B0133FB73FB7B072BE8D9FB883C
:1035100018461437BD465DF8047B704780B5A8B0E7
:1035200002AFF860B9607A600121B86803F00EFA62
:10353000C7F884000221B86803F008FAC7F88000D1
:103540000023A7F89630D7F88430002B03D0D7F8A3
:103550008030002B04D1A049F86803F035F938E138
:10356000D7F884002AF09EFCF86700220021D7F8E3
:1035700080002AF0CFFDB867BB6F002B03D0BB6F74
:10358000B3F5483F0ED907F110004FF44833934A82
:1035900064212AF08BFE07F110031946F86803F046
:1035A00013F916E1FDF760FA0346032B1BD0FDF774
:1035B0005BFA0346022B08D0FDF756FA0346012BAF
:1035C00001D1874B02E0874B00E0874B07F11000E9
:1035D000864A64212AF06AFE07F110031946F8684A
:1035E00003F0F2F8F5E00220FDF722FAFB6F032B5F
:1035F0006DD0FB6F032B00F39C80FB6F012B03D07E
:10360000FB6F022B2CD094E00023C7F890301AE017
:10361000D7F8903087F87530D7F89030744A134453
:1036200097F875201A7097F87520B7F896301146FC
:103630001846FFF73EFF0346A7F89630D7F89030BC
:103640000133C7F89030D7F89020BB6F9A42DFD390
:1036500007F11000BB6F674A64212AF027FE70E073
:103660000023C7F88C3025E0D7F88C10624BA3FB01
:1036700001239A0913465B0013445B01CA1AD3B2B3
:10368000203387F87630D7F88C30594A134497F8AE
:1036900076201A7097F87620B7F8963011461846BB
:1036A000FFF707FF0346A7F89630D7F88C300133B1
:1036B000C7F88C30D7F88C20BB6F9A42D4D307F16F
:1036C0001000BB6F4D4A64212AF0F0FD39E0002361
:1036D000C7F8883020E02AF0E9FB03465A42DBB203
:1036E000D2B258BF534287F87730D7F88830404A73
:1036F000134497F877201A7097F87720B7F8963028
:1037000011461846FFF7D5FE0346A7F89630D7F8BE
:1037100088300133C7F88830D7F88820BB6F9A42C9
:10372000D9D307F11000BB6F354A64212AF0BEFDE2
:1037300007E03449F86803F047F80320FDF778F90B
:1037400047E04FF47A7017F0A9FB0120FDF770F9FC
:1037500007F110031946F86803F036F8244A244BA1
:103760001B7807F1100000931346274A64212AF0C2
:103770009DFD07F110031946F86803F025F8BB6FAB
:10378000013B1B4A13441946BB6F013B184A1344C3
:103790001B7807F1100000930B461C4A64212AF0A5
:1037A00085FD07F110031946F86803F00DF8B7F826
:1037B000963007F11000164A64212AF077FD07F1D0
:1037C00010031946F86802F0FFFF1249F86802F08A
:1037D000FBFF9837BD4680BD241103087411030810
:1037E0009C110308A8110308B0110308B8110308BD
:1037F00000000030DC110308ABAAAAAA0C120308CF
:103800003C1203086012030890120308B412030864
:10381000D4120308EC12030880B5AAB002AFF86016
:10382000B9607A600121B86803F090F8C7F88400A5
:103830001023C7F880300023C7F89C300023A7F876
:103840009A30D7F88430002B04D17C49F86802F014
:10385000BBFFEFE000220021D7F884002AF05AFCD9
:10386000F86707F11400FB6F754A64212AF01EFD0A
:1038700007F114031946F86802F0A6FF714A07F130
:103880001400704B009313466F4A64212AF00EFD1A
:1038900007F114031946F86802F096FF0023C7F8F1
:1038A0009430ACE0674AD7F89430134407F1140021
:1038B000664A64212AF0FAFC07F114031846FCF763
:1038C00019FD024607F114031344C7F89030002392
:1038D000C7F88C3030E0D7F89420D7F88C301344F8
:1038E000584AD35C87F87B3007F11403D7F890204F
:1038F000D31AC3F1640197F87B30554AD7F890008A
:103900002AF0D4FCD7F890300333C7F89030D7F8BA
:103910009C300133C7F89C3097F87B20B7F89A3079
:1039200011461846FFF7C5FD0346A7F89A30D7F8A9
:103930008C300133C7F88C30D7F88C20D7F8803022
:103940009A4207D2D7F89420D7F88C301344FA6FF4
:103950009A42C0D8D7F890305A1CC7F8902020223D
:103960001A70D7F890305A1CC7F890207C221A7031
:103970000023C7F8883020E0D7F89420D7F88830A3
:103980001344304AD35C87F87A3097F87A301F2B8B
:1039900006D997F87A307E2B02D897F87A1000E093
:1039A0002E21D7F890305A1CC7F890200A461A707A
:1039B000D7F888300133C7F88830D7F88820D7F88F
:1039C00080309A4207D2D7F89420D7F88830134431
:1039D000FA6F9A42D0D8D7F8903000221A7007F1C7
:1039E00014031946F86802F0EFFE012017F056FAAA
:1039F000D7F89420D7F880301344C7F89430D7F81C
:103A00009420FB6F9A42FFF44DAFB7F89A3007F15C
:103A100014000093D7F89C300E4A64212AF046FC2B
:103A200007F114031946F86802F0CEFE0A49F86857
:103A300002F0CAFEA037BD4680BD00BFF0120308E9
:103A40001813030800000038401303086413030828
:103A50007013030878130308EC12030880B5A0B0B4
:103A600000AFF860B9607A600121B86802F06EFFBB
:103A7000F867FB6F002B04D13449F86802F0A4FE0C
:103A800060E03349F86FFCF72BFC0346002B42D172
:103A9000FCF7EAFF034687F87B3097F87B30032B6F
:103AA0002AD801A252F823F0B93A0008C93A00080E
:103AB000D93A0008E93A000807F11403254A6421BD
:103AC00018462AF0F3FB1FE007F11403224A642191
:103AD00018462AF0EBFB17E007F114031F4A642194
:103AE00018462AF0E3FB0FE007F114031C4A642197
:103AF00018462AF0DBFB07E007F11403194A64219A
:103B000018462AF0D3FB00BF07F114031946F868E2
:103B100002F05AFE12E01449F86FFCF7E1FB03468D
:103B2000002B07D10320FCF783FF1049F86802F04F
:103B30004BFE03E00E49F86802F046FE0D49F868B6
:103B400002F042FE8037BD4680BD00BFB0130308BF
:103B5000D0130308D4130308E81303080014030860
:103B60001414030828140308240A03084014030843
:103B70005C140308EC12030880B5A0B000AFF86035
:103B8000B9607A600CF006FDF867FB6F1B7D83F06F
:103B90000103DBB2002B04D01749F86802F014FED1
:103BA00027E00CF035FE034687F87B3097F87B3032
:103BB000002B0DD107F11403104A642118462AF096
:103BC00075FB07F114031946F86802F0FDFD0CE0DF
:103BD00007F114030A4A642118462AF067FB07F12B
:103BE00014031946F86802F0EFFD0649F86802F080
:103BF000EBFD8037BD4680BD8C140308B01403086C
:103C0000D8140308EC12030890B5ABB004AFF86009
:103C1000B9607A600121B86802F098FEC7F8940094
:103C20000221B86802F092FEC7F89000D7F89430ED
:103C3000002B03D0D7F89030002B04D13449F8681A
:103C400002F0C2FD61E0D7F894002AF02BF9034698
:103C500087F88F3000220021D7F890002AF05AFA16
:103C6000C7F888002B4A97F88F30D7F88810184685
:103C70000CF0C8FC034687F8873097F88730002B94
:103C80001ED107F1100318460CF058FD0346002B17
:103C900037D17A693B7C1946BB69B88B044607F17A
:103CA000200002940193009113461B4A64212AF0DC
:103CB000FDFA07F120031946F86802F085FD20E0BF
:103CC00097F88730022B0ED197F88F3007F120003C
:103CD000124A64212AF0EAFA07F120031946F8682B
:103CE00002F072FD0DE097F8873007F120000C4AD2
:103CF00064212AF0DBFA07F120031946F86802F084
:103D000063FD0849F86802F05FFD9C37BD4690BD31
:103D1000FC14030800000030201503086015030898
:103D200080150308EC12030880B5A4B002AFF86058
:103D3000B9607A600CF0A6FD034687F8873097F8E3
:103D40008730032B38D801A252F823F0AF3D00088A
:103D5000713D0008673D00085D3D00081D49F86899
:103D600002F032FD2DE01C49F86802F02DFD28E03C
:103D700007F1100318460CF0E1FC0346002B11D1AB
:103D8000BB8B1A46BB6907F1200000931346134A08
:103D900064212AF08BFA07F120031946F86802F033
:103DA00013FD0EE00E49F86802F00EFD09E00D4922
:103DB000F86802F009FD04E00B49F86802F004FD20
:103DC00000BF0A49F86802F0FFFC00BF8837BD4613
:103DD00080BD00BFA8150308B4150308C01503086B
:103DE000F01503081C1603082C160308EC12030830
:103DF00080B5A6B002AFF860B9607A600121B868FA
:103E000002F0A4FDC7F88400D7F88430002B04D159
:103E10003A49F86802F0D8FC6CE000220021D7F89B
:103E200084002AF077F9C7F880000CF083F8F8676F
:103E3000FB6FDB7A83F00103DBB2002B04D0304947
:103E4000F86802F0C1FC55E02E4BD7F880101846F8
:103E50000CF0BCF8034687F87B304FF400512A4839
:103E6000FFF70AFB97F87B30002B31D10023A7F82E
:103E70008E300023C7F8883012E0224AD7F8883005
:103E800013441A78B7F88E3011461846FFF711FB25
:103E90000346A7F88E30D7F888300133C7F888304A
:103EA000D7F88820D7F880309A42E6D3B7F88E301A
:103EB00007F114000093D7F88030144A64212AF0E7
:103EC000F5F907F114031946F86802F07DFC0DE0DE
:103ED00097F87B3007F114000D4A64212AF0E6F9C7
:103EE00007F114031946F86802F06EFC0949F868F6
:103EF00002F06AFC9037BD4680BD00BF3C16030847
:103F00006816030800000038001002588C160308D9
:103F1000B8160308EC12030880B588B000AFF8604B
:103F2000B9607A604FF400510948FFF7B3FA07F11E
:103F30001403084A0A2118462AF0B8F907F11403B5
:103F40001946F86802F040FC00BF2037BD4680BD2E
:103F500000100258DC160308F0B5B3B006AFF860E5
:103F6000B9607A600121B86802F0F0FCC7F8AC00D3
:103F70000221B86802F0EAFCC7F8A8000321B8687B
:103F800002F0E4FCC7F8A4000421B86802F0DEFCEB
:103F9000C7F8A0000521B86802F0D8FCC7F89C005B
:103FA0000621B86802F0D2FCC7F89800D7F8AC3008
:103FB000002B13D0D7F8A830002B0FD0D7F8A4309F
:103FC000002B0BD0D7F8A030002B07D0D7F89C30AF
:103FD000002B03D0D7F89830002B0DD107F1180330
:103FE000624A642118462AF061F907F1180319465C
:103FF000F86802F0E9FBB6E0D7F8AC0029F052FF10
:10400000C7F89400D7F8A80029F04CFFC7F8900033
:10401000D7F8A40029F046FFC7F88C00D7F8A00015
:1040200029F040FFC7F88800D7F89C0029F03AFF34
:10403000C7F88400D7F8980029F034FFC7F880004B
:10404000D7F89430002B03DBD7F89430172B04DD1E
:104050004749F86802F0B8FB85E0D7F89030002BAC
:1040600003DBD7F890303B2B04DD4249F86802F0BF
:10407000ABFB78E0D7F88C30002B03DBD7F88C3023
:104080003B2B04DD3C49F86802F09EFB6BE0D7F85F
:104090008830002B03DDD7F888301F2B04DD37492B
:1040A000F86802F091FB5EE0D7F88430002B03DD66
:1040B000D7F884300C2B04DD3149F86802F084FB1A
:1040C00051E0D7F88030002B03DBD7F88030632B2A
:1040D00004DD2C49F86802F077FB44E0D7F894300F
:1040E000DBB2FB74D7F89030DBB23B75D7F88C307D
:1040F000DBB27B75D7F88830DBB23B74D7F88430FD
:10410000DBB27B74D7F88030DBB2BB7407F11003ED
:1041100018460CF01BFF0BF073FAF86707F1100359
:104120001946F86F0BF0C2FAFB7C1E463B7D7A7D88
:10413000397C787C0446B87C054607F11800049564
:10414000039402910192009333460F4A64212AF0AE
:10415000ADF807F118031946F86802F035FB0B4972
:10416000F86802F031FBB437BD46F0BDE416030831
:1041700024170308581703088C170308C0170308EF
:10418000F0170308241803086C180308EC1203083E
:10419000F0B5B7B006AFF860B9607A600121B868D1
:1041A00002F0D4FBC7F8BC00D7F8BC30002B0DD10F
:1041B00007F14803C84A642118462AF077F807F146
:1041C00048031946F86802F0FFFA82E1C349D7F8BC
:1041D000BC00FCF785F80346002B3FD10BF010FA2A
:1041E000C7F8AC0007F140031946D7F8AC000BF054
:1041F00011FA0346002B2CD107F13E031946D7F8DC
:10420000AC000BF097FA97F843309C4697F844308F
:1042100097F8452097F8401097F84100044697F822
:1042200042000546B7F93E00064607F148000596EC
:10423000049503940291019200936346A84A642175
:104240002AF034F807F148031946F86802F0BCFA7E
:104250003BE1A449F86802F0B7FA36E1A249D7F881
:10426000BC00FCF73DF80346002B26D107F13803CC
:1042700018460CF055FE97F83B301E4697F83C3038
:1042800097F83D2097F8381097F83900044697F8CA
:104290003A00054607F14800049503940291019203
:1042A00000933346914A64212AF000F807F148034D
:1042B0001946F86802F088FA07E18D49D7F8BC0082
:1042C000FCF70EF80346002B2ED100237B6300235E
:1042D00087F83330002387F83230002387F83130F5
:1042E00007F1310307F1320207F1330107F134001E
:1042F0000CF070FE97F833301C4697F8323097F880
:104300003120796BC9B207F1480002910192009304
:104310002346784A642129F0C9FF07F1480319466A
:10432000F86802F051FAD0E07349D7F8BC00FBF707
:10433000D7FF0346002B12D10CF03EFEC7F8B000A9
:1043400007F14800D7F8B0306C4A642129F0AEFF7D
:1043500007F148031946F86802F036FAB5E06849F3
:10436000D7F8BC00FBF7BCFF0346002B40F0A08051
:104370000BF046F9C7F8B80007F128031946D7F83B
:10438000B8000BF047F90346002B2CD107F11603B8
:104390001946D7F8B8000BF0CDF997F82B309C46AA
:1043A00097F82C3097F82D2097F8281097F82900C7
:1043B000044697F82A000546B7F91600064607F1A5
:1043C0004800059604950394029101920093634678
:1043D000434A642129F06AFF07F148031946F86847
:1043E00002F0F2F903E04749F86802F0EDF907F14D
:1043F000200318460CF094FD97F823301E4697F8DA
:10440000243097F8252097F8201097F821000446CB
:1044100097F82200054607F148000495039402919D
:10442000019200933346314A642129F03FFF07F19E
:1044300048031946F86802F0C7F90023FB6100231E
:10444000FB760023BB7600237B7607F1190307F187
:104450001A0207F11B0107F11C000CF0BBFDFB7EEB
:104460001C46BB7E7A7EF969C9B207F14800029109
:104470000192009323461F4A642129F017FF07F198
:1044800048031946F86802F09FF90CF095FDC7F84B
:10449000B40007F14800D7F8B430184A642129F075
:1044A00005FF07F148031946F86802F08DF90CE0A2
:1044B00007F14803144A6421184629F0F7FE07F172
:1044C00048031946F86802F07FF91049F86802F0CD
:1044D0007BF9C437BD46F0BD9C180308C818030813
:1044E000D018030818190308341903083C190308E5
:1044F0007819030880190308B4190308BC190308C4
:10450000CC190308D0190308E8190308EC120308B2
:10451000F0B5A9B006AFF860B9607A600121B8685B
:1045200002F014FAC7F88400D7F88430002B0DD1BC
:1045300007F118032F4A6421184629F0B7FE07F146
:1045400018031946F86802F03FF950E000220021F4
:10455000D7F8840029F0DEFDC7F88000D7F8803056
:10456000254A93420DD807F11800244B244A6421B0
:1045700029F09CFE07F118031946F86802F024F9A7
:1045800035E0D7F880000CF0F7FCD7F880201D4B01
:10459000134407F11002114618460CF025FA0BF0EF
:1045A0002FF8F86707F110031946F86F0BF07EF843
:1045B000FB7C1E463B7D7A7D397C787C0446B87C4A
:1045C000054607F1180004950394029101920093A7
:1045D00033460D4A642129F069FE07F11803194694
:1045E000F86802F0F1F80949F86802F0EDF88C3744
:1045F000BD46F0BD201A03087F436D3880436D38F7
:104600003C1A030880BC92C76C180308EC1203081C
:1046100080B5A4B002AFF860B9607A600121B868D3
:1046200002F094F9C7F884000221B86802F08EF90C
:10463000C7F88000D7F88430002B03D0D7F880303B
:10464000002B0DD107F11403254A6421184629F0E7
:104650002DFE07F114031946F86802F0B5F83CE0A6
:1046600000220021D7F8840029F0DAFC0346A7F8DD
:104670007E3000220021D7F8800029F0D1FC0346CB
:10468000DBB2FB740BF0ECF8B867B7F87E1007F1FB
:1046900013020123B86F0BF04BF90346002B0AD12C
:1046A000B7F87E30FA7C07F1140000920D4A6421BD
:1046B00029F0FCFD07E0B7F87E3007F114000A4A44
:1046C000642129F0F3FD07F114031946F86802F09C
:1046D0007BF80649F86802F077F88837BD4680BD58
:1046E0005C1A0308801A0308A01A0308EC120308D6
:1046F00080B5A4B002AFF860B9607A600121B868F3
:1047000002F024F9C7F88400D7F88430002B0DD1CB
:1047100007F11803224A6421184629F0C7FD07F162
:1047200018031946F86802F04FF835E0002200211E
:10473000D7F8840029F074FC0346A7F882300023E0
:10474000FB750BF08DF8F867B7F8821007F11702C8
:104750000123F86F0BF07BF90346002B0AD1B7F861
:104760008230FA7D07F1180000920E4A642129F088
:104770009DFD07E0B7F8823007F118000A4A64216E
:1047800029F094FD07F118031946F86802F01CF8A7
:104790000649F86802F018F88837BD4680BD00BFAA
:1047A000BC1A0308D81A0308F81A0308EC12030805
:1047B00080B584B000AFF860B9607A60F86804F042
:1047C0002FF90449F86801F0FFFF00BF1037BD461C
:1047D00080BD00BFEC12030880B586B000AFF86062
:1047E000B9607A6003F06CFE1EF060FB0D49F8685A
:1047F00001F0EAFF03F02CFF0346FB75FB7D002B65
:1048000004D00949F86801F0DFFF03E00749F868C0
:1048100001F0DAFF0649F86801F0D6FF00BF18374B
:10482000BD4680BD141B03082C1B0308401B030856
:10483000EC12030880B584B000AFF860B9607A600C
:104840001EF02AFB03F04EFE0549F86801F0BCFF9C
:104850000449F86801F0B8FF00BF1037BD4680BDBD
:104860005C1B0308EC12030880B5A6B000AFF8602B
:10487000B9607A600121B86802F068F8C7F894005E
:104880000221B86802F062F8C7F89000D7F89430B7
:10489000002B03D0D7F89030002B04D11149F868D1
:1048A00001F092FF1BE0D7F89020D7F89410F86839
:1048B00003F0CAFF0346002B0DD107F11000D7F813
:1048C0009430094A802129F0F1FC07F110031946C0
:1048D000F86801F079FF0549F86801F075FF98372D
:1048E000BD4680BD741B0308941B0308EC1203082B
:1048F00080B5A8B000AFF860B9607A600121B868EF
:1049000002F024F8C7F89C000221B86802F01EF8F3
:10491000C7F89800D7F89C30002B03D0D7F8983010
:10492000002B04D11C49F86801F04EFF31E0D7F8A4
:104930009800FBF7DFFCC7F89400D7F89430B3F584
:10494000005F04D91549F86801F03EFF21E0D7F86F
:104950009420D7F89810D7F89C0003F0F3FD034695
:10496000002B0ED107F11400D7F89C300C4A80219F
:1049700029F09CFC07F114031946F86801F024FFA4
:1049800003E00849F86801F01FFF0749F86801F0E3
:104990001BFFA037BD4680BD741B0308AC1B03087A
:1049A000941B0308C81B0308EC12030880B586B0EB
:1049B00000AFF860B9607A600121B86801F0C6FF05
:1049C00078617B69002B04D10749F86801F0FCFE8F
:1049D00007E07969F86803F05DFE0449F86801F0C2
:1049E000F3FE1837BD4680BDE01B0308EC12030838
:1049F00080B584B000AFF860B9607A6080210B4860
:104A0000FEF748FD642016F049FA80210748FEF7BA
:104A100033FD0749F86801F0D7FE0649F86801F050
:104A2000D3FE00BF1037BD4680BD00BF001802583E
:104A3000F81B0308EC12030880B584B000AFF860DF
:104A4000B9607A604FF480710748FEF715FD074999
:104A5000F86801F0B9FE0649F86801F0B5FE00BF3C
:104A60001037BD4680BD00BF00180258141C030853
:104A7000EC12030880B584B000AFF860B9607A60CA
:104A80004FF480710748FEF705FD0749F86801F00B
:104A90009BFE0649F86801F097FE00BF1037BD463F
:104AA00080BD00BF001802583C1C0308EC1203082C
:104AB00080B586B000AFF860B9607A600121B8684F
:104AC00001F044FF78617B69002B04D11E49F8682E
:104AD00001F07AFE35E01D497869FBF701FC0346D9
:104AE000002B07D11A49F86801F06EFE0120FBF790
:104AF000C3FF22E017497869FBF7F2FB0346002B5E
:104B000007D11549F86801F05FFE0220FBF7B4FFFA
:104B100013E012497869FBF7E3FB0346002B07D14A
:104B20000F49F86801F050FE0020FBF7A5FF04E0F4
:104B30000C49F86801F048FE03E00B49F86801F001
:104B400043FE1837BD4680BD641C0308881C03085B
:104B50008C1C0308BC1C0308C01C0308F01C0308C1
:104B6000F81C03082C1D0308EC12030880B586B05E
:104B700000AFF860B9607A600121B86801F0E6FE24
:104B800078617B69002B04D11E49F86801F01CFE96
:104B900034E01D497869FBF7A3FB0346002B07D1DE
:104BA0000320FBF769FF1949F86801F00DFE21E0C9
:104BB00017497869FBF794FB0346002B07D10420C3
:104BC000FBF75AFF1349F86801F0FEFD12E01249A5
:104BD0007869FBF785FB0346002B07D10020FBF724
:104BE0004BFF0E49F86801F0EFFD03E00C49F8684F
:104BF00001F0EAFD0B49F86801F0E6FD1837BD4603
:104C000080BD00BF641D0308881C0308841D0308C1
:104C1000BC1C0308CC1D03080C1E0308101E03084F
:104C2000401E0308EC12030880B588B000AFF8609E
:104C3000B9607A600121B86801F088FEB861BB698B
:104C4000002B04D11649F86801F0BEFD25E0B869D3
:104C5000FBF750FB78610D211248FDF737FE00236A
:104C6000FB610AE0BA69FB6913441B7819460D48D9
:104C7000FDF72CFEFB690133FB61FA697B699A42FF
:104C8000F0D30D210748FDF721FE0749F86801F030
:104C90009BFD0649F86801F097FD2037BD4680BDB1
:104CA000741E030800780040901E0308EC120308ED
:104CB00080B584B000AFF860B9607A600949F868DF
:104CC00001F082FD0849F86801F07EFD0749F868A7
:104CD00001F07AFD0649F86801F076FD00BF103753
:104CE000BD4680BDE41E0308081F0308281F0308F3
:104CF000EC12030890B5ADF2544D04AF07F588638C
:104D0000A3F23443186007F58863A3F5876319603D
:104D100007F58863A3F23C431A601623C7F83434BE
:104D200016F02EFBC7F8300407F11400D7F8303422
:104D3000734A4FF4807129F0B9FA07F1140207F5AC
:104D40008863A3F234431146186801F03DFD07F56E
:104D50008A730022D7F83414184616F01DFBC7F8E2
:104D60002C04D7F82C34002B10D107F58863A3F25C
:104D700034436449186801F027FD07F58863A3F2FE
:104D800034436149186801F01FFDB4E007F11400D5
:104D9000D7F82C345D4A4FF4807129F087FA07F177
:104DA000140207F58863A3F234431146186801F032
:104DB0000BFD07F58863A3F234435549186801F0E9
:104DC00003FD07F58863A3F234435249186801F0E4
:104DD000FBFC0023C7F83C3477E007F58863A3F5B4
:104DE0004B71D7F83C241346DB0013449B000B4463
:104DF0000C331B78042B21D801A252F823F000BFFA
:104E0000154E00081D4E0008254E00082D4E0008C6
:104E1000354E0008404BC7F8383413E03F4BC7F815
:104E200038340FE03E4BC7F838340BE03D4BC7F841
:104E3000383407E03C4BC7F8383403E03B4BC7F845
:104E4000383400BF07F58863A3F54B71D7F83C24CD
:104E50001346DB0013449B000B4404331C6807F526
:104E60008863A3F54B71D7F83C241346DB00134449
:104E70009B000B441033196807F58863A3F54B704A
:104E8000D7F83C241346DB0013449B000344203333
:104E90001B6807F1140002930191D7F8383400938E
:104EA0002346234A4FF4807129F000FA07F11402D7
:104EB00007F58863A3F234431146186801F084FCB7
:104EC000D7F83C340133C7F83C34D7F83C24D7F842
:104ED0002C349A4281D307F58863A3F234430D49F9
:104EE000186801F071FC07F58863A3F234430649A2
:104EF000186801F069FC07F24447BD4690BD00BF49
:104F0000441F0308641F0308EC120308881F0308EA
:104F10009C1F0308CC1F0308F81F03080020030888
:104F20000820030810200308182003082020030885
:104F30002820030880B582B000AF78600348FDF7F1
:104F4000DDFF00BF0837BD4680BD00BF1808002444
:104F500090B587B002AFF860B9607A601349F8681D
:104F600001F032FC124B1B68002B0AD1114B00934D
:104F7000002300226421104817F098FA03460C4AD7
:104F800013600B4B1B68002B0BD0094B1C6816F0F1
:104F9000E7F902460023009300230121204617F081
:104FA000E1FA00BF1437BD4690BD00BF40200308A2
:104FB000FC9C0024354F00085020030880B58AB0BF
:104FC00000AFF860B9607A600121B86801F0BEFCFA
:104FD00078627B6A002B04D12949F86801F0F4FB60
:104FE0004AE02848FEF724FA034687F8233097F86A
:104FF0002330032B3BD1786AFBF77CF9F861FB691E
:10500000102B04D92049F86801F0DEFB34E00AF0E7
:1050100027FCB861FB69DBB2FB7507F117020123BE
:105020000021B8690AF084FC0346002B04D017491C
:10503000F86801F0C9FB1FE0FB69002B0ED0FB698B
:105040009BB27A6A0121B8690AF072FC0346002B10
:1050500004D00F49F86801F0B7FB0DE00D49F8687E
:1050600001F0B2FB0C49F86801F0AEFB04E00B491B
:10507000F86801F0A9FB00BF2837BD4680BD00BF1E
:105080005C2003081808002480200308A8200308D7
:10509000D4200308F8200308EC1203081C2103089D
:1050A00080B596B000AFF860B9607A600121B86849
:1050B00001F04CFC78651949F86801F085FB7B6DBF
:1050C000002B0BD11649F86801F07EFBF86803F05D
:1050D00033F91449F86801F077FB16E00A22002141
:1050E000786D29F017F8386507F110003B6D0E4A0E
:1050F000402129F0DBF807F110031946F86801F0A8
:1051000063FBF968386D03F04BF90849F86801F062
:105110005BFB00BF5837BD4680BD00BF4C21030874
:10512000642103087421030884210308EC12030896
:1051300080B584B000AFF860B9607A60FEF786F998
:1051400080B59EB000AFF860B9607A6003F010FFE0
:1051500007F11403094A6421184629F0A7F807F15A
:1051600014031946F86801F02FFB0549F86801F0AF
:105170002BFB00BF7837BD4680BD00BF98210308D8
:10518000EC12030880B5A0B000AFF860B9607A6097
:105190000121B86801F0DAFBF867FB6F002B0DD135
:1051A00007F11403144A6421184629F07FF807F127
:1051B00014031946F86801F007FB19E000220021EA
:1051C000F86F28F0A7FFB867B86F03F00DFF07F17D
:1051D0001400BB6F094A642129F068F807F1140331
:1051E0001946F86801F0F0FA0549F86801F0ECFAA0
:1051F0008037BD4680BD00BFB4210308DC21030811
:10520000EC12030890B5A5B004AFF860B9607A60FD
:1052100003F03AFF07F1140318460BF081FE3B7DC3
:105220001C46FB7D3A7E797E07F11C0002910192BB
:1052300000932346084A642129F038F807F11C033B
:105240001946F86801F0C0FA0449F86801F0BCFAA0
:1052500000BF8437BD4690BD08220308EC12030846
:10526000F0B5BFB008AFF860B9607A60002387F886
:10527000D7300023C7F8D03015E0D7F8D0309BB234
:1052800001339BB21946B86801F060FB0246D7F8BB
:10529000D0309B00D8333B4443F8C82CD7F8D030EB
:1052A0000133C7F8D030D7F8D030072BE5DD002325
:1052B000C7F8CC301BE0D7F8CC309B00D8333B4448
:1052C00053F8C83C002B0DD107F13003534A962107
:1052D000184628F0EBFF07F130031946F86801F093
:1052E00073FA97E0D7F8CC300133C7F8CC30D7F851
:1052F000CC30072BDFDD0023C7F8C83033E0D7F808
:10530000C8309B00D8333B4453F8C83C00220021EE
:10531000184628F0FFFE034687F8C73097F8C730D5
:10532000012B0ED907F13000D7F8C8303C4A96213E
:1053300028F0BCFF07F130031946F86801F044FA81
:1053400068E097F8C720D7F8C83002FA03F35AB2DA
:1053500097F9D73013435BB287F8D730D7F8C83006
:105360000133C7F8C830D7F8C830072BC7DD97F826
:10537000D730184603F0D8FE97F8D7E097F8D73023
:1053800003F001033B6097F8D7205208D2B202F035
:10539000010297F8D7108908C9B201F0010197F806
:1053A000D700C008C0B200F0010097F8D740240928
:1053B000E4B204F0010497F8D7506D09EDB205F09E
:1053C000010597F8D760B609F6B206F0010697F81E
:1053D000D7C04FEADC1C5FFA8CFC0CF0010307F12C
:1053E000300C079306960595049403900291019260
:1053F0003B68009373460B4A9621604628F056FF9F
:1054000007F130031946F86801F0DEF90649F8683B
:1054100001F0DAF9DC37BD46F0BD00BF34220308E5
:1054200070220308AC220308EC120308F0B5DFB0C9
:105430000AAF07F5A873A3F59E73186007F5A87364
:10544000A3F5A073196007F5A873A3F5A2731A60FA
:1054500007F5A873A3F5A0730121186801F076FA87
:10546000C7F84C0107F5A873A3F5A07302211868CB
:1054700001F06CFAC7F8480107F5A873A3F5A0730B
:105480000321186801F062FAC7F8440107F5A87310
:10549000A3F5A0730421186801F058FAC7F8400179
:1054A00007F5A873A3F5A0730521186801F04EFA5B
:1054B000C7F83C0107F5A873A3F5A0730621186887
:1054C00001F044FAC7F8380107F5A873A3F5A073F3
:1054D0000721186801F03AFAC7F8340107F5A873F4
:1054E000A3F5A0730821186801F030FAC7F830015D
:1054F00007F5A873A3F5A0730921186801F026FA2F
:10550000C7F82C0107F5A873A3F5A0730A21186842
:1055100001F01CFAC7F82801D7F84C31002B23D032
:10552000D7F84831002B1FD0D7F84431002B1BD0BF
:10553000D7F84031002B17D0D7F83C31002B13D0CF
:10554000D7F83831002B0FD0D7F83431002B0BD0DF
:10555000D7F83031002B07D0D7F82C31002B03D0EF
:10556000D7F82831002B12D107F11803644A4FF401
:105570008071184628F09AFE07F1180207F5A87303
:10558000A3F59E731146186801F01EF9B3E00022DE
:105590000021D7F84C0128F0BDFD0346A7F82631BD
:1055A00000220021D7F8480128F0B4FD0346A7F8EF
:1055B000243100220021D7F8440128F0ABFD034636
:1055C000A7F8223100220021D7F8400128F0A2FDDF
:1055D000034687F8213100220021D7F83C0128F04A
:1055E00099FD034687F8203100220021D7F83801C1
:1055F00028F090FD034687F81F3100220021D7F8DC
:10560000340128F087FD034687F81E31002200216F
:10561000D7F8300128F07EFD034687F81D310022BF
:105620000021D7F82C0128F075FD0346A7F81A31A0
:1056300000220021D7F8280128F06CFD034687F8E6
:10564000193197F82141B7F82221B7F82411B7F89A
:10565000260197F819310593B7F81A31049397F892
:105660001D31039397F81E31029397F81F31019370
:1056700097F820310093234603F098FDB7F826E110
:10568000B7F82431BB60B7F8222197F8211197F8B9
:10569000200197F81F4197F81E5197F81D61B7F840
:1056A0001A317B6097F819C1634607F1180C08930B
:1056B0007B680793069605950494039002910192E6
:1056C000BB68009373460F4A4FF48071604628F020
:1056D000EDFD07F1180207F5A873A3F59E731146B7
:1056E000186801F071F807F5A873A3F59E730649D1
:1056F000186801F069F807F5AA77BD46F0BD00BF4C
:105700002C230308AC230308EC12030880B584B0F3
:1057100000AFF860B9607A6003F0CEFD0549F86823
:1057200001F052F80449F86801F04EF800BF103754
:10573000BD4680BDFC230308EC12030880B584B08D
:1057400000AFF860B9607A6003F0F4FD0549F868CD
:1057500001F03AF80449F86801F036F800BF103754
:10576000BD4680BD18240308EC12030880B5A4B020
:1057700002AFF860B9607A600121B86801F0E6F81C
:10578000C7F884000221B86801F0E0F8C7F880008B
:105790000321B86801F0DAF8F867D7F88430002BF5
:1057A00006D0D7F88030002B02D0FB6F002B0DD134
:1057B00007F11003254A6421184628F077FD07F108
:1057C00010031946F86800F0FFFF3BE000220021BB
:1057D000D7F8840028F09EFC0346A7F87A30002210
:1057E0000021D7F8800028F095FC034687F879302F
:1057F00000220021F86F28F08DFC0346A7F87630D0
:10580000B7F8762097F87910B7F87A30184603F091
:10581000CFFDB7F87A1097F87930B7F8762007F10E
:105820001000019200930B46094A642128F03EFDC6
:1058300007F110031946F86800F0C6FF0549F8683B
:1058400000F0C2FF8837BD4680BD00BF3424030886
:1058500078240308EC12030880B584B000AFF86028
:10586000B9607A6003F000FE0549F86800F0ACFF0B
:105870000449F86800F0A8FF00BF1037BD4680BD9E
:10588000B4240308EC12030880B584B000AFF860BC
:10589000B9607A6003F026FE0549F86800F094FFCD
:1058A0000449F86800F090FF00BF1037BD4680BD86
:1058B000D8240308EC12030880B5B0B004AFF86038
:1058C000B9607A600121B86801F040F8C7F8AC000F
:1058D0000221B86801F03AF8C7F8A8000321B868B7
:1058E00001F034F8C7F8A4000421B86801F02EF8DC
:1058F000C7F8A000D7F8AC30002B0BD0D7F8A830F1
:10590000002B07D0D7F8A430002B03D0D7F8A03055
:10591000002B0DD107F114032B4A8021184628F0E3
:10592000C5FC07F114031946F86800F04DFF47E085
:1059300000220021D7F8AC0028F0ECFBC7F89C004F
:1059400000220021D7F8A80028F0E4FB0346A7F8BE
:105950009A3000220021D7F8A40028F0DBFB034690
:10596000A7F8983000220021D7F8A00028F0D2FB39
:105970000346A7F89630B7F89630B7F89820B7F8EE
:105980009A10D7F89C0003F0EBFDB7F89A30B7F8FF
:105990009820B7F8961007F1140002910192009335
:1059A000D7F89C30094A802128F080FC07F11403C5
:1059B0001946F86800F008FF0549F86800F004FF90
:1059C000B037BD4680BD00BFFC2403083425030862
:1059D000EC12030880B5A0B000AFF860B9607A603F
:1059E0000121B86800F0B2FFF867FB6F002B0DD102
:1059F00007F11403164A6421184628F057FC07F1F2
:105A000014031946F86800F0DFFE1EE000220021B2
:105A1000F86F28F07FFB034687F87B3097F87B30E0
:105A2000184603F015FE97F87B3007F11400094A79
:105A3000642128F03BFC07F114031946F86800F0D4
:105A4000C3FE0549F86800F0BFFE8037BD4680BD43
:105A500080250308A8250308EC12030880B5A0B030
:105A600000AFF860B9607A600121B86800F06EFF9D
:105A7000F867FB6F002B0DD107F11403164A642160
:105A8000184628F013FC07F114031946F86800F0D3
:105A90009BFE1EE000220021F86F28F03BFB03462E
:105AA00087F87B3097F87B30184603F017FE97F89D
:105AB0007B3007F11400094A642128F0F7FB07F155
:105AC00014031946F86800F07FFE0549F86800F0F5
:105AD0007BFE8037BD4680BDD8250308F825030826
