:020000040800F2
:1000000000000824B15102086D4C0208754C02082A
:100010007D4C0208854C02088D4C0208000000004F
:1000200000000000000000000000000071D0010886
:10003000954C02080000000031D3010899D3010853
:10004000055202080552020805520208055202082C
:10005000055202080552020805520208055202081C
:10006000055202080552020805520208A54C020872
:10007000554D0208055202080552020805520208B1
:1000800005520208055202080552020805520208EC
:1000900005520208055202080552020805520208DC
:1000A00005520208054E02080552020805520208D0
:1000B00005520208055202080552020805520208BC
:1000C00005520208055202080552020805520208AC
:1000D00005520208114E0208494E02080552020854
:1000E00005520208055202080000000005520208ED
:1000F000055202080552020805520208814E020804
:1001000005520208C94E02080552020805520208AB
:10011000055202080552020805520208DD4E020887
:1001200005520208F14E0208055202080552020863
:10013000055202080552020805520208055202083B
:1001400005520208055202080000000000000000ED
:10015000055202080552020805520208055202081B
:10016000055202080552020805520208055202080B
:10017000055202080552020805520208000000005C
:100180000552020805520208A14F02080552020852
:1001900005520208D94F0208E74F0208055202082B
:1001A00005520208055202080552020805520208CB
:1001B00005520208055202080552020805520208BB
:1001C00005520208055202080552020805520208AB
:1001D000055202080552020805520208055202089B
:1001E000055202080552020805520208055202088B
:1001F000055202080552020805520208055202087B
:10020000055202080552020805520208055202086A
:10021000055202080552020805520208055202085A
:100220000552020805520208F54F020800000000BE
:10023000055202080552020805520208055202083A
:10024000055202080950020815500208055202081A
:10025000055202080552020805520208055202081A
:10026000055202080552020805520208055202080A
:1002700005520208055202080552020805520208FA
:10028000055202080552020805520208000000004B
:080290000552020805520208A4
:1002A00010B5054C237833B9044B13B10448AFF3B0
:1002B00000800123237010BDD80700240000000037
:1002C00084FB020808B5034B1BB103490348AFF395
:1002D000008008BD00000000DC07002484FB020849
:1002E00010F8012B11F8013B012A28BF9A42F7D0E0
:1002F000D01A7047034613F8012B002AFBD1181AB5
:1003000001387047000000000000000000000000FD
:1003100001F0FF01102A2BDB10F0070F08D010F8B6
:10032000013B013A8B422DD010F0070F42B3F6D1BA
:10033000F0B441EA012141EA014122F007047FF0D3
:1003400000070023F0E80256083C85EA010586EA2A
:10035000010685FA47F5A3FA87F586FA47F6A5FA66
:1003600087F68EB9EED1F0BC01F0FF0102F0070272
:1003700032B110F8013B013A83EA010313B1F8D11D
:100380000020704701387047002D06BF35460338FE
:10039000073815F0010F07D1013015F4807F02BF37
:1003A000013015F4C03F0130F0BC0138704700BF88
:1003B00053B94AB9002908BF00281CBF4FF0FF31CC
:1003C0004FF0FF3000F088B9ADF1080C6DE904CEB4
:1003D00000F006F8DDF804E0DDE9022304B0704720
:1003E0002DE9F047089D8E4604468846002B4AD1E9
:1003F0008A42174662D9B2FA82F64EB1C6F120039C
:1004000001FA06F820FA03F3B74043EA0808B440BB
:100410004FEA174E1FFA87FCB8FBFEF1230C0EFBC8
:10042000118843EA084301FB0CF29A4209D9FB18F0
:1004300001F1FF3080F0EA809A4240F2E780023911
:100440003B449A1AA3B2B2FBFEF00EFB102243EA21
:10045000024300FB0CFC9C4509D9FB1800F1FF325C
:1004600080F0D6809C4540F2D3803B44023840EA7D
:100470000140A3EB0C0300211DB1F3400022C5E9AC
:100480000032BDE8F0878B4205D90DB1C5E9000106
:1004900000210846F5E7B3FA83F1002946D17345F8
:1004A00002D3824200F20581841A6EEB030201201E
:1004B0009046002DE5D0C5E90048E2E7002A00F0AB
:1004C0009080B2FA82F6002E40F0A4808A1A030CC3
:1004D0004FEA174E80B2BCB20121B2FBFEFC0EFB0C
:1004E0001C2243EA024304FB0CF29A4207D9FB1890
:1004F0000CF1FF3802D29A4200F2E080C4469B1A07
:10050000B3FBFEF20EFB123340EA034302FB04F49A
:100510009C4207D9FB1802F1FF3002D29C4200F244
:10052000CA8002461B1B42EA0C40A5E7C1F1200627
:100530008B4022FA06F71F430EFA01F420FA06F365
:100540002EFA06FE4FEA1749234300FA01F81FFA74
:1005500087FCBEFBF9F01C0C09FB10EE44EA0E44CC
:1005600000FB0CFEA64502FA01F209D93C1900F184
:10057000FF3A80F09C80A64540F2998002383C44C6
:10058000A4EB0E041FFA83FEB4FBF9F309FB13443A
:100590004EEA044403FB0CFCA44508D93C1903F1C2
:1005A000FF3E80F08280A4457FD9023B3C4443EA71
:1005B0000040A4EB0C04A0FB02EC64457346E1464A
:1005C00062D35FD05DB1B8EB030264EB090404FAB7
:1005D00006F622FA01F31E43CC40C5E9006400216F
:1005E0004FE7B1FBF2FC010C41EA0E4180B240EA58
:1005F00001423B4638463C46B846BE462026B1FB43
:10060000F7F1A2EB080241EA0C4166E7014618E760
:1006100010462CE7C6F120022EFA02F3B740B14093
:1006200020FA02F24FEA174E0A43B3FBFEF8BCB2BF
:100630000EFB1833110C41EA034108FB04F9B040EA
:1006400089454FEA104380B23ED9791808F1FF3C42
:1006500001D289451FD8A1EB0901B1FBFEF909FBC5
:1006600004F80EFB191192B242EA0142424529D226
:10067000BA1809F1FF31C4D24245C2D2A9F1020130
:100680003A44BEE7F0459DD2BEEB02036CEB070C8B
:100690000138E14696E7A7EB09094944A8F1020CA5
:1006A000B1FBFEF909FB04F8DBE773467FE7504630
:1006B00066E70846FDE63B44023A33E7ACF1020C3C
:1006C0003B441CE749469CE7A1EB0901C446B1FB4A
:1006D000FEF909FB04F8C4E7704700BF80B582B09B
:1006E00000AF0123FB711C4B01221A701B480FF055
:1006F0009DFB10221A491B480FF0F0FC01F08AFF05
:100700000346FB710FF08AFC10F0B6FE002001F0EA
:10071000D7FC154A022100200FF05EF9124A002191
:1007200000200FF059F9104A012100200FF054F970
:100730000D4A032100200FF04FF90B4A042100203D
:100740000FF04AF9084A052100200FF045F9FB791E
:1007500018460837BD4680BDF40700240058004005
:1007600000100258003401409CFB020880B500AF25
:10077000044A022100200FF02FF900F00BF900BF0E
:1007800080BD00BFB0FB0208B0B588B004AF012344
:10079000FB73204B02221A701F4A002100200FF029
:1007A0001BF91DF0A7FB1DF0A1F91DF07DFC10F059
:1007B00013FF0346FB7310F00FFF0346002B1DD100
:1007C000164A022100200FF061F83B1D184610F078
:1007D0007DFEBB7903F5FA63BB813B791C467B79CF
:1007E0001D46BB89FA79397A787A02900191009294
:1007F0002A4621461A201DF089FB05E0054AFB7BAD
:100800009370044B07221A70FB7B18461037BD46C5
:10081000B0BD00BFF4070024C4FB0208DCFB0208E3
:1008200080B582B000AF204B03221A700123FB7108
:100830001E4A002100200FF0CFF805F071FF03469B
:10084000FB71FB79002B0BD0194A042101200FF01A
:100850001DF8154AFB799370134B07221A7004E0B8
:10086000144A022100200FF011F808F00DF9034698
:10087000FB71FB79002B0BD00F4A042101200FF0F4
:1008800005F8094AFB799370074B07221A7004E0B8
:100890000A4A022100200EF0F9FF0FF099F9FB79C6
:1008A00018460837BD4680BDF4070024ECFB02085B
:1008B00004FC020820FC02083CFC020850FC020870
:1008C00080B582B000AF214B04221A700123FB7166
:1008D0001F4A002100200FF07FF810F099FA03461C
:1008E000FB71FB79002B0BD01A4A042101200EF07A
:1008F000CDFF164AFB799370144B07221A7004E05F
:10090000154A022100200EF0C1FF1022134914489D
:100910000FF04EFF0346FB71FB79002B0BD0114A01
:10092000042101200EF0B2FF084AFB799370074BB7
:1009300007221A7004E00C4A022100200EF0A6FFE4
:10094000FB7918460837BD4680BD00BFF407002478
:1009500068FC020880FC020898FC020800000258AB
:1009600000140058B0FC0208C8FC020880B500AFB3
:10097000064B05221A70054B06221A70044A002104
:1009800000200FF029F80023184680BDF40700244A
:10099000E0FC020880B500AF00F07CF900BF80BD2C
:1009A00080B5C2B000AF07F58473A3F582731860F9
:1009B00007F58473A3F58473196007F58473A3F5B1
:1009C000847307F108001B68084A4FF480712DF00A
:1009D000B3FB07F108030122194605200FF00AF8BE
:1009E00000BF07F58477BD4680BD00BFF8FC020854
:1009F00080B5C0B000AF3B46084A4FF4807118463E
:100A00002DF09AFB3B460122194605200EF0F2FF1D
:100A100000BF07F58077BD4680BD00BF14FD02080A
:100A200080B500AF032000F003F800BF80BD0000D8
:100A300080B483B000AF0346FB71FB79032B0BD866
:100A400001A252F823F000BF590A0008590A000811
:100A5000590A0008590A000800BF00BF0C37BD46FC
:100A60005DF8047B704700BF80B400AF03231846D5
:100A7000BD465DF8047B704780B483B000AF034689
:100A8000FB71064AFB791370054B00221A7000BFF8
:100A90000C37BD465DF8047B704700BFF7070024A4
:100AA000F807002480B400AF034B1B781846BD46FE
:100AB0005DF8047B704700BFF707002480B483B063
:100AC00000AF0346FB71FB795C2B06D10E4B1B7804
:100AD0000133DAB20C4B1A7002E00B4B00221A7091
:100AE000094B1B78092B07D9084B00221A70064BBB
:100AF00000221A70012300E0002318460C37BD467F
:100B00005DF8047B704700BFF8070024F707002456
:100B100080B483B000AF78607B68DB6903F040038A
:100B2000402B01D1012300E0002318460C37BD46BD
:100B30005DF8047B704780B483B000AF78607B6859
:100B4000DB6903F08003802B01D1012300E0002347
:100B500018460C37BD465DF8047B704780B483B0FF
:100B600000AF78600B46FB70FA787B689A6200BF32
:100B70000C37BD465DF8047B704780B483B000AF8E
:100B8000786039607B681A693B6813403A689A421A
:100B900001D1012300E0002318460C37BD465DF863
:100BA000047B704780B483B000AF786039607B68A5
:100BB0003A689A6100BF0C37BD465DF8047B704708
:100BC00080B483B000AF786039603B681A047B68FA
:100BD0009A6100BF0C37BD465DF8047B704700008A
:100BE00080B584B000AF0346FB71FB79FB73FB7BE0
:100BF0001946034801F0C4FE00BF1037BD4680BD52
:100C00000010014080B584B000AF78600023FB6025
:100C100014E00E4AFB6852F8333079681846FFF743
:100C20005FFB0346002B06D1084AFB68DB00134438
:100C300001221A7106E0FB680133FB60FB68022B9E
:100C4000E7DD00BF00BF1037BD4680BD980400241B
:100C500080B582B000AF78600B4A022100200EF010
:100C6000BBFE00F043F80346002B07D0074A0421DF
:100C700001200EF00BFE064B02225A7000201AF0E3
:100C80003BFA00BFFDE700BF3CFD020850FD020833
:100C9000FC07002480B586B004AF0F4B02930F4BC6
:100CA00001930523009300234FF4A0620C490D48E3
:100CB0001AF06FF878607B68002B06D10A4A05218C
:100CC00001200EF0E3FD00BFFDE71AF043FC00BF7A
:100CD0000837BD4680BD00BF6C3000246C1C00246A
:100CE00078FD0208510C000888FD0208F0B5CDB06F
:100CF00006AF012387F81331FFF746FD034687F857
:100D0000133197F81331002B05D0C84A0521012073
:100D10000EF0BCFD04E0C64A002100200EF0B6FD36
:100D2000FFF77EFD034687F8133197F81331002B48
:100D300005D0C04A052101200EF0A8FD04E0BE4AFE
:100D4000002100200EF0A2FDFFF7BAFD034687F850
:100D5000133197F81331002B05D0B84A0521012033
:100D60000EF094FD04E0B64A002100200EF08EFD46
:100D7000FFF7FCFD034687F8133197F81331002B7A
:100D800005D0B04A052101200EF080FD04E0AE4AF6
:100D9000002100200EF07AFD07F0D8FD08F0A4FA3B
:100DA00097F81331002B05D0A84A052101200EF039
:100DB0006DFD04E0A64A002100200EF067FD07F556
:100DC0008C73A3F5867318464FF480731A4600217E
:100DD0002DF0E2FA0023C7F80C313B1D184610F045
:100DE00075FBD7F80C3107F10C02D018D7F80C318D
:100DF000C3F5807107F58C73A3F58A739B789C46C5
:100E000007F58C73A3F58A735B781A4607F58C7324
:100E1000A3F58A731B781C4607F58C73A3F58A73B8
:100E2000DB781D4607F58C73A3F58A731B791E4684
:100E300007F58C73A3F58A735B7904930396029587
:100E4000019400926346834A2DF076F90246D7F862
:100E50000C311344C7F80C3107F58C73A3F215134A
:100E600000221A7007F58C73A3F58B7300221A7099
:100E700007F58C73A3F2171300221A707B1CBA1C9F
:100E8000F91C002010F07CFBD7F80C3107F10C02A4
:100E9000D018D7F80C31C3F5807107F58C73A3F225
:100EA00015131B781C4607F58C73A3F58B731B7801
:100EB0001A4607F58C73A3F217131B78019300925F
:100EC0002346654A2DF038F90246D7F80C31134411
:100ED000C7F80C31D7F80C3107F10C02D018D7F84D
:100EE0000C31C3F580735D4A19462DF025F9024691
:100EF000D7F80C311344C7F80C310023C7F814316C
:100F000017E000BF5648FFF716FE0346002BF9D046
:100F100007F58C73A3F58672D7F8143113441B7848
:100F200019464F48FFF71AFED7F814310133C7F8B6
:100F3000143107F58C73A3F58672D7F81431134476
:100F40001B78002BDDD100BF4548FFF7E1FD0346CC
:100F5000002BF9D00AF07EFE424820F0A3FC0023CB
:100F600001930123009300234FF420623E493F4840
:100F700019F073FF0346012B01D001237BE100230D
:100F800001930123009300234FF42062384939482C
:100F900019F063FF0346012B01D001236BE100230D
:100FA00001930123009300234FF4A0623249334898
:100FB00019F053FF0346012B01D001235BE100230D
:100FC00001930123009300234FF420722C492D48F4
:100FD00019F043FF0346012B01D001234BE12A48BE
:100FE00001F0EEFA034600220192012200924FF432
:100FF00020622649264819F030FF0346012B01D014
:10100000012338E1234801F0DBFA03460022019274
:10101000012200924FF420621F49204819F01DFF61
:101020000346012B3CD0012325E100BFA4FD0208AB
:10103000C4FD0208D8FD0208F8FD020808FE0208F7
:1010400028FE020838FE020854FE020868FE020864
:101050007CFE020888FE0208B8FE0208D4FE0208E0
:10106000001001405C08002408FF02086516000813
:1010700014FF02081916000824FF0208EDFB0008FF
:101080002CFF0208FD1200080044004038FF02084F
:101090008D1500080078004044FF0208B1140008D4
:1010A000002301930123009300234FF4A0627449AD
:1010B000744819F0D2FE0346012B01D00123DAE077
:1010C0000023019301230093002380226E496F487F
:1010D00019F0C3FE0346012B01D00123CBE000230E
:1010E000019301230093002380226949694819F084
:1010F000B4FE0346012B01D00123BCE00023019381
:101100000123009300234FF420626349634819F0E0
:10111000A4FE0346012B01D00123ACE00023019380
:101120000123009300234FF420625D495D4819F0CC
:1011300094FE0346012B01D001239CE00023019380
:101140000123009300234FF420625749574819F0B8
:1011500084FE0346012B01D001238CE00023019380
:101160000123009300234FF420725149514819F094
:1011700074FE0346012B01D001237CE04E4801F0B0
:101180001FFA034600220192012200924FF42062CE
:101190004A494B4819F061FE0346012B01D0012357
:1011A00069E0002301930123009300234FF4807230
:1011B0004449454819F051FE0346012B01D0012353
:1011C00059E0002301930123009300234FF4807220
:1011D0003E493F4819F041FE0346012B01D001234F
:1011E00049E0002301930123009300234FF4207270
:1011F0003849394819F031FE0346012B01D001234B
:1012000039E0002301930123009300234FF4A062EF
:101210003249334819F021FE0346012B01D0012346
:1012200029E0002301930123009300234FF48072EF
:101230002C492D4819F011FE0346012B01D0012342
:1012400019E0002301930123009300234FF420723F
:101250002649274819F001FE0346012B01D001233E
:1012600009E001201AF074F82249234801F006FF32
:1012700007F0B0F80023184607F58E77BD46F0BD9D
:101280004CFF02084913000858FF02089116000895
:1012900060FF0208C516000868FF0208D5C80008EC
:1012A00078FF0208C1CA000884FF020861CC000868
:1012B00090FF0208F9160008001001409CFF020888
:1012C000A1130008A8FF020815170008B8FF0208BC
:1012D00099170008C8FF0208612D0008D8FF02080E
:1012E000F5CD0008E4FF0208D1170008F0FF02085E
:1012F00091CF0008E10B00080008002480B582B0FF
:1013000000AF786010F02CF80D4B1B6801330C4ACD
:1013100013600B4B1B68B3F5E15F0CD9084B00223F
:101320001A6010F059F90346002B04D10022054938
:1013300002200EF05FFB4FF47A701AF009F8E1E733
:10134000B40400240000030880B584B000AF7860C6
:10135000114802F077F90346FB73FB7B032B02D0A5
:10136000FB7B042B13D10C4B1B6A012B09D105F01D
:1013700023FA03460949184605F0C8FB064B00222C
:101380001A6205F019FA0346184605F02EFB642090
:1013900019F0DEFFDCE700BF00080024100003089E
:1013A00080B586B000AF78607B687B617B695B6EDF
:1013B0004FF0FF31184619F085F80346012B6DD127
:1013C00062E0FFF76FFB0346FB73FB7B022B15D13B
:1013D0003B69DBB21946334801F0D2FA3B69DBB214
:1013E0001846FFF76BFB0346002B4DD005F0E4F9E0
:1013F00003462D49184605F089FB45E0FB7B042B8D
:101400001ED13B69DBB21846FFF758FB0346002BA1
:1014100006D005F0D1F903462349184605F076FBBE
:1014200005F0CAF902463B69DBB21946104605F0E1
:10143000B9FA05F0C1F90346184605F0D6FA23E0DB
:101440001A4802F0FFF80346BB73BB7B032B02D0A4
:10145000BB7B042B12D1154801F0FEFD05F0ACF961
:1014600002463B69DBB21946104605F09BFA05F0CF
:10147000A3F90346184605F0B8FA05E03B69DBB26C
:1014800019460A4801F00AFF7B691B68184601F0FB
:10149000E5FB38613B69B3F1FF3F92D1012019F0C0
:1014A00057FF83E700780040140003080008002479
:1014B00080B588B000AF78607B68FB61FB695B6ECC
:1014C0000021184618F0FEFF0346012B56D1FFF706
:1014D000E9FA0346FB76FB7E012B11D105E0BB68E0
:1014E000DBB21946274801F04BFAFB691B68184626
:1014F00001F0B4FBB860BB68B3F1FF3FEFD13DE052
:10150000FB7E022B11D105E0FB68DBB219461E48B9
:1015100001F036FAFB691B68184601F09FFBF86082
:10152000FB68B3F1FF3FEFD128E0FB7E032B11D125
:1015300005E03B69DBB21946124801F021FAFB696C
:101540001B68184601F08AFB38613B69B3F1FF3F25
:10155000EFD113E0FB7E042B10D105E07B69DBB2F9
:101560001946094801F00CFAFB691B68184601F09E
:1015700075FB78617B69B3F1FF3FEFD1012019F072
:10158000E7FE9BE7004400400010014080B586B0B4
:1015900000AF78607B687B617B695B6E4FF0FF31E9
:1015A000184618F08FFF0346012B2CD1FFF77AFA6B
:1015B0000346FB74FB7C012B11D105E0BB68DBB259
:1015C0001946134801F0DCF97B691B68184601F0E5
:1015D00045FBB860BB68B3F1FF3FEFD113E0FB7C84
:1015E000032B10D105E0FB68DBB21946094801F076
:1015F000C7F97B691B68184601F030FBF860FB688F
:10160000B3F1FF3FEFD1012019F0A2FEC4E700BF04
:10161000007800400044004080B584B000AF78609E
:101620000D48FFF7EFFAFFF73DFA0346FB73FB7B2C
:10163000002B0CD1094801F032FB0346002B03D0EC
:10164000074820F059FC02E0054820F055FC022034
:1016500019F07EFEE4E700BF30FD020800440040C0
:101660005C08002480B584B000AF78600748FFF7BD
:10167000C9FAFFF717FA0346FB73FB7B002B01D176
:1016800007F064FE022019F063FEEFE72CFD02086C
:1016900080B582B000AF78604FF480710848FFF7E2
:1016A0008FFA4FF47A7019F053FE4FF480710448AA
:1016B000FFF778FA4FF47A7019F04AFE00BFEBE7B3
:1016C000000C025880B582B000AF78604FF4007112
:1016D0000848FFF767FA4FF47A7019F039FE4FF4B3
:1016E00000710448FFF76CFA4FF47A7019F030FE7D
:1016F00000BFEBE7000C025880B582B000AF786005
:101700000348FFF77FFA642019F022FE00BFF7E7D5
:1017100038FD020880B586B000AF786001237B6198
:1017200000233B6110E0194A3B69DB0013441B793D
:10173000002B06D100237B610022154903200EF007
:1017400059F93B6901333B613B69022BEBDD7B6956
:10175000002B03D00F4B01221A7002E00D4B002228
:101760001A700023FB6008E0084AFB68DB001344A2
:1017700000221A71FB680133FB60FB68022BF3DD6A
:101780004FF4FA7019F0E4FDC8E700BF9804002494
:1017900060000308B004002480B582B000AF786018
:1017A0000A4B1B78DBB2002B01D00EF047FC0EF089
:1017B00061FC0346012B03D1C82019F0C9FDEFE7F6
:1017C0004FF4167019F0C4FDEAE700BFB00400241E
:1017D00080B58AB000AF78604FF480613F48FFF772
:1017E000CCF90346002B0CBF01230023DBB287F8A2
:1017F00027301AF00FF838620023FB770BF05EF801
:101800000346002B05D10023FB77642019F0A0FDCF
:1018100063E04FF480613148FFF7AFF90346002BD6
:101820000CBF01230023DBB2BB7719F0F3FFB861D3
:10183000BA7F97F827309A4205D0BB7F87F82730C8
:10184000BB693B6246E0BA693B6AD31A7B61BB7FE6
:10185000002B33D07B69632B30D9FB7F002B2DD13C
:101860000023FB7307F10F0207F11003114618461E
:1018700008F084FC0346002B09D000230022142129
:10188000174820F08DFA0120FFF7F6F813E007F172
:101890000F0207F110031146184608F06FFC0346CB
:1018A000002B08D00023002214210D4820F078FAE4
:1018B0000120FFF7E1F80123FB770BE0BB7F002B52
:1018C00008D17B69632B05D90020FFF7D5F80020EC
:1018D0000AF0DAFF0A2019F03BFD8FE700100258EA
:1018E0005C08002480B483B000AF78607B689B699B
:1018F00003F00103012B01D1012300E0002318466E
:101900000C37BD465DF8047B704780B483B000AFF0
:1019100078607B689B6903F00203022B01D10123ED
:1019200000E0002318460C37BD465DF8047B704785
:1019300080B483B000AF78607B689B6903F00403D8
:10194000042B01D1012300E0002318460C37BD46CB
:101950005DF8047B704780B483B000AF78607B682B
:101960009B6903F01003102B01D1012300E0002339
:1019700018460C37BD465DF8047B704780B483B0D1
:1019800000AF78607B689B6903F40043B3F5004FB8
:1019900001D1012300E0002318460C37BD465DF855
:1019A000047B704780B483B000AF786039607B6897
:1019B0005B6823F400423B681A437B685A6000BFAF
:1019C0000C37BD465DF8047B7047000080B487B0DB
:1019D00000AFF860B9607A603B60BB68C3F309028E
:1019E0007B6803F400631A433B681B0403F47F0322
:1019F0001A433B6A1A437B6A134323F000437B611B
:101A0000FB685A687B6A5B0D03F48061064B0B43ED
:101A1000DB431A407B691A43FB685A6000BF1C37DE
:101A2000BD465DF8047B7047FF7BFF0380B483B045
:101A300000AF78607B685B6ADBB218460C37BD4646
:101A40005DF8047B704780B483B000AF78600B46CC
:101A5000FB70FA787B689A6200BF0C37BD465DF870
:101A6000047B704780B588B002AFF8607B600B469E
:101A7000FB721346BB720FF023FF38610DE00FF0CD
:101A80001FFF02463B69D31A0A2B06D9FB681B6865
:101A9000184621F0BFF9022396E0FB681B68184640
:101AA000FFF76CFF0346002BE9D1FB681868FB7A4F
:101AB000590097F8203001331A46454B01934FF0F7
:101AC0000073009313460022FFF780FF0FF0F8FE2B
:101AD000386117E0FB681B681846FFF73CFF0346B8
:101AE000002B01D001236FE00FF0EAFE02463B69B4
:101AF000D31A0A2B06D9FB681B68184621F08AF90D
:101B0000032361E0FB681B681846FFF7FEFE0346EF
:101B1000002BDFD0FB681B68BA7A11461846FFF726
:101B200092FF0023FB752FE00FF0CAFE386117E02B
:101B3000FB681B681846FFF70EFF0346002B01D019
:101B4000012341E00FF0BCFE02463B69D31A0A2B89
:101B500006D9FB681B68184621F05CF9032333E0C3
:101B6000FB681B681846FFF7D0FE0346002BDFD04A
:101B7000FB681868FB7D7A6813441B781946FFF7E9
:101B800062FFFB7D0133FB75FA7D97F820309A42A6
:101B9000CAD30FF095FE38610DE00FF091FE0246BA
:101BA0003B69D31A0A2B06D9FB681B68184621F03B
:101BB00031F9032308E0FB681B681846FFF792FE23
:101BC0000346002BE9D0002318461837BD4680BDD8
:101BD0000020008090B589B002AFF8607B600B46B2
:101BE000FB721346BB720FF06BFE38610DE00FF015
:101BF00067FE02463B69D31A0A2B06D9FB681B68AD
:101C0000184621F007F90223B8E0FB681B68184664
:101C1000FFF7B4FE0346002BE9D1FB681868FB7A96
:101C20005900584B01930023009301230022FFF732
:101C3000CDFE0FF045FE386117E0FB681B681846C3
:101C4000FFF789FE0346002B01D0012396E00FF039
:101C500037FE02463B69D31A0A2B06D9FB681B687C
:101C6000184621F0D7F8032388E0FB681B68184664
:101C7000FFF74BFE0346002BDFD0FB681B68BA7AE8
:101C800011461846FFF7DFFE0FF01AFE386117E025
:101C9000FB681B681846FFF75EFE0346002B01D069
:101CA00001236BE00FF00CFE02463B69D31A0A2BAE
:101CB00006D9FB681B68184621F0ACF803235DE0E9
:101CC000FB681B681846FFF70DFE0346002BDFD0AC
:101CD000FB681B6800211846FFF764FEFB68186864
:101CE000FB7A5900FB7A5B0043F001031C4697F82E
:101CF0002830254A01924FF0007200922246FFF7E9
:101D000065FE0FF0DDFD38610023FB7530E00FF05C
:101D1000D7FD386117E0FB681B681846FFF71BFE0C
:101D20000346002B01D0012328E00FF0C9FD024635
:101D30003B69D31A0A2B06D9FB681B68184621F0A9
:101D400069F803231AE0FB681B681846FFF7F0FDEB
:101D50000346002BDFD0FB681968FB7D7A68D41836
:101D60000846FFF763FE03462370FB7D0133FB75D6
:101D7000FA7D97F828309A42C9D3002318461C37B9
:101D8000BD4690BD002000800024008080B584B056
:101D900000AF78600023FB60786800F095F8786801
:101DA00000F00BF80346002B02D06FF00303FB603A
:101DB000FB6818461037BD4680BD80B584B000AFC3
:101DC00078600023FB73786824F0FEFA0346002B4A
:101DD00001D00123FB73FB7B18461037BD4680BD45
:101DE00080B586B000AFF860B9607A603B603B6850
:101DF0007A68B968F86824F0E3FB0346002B03D047
:101E00006FF003037B6101E000237B617B6918466F
:101E10001837BD4680BD80B586B000AFF860B960A8
:101E20007A603B603B687A68B968F86824F08CFC9B
:101E30000346002B03D06FF003037B6101E0002316
:101E40007B617B6918461837BD4680BD80B582B07E
:101E500000AF7860786825F08BFA0346042B14BF36
:101E600001230023DBB218460837BD4680BD80B58C
:101E700084B000AF786039603968786825F088F8F8
:101E80000346002B03D06FF00303FB6001E0002347
:101E9000FB60FB6818461037BD4680BD80B582B038
:101EA00000AF7860786817F0F5FB00BF0837BD46D3
:101EB00080BD80B582B000AF7860786817F014FC00
:101EC00000BF0837BD4680BD80B582B000AF7860E6
:101ED000786822F063FB00BF0837BD4680BD80B440
:101EE00083B000AF78607B681B6803F00103012BAF
:101EF00001D1012300E0002318460C37BD465DF8F0
:101F0000047B704780B483B000AF78607B685B6906
:101F100003F00103012B01D1012300E00023184647
:101F20000C37BD465DF8047B704780B483B000AFCA
:101F300078607B685B6903F48053B3F5805F01D1FF
:101F4000012300E0002318460C37BD465DF8047BF2
:101F5000704780B483B000AF78607B6830331B7803
:101F6000DBB218460C37BD465DF8047B704780B481
:101F700083B000AF78600B46FB707B682033FA7843
:101F80001A7000BF0C37BD465DF8047B704780B502
:101F900086B000AFF8600B467A60FB72F868FFF716
:101FA0009EFF0346002B01D1012335E00FF088FC92
:101FB0007861FB7A1946F868FFF7D9FF08E00FF05F
:101FC0007FFC02467B69D31A0A2B01D9032323E045
:101FD000F868FFF7AAFF0346002BF0D00FF070FC63
:101FE000786108E00FF06CFC02467B69D31A0A2B7B
:101FF00001D9032310E0F868FFF784FF0346002BA4
:10200000F0D07B68002B06D0F868FFF7A2FF0346EC
:102010001A467B681A70002318461837BD4680BDE3
:1020200080B584B000AF78600B46FB707868FFF72E
:1020300056FF0346002B01D101231BE00FF040FCAB
:10204000F860FB7819467868FFF791FF08E00FF019
:1020500037FC0246FB68D31A0A2B01D9032309E097
:102060007868FFF762FF0346002BF0D07868FFF72F
:1020700070FF002318461037BD4680BD80B582B082
:1020800000AF0346FB71FB79002B10D1FB79002BCD
:1020900006D14FF48062002107482CF07DF907E05B
:1020A0004FF48062002105482CF076F900E000BF73
:1020B0000837BD4680BD00BF00F8003800FC00387E
:1020C00080B582B000AF0346FB71FB79002B04D1D1
:1020D000FB791846FFF7D2FF00E000BF0837BD4686
:1020E00080BD80B483B000AF78607B681B6843F02C
:1020F00001027B681A6000BF0C37BD465DF8047BA7
:10210000704780B483B000AF78607B681B6823F0B1
:1021100001027B681A6000BF0C37BD465DF8047B86
:10212000704780B483B000AF78607B68DB6903F0F0
:102130000203022B01D1012300E0002318460C37D3
:10214000BD465DF8047B704780B483B000AF786013
:102150007B68DB6903F00403042B01D1012300E059
:10216000002318460C37BD465DF8047B704780B4E9
:1021700083B000AF78607B68DB6903F00803082B4D
:1021800001D1012300E0002318460C37BD465DF85D
:10219000047B704780B483B000AF78607B68DB69F4
:1021A00003F08003802B01D1012300E000231846B7
:1021B0000C37BD465DF8047B704780B483B000AF38
:1021C00078607B6802221A6200BF0C37BD465DF85A
:1021D000047B704780B483B000AF78607B680422D2
:1021E0001A6200BF0C37BD465DF8047B704780B4AF
:1021F00083B000AF78607B6808221A6200BF0C379A
:10220000BD465DF8047B704780B489B000AF78604C
:102210007B68FB60FB6853E8003FBB60BB6843F032
:102220001003FB617B68FA69BA617B617969BA69FD
:1022300041E800233B613B69002BE9D100BF00BFAF
:102240002437BD465DF8047B704780B489B000AF89
:1022500078607B68FB60FB6853E8003FBB60BB684D
:1022600043F08003FB617B68FA69BA617B6179693D
:10227000BA6941E800233B613B69002BE9D100BF0B
:1022800000BF2437BD465DF8047B704780B489B039
:1022900000AF78607B68FB60FB6853E8003FBB6081
:1022A000BB6823F08003FB617B68FA69BA617B61DC
:1022B0007969BA6941E800233B613B69002BE9D1A8
:1022C00000BF00BF2437BD465DF8047B704780B473
:1022D00083B000AF78607B681B6803F08003802BBD
:1022E00001D1012300E0002318460C37BD465DF8FC
:1022F000047B704780B489B000AF78607B68083396
:10230000FB60FB6853E8003FBB60BB6843F04003E1
:10231000FB617B680833FA69BA617B617969BA69E4
:1023200041E800233B613B69002BE7D100BF00BFC0
:102330002437BD465DF8047B704780B485B000AF9C
:10234000786039603B68002B03D17B682833FB60E1
:1023500002E07B682433FB60FB6818461437BD46F7
:102360005DF8047B704780B483B000AF78600B46A3
:10237000FB70FA787B689A6200BF0C37BD465DF847
:10238000047B704780B485B000AF786039607B68AB
:10239000FB600C4A3B6813441B781A46FB681344E5
:1023A0001B6808493A680A4412781146FA680A44D8
:1023B00043F00103136000BF1437BD465DF8047B92
:1023C000704700BF7893030880B485B000AF786091
:1023D00039607B68FB600C4A3B6813441B781A46E3
:1023E000FB6813441B6808493A680A44127811468E
:1023F000FA680A4423F00103136000BF1437BD4696
:102400005DF8047B704700BF7893030880B487B001
:1024100000AFF860B9607A60FB687B610D4ABB6809
:1024200013441B781A467B6913445A680A4B1340BD
:102430000849BA680A44127811467A690A44114672
:102440007A6813434B6000BF1C37BD465DF8047BC0
:10245000704700BF789303080000FFFF80B485B089
:1024600000AF786039607B68FB60074A3B681344C3
:102470001B781A46FB6813445B689BB218461437F6
:10248000BD465DF8047B70477893030880B487B03D
:1024900000AFF860B9607A60FB687B61074ABB688F
:1024A00013441B781A467B6913441A467B68D36031
:1024B00000BF1C37BD465DF8047B70477893030866
:1024C00080B487B000AFF860B9607A60FB687B6168
:1024D000074ABB6813441B781A467B6913441A46A3
:1024E0007B68936000BF1C37BD465DF8047B704776
:1024F0007893030880B485B000AF786039607B685A
:10250000FB600C4A3B6813441B781A46FB68134473
:102510001B6808493A680A4412781146FA680A4466
:1025200043F00803136000BF1437BD465DF8047B19
:10253000704700BF7893030880B485B000AF78601F
:1025400039607B68FB600C4A3B6813441B781A4671
:10255000FB6813441B6808493A680A44127811461C
:10256000FA680A4443F00403136000BF1437BD4601
:102570005DF8047B704700BF7893030880B485B092
:1025800000AF786039607B68FB600C4A3B6813449D
:102590001B781A46FB6813441B6808493A680A44CA
:1025A00012781146FA680A4443F01003136000BF22
:1025B0001437BD465DF8047B704700BF789303086D
:1025C00080B485B000AF78600023FB6015E010494F
:1025D000FA6813465B019B1A9B000B441B687A68E0
:1025E0009A4207D1FA6813465B019B1A9B00084A7E
:1025F000134406E0FB680133FB60FB68022BE6DD59
:10260000002318461437BD465DF8047B704700BFB1
:10261000B8040024B0B584B002AF00237B6022E090
:10262000B5497A6813465B019B1A9B000B441B68F3
:102630001846FFF766FDB0497A6813465B019B1A9E
:102640009B000B4468331868AB497A6813465B01FA
:102650009B1A9B000B446C331B681946FFF7B4FEB2
:102660007B6801337B607B68022BD9DD4FF400630C
:102670000093A24BA24A0121A2480EF0C8FF4FF4DA
:1026800000630093A04BA14A0221A1480EF0BFFFB6
:1026900003220021012017F0C6FB0346964A536629
:1026A000954B9C6E944BDD6E01219A48FFF745FED9
:1026B00003461A4629462046FFF702FF8E4B9B6EC3
:1026C0008D4AD16E8C4AB2F874201846FFF79EFEF0
:1026D000894B9B6E884AD16E874A126F1846FFF766
:1026E000D5FE854B9B6E844AD26E11461846FFF785
:1026F00045FF814B9B6E804AD26E11461846FFF70C
:10270000F9FE7D4B9B6E7C4AD26E11461846FFF750
:1027100013FF8048FFF7EEFD774B9B6E764AD26E33
:1027200011461846FFF72EFE7A48FFF76DFD4FF46D
:1027300080530093784B794A052179480EF067FF62
:102740004FF480530093774B774A062177480EF079
:102750005EFF03220021012017F065FB0346664A55
:10276000C2F8E030644BD3F8E440634BD3F8E85050
:1027700001216F48FFF7E1FD03461A46294620462E
:10278000FFF79EFE5C4BD3F8E4305B4AD2F8E810CA
:10279000594AB2F8F0201846FFF738FE564BD3F8E6
:1027A000E430554AD2F8E810534AD2F8EC201846E3
:1027B000FFF76CFE504BD3F8E4304F4AD2F8E820D4
:1027C00011461846FFF7DAFE4B4BD3F8E4304A4A7D
:1027D000D2F8E82011461846FFF78CFE464BD3F896
:1027E000E430454AD2F8E82011461846FFF7A4FE27
:1027F0004F48FFF77FFD404BD3F8E4303E4AD2F814
:10280000E82011461846FFF7BDFD4948FFF7FCFCDC
:102810004FF440630093474B474A0B2147480EF063
:10282000F6FE4FF440630093454B464A0C21464860
:102830000EF0EDFE03220021012017F0F4FA03460A
:102840002D4AC2F85C312C4BD3F860412A4BD3F8A7
:10285000645101213D48FFF770FD03461A462946A1
:102860002046FFF72DFE244BD3F86031224AD2F8E0
:102870006411214AB2F86C211846FFF7C7FD1E4BC0
:10288000D3F860311C4AD2F864111B4AD2F868218F
:102890001846FFF7FBFD184BD3F86031164AD2F803
:1028A000642111461846FFF769FE134BD3F86031D7
:1028B000114AD2F8642111461846FFF71BFE0E4B51
:1028C000D3F860310C4AD2F8642111461846FFF75C
:1028D00033FE1E48FFF70EFD074BD3F86031064A62
:1028E000D2F8642111461846FFF74CFD1748FFF750
:1028F0008BFC00233B6039E0B8040024C838002476
:1029000074000308BC040024C840002480000308AD
:10291000EC04002400100140C85800248C00030877
:1029200038050024C86800249800030868050024BE
:1029300000440040C8840024A4000308B405002417
:10294000C8900024B0000308E4050024007800408B
:102950000A493A6813465B019B1A9B000B441B68AB
:102960001846FFF7BEFB3B6801333B603B68022B18
:10297000EEDD002318460837BD46B0BDB80400247C
:1029800080B584B000AF78600B46FB707868FFF7C5
:1029900017FEB860BB68002B1FD0134BFB6005E02F
:1029A000FB68013BFB60FB68002B18D0BB6834332D
:1029B000FA78114618460EF05DFE034683F00103D7
:1029C000DBB2002BECD17868FFF781FC0346002BCB
:1029D00006D17868FFF739FC02E000BF00E000BFD5
:1029E0001037BD4680BD00BF20A1070080B584B070
:1029F00000AF786039607868FFF7E2FDF860FB6847
:102A0000002B11D03B68002B0ED008E03B681B78F0
:102A100019467868FFF7B4FF3B6801333B603B68B9
:102A20001B78002BF2D100E000BF1037BD4680BDFF
:102A300080B584B000AF78607868FFF7C1FDF860BA
:102A4000FB68002B75D0FB681B68DB6903F0020391
:102A5000002B03D0FB681B6802221A62FB681B680C
:102A6000DB6903F00403002B03D0FB681B6804221E
:102A70001A62FB681B68DB6903F48053002B04D0E7
:102A8000FB681B684FF480521A62FB681B68DB69A5
:102A900003F40033002B04D0FB681B684FF40032B2
:102AA0001A62FB681B681846FFF73BFB0346002BC6
:102AB00004D0FB681B681846FFF77FFBFB681B68A8
:102AC0001846FFF741FB0346002B04D0FB681B6848
:102AD0001846FFF77FFBFB681B681846FFF747FBAC
:102AE0000346002B04D0FB681B681846FFF77FFBEA
:102AF0007868FFF74FFB0346002B1BD07868FFF781
:102B0000E6FB0346002B15D0FB68343307F10B02BC
:102B1000114618460EF0F4FD0346002B05D0FB7A53
:102B200019467868FFF71FFC04E07868FFF7AEFBF2
:102B300000E000BF1037BD4680BD000080B58AB000
:102B400000AF78600023BB607868FFF739FDB8619B
:102B5000BB69002B7CD0BB699B6F7B61BB699A6EA4
:102B6000BB69DB6E19461046FFF778FC03467B8293
:102B7000BB69B3F874301A467B8AD31AFB60FA68D3
:102B80007B699A4265D0FA687B699A4214D97B695D
:102B90007B620CE0BB69181DBB691A6F7B6A13442A
:102BA0001B7819460EF066FD7B6A01337B627A6AF8
:102BB000FB689A42EED32AE07B693B620CE0BB697A
:102BC000181DBB691A6F3B6A13441B7819460EF037
:102BD00051FD3B6A01333B62BB69B3F874301A465E
:102BE0003B6A9342EBD30023FB610CE0BB69181DE9
:102BF000BB691A6FFB6913441B7819460EF03AFD46
:102C0000FB690133FB61FA69FB689A42EED3BB6949
:102C10005B6E07F108021146184617F0B9FABB6857
:102C2000002B07D00C4B4FF080521A60BFF34F8F30
:102C3000BFF36F8FBB69FA689A67BB699B6FBA690C
:102C4000B2F87420934204D1BB6900229A6700E075
:102C500000BF2837BD4680BD04ED00E080B584B0DC
:102C600000AF78607868FFF7ABFCF860FB68002B7A
:102C700002D14FF0FF330EE0FB68043307F10B0283
:102C8000114618460EF03CFD0346002B01D0FB7A9E
:102C900001E04FF0FF3318461037BD4680BD80B5C8
:102CA00084B000AF78607868FFF78AFCF860FB6852
:102CB000002B01D1002305E0FB68043318460EF019
:102CC0009CFD034618461037BD4680BD80B584B0D4
:102CD00000AF78607868FFF773FCF860FB68002B42
:102CE00001D1002306E0FB68343318460EF049FD9D
:102CF000034600BF18461037BD4680BD80B483B080
:102D000000AF786039607B681A693B6813403A68A5
:102D10009A4201D1012300E0002318460C37BD463A
:102D20005DF8047B704780B483B000AF7860396091
:102D30007B683A689A6100BF0C37BD465DF8047B3A
:102D4000704780B483B000AF786039603B681A0484
:102D50007B689A6100BF0C37BD465DF8047B704705
:102D600080B586B000AF786018F054FD0346FB6074
:102D70004FF400413748FFF7E4FF0023FB7518F0DC
:102D800049FD38610DE04FF400613348FFF7B6FFAD
:102D90000346002B02D10123FB750AE0322018F014
:102DA000D7FA18F037FD02463B69D31AB3F5FA7F1C
:102DB000E9D34FF400412748FFF7B5FF0023BB7567
:102DC00018F028FD38610DE04FF400612248FFF74C
:102DD00095FF0346002B02D00123BB750AE0322089
:102DE00018F0B6FA18F016FD02463B69D31AB3F58F
:102DF000FA7FE9D3FB7D002B06D0BB7D002B03D0EF
:102E0000164B00221A8005E0144B1B8801339AB23E
:102E1000124B1A80114B1B88772B12D900221049B4
:102E200004200CF0E7FD80210E48FFF78AFF6420A4
:102E300018F08EFA80210B48FFF775FF074B002230
:102E40001A8007F10C0341F28831184618F0F8F99E
:102E50008EE700BF0014025800100258C89C0024DE
:102E6000BC0003080018025880B400AF034B1B8855
:102E70001846BD465DF8047B704700BFC89C00241F
:102E800080B485B000AF78600D4BFB600CE07B68D0
:102E90005A1C7A601B781A46FB685340FB60FB683B
:102EA000084A02FB03F3FB607B681B78002BEED122
:102EB000FB6818461437BD465DF8047B704700BFB9
:102EC000C59D1C819301000180B485B000AF78607E
:102ED00039607A683B685340FB60FB681B0CFA68FA
:102EE0001343FB60FB681B0AFA681343FB60FB6833
:102EF000DBB2002B0CBF01230023DBB218461437D2
:102F0000BD465DF8047B704780B584B000AF786043
:102F10007868FFF7B5FFF860054BBB60B968F868E3
:102F2000FFF7D2FF034618461037BD4680BD00BFED
:102F3000A37B47C580B584B000AF78600DF0C4F8BE
:102F4000F8600023FB7207F10B0201230021F868EF
:102F50000DF0B1F90346002B02D1FB7A102B07D9F3
:102F60001549786800F020F9144B01221A6020E01E
:102F7000FB7A002B16D0FB7A114A0121F8680DF07C
:102F80009AF90346002B05D1FB7A1A460C4B002117
:102F900099540EE00849786800F006F9074B0122C1
:102FA0001A6006E00449786800F0FEF8034B01223D
:102FB0001A601037BD4680BDE0000308E09C002485
:102FC000CC9C002480B584B000AF78600E4B1B68A9
:102FD000012B0BD17868FFF753FFF8600B4BBB60F8
:102FE000B968F868FFF770FF034609E00849786898
:102FF000FDF776F90346002B01D1012300E0002301
:1030000018461037BD4680BDE09C0024A37B47C511
:10301000CC9C002480B582B000AF78607B6893F8C8
:103020002830042B10D17B685B6D5A1C7B685A6575
:103030007B685B6D064A934206D3786800F068F8B7
:103040000449786800F0B0F800BF0837BD4680BD7D
:10305000E09304001C01030880B483B000AF7860E3
:103060007B6893F82830042B02D17B6800225A65D4
:1030700000BF0C37BD465DF8047B704780B582B059
:1030800000AF786039607B683A689A657B68002297
:103090001A627B6800225A627B68002283F828202B
:1030A0007B680022DA627B6800221A657B68002256
:1030B0005A657B682022002118462BF06DF97B6849
:1030C00030332022002118462BF066F90B4978682E
:1030D00000F06AF80A49786800F066F809497868EB
:1030E00000F062F80849786800F05EF807497868EF
:1030F00000F05AF800BF0837BD4680BD48010308FC
:1031000050010308580103086C0103087401030807
:1031100080B582B000AF78607B6801221A627B685C
:1031200000225A627B68002283F828207B680022F4
:10313000DA627B6800221A657B6800225A657B6828
:103140002022002118462BF027F97B6830332022FB
:10315000002118462BF020F90D49786800F024F87A
:103160000C49786800F020F80B49786800F01CF8EA
:103170000A49786800F018F80949786800F014F8EE
:103180000849786800F010F800BF0837BD4680BDD8
:103190004801030850010308580103086C010308A3
:1031A000740103087801030880B582B000AF78602D
:1031B000396007E07B689A6D3B68591C39601B7861
:1031C000184690473B681B78002BF3D100BF00BF27
:1031D0000837BD4680BD000080B582B000AF786082
:1031E0007B6893F82830002B37D17B682449184638
:1031F000FDF776F80346002B0BD17B68012283F89C
:1032000028207B680022DA621E497868FFF7CCFF2D
:1032100031E07B681C491846FDF762F80346002B35
:103220000ED17868FFF786FE7B68022283F828209B
:103230007B680022DA6213497868FFF7B5FF1AE06D
:1032400012497868FFF7B0FF11497868FFF7ACFFC3
:1032500010497868FFF7A8FF0DE07B6893F82830E5
:10326000032B04D07B6893F82830042B03D10A4940
:103270007868FFF799FF00BF0837BD4680BD00BFE3
:103280009001030898010308A4010308AC01030896
:103290007401030878010308D8010308F0B59DB054
:1032A00006AF78600B46FB707B6893F82830012BE3
:1032B00005D07B6893F82830022B40F03A810A222F
:1032C000FB78934204D00D22FB78934240F00281B8
:1032D0007B681B6D7A681344002283F830207B687A
:1032E00093F82830012B5ED17B6830331846FFF706
:1032F0000BFE0346012B56D17B68032283F828205E
:10330000A6497868FFF750FFA5497868FFF74CFF9A
:10331000A4497868FFF748FF07F1500318460EF0FC
:10332000D5F897F850301E4697F8513097F852204C
:1033300097F8531097F85400044697F8550005463F
:1033400007F108000495039402910192009333461B
:10335000954A40212AF0F0FE07F1080319467868E3
:10336000FFF722FF8D497868FFF71EFF8F497868C5
:10337000FFF71AFF8E497868FFF716FF8D497868C6
:10338000FFF712FF8C497868FFF70EFF8B497868CA
:10339000FFF70AFF85497868FFF706FF7F497868DD
:1033A000FFF702FF92E07B6893F82830022B5ED192
:1033B0007B6830331846FFF705FE0346012B56D1D4
:1033C0007B68042283F8282074497868FFF7ECFEB4
:1033D00073497868FFF7E8FE79497868FFF7E4FEFB
:1033E00007F1480318460EF071F897F848301E466A
:1033F00097F8493097F84A2097F84B1097F84C0007
:10340000044697F84D00054607F10800049503941B
:103410000291019200933346634A40212AF08CFEC8
:1034200007F1080319467868FFF7BEFE5B49786824
:10343000FFF7BAFE5D497868FFF7B6FE5C49786829
:10344000FFF7B2FE5B497868FFF7AEFE5A4978682D
:10345000FFF7AAFE59497868FFF7A6FE5349786836
:10346000FFF7A2FE4D497868FFF79EFE2EE07B68CD
:10347000DB6A5A1C7B68DA6248497868FFF794FE79
:103480007B68DB6A0322934214DB7B68002283F8AB
:1034900028204C497868FFF787FE40497868FFF795
:1034A00083FE3E497868FFF77FFE47497868FFF75B
:1034B0007BFE0BE045497868FFF776FE3749786870
:1034C000FFF772FE42497868FFF76EFE7B680022C4
:1034D0001A65B2E07F22FB78934216D17B681B6DA0
:1034E000002B40F3AA807B681B6D5A1E7B681A650F
:1034F0007B689B6D082098477B689B6D20209847D0
:103500007B689B6D0820984797E07B681B6D1E2B9E
:1035100000F393807B681B6D591C7A6811657A688B
:103520001344FA7883F830207B689B6D2A209847F3
:1035300083E07B6893F82830032B04D07B6893F8F2
:103540002830042B04D123497868FFF72DFE75E05D
:103550000A22FB78934203D00D22FB7893423BD1A1
:103560007B685B6A7A680021D1547B685B6A002BB8
:103570000ADD0A497868FFF717FE7868FFF72CFE26
:103580007B6800225A6259E004497868FFF70CFE14
:103590000D497868FFF708FE50E000BF740103088A
:1035A000E8010308540203087C020308A802030888
:1035B000D0020308F80203082003030848030308A5
:1035C000700303089403030878010308C003030889
:1035D00098010308E80303087F22FB7893421AD17D
:1035E0007B685B6A002B29DD7B685B6A5A1E7B68FF
:1035F0005A627B685B6A7A680021D1547B689B6D54
:10360000082098477B689B6D202098477B689B6DBE
:103610000820984712E07B685B6A1E2B0EDC7B68F3
:103620005B6A591C7A6851627A68F978D1547B6870
:103630009B6DFA781046984700E000BF00BF5C37EA
:10364000BD46F0BD80B483B000AF78607B6893F86E
:10365000283018460C37BD465DF8047B70470000E3
:1036600080B400AFBFF34F8F00BF064BDB6803F49D
:10367000E0620449044B1343CB60BFF34F8F00BF9C
:1036800000BFFDE700ED00E00400FA0580B483B060
:1036900000AF786039607B683A689A6100BF0C3788
:1036A000BD465DF8047B704780B483B000AF78609E
:1036B00039603B681A047B689A6100BF0C37BD46CD
:1036C0005DF8047B704780B485B000AF03460A46BE
:1036D000FB8013467B7141F22103BB817B791BB2D6
:1036E0001B021AB2B7F9063053401BB2FB8000230D
:1036F000FB7313E0B7F90630002B09DAB7F906308F
:103700005B001AB2B7F90C3053401BB2FB8002E0E9
:10371000FB885B00FB80FB7B0133FB73FB7B072B90
:10372000E8D9FB8818461437BD465DF8047B70471E
:1037300080B5A8B002AFF860B9607A600121B868BE
:1037400003F0A6FAC7F884000221B86803F0A0FAD3
:10375000C7F880000023A7F89630D7F88430002BF4
:1037600003D0D7F88030002B04D1A049F86803F0CB
:10377000CDF938E1D7F884002AF0DAFAF8670022A8
:103780000021D7F880002AF00BFCB867BB6F002B34
:1037900003D0BB6FB3F5483F0ED907F110004FF4CB
:1037A0004833934A64212AF0C7FC07F110031946F5
:1037B000F86803F0ABF916E1FDF756F90346032B61
:1037C0001BD0FDF751F90346022B08D0FDF74CF949
:1037D0000346012B01D1874B02E0874B00E0874B6A
:1037E00007F11000864A64212AF0A6FC07F11003B5
:1037F0001946F86803F08AF9F5E00220FDF718F998
:10380000FB6F032B6DD0FB6F032B00F39C80FB6FD2
:10381000012B03D0FB6F022B2CD094E00023C7F8C0
:1038200090301AE0D7F8903087F87530D7F890309C
:10383000744A134497F875201A7097F87520B7F8F2
:10384000963011461846FFF73EFF0346A7F896301C
:10385000D7F890300133C7F89030D7F89020BB6F7D
:103860009A42DFD307F11000BB6F674A64212AF048
:1038700063FC70E00023C7F88C3025E0D7F88C108B
:10388000624BA3FB01239A0913465B0013445B01BF
:10389000CA1AD3B2203387F87630D7F88C30594A19
:1038A000134497F876201A7097F87620B7F8963078
:1038B00011461846FFF707FF0346A7F89630D7F8DA
:1038C0008C300133C7F88C30D7F88C20BB6F9A420C
:1038D000D4D307F11000BB6F4D4A64212AF02CFCB1
:1038E00039E00023C7F8883020E02AF025FA0346A3
:1038F0005A42DBB2D2B258BF534287F87730D7F87A
:103900008830404A134497F877201A7097F8772048
:10391000B7F8963011461846FFF7D5FE0346A7F8CC
:103920009630D7F888300133C7F88830D7F8882028
:10393000BB6F9A42D9D307F11000BB6F354A64219F
:103940002AF0FAFB07E03449F86803F0DFF80320B7
:10395000FDF76EF847E04FF47A7017F0F9FC01209C
:10396000FDF766F807F110031946F86803F0CEF882
:10397000244A244B1B7807F1100000931346274A72
:1039800064212AF0D9FB07F110031946F86803F007
:10399000BDF8BB6F013B1B4A13441946BB6F013B8B
:1039A000184A13441B7807F1100000930B461C4A79
:1039B00064212AF0C1FB07F110031946F86803F0EF
:1039C000A5F8B7F8963007F11000164A64212AF0DE
:1039D000B3FB07F110031946F86803F097F8124992
:1039E000F86803F093F89837BD4680BD10100308BF
:1039F0006010030888100308941003089C10030843
:103A0000A410030800000030C8100308ABAAAAAA3B
:103A1000F8100308281103084C1103087C1103084F
:103A2000A0110308C0110308D811030880B5AAB07B
:103A300002AFF860B9607A600121B86803F028F934
:103A4000C7F884001023C7F880300023C7F89C30E3
:103A50000023A7F89A30D7F88430002B04D17C4992
:103A6000F86803F053F8EFE000220021D7F8840053
:103A70002AF096FAF86707F11400FB6F754A642183
:103A80002AF05AFB07F114031946F86803F03EF8D0
:103A9000714A07F11400704B009313466F4A64217A
:103AA0002AF04AFB07F114031946F86803F02EF8D0
:103AB0000023C7F89430ACE0674AD7F89430134439
:103AC00007F11400664A64212AF036FB07F114035B
:103AD0001846FCF70FFC024607F114031344C7F81D
:103AE00090300023C7F88C3030E0D7F89420D7F816
:103AF0008C301344584AD35C87F87B3007F11403A9
:103B0000D7F89020D31AC3F1640197F87B30554A57
:103B1000D7F890002AF010FBD7F890300333C7F89D
:103B20009030D7F89C300133C7F89C3097F87B2051
:103B3000B7F89A3011461846FFF7C5FD0346A7F8B7
:103B40009A30D7F88C300133C7F88C30D7F88C20F6
:103B5000D7F880309A4207D2D7F89420D7F88C3023
:103B60001344FA6F9A42C0D8D7F890305A1CC7F85D
:103B7000902020221A70D7F890305A1CC7F8902055
:103B80007C221A700023C7F8883020E0D7F89420F0
:103B9000D7F888301344304AD35C87F87A3097F8E6
:103BA0007A301F2B06D997F87A307E2B02D897F8F7
:103BB0007A1000E02E21D7F890305A1CC7F89020D8
:103BC0000A461A70D7F888300133C7F88830D7F81A
:103BD0008820D7F880309A4207D2D7F89420D7F8B7
:103BE00088301344FA6F9A42D0D8D7F89030002228
:103BF0001A7007F114031946F86802F087FF0120D4
:103C000017F0A6FBD7F89420D7F880301344C7F8F4
:103C10009430D7F89420FB6F9A42FFF44DAFB7F879
:103C20009A3007F114000093D7F89C300E4A6421B3
:103C30002AF082FA07F114031946F86802F066FFC9
:103C40000A49F86802F062FFA037BD4680BD00BF98
:103C5000DC11030804120308000000382C120308CA
:103C6000501203085C12030864120308D8110308F9
:103C700080B5A0B000AFF860B9607A600121B86883
:103C800003F006F8F867FB6F002B04D13449F8689D
:103C900002F03CFF60E03349F86FFCF721FB03467C
:103CA000002B42D1FCF7E0FE034687F87B3097F803
:103CB0007B30032B2AD801A252F823F0CD3C000818
:103CC000DD3C0008ED3C0008FD3C000807F1140352
:103CD000254A642118462AF02FFA1FE007F1140341
:103CE000224A642118462AF027FA17E007F1140344
:103CF0001F4A642118462AF01FFA0FE007F1140347
:103D00001C4A642118462AF017FA07E007F1140349
:103D1000194A642118462AF00FFA00BF07F114036C
:103D20001946F86802F0F2FE12E01449F86FFCF749
:103D3000D7FA0346002B07D10320FCF779FE104980
:103D4000F86802F0E3FE03E00E49F86802F0DEFED8
:103D50000D49F86802F0DAFE8037BD4680BD00BF2D
:103D60009C120308BC120308C0120308D4120308F3
:103D7000EC120308001303081413030800090308D6
:103D80002C13030848130308D811030880B5A0B00A
:103D900000AFF860B9607A600DF030F8F867FB6F3B
:103DA0001B7D83F00103DBB2002B04D01749F868B8
:103DB00002F0ACFE27E00DF05FF9034687F87B3098
:103DC00097F87B30002B0DD107F11403104A6421C2
:103DD00018462AF0B1F907F114031946F86802F001
:103DE00095FE0CE007F114030A4A642118462AF0F4
:103DF000A3F907F114031946F86802F087FE064993
:103E0000F86802F083FE8037BD4680BD7813030852
:103E10009C130308C4130308D811030890B5ABB072
:103E200004AFF860B9607A600121B86802F030FF31
:103E3000C7F894000221B86802F02AFFC7F8900082
:103E4000D7F89430002B03D0D7F89030002B04D152
:103E50003449F86802F05AFE61E0D7F8940029F07E
:103E600067FF034687F88F3000220021D7F89000C3
:103E70002AF096F8C7F888002B4A97F88F30D7F8C1
:103E8000881018460CF0F2FF034687F8873097F841
:103E90008730002B1ED107F1100318460DF082F871
:103EA0000346002B37D17A693B7C1946BB69B88B36
:103EB000044607F1200002940193009113461B4A27
:103EC00064212AF039F907F120031946F86802F055
:103ED0001DFE20E097F88730022B0ED197F88F3027
:103EE00007F12000124A64212AF026F907F1200385
:103EF0001946F86802F00AFE0DE097F8873007F1DE
:103F000020000C4A64212AF017F907F12003194612
:103F1000F86802F0FBFD0849F86802F0F7FD9C37ED
:103F2000BD4690BDE8130308000000300C140308E0
:103F30004C1403086C140308D811030880B5A4B00E
:103F400002AFF860B9607A600DF0D0F8034687F8E8
:103F5000873097F88730032B38D801A252F823F026
:103F6000C33F0008853F00087B3F0008713F000801
:103F70001D49F86802F0CAFD2DE01C49F86802F0FE
:103F8000C5FD28E007F1100318460DF00BF80346B5
:103F9000002B11D1BB8B1A46BB6907F1200000939F
:103FA0001346134A64212AF0C7F807F12003194683
:103FB000F86802F0ABFD0EE00E49F86802F0A6FDCD
:103FC00009E00D49F86802F0A1FD04E00B49F8682A
:103FD00002F09CFD00BF0A49F86802F097FD00BF9F
:103FE0008837BD4680BD00BF94140308A0140308A1
:103FF000AC140308DC14030808150308181503089B
:10400000D811030880B5A6B002AFF860B9607A6035
:104010000121B86802F03CFEC7F88400D7F884306C
:10402000002B04D13A49F86802F070FD6CE00022E0
:104030000021D7F8840029F0B3FFC7F880000CF006
:10404000ADFBF867FB6FDB7A83F00103DBB2002B7B
:1040500004D03049F86802F059FD55E02E4BD7F8EE
:10406000801018460CF0E6FB034687F87B304FF4CF
:1040700000512A48FFF70AFB97F87B30002B31D11B
:104080000023A7F88E300023C7F8883012E0224AB8
:10409000D7F8883013441A78B7F88E30114618468E
:1040A000FFF711FB0346A7F88E30D7F888300133AD
:1040B000C7F88830D7F88820D7F880309A42E6D3FE
:1040C000B7F88E3007F114000093D7F88030144A07
:1040D00064212AF031F807F114031946F86802F058
:1040E00015FD0DE097F87B3007F114000D4A6421AF
:1040F0002AF022F807F114031946F86802F006FDC9
:104100000949F86802F002FD9037BD4680BD00BF46
:104110002815030854150308000000380010025841
:1041200078150308A4150308D811030880B588B0D2
:1041300000AFF860B9607A604FF400510948FFF7AA
:10414000B3FA07F11403084A0A21184629F0F4FFCC
:1041500007F114031946F86802F0D8FC00BF2037B5
:10416000BD4680BD00100258C8150308F0B5B3B0B5
:1041700006AFF860B9607A600121B86802F088FD86
:10418000C7F8AC000221B86802F082FDC7F8A800A9
:104190000321B86802F07CFDC7F8A4000421B868C8
:1041A00002F076FDC7F8A0000521B86802F070FDA6
:1041B000C7F89C000621B86802F06AFDC7F89800AD
:1041C000D7F8AC30002B13D0D7F8A830002B0FD085
:1041D000D7F8A430002B0BD0D7F8A030002B07D095
:1041E000D7F89C30002B03D0D7F89830002B0DD196
:1041F00007F11803624A6421184629F09DFF07F170
:1042000018031946F86802F081FCB6E0D7F8AC0054
:1042100029F08EFDC7F89400D7F8A80029F088FD92
:10422000C7F89000D7F8A40029F082FDC7F88C00E9
:10423000D7F8A00029F07CFDC7F88800D7F89C00CB
:1042400029F076FDC7F88400D7F8980029F070FDB2
:10425000C7F88000D7F89430002B03DBD7F89430F0
:10426000172B04DD4749F86802F050FC85E0D7F8C9
:104270009030002B03DBD7F890303B2B04DD424914
:10428000F86802F043FC78E0D7F88C30002B03DBB1
:10429000D7F88C303B2B04DD3C49F86802F036FC43
:1042A0006BE0D7F88830002B03DDD7F888301F2B60
:1042B00004DD3749F86802F029FC5EE0D7F8843065
:1042C000002B03DDD7F884300C2B04DD3149F8686E
:1042D00002F01CFC51E0D7F88030002B03DBD7F84C
:1042E0008030632B04DD2C49F86802F00FFC44E0B9
:1042F000D7F89430DBB2FB74D7F89030DBB23B7563
:10430000D7F88C30DBB27B75D7F88830DBB23B74E2
:10431000D7F88430DBB27B74D7F88030DBB2BB7463
:1043200007F1100318460DF0E7F80BF09DFDF86754
:1043300007F110031946F86F0BF0ECFDFB7C1E46ED
:104340003B7D7A7D397C787C0446B87C054607F154
:1043500018000495039402910192009333460F4A8A
:10436000642129F0E9FE07F118031946F86802F004
:10437000CDFB0B49F86802F0C9FBB437BD46F0BD70
:10438000D01503081016030844160308781603080E
:10439000AC160308DC1603081017030858170308A7
:1043A000D8110308F0B5B7B006AFF860B9607A600D
:1043B0000121B86802F06CFCC7F8BC00D7F8BC302B
:1043C000002B0DD107F14803C84A6421184629F093
:1043D000B3FE07F148031946F86802F097FB82E143
:1043E000C349D7F8BC00FBF77BFF0346002B3FD146
:1043F0000BF03AFDC7F8AC0007F140031946D7F8B7
:10440000AC000BF03BFD0346002B2CD107F13E0323
:104410001946D7F8AC000BF0C1FD97F843309C4625
:1044200097F8443097F8452097F8401097F84100E6
:10443000044697F842000546B7F93E00064607F1E4
:1044400048000596049503940291019200936346F7
:10445000A84A642129F070FE07F148031946F8685C
:1044600002F054FB3BE1A449F86802F04FFB36E14F
:10447000A249D7F8BC00FBF733FF0346002B26D137
:1044800007F1380318460DF021F897F83B301E4627
:1044900097F83C3097F83D2097F8381097F8390096
:1044A000044697F83A00054607F14800049503943E
:1044B0000291019200933346914A642129F03CFE17
:1044C00007F148031946F86802F020FB07E18D491F
:1044D000D7F8BC00FBF704FF0346002B2ED10023C6
:1044E0007B63002387F83330002387F832300023C2
:1044F00087F8313007F1310307F1320207F1330158
:1045000007F134000DF03CF897F833301C4697F86B
:10451000323097F83120796BC9B207F14800029127
:10452000019200932346784A642129F005FE07F1A1
:1045300048031946F86802F0E9FAD0E07349D7F861
:10454000BC00FBF7CDFE0346002B12D10DF00AF89C
:10455000C7F8B00007F14800D7F8B0306C4A6421C2
:1045600029F0EAFD07F148031946F86802F0CEFA8F
:10457000B5E06849D7F8BC00FBF7B2FE0346002B54
:1045800040F0A0800BF070FCC7F8B80007F12803DA
:104590001946D7F8B8000BF071FC0346002B2CD15C
:1045A00007F116031946D7F8B8000BF0F7FC97F897
:1045B0002B309C4697F82C3097F82D2097F8281030
:1045C00097F82900044697F82A000546B7F916001F
:1045D000064607F14800059604950394029101925E
:1045E00000936346434A642129F0A6FD07F148037E
:1045F0001946F86802F08AFA03E04749F86802F0C1
:1046000085FA07F1200318460CF060FF97F8233075
:104610001E4697F8243097F8252097F8201097F831
:104620002100044697F82200054607F1480004954A
:1046300003940291019200933346314A642129F098
:104640007BFD07F148031946F86802F05FFA002382
:10465000FB610023FB760023BB7600237B7607F10A
:10466000190307F11A0207F11B0107F11C000CF0F6
:1046700087FFFB7E1C46BB7E7A7EF969C9B207F1D3
:10468000480002910192009323461F4A642129F0B9
:1046900053FD07F148031946F86802F037FA0CF0A9
:1046A00061FFC7F8B40007F14800D7F8B430184AE2
:1046B000642129F041FD07F148031946F86802F02A
:1046C00025FA0CE007F14803144A6421184629F042
:1046D00033FD07F148031946F86802F017FA10494C
:1046E000F86802F013FAC437BD46F0BD8817030816
:1046F000B4170308BC17030804180308201803089C
:1047000028180308641803086C180308A018030885
:10471000A8180308B8180308BC180308D41803081D
:10472000D8110308F0B5A9B006AFF860B9607A6097
:104730000121B86802F0ACFAC7F88400D7F88430D9
:10474000002B0DD107F118032F4A6421184629F0D8
:10475000F3FC07F118031946F86802F0D7F950E0A6
:1047600000220021D7F8840029F01AFCC7F8800045
:10477000D7F88030254A93420DD807F11800244B12
:10478000244A642129F0D8FC07F118031946F86877
:1047900002F0BCF935E0D7F880000CF0C3FED7F882
:1047A00080201D4B134407F11002114618460CF0EF
:1047B0004FFD0BF059FBF86707F110031946F86F2E
:1047C0000BF0A8FBFB7C1E463B7D7A7D397C787C18
:1047D0000446B87C054607F118000495039402913D
:1047E0000192009333460D4A642129F0A5FC07F19C
:1047F00018031946F86802F089F90949F86802F0C7
:1048000085F98C37BD46F0BD0C1903087F436D3820
:1048100080436D382819030880BC92C758170308D5
:10482000D811030880B5A4B002AFF860B9607A600F
:104830000121B86802F02CFAC7F884000221B86898
:1048400002F026FAC7F88000D7F88430002B03D096
:10485000D7F88030002B0DD107F11403254A6421CD
:10486000184629F069FC07F114031946F86802F0AC
:104870004DF93CE000220021D7F8840029F016FB16
:104880000346A7F87E3000220021D7F8800029F0E7
:104890000DFB0346DBB2FB740BF016FCB867B7F8F0
:1048A0007E1007F113020123B86F0BF075FC03466D
:1048B000002B0AD1B7F87E30FA7C07F11400009281
:1048C0000D4A642129F038FC07E0B7F87E3007F183
:1048D00014000A4A642129F02FFC07F11403194639
:1048E000F86802F013F90649F86802F00FF9883702
:1048F000BD4680BD481903086C1903088C190308CC
:10490000D811030880B5A4B002AFF860B9607A602E
:104910000121B86802F0BCF9C7F88400D7F88430E8
:10492000002B0DD107F11803224A6421184629F003
:1049300003FC07F118031946F86802F0E7F835E0C0
:1049400000220021D7F8840029F0B0FA0346A7F826
:1049500082300023FB750BF0B7FBF867B7F88210C5
:1049600007F117020123F86F0BF0A5FC0346002B9B
:104970000AD1B7F88230FA7D07F1180000920E4A8A
:10498000642129F0D9FB07E0B7F8823007F118005D
:104990000A4A642129F0D0FB07F118031946F86888
:1049A00002F0B4F80649F86802F0B0F88837BD465E
:1049B00080BD00BFA8190308C4190308E41903083F
:1049C000D811030880B584B000AFF860B9607A6090
:1049D000F86804F041FA0449F86802F097F800BF5B
:1049E0001037BD4680BD00BFD811030880B584B024
:1049F00000AFF860B9607A6003F004FF0549F86819
:104A000002F084F80449F86802F080F800BF10371B
:104A1000BD4680BD001A0308D811030880B584B0D4
:104A200000AFF860B9607A6003F04EFF0549F8689E
:104A300002F06CF80449F86802F068F800BF10371B
:104A4000BD4680BD181A0308D811030880B5A6B06A
:104A500000AFF860B9607A600121B86802F018F917
:104A6000C7F894000221B86802F012F9C7F8900064
:104A7000D7F89430002B03D0D7F89030002B04D116
:104A80001149F86802F042F81BE0D7F89020D7F8F7
:104A90009410F86804F0F4F80346002B0DD107F1E8
:104AA0001000D7F89430094A802129F045FB07F11E
:104AB00010031946F86802F029F80549F86802F071
:104AC00025F89837BD4680BD301A0308501A0308F0
:104AD000D811030880B5A8B000AFF860B9607A605B
:104AE0000121B86802F0D4F8C7F89C000221B86828
:104AF00002F0CEF8C7F89800D7F89C30002B03D00E
:104B0000D7F89830002B04D11C49F86801F0FEFF5B
:104B100031E0D7F89800FBF7EDFBC7F89400D7F821
:104B20009430B3F5005F04D91549F86801F0EEFF41
:104B300021E0D7F89420D7F89810D7F89C0003F01C
:104B40001DFF0346002B0ED107F11400D7F89C304F
:104B50000C4A802129F0F0FA07F114031946F8688D
:104B600001F0D4FF03E00849F86801F0CFFF0749DE
:104B7000F86801F0CBFFA037BD4680BD301A0308AE
:104B8000681A0308501A0308841A0308D811030886
:104B900080B586B000AFF860B9607A600121B8686E
:104BA00002F076F878617B69002B04D10749F86838
:104BB00001F0ACFF07E07969F86803F087FF04496A
:104BC000F86801F0A3FF1837BD4680BD9C1A0308A2
:104BD000D811030880B584B000AFF860B9607A607E
:104BE00080210B48FEF760FD642016F0B1FB8021A8
:104BF0000748FEF74BFD0749F86801F087FF0649B3
:104C0000F86801F083FF00BF1037BD4680BD00BFCC
:104C100000180258B41A0308D811030880B584B0EC
:104C200000AFF860B9607A604FF480710748FEF712
:104C30002DFD0749F86801F069FF0649F86801F0A1
:104C400065FF00BF1037BD4680BD00BF0018025889
:104C5000D01A0308D811030880B584B000AFF860FB
:104C6000B9607A604FF480710748FEF71DFD07496F
:104C7000F86801F04BFF0649F86801F047FF00BFF4
:104C80001037BD4680BD00BF00180258F81A03084F
:104C9000D811030880B586B000AFF860B9607A60BB
:104CA0000121B86801F0F4FF78617B69002B04D121
:104CB0001E49F86801F02AFF35E01D497869FBF7C5
:104CC0000FFB0346002B07D11A49F86801F01EFFBD
:104CD0000120FBF7D1FE22E017497869FBF700FBC2
:104CE0000346002B07D11549F86801F00FFF022099
:104CF000FBF7C2FE13E012497869FBF7F1FA0346AD
:104D0000002B07D10F49F86801F000FF0020FBF7E6
:104D1000B3FE04E00C49F86801F0F8FE03E00B492B
:104D2000F86801F0F3FE1837BD4680BD201B03086C
:104D3000441B0308481B0308781B03087C1B03085B
:104D4000AC1B0308B41B0308E81B0308D8110308B5
:104D500080B584B000AFF860B9607A600520FBF7D9
:104D60008BFE0449F86801F0D1FE00BF1037BD4644
:104D700080BD00BFD811030880B586B000AFF860D1
:104D8000B9607A600121B86801F082FF78617B69BF
:104D9000002B04D11E49F86801F0B8FE34E01D492B
:104DA0007869FBF79DFA0346002B07D10320FBF738
:104DB00063FE1949F86801F0A9FE21E017497869F6
:104DC000FBF78EFA0346002B07D10420FBF754FEB5
:104DD0001349F86801F09AFE12E012497869FBF76E
:104DE0007FFA0346002B07D10020FBF745FE0E4952
:104DF000F86801F08BFE03E00C49F86801F086FECC
:104E00000B49F86801F082FE1837BD4680BD00BF2F
:104E1000201C0308441B0308401C0308781B0308DC
:104E2000881C0308C81C0308CC1C0308FC1C0308CE
:104E3000D811030880B588B000AFF860B9607A6017
:104E40000121B86801F024FFB861BB69002B04D1CF
:104E50001649F86801F05AFE25E0B869FBF74AFAEE
:104E600078610D211248FDF78BFD0023FB610AE0FC
:104E7000BA69FB6913441B7819460D48FDF780FD9C
:104E8000FB690133FB61FA697B699A42F0D30D211A
:104E90000748FDF775FD0749F86801F037FE064938
:104EA000F86801F033FE2037BD4680BD301D030891
:104EB000007800404C1D0308D811030880B584B069
:104EC00000AFF860B9607A600949F86801F01EFE29
:104ED0000849F86801F01AFE0749F86801F016FE63
:104EE0000649F86801F012FE00BF1037BD4680BDCC
:104EF000A01D0308C41D0308E41D0308D8110308FE
:104F000090B5ADF2544D04AF07F58863A3F2344376
:104F1000186007F58863A3F58763196007F5886350
:104F2000A3F23C431A601623C7F8343416F082FC0F
:104F3000C7F8300407F11400D7F83034734A4FF43F
:104F4000807129F0F9F807F1140207F58863A3F2DC
:104F500034431146186801F0D9FD07F58A73002221
:104F6000D7F83414184616F071FCC7F82C04D7F89B
:104F70002C34002B10D107F58863A3F23443644925
:104F8000186801F0C3FD07F58863A3F23443614953
:104F9000186801F0BBFDB4E007F11400D7F82C3419
:104FA0005D4A4FF4807129F0C7F807F1140207F544
:104FB0008863A3F234431146186801F0A7FD07F592
:104FC0008863A3F234435549186801F09FFD07F543
:104FD0008863A3F234435249186801F097FD002317
:104FE000C7F83C3477E007F58863A3F54B71D7F831
:104FF0003C241346DB0013449B000B440C331B780A
:10500000042B21D801A252F823F000BF2150000840
:10501000295000083150000839500008415000085C
:10502000404BC7F8383413E03F4BC7F838340FE033
:105030003E4BC7F838340BE03D4BC7F8383407E037
:105040003C4BC7F8383403E03B4BC7F8383400BF5B
:1050500007F58863A3F54B71D7F83C241346DB00B2
:1050600013449B000B4404331C6807F58863A3F5C5
:105070004B71D7F83C241346DB0013449B000B44D0
:105080001033196807F58863A3F54B70D7F83C24F3
:105090001346DB0013449B00034420331B6807F1D5
:1050A000140002930191D7F8383400932346234A21
:1050B0004FF4807129F040F807F1140207F5886376
:1050C000A3F234431146186801F020FDD7F83C34B0
:1050D0000133C7F83C34D7F83C24D7F82C349A4233
:1050E00081D307F58863A3F234430D49186801F0B2
:1050F0000DFD07F58863A3F234430649186801F0F3
:1051000005FD07F24447BD4690BD00BF001E0308E1
:10511000201E0308D8110308441E0308581E030864
:10512000881E0308B41E0308BC1E0308C41E03081F
:10513000CC1E0308D41E0308DC1E0308E41E03086B
:1051400080B582B000AF78600348FDF7E1FF00BF93
:105150000837BD4680BD00BF0008002490B587B069
:1051600002AFF860B9607A601349F86801F0CEFCCC
:10517000124B1B68002B0AD1114B00930023002215
:105180006421104817F0ECFB03460C4A13600B4BEC
:105190001B68002B0BD0094B1C6816F03BFB02462A
:1051A0000023009300230121204617F035FC00BFA7
:1051B0001437BD4690BD00BFFC1E0308E49C0024CC
:1051C000415100080C1F030880B58AB000AFF86099
:1051D000B9607A600121B86801F05AFD78627B6A93
:1051E000002B04D12949F86801F090FC4AE02848D6
:1051F000FEF728FA034687F8233097F82330032B6D
:105200003BD1786AFBF776F8F861FB69102B04D97B
:105210002049F86801F07AFC34E00AF055FFB861E3
:10522000FB69DBB2FB7507F1170201230021B869A6
:105230000AF0B2FF0346002B04D01749F86801F0CA
:1052400065FC1FE0FB69002B0ED0FB699BB27A6AFC
:105250000121B8690AF0A0FF0346002B04D00F49D2
:10526000F86801F053FC0DE00D49F86801F04EFCC0
:105270000C49F86801F04AFC04E00B49F86801F0B9
:1052800045FC00BF2837BD4680BD00BF181F03087E
:10529000000800243C1F0308641F0308901F030834
:1052A000B41F0308D8110308D81F030880B596B0AF
:1052B00000AFF860B9607A600121B86801F0E8FCDD
:1052C00078651949F86801F021FC7B6D002B0BD142
:1052D0001649F86801F01AFCF86803F0CFF9144990
:1052E000F86801F013FC16E00A220021786D28F01E
:1052F00057FE386507F110003B6D0E4A402128F03B
:105300001BFF07F110031946F86801F0FFFBF9686D
:10531000386D03F0E7F90849F86801F0F7FB00BFC2
:105320005837BD4680BD00BF082003082020030871
:105330003020030840200308D811030880B584B04A
:1053400000AFF860B9607A60FEF78AF980B5A0B066
:1053500000AFF860B9607A600023FB7507F11702AF
:1053600007F118031146184604F008FF0346002B06
:1053700007D0FB7D07F11C000C4A642128F0DCFEFD
:1053800006E007F11C030A4A6421184628F0D4FEFF
:1053900007F11C031946F86801F0B8FB0549F868E5
:1053A00001F0B4FB00BF8037BD4680BD5420030828
:1053B00074200308D811030880B5A0B000AFF860CE
:1053C000B9607A600121B86801F062FCF867FB6F90
:1053D000002B0DD107F11403144A6421184628F05C
:1053E000ABFE07F114031946F86801F08FFB19E0D2
:1053F00000220021F86F28F0D3FDB867B86F03F0E2
:10540000CDFF07F11400BB6F094A642128F094FE18
:1054100007F114031946F86801F078FB0549F868AC
:1054200001F074FB8037BD4680BD00BFA420030897
:10543000CC200308D811030880B5A0B000AFF860F5
:10544000B9607A600121B86801F022FCF867FB6F4F
:10545000002B0DD107F114031D4A6421184628F0D2
:105460006BFE07F114031946F86801F04FFB2CE0BE
:1054700000220021F86F28F093FDB867BB6F1B0E68
:10548000DBB23B74BB6F1B0CDBB27B74BB6F1B0AC4
:10549000DBB2BB74BB6FDBB2FB7407F110020423F9
:1054A00099210C481CF07CFC07F11400BB6F0A4AE0
:1054B000642128F041FE07F114031946F86801F051
:1054C00025FB0649F86801F021FB8037BD4680BD09
:1054D000F82003085C08002424210308D8110308DD
:1054E00090B5A5B004AFF860B9607A6003F0A6FF8C
:1054F00007F1140318460BF0E9FF3B7D1C46FB7DCA
:105500003A7E797E07F11C000291019200932346B6
:10551000084A642128F010FE07F11C031946F868B8
:1055200001F0F4FA0449F86801F0F0FA00BF84379A
:10553000BD4690BD54210308D8110308F0B5BFB093
:1055400008AFF860B9607A60002387F8D73000238D
:10555000C7F8D03015E0D7F8D0309BB201339BB2FA
:105560001946B86801F094FB0246D7F8D0309B008A
:10557000D8333B4443F8C82CD7F8D0300133C7F8B0
:10558000D030D7F8D030072BE5DD0023C7F8CC307A
:105590001BE0D7F8CC309B00D8333B4453F8C83CD1
:1055A000002B0DD107F13003534A9621184628F0FD
:1055B000C3FD07F130031946F86801F0A7FA97E038
:1055C000D7F8CC300133C7F8CC30D7F8CC30072B24
:1055D000DFDD0023C7F8C83033E0D7F8C8309B00C0
:1055E000D8333B4453F8C83C00220021184628F029
:1055F000D7FC034687F8C73097F8C730012B0ED980
:1056000007F13000D7F8C8303C4A962128F094FDC5
:1056100007F130031946F86801F078FA68E097F866
:10562000C720D7F8C83002FA03F35AB297F9D73037
:1056300013435BB287F8D730D7F8C8300133C7F8C7
:10564000C830D7F8C830072BC7DD97F8D7301846D1
:1056500003F044FF97F8D7E097F8D73003F0010341
:105660003B6097F8D7205208D2B202F0010297F8B7
:10567000D7108908C9B201F0010197F8D700C00816
:10568000C0B200F0010097F8D7402409E4B204F05A
:10569000010497F8D7506D09EDB205F0010597F8B0
:1056A000D760B609F6B206F0010697F8D7C04FEA00
:1056B000DC1C5FFA8CFC0CF0010307F1300C079343
:1056C0000696059504940390029101923B6800931D
:1056D00073460B4A9621604628F02EFD07F13003F1
:1056E0001946F86801F012FA0649F86801F00EFA56
:1056F000DC37BD46F0BD00BF80210308BC21030894
:10570000F8210308D8110308F0B5DFB00AAF07F598
:10571000A873A3F59E73186007F5A873A3F5A0738B
:10572000196007F5A873A3F5A2731A6007F5A873AB
:10573000A3F5A0730121186801F0AAFAC7F84C017B
:1057400007F5A873A3F5A0730221186801F0A0FA69
:10575000C7F8480107F5A873A3F5A07303211868DB
:1057600001F096FAC7F8440107F5A873A3F5A073F2
:105770000421186801F08CFAC7F8400107F5A873F6
:10578000A3F5A0730521186801F082FAC7F83C015F
:1057900007F5A873A3F5A0730621186801F078FA3D
:1057A000C7F8380107F5A873A3F5A0730721186897
:1057B00001F06EFAC7F8340107F5A873A3F5A073DA
:1057C0000821186801F064FAC7F8300107F5A873DA
:1057D000A3F5A0730921186801F05AFAC7F82C0143
:1057E00007F5A873A3F5A0730A21186801F050FA11
:1057F000C7F82801D7F84C31002B23D0D7F848310F
:10580000002B1FD0D7F84431002B1BD0D7F84031E4
:10581000002B17D0D7F83C31002B13D0D7F83831F4
:10582000002B0FD0D7F83431002B0BD0D7F8303104
:10583000002B07D0D7F82C31002B03D0D7F8283114
:10584000002B12D107F11803644A4FF480711846F7
:1058500028F072FC07F1180207F5A873A3F59E73F0
:105860001146186801F052F9B3E000220021D7F880
:105870004C0128F095FB0346A7F8263100220021B1
:10588000D7F8480128F08CFB0346A7F82431002202
:105890000021D7F8440128F083FB0346A7F8223102
:1058A00000220021D7F8400128F07AFB034687F850
:1058B000213100220021D7F83C0128F071FB03467A
:1058C00087F8203100220021D7F8380128F068FB42
:1058D000034687F81F3100220021D7F8340128F051
:1058E0005FFB034687F81E3100220021D7F8300104
:1058F00028F056FB034687F81D3100220021D7F817
:105900002C0128F04DFB0346A7F81A310022002194
:10591000D7F8280128F044FB034687F8193197F897
:105920002141B7F82221B7F82411B7F8260197F8DA
:1059300019310593B7F81A31049397F81D31039381
:1059400097F81E31029397F81F31019397F8203191
:105950000093234603F004FEB7F826E1B7F824319C
:10596000BB60B7F8222197F8211197F8200197F82A
:105970001F4197F81E5197F81D61B7F81A317B60E7
:1059800097F819C1634607F1180C08937B680793D1
:10599000069605950494039002910192BB680093CA
:1059A00073460F4A4FF48071604628F0C5FB07F13B
:1059B000180207F5A873A3F59E731146186801F045
:1059C000A5F807F5A873A3F59E730649186801F0BA
:1059D0009DF807F5AA77BD46F0BD00BF7822030801
:1059E000F8220308D811030880B584B000AFF8602E
:1059F000B9607A6003F03AFE0549F86801F086F86C
:105A00000449F86801F082F800BF1037BD4680BD38
:105A100048230308D811030880B584B000AFF860AC
:105A2000B9607A6003F060FE0549F86801F06EF82D
:105A30000449F86801F06AF800BF1037BD4680BD20
:105A400064230308D811030880B5A4B002AFF8603E
:105A5000B9607A600121B86801F01AF9C7F88400CA
:105A60000221B86801F014F9C7F880000321B86872
:105A700001F00EF9F867D7F88430002B06D0D7F87C
:105A80008030002B02D0FB6F002B0DD107F11003EB
:105A9000254A6421184628F04FFB07F110031946E8
:105AA000F86801F033F83BE000220021D7F88400C9
:105AB00028F076FA0346A7F87A3000220021D7F8BA
:105AC000800028F06DFA034687F879300022002123
:105AD000F86F28F065FA0346A7F87630B7F8762015
