:020000040800F2
:100000000000082465500208214B0208294B020811
:10001000314B0208394B0208414B02080000000036
:1000200000000000000000000000000001D00108F6
:10003000494B020800000000C1D2010829D3010881
:10004000B9500208B9500208B9500208B950020864
:10005000B9500208B9500208B9500208B950020854
:10006000B9500208B9500208B9500208594B0208A9
:10007000094C0208B9500208B9500208B9500208E8
:10008000B9500208B9500208B9500208B950020824
:10009000B9500208B9500208B9500208B950020814
:1000A000B9500208B94C0208B9500208B950020808
:1000B000B9500208B9500208B9500208B9500208F4
:1000C000B9500208B9500208B9500208B9500208E4
:1000D000B9500208C54C0208FD4C0208B95002088C
:1000E000B9500208B950020800000000B9500208D7
:1000F000B9500208B9500208B9500208354D02083B
:10010000B95002087D4D0208B9500208B9500208E2
:10011000B9500208B9500208B9500208914D0208BE
:10012000B9500208A54D0208B9500208B95002089A
:10013000B9500208B9500208B9500208B950020873
:10014000B9500208B9500208000000000000000089
:10015000B9500208B9500208B9500208B950020853
:10016000B9500208B9500208B9500208B950020843
:10017000B9500208B9500208B95002080000000046
:10018000B9500208B9500208554E0208B950020889
:10019000B95002088D4E02089B4E0208B950020861
:1001A000B9500208B9500208B9500208B950020803
:1001B000B9500208B9500208B9500208B9500208F3
:1001C000B9500208B9500208B9500208B9500208E3
:1001D000B9500208B9500208B9500208B9500208D3
:1001E000B9500208B9500208B9500208B9500208C3
:1001F000B9500208B9500208B9500208B9500208B3
:10020000B9500208B9500208B9500208B9500208A2
:10021000B9500208B9500208B9500208B950020892
:10022000B9500208B9500208A94E020800000000A7
:10023000B9500208B9500208B9500208B950020872
:10024000B9500208BD4E0208C94E0208B950020852
:10025000B9500208B9500208B9500208B950020852
:10026000B9500208B9500208B9500208B950020842
:10027000B9500208B9500208B9500208B950020832
:10028000B9500208B9500208B95002080000000035
:08029000B9500208B950020840
:1002A00010B5054C237833B9044B13B10448AFF3B0
:1002B00000800123237010BDD80700240000000037
:1002C00038FA020808B5034B1BB103490348AFF3E2
:1002D000008008BD00000000DC07002438FA020896
:1002E00010F8012B11F8013B012A28BF9A42F7D0E0
:1002F000D01A7047034613F8012B002AFBD1181AB5
:1003000001387047000000000000000000000000FD
:1003100001F0FF01102A2BDB10F0070F08D010F8B6
:10032000013B013A8B422DD010F0070F42B3F6D1BA
:10033000F0B441EA012141EA014122F007047FF0D3
:1003400000070023F0E80256083C85EA010586EA2A
:10035000010685FA47F5A3FA87F586FA47F6A5FA66
:1003600087F68EB9EED1F0BC01F0FF0102F0070272
:1003700032B110F8013B013A83EA010313B1F8D11D
:100380000020704701387047002D06BF35460338FE
:10039000073815F0010F07D1013015F4807F02BF37
:1003A000013015F4C03F0130F0BC0138704700BF88
:1003B00053B94AB9002908BF00281CBF4FF0FF31CC
:1003C0004FF0FF3000F088B9ADF1080C6DE904CEB4
:1003D00000F006F8DDF804E0DDE9022304B0704720
:1003E0002DE9F047089D8E4604468846002B4AD1E9
:1003F0008A42174662D9B2FA82F64EB1C6F120039C
:1004000001FA06F820FA03F3B74043EA0808B440BB
:100410004FEA174E1FFA87FCB8FBFEF1230C0EFBC8
:10042000118843EA084301FB0CF29A4209D9FB18F0
:1004300001F1FF3080F0EA809A4240F2E780023911
:100440003B449A1AA3B2B2FBFEF00EFB102243EA21
:10045000024300FB0CFC9C4509D9FB1800F1FF325C
:1004600080F0D6809C4540F2D3803B44023840EA7D
:100470000140A3EB0C0300211DB1F3400022C5E9AC
:100480000032BDE8F0878B4205D90DB1C5E9000106
:1004900000210846F5E7B3FA83F1002946D17345F8
:1004A00002D3824200F20581841A6EEB030201201E
:1004B0009046002DE5D0C5E90048E2E7002A00F0AB
:1004C0009080B2FA82F6002E40F0A4808A1A030CC3
:1004D0004FEA174E80B2BCB20121B2FBFEFC0EFB0C
:1004E0001C2243EA024304FB0CF29A4207D9FB1890
:1004F0000CF1FF3802D29A4200F2E080C4469B1A07
:10050000B3FBFEF20EFB123340EA034302FB04F49A
:100510009C4207D9FB1802F1FF3002D29C4200F244
:10052000CA8002461B1B42EA0C40A5E7C1F1200627
:100530008B4022FA06F71F430EFA01F420FA06F365
:100540002EFA06FE4FEA1749234300FA01F81FFA74
:1005500087FCBEFBF9F01C0C09FB10EE44EA0E44CC
:1005600000FB0CFEA64502FA01F209D93C1900F184
:10057000FF3A80F09C80A64540F2998002383C44C6
:10058000A4EB0E041FFA83FEB4FBF9F309FB13443A
:100590004EEA044403FB0CFCA44508D93C1903F1C2
:1005A000FF3E80F08280A4457FD9023B3C4443EA71
:1005B0000040A4EB0C04A0FB02EC64457346E1464A
:1005C00062D35FD05DB1B8EB030264EB090404FAB7
:1005D00006F622FA01F31E43CC40C5E9006400216F
:1005E0004FE7B1FBF2FC010C41EA0E4180B240EA58
:1005F00001423B4638463C46B846BE462026B1FB43
:10060000F7F1A2EB080241EA0C4166E7014618E760
:1006100010462CE7C6F120022EFA02F3B740B14093
:1006200020FA02F24FEA174E0A43B3FBFEF8BCB2BF
:100630000EFB1833110C41EA034108FB04F9B040EA
:1006400089454FEA104380B23ED9791808F1FF3C42
:1006500001D289451FD8A1EB0901B1FBFEF909FBC5
:1006600004F80EFB191192B242EA0142424529D226
:10067000BA1809F1FF31C4D24245C2D2A9F1020130
:100680003A44BEE7F0459DD2BEEB02036CEB070C8B
:100690000138E14696E7A7EB09094944A8F1020CA5
:1006A000B1FBFEF909FB04F8DBE773467FE7504630
:1006B00066E70846FDE63B44023A33E7ACF1020C3C
:1006C0003B441CE749469CE7A1EB0901C446B1FB4A
:1006D000FEF909FB04F8C4E7704700BF80B582B09B
:1006E00000AF0123FB711C4B01221A701B480FF055
:1006F000D7FB10221A491B480FF02AFD01F0CAFE51
:100700000346FB710FF0C4FC10F0F0FE002001F076
:1007100017FC154A022100200FF098F9124A002117
:1007200000200FF093F9104A012100200FF08EF9FC
:100730000D4A032100200FF089F90B4A0421002003
:100740000FF084F9084A052100200FF07FF9FB79AA
:1007500018460837BD4680BDF40700240058004005
:10076000001002580034014050FA020880B500AF72
:10077000044A022100200FF069F900F005F900BFDA
:1007800080BD00BF64FA0208B0B588B004AF002392
:10079000FB731D4B02221A701C4A002100200FF02F
:1007A00055F91DF00DFB1DF0EFF810F04FFF03465B
:1007B000002B1DD1164A022100200FF0A1F83B1D8D
:1007C000184610F0BDFEBB7903F5FA63BB813B7997
:1007D0001C467B791D46BB89FA79397A787A029072
:1007E000019100922A4621461A201DF0F5FA05E0F3
:1007F000054AFB7B9370044B07221A70FB7B18465B
:100800001037BD46B0BD00BFF407002478FA0208D7
:1008100090FA020880B582B000AF204B03221A7014
:100820000123FB711E4A002100200FF00FF905F093
:10083000A7FE0346FB71FB79002B0BD0194A04215C
:1008400001200FF05DF8154AFB799370134B0722D6
:100850001A7004E0144A022100200FF051F808F049
:100860007BF80346FB71FB79002B0BD00F4A042168
:1008700001200FF045F8094AFB799370074B0722D6
:100880001A7004E00A4A022100200FF039F80FF034
:10089000D9F9FB7918460837BD4680BDF407002416
:1008A000A0FA0208B8FA0208D4FA0208F0FA02081C
:1008B00004FB020880B582B000AF214B04221A70FD
:1008C0000123FB711F4A002100200FF0BFF810F038
:1008D000D9FA0346FB71FB79002B0BD01A4A04218D
:1008E00001200FF00DF8164AFB799370144B072284
:1008F0001A7004E0154A022100200FF001F81022BE
:10090000134914480FF08EFF0346FB71FB79002B4F
:100910000BD0114A042101200EF0F2FF084AFB79A6
:100920009370074B07221A7004E00C4A0221002042
:100930000EF0E6FFFB7918460837BD4680BD00BFC4
:10094000F40700241CFB020834FB02084CFB0208DD
:10095000000002580014005864FB02087CFB0208E7
:1009600080B500AF064B05221A70054B06221A709F
:10097000044A002100200FF069F80023184680BDCA
:10098000F407002494FB020880B500AF00F058F98A
:1009900000BF80BD80B5C2B000AF07F58473A3F57A
:1009A0008273186007F58473A3F58473196007F5E3
:1009B0008473A3F5847307F108001B68084A4FF499
:1009C00080712DF013FB07F1080301221946052061
:1009D0000FF04AF800BF07F58477BD4680BD00BF21
:1009E000ACFB020880B5C0B000AF3B46084A4FF4EC
:1009F000807118462DF0FAFA3B460122194605206F
:100A00000FF032F800BF07F58077BD4680BD00BF0C
:100A1000C8FB020880B500AF032000F003F800BF58
:100A200080BD000080B483B000AF0346FB71FB794A
:100A3000032B0BD801A252F823F000BF4D0A000887
:100A40004D0A00084D0A00084D0A000800BF00BF0B
:100A50000C37BD465DF8047B704700BF80B400AF23
:100A600003231846BD465DF8047B704780B483B00D
:100A700000AF0346FB71064AFB791370054B002259
:100A80001A7000BF0C37BD465DF8047B704700BF8D
:100A9000F7070024F807002480B400AF034B1B784D
:100AA0001846BD465DF8047B704700BFF707002479
:100AB00080B483B000AF0346FB71FB795C2B06D199
:100AC0000E4B1B780133DAB20C4B1A7002E00B4B61
:100AD00000221A70094B1B78092B07D9084B0022FA
:100AE0001A70064B00221A70012300E000231846FA
:100AF0000C37BD465DF8047B704700BFF807002443
:100B0000F707002480B483B000AF786039607B6859
:100B10001A693B6813403A689A4201D1012300E008
:100B2000002318460C37BD465DF8047B704780B43F
:100B300083B000AF786039607B683A689A6100BF23
:100B40000C37BD465DF8047B704780B483B000AFBE
:100B5000786039603B681A047B689A6100BF0C3783
:100B6000BD465DF8047B704780B584B000AF034696
:100B7000FB71FB79FB73FB7B1946034801F040FED8
:100B800000BF1037BD4680BD0010014080B584B065
:100B900000AF7860174B1B680A21184619F05EFCFD
:100BA0000346012B21D10023FB6014E0124AFB68AD
:100BB00052F8333079681846FFF792FB0346002B52
:100BC00006D10D4AFB68DB00134401221A7105E0CF
:100BD000FB680133FB60FB68022BE7DD054B1868FF
:100BE00000230022002119F095F900BF1037BD46FF
:100BF00080BD00BFC83000249804002480B582B0B6
:100C000000AF78600B4A022100200EF01FFF00F0B9
:100C100065F80346002B07D0074A042101200EF097
:100C20006FFE064B02225A7000201AF031FA00BF04
:100C3000FDE700BFF0FB020804FC0208FC070024EB
:100C400080B586B004AF0F4B02930F4B0193052381
:100C5000009300234FF4A0620C490D481AF065F888
:100C600078607B68002B06D10A4A052101200EF02E
:100C700047FE00BFFDE71AF039FC00BF0837BD464C
:100C800080BD00BF6C3000246C1C00242CFC0208CA
:100C9000FD0B00083CFC020880B500AF012019F0F4
:100CA00020F903460A4A1360094B1B68002B06D142
:100CB0000022084905200EF0D7FE012305E000229E
:100CC000054902200EF0D0FE0023184680BD00BF6B
:100CD000C830002458FC020884FC020880B584B0A7
:100CE00002AF0123FB71FFF74FFD0346FB71FB7958
:100CF000002B05D0B54A052101200EF001FE04E0CD
:100D0000B34A002100200EF0FBFDFFF783FD0346F0
:100D1000FB71FB79002B05D0AE4A052101200EF0B6
:100D2000EFFD04E0AC4A002100200EF0E9FDFFF7E2
:100D3000C1FD0346FB71FB79002B05D0A74A0521B5
:100D400001200EF0DDFD04E0A54A002100200EF098
:100D5000D7FDFFF705FE0346FB71FB79002B05D09D
:100D6000A04A052101200EF0CBFD04E09E4A00219F
:100D700000200EF0C5FD07F033FD08F03FFAFB79C7
:100D8000002B05D0994A052101200EF0B9FD04E0A1
:100D9000974A002100200EF0B3FDFFF77DFF0AF017
:100DA00039FF01200AF0BAFF924820F0D5FC07F085
:100DB000C5FCC8201AF098FA07F054FC00230193F0
:100DC0000123009300234FF420628B498B481AF0D3
:100DD00010F80346012B01D001239DE1002301936C
:100DE0000123009300234FF42062854985481AF0BF
:100DF00000F80346012B01D001238DE1002301936C
:100E00000123009300234FF4A0627F497F4819F02B
:100E1000F0FF0346012B01D001237DE10023019364
:100E20000123009300234FF420727949794819F087
:100E3000E0FF0346012B01D001236DE1764801F06C
:100E4000FFFA034600220192012200924FF4206231
:100E50007249734819F0CDFF0346012B01D00123DD
:100E60005AE1704801F0ECFA034600220192012297
:100E700000924FF420626C496C4819F0BAFF0346A7
:100E8000012B01D0012347E10023019301230093AB
:100E900000234FF4A0626649664819F0AAFF034692
:100EA000012B01D0012337E100230193012300939B
:100EB000002380226049614819F09BFF0346012B03
:100EC00001D0012328E10023019301230093002393
:100ED00080225B495B4819F08CFF0346012B01D04F
:100EE000012319E1002301930123009300234FF410
:100EF00020625549554819F07CFF0346012B01D06B
:100F0000012309E1002301930123009300234FF4FF
:100F100020624F494F4819F06CFF0346012B01D066
:100F20000123F9E0002301930123009300234FF4F0
:100F300020624949494819F05CFF0346012B01D062
:100F40000123E9E0002301930123009300234FF4E0
:100F500020724349434819F04CFF0346012B01D04E
:100F60000123D9E0404801F06BFA034600220192C8
:100F7000012200924FF420623C493D4819F039FFAC
:100F80000346012B01D00123C6E000230193012376
:100F9000009300234FF480723649374819F029FF37
:100FA0000346012B01D00123B6E000230193012366
:100FB000009300234FF480723049314819F019FF33
:100FC0000346012B5ED00123A6E000BFC0FC02084F
:100FD000E0FC0208F4FC020814FD020824FD0208EB
:100FE00044FD020854FD020870FD020884FD020859
:100FF00098FD02085C080024A4FD0208B114000852
:10100000B0FD020865140008C0FD020861FC00087C
:10101000C8FD02084911000800440040D4FD020840
:10102000D913000800780040E0FD0208FD12000816
:10103000E8FD020895110008F4FD0208DD1400081F
:10104000FCFD02081115000804FE020805C900088D
:1010500014FE0208F1CA000820FE020891CC000824
:101060002CFE0208451500080010014038FE020859
:10107000ED11000844FE02086115000854FE020844
:1010800011160008002301930123009300234FF45D
:1010900020722349234819F0ACFE0346012B01D0EE
:1010A000012339E0002301930123009300234FF42F
:1010B000A0621D491D4819F09CFE0346012B01D07A
:1010C000012329E0002301930123009300234FF41F
:1010D00080721749174819F08CFE0346012B01D086
:1010E000012319E0002301930123009300234FF40F
:1010F00020721149114819F07CFE0346012B01D0E2
:10110000012309E001201AF0EFF80D490D4801F024
:10111000F5FE07F08FF8002318460837BD4680BD5E
:1011200064FE0208E12B000874FE020825CE0008C8
:1011300080FE0208491600088CFE020801D0000853
:10114000690B00080008002480B582B000AF786009
:1011500010F040F90D4B1B6801330C4A13600B4B28
:101160001B68B3F5E15F0CD9084B00221A6010F040
:101170006DFA0346002B04D10022054902200EF02F
:1011800073FC4FF47A701AF0AFF8E1E7B40400246E
:101190009CFE020880B584B000AF7860114802F070
:1011A00091F90346FB73FB7B032B02D0FB7B042BE3
:1011B00013D10C4B1B6A012B09D105F02DFA034604
:1011C0000949184605F0D2FB064B00221A6205F0C9
:1011D00023FA0346184605F038FB64201AF084F819
:1011E000DCE700BF00080024ACFE020880B586B032
:1011F00000AF78607B687B617B695B6E4FF0FF318D
:10120000184619F02BF90346012B6DD162E0FFF768
:1012100043FC0346FB73FB7B022B15D13B69DBB21E
:101220001946334801F0ECFA3B69DBB21846FFF788
:101230003FFC0346002B4DD005F0EEF903462D4947
:10124000184605F093FB45E0FB7B042B1ED13B6960
:10125000DBB21846FFF72CFC0346002B06D005F046
:10126000DBF903462349184605F080FB05F0D4F965
:1012700002463B69DBB21946104605F0C3FA05F099
:10128000CBF90346184605F0E0FA23E01A4802F0CD
:1012900019F90346BB73BB7B032B02D0BB7B042B2A
:1012A00012D1154801F018FE05F0B6F902463B6967
:1012B000DBB21946104605F0A5FA05F0ADF9034674
:1012C000184605F0C2FA05E03B69DBB219460A4848
:1012D00001F024FF7B691B68184601F0FFFB3861B1
:1012E0003B69B3F1FF3F92D1012019F0FDFF83E785
:1012F00000780040B0FE02080008002480B588B0E5
:1013000000AF78607B68FB61FB695B6E002118466B
:1013100019F0A4F80346012B56D1FFF7BDFB034695
:10132000FB76FB7E012B11D105E0BB68DBB21946D1
:10133000274801F065FAFB691B68184601F0CEFBEF
:10134000B860BB68B3F1FF3FEFD13DE0FB7E022BFD
:1013500011D105E0FB68DBB219461E4801F050FAD6
:10136000FB691B68184601F0B9FBF860FB68B3F134
:10137000FF3FEFD128E0FB7E032B11D105E03B6955
:10138000DBB21946124801F03BFAFB691B681846AC
:1013900001F0A4FB38613B69B3F1FF3FEFD113E0EB
:1013A000FB7E042B10D105E07B69DBB219460948AE
:1013B00001F026FAFB691B68184601F08FFB786183
:1013C0007B69B3F1FF3FEFD1012019F08DFF9BE75F
:1013D000004400400010014080B586B000AF786046
:1013E0007B687B617B695B6E4FF0FF31184619F0BB
:1013F00035F80346012B2CD1FFF74EFB0346FB7457
:10140000FB7C012B11D105E0BB68DBB21946134808
:1014100001F0F6F97B691B68184601F05FFBB860C4
:10142000BB68B3F1FF3FEFD113E0FB7C032B10D17E
:1014300005E0FB68DBB21946094801F0E1F97B6978
:101440001B68184601F04AFBF860FB68B3F1FF3FE8
:10145000EFD1012019F048FFC4E700BF0078004039
:101460000044004080B584B000AF7860FFF714FB03
:101470000346FB73FB7B002B0CD10A4801F04FFBAA
:101480000346002B03D0084820F090FC02E00648F9
:1014900020F08CFC0548FFF779FB022019F024FFAF
:1014A000E4E700BF004400405C080024E4FB0208BD
:1014B00080B584B000AF7860FFF7EEFA0346FB73A7
:1014C000FB7B002B01D107F0CBFE0348FFF75EFB4F
:1014D000022019F009FFEFE7E0FB020880B582B0B7
:1014E00000AF78604FF480710848FFF72EFB4FF48F
:1014F0007A7019F0F9FE4FF480710448FFF717FB7A
:101500004FF47A7019F0F0FE00BFEBE7000C0258C0
:1015100080B582B000AF78604FF400710848FFF7E3
:1015200006FB4FF47A7019F0DFFE4FF400710448A7
:10153000FFF70BFB4FF47A7019F0D6FE00BFEBE714
:10154000000C025880B582B000AF78600348FFF706
:101550001DFB642019F0C8FE00BFF7E7ECFB020892
:1015600080B586B000AF78604FF4FA7019F0BCFE19
:1015700001237B61214B1B683221184618F06EFF56
:101580000346012B31D100233B6110E01C4A3B692B
:10159000DB0013441B79002B06D100237B61002262
:1015A000184903200EF060FA3B6901333B613B6947
:1015B000022BEBDD7B69DAB2134B1A700023FB6060
:1015C00008E00F4AFB68DB00134400221A71FB6835
:1015D0000133FB60FB68022BF3DD084B1868002326
:1015E0000022002118F096FCBEE7002207490420E3
:1015F0000EF03AFA044B00221A70B5E7C830002406
:1016000098040024FCFE0208B004002410FF020825
:1016100080B582B000AF78600A4B1B78DBB2002B3C
:1016200001D00EF045FD0EF05FFD0346012B03D106
:10163000C82019F059FEEFE74FF4167019F054FE68
:10164000EAE700BFB004002480B58AB000AF78603C
:101650004FF480614148FFF755FA0346002B0CBF59
:1016600001230023DBB287F827301AF09FF8386295
:101670000023FB770BF03AF90346002B05D100233A
:10168000FB77642019F030FE66E04FF48061334848
:10169000FFF738FA0346002B0CBF01230023DBB20F
:1016A000BB771AF083F8B861BA7F97F827309A426F
:1016B00005D0BB7F87F82730BB693B6249E0BA6938
:1016C0003B6AD31A7B61BB7F002B36D07B69632BCF
:1016D00033D9FB7F002B30D10023FB7307F10F02BE
:1016E00007F110031146184608F0D2FC0346002B00
:1016F00009D0002300221421194820F0ABFA012060
:10170000FFF7B4F913E007F10F0207F110031146D8
:10171000184608F0BDFC0346002B08D00023002229
:1017200014210F4820F096FA0120FFF79FF90120BD
:10173000FFF79CF90123FB770BE0BB7F002B08D15F
:101740007B69632B05D90020FFF790F900200BF08F
:10175000B3F80A2019F0C8FD8CE700BF001002584A
:101760005C08002480B483B000AF78607B689B691C
:1017700003F00103012B01D1012300E000231846EF
:101780000C37BD465DF8047B704780B483B000AF72
:1017900078607B689B6903F00203022B01D101236F
:1017A00000E0002318460C37BD465DF8047B704707
:1017B00080B483B000AF78607B689B6903F004035A
:1017C000042B01D1012300E0002318460C37BD464D
:1017D0005DF8047B704780B483B000AF78607B68AD
:1017E0009B6903F01003102B01D1012300E00023BB
:1017F00018460C37BD465DF8047B704780B483B053
:1018000000AF78607B689B6903F40043B3F5004F39
:1018100001D1012300E0002318460C37BD465DF8D6
:10182000047B704780B483B000AF786039607B6818
:101830005B6823F400423B681A437B685A6000BF30
:101840000C37BD465DF8047B7047000080B487B05C
:1018500000AFF860B9607A603B60BB68C3F309020F
:101860007B6803F400631A433B681B0403F47F03A3
:101870001A433B6A1A437B6A134323F000437B619C
:10188000FB685A687B6A5B0D03F48061064B0B436F
:10189000DB431A407B691A43FB685A6000BF1C3760
:1018A000BD465DF8047B7047FF7BFF0380B483B0C7
:1018B00000AF78607B685B6ADBB218460C37BD46C8
:1018C0005DF8047B704780B483B000AF78600B464E
:1018D000FB70FA787B689A6200BF0C37BD465DF8F2
:1018E000047B704780B588B002AFF8607B600B4620
:1018F000FB721346BB7210F01DF838610DE010F05A
:1019000019F802463B69D31A0A2B06D9FB681B68F3
:10191000184621F0D9F9022396E0FB681B681846A7
:10192000FFF76CFF0346002BE9D1FB681868FB7AD0
:10193000590097F8203001331A46454B01934FF078
:101940000073009313460022FFF780FF0FF0F2FFB1
:10195000386117E0FB681B681846FFF73CFF034639
:10196000002B01D001236FE00FF0E4FF02463B693A
:10197000D31A0A2B06D9FB681B68184621F0A4F974
:10198000032361E0FB681B681846FFF7FEFE034671
:10199000002BDFD0FB681B68BA7A11461846FFF7A8
:1019A00092FF0023FB752FE00FF0C4FF386117E0B2
:1019B000FB681B681846FFF70EFF0346002B01D09B
:1019C000012341E00FF0B6FF02463B69D31A0A2B10
:1019D00006D9FB681B68184621F076F9032333E02B
:1019E000FB681B681846FFF7D0FE0346002BDFD0CC
:1019F000FB681868FB7D7A6813441B781946FFF76B
:101A000062FFFB7D0133FB75FA7D97F820309A4227
:101A1000CAD30FF08FFF38610DE00FF08BFF024645
:101A20003B69D31A0A2B06D9FB681B68184621F0BC
:101A30004BF9032308E0FB681B681846FFF792FE8A
:101A40000346002BE9D0002318461837BD4680BD59
:101A50000020008090B589B002AFF8607B600B4633
:101A6000FB721346BB720FF065FF38610DE00FF09B
:101A700061FF02463B69D31A0A2B06D9FB681B6833
:101A8000184621F021F90223B8E0FB681B681846CC
:101A9000FFF7B4FE0346002BE9D1FB681868FB7A18
:101AA0005900584B01930023009301230022FFF7B4
:101AB000CDFE0FF03FFF386117E0FB681B6818464A
:101AC000FFF789FE0346002B01D0012396E00FF0BB
:101AD00031FF02463B69D31A0A2B06D9FB681B6803
:101AE000184621F0F1F8032388E0FB681B681846CC
:101AF000FFF74BFE0346002BDFD0FB681B68BA7A6A
:101B000011461846FFF7DFFE0FF014FF386117E0AB
:101B1000FB681B681846FFF75EFE0346002B01D0EA
:101B200001236BE00FF006FF02463B69D31A0A2B34
:101B300006D9FB681B68184621F0C6F803235DE050
:101B4000FB681B681846FFF70DFE0346002BDFD02D
:101B5000FB681B6800211846FFF764FEFB681868E5
:101B6000FB7A5900FB7A5B0043F001031C4697F8AF
:101B70002830254A01924FF0007200922246FFF76A
:101B800065FE0FF0D7FE38610023FB7530E00FF0E3
:101B9000D1FE386117E0FB681B681846FFF71BFE93
:101BA0000346002B01D0012328E00FF0C3FE0246BC
:101BB0003B69D31A0A2B06D9FB681B68184621F02B
:101BC00083F803231AE0FB681B681846FFF7F0FD53
:101BD0000346002BDFD0FB681968FB7D7A68D418B8
:101BE0000846FFF763FE03462370FB7D0133FB7558
:101BF000FA7D97F828309A42C9D3002318461C373B
:101C0000BD4690BD002000800024008080B584B0D7
:101C100000AF78600023FB60786800F095F8786882
:101C200000F00BF80346002B02D06FF00303FB60BB
:101C3000FB6818461037BD4680BD80B584B000AF44
:101C400078600023FB73786824F018FB0346002BB0
:101C500001D00123FB73FB7B18461037BD4680BDC6
:101C600080B586B000AFF860B9607A603B603B68D1
:101C70007A68B968F86824F0FDFB0346002B03D0AE
:101C80006FF003037B6101E000237B617B691846F1
:101C90001837BD4680BD80B586B000AFF860B9602A
:101CA0007A603B603B687A68B968F86824F0A6FC03
:101CB0000346002B03D06FF003037B6101E0002398
:101CC0007B617B6918461837BD4680BD80B582B000
:101CD00000AF7860786825F0A5FA0346042B14BF9E
:101CE00001230023DBB218460837BD4680BD80B50E
:101CF00084B000AF786039603968786825F0A2F860
:101D00000346002B03D06FF00303FB6001E00023C8
:101D1000FB60FB6818461037BD4680BD80B582B0B9
:101D200000AF7860786817F081FC00BF0837BD46C7
:101D300080BD80B582B000AF7860786817F0A0FCF5
:101D400000BF0837BD4680BD80B582B000AF786067
:101D5000786822F07DFB00BF0837BD4680BD80B4A7
:101D600083B000AF78607B681B6803F00103012B30
:101D700001D1012300E0002318460C37BD465DF871
:101D8000047B704780B483B000AF78607B685B6988
:101D900003F00103012B01D1012300E000231846C9
:101DA0000C37BD465DF8047B704780B483B000AF4C
:101DB00078607B685B6903F48053B3F5805F01D181
:101DC000012300E0002318460C37BD465DF8047B74
:101DD000704780B483B000AF78607B6830331B7885
:101DE000DBB218460C37BD465DF8047B704780B403
:101DF00083B000AF78600B46FB707B682033FA78C5
:101E00001A7000BF0C37BD465DF8047B704780B583
:101E100086B000AFF8600B467A60FB72F868FFF797
:101E20009EFF0346002B01D1012335E00FF082FD18
:101E30007861FB7A1946F868FFF7D9FF08E00FF0E0
:101E400079FD02467B69D31A0A2B01D9032323E0CB
:101E5000F868FFF7AAFF0346002BF0D00FF06AFDE9
:101E6000786108E00FF066FD02467B69D31A0A2B01
:101E700001D9032310E0F868FFF784FF0346002B25
:101E8000F0D07B68002B06D0F868FFF7A2FF03466E
:101E90001A467B681A70002318461837BD4680BD65
:101EA00080B584B000AF78600B46FB707868FFF7B0
:101EB00056FF0346002B01D101231BE00FF03AFD32
:101EC000F860FB7819467868FFF791FF08E00FF09B
:101ED00031FD0246FB68D31A0A2B01D9032309E01E
:101EE0007868FFF762FF0346002BF0D07868FFF7B1
:101EF00070FF002318461037BD4680BD80B582B004
:101F000000AF0346FB71FB79002B10D1FB79002B4E
:101F100006D14FF48062002107482CF097F907E0C2
:101F20004FF48062002105482CF090F900E000BFDA
:101F30000837BD4680BD00BF00F8003800FC0038FF
:101F400080B582B000AF0346FB71FB79002B04D152
:101F5000FB791846FFF7D2FF00E000BF0837BD4607
:101F600080BD80B483B000AF78607B681B6843F0AD
:101F700001027B681A6000BF0C37BD465DF8047B28
:101F8000704780B483B000AF78607B681B6823F033
:101F900001027B681A6000BF0C37BD465DF8047B08
:101FA000704780B483B000AF78607B68DB6903F072
:101FB0000203022B01D1012300E0002318460C3755
:101FC000BD465DF8047B704780B483B000AF786095
:101FD0007B68DB6903F00403042B01D1012300E0DB
:101FE000002318460C37BD465DF8047B704780B46B
:101FF00083B000AF78607B68DB6903F00803082BCF
:1020000001D1012300E0002318460C37BD465DF8DE
:10201000047B704780B483B000AF78607B68DB6975
:1020200003F08003802B01D1012300E00023184638
:102030000C37BD465DF8047B704780B483B000AFB9
:1020400078607B6802221A6200BF0C37BD465DF8DB
:10205000047B704780B483B000AF78607B68042253
:102060001A6200BF0C37BD465DF8047B704780B430
:1020700083B000AF78607B6808221A6200BF0C371B
:10208000BD465DF8047B704780B489B000AF7860CE
:102090007B68FB60FB6853E8003FBB60BB6843F0B4
:1020A0001003FB617B68FA69BA617B617969BA697F
:1020B00041E800233B613B69002BE9D100BF00BF31
:1020C0002437BD465DF8047B704780B489B000AF0B
:1020D00078607B68FB60FB6853E8003FBB60BB68CF
:1020E00043F08003FB617B68FA69BA617B617969BF
:1020F000BA6941E800233B613B69002BE9D100BF8D
:1021000000BF2437BD465DF8047B704780B489B0BA
:1021100000AF78607B68FB60FB6853E8003FBB6002
:10212000BB6823F08003FB617B68FA69BA617B615D
:102130007969BA6941E800233B613B69002BE9D129
:1021400000BF00BF2437BD465DF8047B704780B4F4
:1021500083B000AF78607B681B6803F08003802B3E
:1021600001D1012300E0002318460C37BD465DF87D
:10217000047B704780B489B000AF78607B68083317
:10218000FB60FB6853E8003FBB60BB6843F0400363
:10219000FB617B680833FA69BA617B617969BA6966
:1021A00041E800233B613B69002BE7D100BF00BF42
:1021B0002437BD465DF8047B704780B485B000AF1E
:1021C000786039603B68002B03D17B682833FB6063
:1021D00002E07B682433FB60FB6818461437BD4679
:1021E0005DF8047B704780B483B000AF78600B4625
:1021F000FB70FA787B689A6200BF0C37BD465DF8C9
:10220000047B704780B485B000AF786039607B682C
:10221000FB600C4A3B6813441B781A46FB68134466
:102220001B6808493A680A4412781146FA680A4459
:1022300043F00103136000BF1437BD465DF8047B13
:10224000704700BF1493030880B485B000AF786076
:1022500039607B68FB600C4A3B6813441B781A4664
:10226000FB6813441B6808493A680A44127811460F
:10227000FA680A4423F00103136000BF1437BD4617
:102280005DF8047B704700BF1493030880B487B0E7
:1022900000AFF860B9607A60FB687B610D4ABB688B
:1022A00013441B781A467B6913445A680A4B13403F
:1022B0000849BA680A44127811467A690A441146F4
:1022C0007A6813434B6000BF1C37BD465DF8047B42
:1022D000704700BF149303080000FFFF80B485B06F
:1022E00000AF786039607B68FB60074A3B68134445
:1022F0001B781A46FB6813445B689BB21846143778
:10230000BD465DF8047B70471493030880B487B022
:1023100000AFF860B9607A60FB687B61074ABB6810
:1023200013441B781A467B6913441A467B68D360B2
:1023300000BF1C37BD465DF8047B7047149303084B
:1023400080B487B000AFF860B9607A60FB687B61E9
:10235000074ABB6813441B781A467B6913441A4624
:102360007B68936000BF1C37BD465DF8047B7047F7
:102370001493030880B485B000AF786039607B683F
:10238000FB600C4A3B6813441B781A46FB681344F5
:102390001B6808493A680A4412781146FA680A44E8
:1023A00043F00803136000BF1437BD465DF8047B9B
:1023B000704700BF1493030880B485B000AF786005
:1023C00039607B68FB600C4A3B6813441B781A46F3
:1023D000FB6813441B6808493A680A44127811469E
:1023E000FA680A4443F00403136000BF1437BD4683
:1023F0005DF8047B704700BF1493030880B485B078
:1024000000AF786039607B68FB600C4A3B6813441E
:102410001B781A46FB6813441B6808493A680A444B
:1024200012781146FA680A4443F01003136000BFA3
:102430001437BD465DF8047B704700BF1493030852
:1024400080B485B000AF78600023FB6015E01049D0
:10245000FA6813465B019B1A9B000B441B687A6861
:102460009A4207D1FA6813465B019B1A9B00084AFF
:10247000134406E0FB680133FB60FB68022BE6DDDA
:10248000002318461437BD465DF8047B704700BF33
:10249000B8040024B0B584B002AF00237B6022E012
:1024A000B5497A6813465B019B1A9B000B441B6875
:1024B0001846FFF766FDB0497A6813465B019B1A20
:1024C0009B000B4468331868AB497A6813465B017C
:1024D0009B1A9B000B446C331B681946FFF7B4FE34
:1024E0007B6801337B607B68022BD9DD4FF400638E
:1024F0000093A24BA24A0121A2480FF0C2F84FF468
:1025000000630093A04BA14A0221A1480FF0B9F843
:1025100003220021012017F052FC0346964A53661D
:10252000954B9C6E944BDD6E01219A48FFF745FE5A
:1025300003461A4629462046FFF702FF8E4B9B6E44
:102540008D4AD16E8C4AB2F874201846FFF79EFE71
:10255000894B9B6E884AD16E874A126F1846FFF7E7
:10256000D5FE854B9B6E844AD26E11461846FFF706
:1025700045FF814B9B6E804AD26E11461846FFF78D
:10258000F9FE7D4B9B6E7C4AD26E11461846FFF7D2
:1025900013FF8048FFF7EEFD774B9B6E764AD26EB5
:1025A00011461846FFF72EFE7A48FFF76DFD4FF4EF
:1025B00080530093784B794A052179480FF061F8F0
:1025C0004FF480530093774B774A062177480FF0FA
:1025D00058F803220021012017F0F1FB0346664A58
:1025E000C2F8E030644BD3F8E440634BD3F8E850D2
:1025F00001216F48FFF7E1FD03461A4629462046B0
:10260000FFF79EFE5C4BD3F8E4305B4AD2F8E8104B
:10261000594AB2F8F0201846FFF738FE564BD3F867
:10262000E430554AD2F8E810534AD2F8EC20184664
:10263000FFF76CFE504BD3F8E4304F4AD2F8E82055
:1026400011461846FFF7DAFE4B4BD3F8E4304A4AFE
:10265000D2F8E82011461846FFF78CFE464BD3F817
:10266000E430454AD2F8E82011461846FFF7A4FEA8
:102670004F48FFF77FFD404BD3F8E4303E4AD2F895
:10268000E82011461846FFF7BDFD4948FFF7FCFC5E
:102690004FF440630093474B474A0B2147480EF0E5
:1026A000F0FF4FF440630093454B464A0C214648E7
:1026B0000EF0E7FF03220021012017F080FB034604
:1026C0002D4AC2F85C312C4BD3F860412A4BD3F829
:1026D000645101213D48FFF770FD03461A46294623
:1026E0002046FFF72DFE244BD3F86031224AD2F862
:1026F0006411214AB2F86C211846FFF7C7FD1E4B42
:10270000D3F860311C4AD2F864111B4AD2F8682110
:102710001846FFF7FBFD184BD3F86031164AD2F884
:10272000642111461846FFF769FE134BD3F8603158
:10273000114AD2F8642111461846FFF71BFE0E4BD2
:10274000D3F860310C4AD2F8642111461846FFF7DD
:1027500033FE1E48FFF70EFD074BD3F86031064AE3
:10276000D2F8642111461846FFF74CFD1748FFF7D1
:102770008BFC00233B6039E0B8040024CC380024F3
:102780003CFF0208BC040024CC40002448FF02089F
:10279000EC04002400100140CC58002454FF02082F
:1027A00038050024CC68002460FF02086805002476
:1027B00000440040CC8400246CFF0208B4050024CF
:1027C000CC90002478FF0208E40500240078004043
:1027D0000A493A6813465B019B1A9B000B441B682D
:1027E0001846FFF7BEFB3B6801333B603B68022B9A
:1027F000EEDD002318460837BD46B0BDB8040024FE
:1028000080B584B000AF78600B46FB707868FFF746
:1028100017FEB860BB68002B1FD0134BFB6005E0B0
:10282000FB68013BFB60FB68002B18D0BB683433AE
:10283000FA78114618460EF057FF034683F001035D
:10284000DBB2002BECD17868FFF781FC0346002B4C
:1028500006D17868FFF739FC02E000BF00E000BF56
:102860001037BD4680BD00BF20A1070080B584B0F1
:1028700000AF786039607868FFF7E2FDF860FB68C8
:10288000002B11D03B68002B0ED008E03B681B7872
:1028900019467868FFF7B4FF3B6801333B603B683B
:1028A0001B78002BF2D100E000BF1037BD4680BD81
:1028B00080B584B000AF78607868FFF7C1FDF8603C
:1028C000FB68002B75D0FB681B68DB6903F0020313
:1028D000002B03D0FB681B6802221A62FB681B688E
:1028E000DB6903F00403002B03D0FB681B680422A0
:1028F0001A62FB681B68DB6903F48053002B04D069
:10290000FB681B684FF480521A62FB681B68DB6926
:1029100003F40033002B04D0FB681B684FF4003233
:102920001A62FB681B681846FFF73BFB0346002B47
:1029300004D0FB681B681846FFF77FFBFB681B6829
:102940001846FFF741FB0346002B04D0FB681B68C9
:102950001846FFF77FFBFB681B681846FFF747FB2D
:102960000346002B04D0FB681B681846FFF77FFB6B
:102970007868FFF74FFB0346002B1BD07868FFF702
:10298000E6FB0346002B15D0FB68343307F10B023E
:10299000114618460EF0EEFE0346002B05D0FB7ADA
:1029A00019467868FFF71FFC04E07868FFF7AEFB74
:1029B00000E000BF1037BD4680BD000080B58AB082
:1029C00000AF78600023BB607868FFF739FDB8611D
:1029D000BB69002B7CD0BB699B6F7B61BB699A6E26
:1029E000BB69DB6E19461046FFF778FC03467B8215
:1029F000BB69B3F874301A467B8AD31AFB60FA6855
:102A00007B699A4265D0FA687B699A4214D97B69DE
:102A10007B620CE0BB69181DBB691A6F7B6A1344AB
:102A20001B7819460EF060FE7B6A01337B627A6A7E
:102A3000FB689A42EED32AE07B693B620CE0BB69FB
:102A4000181DBB691A6F3B6A13441B7819460EF0B8
:102A50004BFE3B6A01333B62BB69B3F874301A46E4
:102A60003B6A9342EBD30023FB610CE0BB69181D6A
:102A7000BB691A6FFB6913441B7819460EF034FECC
:102A8000FB690133FB61FA69FB689A42EED3BB69CB
:102A90005B6E07F108021146184617F045FBBB684C
:102AA000002B07D00C4B4FF080521A60BFF34F8FB2
:102AB000BFF36F8FBB69FA689A67BB699B6FBA698E
:102AC000B2F87420934204D1BB6900229A6700E0F7
:102AD00000BF2837BD4680BD04ED00E080B584B05E
:102AE00000AF78607868FFF7ABFCF860FB68002BFC
:102AF00002D14FF0FF330EE0FB68043307F10B0205
:102B0000114618460EF036FE0346002B01D0FB7A24
:102B100001E04FF0FF3318461037BD4680BD80B549
:102B200084B000AF78607868FFF78AFCF860FB68D3
:102B3000002B01D1002305E0FB68043318460EF09A
:102B400096FE034618461037BD4680BD80B584B05A
:102B500000AF78607868FFF773FCF860FB68002BC3
:102B600001D1002306E0FB68343318460EF043FE23
:102B7000034600BF18461037BD4680BD80B483B001
:102B800000AF786039607B681A693B6813403A6827
:102B90009A4201D1012300E0002318460C37BD46BC
:102BA0005DF8047B704780B483B000AF7860396013
:102BB0007B683A689A6100BF0C37BD465DF8047BBC
:102BC000704780B483B000AF786039603B681A0406
:102BD0007B689A6100BF0C37BD465DF8047B704787
:102BE00080B586B000AF786018F0E0FD0346FB606A
:102BF0004FF400413748FFF7E4FF0023FB7518F05E
:102C0000D5FD38610DE04FF400613348FFF7B6FFA2
:102C10000346002B02D10123FB750AE0322018F095
:102C200063FB18F0C3FD02463B69D31AB3F5FA7F84
:102C3000E9D34FF400412748FFF7B5FF0023BB75E8
:102C400018F0B4FD38610DE04FF400612248FFF741
:102C500095FF0346002B02D00123BB750AE032200A
:102C600018F042FB18F0A2FD02463B69D31AB3F5F7
:102C7000FA7FE9D3FB7D002B06D0BB7D002B03D070
:102C8000164B00221A8005E0144B1B8801339AB2C0
:102C9000124B1A80114B1B88772B12D90022104936
:102CA00004200CF0E1FE80210E48FFF78AFF64202B
:102CB00018F01AFB80210B48FFF775FF074B002225
:102CC0001A8007F10C0341F28831184618F084FA93
:102CD0008EE700BF0014025800100258CC9C00245C
:102CE00084FF02080018025880B400AF034B1B8811
:102CF0001846BD465DF8047B704700BFCC9C00249D
:102D000080B485B000AF78600D4BFB600CE07B6851
:102D10005A1C7A601B781A46FB685340FB60FB68BC
:102D2000084A02FB03F3FB607B681B78002BEED1A3
:102D3000FB6818461437BD465DF8047B704700BF3A
:102D4000C59D1C819301000180B485B000AF7860FF
:102D500039607A683B685340FB60FB681B0CFA687B
:102D60001343FB60FB681B0AFA681343FB60FB68B4
:102D7000DBB2002B0CBF01230023DBB21846143753
:102D8000BD465DF8047B704780B584B000AF7860C5
:102D90007868FFF7B5FFF860054BBB60B968F86865
:102DA000FFF7D2FF034618461037BD4680BD00BF6F
:102DB000A37B47C580B584B000AF78600DF0BEF945
:102DC000F8600023FB7207F10B0201230021F86871
:102DD0000DF0ABFA0346002B02D1FB7A102B07D97A
:102DE0001549786800F020F9144B01221A6020E0A0
:102DF000FB7A002B16D0FB7A114A0121F8680DF0FE
:102E000094FA0346002B05D1FB7A1A460C4B00219D
:102E100099540EE00849786800F006F9074B012242
:102E20001A6006E00449786800F0FEF8034B0122BE
:102E30001A601037BD4680BDA8FF0208E49C00243C
:102E4000D09C002480B584B000AF78600E4B1B6826
:102E5000012B0BD17868FFF753FFF8600B4BBB6079
:102E6000B968F868FFF770FF034609E00849786819
:102E7000FDF736FA0346002B01D1012300E00023C1
:102E800018461037BD4680BDE49C0024A37B47C58F
:102E9000D09C002480B582B000AF78607B6893F846
:102EA0002830042B10D17B685B6D5A1C7B685A65F7
:102EB0007B685B6D064A934206D3786800F068F839
:102EC0000449786800F0B0F800BF0837BD4680BDFF
:102ED000E0930400E4FF020880B483B000AF7860A0
:102EE0007B6893F82830042B02D17B6800225A6556
:102EF00000BF0C37BD465DF8047B704780B582B0DB
:102F000000AF786039607B683A689A657B68002218
:102F10001A627B6800225A627B68002283F82820AC
:102F20007B680022DA627B6800221A657B680022D7
:102F30005A657B682022002118462BF087F97B68B0
:102F400030332022002118462BF080F90B49786895
:102F500000F06AF80A49786800F066F8094978686C
:102F600000F062F80849786800F05EF80749786870
:102F700000F05AF800BF0837BD4680BD10000308B6
:102F80001800030820000308340003083C0003086D
:102F900080B582B000AF78607B6801221A627B68DE
:102FA00000225A627B68002283F828207B68002276
:102FB000DA627B6800221A657B6800225A657B68AA
:102FC0002022002118462BF041F97B683033202263
:102FD000002118462BF03AF90D49786800F024F8E2
:102FE0000C49786800F020F80B49786800F01CF86C
:102FF0000A49786800F018F80949786800F014F870
:103000000849786800F010F800BF0837BD4680BD59
:103010001000030818000308200003083400030808
:103020003C0003084000030880B582B000AF786020
:10303000396007E07B689A6D3B68591C39601B78E2
:10304000184690473B681B78002BF3D100BF00BFA8
:103050000837BD4680BD000080B582B000AF786003
:103060007B6893F82830002B37D17B6824491846B9
:10307000FDF736F90346002B0BD17B68012283F85C
:1030800028207B680022DA621E497868FFF7CCFFAF
:1030900031E07B681C491846FDF722F90346002BF6
:1030A0000ED17868FFF786FE7B68022283F828201D
:1030B0007B680022DA6213497868FFF7B5FF1AE0EF
:1030C00012497868FFF7B0FF11497868FFF7ACFF45
:1030D00010497868FFF7A8FF0DE07B6893F8283067
:1030E000032B04D07B6893F82830042B03D10A49C2
:1030F0007868FFF799FF00BF0837BD4680BD00BF65
:1031000058000308600003086C00030874000308FB
:103110003C00030840000308A0000308F0B59DB080
:1031200006AF78600B46FB707B6893F82830012B64
:1031300005D07B6893F82830022B40F03A810A22B0
:10314000FB78934204D00D22FB78934240F0028139
:103150007B681B6D7A681344002283F830207B68FB
:1031600093F82830012B5ED17B6830331846FFF787
:103170000BFE0346012B56D17B68032283F82820DF
:10318000A6497868FFF750FFA5497868FFF74CFF1C
:10319000A4497868FFF748FF07F1500318460EF07E
:1031A000CFF997F850301E4697F8513097F85220D3
:1031B00097F8531097F85400044697F855000546C1
:1031C00007F108000495039402910192009333469D
:1031D000954A40212AF00AFF07F10803194678684A
:1031E000FFF722FF8D497868FFF71EFF8F49786847
:1031F000FFF71AFF8E497868FFF716FF8D49786848
:10320000FFF712FF8C497868FFF70EFF8B4978684B
:10321000FFF70AFF85497868FFF706FF7F4978685E
:10322000FFF702FF92E07B6893F82830022B5ED113
:103230007B6830331846FFF705FE0346012B56D155
:103240007B68042283F8282074497868FFF7ECFE35
:1032500073497868FFF7E8FE79497868FFF7E4FE7C
:1032600007F1480318460EF06BF997F848301E46F0
:1032700097F8493097F84A2097F84B1097F84C0088
:10328000044697F84D00054607F10800049503949D
:103290000291019200933346634A40212AF0A6FE30
:1032A00007F1080319467868FFF7BEFE5B497868A6
:1032B000FFF7BAFE5D497868FFF7B6FE5C497868AB
:1032C000FFF7B2FE5B497868FFF7AEFE5A497868AF
:1032D000FFF7AAFE59497868FFF7A6FE53497868B8
:1032E000FFF7A2FE4D497868FFF79EFE2EE07B684F
:1032F000DB6A5A1C7B68DA6248497868FFF794FEFB
:103300007B68DB6A0322934214DB7B68002283F82C
:1033100028204C497868FFF787FE40497868FFF716
:1033200083FE3E497868FFF77FFE47497868FFF7DC
:103330007BFE0BE045497868FFF776FE37497868F1
:10334000FFF772FE42497868FFF76EFE7B68002245
:103350001A65B2E07F22FB78934216D17B681B6D21
:10336000002B40F3AA807B681B6D5A1E7B681A6590
:103370007B689B6D082098477B689B6D2020984751
:103380007B689B6D0820984797E07B681B6D1E2B20
:1033900000F393807B681B6D591C7A6811657A680D
:1033A0001344FA7883F830207B689B6D2A20984775
:1033B00083E07B6893F82830032B04D07B6893F874
:1033C0002830042B04D123497868FFF72DFE75E0DF
:1033D0000A22FB78934203D00D22FB7893423BD123
:1033E0007B685B6A7A680021D1547B685B6A002B3A
:1033F0000ADD0A497868FFF717FE7868FFF72CFEA8
:103400007B6800225A6259E004497868FFF70CFE95
:103410000D497868FFF708FE50E000BF3C00030844
:10342000B00003081C0103084401030870010308ED
:1034300098010308C0010308E8010308100203080B
:10344000380203085C0203084000030888020308EE
:1034500060000308B00203087F22FB7893421AD170
:103460007B685B6A002B29DD7B685B6A5A1E7B6880
:103470005A627B685B6A7A680021D1547B689B6DD5
:10348000082098477B689B6D202098477B689B6D40
:103490000820984712E07B685B6A1E2B0EDC7B6875
:1034A0005B6A591C7A6851627A68F978D1547B68F2
:1034B0009B6DFA781046984700E000BF00BF5C376C
:1034C000BD46F0BD80B483B000AF78607B6893F8F0
:1034D000283018460C37BD465DF8047B7047000065
:1034E00080B400AFBFF34F8F00BF064BDB6803F41F
:1034F000E0620449044B1343CB60BFF34F8F00BF1E
:1035000000BFFDE700ED00E00400FA0580B483B0E1
:1035100000AF786039607B683A689A6100BF0C3709
:10352000BD465DF8047B704780B483B000AF78601F
:1035300039603B681A047B689A6100BF0C37BD464E
:103540005DF8047B704780B485B000AF03460A463F
:10355000FB8013467B7141F22103BB817B791BB257
:103560001B021AB2B7F9063053401BB2FB8000238E
:10357000FB7313E0B7F90630002B09DAB7F9063010
:103580005B001AB2B7F90C3053401BB2FB8002E06B
:10359000FB885B00FB80FB7B0133FB73FB7B072B12
:1035A000E8D9FB8818461437BD465DF8047B7047A0
:1035B00080B5A8B002AFF860B9607A600121B86840
:1035C00003F096FAC7F884000221B86803F090FA75
:1035D000C7F880000023A7F89630D7F88430002B76
:1035E00003D0D7F88030002B04D1A049F86803F04D
:1035F000BDF938E1D7F884002AF0F4FAF867002220
:103600000021D7F880002AF025FCB867BB6F002B9B
:1036100003D0BB6FB3F5483F0ED907F110004FF44C
:103620004833934A64212AF0E1FC07F1100319465C
:10363000F86803F09BF916E1FDF710FA0346032B37
:103640001BD0FDF70BFA0346022B08D0FDF706FA54
:103650000346012B01D1874B02E0874B00E0874BEB
:1036600007F11000864A64212AF0C0FC07F110031C
:103670001946F86803F07AF9F5E00220FDF7D2F96F
:10368000FB6F032B6DD0FB6F032B00F39C80FB6F54
:10369000012B03D0FB6F022B2CD094E00023C7F842
:1036A00090301AE0D7F8903087F87530D7F890301E
:1036B000744A134497F875201A7097F87520B7F874
:1036C000963011461846FFF73EFF0346A7F896309E
:1036D000D7F890300133C7F89030D7F89020BB6FFF
:1036E0009A42DFD307F11000BB6F674A64212AF0CA
:1036F0007DFC70E00023C7F88C3025E0D7F88C10F3
:10370000624BA3FB01239A0913465B0013445B0140
:10371000CA1AD3B2203387F87630D7F88C30594A9A
:10372000134497F876201A7097F87620B7F89630F9
:1037300011461846FFF707FF0346A7F89630D7F85B
:103740008C300133C7F88C30D7F88C20BB6F9A428D
:10375000D4D307F11000BB6F4D4A64212AF046FC18
:1037600039E00023C7F8883020E02AF03FFA03460A
:103770005A42DBB2D2B258BF534287F87730D7F8FB
:103780008830404A134497F877201A7097F87720CA
:10379000B7F8963011461846FFF7D5FE0346A7F84E
:1037A0009630D7F888300133C7F88830D7F88820AA
:1037B000BB6F9A42D9D307F11000BB6F354A642121
:1037C0002AF014FC07E03449F86803F0CFF803202E
:1037D000FDF728F947E04FF47A7017F085FD0120D6
:1037E000FDF720F907F110031946F86803F0BEF859
:1037F000244A244B1B7807F1100000931346274AF4
:1038000064212AF0F3FB07F110031946F86803F06E
:10381000ADF8BB6F013B1B4A13441946BB6F013B1C
:10382000184A13441B7807F1100000930B461C4AFA
:1038300064212AF0DBFB07F110031946F86803F056
:1038400095F8B7F8963007F11000164A64212AF06F
:10385000CDFB07F110031946F86803F087F8124909
:10386000F86803F083F89837BD4680BDD80E03088A
:10387000280F0308500F03085C0F0308640F0308A8
:103880006C0F030800000030900F0308ABAAAAAA2F
:10389000C00F0308F00F03081410030844100308B6
:1038A0006810030888100308A010030880B5AAB0A8
:1038B00002AFF860B9607A600121B86803F018F9C6
:1038C000C7F884001023C7F880300023C7F89C3065
:1038D0000023A7F89A30D7F88430002B04D17C4914
:1038E000F86803F043F8EFE000220021D7F88400E5
:1038F0002AF0B0FAF86707F11400FB6F754A6421EB
:103900002AF074FB07F114031946F86803F02EF847
:10391000714A07F11400704B009313466F4A6421FB
:103920002AF064FB07F114031946F86803F01EF847
:103930000023C7F89430ACE0674AD7F894301344BA
:1039400007F11400664A64212AF050FB07F11403C2
:103950001846FCF7CFFC024607F114031344C7F8DE
:1039600090300023C7F88C3030E0D7F89420D7F897
:103970008C301344584AD35C87F87B3007F114032A
:10398000D7F89020D31AC3F1640197F87B30554AD9
:10399000D7F890002AF02AFBD7F890300333C7F805
:1039A0009030D7F89C300133C7F89C3097F87B20D3
:1039B000B7F89A3011461846FFF7C5FD0346A7F839
:1039C0009A30D7F88C300133C7F88C30D7F88C2078
:1039D000D7F880309A4207D2D7F89420D7F88C30A5
:1039E0001344FA6F9A42C0D8D7F890305A1CC7F8DF
:1039F000902020221A70D7F890305A1CC7F89020D7
:103A00007C221A700023C7F8883020E0D7F8942071
:103A1000D7F888301344304AD35C87F87A3097F867
:103A20007A301F2B06D997F87A307E2B02D897F878
:103A30007A1000E02E21D7F890305A1CC7F8902059
:103A40000A461A70D7F888300133C7F88830D7F89B
:103A50008820D7F880309A4207D2D7F89420D7F838
:103A600088301344FA6F9A42D0D8D7F890300022A9
:103A70001A7007F114031946F86802F077FF012065
:103A800017F032FCD7F89420D7F880301344C7F8E9
:103A90009430D7F89420FB6F9A42FFF44DAFB7F8FB
:103AA0009A3007F114000093D7F89C300E4A642135
:103AB0002AF09CFA07F114031946F86802F056FF41
:103AC0000A49F86802F052FFA037BD4680BD00BF2A
:103AD000A4100308CC10030800000038F4100308F9
:103AE00018110308241103082C110308A01003085F
:103AF00080B5A0B000AFF860B9607A600121B86805
:103B000002F0F6FFF867FB6F002B04D13449F86828
:103B100002F02CFF60E03349F86FFCF7E1FB03464D
:103B2000002B42D1FCF79AFF034687F87B3097F8C9
:103B30007B30032B2AD801A252F823F04D3B00081A
:103B40005D3B00086D3B00087D3B000807F1140356
:103B5000254A642118462AF049FA1FE007F11403A8
:103B6000224A642118462AF041FA17E007F11403AB
:103B70001F4A642118462AF039FA0FE007F11403AE
:103B80001C4A642118462AF031FA07E007F11403B1
:103B9000194A642118462AF029FA00BF07F11403D4
:103BA0001946F86802F0E2FE12E01449F86FFCF7DB
:103BB00097FB0346002B07D10320FCF733FF104986
:103BC000F86802F0D3FE03E00E49F86802F0CEFE7A
:103BD0000D49F86802F0CAFE8037BD4680BD00BFBF
:103BE0006411030884110308881103089C11030859
:103BF000B4110308C8110308DC110308C80703083F
:103C0000F411030810120308A010030880B5A0B037
:103C100000AFF860B9607A600DF02AF9F867FB6FC1
:103C20001B7D83F00103DBB2002B04D01749F86839
:103C300002F09CFE27E00DF059FA034687F87B302E
:103C400097F87B30002B0DD107F11403104A642143
:103C500018462AF0CBF907F114031946F86802F068
:103C600085FE0CE007F114030A4A642118462AF085
:103C7000BDF907F114031946F86802F077FE06490A
:103C8000F86802F073FE8037BD4680BD401203081D
:103C9000641203088C120308A010030890B5ABB09F
:103CA00004AFF860B9607A600121B86802F020FFC3
:103CB000C7F894000221B86802F01AFFC7F8900014
:103CC000D7F89430002B03D0D7F89030002B04D1D4
:103CD0003449F86802F04AFE61E0D7F8940029F010
:103CE00081FF034687F88F3000220021D7F890002B
:103CF0002AF0B0F8C7F888002B4A97F88F30D7F829
:103D0000881018460DF0ECF8034687F8873097F8CE
:103D10008730002B1ED107F1100318460DF07CF9F7
:103D20000346002B37D17A693B7C1946BB69B88BB7
:103D3000044607F1200002940193009113461B4AA8
:103D400064212AF053F907F120031946F86802F0BC
:103D50000DFE20E097F88730022B0ED197F88F30B8
:103D600007F12000124A64212AF040F907F12003EC
:103D70001946F86802F0FAFD0DE097F8873007F170
:103D800020000C4A64212AF031F907F1200319467A
:103D9000F86802F0EBFD0849F86802F0E7FD9C378F
:103DA000BD4690BDB012030800000030D4120308D5
:103DB0001413030834130308A010030880B5A4B03B
:103DC00002AFF860B9607A600DF0CAF9034687F86F
:103DD000873097F88730032B38D801A252F823F0A8
:103DE000433E0008053E0008FB3D0008F13D000889
:103DF0001D49F86802F0BAFD2DE01C49F86802F090
:103E0000B5FD28E007F1100318460DF005F903464B
:103E1000002B11D1BB8B1A46BB6907F12000009320
:103E20001346134A64212AF0E1F807F120031946EA
:103E3000F86802F09BFD0EE00E49F86802F096FD6E
:103E400009E00D49F86802F091FD04E00B49F868BB
:103E500002F08CFD00BF0A49F86802F087FD00BF40
:103E60008837BD4680BD00BF5C1303086813030894
:103E700074130308A4130308D0130308E013030802
:103E8000A010030880B5A6B002AFF860B9607A60F0
:103E90000121B86802F02CFEC7F88400D7F88430FE
:103EA000002B04D13A49F86802F060FD6CE0002272
:103EB0000021D7F8840029F0CDFFC7F880000CF06E
:103EC000A7FCF867FB6FDB7A83F00103DBB2002B02
:103ED00004D03049F86802F049FD55E02E4BD7F880
:103EE000801018460CF0E0FC034687F87B304FF456
:103EF00000512A48FFF70AFB97F87B30002B31D19D
:103F00000023A7F88E300023C7F8883012E0224A39
:103F1000D7F8883013441A78B7F88E30114618460F
:103F2000FFF711FB0346A7F88E30D7F8883001332E
:103F3000C7F88830D7F88820D7F880309A42E6D37F
:103F4000B7F88E3007F114000093D7F88030144A88
:103F500064212AF04BF807F114031946F86802F0BF
:103F600005FD0DE097F87B3007F114000D4A642140
:103F70002AF03CF807F114031946F86802F0F6FC41
:103F80000949F86802F0F2FC9037BD4680BD00BFD9
:103F9000F01303081C140308000000380010025836
:103FA000401403086C140308A010030880B588B0FF
:103FB00000AFF860B9607A604FF400510948FFF72C
:103FC000B3FA07F11403084A0A2118462AF00EF83A
:103FD00007F114031946F86802F0C8FC00BF203747
:103FE000BD4680BD0010025890140308F0B5B3B070
:103FF00006AFF860B9607A600121B86802F078FD18
:10400000C7F8AC000221B86802F072FDC7F8A8003A
:104010000321B86802F06CFDC7F8A4000421B86859
:1040200002F066FDC7F8A0000521B86802F060FD47
:10403000C7F89C000621B86802F05AFDC7F898003E
:10404000D7F8AC30002B13D0D7F8A830002B0FD006
:10405000D7F8A430002B0BD0D7F8A030002B07D016
:10406000D7F89C30002B03D0D7F89830002B0DD117
:1040700007F11803624A6421184629F0B7FF07F1D7
:1040800018031946F86802F071FCB6E0D7F8AC00E6
:1040900029F0A8FDC7F89400D7F8A80029F0A2FDE0
:1040A000C7F89000D7F8A40029F09CFDC7F88C0051
:1040B000D7F8A00029F096FDC7F88800D7F89C0033
:1040C00029F090FDC7F88400D7F8980029F08AFD00
:1040D000C7F88000D7F89430002B03DBD7F8943072
:1040E000172B04DD4749F86802F040FC85E0D7F85B
:1040F0009030002B03DBD7F890303B2B04DD424996
:10410000F86802F033FC78E0D7F88C30002B03DB42
:10411000D7F88C303B2B04DD3C49F86802F026FCD4
:104120006BE0D7F88830002B03DDD7F888301F2BE1
:1041300004DD3749F86802F019FC5EE0D7F88430F6
:10414000002B03DDD7F884300C2B04DD3149F868EF
:1041500002F00CFC51E0D7F88030002B03DBD7F8DD
:104160008030632B04DD2C49F86802F0FFFB44E04B
:10417000D7F89430DBB2FB74D7F89030DBB23B75E4
:10418000D7F88C30DBB27B75D7F88830DBB23B7464
:10419000D7F88430DBB27B74D7F88030DBB2BB74E5
:1041A00007F1100318460DF0E1F90BF097FEF867E0
:1041B00007F110031946F86F0BF0E6FEFB7C1E4674
:1041C0003B7D7A7D397C787C0446B87C054607F1D6
:1041D00018000495039402910192009333460F4A0C
:1041E000642129F003FF07F118031946F86802F06B
:1041F000BDFB0B49F86802F0B9FBB437BD46F0BD12
:1042000098140308D81403080C1503084015030874
:1042100074150308A4150308D8150308201603080D
:10422000A0100308F0B5B7B006AFF860B9607A60C7
:104230000121B86802F05CFCC7F8BC00D7F8BC30BC
:10424000002B0DD107F14803C84A6421184629F014
:10425000CDFE07F148031946F86802F087FB82E1BA
:10426000C349D7F8BC00FCF73BF80346002B3FD10D
:104270000BF034FEC7F8AC0007F140031946D7F83D
:10428000AC000BF035FE0346002B2CD107F13E03AA
:104290001946D7F8AC000BF0BBFE97F843309C46AC
:1042A00097F8443097F8452097F8401097F8410068
:1042B000044697F842000546B7F93E00064607F166
:1042C0004800059604950394029101920093634679
:1042D000A84A642129F08AFE07F148031946F868C4
:1042E00002F044FB3BE1A449F86802F03FFB36E1F1
:1042F000A249D7F8BC00FBF7F3FF0346002B26D1F9
:1043000007F1380318460DF01BF997F83B301E46AD
:1043100097F83C3097F83D2097F8381097F8390017
:10432000044697F83A00054607F1480004950394BF
:104330000291019200933346914A642129F056FE7E
:1043400007F148031946F86802F010FB07E18D49B0
:10435000D7F8BC00FBF7C4FF0346002B2ED1002387
:104360007B63002387F83330002387F83230002343
:1043700087F8313007F1310307F1320207F13301D9
:1043800007F134000DF036F997F833301C4697F8F2
:10439000323097F83120796BC9B207F148000291A9
:1043A000019200932346784A642129F01FFE07F109
:1043B00048031946F86802F0D9FAD0E07349D7F8F3
:1043C000BC00FBF78DFF0346002B12D10DF004F962
:1043D000C7F8B00007F14800D7F8B0306C4A642144
:1043E00029F004FE07F148031946F86802F0BEFA06
:1043F000B5E06849D7F8BC00FBF772FF0346002B15
:1044000040F0A0800BF06AFDC7F8B80007F1280360
:104410001946D7F8B8000BF06BFD0346002B2CD1E2
:1044200007F116031946D7F8B8000BF0F1FD97F81D
:104430002B309C4697F82C3097F82D2097F82810B1
:1044400097F82900044697F82A000546B7F91600A0
:10445000064607F1480005960495039402910192DF
:1044600000936346434A642129F0C0FD07F14803E5
:104470001946F86802F07AFA03E04749F86802F052
:1044800075FA07F1200318460DF05AF897F8233013
:104490001E4697F8243097F8252097F8201097F8B3
:1044A0002100044697F82200054607F148000495CC
:1044B00003940291019200933346314A642129F01A
:1044C00095FD07F148031946F86802F04FFA0023FA
:1044D000FB610023FB760023BB7600237B7607F18C
:1044E000190307F11A0207F11B0107F11C000DF077
:1044F00081F8FB7E1C46BB7E7A7EF969C9B207F162
:10450000480002910192009323461F4A642129F03A
:104510006DFD07F148031946F86802F027FA0DF01F
:104520005BF8C7F8B40007F14800D7F8B430184A70
:10453000642129F05BFD07F148031946F86802F091
:1045400015FA0CE007F14803144A6421184629F0D3
:104550004DFD07F148031946F86802F007FA1049C3
:10456000F86802F003FAC437BD46F0BD50160308E0
:104570007C16030884160308CC160308E816030803
:10458000F01603082C1703083417030868170308EC
:104590007017030880170308841703089C17030883
:1045A000A0100308F0B5A9B006AFF860B9607A6052
:1045B0000121B86802F09CFAC7F88400D7F884306B
:1045C000002B0DD107F118032F4A6421184629F05A
:1045D0000DFD07F118031946F86802F0C7F950E01D
:1045E00000220021D7F8840029F034FCC7F88000AD
:1045F000D7F88030254A93420DD807F11800244B94
:10460000244A642129F0F2FC07F118031946F868DE
:1046100002F0ACF935E0D7F880000CF0BDFFD7F818
:1046200080201D4B134407F11002114618460CF070
:1046300049FE0BF053FCF86707F110031946F86FB9
:104640000BF0A2FCFB7C1E463B7D7A7D397C787C9E
:104650000446B87C054607F11800049503940291BE
:104660000192009333460D4A642129F0BFFC07F103
:1046700018031946F86802F079F90949F86802F058
:1046800075F98C37BD46F0BDD41703087F436D38EC
:1046900080436D38F017030880BC92C720160308CA
:1046A000A010030880B5A4B002AFF860B9607A60CA
:1046B0000121B86802F01CFAC7F884000221B8682A
:1046C00002F016FAC7F88000D7F88430002B03D028
:1046D000D7F88030002B0DD107F11403254A64214F
:1046E000184629F083FC07F114031946F86802F014
:1046F0003DF93CE000220021D7F8840029F030FB8E
:104700000346A7F87E3000220021D7F8800029F068
:1047100027FB0346DBB2FB740BF010FDB867B7F85C
:104720007E1007F113020123B86F0BF06FFD0346F3
:10473000002B0AD1B7F87E30FA7C07F11400009202
:104740000D4A642129F052FC07E0B7F87E3007F1EA
:1047500014000A4A642129F049FC07F114031946A0
:10476000F86802F003F90649F86802F0FFF88837A4
:10477000BD4680BD101803083418030854180308F8
:10478000A010030880B5A4B002AFF860B9607A60E9
:104790000121B86802F0ACF9C7F88400D7F884307A
:1047A000002B0DD107F11803224A6421184629F085
:1047B0001DFC07F118031946F86802F0D7F835E038
:1047C00000220021D7F8840029F0CAFA0346A7F88E
:1047D00082300023FB750BF0B1FCF867B7F882104C
:1047E00007F117020123F86F0BF09FFD0346002B22
:1047F0000AD1B7F88230FA7D07F1180000920E4A0C
:10480000642129F0F3FB07E0B7F8823007F11800C4
:104810000A4A642129F0EAFB07F118031946F868EF
:1048200002F0A4F80649F86802F0A0F88837BD46FF
:1048300080BD00BF701803088C180308AC1803086B
:10484000A010030880B584B000AFF860B9607A604A
:10485000F86804F069FA0449F86802F087F800BFC4
:104860001037BD4680BD00BFA010030880B584B0DE
:1048700000AFF860B9607A6003F0F4FE0549F868AB
:1048800002F074F80449F86802F070F800BF1037BD
:10489000BD4680BDC8180308A010030880B584B0C9
:1048A00000AFF860B9607A6003F048FF0549F86826
:1048B00002F05CF80449F86802F058F800BF1037BD
:1048C000BD4680BDE0180308A010030880B5A6B05F
:1048D00000AFF860B9607A600121B86802F008F9A9
:1048E000C7F894000221B86802F002F9C7F89000F6
:1048F000D7F89430002B03D0D7F89030002B04D198
:104900001149F86802F032F81BE0D7F89020D7F888
:104910009410F86804F01CF90346002B0DD107F140
:104920001000D7F89430094A802129F05FFB07F185
:1049300010031946F86802F019F80549F86802F002
:1049400015F89837BD4680BDF818030818190308F4
:10495000A010030880B5A8B000AFF860B9607A6015
:104960000121B86802F0C4F8C7F89C000221B868B9
:1049700002F0BEF8C7F89800D7F89C30002B03D09F
:10498000D7F89830002B04D11C49F86801F0EEFFED
:1049900031E0D7F89800FBF7ADFCC7F89400D7F8E2
:1049A0009430B3F5005F04D91549F86801F0DEFFD3
:1049B00021E0D7F89420D7F89810D7F89C0003F09E
:1049C00027FF0346002B0ED107F11400D7F89C30C7
:1049D0000C4A802129F00AFB07F114031946F868F4
:1049E00001F0C4FF03E00849F86801F0BFFF074980
:1049F000F86801F0BBFFA037BD4680BDF81803087A
:104A000030190308181903084C190308A0100308EB
:104A100080B586B000AFF860B9607A600121B868EF
:104A200002F066F878617B69002B04D10749F868C9
:104A300001F09CFF07E07969F86803F0AFFF0449D3
:104A4000F86801F093FF1837BD4680BD641903086C
:104A5000A010030880B584B000AFF860B9607A6038
:104A600080210B48FEF760FD642016F03DFC80219C
:104A70000748FEF74BFD0749F86801F077FF064944
:104A8000F86801F073FF00BF1037BD4680BD00BF5E
:104A9000001802587C190308A010030880B584B0E0
:104AA00000AFF860B9607A604FF480710748FEF794
:104AB0002DFD0749F86801F059FF0649F86801F033
:104AC00055FF00BF1037BD4680BD00BF001802581B
:104AD00098190308A010030880B584B000AFF860EF
:104AE000B9607A604FF480710748FEF71DFD0749F1
:104AF000F86801F03BFF0649F86801F037FF00BF96
:104B00001037BD4680BD00BF00180258C019030809
:104B1000A010030880B586B000AFF860B9607A6075
:104B20000121B86801F0E4FF78617B69002B04D1B2
:104B30001E49F86801F01AFF35E01D497869FBF756
:104B4000CFFB0346002B07D11A49F86801F00EFF8E
:104B50000120FBF78BFF22E017497869FBF7C0FBC8
:104B60000346002B07D11549F86801F0FFFE02202B
:104B7000FBF77CFF13E012497869FBF7B1FB0346B2
:104B8000002B07D10F49F86801F0F0FE0020FBF779
:104B90006DFF04E00C49F86801F0E8FE03E00B4902
:104BA000F86801F0E3FE1837BD4680BDE819030838
:104BB0000C1A0308101A0308401A0308441A0308C1
:104BC000741A03087C1A0308B01A0308A01003081B
:104BD00080B584B000AFF860B9607A600520FBF75B
:104BE00045FF0449F86801F0C1FE00BF1037BD461B
:104BF00080BD00BFA010030880B586B000AFF8608C
:104C0000B9607A600121B86801F072FF78617B6950
:104C1000002B04D11E49F86801F0A8FE34E01D49BC
:104C20007869FBF75DFB0346002B07D10320FBF7F8
:104C30001DFF1949F86801F099FE21E017497869CC
:104C4000FBF74EFB0346002B07D10420FBF70EFFBA
:104C50001349F86801F08AFE12E012497869FBF7FF
:104C60003FFB0346002B07D10020FBF7FFFE0E4958
:104C7000F86801F07BFE03E00C49F86801F076FE6D
:104C80000B49F86801F072FE1837BD4680BD00BFC1
:104C9000E81A03080C1A0308081B0308401A030843
:104CA000501B0308901B0308941B0308C41B030834
:104CB000A010030880B588B000AFF860B9607A60D2
:104CC0000121B86801F014FFB861BB69002B04D161
:104CD0001649F86801F04AFE25E0B869FBF70AFBBF
:104CE00078610D211248FDF78BFD0023FB610AE07E
:104CF000BA69FB6913441B7819460D48FDF780FD1E
:104D0000FB690133FB61FA697B699A42F0D30D219B
:104D10000748FDF775FD0749F86801F027FE0649C9
:104D2000F86801F023FE2037BD4680BDF81B03085C
:104D300000780040141C0308A010030880B584B05C
:104D400000AFF860B9607A600949F86801F00EFEBA
:104D50000849F86801F00AFE0749F86801F006FE04
:104D60000649F86801F002FE00BF1037BD4680BD5D
:104D7000681C03088C1C0308AC1C0308A010030863
:104D800090B5ADF2544D04AF07F58863A3F23443F8
:104D9000186007F58863A3F58763196007F58863D2
:104DA000A3F23C431A601623C7F8343416F00EFD04
:104DB000C7F8300407F11400D7F83034734A4FF4C1
:104DC000807129F013F907F1140207F58863A3F243
:104DD00034431146186801F0C9FD07F58A730022B3
:104DE000D7F83414184616F0FDFCC7F82C04D7F891
:104DF0002C34002B10D107F58863A3F234436449A7
:104E0000186801F0B3FD07F58863A3F234436149E4
:104E1000186801F0ABFDB4E007F11400D7F82C34AA
:104E20005D4A4FF4807129F0E1F807F1140207F5AB
:104E30008863A3F234431146186801F097FD07F523
:104E40008863A3F234435549186801F08FFD07F5D4
:104E50008863A3F234435249186801F087FD0023A8
:104E6000C7F83C3477E007F58863A3F54B71D7F8B2
:104E70003C241346DB0013449B000B440C331B788B
:104E8000042B21D801A252F823F000BFA14E000844
:104E9000A94E0008B14E0008B94E0008C14E0008E6
:104EA000404BC7F8383413E03F4BC7F838340FE0B5
:104EB0003E4BC7F838340BE03D4BC7F8383407E0B9
:104EC0003C4BC7F8383403E03B4BC7F8383400BFDD
:104ED00007F58863A3F54B71D7F83C241346DB0034
:104EE00013449B000B4404331C6807F58863A3F547
:104EF0004B71D7F83C241346DB0013449B000B4452
:104F00001033196807F58863A3F54B70D7F83C2474
:104F10001346DB0013449B00034420331B6807F156
:104F2000140002930191D7F8383400932346234AA2
:104F30004FF4807129F05AF807F1140207F58863DD
:104F4000A3F234431146186801F010FDD7F83C3441
:104F50000133C7F83C34D7F83C24D7F82C349A42B4
:104F600081D307F58863A3F234430D49186801F033
:104F7000FDFC07F58863A3F234430649186801F085
:104F8000F5FC07F24447BD4690BD00BFC81C0308AE
:104F9000E81C0308A01003080C1D0308201D0308CB
:104FA000501D03087C1D0308841D03088C1D030885
:104FB000941D03089C1D0308A41D0308AC1D0308D1
:104FC00080B582B000AF78600348FDF7E1FF00BF15
:104FD0000837BD4680BD00BF0008002490B587B0EB
:104FE00002AFF860B9607A601349F86801F0BEFC5E
:104FF000124B1B68002B0AD1114B00930023002297
:105000006421104817F078FC03460C4A13600B4BE0
:105010001B68002B0BD0094B1C6816F0C7FB02461F
:105020000023009300230121204617F0C1FC00BF9C
:105030001437BD4690BD00BFC41D0308E89C002482
:10504000C14F0008D41D030880B58AB000AFF860D6
:10505000B9607A600121B86801F04AFD78627B6A24
:10506000002B04D12949F86801F080FC4AE0284867
:10507000FEF728FA034687F8233097F82330032BEE
:105080003BD1786AFBF736F9F861FB69102B04D93C
:105090002049F86801F06AFC34E00BF04FF8B86181
:1050A000FB69DBB2FB7507F1170201230021B86928
:1050B0000BF0ACF80346002B04D01749F86801F058
:1050C00055FC1FE0FB69002B0ED0FB699BB27A6A8E
:1050D0000121B8690BF09AF80346002B04D00F4960
:1050E000F86801F043FC0DE00D49F86801F03EFC62
:1050F0000C49F86801F03AFC04E00B49F86801F04B
:1051000035FC00BF2837BD4680BD00BFE01D030849
:1051100000080024041E03082C1E0308581E030860
:105120007C1E0308A0100308A01E030880B596B0DB
:1051300000AFF860B9607A600121B86801F0D8FC6E
:1051400078651949F86801F011FC7B6D002B0BD1D3
:105150001649F86801F00AFCF86803F0BFF9144931
:10516000F86801F003FC16E00A220021786D28F0AF
:1051700071FE386507F110003B6D0E4A402128F0A2
:1051800035FF07F110031946F86801F0EFFBF968E5
:10519000386D03F0D7F90849F86801F0E7FB00BF64
:1051A0005837BD4680BD00BFD01E0308E81E030867
:1051B000F81E0308081F0308A010030880B584B078
:1051C00000AFF860B9607A60FEF78AF980B5A0B0E8
:1051D00000AFF860B9607A600023FB7507F1170231
:1051E00007F118031146184604F052FF0346002B3E
:1051F00007D0FB7D07F11C000C4A642128F0F6FE65
:1052000006E007F11C030A4A6421184628F0EEFE66
:1052100007F11C031946F86801F0A8FB0549F86876
:1052200001F0A4FB00BF8037BD4680BD1C1F0308F2
:105230003C1F0308A010030880B5A0B000AFF860C1
:10524000B9607A600121B86801F052FCF867FB6F21
:10525000002B0DD107F11403144A6421184628F0DD
:10526000C5FE07F114031946F86801F07FFB19E049
:1052700000220021F86F28F0EDFDB867B86F04F048
:1052800017F807F11400BB6F094A642128F0AEFE3D
:1052900007F114031946F86801F068FB0549F8683E
:1052A00001F064FB8037BD4680BD00BF6C1F030862
:1052B000941F0308A010030880B5A0B000AFF860E9
:1052C000B9607A600121B86801F012FCF867FB6FE1
:1052D000002B0DD107F114031D4A6421184628F054
:1052E00085FE07F114031946F86801F03FFB2CE036
:1052F00000220021F86F28F0ADFDB867BB6F1B0ED0
:10530000DBB23B74BB6F1B0CDBB27B74BB6F1B0A45
:10531000DBB2BB74BB6FDBB2FB7407F1100204237A
:1053200099210C481CF096FC07F11400BB6F0A4A47
:10533000642128F05BFE07F114031946F86801F0B8
:1053400015FB0649F86801F011FB8037BD4680BDAA
:10535000C01F03085C080024EC1F0308A01003080A
:1053600090B5A5B004AFF860B9607A6003F0F0FFC3
:1053700007F1140318460CF0E3F83B7D1C46FB7D57
:105380003A7E797E07F11C00029101920093234638
:10539000084A642128F02AFE07F11C031946F86820
:1053A00001F0E4FA0449F86801F0E0FA00BF84373C
:1053B000BD4690BD1C200308A0100308F0B5BFB087
:1053C00008AFF860B9607A60002387F8D73000230F
:1053D000C7F8D03015E0D7F8D0309BB201339BB27C
:1053E0001946B86801F084FB0246D7F8D0309B001C
:1053F000D8333B4443F8C82CD7F8D0300133C7F832
:10540000D030D7F8D030072BE5DD0023C7F8CC30FB
:105410001BE0D7F8CC309B00D8333B4453F8C83C52
:10542000002B0DD107F13003534A9621184628F07E
:10543000DDFD07F130031946F86801F097FA97E0AF
:10544000D7F8CC300133C7F8CC30D7F8CC30072BA5
:10545000DFDD0023C7F8C83033E0D7F8C8309B0041
:10546000D8333B4453F8C83C00220021184628F0AA
:10547000F1FC034687F8C73097F8C730012B0ED9E7
:1054800007F13000D7F8C8303C4A962128F0AEFD2D
:1054900007F130031946F86801F068FA68E097F8F8
:1054A000C720D7F8C83002FA03F35AB297F9D730B9
:1054B00013435BB287F8D730D7F8C8300133C7F849
:1054C000C830D7F8C830072BC7DD97F8D730184653
:1054D00003F08EFF97F8D7E097F8D73003F0010379
:1054E0003B6097F8D7205208D2B202F0010297F839
:1054F000D7108908C9B201F0010197F8D700C00898
:10550000C0B200F0010097F8D7402409E4B204F0DB
:10551000010497F8D7506D09EDB205F0010597F831
:10552000D760B609F6B206F0010697F8D7C04FEA81
:10553000DC1C5FFA8CFC0CF0010307F1300C0793C4
:105540000696059504940390029101923B6800939E
:1055500073460B4A9621604628F048FD07F1300358
:105560001946F86801F002FA0649F86801F0FEF9F8
:10557000DC37BD46F0BD00BF482003088420030887
:10558000C0200308A0100308F0B5DFB00AAF07F58C
:10559000A873A3F59E73186007F5A873A3F5A0730D
:1055A000196007F5A873A3F5A2731A6007F5A8732D
:1055B000A3F5A0730121186801F09AFAC7F84C010D
:1055C00007F5A873A3F5A0730221186801F090FAFB
:1055D000C7F8480107F5A873A3F5A073032118685D
:1055E00001F086FAC7F8440107F5A873A3F5A07384
:1055F0000421186801F07CFAC7F8400107F5A87388
:10560000A3F5A0730521186801F072FAC7F83C01F0
:1056100007F5A873A3F5A0730621186801F068FACE
:10562000C7F8380107F5A873A3F5A0730721186818
:1056300001F05EFAC7F8340107F5A873A3F5A0736B
:105640000821186801F054FAC7F8300107F5A8736B
:10565000A3F5A0730921186801F04AFAC7F82C01D4
:1056600007F5A873A3F5A0730A21186801F040FAA2
:10567000C7F82801D7F84C31002B23D0D7F8483190
:10568000002B1FD0D7F84431002B1BD0D7F8403166
:10569000002B17D0D7F83C31002B13D0D7F8383176
:1056A000002B0FD0D7F83431002B0BD0D7F8303186
:1056B000002B07D0D7F82C31002B03D0D7F8283196
:1056C000002B12D107F11803644A4FF48071184679
:1056D00028F08CFC07F1180207F5A873A3F59E7358
:1056E0001146186801F042F9B3E000220021D7F812
:1056F0004C0128F0AFFB0346A7F826310022002119
:10570000D7F8480128F0A6FB0346A7F82431002269
:105710000021D7F8440128F09DFB0346A7F8223169
:1057200000220021D7F8400128F094FB034687F8B7
:10573000213100220021D7F83C0128F08BFB0346E1
:1057400087F8203100220021D7F8380128F082FBA9
:10575000034687F81F3100220021D7F8340128F0D2
:1057600079FB034687F81E3100220021D7F830016B
:1057700028F070FB034687F81D3100220021D7F87E
:105780002C0128F067FB0346A7F81A3100220021FC
:10579000D7F8280128F05EFB034687F8193197F8FF
:1057A0002141B7F82221B7F82411B7F8260197F85C
:1057B00019310593B7F81A31049397F81D31039303
:1057C00097F81E31029397F81F31019397F8203113
:1057D0000093234603F04EFEB7F826E1B7F82431D4
:1057E000BB60B7F8222197F8211197F8200197F8AC
:1057F0001F4197F81E5197F81D61B7F81A317B6069
:1058000097F819C1634607F1180C08937B68079352
:10581000069605950494039002910192BB6800934B
:1058200073460F4A4FF48071604628F0DFFB07F1A2
:10583000180207F5A873A3F59E731146186801F0C6
:1058400095F807F5A873A3F59E730649186801F04B
:105850008DF807F5AA77BD46F0BD00BF40210308CB
:10586000C0210308A010030880B584B000AFF86021
:10587000B9607A6003F084FE0549F86801F076F8B3
:105880000449F86801F072F800BF1037BD4680BDCA
:1058900010220308A010030880B584B000AFF860A0
:1058A000B9607A6003F0AAFE0549F86801F05EF875
:1058B0000449F86801F05AF800BF1037BD4680BDB2
:1058C0002C220308A010030880B5A4B002AFF86032
:1058D000B9607A600121B86801F00AF9C7F884005C
:1058E0000221B86801F004F9C7F880000321B86804
:1058F00001F0FEF8F867D7F88430002B06D0D7F80F
:105900008030002B02D0FB6F002B0DD107F110036C
:10591000254A6421184628F069FB07F1100319464F
:10592000F86801F023F83BE000220021D7F884005A
:1059300028F090FA0346A7F87A3000220021D7F821
:10594000800028F087FA034687F87930002200218A
:10595000F86F28F07FFA0346A7F87630B7F876207C
:1059600097F87910B7F87A30184603F085FEB7F843
:105970007A1097F87930B7F8762007F11000019285
:1059800000930B46094A642128F030FB07F110030D
:105990001946F86800F0EAFF0549F86800F0E6FFEC
:1059A0008837BD4680BD00BF482203088C2203080B
:1059B000A010030880B584B000AFF860B9607A60C9
:1059C00003F0B6FE0549F86800F0D0FF0449F86816
:1059D00000F0CCFF00BF1037BD4680BDC8220308D1
:1059E000A010030880B584B000AFF860B9607A6099
:1059F00003F0DCFE0549F86800F0B8FF0449F868D8
:105A000000F0B4FF00BF1037BD4680BDEC22030894
:105A1000A010030880B5B0B004AFF860B9607A6038
:105A20000121B86801F064F8C7F8AC000221B86839
:105A300001F05EF8C7F8A8000321B86801F058F833
:105A4000C7F8A4000421B86801F052F8C7F8A00014
:105A5000D7F8AC30002B0BD0D7F8A830002B07D0EC
:105A6000D7F8A430002B03D0D7F8A030002B0DD1ED
:105A700007F114032B4A8021184628F0B7FA07F1E2
:105A800014031946F86800F071FF47E00022002176
:105A9000D7F8AC0028F0DEF9C7F89C0000220021FE
:105AA000D7F8A80028F0D6F90346A7F89A300022C4
:105AB0000021D7F8A40028F0CDF90346A7F89830C4
:105AC00000220021D7F8A00028F0C4F90346A7F867
:105AD0009630B7F89630B7F89820B7F89A10D7F8FC
