:020000040800F2
:10000000000008244D0002088DFB010895FB010843
:100010009DFB0108A5FB0108ADFB010800000000E5
:1000200000000000000000000000000061840108E2
:10003000B5FB01080000000021870108898701083D
:10004000A1000208A1000208A1000208A100020804
:10005000A1000208A1000208A1000208A1000208F4
:10006000A1000208A1000208A1000208C5FB0108C6
:1000700049FC0108A1000208A1000208A100020831
:10008000A1000208A1000208A1000208A1000208C4
:10009000A1000208A1000208A1000208A1000208B4
:1000A000A1000208CDFC0108A1000208A10002087D
:1000B000A1000208A1000208A1000208A100020894
:1000C000A1000208A1000208A1000208A100020884
:1000D000A1000208D9FC010811FD0108A1000208D5
:1000E000A1000208A100020800000000A10002080F
:1000F000A1000208A1000208A100020849FD0108B0
:10010000A100020891FD0108A1000208A100020857
:10011000A1000208A1000208A1000208A5FD010833
:10012000A1000208B9FD0108A1000208A10002080F
:10013000A1000208A1000208A1000208A100020813
:10014000A1000208A1000208000000000000000059
:10015000A1000208A1000208A1000208A1000208F3
:10016000A1000208A1000208A1000208A1000208E3
:10017000A1000208A1000208A1000208000000007E
:10018000A1000208A10002083DFE0108A10002082A
:10019000A100020875FE010883FE0108A100020803
:1001A000A1000208A1000208A1000208A1000208A3
:1001B000A1000208A1000208A1000208A100020893
:1001C000A1000208A1000208A1000208A100020883
:1001D000A1000208A1000208A1000208A100020873
:1001E000A1000208A1000208A1000208A100020863
:1001F000A1000208A1000208A1000208A100020853
:10020000A1000208A1000208A1000208A100020842
:10021000A1000208A1000208A1000208A100020832
:10022000A1000208A100020891FE010800000000E0
:10023000A1000208A1000208A1000208A100020812
:10024000A1000208A5FE0108B1FE0108A1000208F4
:10025000A1000208A1000208A1000208A1000208F2
:10026000A1000208A1000208A1000208A1000208E2
:10027000A1000208A1000208A1000208A1000208D2
:10028000A1000208A1000208A1000208000000006D
:08029000A1000208A100020810
:1002A00010B5054C237833B9044B13B10448AFF3B0
:1002B00000800123237010BD4C4A0124000000007F
:1002C000389F020808B5034B1BB103490348AFF33D
:1002D000008008BD00000000504A0124389F020839
:1002E00010F8012B11F8013B012A28BF9A42F7D0E0
:1002F000D01A7047034613F8012B002AFBD1181AB5
:1003000001387047000000000000000000000000FD
:1003100001F0FF01102A2BDB10F0070F08D010F8B6
:10032000013B013A8B422DD010F0070F42B3F6D1BA
:10033000F0B441EA012141EA014122F007047FF0D3
:1003400000070023F0E80256083C85EA010586EA2A
:10035000010685FA47F5A3FA87F586FA47F6A5FA66
:1003600087F68EB9EED1F0BC01F0FF0102F0070272
:1003700032B110F8013B013A83EA010313B1F8D11D
:100380000020704701387047002D06BF35460338FE
:10039000073815F0010F07D1013015F4807F02BF37
:1003A000013015F4C03F0130F0BC0138704700BF88
:1003B00053B94AB9002908BF00281CBF4FF0FF31CC
:1003C0004FF0FF3000F088B9ADF1080C6DE904CEB4
:1003D00000F006F8DDF804E0DDE9022304B0704720
:1003E0002DE9F047089D8E4604468846002B4AD1E9
:1003F0008A42174662D9B2FA82F64EB1C6F120039C
:1004000001FA06F820FA03F3B74043EA0808B440BB
:100410004FEA174E1FFA87FCB8FBFEF1230C0EFBC8
:10042000118843EA084301FB0CF29A4209D9FB18F0
:1004300001F1FF3080F0EA809A4240F2E780023911
:100440003B449A1AA3B2B2FBFEF00EFB102243EA21
:10045000024300FB0CFC9C4509D9FB1800F1FF325C
:1004600080F0D6809C4540F2D3803B44023840EA7D
:100470000140A3EB0C0300211DB1F3400022C5E9AC
:100480000032BDE8F0878B4205D90DB1C5E9000106
:1004900000210846F5E7B3FA83F1002946D17345F8
:1004A00002D3824200F20581841A6EEB030201201E
:1004B0009046002DE5D0C5E90048E2E7002A00F0AB
:1004C0009080B2FA82F6002E40F0A4808A1A030CC3
:1004D0004FEA174E80B2BCB20121B2FBFEFC0EFB0C
:1004E0001C2243EA024304FB0CF29A4207D9FB1890
:1004F0000CF1FF3802D29A4200F2E080C4469B1A07
:10050000B3FBFEF20EFB123340EA034302FB04F49A
:100510009C4207D9FB1802F1FF3002D29C4200F244
:10052000CA8002461B1B42EA0C40A5E7C1F1200627
:100530008B4022FA06F71F430EFA01F420FA06F365
:100540002EFA06FE4FEA1749234300FA01F81FFA74
:1005500087FCBEFBF9F01C0C09FB10EE44EA0E44CC
:1005600000FB0CFEA64502FA01F209D93C1900F184
:10057000FF3A80F09C80A64540F2998002383C44C6
:10058000A4EB0E041FFA83FEB4FBF9F309FB13443A
:100590004EEA044403FB0CFCA44508D93C1903F1C2
:1005A000FF3E80F08280A4457FD9023B3C4443EA71
:1005B0000040A4EB0C04A0FB02EC64457346E1464A
:1005C00062D35FD05DB1B8EB030264EB090404FAB7
:1005D00006F622FA01F31E43CC40C5E9006400216F
:1005E0004FE7B1FBF2FC010C41EA0E4180B240EA58
:1005F00001423B4638463C46B846BE462026B1FB43
:10060000F7F1A2EB080241EA0C4166E7014618E760
:1006100010462CE7C6F120022EFA02F3B740B14093
:1006200020FA02F24FEA174E0A43B3FBFEF8BCB2BF
:100630000EFB1833110C41EA034108FB04F9B040EA
:1006400089454FEA104380B23ED9791808F1FF3C42
:1006500001D289451FD8A1EB0901B1FBFEF909FBC5
:1006600004F80EFB191192B242EA0142424529D226
:10067000BA1809F1FF31C4D24245C2D2A9F1020130
:100680003A44BEE7F0459DD2BEEB02036CEB070C8B
:100690000138E14696E7A7EB09094944A8F1020CA5
:1006A000B1FBFEF909FB04F8DBE773467FE7504630
:1006B00066E70846FDE63B44023A33E7ACF1020C3C
:1006C0003B441CE749469CE7A1EB0901C446B1FB4A
:1006D000FEF909FB04F8C4E7704700BF80B582B09B
:1006E00000AF0123FB711C4B01221A701B480BF059
:1006F00007FB10221A491B480BF05AFC01F088FE38
:100700000346FB710BF0F4FB0CF07AFF002001F0C4
:1007100021FC154A022100200BF026F8124A002184
:1007200000200BF021F8104A012100200BF01CF8EA
:100730000D4A032100200BF017F80B4A042100207A
:100740000BF012F8084A052100200BF00DF8FB7998
:1007500018460837BD4680BD684A0124005800404D
:100760000010025800340140509F020880B500AFCD
:10077000044A022100200AF0F7FF00F00BF900BF45
:1007800080BD00BF649F0208B0B588B004AF0123EC
:10079000FB73204B02221A701F4A002100200AF02E
:1007A000E3FF18F0FBFC18F099FB18F0D1FD0DF0F9
:1007B000FDF80346FB730DF0F9F80346002B1DD13D
:1007C000164A022100200AF0C1FE3B1D18460CF01B
:1007D0005BFFBB7903F5FA63BB813B791C467B79F0
:1007E0001D46BB89FA79397A787A02900191009294
:1007F0002A4621461A2018F0DDFC05E0054AFB7B5D
:100800009370044B07221A70FB7B18461037BD46C5
:10081000B0BD00BF684A0124789F0208909F02087B
:1008200080B582B000AF204B03221A700123FB7108
:100830001E4A002100200AF097FF05F0FDF803464C
:10084000FB71FB79002B0BD0194A042101200AF01F
:100850007DFE154AFB799370134B07221A7004E052
:10086000144A022100200AF071FE07F0E9FA03465B
:10087000FB71FB79002B0BD00F4A042101200AF0F9
:1008800065FE094AFB799370074B07221A7004E052
:100890000A4A022100200AF059FE0BF003F9FB7905
:1008A00018460837BD4680BD684A0124A09F02084B
:1008B000B89F0208D49F0208F09F020804A0020813
:1008C00080B582B000AF214B04221A700123FB7166
:1008D0001F4A002100200AF047FF0CF00DFA0346E2
:1008E000FB71FB79002B0BD01A4A042101200AF07E
:1008F0002DFE164AFB799370144B07221A7004E000
:10090000154A022100200AF021FE10221349144842
:100910000BF0B8FE0346FB71FB79002B0BD0114A9C
:10092000042101200AF012FE084AFB799370074B5C
:1009300007221A7004E00C4A022100200AF006FE89
:10094000FB7918460837BD4680BD00BF684A0124C0
:100950001CA0020834A002084CA0020800000258A3
:100960000014005864A002087CA0020880B500AF03
:10097000064B05221A70054B06221A70044A002104
:1009800000200AF0F1FE0023184680BD684A0124C9
:1009900094A0020880B500AF00F0E6F900BF80BD6A
:1009A00080B5C2B000AF07F58473A3F582731860F9
:1009B00007F58473A3F58473196007F58473A3F5B1
:1009C000847307F108001B68084A4FF4807128F00F
:1009D0004BF907F108030122194605200AF068FFC8
:1009E00000BF07F58477BD4680BD00BFACA00208FC
:1009F00080B5C0B000AF3B46084A4FF4807118463E
:100A000028F032F93B460122194605200AF050FF32
:100A100000BF07F58077BD4680BD00BFC8A00208B3
:100A200080B483B000AF786039607B685A693B68F6
:100A300013403A689A4201D1012300E0002318468E
:100A40000C37BD465DF8047B704780B483B000AFBF
:100A5000786039607B683A689A6100BF0C37BD46A0
:100A60005DF8047B704780B483B000AF7860396074
:100A70003B681A047B689A6100BF0C37BD465DF87D
:100A8000047B704780B500AF4FF480410648FFF704
:100A9000DCFF4FF400410448FFF7D7FF032000F0CC
:100AA00005F800BF80BD00BF0014025880B582B0B9
:100AB00000AF0346FB71FB79032B37D801A252F834
:100AC00023F000BFD50A0008EB0A0008010B00085C
:100AD000170B00084FF480411C48FFF7C4FF4FF488
:100AE00000411A48FFF7BFFF2BE04FF48041174841
:100AF000FFF7B9FF4FF400411448FFF7A6FF20E0CD
:100B00004FF480411148FFF7A0FF4FF400410F4818
:100B1000FFF7A9FF15E04FF480410C48FFF795FF60
:100B20004FF400410948FFF790FF0AE04FF480417D
:100B30000648FFF798FF4FF400410448FFF793FF82
:100B400000BF00BF0837BD4680BD00BF001402587B
:100B500080B582B000AF4FF480411948FFF760FFC5
:100B60000346002B14BF01230023DBB2FB714FF4BB
:100B700000411348FFF754FF0346002B14BF012325
:100B80000023DBB2BB71FB79002B04D1BB79002BB6
:100B900001D1002310E0FB79002B04D1BB79012B9C
:100BA00001D1012308E0FB79012B04D1BB79002B93
:100BB00001D1022300E0032318460837BD4680BD5B
:100BC0000014025880B483B000AF0346FB71064A9C
:100BD000FB791370054B00221A7000BF0C37BD461D
:100BE0005DF8047B704700BF6B4A01246C4A012406
:100BF00080B400AF034B1B781846BD465DF8047BFC
:100C0000704700BF6B4A012480B483B000AF034635
:100C1000FB71FB795C2B06D10E4B1B780133DAB2EA
:100C20000C4B1A7002E00B4B00221A70094B1B7818
:100C3000092B07D9084B00221A70064B00221A70A4
:100C4000012300E0002318460C37BD465DF8047B05
:100C5000704700BF6C4A01246B4A012480B483B002
:100C600000AF78607B68DB6903F04003402B01D163
:100C7000012300E0002318460C37BD465DF8047BD5
:100C8000704780B483B000AF78607B68DB6903F0A5
:100C90008003802B01D1012300E0002318460C378C
:100CA000BD465DF8047B704780B483B000AF7860C8
:100CB0000B46FB70FA787B689A6200BF0C37BD4622
:100CC0005DF8047B704780B483B000AF7860396012
:100CD0007B683A689A6100BF0C37BD465DF8047BBB
:100CE000704780B483B000AF786039603B681A0405
:100CF0007B689A6100BF0C37BD465DF8047B704786
:100D000080B584B000AF0346FB71FB79FB73FB7BBE
:100D10001946034801F032FD00BF1037BD4680BDC3
:100D20000010014080B582B000AF78600B4A02210C
:100D300000200AF019FD00F043F80346002B07D00D
:100D4000074A042101200AF001FC064B02225A70D6
:100D5000002015F0EBF900BFFDE700BFE0A002089E
:100D6000F4A00208704A012480B586B004AF0F4B8E
:100D700002930F4B01930523009300234FF4A062CD
:100D80000C490D4815F01FF878607B68002B06D1E0
:100D90000A4A052101200AF0D9FB00BFFDE715F042
:100DA000F3FB00BF0837BD4680BD00BFE0720124E1
:100DB000E05E01241CA10208250D00082CA10208F8
:100DC000F0B5CFB006AF012387F81731FFF7DCFC91
:100DD000034687F8173197F81731002B05D0CC4A16
:100DE000052101200AF0B2FB04E0CA4A00210020DC
:100DF0000AF0ACFBFFF714FD034687F8173197F8AC
:100E00001731002B05D0C44A052101200AF09EFBB2
:100E100004E0C24A002100200AF098FBFFF750FDD1
:100E2000034687F8173197F81731002B05D0BC4AD5
:100E3000052101200AF08AFB04E0BA4A00210020C3
:100E40000AF084FBFFF792FD034687F8173197F805
:100E50001731002B05D0B44A052101200AF076FB9A
:100E600004E0B24A002100200AF070FB06F098FE70
:100E700007F0FCFA97F81731002B05D0AC4A052192
:100E800001200AF063FB04E0AA4A002100200AF0D6
:100E90005DFB07F59073A3F5887318464FF48073D4
:100EA0001A46002127F0E2FF0023C7F8103107F1AE
:100EB000080318460CF0E8FBD7F8103107F11002D0
:100EC000D018D7F81031C3F5807107F59073A3F5EA
:100ED0008C739B789C4607F59073A3F58C735B78B5
:100EE0001A4607F59073A3F58C731B781C4607F51B
:100EF0009073A3F58C73DB781D4607F59073A3F50B
:100F00008C731B791E4607F59073A3F58C735B7980
:100F1000049303960295019400926346864A27F053
:100F2000A3FE0246D7F810311344C7F8103107F575
:100F30009073A3F2191300221A7007F59073A3F5AA
:100F40008D7300221A7007F59073A3F21B13002211
:100F50001A707B1DBA1DF91D00200CF0EFFBD7F8AD
:100F6000103107F11002D018D7F81031C3F5807195
:100F700007F59073A3F219131B781C4607F59073BD
:100F8000A3F58D731B781A4607F59073A3F21B1314
:100F90001B78019300922346684A27F065FE0246BB
:100FA000D7F810311344C7F81031D7F8103107F1D2
:100FB0001002D018D7F81031C3F58073604A194673
:100FC00027F052FE0246D7F810311344C7F810310B
:100FD0000023C7F81C3117E000BF5A48FFF751FE45
:100FE0000346002BF9D007F59073A3F58872D7F864
:100FF0001C3113441B7819465248FFF755FED7F8A9
:101000001C310133C7F81C3107F59073A3F58872C2
:10101000D7F81C3113441B78002BDDD100BF4948A1
:10102000FFF71CFE0346002BF9D00023C7F8183148
:1010300017E000BF4448FFF724FE0346002BF9D019
:1010400007F59073A3F58872D7F8183113441B780D
:1010500019463D48FFF728FED7F818310133C7F885
:10106000183107F59073A3F58872D7F81831134437
:101070001B78002BDDD100BF3348FFF7EFFD03469F
:10108000002BF9D008F014FC30481BF03DFA002387
:1010900001930223009300234FF420622C492D4832
:1010A00014F0F5FE0346012B01D0012320E10023BB
:1010B00001930123009300234FF42062264927481F
:1010C00014F0E5FE0346012B01D0012310E10023BB
:1010D00001930123009300234FF42062204921480B
:1010E00014F0D5FE0346012B01D0012300E10023BB
:1010F00001930123009300234FF4A0621A491B4877
:1011000014F0C5FE0346012B32D00123F0E000BFEE
:1011100048A1020868A102087CA102089CA102085B
:10112000ACA10208CCA10208DCA10208F8A10208C7
:101130000CA2020820A202082CA202085CA202084B
:1011400078A202080010014000440040D04A012467
:10115000ACA20208257C0008BCA20208C516000843
:10116000C8A2020885160008D8A20208C1BA000861
:10117000002301930123009300234FF420725F4961
:101180005F4814F084FE0346012B01D00123AFE039
:101190005C4801F013F903460022019201220092FB
:1011A0004FF420625849594814F071FE0346012B50
:1011B00001D001239CE0564801F000F903460022CB
:1011C0000192012200924FF420625249524814F0D9
:1011D0005EFE0346012B01D0012389E00023019329
:1011E0000123009300234FF4A0624C494C4814F0B3
:1011F0004EFE0346012B01D0012379E00023019329
:1012000001230093002380224649474814F03FFE03
:101210000346012B01D001236AE00023019301233F
:101220000093002380224149414814F030FE0346D8
:10123000012B01D001235BE00023019301230093E4
:1012400000234FF420723B493B4814F020FE034634
:10125000012B01D001234BE00023019301230093D4
:1012600000234FF420723549354814F010FE034630
:10127000012B01D001233BE00023019301230093C4
:1012800000234FF420722F492F4814F000FE03462C
:10129000012B01D001232BE02C4801F08FF80346ED
:1012A00000220192012200924FF42062284929482D
:1012B00014F0EDFD0346012B01D0012318E00023BB
:1012C000019301230093002380222349234814F033
:1012D000DEFD0346012B01D0012309E0012015F0BA
:1012E00051F81F491F4801F00BFD06F0FFF90023DC
:1012F000184607F59277BD46F0BD00BFE4A202088C
:101300006913000800780040F4A20208F9150008EB
:101310000044004004A302081D15000810A30208A1
:10132000B513000820A30208E916000828A3020844
:101330001D17000830A3020815A1000838A30208F1
:1013400001A3000840A3020895A400080010014072
:1013500048A302080D1400085CA3020851170008F6
:10136000010D0008744A012480B582B000AF786096
:101370000BF076FF0D4B1B6801330C4A13600B4BCF
:101380001B68B3F5E15F0CD9084B00221A600CF022
:101390000DFB0346002B04D10022054902200AF070
:1013A00087FA4FF47A7014F0EDFFE1E72847012443
:1013B0006CA3020880B584B000AF7860114801F0DA
:1013C00033FF0346FB73FB7B032B02D0FB7B042B19
:1013D00013D10C4B1B6A012B09D104F079FB034696
:1013E0000949184604F01EFD064B00221A6204F05B
:1013F0006FFB0346184604F084FC642014F0C2FF1F
:10140000DCE700BF744A01247CA3020880B586B0E3
:1014100000AF78607B687B617B695B6E4FF0FF316A
:10142000184614F069F80346012B6DD162E0FFF70E
:10143000DFFB0346FB73FB7B022B15D13B69DBB261
:101440001946334801F09AF93B69DBB21846FFF7B9
:10145000DBFB0346002B4DD004F03AFB03462D493D
:10146000184604F0DFFC45E0FB7B042B1ED13B69F2
:10147000DBB21846FFF7C8FB0346002B06D004F08A
:1014800027FB03462349184604F0CCFC04F020FB5C
:1014900002463B69DBB21946104604F00FFC04F02B
:1014A00017FB0346184604F02CFC23E01A4801F011
:1014B000BBFE0346BB73BB7B032B02D0BB7B042B61
:1014C00012D1154801F00AFC04F002FB02463B6908
:1014D000DBB21946104604F0F1FB04F0F9FA0346BA
:1014E000184604F00EFC05E03B69DBB219460A48D9
:1014F00001F016FD7B691B68184601F079FA386126
:101500003B69B3F1FF3F92D1012014F03BFF83E729
:101510000044004080A30208744A012480B588B0CA
:1015200000AF78607B68FB61FB695B6E0021184649
:1015300013F0E2FF0346012B56D1FFF759FB034698
:10154000FB76FB7E012B11D105E0BB68DBB21946AF
:10155000274801F013F9FB691B68184601F048FAA7
:10156000B860BB68B3F1FF3FEFD13DE0FB7E022BDB
:1015700011D105E0FB68DBB219461E4801F0FEF808
:10158000FB691B68184601F033FAF860FB68B3F199
:10159000FF3FEFD128E0FB7E032B11D105E03B6933
:1015A000DBB21946124801F0E9F8FB691B681846DE
:1015B00001F01EFA38613B69B3F1FF3FEFD113E050
:1015C000FB7E042B10D105E07B69DBB2194609488C
:1015D00001F0D4F8FB691B68184601F009FA78613C
:1015E0007B69B3F1FF3FEFD1012014F0CBFE9BE705
:1015F000007800400010014080B586B000AF7860F0
:101600007B687B617B695B6E4FF0FF31184613F09E
:1016100073FF0346012B2CD1FFF7EAFA0346FB7454
:10162000FB7C012B11D105E0BB68DBB219461348E6
:1016300001F0A4F87B691B68184601F0D9F9B8607D
:10164000BB68B3F1FF3FEFD113E0FB7C032B10D15C
:1016500005E0FB68DBB21946094801F08FF87B69A9
:101660001B68184601F0C4F9F860FB68B3F1FF3F4E
:10167000EFD1012014F086FEC4E700BF0044004013
:101680000078004080B584B000AF7860FFF7B0FA12
:101690000346FB73FB7B002B0CD1084801F0C9F912
:1016A0000346002B03D006481BF058FA02E004481A
:1016B0001BF054FA012014F065FEE7E700780040C3
:1016C000D04A012480B584B000AF7860FFF790FA6B
:1016D0000346FB73FB7B002B01D106F0F9FE0120D2
:1016E00014F050FEF2E7000080B582B000AF7860E1
:1016F0004FF480710848FFF7F4FA4FF47A7014F051
:1017000041FE4FF480710448FFF7DDFA4FF47A7020
:1017100014F038FE00BFEBE7000C025880B582B031
:1017200000AF78604FF400710848FFF7CCFA4FF42F
:101730007A7014F027FE4FF400710448FFF7D1FAD5
:101740004FF47A7014F01EFE00BFEBE7000C025855
:1017500080B582B000AF78600AF0DAFB0AF0F4FBE3
:101760000346012B03D1C82014F00CFEF4E74FF41C
:10177000167014F007FEEFE780B483B000AF786016
:101780007B689B6903F00103012B01D1012300E079
:10179000002318460C37BD465DF8047B704780B4C3
:1017A00083B000AF78607B689B6903F00203022B73
:1017B00001D1012300E0002318460C37BD465DF837
:1017C000047B704780B483B000AF78607B689B690E
:1017D00003F00403042B01D1012300E00023184689
:1017E0000C37BD465DF8047B704780B483B000AF12
:1017F00078607B689B6903F01003102B01D10123F3
:1018000000E0002318460C37BD465DF8047B7047A6
:1018100080B483B000AF78607B689B6903F40043B9
:10182000B3F5004F01D1012300E0002318460C3727
:10183000BD465DF8047B704780B483B000AF78602C
:1018400039607B685B6823F400423B681A437B681D
:101850005A6000BF0C37BD465DF8047B704700003E
:1018600080B487B000AFF860B9607A603B60BB6855
:10187000C3F309027B6803F400631A433B681B044B
:1018800003F47F031A433B6A1A437B6A134323F032
:1018900000437B61FB685A687B6A5B0D03F48061DF
:1018A000064B0B43DB431A407B691A43FB685A60C3
:1018B00000BF1C37BD465DF8047B7047FF7BFF030C
:1018C00080B483B000AF78607B685B6ADBB2184697
:1018D0000C37BD465DF8047B704780B483B000AF21
:1018E00078600B46FB70FA787B689A6200BF0C3711
:1018F000BD465DF8047B704780B588B002AFF860E4
:101900007B600B46FB721346BB720CF0C3F9386167
:101910000DE00CF0BFF902463B69D31A0A2B06D939
:10192000FB681B6818461CF09BF8022396E0FB68D6
:101930001B681846FFF76CFF0346002BE9D1FB68D4
:101940001868FB7A590097F8203001331A46454B46
:1019500001934FF00073009313460022FFF780FFBE
:101960000CF098F9386117E0FB681B681846FFF720
:101970003CFF0346002B01D001236FE00CF08AF9F5
:1019800002463B69D31A0A2B06D9FB681B68184626
:101990001CF066F8032361E0FB681B681846FFF73C
:1019A000FEFE0346002BDFD0FB681B68BA7A1146A7
:1019B0001846FFF792FF0023FB752FE00CF06AF941
:1019C000386117E0FB681B681846FFF70EFF0346F7
:1019D000002B01D0012341E00CF05CF902463B6989
:1019E000D31A0A2B06D9FB681B6818461CF038F876
:1019F000032333E0FB681B681846FFF7D0FE03465D
:101A0000002BDFD0FB681868FB7D7A6813441B78D5
:101A10001946FFF762FFFB7D0133FB75FA7D97F8EE
:101A200020309A42CAD30CF035F938610DE00CF041
:101A300031F902463B69D31A0A2B06D9FB681B68A9
:101A400018461CF00DF8032308E0FB681B681846D5
:101A5000FFF792FE0346002BE9D000231846183703
:101A6000BD4680BD0020008090B589B002AFF8600F
:101A70007B600B46FB721346BB720CF00BF93861AE
:101A80000DE00CF007F902463B69D31A0A2B06D980
:101A9000FB681B6818461BF0E3FF0223B8E0FB68F5
:101AA0001B681846FFF7B4FE0346002BE9D1FB681C
:101AB0001868FB7A5900584B0193002300930123C7
:101AC0000022FFF7CDFE0CF0E5F8386117E0FB6867
:101AD0001B681846FFF789FE0346002B01D001233F
:101AE00096E00CF0D7F802463B69D31A0A2B06D9C8
:101AF000FB681B6818461BF0B3FF032388E0FB68F4
:101B00001B681846FFF74BFE0346002BDFD0FB682F
:101B10001B68BA7A11461846FFF7DFFE0CF0BAF8D8
:101B2000386117E0FB681B681846FFF75EFE034646
:101B3000002B01D001236BE00CF0ACF802463B69AE
:101B4000D31A0A2B06D9FB681B6818461BF088FFBE
:101B500003235DE0FB681B681846FFF70DFE034694
:101B6000002BDFD0FB681B6800211846FFF764FEDE
:101B7000FB681868FB7A5900FB7A5B0043F00103AD
:101B80001C4697F82830254A01924FF000720092C7
:101B90002246FFF765FE0CF07DF838610023FB75E7
:101BA00030E00CF077F8386117E0FB681B681846E6
:101BB000FFF71BFE0346002B01D0012328E00CF0A9
:101BC00069F802463B69D31A0A2B06D9FB681B68E1
:101BD00018461BF045FF03231AE0FB681B681846F4
:101BE000FFF7F0FD0346002BDFD0FB681968FB7D93
:101BF0007A68D4180846FFF763FE03462370FB7D1E
:101C00000133FB75FA7D97F828309A42C9D3002337
:101C100018461C37BD4690BD00200080002400807F
:101C200080B584B000AF78600023FB60786800F076
:101C300095F8786800F00BF80346002B02D06FF09F
:101C40000303FB60FB6818461037BD4680BD80B5B6
:101C500084B000AF78600023FB7378681FF0AAF9A6
:101C60000346002B01D00123FB73FB7B1846103782
:101C7000BD4680BD80B586B000AFF860B9607A60BF
:101C80003B603B687A68B968F8681FF08FFA0346D2
:101C9000002B03D06FF003037B6101E000237B6125
:101CA0007B6918461837BD4680BD80B586B000AF49
:101CB000F860B9607A603B603B687A68B968F86838
:101CC0001FF038FB0346002B03D06FF003037B614A
:101CD00001E000237B617B6918461837BD4680BD53
:101CE00080B582B000AF7860786820F037F903469D
:101CF000042B14BF01230023DBB218460837BD466E
:101D000080BD80B584B000AF78603960396878688C
:101D10001FF034FF0346002B03D06FF00303FB607A
:101D200001E00023FB60FB6818461037BD4680BD0C
:101D300080B582B000AF7860786812F0C5FC00BF53
:101D40000837BD4680BD80B582B000AF7860786846
:101D500012F0E4FC00BF0837BD4680BD80B582B0FC
:101D600000AF786078681DF0FDFB00BF0837BD4606
:101D700080BD80B483B000AF78607B681B6803F0DF
:101D80000103012B01D1012300E0002318460C3789
:101D9000BD465DF8047B704780B483B000AF7860C7
:101DA0007B685B6903F00103012B01D1012300E093
:101DB000002318460C37BD465DF8047B704780B49D
:101DC00083B000AF78607B685B6903F48053B3F540
:101DD000805F01D1012300E0002318460C37BD4687
:101DE0005DF8047B704780B483B000AF78607B6897
:101DF00030331B78DBB218460C37BD465DF8047BE8
:101E0000704780B483B000AF78600B46FB707B688E
:101E10002033FA781A7000BF0C37BD465DF8047B9A
:101E2000704780B586B000AFF8600B467A60FB72F1
:101E3000F868FFF79EFF0346002B01D1012335E030
:101E40000BF028FF7861FB7A1946F868FFF7D9FF95
:101E500008E00BF01FFF02467B69D31A0A2B01D959
:101E6000032323E0F868FFF7AAFF0346002BF0D016
:101E70000BF010FF786108E00BF00CFF02467B6965
:101E8000D31A0A2B01D9032310E0F868FFF784FF67
:101E90000346002BF0D07B68002B06D0F868FFF7D4
:101EA000A2FF03461A467B681A70002318461837AB
:101EB000BD4680BD80B584B000AF78600B46FB7036
:101EC0007868FFF756FF0346002B01D101231BE082
:101ED0000BF0E0FEF860FB7819467868FFF791FF99
:101EE00008E00BF0D7FE0246FB68D31A0A2B01D993
:101EF000032309E07868FFF762FF0346002BF0D068
:101F00007868FFF770FF002318461037BD4680BD84
:101F100080B582B000AF0346FB71FB79002B10D176
:101F2000FB79002B06D14FF480620021074826F090
:101F30009DFF07E04FF480620021054826F096FFE0
:101F400000E000BF0837BD4680BD00BF00F8003884
:101F500000FC003880B582B000AF0346FB71FB790E
:101F6000002B04D1FB791846FFF7D2FF00E000BF39
:101F70000837BD4680BD80B483B000AF78607B6811
:101F80001B6843F001027B681A6000BF0C37BD4636
:101F90005DF8047B704780B483B000AF78607B68E5
:101FA0001B6823F001027B681A6000BF0C37BD4636
:101FB0005DF8047B704780B483B000AF78607B68C5
:101FC000DB6903F04003402B01D1012300E0002333
:101FD00018460C37BD465DF8047B704780B483B06B
:101FE00000AF78607B68DB6903F08003802B01D150
:101FF000012300E0002318460C37BD465DF8047B42
:10200000704780B489B000AF78607B68FB60FB6884
:1020100053E8003FBB60BB6843F01003FB617B6883
:10202000FA69BA617B617969BA6941E800233B6169
:102030003B69002BE9D100BF00BF2437BD465DF8E6
:10204000047B704780B489B000AF78607B68FB6028
:10205000FB6853E8003FBB60BB6843F08003FB6153
:102060007B68FA69BA617B617969BA6941E80023E2
:102070003B613B69002BE9D100BF00BF2437BD465F
:102080005DF8047B704780B489B000AF78607B68EE
:10209000FB60FB6853E8003FBB60BB6823F0800334
:1020A000FB617B68FA69BA617B617969BA6941E869
:1020B00000233B613B69002BE9D100BF00BF2437FF
:1020C000BD465DF8047B704780B483B000AF786094
:1020D0007B681B6803F08003802B01D1012300E0A3
:1020E000002318460C37BD465DF8047B704780B46A
:1020F00089B000AF78607B680833FB60FB6853E809
:10210000003FBB60BB6843F04003FB617B68083362
:10211000FA69BA617B617969BA6941E800233B6178
:102120003B69002BE7D100BF00BF2437BD465DF8F7
:10213000047B704780B485B000AF786039603B683D
:10214000002B03D17B682833FB6002E07B682433DB
:10215000FB60FB6818461437BD465DF8047B70478A
:1021600080B483B000AF78600B46FB70FA787B6870
:102170009A6200BF0C37BD465DF8047B70470000D3
:1021800080B485B000AF786039607B68FB600C4A32
:102190003B6813441B781A46FB6813441B680849C4
:1021A0003A680A4412781146FA680A4443F0010377
:1021B000136000BF1437BD465DF8047B704700BF55
:1021C000040E030880B485B000AF786039607B6886
:1021D000FB600C4A3B6813441B781A46FB681344A7
:1021E0001B6808493A680A4412781146FA680A449A
:1021F00023F00103136000BF1437BD465DF8047B74
:10220000704700BF040E030880B487B000AFF860C9
:10221000B9607A60FB687B610D4ABB6813441B7828
:102220001A467B6913445A680A4B13400849BA6836
:102230000A44127811467A690A4411467A681343AF
:102240004B6000BF1C37BD465DF8047B704700BF84
:10225000040E03080000FFFF80B485B000AF786073
:1022600039607B68FB60074A3B6813441B781A4659
:10227000FB6813445B689BB218461437BD465DF893
:10228000047B7047040E030880B487B000AFF86089
:10229000B9607A60FB687B61074ABB6813441B78AE
:1022A0001A467B6913441A467B68D36000BF1C370B
:1022B000BD465DF8047B7047040E030880B487B008
:1022C00000AFF860B9607A60FB687B61074ABB6861
:1022D00013441B781A467B6913441A467B68936043
:1022E00000BF1C37BD465DF8047B7047040E030831
:1022F00080B485B000AF786039607B68FB600C4AC1
:102300003B6813441B781A46FB6813441B68084952
:102310003A680A4412781146FA680A4443F00803FE
:10232000136000BF1437BD465DF8047B704700BFE3
:10233000040E030880B485B000AF786039607B6814
:10234000FB600C4A3B6813441B781A46FB68134435
:102350001B6808493A680A4412781146FA680A4428
:1023600043F00403136000BF1437BD465DF8047BDF
:10237000704700BF040E030880B485B000AF7860DA
:1023800039607B68FB600C4A3B6813441B781A4633
:10239000FB6813441B6808493A680A4412781146DE
:1023A000FA680A4443F01003136000BF1437BD46B7
:1023B0005DF8047B704700BF040E030880B485B04D
:1023C00000AF78600023FB6015E01049FA681346FF
:1023D0005B019B1A9B000B441B687A689A4207D1E9
:1023E000FA6813465B019B1A9B00084A134406E0F7
:1023F000FB680133FB60FB68022BE6DD0023184617
:102400001437BD465DF8047B704700BF2C4701249C
:10241000B0B584B002AF00237B6022E0B5497A6892
:1024200013465B019B1A9B000B441B681846FFF781
:10243000B2FDB0497A6813465B019B1A9B000B44BE
:1024400068331868AB497A6813465B019B1A9B0096
:102450000B446C331B681946FFF7B4FE7B680133ED
:102460007B607B68022BD9DD4FF400630093A24BA5
:10247000A24A0121A2480BF0B4FA4FF40063009382
:10248000A04BA14A0221A1480BF0ABFA0322002184
:10249000012012F0E2FC0346964A5366954B9C6E6F
:1024A000944BDD6E01219A48FFF744FE03461A461D
:1024B00029462046FFF702FF8E4B9B6E8D4AD16E58
:1024C0008C4AB2F874201846FFF79EFE894B9B6E2B
:1024D000884AD16E874A126F1846FFF7D5FE854BA2
:1024E0009B6E844AD26E11461846FFF745FF814B1A
:1024F0009B6E804AD26E11461846FFF7F9FE7D4B5F
:102500009B6E7C4AD26E11461846FFF713FF804837
:10251000FFF7EDFD774B9B6E764AD26E114618465B
:10252000FFF72EFE7A48FFF76CFD4FF480530093BF
:10253000784B794A052179480BF053FA4FF48053D0
:102540000093774B774A062177480BF04AFA03222B
:102550000021012012F081FC0346664AC2F8E030F7
:10256000644BD3F8E440634BD3F8E85001216F4843
:10257000FFF7E0FD03461A4629462046FFF79EFE78
:102580005C4BD3F8E4305B4AD2F8E810594AB2F811
:10259000F0201846FFF738FE564BD3F8E430554A82
:1025A000D2F8E810534AD2F8EC201846FFF76CFE38
:1025B000504BD3F8E4304F4AD2F8E8201146184681
:1025C000FFF7DAFE4B4BD3F8E4304A4AD2F8E82062
:1025D00011461846FFF78CFE464BD3F8E430454AC7
:1025E000D2F8E82011461846FFF7A4FE4F48FFF73F
:1025F0007EFD404BD3F8E4303E4AD2F8E820114645
:102600001846FFF7BDFD4948FFF7FBFC4FF4406358
:102610000093474B474A0B2147480BF0E2F94FF430
:1026200040630093454B464A0C2146480BF0D9F9CC
:1026300003220021012012F010FC03462D4AC2F8AB
:102640005C312C4BD3F860412A4BD3F86451012103
:102650003D48FFF76FFD03461A4629462046FFF71F
:102660002DFE244BD3F86031224AD2F86411214A5E
:10267000B2F86C211846FFF7C7FD1E4BD3F8603146
:102680001C4AD2F864111B4AD2F868211846FFF799
:10269000FBFD184BD3F86031164AD2F8642111467D
:1026A0001846FFF769FE134BD3F86031114AD2F890
:1026B000642111461846FFF71BFE0E4BD3F860311C
:1026C0000C4AD2F8642111461846FFF733FE1E4823
:1026D000FFF70DFD074BD3F86031064AD2F86421AD
:1026E00011461846FFF74CFD1748FFF78AFC0023F8
:1026F0003B6039E02C4701243C7B0124CCA3020839
:10270000304701243C830124D8A3020860470124F8
:10271000001001403C9B0124E4A30208AC470124C3
:102720003CAB0124F0A30208DC4701240044004034
:102730003CC70124FCA30208284801243CD30124FF
:1027400008A4020858480124007800400A493A6861
:1027500013465B019B1A9B000B441B681846FFF74E
:102760000AFC3B6801333B603B68022BEEDD002333
:1027700018460837BD46B0BD2C47012480B584B04B
:1027800000AF78600B46FB707868FFF717FEB86003
:10279000BB68002B1FD0134BFB6005E0FB68013BBF
:1027A000FB60FB68002B18D0BB683433FA78114605
:1027B00018460BF049F9034683F00103DBB2002B06
:1027C000ECD17868FFF780FC0346002B06D17868CF
:1027D000FFF738FC02E000BF00E000BF1037BD4645
:1027E00080BD00BF20A1070080B584B000AF786035
:1027F00039607868FFF7E2FDF860FB68002B11D0C4
:102800003B68002B0ED008E03B681B7819467868BF
:10281000FFF7B4FF3B6801333B603B681B78002B3C
:10282000F2D100E000BF1037BD4680BD80B584B056
:1028300000AF78607868FFF7C1FDF860FB68002B97
:1028400042D0FB681B68DB6903F00203002B03D056
:10285000FB681B6802221A62FB681B68DB6903F0D5
:102860000403002B03D0FB681B6804221A62FB6878
:102870001B68DB6903F40033002B04D0FB681B6882
:102880004FF400321A627868FFF7A8FB0346002B6A
:102890001BD07868FFF718FC0346002B15D0FB68A7
:1028A000343307F10B02114618460BF013F90346B7
:1028B000002B05D0FB7A19467868FFF751FC04E03D
:1028C0007868FFF7E0FB00E000BF1037BD4680BD31
:1028D00080B58AB000AF78600023BB607868FFF7EE
:1028E0006DFDB861BB69002B7CD0BB699B6F7B61C0
:1028F000BB699A6EBB69DB6E19461046FFF7ACFCEC
:1029000003467B82BB69B3F874301A467B8AD31ABC
:10291000FB60FA687B699A4265D0FA687B699A42E3
:1029200014D97B697B620CE0BB69181DBB691A6F07
:102930007B6A13441B7819460BF086F87B6A0133D7
:102940007B627A6AFB689A42EED32AE07B693B623B
:102950000CE0BB69181DBB691A6F3B6A13441B78F6
:1029600019460BF071F83B6A01333B62BB69B3F85F
:1029700074301A463B6A9342EBD30023FB610CE0B0
:10298000BB69181DBB691A6FFB6913441B78194694
:102990000BF05AF8FB690133FB61FA69FB689A4254
:1029A000EED3BB695B6E07F108021146184612F0C0
:1029B00009FCBB68002B07D00C4B4FF080521A600B
:1029C000BFF34F8FBFF36F8FBB69FA689A67BB691C
:1029D0009B6FBA69B2F87420934204D1BB6900229C
:1029E0009A6700E000BF2837BD4680BD04ED00E0D7
:1029F00080B584B000AF78607868FFF7DFFCF860DE
:102A0000FB68002B02D14FF0FF330EE0FB6804336C
:102A100007F10B02114618460BF05CF80346002B39
:102A200001D0FB7A01E04FF0FF3318461037BD4666
:102A300080BD80B584B000AF78607868FFF7BEFCD9
:102A4000F860FB68002B01D1002305E0FB6804332C
:102A500018460BF0BCF8034618461037BD4680BD3B
:102A600080B584B000AF78607868FFF7A7FCF860A5
:102A7000FB68002B01D1002306E0FB6834331846C5
:102A80000BF069F8034600BF18461037BD4680BDFD
:102A900080B582B000AF78600B46FB7000BF7868ED
:102AA000FFF79CFA0346002BF9D0FB7819467868AB
:102AB000FFF756FB00BF7868FFF77DFA0346002B4F
:102AC000F9D000BF00BF0837BD4680BD80B582B0D9
:102AD00000AF786039603B68002B0ED008E03B689F
:102AE0001B7819467868FFF7D3FF3B6801333B60DA
:102AF0003B681B78002BF2D100E000BF0837BD46D1
:102B000080BD000080B485B000AF78600D4BFB60E5
:102B10000CE07B685A1C7A601B781A46FB685340AD
:102B2000FB60FB68084A02FB03F3FB607B681B78D1
:102B3000002BEED1FB6818461437BD465DF8047BC8
:102B4000704700BFC59D1C819301000180B485B012
:102B500000AF786039607A683B685340FB60FB687F
:102B60001B0CFA681343FB60FB681B0AFA681343EB
:102B7000FB60FB68DBB2002B0CBF01230023DBB240
:102B800018461437BD465DF8047B704780B584B0A5
:102B900000AF78607868FFF7B5FFF860054BBB6061
:102BA000B968F868FFF7D2FF034618461037BD46EC
:102BB00080BD00BFA37B47C580B584B000AF7860FF
:102BC00009F0ECF9F8600023FB7207F10B02012316
:102BD0000021F86809F0D9FA0346002B02D1FB7AEC
:102BE000102B07D91549786800F020F9144B012201
:102BF0001A6020E0FB7A002B16D0FB7A114A0121E3
:102C0000F86809F0C2FA0346002B05D1FB7A1A4690
:102C10000C4B002199540EE00849786800F006F941
:102C2000074B01221A6006E00449786800F0FEF8BC
:102C3000034B01221A601037BD4680BD14A4020860
:102C400050DF01243CDF012480B584B000AF786000
:102C50000E4B1B68012B0BD17868FFF753FFF86010
:102C60000B4BBB60B968F868FFF770FF034609E0DB
:102C700008497868FDF734FB0346002B01D1012396
:102C800000E0002318461037BD4680BD50DF012408
:102C9000A37B47C53CDF012480B582B000AF7860DC
:102CA0007B6893F82830042B10D17B685B6D5A1C2D
:102CB0007B685A657B685B6D064A934206D37868E9
:102CC00000F068F80449786800F0B0F800BF0837F1
:102CD000BD4680BDE093040050A4020880B483B0D8
:102CE00000AF78607B6893F82830042B02D17B68B2
:102CF00000225A6500BF0C37BD465DF8047B704763
:102D000080B582B000AF786039607B683A689A65B8
:102D10007B6800221A627B6800225A627B6800226C
:102D200083F828207B680022DA627B6800221A651B
:102D30007B6800225A657B6820220021184626F015
:102D400095F87B68303320220021184626F08EF853
:102D50000B49786800F06AF80A49786800F066F86C
:102D60000949786800F062F80849786800F05EF870
:102D70000749786800F05AF800BF0837BD4680BDA3
:102D80007CA4020884A402088CA40208A0A402085F
:102D9000A8A4020880B582B000AF78607B680122E9
:102DA0001A627B6800225A627B68002283F828201E
:102DB0007B680022DA627B6800221A657B68002249
:102DC0005A657B6820220021184626F04FF87B6860
:102DD000303320220021184626F048F80D49786843
:102DE00000F024F80C49786800F020F80B49786866
:102DF00000F01CF80A49786800F018F8094978686A
:102E000000F014F80849786800F010F800BF08379F
:102E1000BD4680BD7CA4020884A402088CA40208DC
:102E2000A0A40208A8A40208ACA4020880B582B03D
:102E300000AF7860396007E07B689A6D3B68591C89
:102E400039601B78184690473B681B78002BF3D1FC
:102E500000BF00BF0837BD4680BD000080B582B00E
:102E600000AF78607B6893F82830002B37D17B68FF
:102E700024491846FDF734FA0346002B0BD17B6832
:102E8000012283F828207B680022DA621E497868D4
:102E9000FFF7CCFF31E07B681C491846FDF720FAAC
:102EA0000346002B0ED17868FFF786FE7B6802226E
:102EB00083F828207B680022DA6213497868FFF7DC
:102EC000B5FF1AE012497868FFF7B0FF114978683A
:102ED000FFF7ACFF10497868FFF7A8FF0DE07B68AB
:102EE00093F82830032B04D07B6893F82830042B08
:102EF00003D10A497868FFF799FF00BF0837BD463C
:102F000080BD00BFC4A40208CCA40208D8A4020853
:102F1000E0A40208A8A40208ACA402080CA50208B8
:102F200080B582B000AF78600B46FB707B6893F889
:102F30002830012B05D07B6893F82830022B40F015
:102F4000ED800A22FB78934204D00D22FB78934255
:102F500040F0B6807B681B6D7A681344002283F8CA
:102F600030207B6893F82830012B38D17B683033D0
:102F70001846FFF70BFE0346012B30D17B68032276
:102F800083F828209A497868FFF750FF99497868B4
:102F9000FFF74CFF98497868FFF748FF9449786835
:102FA000FFF744FF95497868FFF740FF9449786838
:102FB000FFF73CFF93497868FFF738FF924978683C
:102FC000FFF734FF91497868FFF730FF8B49786845
:102FD000FFF72CFF86497868FFF728FF6CE07B68D5
:102FE00093F82830022B38D17B6830331846FFF72E
:102FF0002BFE0346012B30D17B68042283F8282066
:103000007B497868FFF712FF7A497868FFF70EFF6F
:103010007F497868FFF70AFF75497868FFF706FF70
:1030200076497868FFF702FF75497868FFF7FEFE7A
:1030300074497868FFF7FAFE73497868FFF7F6FE7F
:1030400072497868FFF7F2FE6C497868FFF7EEFE88
:1030500067497868FFF7EAFE2EE07B68DB6A5A1C56
:103060007B68DA6262497868FFF7E0FE7B68DB6ABA
:103070000322934214DB7B68002283F828206549F1
:103080007868FFF7D3FE5A497868FFF7CFFE5849B2
:103090007868FFF7CBFE60497868FFF7C7FE0BE062
:1030A0005E497868FFF7C2FE51497868FFF7BEFEB7
:1030B0005B497868FFF7BAFE7B6800221A6592E0E8
:1030C0007F22FB78934216D17B681B6D002B40F367
:1030D0008A807B681B6D5A1E7B681A657B689B6DB6
:1030E000082098477B689B6D202098477B689B6DE4
:1030F0000820984777E07B681B6D1E2B73DC7B688C
:103100001B6D591C7A6811657A681344FA7883F844
:1031100030207B689B6D2A20984764E07B6893F899
:103120002830032B04D07B6893F82830042B04D17B
:103130003C497868FFF77AFE56E00A22FB78934212
:1031400003D00D22FB7893421CD17B685B6A7A68BE
:103150000021D1547B685B6A002B0ADD2449786822
:10316000FFF764FE7868FFF779FE7B6800225A62F9
:103170003AE01F497868FFF759FE27497868FFF75A
:1031800055FE31E07F22FB7893421AD17B685B6A5F
:10319000002B29DD7B685B6A5A1E7B685A627B685C
:1031A0005B6A7A680021D1547B689B6D0820984740
:1031B0007B689B6D202098477B689B6D0820984713
:1031C00012E07B685B6A1E2B0EDC7B685B6A591C15
:1031D0007A6851627A68F978D1547B689B6DFA7885
:1031E0001046984700E000BF00BF0837BD4680BDCD
:1031F000A8A402081CA5020888A50208ACA502081C
:10320000D4A50208FCA5020824A602084CA60208C0
:1032100074A6020898A60208ACA40208C4A6020874
:10322000CCA40208ECA6020880B483B000AF78609A
:103230007B6893F8283018460C37BD465DF8047B50
:103240007047000080B400AFBFF34F8F00BF064B44
:10325000DB6803F4E0620449044B1343CB60BFF323
:103260004F8F00BF00BFFDE700ED00E00400FA054E
:1032700080B483B000AF786039607B683A689A6147
:1032800000BF0C37BD465DF8047B704780B483B047
:1032900000AF786039603B681A047B689A6100BFB0
:1032A0000C37BD465DF8047B704780B485B000AF35
:1032B00003460A46FB8013467B7141F22103BB8122
:1032C0007B791BB21B021AB2B7F9063053401BB20E
:1032D000FB800023FB7313E0B7F90630002B09DAFB
:1032E000B7F906305B001AB2B7F90C3053401BB285
:1032F000FB8002E0FB885B00FB80FB7B0133FB7300
:10330000FB7B072BE8D9FB8818461437BD465DF8D0
:10331000047B704780B5A8B002AFF860B9607A60EE
:103320000121B86802F040FEC7F884000221B868A5
:1033300002F03AFEC7F880000023A7F89630D7F8CD
:103340008430002B03D0D7F88030002B04D1A04963
:10335000F86802F067FD38E1D7F8840025F072FACA
:10336000F86700220021D7F8800025F09FFBB8679E
:10337000BB6F002B03D0BB6FB3F5483F0ED907F1ED
:1033800010004FF44833934A642125F06DFC07F197
:1033900010031946F86802F045FD16E1FDF7D8FB69
:1033A0000346032B1BD0FDF7D3FB0346022B08D0AB
:1033B000FDF7CEFB0346012B01D1874B02E0874B83
:1033C00000E0874B07F11000864A642125F04CFC91
:1033D00007F110031946F86802F024FDF5E0022019
:1033E000FDF764FBFB6F032B6DD0FB6F032B00F32A
:1033F0009C80FB6F012B03D0FB6F022B2CD094E041
:103400000023C7F890301AE0D7F8903087F875306D
:10341000D7F89030744A134497F875201A7097F8CB
:103420007520B7F8963011461846FFF73EFF034661
:10343000A7F89630D7F890300133C7F89030D7F816
:103440009020BB6F9A42DFD307F11000BB6F674A31
:10345000642125F009FC70E00023C7F88C3025E0DA
:10346000D7F88C10624BA3FB01239A0913465B002B
:1034700013445B01CA1AD3B2203387F87630D7F8E9
:103480008C30594A134497F876201A7097F87620B2
:10349000B7F8963011461846FFF707FF0346A7F81E
:1034A0009630D7F88C300133C7F88C30D7F88C20A1
:1034B000BB6F9A42D4D307F11000BB6F4D4A642111
:1034C00025F0D2FB39E00023C7F8883020E025F052
:1034D000BDF903465A42DBB2D2B258BF534287F815
:1034E0007730D7F88830404A134497F877201A701D
:1034F00097F87720B7F8963011461846FFF7D5FEB3
:103500000346A7F89630D7F888300133C7F88830DB
:10351000D7F88820BB6F9A42D9D307F11000BB6F50
:10352000354A642125F0A0FB07E03449F86802F031
:1035300079FC0320FDF7BAFA47E04FF47A7012F0F5
:1035400021FF0120FDF7B2FA07F110031946F868D0
:1035500002F068FC244A244B1B7807F1100000930A
:103560001346274A642125F07FFB07F11003194613
:10357000F86802F057FCBB6F013B1B4A1344194625
:10358000BB6F013B184A13441B7807F110000093EE
:103590000B461C4A642125F067FB07F1100319460E
:1035A000F86802F03FFCB7F8963007F11000164AB1
:1035B000642125F059FB07F110031946F86802F061
:1035C00031FC1249F86802F02DFC9837BD4680BDE9
:1035D00068B10208B8B10208E0B10208ECB1020813
:1035E000F4B10208FCB102080000003020B2020869
:1035F000ABAAAAAA50B2020880B20208A4B202087A
:10360000D4B20208F8B2020818B3020830B30208B4
:1036100080B5AAB002AFF860B9607A600121B868DD
:1036200002F0C2FCC7F884001023C7F880300023E2
:10363000C7F89C300023A7F89A30D7F88430002BC5
:1036400004D18049F86802F0EDFBF7E00022002188
:10365000D7F8840025F02AFAF867FB6F002B03D017
:10366000FB6FB3F5483F0ED907F114004FF4483310
:10367000754A642125F0F8FA07F114031946F86831
:1036800002F0D0FBDAE007F11400FB6F6F4A64210F
:1036900025F0EAFA07F114031946F86802F0C2FBB4
:1036A0000023C7F89430AEE0D7F8943003F16053AC
:1036B00007F11400664A642125F0D6FA07F11403D5
:1036C0001846FCF717FE024607F114031344C7F827
:1036D00090300023C7F88C3031E0D7F89420D7F829
:1036E0008C30134403F160531B7887F87B3007F16B
:1036F0001403D7F89020D31AC3F1640197F87B30F4
:10370000544AD7F8900025F0AFFAD7F89030033339
:10371000C7F89030D7F89C300133C7F89C3097F841
:103720007B20B7F89A3011461846FFF7BEFD0346D6
:10373000A7F89A30D7F88C300133C7F88C30D7F817
:103740008C20D7F880309A4207D2D7F89420D7F847
:103750008C301344FA6F9A42BFD8D7F890305A1C75
:10376000C7F8902020221A70D7F890305A1CC7F85A
:1037700090207C221A700023C7F8883021E0D7F807
:103780009420D7F88830134403F160531B7887F8EE
:103790007A3097F87A301F2B06D997F87A307E2B3B
:1037A00002D897F87A1000E02E21D7F890305A1CF2
:1037B000C7F890200A461A70D7F888300133C7F846
:1037C0008830D7F88820D7F880309A4207D2D7F8C7
:1037D0009420D7F888301344FA6F9A42CFD8D7F89C
:1037E000903000221A7007F114031946F86802F0AD
:1037F00019FB012012F0C6FDD7F89420D7F88030CD
:103800001344C7F89430D7F89420FB6F9A42FFF422
:103810004BAFB7F89A3007F114000093D7F89C30FB
:103820000D4A642125F020FA07F114031946F868BF
:1038300002F0F8FA0949F86802F0F4FAA037BD4638
:1038400080BD00BF34B30208B8B102085CB30208FF
:1038500084B3020890B3020898B3020830B3020898
:1038600080B5A0B000AFF860B9607A600121B86897
:1038700002F09AFBF867FB6F002B04D13449F8681B
:1038800002F0D0FA60E03349F86FFCF729FD0346F7
:10389000002B42D1FDF75CF9034687F87B3097F89F
:1038A0007B30032B2AD801A252F823F0BD38000840
:1038B000CD380008DD380008ED38000807F11403A2
:1038C000254A6421184625F0CFF91FE007F11403BB
:1038D000224A6421184625F0C7F917E007F11403BE
:1038E0001F4A6421184625F0BFF90FE007F11403C1
:1038F0001C4A6421184625F0B7F907E007F11403C4
:10390000194A6421184625F0AFF900BF07F11403E6
:103910001946F86802F086FA12E01449F86FFCF7CD
:10392000DFFC0346002B07D10320FDF7BFF8104949
:10393000F86802F077FA03E00E49F86802F072FACC
:103940000D49F86802F06EFA8037BD4680BD00BFB1
:10395000D0B30208F0B30208F4B3020808B40208B6
:1039600020B4020834B4020848B40208B4AB020818
:1039700060B402087CB4020830B3020880B5A0B07D
:1039800000AFF860B9607A6009F0ACF9F867FB6FD6
:103990001B7D83F00103DBB2002B04D01749F868CC
:1039A00002F040FA27E009F0E7FA034687F87B3097
:1039B00097F87B30002B0DD107F11403104A6421D6
:1039C000184625F051F907F114031946F86802F07A
:1039D00029FA0CE007F114030A4A6421184625F07D
:1039E00043F907F114031946F86802F01BFA064977
:1039F000F86802F017FA8037BD4680BDACB4020803
:103A0000D0B40208F8B4020830B3020890B5ABB0E5
:103A100004AFF860B9607A600121B86802F0C4FAB6
:103A2000C7F894000221B86802F0BEFAC7F8900007
:103A3000D7F89430002B03D0D7F89030002B04D166
:103A40003449F86802F0EEF961E0D7F8940024F008
:103A5000F9FE034687F88F3000220021D7F8900046
:103A600025F024F8C7F888002B4A97F88F30D7F84C
:103A70008810184609F06EF9034687F8873097F8E2
:103A80008730002B1ED107F11003184609F0FEF90C
:103A90000346002B37D17A693B7C1946BB69B88B4A
:103AA000044607F1200002940193009113461B4A3B
:103AB000642125F0D9F807F120031946F86802F0CF
:103AC000B1F920E097F88730022B0ED197F88F30AC
:103AD00007F12000124A642125F0C6F807F12003FF
:103AE0001946F86802F09EF90DE097F8873007F163
:103AF00020000C4A642125F0B7F807F1200319468D
:103B0000F86802F08FF90849F86802F08BF99C37E1
:103B1000BD4690BD1CB502080000003040B502084B
:103B200080B50208A0B5020830B3020880B5A4B081
:103B300002AFF860B9607A6009F058FA034687F876
:103B4000873097F88730032B38D801A252F823F03A
:103B5000B33B0008753B00086B3B0008613B000865
:103B60001D49F86802F05EF92DE01C49F86802F082
:103B700059F928E007F11003184609F087F90346C0
:103B8000002B11D1BB8B1A46BB6907F120000093B3
:103B90001346134A642125F067F807F120031946FC
:103BA000F86802F03FF90EE00E49F86802F03AF9C1
:103BB00009E00D49F86802F035F904E00B49F868AE
:103BC00002F030F900BF0A49F86802F02BF900BF93
:103BD0008837BD4680BD00BFC8B50208D4B502080D
:103BE000E0B5020810B602083CB602084CB602085E
:103BF00030B3020880B5A6B002AFF860B9607A6051
:103C00000121B86802F0D0F9C7F88400D7F88430F1
:103C1000002B04D14349F86802F004F97FE0002248
:103C20000021D7F8840024F041FFC7F88000D7F8BE
:103C30008030002B04D0D7F88030B3F5483F0ED940
:103C400007F114004FF44833374A642125F00CF88B
:103C500007F114031946F86802F0E4F85FE008F091
:103C600007FDF867FB6FDB7A83F00103DBB2002B03
:103C700004D02E49F86802F0D5F850E0D7F880104B
:103C80004FF0605008F040FD034687F87B3097F80E
:103C90007B30002B31D10023A7F88E300023C7F8EA
:103CA000883012E0D7F8883003F160531A78B7F8FB
:103CB0008E3011461846FFF7F8FA0346A7F88E3003
:103CC000D7F888300133C7F88830D7F88820D7F87C
:103CD00080309A42E6D3B7F88E3007F11400009393
:103CE000D7F88030124A642124F0BEFF07F1140394
:103CF0001946F86802F096F80DE097F87B3007F166
:103D000014000C4A642124F0AFFF07F11403194694
:103D1000F86802F087F80849F86802F083F89037ED
:103D2000BD4680BD5CB60208B8B1020888B602087C
:103D3000ACB60208D8B6020830B3020880B588B025
:103D400000AFF860B9607A6007F11403074A0A21EE
:103D5000184624F089FF07F114031946F86802F0A9
:103D600061F800BF2037BD4680BD00BFFCB6020829
:103D7000F0B5B3B006AFF860B9607A600121B868F9
:103D800002F012F9C7F8AC000221B86802F00CF991
:103D9000C7F8A8000321B86802F006F9C7F8A40024
:103DA0000421B86802F000F9C7F8A0000521B8683E
:103DB00002F0FAF8C7F89C000621B86802F0F4F89F
:103DC000C7F89800D7F8AC30002B13D0D7F8A8303C
:103DD000002B0FD0D7F8A430002B0BD0D7F8A03091
:103DE000002B07D0D7F89C30002B03D0D7F89830A1
:103DF000002B0DD107F11803624A6421184624F004
:103E000033FF07F118031946F86802F00BF8B6E023
:103E1000D7F8AC0024F016FDC7F89400D7F8A80036
:103E200024F010FDC7F89000D7F8A40024F00AFD94
:103E3000C7F88C00D7F8A00024F004FDC7F888006C
:103E4000D7F89C0024F0FEFCC7F88400D7F898004F
:103E500024F0F8FCC7F88000D7F89430002B03DB7F
:103E6000D7F89430172B04DD4749F86801F0DAFFE2
:103E700085E0D7F89030002B03DBD7F890303B2B50
:103E800004DD4249F86801F0CDFF78E0D7F88C30C6
:103E9000002B03DBD7F88C303B2B04DD3C49F86862
:103EA00001F0C0FF6BE0D7F88830002B03DDD7F8B6
:103EB00088301F2B04DD3749F86801F0B3FF5EE05E
:103EC000D7F88430002B03DDD7F884300C2B04DDC9
:103ED0003149F86801F0A6FF51E0D7F88030002B97
:103EE00003DBD7F88030632B04DD2C49F86801F040
:103EF00099FF44E0D7F89430DBB2FB74D7F89030E8
:103F0000DBB23B75D7F88C30DBB27B75D7F88830E5
:103F1000DBB23B74D7F88430DBB27B74D7F88030E7
:103F2000DBB2BB7407F11003184609F0C3FB07F0BE
:103F300005FFF86707F110031946F86F07F054FF03
:103F4000FB7C1E463B7D7A7D397C787C0446B87CC0
:103F5000054607F11800049503940291019200931D
:103F600033460F4A642124F07FFE07F118031946F7
:103F7000F86801F057FF0B49F86801F053FFB437B8
:103F8000BD46F0BD04B7020844B7020878B702087E
:103F9000ACB70208E0B7020810B8020844B802083B
:103FA0008CB8020830B30208F0B5B7B006AFF860BD
:103FB000B9607A600121B86801F0F6FFC7F8BC006B
:103FC000D7F8BC30002B0DD107F14803C84A642153
:103FD000184624F049FE07F148031946F86801F035
:103FE00021FF82E1C349D7F8BC00FCF779F9034609
:103FF000002B3FD107F0A2FEC7F8AC0007F1400349
:104000001946D7F8AC0007F0A3FE0346002B2CD1CD
:1040100007F13E031946D7F8AC0007F029FF97F8DF
:1040200043309C4697F8443097F8452097F8401065
:1040300097F84100044697F842000546B7F93E005C
:10404000064607F1480005960495039402910192F3
:1040500000936346A84A642124F006FE07F1480352
:104060001946F86801F0DEFE3BE1A449F86801F06A
:10407000D9FE36E1A249D7F8BC00FCF731F9034676
:10408000002B26D107F13803184609F0FDFA97F8FE
:104090003B301E4697F83C3097F83D2097F8381093
:1040A00097F83900044697F83A00054607F14800AA
:1040B000049503940291019200933346914A64213E
:1040C00024F0D2FD07F148031946F86801F0AAFE72
:1040D00007E18D49D7F8BC00FCF702F90346002B35
:1040E0002ED100237B63002387F83330002387F829
:1040F0003230002387F8313007F1310307F1320203
:1041000007F1330107F1340009F018FB97F8333059
:104110001C4697F8323097F83120796BC9B207F115
:1041200048000291019200932346784A642124F0CA
:104130009BFD07F148031946F86801F073FED0E0D3
:104140007349D7F8BC00FCF7CBF80346002B12D11B
:1041500009F0E6FAC7F8B00007F14800D7F8B03028
:104160006C4A642124F080FD07F148031946F86881
:1041700001F058FEB5E06849D7F8BC00FCF7B0F88C
:104180000346002B40F0A08007F0D8FDC7F8B80028
:1041900007F128031946D7F8B80007F0D9FD034600
:1041A000002B2CD107F116031946D7F8B80007F0F9
:1041B0005FFE97F82B309C4697F82C3097F82D200F
:1041C00097F8281097F82900044697F82A00054622
:1041D000B7F91600064607F14800059604950394C2
:1041E0000291019200936346434A642124F03CFD0E
:1041F00007F148031946F86801F014FE03E0474947
:10420000F86801F00FFE07F12003184609F03CFAA8
:1042100097F823301E4697F8243097F8252097F812
:10422000201097F82100044697F82200054607F170
:104230004800049503940291019200933346314A59
:10424000642124F011FD07F148031946F86801F0D4
:10425000E9FD0023FB610023FB760023BB760023EE
:104260007B7607F1190307F11A0207F11B0107F129
:104270001C0009F063FAFB7E1C46BB7E7A7EF9695E
:10428000C9B207F1480002910192009323461F4AE8
:10429000642124F0E9FC07F148031946F86801F0AD
:1042A000C1FD09F03DFAC7F8B40007F14800D7F89E
:1042B000B430184A642124F0D7FC07F148031946AA
:1042C000F86801F0AFFD0CE007F14803144A6421DF
:1042D000184624F0C9FC07F148031946F86801F0B4
:1042E000A1FD1049F86801F09DFDC437BD46F0BD41
:1042F000BCB80208E8B80208F0B8020838B90208E9
:1043000054B902085CB9020898B90208A0B90208B9
:10431000D4B90208DCB90208ECB90208F0B9020805
:1043200008BA020830B30208F0B5A9B006AFF860C9
:10433000B9607A600121B86801F036FEC7F88400E0
:10434000D7F88430002B0DD107F118032F4A6421D0
:10435000184624F089FC07F118031946F86801F0A3
:1043600061FD50E000220021D7F8840024F09EFB7C
:10437000C7F88000D7F88030254A93420DD807F15E
:104380001800244B244A642124F06EFC07F1180322
:104390001946F86801F046FD35E0D7F8800009F0CD
:1043A0009FF9D7F880201D4B134407F110021146E6
:1043B000184608F0CDFE07F0C1FCF86707F11003BE
:1043C0001946F86F07F010FDFB7C1E463B7D7A7D99
:1043D000397C787C0446B87C054607F118000495C2
:1043E000039402910192009333460D4A642124F014
:1043F0003BFC07F118031946F86801F013FD094961
:10440000F86801F00FFD8C37BD46F0BD40BA0208D8
:104410007F436D3880436D385CBA020880BC92C718
:104420008CB8020830B3020880B5A4B002AFF860BF
:10443000B9607A600121B86801F0B6FDC7F8840060
:104440000221B86801F0B0FDC7F88000D7F88430C9
:10445000002B03D0D7F88030002B0DD107F11403C7
:10446000254A6421184624F0FFFB07F1140319467E
:10447000F86801F0D7FC3CE000220021D7F8840066
:1044800024F09CFA0346A7F87E3000220021D7F8DA
:10449000800024F093FA0346DBB2FB7407F07EFD44
:1044A000B867B7F87E1007F113020123B86F07F061
:1044B000DDFD0346002B0AD1B7F87E30FA7C07F108
:1044C000140000920D4A642124F0CEFB07E0B7F8F7
:1044D0007E3007F114000A4A642124F0C5FB07F17D
:1044E00014031946F86801F09DFC0649F86801F0CC
:1044F00099FC8837BD4680BD7CBA0208A0BA020884
:10450000C0BA020830B3020880B5A4B002AFF860A8
:10451000B9607A600121B86801F046FDC7F88400EF
:10452000D7F88430002B0DD107F11803224A6421FB
:10453000184624F099FB07F118031946F86801F0B2
:1045400071FC35E000220021D7F8840024F036FA0F
:104550000346A7F882300023FB7507F01FFDF867BC
:10456000B7F8821007F117020123F86F07F00DFE6C
:104570000346002B0AD1B7F88230FA7D07F1180004
:1045800000920E4A642124F06FFB07E0B7F88230F6
:1045900007F118000A4A642124F066FB07F11803AA
:1045A0001946F86801F03EFC0649F86801F03AFC4B
:1045B0008837BD4680BD00BFDCBA0208F8BA0208E1
:1045C00018BB020830B3020880B584B000AFF860B1
:1045D000B9607A60F86803F01BFE0449F86801F0DE
:1045E00021FC00BF1037BD4680BD00BF30B30208BC
:1045F00080B586B000AFF860B9607A6003F0ACFABD
:1046000019F058FA0D49F86801F00CFC03F018FC99
:104610000346FB75FB7D002B04D00949F86801F0C7
:1046200001FC03E00749F86801F0FCFB0649F86863
:1046300001F0F8FB00BF1837BD4680BD34BB02084F
:104640004CBB020860BB020830B3020880B584B0DE
:1046500000AFF860B9607A6019F022FA03F08EFAC0
:104660000549F86801F0DEFB0449F86801F0DAFB5F
:1046700000BF1037BD4680BD7CBB020830B30208C6
:1046800080B5A6B000AFF860B9607A600121B86863
:1046900001F08AFCC7F894000221B86801F084FC9C
:1046A000C7F89000D7F89430002B03D0D7F890309B
:1046B000002B04D11149F86801F0B4FB1BE0D7F8D6
:1046C0009020D7F89410F86803F0B6FC0346002B4E
:1046D0000DD107F11000D7F89430094A802124F059
:1046E000C3FA07F110031946F86801F09BFB05496E
:1046F000F86801F097FB9837BD4680BD94BB02086F
:10470000B4BB020830B3020880B5A8B000AFF860AF
:10471000B9607A600121B86801F046FCC7F89C00D6
:104720000221B86801F040FCC7F89800D7F89C3027
:10473000002B03D0D7F89830002B04D11C49F8681F
:1047400001F070FB31E0D7F89800FBF7D3FDC7F814
:104750009400D7F89430B3F5005F04D91549F86890
:1047600001F060FB21E0D7F89420D7F89810D7F833
:104770009C0003F0BDFA0346002B0ED107F1140094
:10478000D7F89C300C4A802124F06EFA07F114030C
:104790001946F86801F046FB03E00849F86801F0A3
:1047A00041FB0749F86801F03DFBA037BD4680BDDD
:1047B00094BB0208CCBB0208B4BB0208E8BB0208E9
:1047C00030B3020880B586B000AFF860B9607A6097
:1047D0000121B86801F0E8FB78617B69002B04D106
:1047E0000749F86801F01EFB07E07969F86803F0F3
:1047F00049FB0449F86801F015FB1837BD4680BD38
:1048000000BC020830B3020880B584B000AFF86085
:10481000B9607A6080210B48FEF738FD642011F002
:10482000B1FD80210748FEF723FD0749F86801F034
:10483000F9FA0649F86801F0F5FA00BF1037BD46ED
:1048400080BD00BF0018025818BC020830B302082F
:1048500080B584B000AFF860B9607A604FF48071C1
:104860000748FEF705FD0749F86801F0DBFA06493D
:10487000F86801F0D7FA00BF1037BD4680BD00BF11
:104880000018025834BC020830B3020880B584B066
:1048900000AFF860B9607A604FF480710748FEF7A6
:1048A000F5FC0749F86801F0BDFA0649F86801F01F
:1048B000B9FA00BF1037BD4680BD00BF00180258CE
:1048C0005CBC020830B3020880B586B000AFF86067
:1048D000B9607A600121B86801F066FB78617B6994
:1048E000002B04D11E49F86801F09CFA35E01D49FF
:1048F0007869FBF7F5FC0346002B07D11A49F868E5
:1049000001F090FA0120FCF75DF922E0174978697F
:10491000FBF7E6FC0346002B07D11549F86801F0C8
:1049200081FA0220FCF74EF913E012497869FBF78F
:10493000D7FC0346002B07D10F49F86801F072FA43
:104940000020FCF73FF904E00C49F86801F06AFA2E
:1049500003E00B49F86801F065FA1837BD4680BDE1
:1049600084BC0208A8BC0208ACBC0208DCBC02087B
:10497000E0BC020810BD020818BD02084CBD0208C8
:1049800030B3020880B586B000AFF860B9607A60D5
:104990000121B86801F008FB78617B69002B04D124
:1049A0001E49F86801F03EFA34E01D497869FBF7CA
:1049B00097FC0346002B07D10320FCF703F91949A4
:1049C000F86801F02FFA21E017497869FBF788FCB5
:1049D0000346002B07D10420FCF7F4F81349F868CC
:1049E00001F020FA12E012497869FBF779FC0346DE
:1049F000002B07D10020FCF7E5F80E49F86801F01C
:104A000011FA03E00C49F86801F00CFA0B49F86858
:104A100001F008FA1837BD4680BD00BF84BD02080A
:104A2000A8BC0208A4BD0208DCBC0208ECBD020858
:104A30002CBE020830BE020860BE020830B3020875
:104A400080B588B000AFF860B9607A600121B868BD
:104A500001F0AAFAB861BB69002B04D11649F868C5
:104A600001F0E0F925E0B869FBF744FC78610D211D
:104A70001248FDF783FE0023FB610AE0BA69FB6977
:104A800013441B7819460D48FDF778FEFB69013386
:104A9000FB61FA697B699A42F0D30D210748FDF763
:104AA0006DFE0749F86801F0BDF90649F86801F0A4
:104AB000B9F92037BD4680BD94BE020800440040CD
:104AC000B0BE020830B3020880B584B000AF786091
:104AD0007B68FB600349F86801F0A4F900BF103758
:104AE000BD4680BDD0BE020880B584B000AF7860FE
:104AF0007B68FB600349F86801F094F900BF103748
:104B0000BD4680BDE0BE020880B584B000AF7860CD
:104B10007B68FB600349F86801F084F900BF103737
:104B2000BD4680BDF0BE020880B588B004AFF86015
:104B3000B9607A6000230193FB680093164B002252
:104B40000A21022008F0C6FE01230293FB680193AC
:104B5000124B009300231E2214210A2008F01AFE93
:104B600002230093FB680E4A0021142008F068FE1F
:104B70000C49F86801F056F90B49F86801F052F950
:104B80000A49F86801F04EF90949F86801F04AF954
:104B900000BF1037BD4680BDC94A0008E94A000879
:104BA000094B000804BF020828BF020848BF0208DA
:104BB00030B3020890B5ADF20C4D04AF07F57E732B
:104BC000A3F57B73186007F57E73A3F57C731960FA
:104BD00007F57E73A3F57D731A601423C7F8EC33D1
:104BE00011F042FEC7F8E80307F11400D7F8E833E4
:104BF000734A4FF4807124F037F807F1140207F577
:104C00007E73A3F57B731146186801F00BF907F565
:104C10008A730022D7F8EC13184611F031FEC7F85A
:104C2000E403D7F8E433002B10D107F57E73A3F526
:104C30007B736449186801F0F5F807F57E73A3F5F6
:104C40007B736149186801F0EDF8B4E007F11400D6
:104C5000D7F8E4335D4A4FF4807124F005F807F18A
:104C6000140207F57E73A3F57B731146186801F0F3
:104C7000D9F807F57E73A3F57B735549186801F0E1
:104C8000D1F807F57E73A3F57B735249186801F0DC
:104C9000C9F80023C7F8F43377E007F57E73A3F56E
:104CA0003971D7F8F4231346DB0013449B000B44FF
:104CB0000C331B78042B21D801A252F823F000BF3B
:104CC000D54C0008DD4C0008E54C0008ED4C000810
:104CD000F54C0008404BC7F8F03313E03F4BC7F8E2
:104CE000F0330FE03E4BC7F8F0330BE03D4BC7F815
:104CF000F03307E03C4BC7F8F03303E03B4BC7F819
:104D0000F03300BF07F57E73A3F53971D7F8F423AC
:104D10001346DB0013449B000B4404331C6807F567
:104D20007E73A3F53971D7F8F4231346DB001344DF
:104D30009B000B441033196807F57E73A3F5397097
:104D4000D7F8F4231346DB0013449B0003442033BD
:104D50001B6807F1140002930191D7F8F033009318
:104D60002346234A4FF4807123F07EFF07F114029B
:104D700007F57E73A3F57B731146186801F052F8AE
:104D8000D7F8F4330133C7F8F433D7F8F423D7F85E
:104D9000E4339A4281D307F57E73A3F57B730D4903
:104DA000186801F03FF807F57E73A3F57B73064999
:104DB000186801F037F807F57F77BD4690BD00BF52
:104DC00064BF020884BF020830B30208A8BF02080B
:104DD000BCBF0208ECBF020818C0020820C00208CD
:104DE00028C0020830C0020838C0020840C00208CB
:104DF00048C0020880B582B000AF78600348FDF774
:104E0000C9FF00BF0837BD4680BD00BF744A0124FA
:104E100090B587B002AFF860B9607A601349F8685E
:104E200001F000F8124B1B68002B0AD1114B0093C4
:104E3000002300226421104812F08EFF03460C4A22
:104E400013600B4B1B68002B0BD0094B1C6811F037
:104E5000FBFC02460023009300230121204612F0B0
:104E6000D7FF00BF1437BD4690BD00BF60C0020829
:104E700054DF0124F54D000870C0020880B58AB0E7
:104E800000AFF860B9607A600121B86801F08CF871
:104E900078627B6A002B04D12949F86800F0C2FFD0
:104EA0004AE02848FEF7C0F9034687F8233097F810
:104EB0002330032B3BD1786AFBF71CFAF861FB69BE
:104EC000102B04D92049F86800F0ACFF34E007F05B
:104ED00065F8B861FB69DBB2FB7507F117020123C6
:104EE0000021B86907F0C2F80346002B04D0174927
:104EF000F86800F097FF1FE0FB69002B0ED0FB69FC
:104F00009BB27A6A0121B86907F0B0F80346002B1A
:104F100004D00F49F86800F085FF0DE00D49F868EE
:104F200000F080FF0C49F86800F07CFF04E00B49BA
:104F3000F86800F077FF00BF2837BD4680BD00BF8E
:104F40007CC00208744A0124A0C00208C8C002083C
:104F5000F4C0020818C1020830B302083CC10208BC
:104F600080B596B000AFF860B9607A600121B8688A
:104F700001F01AF878651949F86800F053FF7B6D65
:104F8000002B0BD11649F86800F04CFFF86802F0CE
:104F900001FD1449F86800F045FF16E00A220021DF
:104FA000786D23F083FD386507F110003B6D0E4AE4
:104FB000402123F059FE07F110031946F86800F06C
:104FC00031FFF968386D02F019FD0849F86800F002
:104FD00029FF00BF5837BD4680BD00BF6CC1020825
:104FE00084C1020894C10208A4C1020830B30208B7
:104FF00080B584B000AFF860B9607A60FEF722F93E
:1050000080B5A0B000AFF860B9607A600121B868DF
:1050100000F0CAFFF867FB6F002B0DD107F11403F6
:10502000144A6421184623F01FFE07F114031946A1
:10503000F86800F0F7FE19E000220021F86F23F075
:1050400035FDB867B86F03F06BFA07F11400BB6F5A
:10505000094A642123F008FE07F114031946F86891
:1050600000F0E0FE0549F86800F0DCFE8037BD4640
:1050700080BD00BFB8C10208E0C1020830B3020819
:10508000F0B5D5B006AF07F59C73A3F5967318601D
:1050900007F59C73A3F59873196007F59C73A3F546
:1050A0009A731A6007F59C73A3F598730121186829
:1050B00000F07AFFC7F8340107F59C73A3F59873E5
:1050C0000221186800F070FFC7F8300107F59C73E3
:1050D000A3F598730321186800F066FFC7F82C0148
:1050E00007F59C73A3F598730421186800F05CFF22
:1050F000C7F8280107F59C73A3F598730521186874
:1051000000F052FFC7F8240107F59C73A3F59873CC
:105110000621186800F048FFC7F82001D7F834319D
:10512000002B13D0D7F83031002B0FD0D7F82C310B
:10513000002B0BD0D7F82831002B07D0D7F824311B
:10514000002B03D0D7F82031002B12D107F1140324
:10515000434A4FF48071184623F086FD07F114028C
:1051600007F59C73A3F596731146186800F05AFE74
:1051700072E000220021D7F8340123F097FC0346A7
:1051800087F81F3100220021D7F8300123F08EFC70
:10519000034687F81E3100220021D7F82C0123F0A6
:1051A00085FC034687F81D3100220021D7F828012D
:1051B00023F07CFC0346A7F81A3100220021D7F81F
:1051C000240123F073FC034687F8193100220021E3
:1051D000D7F8200123F06AFC0346A7F81631B7F888
:1051E0001A4197F81D2197F81E1197F81F01B7F87B
:1051F0001631019397F819310093234603F0E0F933
:1052000097F81F6197F81E3197F81D21B7F81A110A
:1052100097F81901B7F8164107F1140504940390A3
:1052200002910192009333460E4A4FF48071284652
:1052300023F01AFD07F1140207F59C73A3F596738A
:105240001146186800F0EEFD07F59C73A3F5967300
:105250000549186800F0E6FD07F59E77BD46F0BDEC
:105260000CC2020870C2020830B3020880B584B0D4
:1052700000AFF860B9607A6003F00CFA0549F8688D
:1052800000F0D0FD0449F86800F0CCFD00BF1037F5
:10529000BD4680BDB0C2020830B3020880B584B0FC
:1052A00000AFF860B9607A6003F032FA0549F86837
:1052B00000F0B8FD0449F86800F0B4FD00BF1037F5
:1052C000BD4680BDCCC2020830B3020880B5A2B092
:1052D00002AFF860B9607A600121B86800F064FE3E
:1052E000F8670221B86800F05FFEB867FB6F002B1B
:1052F00002D0BB6F002B0DD107F110031E4A6421B1
:10530000184623F0B1FC07F110031946F86800F0C5
:1053100089FD2DE000220021F86F23F0C7FB034632
:1053200087F8773000220021B86F23F0BFFB0346D7
:10533000A7F87430B7F8742097F8773011461846FC
:1053400003F024FA97F87720B7F8743007F11000CB
:1053500000931346094A642123F086FC07F11003E9
:105360001946F86800F05EFD0549F86800F05AFD3E
:105370008037BD4680BD00BFE8C2020820C30208D6
:1053800030B3020880B584B000AFF860B9607A60CD
:1053900003F04CFA0549F86800F044FD0449F86848
:1053A00000F040FD00BF1037BD4680BD58C3020865
:1053B00030B3020880B584B000AFF860B9607A609D
:1053C00003F072FA0549F86800F02CFD0449F8680A
:1053D00000F028FD00BF1037BD4680BD7CC3020829
:1053E00030B3020880B5B0B004AFF860B9607A603D
:1053F0000121B86800F0D8FDC7F8AC000221B868F8
:1054000000F0D2FDC7F8A8000321B86800F0CCFD79
:10541000C7F8A4000421B86800F0C6FDC7F8A000D2
:10542000D7F8AC30002B0BD0D7F8A830002B07D022
:10543000D7F8A430002B03D0D7F8A030002B0DD123
:1054400007F110032A4A8021184623F00DFC07F1CA
:1054500010031946F86800F0E5FC45E00022002141
:10546000D7F8AC0023F022FBC7F89C0000220021F3
:10547000D7F8A80023F01AFBC7F8980000220021F3
:10548000D7F8A40023F012FBC7F8940000220021F3
:10549000D7F8A00023F00AFB0346A7F89230B7F82C
:1054A0009230D7F89420D7F89810D7F89C0003F0E2
:1054B00039FAB7F8923007F110000293D7F8943018
:1054C0000193D7F898300093D7F89C30094A80218F
:1054D00023F0CAFB07F110031946F86800F0A2FC9C
:1054E0000549F86800F09EFCB037BD4680BD00BF9E
:1054F000A0C30208DCC3020830B3020880B5A0B024
:1055000000AFF860B9607A600121B86800F04CFD26
:10551000F867FB6F002B0DD107F11403164A6421C5
:10552000184623F0A1FB07F114031946F86800F0B0
:1055300079FC1EE000220021F86F23F0B7FA034641
:1055400087F87B3097F87B30184603F073FA97F8AA
:105550007B3007F11400094A642123F085FB07F131
:1055600014031946F86800F05DFC0549F86800F07E
:1055700059FC8037BD4680BD34C402085CC40208B3
:1055800030B3020880B5A0B000AFF860B9607A60AF
:105590000121B86800F008FDF867FB6F002B0DD102
:1055A00007F11403164A6421184623F05DFB07F146
:1055B00014031946F86800F035FC1EE000220021B3
:1055C000F86F23F073FA034687F87B3097F87B3047
:1055D000184603F075FA97F87B3007F11400094A72
:1055E000642123F041FB07F114031946F86800F029
:1055F00019FC0549F86800F015FC8037BD4680BDF0
:105600008CC40208ACC4020830B3020880B584B070
:1056100000AFF860B9607A6003F098FA0549F8685D
:1056200000F000FC0449F86800F0FCFB00BF1037F4
:10563000BD4680BDD4C4020830B3020880B584B032
:1056400000AFF860B9607A6003F0BEFA0549F86807
:1056500000F0E8FB0449F86800F0E4FB00BF1037F5
:10566000BD4680BDF4C4020830B3020880B5A0B0C6
:1056700000AFF860B9607A600121B86800F094FC6E
:10568000F867FB6F002B0DD107F11403164A642154
:10569000184623F0E9FA07F114031946F86800F0F8
:1056A000C1FB1EE000220021F86F23F0FFF9034642
:1056B00087F87B3097F87B30184603F0C3FA97F8E9
:1056C0007B3007F11400094A642123F0CDFA07F179
:1056D00014031946F86800F0A5FB0549F86800F0C6
:1056E000A1FB8037BD4680BD10C5020830C5020849
:1056F00030B3020880B5A0B000AFF860B9607A603E
:105700000121B86800F050FCF867FB6F002B0DD149
:1057100007F11403164A6421184623F0A5FA07F18D
:1057200014031946F86800F07DFB1EE000220021FA
:10573000F86F23F0BBF9034687F87B3097F87B308E
:10574000184603F0C5FA97F87B3007F11400094AB0
:10575000642123F089FA07F114031946F86800F070
:1057600061FB0549F86800F05DFB8037BD4680BDF0
:1057700054C5020880C5020830B3020880B5A0B045
:1057800000AFF860B9607A600121B86800F00CFCE5
:10579000F867FB6F002B0DD107F11403164A642143
:1057A000184623F061FA07F114031946F86800F06F
:1057B00039FB1EE000220021F86F23F077F9034641
:1057C00087F87B3097F87B30184603F0C7FA97F8D4
:1057D0007B3007F11400094A642123F045FA07F1F0
:1057E00014031946F86800F01DFB0549F86800F03D
:1057F00019FB8037BD4680BDB4C50208D8C5020874
:1058000030B3020880B584B000AFF860B9607A6048
:1058100003F0EAFA0549F86800F004FB0449F86867
:1058200000F000FB00BF1037BD4680BD04C6020873
:1058300030B3020880B59EB000AFF860B9607A60FE
:10584000BB68002B03D0BB681B78002B0DD107F180
:105850001403144A6421184623F006FA07F11403CE
:105860001946F86800F0DEFA19E0B868FAF742FD68
:105870000346DBB21946B86803F0F4FA07F11400E6
:10588000BB68094A642123F0EFF907F114031946B4
:10589000F86800F0C7FA0549F86800F0C3FA7837ED
:1058A000BD4680BD20C602083CC6020830B30208CF
:1058B00080B584B000AFF860B9607A6004F080FA17
:1058C00005F002FC0349F86800F0ACFA00BF10379D
:1058D000BD4680BD30B3020880B584B000AFF8602B
:1058E000B9607A6004F0F6F90349F86800F09AFAB2
:1058F00000BF1037BD4680BD30B3020880B586B00A
:1059000000AFF860B9607A600023FB7510E0FB7DA2
:10591000184613F019FBFB7D0021184613F06CFBB1
:10592000FB7D0121184613F067FBFB7D0133FB75FE
:10593000FB7D012BEBD90449F86800F073FA00BF36
:105940001837BD4680BD00BF30B30208F0B59DB02A
:1059500006AFF860B9607A6007F15003184607F0A7
:1059600093FE97F85030184697F851301C4697F838
:1059700052301D4697F8533097F8542097F8551039
:105980000291019200932B46224601461B2013F000
:1059900011FC97F850301E4697F8513097F8522076
:1059A00097F8531097F85400044697F855000546A9
:1059B00007F110000495039402910192009333467D
:1059C000084A402123F050F907F110031946F868FE
:1059D00000F028FA0449F86800F024FA00BF5C37A8
:1059E000BD46F0BD64C6020830B3020880B400AF03
:1059F000024B1846BD465DF8047B70470C0E030849
:105A000080B400AF36231846BD465DF8047B70476E
:105A100080B584B000AF78600B46FB70FB78FB73F9
:105A2000FB7B19460348FCF7A9FE00BF1037BD46B3
:105A300080BD00BF0010014080B582B000AF00F013
:105A400053F878607B681D4ADA607B684FF4006227
:105A50001A827B6810229A807B684022DA807B68F9
:105A600080221A817B6820225A817B6801229A74E5
:105A70007B68134A1A60FFF7B9FF02467B685A61D8
:105A8000FFF7BEFF03461A467B681A83786800F06A
:105A900086F803460B4A13600A4B1B68002B01D1A2
:105AA000012307E0074B1B68074A1A60074B0122D6
:105AB0001A70002318460837BD4680BD58DF012400
:105AC00094C6020858E70124115A00085CE7012433
:105AD00080B400AF034B1B681846BD465DF8047BDD
