:020000040804EE
:1000000000000824F1570608AD520608B55206084C
:10001000BD520608C5520608CD5206080000000071
:1000200000000000000000000000000041DD0508A5
:10003000D55206080000000001E0050869E0050847
:100040004558060845580608455806084558060804
:1000500045580608455806084558060845580608F4
:10006000455806084558060845580608E55206084A
:100070009553060845580608455806084558060889
:1000800045580608455806084558060845580608C4
:1000900045580608455806084558060845580608B4
:1000A00045580608455406084558060845580608A8
:1000B0004558060845580608455806084558060894
:1000C0004558060845580608455806084558060884
:1000D000455806085154060889540608455806082C
:1000E000455806084558060800000000455806080F
:1000F000455806084558060845580608C1540608DC
:100100004558060809550608455806084558060882
:100110004558060845580608455806081D5506085E
:10012000455806083155060845580608455806083A
:100130004558060845580608455806084558060813
:100140004558060845580608000000000000000059
:1001500045580608455806084558060845580608F3
:1001600045580608455806084558060845580608E3
:10017000455806084558060845580608000000007E
:100180004558060845580608E1550608455806082A
:100190004558060819560608275606084558060801
:1001A00045580608455806084558060845580608A3
:1001B0004558060845580608455806084558060893
:1001C0004558060845580608455806084558060883
:1001D0004558060845580608455806084558060873
:1001E0004558060845580608455806084558060863
:1001F0004558060845580608455806084558060853
:100200004558060845580608455806084558060842
:100210004558060845580608455806084558060832
:1002200045580608455806083556060800000000DF
:100230004558060845580608455806084558060812
:1002400045580608495606085556060845580608F2
:1002500045580608455806084558060845580608F2
:1002600045580608455806084558060845580608E2
:1002700045580608455806084558060845580608D2
:10028000455806084558060845580608000000006D
:08029000455806084558060810
:1002A00010B5054C237833B9044B13B10448AFF3B0
:1002B00000800123237010BDDC0700240000000033
:1002C00068FA060808B5034B1BB103490348AFF3AE
:1002D000008008BD00000000E007002468FA06085E
:1002E00010F8012B11F8013B012A28BF9A42F7D0E0
:1002F000D01A7047034613F8012B002AFBD1181AB5
:1003000001387047000000000000000000000000FD
:1003100001F0FF01102A2BDB10F0070F08D010F8B6
:10032000013B013A8B422DD010F0070F42B3F6D1BA
:10033000F0B441EA012141EA014122F007047FF0D3
:1003400000070023F0E80256083C85EA010586EA2A
:10035000010685FA47F5A3FA87F586FA47F6A5FA66
:1003600087F68EB9EED1F0BC01F0FF0102F0070272
:1003700032B110F8013B013A83EA010313B1F8D11D
:100380000020704701387047002D06BF35460338FE
:10039000073815F0010F07D1013015F4807F02BF37
:1003A000013015F4C03F0130F0BC0138704700BF88
:1003B00053B94AB9002908BF00281CBF4FF0FF31CC
:1003C0004FF0FF3000F088B9ADF1080C6DE904CEB4
:1003D00000F006F8DDF804E0DDE9022304B0704720
:1003E0002DE9F047089D8E4604468846002B4AD1E9
:1003F0008A42174662D9B2FA82F64EB1C6F120039C
:1004000001FA06F820FA03F3B74043EA0808B440BB
:100410004FEA174E1FFA87FCB8FBFEF1230C0EFBC8
:10042000118843EA084301FB0CF29A4209D9FB18F0
:1004300001F1FF3080F0EA809A4240F2E780023911
:100440003B449A1AA3B2B2FBFEF00EFB102243EA21
:10045000024300FB0CFC9C4509D9FB1800F1FF325C
:1004600080F0D6809C4540F2D3803B44023840EA7D
:100470000140A3EB0C0300211DB1F3400022C5E9AC
:100480000032BDE8F0878B4205D90DB1C5E9000106
:1004900000210846F5E7B3FA83F1002946D17345F8
:1004A00002D3824200F20581841A6EEB030201201E
:1004B0009046002DE5D0C5E90048E2E7002A00F0AB
:1004C0009080B2FA82F6002E40F0A4808A1A030CC3
:1004D0004FEA174E80B2BCB20121B2FBFEFC0EFB0C
:1004E0001C2243EA024304FB0CF29A4207D9FB1890
:1004F0000CF1FF3802D29A4200F2E080C4469B1A07
:10050000B3FBFEF20EFB123340EA034302FB04F49A
:100510009C4207D9FB1802F1FF3002D29C4200F244
:10052000CA8002461B1B42EA0C40A5E7C1F1200627
:100530008B4022FA06F71F430EFA01F420FA06F365
:100540002EFA06FE4FEA1749234300FA01F81FFA74
:1005500087FCBEFBF9F01C0C09FB10EE44EA0E44CC
:1005600000FB0CFEA64502FA01F209D93C1900F184
:10057000FF3A80F09C80A64540F2998002383C44C6
:10058000A4EB0E041FFA83FEB4FBF9F309FB13443A
:100590004EEA044403FB0CFCA44508D93C1903F1C2
:1005A000FF3E80F08280A4457FD9023B3C4443EA71
:1005B0000040A4EB0C04A0FB02EC64457346E1464A
:1005C00062D35FD05DB1B8EB030264EB090404FAB7
:1005D00006F622FA01F31E43CC40C5E9006400216F
:1005E0004FE7B1FBF2FC010C41EA0E4180B240EA58
:1005F00001423B4638463C46B846BE462026B1FB43
:10060000F7F1A2EB080241EA0C4166E7014618E760
:1006100010462CE7C6F120022EFA02F3B740B14093
:1006200020FA02F24FEA174E0A43B3FBFEF8BCB2BF
:100630000EFB1833110C41EA034108FB04F9B040EA
:1006400089454FEA104380B23ED9791808F1FF3C42
:1006500001D289451FD8A1EB0901B1FBFEF909FBC5
:1006600004F80EFB191192B242EA0142424529D226
:10067000BA1809F1FF31C4D24245C2D2A9F1020130
:100680003A44BEE7F0459DD2BEEB02036CEB070C8B
:100690000138E14696E7A7EB09094944A8F1020CA5
:1006A000B1FBFEF909FB04F8DBE773467FE7504630
:1006B00066E70846FDE63B44023A33E7ACF1020C3C
:1006C0003B441CE749469CE7A1EB0901C446B1FB4A
:1006D000FEF909FB04F8C4E7704700BF80B582B09B
:1006E00000AF0123FB711C4B01221A701B4810F054
:1006F000D1F910221A491B4810F024FB01F0ECFE3E
:100700000346FB7110F0BEFA11F0EAFC002001F084
:1007100039FC154A022100200FF0E8FF124A00219F
:1007200000200FF0E3FF104A012100200FF0DEFF50
:100730000D4A032100200FF0D9FF0B4A04210020AD
:100740000FF0D4FF084A052100200FF0CFFFFB79FE
:1007500018460837BD4680BDF80700240058004001
:10076000001002580034014080FA060880B500AF3E
:10077000044A022100200FF0B9FF00F027F900BF62
:1007800080BD00BF94FA0608F0B589B004AF00231D
:10079000FB73284B02221A70274A002100200FF019
:1007A000A5FF1EF0D5FA1EF001F81EF0ABFB0BF012
:1007B00059F9B860BB681A0ABB68190CBB681B0EF4
:1007C00000930B46B9683C201EF0CEFA11F038FDBC
:1007D0000346002B22D1194A022100200FF0E0FE2F
:1007E0003B46184611F0A6FCBB7803F5FA63FB8084
:1007F0003B781D467B781E46FA88FB881B0A9BB215
:10080000F97838797C79039402900191009313462A
:10081000324629462B201EF0A7FA05E0054AFB7B4D
:100820009370044B07221A70FB7B18461437BD46A1
:10083000F0BD00BFF8070024A8FA0608C0FA0608B1
:1008400080B582B000AF234B03221A700123FB71E5
:10085000214A002100200FF049FF06F03BF9034632
:10086000FB71FB79002B0BD01C4A042101200FF0F7
:1008700097FE184AFB799370164B07221A7004E012
:10088000174A022100200FF08BFE08F053FB0346AD
:10089000FB71FB79002B0BD0124A042101200FF0D1
:1008A0007FFE0C4AFB7993700A4B07221A7004E012
:1008B0000D4A022100200FF073FE0FF0FFFFFB79BD
:1008C0001A4601212D201EF04FFAFB7918460837F1
:1008D000BD4680BDF8070024D0FA0608E8FA0608ED
:1008E00004FB060820FB060834FB060880B582B02E
:1008F00000AF244B04221A700123FB71224A00210D
:1009000000200FF0F3FE11F0B7F80346FB71FB79FE
:10091000002B0BD01D4A042101200FF041FE194A83
:10092000FB799370174B07221A7004E0184A0221D2
:1009300000200FF035FE10221649174810F06CFD0C
:100940000346FB71FB79002B0BD0144A04210120D4
:100950000FF026FE0B4AFB7993700A4B07221A70A0
:1009600004E00F4A022100200FF01AFEFB791A461C
:1009700002212D201EF0F8F9FB7918460837BD46F4
:1009800080BD00BFF80700244CFB060864FB060886
:100990007CFB0608000002580014005894FB06086F
:1009A000ACFB060880B500AF064B05221A70054B5C
:1009B00006221A70044A002100200FF097FE00233F
:1009C000184680BDF8070024C4FB060880B500AFB8
:1009D00000F04CF900BF80BD80B5C2B000AF07F594
:1009E0008473A3F58273186007F58473A3F5847389
:1009F000196007F58473A3F5847307F108001B6879
:100A0000054A4FF480712DF0C9FE00BF00BF07F505
:100A10008477BD4680BD00BFDCFB060880B5C0B052
:100A200000AF3B46054A4FF4807118462DF0B6FEE4
:100A300000BF00BF07F58077BD4680BDF8FB060804
:100A400080B500AF032000F003F800BF80BD0000B8
:100A500080B483B000AF0346FB71FB79032B0BD846
:100A600001A252F823F000BF790A0408790A0408A9
:100A7000790A0408790A040800BF00BF0C37BD4694
:100A80005DF8047B704700BF80B400AF03231846B5
:100A9000BD465DF8047B704780B483B000AF034669
:100AA000FB71064AFB791370054B00221A7000BFD8
:100AB0000C37BD465DF8047B704700BFFB07002480
:100AC000FC07002480B400AF034B1B781846BD46DA
:100AD0005DF8047B704700BFFB07002480B483B03F
:100AE00000AF0346FB71FB795C2B06D10E4B1B78E4
:100AF0000133DAB20C4B1A7002E00B4B00221A7071
:100B0000094B1B78092B07D9084B00221A70064B9A
:100B100000221A70012300E0002318460C37BD465E
:100B20005DF8047B704700BFFC070024FB0700242E
:100B300080B483B000AF786039607B681A693B6825
:100B400013403A689A4201D1012300E0002318467D
:100B50000C37BD465DF8047B704780B483B000AFAE
:100B6000786039607B683A689A6100BF0C37BD468F
:100B70005DF8047B704780B483B000AF7860396063
:100B80003B681A047B689A6100BF0C37BD465DF86C
:100B9000047B704780B584B000AF0346FB71FB79DE
:100BA000FB73FB7B1946034801F04CFE00BF103776
:100BB000BD4680BD0010014080B584B000AF7860B4
:100BC000174B1B680A2118461AF0E2FA0346012B5C
:100BD00021D10023FB6014E0124AFB6852F8333045
:100BE00079681846FFF77CFB0346002B06D10D4AB7
:100BF000FB68DB00134401221A7105E0FB68013336
:100C0000FB60FB68022BE7DD054B18680023002220
:100C100000211AF019F800BF1037BD4680BD00BF93
:100C2000CC3000249804002480B582B000AF7860F6
:100C30000B4A022100200FF059FD00F05FF8034637
:100C4000002B07D0074A042101200FF0A9FC064B16
:100C500002225A7000201BF0B5F800BFFDE700BF6C
:100C600020FC060834FC06080008002480B586B085
:100C700004AF0F4B02930F4B019305230093002306
:100C80004FF4A0620C490D481AF0E9FE78607B68C9
:100C9000002B06D10A4A052101200FF081FC00BF7C
:100CA000FDE71BF0BDFA00BF0837BD4680BD00BFA1
:100CB00070300024701C00245CFC0608290C040819
:100CC0006CFC060880B500AF012019F0A4FF0346B4
:100CD000084A1360074B1B68002B02D100BF012399
:100CE00005E00022044902200FF00EFD0023184603
:100CF00080BD00BFCC30002488FC060880B584B0DD
:100D000002AF0123FB71FFF73FFD0346FB71FB7947
:100D1000002B05D0B14A052101200FF041FC04E071
:100D2000AF4A002100200FF03BFCFFF789FD03468E
:100D3000FB71FB79002B05D0AA4A052101200FF099
:100D40002FFC04E0A84A002100200FF029FCFFF747
:100D5000CDFD0346FB71FB79002B05D0A34A05218D
:100D600001200FF01DFC04E0A14A002100200FF03B
:100D700017FCFFF717FE0346FB71FB79002B05D02C
:100D80009C4A052101200FF00BFC04E09A4A002147
:100D900000200FF005FC08F011F80AF0DFFC08F065
:100DA0005FFDFB79002B05D0944A052101200FF04F
:100DB000F7FB04E0924A002100200FF0F1FBFB79E1
:100DC0001A4603212D201DF0CFFFFFF77BFF0BF00C
:100DD00001FC01200BF082FC8A4821F0CBF807F0DF
:100DE00083FFC8201BF01AF907F0FCFE00230193D3
:100DF0000123009300234FF42062834983481AF0B3
:100E000092FE0346012B01D001238EE100230193C2
:100E10000123009300234FF420627D497D481AF09E
:100E200082FE0346012B01D001237EE100230193C2
:100E30000123009300234FF4A062774977481AF00A
:100E400072FE0346012B01D001236EE100230193C2
:100E50000123009300234FF42072714971481AF066
:100E600062FE0346012B01D001235EE16E4801F0D2
:100E700009FB034600220192012200924FF42062F6
:100E80006A496B481AF04FFE0346012B01D001233B
:100E90004BE1684801F0F6FA034600220192012274
:100EA00000924FF42062644964481AF03CFE034605
:100EB000012B01D0012338E100230193012300938A
:100EC00000234FF4A0625E495E481AF02CFE0346F0
:100ED000012B01D0012328E100230193012300937A
:100EE00000238022584959481AF01DFE0346012B61
:100EF00001D0012319E10023019301230093002372
:100F00008022534953481AF00EFE0346012B01D0AC
:100F100001230AE1002301930123009300234FF4EE
:100F200020624D494D481AF0FEFD0346012B01D0C9
:100F30000123FAE0002301930123009300234FF4DF
:100F40002062474947481AF0EEFD0346012B01D0C5
:100F50000123EAE0002301930123009300234FF4CF
:100F60002062414941481AF0DEFD0346012B01D0C1
:100F70000123DAE0002301930123009300234FF4BF
:100F800080723B493B481AF0CEFD0346012B01D04D
:100F90000123CAE0384801F075FA034600220192A5
:100FA000012200924FF42062344935481AF0BBFD0B
:100FB0000346012B01D00123B7E000230193012355
:100FC000009300234FF480722E492F481AF0ABFD96
:100FD0000346012B5AD00123A7E000BFC4FC06083A
:100FE000E4FC0608F8FC060818FD060828FD0608BB
:100FF00048FD060858FD060874FD060888FD060829
:101000009CFD060860080024A8FD0608C514040815
:10101000B4FD060879140408C4FD0608D9080508BB
:10102000CCFD06085D11040800440040D8FD060808
:10103000ED13040800780040E4FD060811130408CD
:10104000ECFD0608A9110408F8FD0608F1140408CF
:1010500000FE06082515040808FE060821D304082A
:1010600018FE060811D5040824FE060811D7040846
:1010700030FE060859150408001001403CFE060821
:101080000112040848FE06087515040800230193A0
:101090000123009300234FF48072264926481AF05A
:1010A00042FD0346012B01D001233EE000230193C2
:1010B0000123009300234FF42072204920481AF0A6
:1010C00032FD0346012B01D001232EE000230193C2
:1010D0000123009300234FF4A0621A491A481AF022
:1010E00022FD0346012B01D001231EE000230193C2
:1010F0000123009300234FF48072144914481AF01E
:1011000012FD0346012B01D001230EE001201AF04D
:1011100085FF1049104801F03BFF07F035FB002226
:1011200001212D201DF020FE002318460837BD4662
:1011300080BD00BF58FE06085516040868FE060864
:10114000252C040878FE060805D9040884FE060844
:101150008D160408950B04080408002480B582B09D
:1011600000AF786010F030FF0D4B1B6801330C4A64
:1011700013600B4B1B68B3F5E15F0CD9084B0022E1
:101180001A6011F05DF80346002B04D100220549D6
:1011900002200FF0B9FA4FF47A701AF03FFFE1E73E
:1011A000B404002490FE060880B584B000AF7860D7
:1011B000114802F0D1F90346FB73FB7B032B02D0ED
:1011C000FB7B042B13D10C4B1B6A012B09D105F0BF
:1011D000CDFC03460949184605F072FE064B002275
:1011E0001A6205F0C3FC0346184605F0D8FD6420DA
:1011F0001AF014FFDCE700BF04080024A0FE060874
:1012000080B586B000AF78607B687B617B695B6E80
:101210004FF0FF31184619F0BBFF0346012B6DD18B
:1012200062E0FFF74FFC0346FB73FB7B022B15D1FB
:101230003B69DBB21946334801F004FB3B69DBB282
:101240001846FFF74BFC0346002B4DD005F08EFCF3
:1012500003462D49184605F033FE45E0FB7B042B81
:101260001ED13B69DBB21846FFF738FC0346002B62
:1012700006D005F07BFC03462349184605F020FE06
:1012800005F074FC02463B69DBB21946104605F0D6
:1012900063FD05F06BFC0346184605F080FD23E076
:1012A0001A4802F059F90346BB73BB7B032B02D0EB
:1012B000BB7B042B12D1154801F058FE05F056FCFB
:1012C00002463B69DBB21946104605F045FD05F0C4
:1012D0004DFC0346184605F062FD05E03B69DBB2B4
:1012E00019460A4801F064FF7B691B68184601F043
:1012F00017FC38613B69B3F1FF3F92D101201AF02E
:101300008DFE83E700780040A4FE06080408002450
:1013100080B588B000AF78607B68FB61FB695B6E6D
:101320000021184619F034FF0346012B56D1FFF770
:10133000C9FB0346FB76FB7E012B11D105E0BB68A0
:10134000DBB21946274801F07DFAFB691B68184695
:1013500001F0E6FBB860BB68B3F1FF3FEFD13DE0C1
:10136000FB7E022B11D105E0FB68DBB219461E485B
:1013700001F068FAFB691B68184601F0D1FBF860C0
:10138000FB68B3F1FF3FEFD128E0FB7E032B11D1C7
:1013900005E03B69DBB21946124801F053FAFB69DC
:1013A0001B68184601F0BCFB38613B69B3F1FF3F95
:1013B000EFD113E0FB7E042B10D105E07B69DBB29B
:1013C0001946094801F03EFAFB691B68184601F00E
:1013D000A7FB78617B69B3F1FF3FEFD101201AF0E1
:1013E0001DFE9BE7004400400010014080B586B020
:1013F00000AF78607B687B617B695B6E4FF0FF318B
:10140000184619F0C5FE0346012B2CD1FFF75AFBF5
:101410000346FB74FB7C012B11D105E0BB68DBB2FA
:101420001946134801F00EFA7B691B68184601F053
:1014300077FBB860BB68B3F1FF3FEFD113E0FB7CF3
:10144000032B10D105E0FB68DBB21946094801F017
:10145000F9F97B691B68184601F062FBF860FB68CC
:10146000B3F1FF3FEFD101201AF0D8FDC4E700BF70
:10147000007800400044004080B584B000AF786040
:10148000FFF720FB0346FB73FB7B002B0CD10A48C4
:1014900001F067FB0346002B03D0084821F05CF8FD
:1014A00002E0064821F058F80548FFF785FB0220C6
:1014B0001AF0B4FDE4E700BF0044004060080024D7
:1014C00014FC060880B584B000AF7860FFF7FAFA24
:1014D0000346FB73FB7B002B01D108F0F3F90348B3
:1014E000FFF76AFB02201AF099FDEFE710FC0608EF
:1014F00080B582B000AF78604FF480710848FFF784
:101500003AFB4FF47A701AF089FD4FF48071044869
:10151000FFF723FB4FF47A701AF080FD00BFEBE772
:10152000000C025880B582B000AF78604FF40071B3
:101530000848FFF712FB4FF47A701AF06FFD4FF472
:1015400000710448FFF717FB4FF47A701AF066FD3C
:1015500000BFEBE7000C025880B582B000AF7860A6
:101560000348FFF729FB64201AF058FD00BFF7E796
:101570001CFC0608B0B58CB004AF78604FF4FA706C
:101580001AF04CFD0123FB612D4B1B6832211846DC
:1015900019F0FEFD0346012B48D10023BB6127E073
:1015A000284ABB69DB0013441B79002B1DD10023A3
:1015B000FB610022244903200FF0A6F807F10C0379
:1015C000184610F0B7FD3B7B18467B7B1C46BB7B67
:1015D0001D46FB7B3A7C797C0291019200932B465D
:1015E000224601462E201DF0BFFBBB690133BB61C3
:1015F000BB69022BD4DDFB69DAB2144B1A700023ED
:101600007B6108E00F4A7B69DB00134400221A71FA
:101610007B6901337B617B69022BF3DD084B186822
:1016200000230022002119F00FFBA7E70022084940
:1016300004200FF069F8054B00221A709EE700BFE6
:10164000CC30002498040024F0FE0608B0040024E6
:1016500004FF060880B582B000AF78600A4B1B78A3
:10166000DBB2002B01D00FF01DFB0FF037FB034660
:10167000012B03D1C8201AF0D1FCEFE74FF416700C
:101680001AF0CCFCEAE700BFB004002480B58AB0B1
:1016900000AF78604FF480614148FFF749FA034694
:1016A000002B0CBF01230023DBB287F827301AF090
:1016B00017FF38620023FB770BF026FE0346002B52
:1016C00005D10023FB7764201AF0A8FC66E04FF4F4
:1016D00080613348FFF72CFA0346002B0CBF01232F
:1016E0000023DBB2BB771AF0FBFEB861BA7F97F834
:1016F00027309A4205D0BB7F87F82730BB693B6211
:1017000049E0BA693B6AD31A7B61BB7F002B36D0B4
:101710007B69632B33D9FB7F002B30D10023FB7314
:1017200007F10F0207F110031146184608F0E2FF17
:101730000346002B09D0002300221421194820F071
:101740005FFE0120FFF7A8F913E007F10F0207F190
:1017500010031146184608F0CDFF0346002B08D0B1
:101760000023002214210F4820F04AFE0120FFF739
:1017700093F90120FFF790F90123FB770BE0BB7F82
:10178000002B08D17B69632B05D90020FFF784F972
:1017900000200BF09FFD0A201AF040FC8CE700BFF0
:1017A000001002586008002480B483B000AF786055
:1017B0007B689B6903F00103012B01D1012300E049
:1017C000002318460C37BD465DF8047B704780B493
:1017D00083B000AF78607B689B6903F00203022B43
:1017E00001D1012300E0002318460C37BD465DF807
:1017F000047B704780B483B000AF78607B689B69DE
:1018000003F00403042B01D1012300E00023184658
:101810000C37BD465DF8047B704780B483B000AFE1
:1018200078607B689B6903F01003102B01D10123C2
:1018300000E0002318460C37BD465DF8047B704776
:1018400080B483B000AF78607B689B6903F4004389
:10185000B3F5004F01D1012300E0002318460C37F7
:10186000BD465DF8047B704780B483B000AF7860FC
:1018700039607B685B6823F400423B681A437B68ED
:101880005A6000BF0C37BD465DF8047B704700000E
:1018900080B487B000AFF860B9607A603B60BB6825
:1018A000C3F309027B6803F400631A433B681B041B
:1018B00003F47F031A433B6A1A437B6A134323F002
:1018C00000437B61FB685A687B6A5B0D03F48061AF
:1018D000064B0B43DB431A407B691A43FB685A6093
:1018E00000BF1C37BD465DF8047B7047FF7BFF03DC
:1018F00080B483B000AF78607B685B6ADBB2184667
:101900000C37BD465DF8047B704780B483B000AFF0
:1019100078600B46FB70FA787B689A6200BF0C37E0
:10192000BD465DF8047B704780B588B002AFF860B3
:101930007B600B46FB721346BB7210F0F5FD3861FD
:101940000DE010F0F1FD02463B69D31A0A2B06D9CF
:10195000FB681B68184621F08DFD022396E0FB68AA
:101960001B681846FFF76CFF0346002BE9D1FB68A4
:101970001868FB7A590097F8203001331A46454B16
:1019800001934FF00073009313460022FFF780FF8E
:1019900010F0CAFD386117E0FB681B681846FFF7B6
:1019A0003CFF0346002B01D001236FE010F0BCFD8B
:1019B00002463B69D31A0A2B06D9FB681B681846F6
:1019C00021F058FD032361E0FB681B681846FFF710
:1019D000FEFE0346002BDFD0FB681B68BA7A114677
:1019E0001846FFF792FF0023FB752FE010F09CFDD7
:1019F000386117E0FB681B681846FFF70EFF0346C7
:101A0000002B01D0012341E010F08EFD02463B691E
:101A1000D31A0A2B06D9FB681B68184621F02AFD49
:101A2000032333E0FB681B681846FFF7D0FE03462C
:101A3000002BDFD0FB681868FB7D7A6813441B78A5
:101A40001946FFF762FFFB7D0133FB75FA7D97F8BE
:101A500020309A42CAD310F067FD38610DE010F0D3
:101A600063FD02463B69D31A0A2B06D9FB681B6843
:101A7000184621F0FFFC032308E0FB681B681846AA
:101A8000FFF792FE0346002BE9D0002318461837D3
:101A9000BD4680BD0020008090B589B002AFF860DF
:101AA0007B600B46FB721346BB7210F03DFD386144
:101AB0000DE010F039FD02463B69D31A0A2B06D916
:101AC000FB681B68184621F0D5FC0223B8E0FB68D0
:101AD0001B681846FFF7B4FE0346002BE9D1FB68EC
:101AE0001868FB7A5900584B019300230093012397
:101AF0000022FFF7CDFE10F017FD386117E0FB68FC
:101B00001B681846FFF789FE0346002B01D001230E
:101B100096E010F009FD02463B69D31A0A2B06D95C
:101B2000FB681B68184621F0A5FC032388E0FB68CE
:101B30001B681846FFF74BFE0346002BDFD0FB68FF
:101B40001B68BA7A11461846FFF7DFFE10F0ECFC6E
:101B5000386117E0FB681B681846FFF75EFE034616
:101B6000002B01D001236BE010F0DEFC02463B6944
:101B7000D31A0A2B06D9FB681B68184621F07AFC99
:101B800003235DE0FB681B681846FFF70DFE034664
:101B9000002BDFD0FB681B6800211846FFF764FEAE
:101BA000FB681868FB7A5900FB7A5B0043F001037D
:101BB0001C4697F82830254A01924FF00072009297
:101BC0002246FFF765FE10F0AFFC38610023FB757D
:101BD00030E010F0A9FC386117E0FB681B6818467C
:101BE000FFF71BFE0346002B01D0012328E010F075
:101BF0009BFC02463B69D31A0A2B06D9FB681B687B
:101C0000184621F037FC03231AE0FB681B681846CE
:101C1000FFF7F0FD0346002BDFD0FB681968FB7D62
:101C20007A68D4180846FFF763FE03462370FB7DED
:101C30000133FB75FA7D97F828309A42C9D3002307
:101C400018461C37BD4690BD00200080002400804F
:101C500080B584B000AF78600023FB60786800F046
:101C600095F8786800F00BF80346002B02D06FF06F
:101C70000303FB60FB6818461037BD4680BD80B586
:101C800084B000AF78600023FB73786824F0D2FE44
:101C90000346002B01D00123FB73FB7B1846103752
:101CA000BD4680BD80B586B000AFF860B9607A608F
:101CB0003B603B687A68B968F86824F0B7FF034670
:101CC000002B03D06FF003037B6101E000237B61F5
:101CD0007B6918461837BD4680BD80B586B000AF19
:101CE000F860B9607A603B603B687A68B968F86808
:101CF00025F060F80346002B03D06FF003037B61EF
:101D000001E000237B617B6918461837BD4680BD22
:101D100080B582B000AF7860786825F05FFE03463A
:101D2000042B14BF01230023DBB218460837BD463D
:101D300080BD80B584B000AF78603960396878685C
:101D400025F05CFC0346002B03D06FF00303FB601F
:101D500001E00023FB60FB6818461037BD4680BDDC
:101D600080B582B000AF7860786818F0F9FA00BFEB
:101D70000837BD4680BD80B582B000AF7860786816
:101D800018F018FB00BF0837BD4680BD80B582B093
:101D900000AF7860786822F021FF00BF0837BD46A9
:101DA00080BD80B483B000AF78607B681B6803F0AF
:101DB0000103012B01D1012300E0002318460C3759
:101DC000BD465DF8047B704780B483B000AF786097
:101DD0007B685B6903F00103012B01D1012300E063
:101DE000002318460C37BD465DF8047B704780B46D
:101DF00083B000AF78607B685B6903F48053B3F510
:101E0000805F01D1012300E0002318460C37BD4656
:101E10005DF8047B704780B483B000AF78607B6866
:101E200030331B78DBB218460C37BD465DF8047BB7
:101E3000704780B483B000AF78600B46FB707B685E
:101E40002033FA781A7000BF0C37BD465DF8047B6A
:101E5000704780B586B000AFF8600B467A60FB72C1
:101E6000F868FFF79EFF0346002B01D1012335E000
:101E700010F05AFB7861FB7A1946F868FFF7D9FF32
:101E800008E010F051FB02467B69D31A0A2B01D9F6
:101E9000032323E0F868FFF7AAFF0346002BF0D0E6
:101EA00010F042FB786108E010F03EFB02467B69CF
:101EB000D31A0A2B01D9032310E0F868FFF784FF37
:101EC0000346002BF0D07B68002B06D0F868FFF7A4
:101ED000A2FF03461A467B681A700023184618377B
:101EE000BD4680BD80B584B000AF78600B46FB7006
:101EF0007868FFF756FF0346002B01D101231BE052
:101F000010F012FBF860FB7819467868FFF791FF34
:101F100008E010F009FB0246FB68D31A0A2B01D92E
:101F2000032309E07868FFF762FF0346002BF0D037
:101F30007868FFF770FF002318461037BD4680BD54
:101F400080B582B000AF0346FB71FB79002B10D146
:101F5000FB79002B06D14FF48062002107482CF05A
:101F60001FFD07E04FF48062002105482CF018FDAA
:101F700000E000BF0837BD4680BD00BF00F8003854
:101F800000FC003880B582B000AF0346FB71FB79DE
:101F9000002B04D1FB791846FFF7D2FF00E000BF09
:101FA0000837BD4680BD80B483B000AF78607B68E1
:101FB0001B6843F001027B681A6000BF0C37BD4606
:101FC0005DF8047B704780B483B000AF78607B68B5
:101FD0001B6823F001027B681A6000BF0C37BD4606
:101FE0005DF8047B704780B483B000AF78607B6895
:101FF000DB6903F00203022B01D1012300E000237F
:1020000018460C37BD465DF8047B704780B483B03A
:1020100000AF78607B68DB6903F00403042B01D117
:10202000012300E0002318460C37BD465DF8047B11
:10203000704780B483B000AF78607B68DB6903F0E1
:102040000803082B01D1012300E0002318460C37B8
:10205000BD465DF8047B704780B483B000AF786004
:102060007B68DB6903F08003802B01D1012300E052
:10207000002318460C37BD465DF8047B704780B4DA
:1020800083B000AF78607B6802221A6200BF0C3711
:10209000BD465DF8047B704780B483B000AF7860C4
:1020A0007B6804221A6200BF0C37BD465DF8047BD2
:1020B000704780B483B000AF78607B6808221A62F2
:1020C00000BF0C37BD465DF8047B704780B489B013
:1020D00000AF78607B68FB60FB6853E8003FBB6043
:1020E000BB6843F01003FB617B68FA69BA617B61EE
:1020F0007969BA6941E800233B613B69002BE9D16A
:1021000000BF00BF2437BD465DF8047B704780B434
:1021100089B000AF78607B68FB60FB6853E8003FE4
:10212000BB60BB6843F08003FB617B68FA69BA61FE
:102130007B617969BA6941E800233B613B69002B07
:10214000E9D100BF00BF2437BD465DF8047B70476E
:1021500080B489B000AF78607B68FB60FB6853E8AF
:10216000003FBB60BB6823F08003FB617B68FA69BA
:10217000BA617B617969BA6941E800233B613B69D7
:10218000002BE9D100BF00BF2437BD465DF8047BBA
:10219000704780B483B000AF78607B681B6803F041
:1021A0008003802B01D1012300E0002318460C3767
:1021B000BD465DF8047B704780B489B000AF78609D
:1021C0007B680833FB60FB6853E8003FBB60BB687B
:1021D00043F04003FB617B680833FA69BA617B61B5
:1021E0007969BA6941E800233B613B69002BE7D17B
:1021F00000BF00BF2437BD465DF8047B704780B444
:1022000085B000AF786039603B68002B03D17B68F4
:102210002833FB6002E07B682433FB60FB681846D0
:102220001437BD465DF8047B704780B483B000AFBF
:1022300078600B46FB70FA787B689A6200BF0C37B7
:10224000BD465DF8047B704780B485B000AF786010
:1022500039607B68FB600C4A3B6813441B781A4664
:10226000FB6813441B6808493A680A44127811460F
:10227000FA680A4443F00103136000BF1437BD46F7
:102280005DF8047B704700BFACA1070880B485B03F
:1022900000AF786039607B68FB600C4A3B68134490
:1022A0001B781A46FB6813441B6808493A680A44BD
:1022B00012781146FA680A4423F00103136000BF44
:1022C0001437BD465DF8047B704700BFACA107081A
:1022D00080B487B000AFF860B9607A60FB687B615A
:1022E0000D4ABB6813441B781A467B6913445A682D
:1022F0000A4B13400849BA680A44127811467A69B1
:102300000A4411467A6813434B6000BF1C37BD4630
:102310005DF8047B704700BFACA107080000FFFF19
:1023200080B485B000AF786039607B68FB60074A95
:102330003B6813441B781A46FB6813445B689BB2E6
:1023400018461437BD465DF8047B7047ACA10708FA
:1023500080B487B000AFF860B9607A60FB687B61D9
:10236000074ABB6813441B781A467B6913441A4614
:102370007B68D36000BF1C37BD465DF8047B7047A7
:10238000ACA1070880B487B000AFF860B9607A608C
:10239000FB687B61074ABB6813441B781A467B695C
:1023A00013441A467B68936000BF1C37BD465DF836
:1023B000047B7047ACA1070880B485B000AF78609B
:1023C00039607B68FB600C4A3B6813441B781A46F3
:1023D000FB6813441B6808493A680A44127811469E
:1023E000FA680A4443F00803136000BF1437BD467F
:1023F0005DF8047B704700BFACA1070880B485B0CE
:1024000000AF786039607B68FB600C4A3B6813441E
:102410001B781A46FB6813441B6808493A680A444B
:1024200012781146FA680A4443F00403136000BFAF
:102430001437BD465DF8047B704700BFACA10708A8
:1024400080B485B000AF786039607B68FB600C4A6F
:102450003B6813441B781A46FB6813441B68084901
:102460003A680A4412781146FA680A4443F01003A5
:10247000136000BF1437BD465DF8047B704700BF92
:10248000ACA1070880B485B000AF78600023FB6082
:1024900015E01049FA6813465B019B1A9B000B4438
:1024A0001B687A689A4207D1FA6813465B019B1A47
:1024B0009B00084A134406E0FB680133FB60FB689D
:1024C000022BE6DD002318461437BD465DF8047B79
:1024D000704700BFB8040024B0B584B002AF002339
:1024E0007B6022E0B5497A6813465B019B1A9B002A
:1024F0000B441B681846FFF766FDB0497A6813461F
:102500005B019B1A9B000B4468331868AB497A68DF
:1025100013465B019B1A9B000B446C331B681946E6
:10252000FFF7B4FE7B6801337B607B68022BD9DD4B
:102530004FF400630093A24BA24A0121A2480FF07E
:102540009AFE4FF400630093A04BA14A0221A148D8
:102550000FF091FE03220021012018F0CAFA034671
:10256000964A5366954B9C6E944BDD6E01219A48BA
:10257000FFF745FE03461A4629462046FFF702FFAD
:102580008E4B9B6E8D4AD16E8C4AB2F874201846E1
:10259000FFF79EFE894B9B6E884AD16E874A126F69
:1025A0001846FFF7D5FE854B9B6E844AD26E1146C6
:1025B0001846FFF745FF814B9B6E804AD26E11464D
:1025C0001846FFF7F9FE7D4B9B6E7C4AD26E114692
:1025D0001846FFF713FF8048FFF7EEFD774B9B6E21
:1025E000764AD26E11461846FFF72EFE7A48FFF75C
:1025F0006DFD4FF480530093784B794A052179485B
:102600000FF039FE4FF480530093774B774A062141
:1026100077480FF030FE03220021012018F069FAFC
:102620000346664AC2F8E030644BD3F8E440634B9B
:10263000D3F8E85001216F48FFF7E1FD03461A4641
:1026400029462046FFF79EFE5C4BD3F8E4305B4AF8
:10265000D2F8E810594AB2F8F0201846FFF738FED1
:10266000564BD3F8E430554AD2F8E810534AD2F822
:10267000EC201846FFF76CFE504BD3F8E4304F4A7D
:10268000D2F8E82011461846FFF7DAFE4B4BD3F894
:10269000E4304A4AD2F8E82011461846FFF78CFE8B
:1026A000464BD3F8E430454AD2F8E82011461846A4
:1026B000FFF7A4FE4F48FFF77FFD404BD3F8E4300F
:1026C0003E4AD2F8E82011461846FFF7BDFD4948BA
:1026D000FFF7FCFC4FF440630093474B474A0B2144
:1026E00047480FF0C8FD4FF440630093454B464AFE
:1026F0000C2146480FF0BFFD03220021012018F0F5
:10270000F8F903462D4AC2F85C312C4BD3F86041EE
:102710002A4BD3F8645101213D48FFF770FD034671
:102720001A4629462046FFF72DFE244BD3F8603188
:10273000224AD2F86411214AB2F86C211846FFF7F8
:10274000C7FD1E4BD3F860311C4AD2F864111B4AF6
:10275000D2F868211846FFF7FBFD184BD3F860311B
:10276000164AD2F8642111461846FFF769FE134B4A
:10277000D3F86031114AD2F8642111461846FFF7A8
:102780001BFE0E4BD3F860310C4AD2F8642111467F
:102790001846FFF733FE1E48FFF70EFD074BD3F830
:1027A0006031064AD2F8642111461846FFF74CFD05
:1027B0001748FFF78BFC00233B6039E0B804002486
:1027C000D038002430FF0608BC040024D040002488
:1027D0003CFF0608EC04002400100140D0580024FF
:1027E00048FF060838050024D068002454FF060876
:1027F0006805002400440040D084002460FF0608DF
:10280000B4050024D09000246CFF0608E4050024E1
:10281000007800400A493A6813465B019B1A9B0006
:102820000B441B681846FFF7BEFB3B6801333B6057
:102830003B68022BEEDD002318460837BD46B0BDCD
:10284000B804002480B584B000AF78600B46FB70FC
:102850007868FFF717FEB860BB68002B1FD0134BDA
:10286000FB6005E0FB68013BFB60FB68002B18D0B8
:10287000BB683433FA78114618460FF02FFD034633
:1028800083F00103DBB2002BECD17868FFF781FC09
:102890000346002B06D17868FFF739FC02E000BF41
:1028A00000E000BF1037BD4680BD00BF20A107007B
:1028B00080B584B000AF786039607868FFF7E2FDDA
:1028C000F860FB68002B11D03B68002B0ED008E0AD
:1028D0003B681B7819467868FFF7B4FF3B68013303
:1028E0003B603B681B78002BF2D100E000BF103743
:1028F000BD4680BD80B584B000AF78607868FFF7D2
:10290000C1FDF860FB68002B75D0FB681B68DB69B4
:1029100003F00203002B03D0FB681B6802221A623B
:10292000FB681B68DB6903F00403002B03D0FB6822
:102930001B6804221A62FB681B68DB6903F480537E
:10294000002B04D0FB681B684FF480521A62FB68AE
:102950001B68DB6903F40033002B04D0FB681B68A1
:102960004FF400321A62FB681B681846FFF73BFB06
:102970000346002B04D0FB681B681846FFF77FFB5B
:10298000FB681B681846FFF741FB0346002B04D089
:10299000FB681B681846FFF77FFBFB681B6818463F
:1029A000FFF747FB0346002B04D0FB681B68184663
:1029B000FFF77FFB7868FFF74FFB0346002B1BD028
:1029C0007868FFF7E6FB0346002B15D0FB6834332D
:1029D00007F10B02114618460FF0C6FC0346002B08
:1029E00005D0FB7A19467868FFF71FFC04E0786889
:1029F000FFF7AEFB00E000BF1037BD4680BD000012
:102A000080B58AB000AF78600023BB607868FFF7BC
:102A100039FDB861BB69002B7CD0BB699B6F7B61C2
:102A2000BB699A6EBB69DB6E19461046FFF778FCEE
:102A300003467B82BB69B3F874301A467B8AD31A8B
:102A4000FB60FA687B699A4265D0FA687B699A42B2
:102A500014D97B697B620CE0BB69181DBB691A6FD6
:102A60007B6A13441B7819460FF038FC7B6A0133EC
:102A70007B627A6AFB689A42EED32AE07B693B620A
:102A80000CE0BB69181DBB691A6F3B6A13441B78C5
:102A900019460FF023FC3B6A01333B62BB69B3F874
:102AA00074301A463B6A9342EBD30023FB610CE07F
:102AB000BB69181DBB691A6FFB6913441B78194663
:102AC0000FF00CFCFB690133FB61FA69FB689A4269
:102AD000EED3BB695B6E07F108021146184618F089
:102AE000BDF9BB68002B07D00C4B4FF080521A6029
:102AF000BFF34F8FBFF36F8FBB69FA689A67BB69EB
:102B00009B6FBA69B2F87420934204D1BB6900226A
:102B10009A6700E000BF2837BD4680BD04ED00E0A5
:102B200080B584B000AF78607868FFF7ABFCF860E0
:102B3000FB68002B02D14FF0FF330EE0FB6804333B
:102B400007F10B02114618460FF00EFC0346002B4E
:102B500001D0FB7A01E04FF0FF3318461037BD4635
:102B600080BD80B584B000AF78607868FFF78AFCDC
:102B7000F860FB68002B01D1002305E0FB680433FB
:102B800018460FF06EFC034618461037BD4680BD50
:102B900080B584B000AF78607868FFF773FCF860A8
:102BA000FB68002B01D1002306E0FB683433184694
:102BB0000FF01BFC034600BF18461037BD4680BD12
:102BC00080B483B000AF786039607B681A693B6875
:102BD00013403A689A4201D1012300E000231846CD
:102BE0000C37BD465DF8047B704780B483B000AFFE
:102BF000786039607B683A689A6100BF0C37BD46DF
:102C00005DF8047B704780B483B000AF78603960B2
:102C10003B681A047B689A6100BF0C37BD465DF8BB
:102C2000047B7047F0B58DB004AF786019F058FCA4
:102C300003463B614FF400414B48FFF7E4FF00239C
:102C4000FB7719F04DFCB8610DE04FF40061474887
:102C5000FFF7B6FF0346002B02D10123FB770AE002
:102C6000322019F0DBF919F03BFC0246BB69D31A9C
:102C7000B3F5FA7FE9D34FF400413B48FFF7B5FFC6
:102C80000023BB7719F02CFCB8610DE04FF4006114
:102C90003648FFF795FF0346002B02D00123BB7790
:102CA0000AE0322019F0BAF919F01AFC0246BB69A1
:102CB000D31AB3F5FA7FE9D3FB7F002B06D0BB7F95
:102CC000002B03D02A4B00221A8010E0284B1B88CF
:102CD0001946274B1B881B0A9BB21A463D201CF045
:102CE00043F8234B1B8801339AB2214B1A80204BA7
:102CF0001B88772B30D907F1080318460FF01AFA12
:102D0000BB7A03F5FA63FB823B7A1D467B7A1E464B
:102D1000FA8AFB8A1B0A9BB2F97A387B7C7B039484
:102D20000290019100931346324629463E201CF042
:102D30001BF800220F4904200DF0E6FC80210E480C
:102D4000FFF761FF642019F069F980210A48FFF755
:102D50004CFF074B00221A8007F1100341F2883123
:102D6000184619F0D3F865E700140258001002580D
:102D7000D09C002478FF06080018025880B400AFE9
:102D8000034B1B881846BD465DF8047B704700BFA7
:102D9000D09C002480B485B000AF78600D4BFB6000
:102DA0000CE07B685A1C7A601B781A46FB6853401B
:102DB000FB60FB68084A02FB03F3FB607B681B783F
:102DC000002BEED1FB6818461437BD465DF8047B36
:102DD000704700BFC59D1C819301000180B485B080
:102DE00000AF786039607A683B685340FB60FB68ED
:102DF0001B0CFA681343FB60FB681B0AFA68134359
:102E0000FB60FB68DBB2002B0CBF01230023DBB2AD
:102E100018461437BD465DF8047B704780B584B012
:102E200000AF78607868FFF7B5FFF860054BBB60CE
:102E3000B968F868FFF7D2FF034618461037BD4659
:102E400080BD00BFA37B47C580B584B000AF78606C
:102E50000DF06EFFF8600023FB7207F10B020123F7
:102E60000021F8680EF05BF80346002B02D1FB7AD4
:102E7000102B07D91549786800F020F9144B01226E
:102E80001A6020E0FB7A002B16D0FB7A114A012150
:102E9000F8680EF044F80346002B05D1FB7A1A4679
:102EA0000C4B002199540EE00849786800F006F9AF
:102EB000074B01221A6006E00449786800F0FEF82A
:102EC000034B01221A601037BD4680BD9CFF0608E7
:102ED000E89C0024D49C002480B584B000AF7860C6
:102EE0000E4B1B68012B0BD17868FFF753FFF8607E
:102EF0000B4BBB60B968F868FFF770FF034609E049
:102F000008497868FDF7ECF90346002B01D101234D
:102F100000E0002318461037BD4680BDE89C002421
:102F2000A37B47C5D49C002480B582B000AF7860F5
:102F30007B6893F82830042B10D17B685B6D5A1C9A
:102F40007B685A657B685B6D064A934206D3786856
:102F500000F068F80449786800F0B0F800BF08375E
:102F6000BD4680BDE0930400D8FF060880B483B05E
:102F700000AF78607B6893F82830042B02D17B681F
:102F800000225A6500BF0C37BD465DF8047B7047D0
:102F900080B582B000AF786039607B683A689A6526
:102FA0007B6800221A627B6800225A627B680022DA
:102FB00083F828207B680022DA627B6800221A6589
:102FC0007B6800225A657B682022002118462BF07E
:102FD000E7FC7B6830332022002118462BF0E0FC10
:102FE0000B49786800F06AF80A49786800F066F8DA
:102FF0000949786800F062F80849786800F05EF8DE
:103000000749786800F05AF800BF0837BD4680BD10
:10301000040007080C000708140007082800070828
:103020003000070880B582B000AF78607B6801226D
:103030001A627B6800225A627B68002283F828208B
:103040007B680022DA627B6800221A657B680022B6
:103050005A657B682022002118462BF0A1FC7B6872
:1030600030332022002118462BF09AFC0D49786855
:1030700000F024F80C49786800F020F80B497868D3
:1030800000F01CF80A49786800F018F809497868D7
:1030900000F014F80849786800F010F800BF08370D
:1030A000BD4680BD040007080C000708140007088F
:1030B00028000708300007083400070880B582B0F0
:1030C00000AF7860396007E07B689A6D3B68591CF7
:1030D00039601B78184690473B681B78002BF3D16A
:1030E00000BF00BF0837BD4680BD000080B582B07C
:1030F00000AF78607B6893F82830002B37D17B686D
:1031000024491846FDF7ECF80346002B0BD17B68E9
:10311000012283F828207B680022DA621E49786841
:10312000FFF7CCFF31E07B681C491846FDF7D8F863
:103130000346002B0ED17868FFF786FE7B680222DB
:1031400083F828207B680022DA6213497868FFF749
:10315000B5FF1AE012497868FFF7B0FF11497868A7
:10316000FFF7ACFF10497868FFF7A8FF0DE07B6818
:1031700093F82830032B04D07B6893F82830042B75
:1031800003D10A497868FFF799FF00BF0837BD46A9
:1031900080BD00BF4C000708540007086000070806
:1031A0006800070830000708340007089400070883
:1031B000F0B59DB006AF78600B46FB707B6893F866
:1031C0002830012B05D07B6893F82830022B40F083
:1031D0003A810A22FB78934204D00D22FB78934275
:1031E00040F002817B681B6D7A681344002283F8EB
:1031F00030207B6893F82830012B5ED17B68303318
:103200001846FFF70BFE0346012B56D17B680322BD
:1032100083F82820A6497868FFF750FFA549786809
:10322000FFF74CFFA4497868FFF748FF07F1500308
:1032300018460EF07FFF97F850301E4697F8513031
:1032400097F8522097F8531097F85400044697F8CF
:103250005500054607F10800049503940291019278
:1032600000933346954A40212BF098FA07F1080362
:1032700019467868FFF722FF8D497868FFF71EFF2F
:103280008F497868FFF71AFF8E497868FFF716FFB5
:103290008D497868FFF712FF8C497868FFF70EFFB9
:1032A0008B497868FFF70AFF85497868FFF706FFC2
:1032B0007F497868FFF702FF92E07B6893F8283037
:1032C000022B5ED17B6830331846FFF705FE0346BC
:1032D000012B56D17B68042283F828207449786832
:1032E000FFF7ECFE73497868FFF7E8FE79497868E4
:1032F000FFF7E4FE07F1480318460EF01BFF97F8AE
:1033000048301E4697F8493097F84A2097F84B10F6
:1033100097F84C00044697F84D00054607F1080061
:10332000049503940291019200933346634A40212D
:103330002BF034FA07F1080319467868FFF7BEFE50
:103340005B497868FFF7BAFE5D497868FFF7B6FE1B
:103350005C497868FFF7B2FE5B497868FFF7AEFE1C
:103360005A497868FFF7AAFE59497868FFF7A6FE20
:1033700053497868FFF7A2FE4D497868FFF79EFE33
:103380002EE07B68DB6A5A1C7B68DA624849786801
:10339000FFF794FE7B68DB6A0322934214DB7B68B1
:1033A000002283F828204C497868FFF787FE4049BF
:1033B0007868FFF783FE3E497868FFF77FFE47494C
:1033C0007868FFF77BFE0BE045497868FFF776FEEB
:1033D00037497868FFF772FE42497868FFF76EFE5A
:1033E0007B6800221A65B2E07F22FB78934216D1F7
:1033F0007B681B6D002B40F3AA807B681B6D5A1EF7
:103400007B681A657B689B6D082098477B689B6D7D
:10341000202098477B689B6D0820984797E07B6841
:103420001B6D1E2B00F393807B681B6D591C7A6803
:1034300011657A681344FA7883F830207B689B6DB5
:103440002A20984783E07B6893F82830032B04D028
:103450007B6893F82830042B04D123497868FFF760
:103460002DFE75E00A22FB78934203D00D22FB78F3
:1034700093423BD17B685B6A7A680021D1547B68B8
:103480005B6A002B0ADD0A497868FFF717FE786847
:10349000FFF72CFE7B6800225A6259E004497868E5
:1034A000FFF70CFE0D497868FFF708FE50E000BFFB
:1034B00030000708A40007081001070838010708B2
:1034C000640107088C010708B4010708DC0107083C
:1034D000040207082C0207085002070834000708F6
:1034E0007C02070854000708A40207087F22FB7823
:1034F00093421AD17B685B6A002B29DD7B685B6A8B
:103500005A1E7B685A627B685B6A7A680021D154D4
:103510007B689B6D082098477B689B6D20209847AF
:103520007B689B6D0820984712E07B685B6A1E2BC6
:103530000EDC7B685B6A591C7A6851627A68F9789C
:10354000D1547B689B6DFA781046984700E000BF25
:1035500000BF5C37BD46F0BD80B483B000AF78607B
:103560007B6893F8283018460C37BD465DF8047B1D
:103570007047000080B400AFBFF34F8F00BF064B11
:10358000DB6803F4E0620449044B1343CB60BFF3F0
:103590004F8F00BF00BFFDE700ED00E00400FA051B
:1035A00080B483B000AF786039607B683A689A6114
:1035B00000BF0C37BD465DF8047B704780B483B014
:1035C00000AF786039603B681A047B689A6100BF7D
:1035D0000C37BD465DF8047B704780B485B000AF02
:1035E00003460A46FB8013467B7141F22103BB81EF
:1035F0007B791BB21B021AB2B7F9063053401BB2DB
:10360000FB800023FB7313E0B7F90630002B09DAC7
:10361000B7F906305B001AB2B7F90C3053401BB251
:10362000FB8002E0FB885B00FB80FB7B0133FB73CC
:10363000FB7B072BE8D9FB8818461437BD465DF89D
:10364000047B704780B5A8B002AFF860B9607A60BB
:103650000121B86803F0F6FCC7F884000221B868BD
:1036600003F0F0FCC7F880000023A7F89630D7F8E5
:103670008430002B03D0D7F88030002B04D1A04930
:10368000F86803F01DFC38E1D7F884002AF086FEC4
:10369000F86700220021D7F880002AF0B3FFB8674E
:1036A000BB6F002B03D0BB6FB3F5483F0ED907F1BA
:1036B00010004FF44833934A64212BF06FF807F160
:1036C00010031946F86803F0FBFB16E1FDF7DCF97F
:1036D0000346032B1BD0FDF7D7F90346022B08D076
:1036E000FDF7D2F90346012B01D1874B02E0874B4E
:1036F00000E0874B07F11000864A64212BF04EF85A
:1037000007F110031946F86803F0DAFBF5E0022030
:10371000FDF79EF9FB6F032B6DD0FB6F032B00F3BE
:103720009C80FB6F012B03D0FB6F022B2CD094E00D
:103730000023C7F890301AE0D7F8903087F875303A
:10374000D7F89030744A134497F875201A7097F898
:103750007520B7F8963011461846FFF73EFF03462E
:10376000A7F89630D7F890300133C7F89030D7F8E3
:103770009020BB6F9A42DFD307F11000BB6F674AFE
:1037800064212BF00BF870E00023C7F88C3025E0A3
:10379000D7F88C10624BA3FB01239A0913465B00F8
:1037A00013445B01CA1AD3B2203387F87630D7F8B6
:1037B0008C30594A134497F876201A7097F876207F
:1037C000B7F8963011461846FFF707FF0346A7F8EB
:1037D0009630D7F88C300133C7F88C30D7F88C206E
:1037E000BB6F9A42D4D307F11000BB6F4D4A6421DE
:1037F0002AF0D4FF39E00023C7F8883020E02AF00F
:10380000D1FD03465A42DBB2D2B258BF534287F8C9
:103810007730D7F88830404A134497F877201A70E9
:1038200097F87720B7F8963011461846FFF7D5FE7F
:103830000346A7F89630D7F888300133C7F88830A8
:10384000D7F88820BB6F9A42D9D307F11000BB6F1D
:10385000354A64212AF0A2FF07E03449F86803F0F2
:103860002FFB0320FDF7F4F847E04FF47A7018F0CF
:10387000D5FB0120FDF7ECF807F110031946F868B5
:1038800003F01EFB244A244B1B7807F11000009321
:103890001346274A64212AF081FF07F110031946D5
:1038A000F86803F00DFBBB6F013B1B4A134419463C
:1038B000BB6F013B184A13441B7807F110000093BB
:1038C0000B461C4A64212AF069FF07F110031946D0
:1038D000F86803F0F5FAB7F8963007F11000164AC9
:1038E00064212AF05BFF07F110031946F86803F022
:1038F000E7FA1249F86803F0E3FA9837BD4680BD4D
:103900003010070880100708A8100708B41007082F
:10391000BC100708C410070800000030E8100708B2
:10392000ABAAAAAA18110708481107086C110708C2
:103930009C110708C0110708E0110708F8110708D3
:1039400080B5AAB002AFF860B9607A600121B868AA
:1039500003F078FBC7F884001023C7F880300023F9
:10396000C7F89C300023A7F89A30D7F88430002B92
:1039700004D17C49F86803F0A3FAEFE000220021AB
:10398000D7F884002AF03EFEF86707F11400FB6FB9
:10399000754A64212AF002FF07F114031946F868FA
:1039A00003F08EFA714A07F11400704B009313462E
:1039B0006F4A64212AF0F2FE07F114031946F868F1
:1039C00003F07EFA0023C7F89430ACE0674AD7F8DA
:1039D0009430134407F11400664A64212AF0DEFE95
:1039E00007F114031846FCF785FC024607F114039F
:1039F0001344C7F890300023C7F88C3030E0D7F874
:103A00009420D7F88C301344584AD35C87F87B3025
:103A100007F11403D7F89020D31AC3F1640197F883
:103A20007B30554AD7F890002AF0B8FED7F890308E
:103A30000333C7F89030D7F89C300133C7F89C3077
:103A400097F87B20B7F89A3011461846FFF7C5FD66
:103A50000346A7F89A30D7F88C300133C7F88C307A
:103A6000D7F88C20D7F880309A4207D2D7F8942024
:103A7000D7F88C301344FA6F9A42C0D8D7F89030F8
:103A80005A1CC7F8902020221A70D7F890305A1C80
:103A9000C7F890207C221A700023C7F8883020E0F5
:103AA000D7F89420D7F888301344304AD35C87F88D
:103AB0007A3097F87A301F2B06D997F87A307E2B18
:103AC00002D897F87A1000E02E21D7F890305A1CCF
:103AD000C7F890200A461A70D7F888300133C7F823
:103AE0008830D7F88820D7F880309A4207D2D7F8A4
:103AF0009420D7F888301344FA6F9A42D0D8D7F878
:103B0000903000221A7007F114031946F86803F088
:103B1000D7F9012018F082FAD7F89420D7F880302E
:103B20001344C7F89430D7F89420FB6F9A42FFF4FF
:103B30004DAFB7F89A3007F114000093D7F89C30D6
:103B40000E4A64212AF02AFE07F114031946F86888
:103B500003F0B6F90A49F86803F0B2F9A037BD4698
:103B600080BD00BFFC1107082412070800000038C0
:103B70004C120708701207087C1207088412070805
:103B8000F811070880B5A0B000AFF860B9607A609E
:103B90000121B86803F056FAF867FB6F002B04D1D7
:103BA0003449F86803F08CF960E03349F86FFCF7AA
:103BB00097FB0346002B42D1FCF766FF034687F8CC
:103BC0007B3097F87B30032B2AD801A252F823F0E0
:103BD000E13B0408F13B0408013C0408113C0408E3
:103BE00007F11403254A642118462AF0D7FD1FE087
:103BF00007F11403224A642118462AF0CFFD17E08A
:103C000007F114031F4A642118462AF0C7FD0FE08C
:103C100007F114031C4A642118462AF0BFFD07E08F
:103C200007F11403194A642118462AF0B7FD00BFB2
:103C300007F114031946F86803F042F912E0144939
:103C4000F86FFCF74DFB0346002B07D10320FCF770
:103C5000FFFE1049F86803F033F903E00E49F868F5
:103C600003F02EF90D49F86803F02AF98037BD46B4
:103C700080BD00BFBC120708DC120708E01207086D
:103C8000F41207080C130708201307083413070859
:103C9000F40707084C13070868130708F81107080A
:103CA00080B5A0B000AFF860B9607A600DF0DAFEC0
:103CB000F867FB6F1B7D83F00103DBB2002B04D0A0
:103CC0001749F86803F0FCF827E00EF009F80346FE
:103CD00087F87B3097F87B30002B0DD107F1140368
:103CE000104A642118462AF059FD07F114031946B9
:103CF000F86803F0E5F80CE007F114030A4A6421C0
:103D000018462AF04BFD07F114031946F86803F032
:103D1000D7F80649F86803F0D3F88037BD4680BD70
:103D200098130708BC130708E4130708F8110708DD
:103D300090B5ABB004AFF860B9607A600121B868A3
:103D400003F080F9C7F894000221B86803F07AF90B
:103D5000C7F89000D7F89430002B03D0D7F89030F4
:103D6000002B04D13449F86803F0AAF861E0D7F8D1
:103D700094002AF013FB034687F88F3000220021BD
:103D8000D7F890002AF03EFCC7F888002B4A97F835
:103D90008F30D7F8881018460DF09CFE034687F840
:103DA000873097F88730002B1ED107F11003184693
:103DB0000DF02CFF0346002B37D17A693B7C194666
:103DC000BB69B88B044607F120000294019300916F
:103DD00013461B4A64212AF0E1FC07F1200319462F
:103DE000F86803F06DF820E097F88730022B0ED1C9
:103DF00097F88F3007F12000124A64212AF0CEFC98
:103E000007F120031946F86803F05AF80DE097F817
:103E1000873007F120000C4A64212AF0BFFC07F12B
:103E200020031946F86803F04BF80849F86803F0D6
:103E300047F89C37BD4690BD0814070800000030C5
:103E40002C1407086C1407088C140708F8110708CD
:103E500080B5A4B002AFF860B9607A600DF07AFF67
:103E6000034687F8873097F88730032B38D801A2AC
:103E700052F823F0D73E0408993E04088F3E040808
:103E8000853E04081D49F86803F01AF82DE01C4926
:103E9000F86803F015F828E007F1100318460DF054
:103EA000B5FE0346002B11D1BB8B1A46BB6907F147
:103EB000200000931346134A64212AF06FFC07F197
:103EC00020031946F86802F0FBFF0EE00E49F8687F
:103ED00002F0F6FF09E00D49F86802F0F1FF04E096
:103EE0000B49F86802F0ECFF00BF0A49F86802F0DD
:103EF000E7FF00BF8837BD4680BD00BFB414070888
:103F0000C0140708CC140708FC1407082815070874
:103F100038150708F811070880B5A6B002AFF86099
:103F2000B9607A600121B86803F08CF8C7F88400A2
:103F3000D7F88430002B04D13A49F86802F0C0FF6A
:103F40006CE000220021D7F884002AF05BFBC7F860
:103F500080000DF057FAF867FB6FDB7A83F00103FE
:103F6000DBB2002B04D03049F86802F0A9FF55E01D
:103F70002E4BD7F8801018460DF090FA034687F8BC
:103F80007B304FF400512A48FFF70AFB97F87B304B
:103F9000002B31D10023A7F88E300023C7F88830DA
:103FA00012E0224AD7F8883013441A78B7F88E30D6
:103FB00011461846FFF711FB0346A7F88E30D7F8D5
:103FC00088300133C7F88830D7F88820D7F8803098
:103FD0009A42E6D3B7F88E3007F114000093D7F871
:103FE0008030144A64212AF0D9FB07F114031946E2
:103FF000F86802F065FF0DE097F87B3007F11400D8
:104000000D4A64212AF0CAFB07F114031946F86827
:1040100002F056FF0949F86802F052FF9037BD469A
:1040200080BD00BF48150708741507080000003858
:104030000010025898150708C4150708F81107085A
:1040400080B588B000AFF860B9607A604FF4005175
:104050000948FFF7B3FA07F11403084A0A21184682
:104060002AF09CFB07F114031946F86802F028FFB8
:1040700000BF2037BD4680BD00100258E815070874
:10408000F0B5B3B006AFF860B9607A600121B868E6
:1040900002F0D8FFC7F8AC000221B86802F0D2FFE6
:1040A000C7F8A8000321B86802F0CCFFC7F8A40045
:1040B0000421B86802F0C6FFC7F8A0000521B8685F
:1040C00002F0C0FFC7F89C000621B86802F0BAFFF2
:1040D000C7F89800D7F8AC30002B13D0D7F8A83029
:1040E000002B0FD0D7F8A430002B0BD0D7F8A0307E
:1040F000002B07D0D7F89C30002B03D0D7F898308E
:10410000002B0DD107F11803624A642118462AF0EA
:1041100045FB07F118031946F86802F0D1FEB6E036
:10412000D7F8AC002AF03AF9C7F89400D7F8A800FD
:104130002AF034F9C7F89000D7F8A4002AF02EF935
:10414000C7F88C00D7F8A0002AF028F9C7F8880033
:10415000D7F89C002AF022F9C7F88400D7F8980015
:104160002AF01CF9C7F88000D7F89430002B03DB45
:10417000D7F89430172B04DD4749F86802F0A0FE09
:1041800085E0D7F89030002B03DBD7F890303B2B3D
:1041900004DD4249F86802F093FE78E0D7F88C30ED
:1041A000002B03DBD7F88C303B2B04DD3C49F8684F
:1041B00002F086FE6BE0D7F88830002B03DDD7F8DD
:1041C00088301F2B04DD3749F86802F079FE5EE085
:1041D000D7F88430002B03DDD7F884300C2B04DDB6
:1041E0003149F86802F06CFE51E0D7F88030002BBE
:1041F00003DBD7F88030632B04DD2C49F86802F02C
:104200005FFE44E0D7F89430DBB2FB74D7F890300F
:10421000DBB23B75D7F88C30DBB27B75D7F88830D2
:10422000DBB23B74D7F88430DBB27B74D7F88030D4
:10423000DBB2BB7407F1100318460DF091FF0CF0D0
:1042400047FCF86707F110031946F86F0CF096FC6D
:10425000FB7C1E463B7D7A7D397C787C0446B87CAD
:10426000054607F11800049503940291019200930A
:1042700033460F4A64212AF091FA07F118031946D0
:10428000F86802F01DFE0B49F86802F019FEB43719
:10429000BD46F0BDF015070830160708641607087C
:1042A00098160708CC160708FC16070830170708E9
:1042B00078170708F8110708F0B5B7B006AFF8602F
:1042C000B9607A600121B86802F0BCFEC7F8BC0092
:1042D000D7F8BC30002B0DD107F14803C84A642140
:1042E00018462AF05BFA07F148031946F86802F00D
:1042F000E7FD82E1C349D7F8BC00FBF7F1FF0346B5
:10430000002B3FD10CF0E4FBC7F8AC0007F14003F1
:104310001946D7F8AC000CF0E5FB0346002B2CD176
:1043200007F13E031946D7F8AC000CF06BFC97F888
:1043300043309C4697F8443097F8452097F8401052
:1043400097F84100044697F842000546B7F93E0049
:10435000064607F1480005960495039402910192E0
:1043600000936346A84A64212AF018FA07F148032B
:104370001946F86802F0A4FD3BE1A449F86802F090
:104380009FFD36E1A249D7F8BC00FBF7A9FF034621
:10439000002B26D107F1380318460DF0CBFE97F815
:1043A0003B301E4697F83C3097F83D2097F8381080
:1043B00097F83900044697F83A00054607F1480097
:1043C000049503940291019200933346914A64212B
:1043D0002AF0E4F907F148031946F86802F070FD85
:1043E00007E18D49D7F8BC00FBF77AFF0346002BA5
:1043F0002ED100237B63002387F83330002387F816
:104400003230002387F8313007F1310307F13202EF
:1044100007F1330107F134000DF0E6FE97F8333071
:104420001C4697F8323097F83120796BC9B207F102
:1044300048000291019200932346784A64212AF0B1
:10444000ADF907F148031946F86802F039FDD0E0EC
:104450007349D7F8BC00FBF743FF0346002B12D18A
:104460000DF0B4FEC7F8B00007F14800D7F8B0303F
:104470006C4A64212AF092F907F148031946F8685A
:1044800002F01EFDB5E06849D7F8BC00FBF728FF35
:104490000346002B40F0A0800CF01AFBC7F8B800D0
:1044A00007F128031946D7F8B8000CF01BFB0346A8
:1044B000002B2CD107F116031946D7F8B8000CF0E1
:1044C000A1FB97F82B309C4697F82C3097F82D20BD
:1044D00097F8281097F82900044697F82A0005460F
:1044E000B7F91600064607F14800059604950394AF
:1044F0000291019200936346434A64212AF04EF9E7
:1045000007F148031946F86802F0DAFC03E047496E
:10451000F86802F0D5FC07F1200318460DF00AFEFA
:1045200097F823301E4697F8243097F8252097F8FF
:10453000201097F82100044697F82200054607F15D
:104540004800049503940291019200933346314A46
:1045500064212AF023F907F148031946F86802F0AC
:10456000AFFC0023FB610023FB760023BB76002316
:104570007B7607F1190307F11A0207F11B0107F116
:104580001C000DF031FEFB7E1C46BB7E7A7EF96975
:10459000C9B207F1480002910192009323461F4AD5
:1045A00064212AF0FBF807F148031946F86802F085
:1045B00087FC0DF00BFEC7F8B40007F14800D7F8F0
:1045C000B430184A64212AF0E9F807F14803194683
:1045D000F86802F075FC0CE007F14803144A642106
:1045E00018462AF0DBF807F148031946F86802F08C
:1045F00067FC1049F86802F063FCC437BD46F0BDA3
:10460000A8170708D4170708DC1707082418070895
:104610004018070848180708841807088C18070866
:10462000C0180708C8180708D8180708DC180708B2
:10463000F4180708F8110708F0B5A9B006AFF8603C
:10464000B9607A600121B86802F0FCFCC7F8840008
:10465000D7F88430002B0DD107F118032F4A6421BD
:1046600018462AF09BF807F118031946F86802F07B
:1046700027FC50E000220021D7F8840029F0C2FF77
:10468000C7F88000D7F88030254A93420DD807F14B
:104690001800244B244A64212AF080F807F11803FB
:1046A0001946F86802F00CFC35E0D7F880000DF0F0
:1046B0006DFDD7F880201D4B134407F11002114601
:1046C00018460DF0F9FB0CF003FAF86707F1100338
:1046D0001946F86F0CF052FAFB7C1E463B7D7A7D42
:1046E000397C787C0446B87C054607F118000495AF
:1046F000039402910192009333460D4A64212AF0FB
:104700004DF807F118031946F86802F0D9FB09497A
:10471000F86802F0D5FB8C37BD46F0BD2C190708B0
:104720007F436D3880436D384819070880BC92C7B5
:1047300078170708F811070880B5A4B002AFF86031
:10474000B9607A600121B86802F07CFCC7F8840087
:104750000221B86802F076FCC7F88000D7F88430F0
:10476000002B03D0D7F88030002B0DD107F11403B4
:10477000254A642118462AF011F807F11403194656
:10478000F86802F09DFB3CE000220021D7F884008D
:1047900029F0C0FE0346A7F87E3000220021D7F89A
:1047A000800029F0B7FE0346DBB2FB740CF0C0FAC0
:1047B000B867B7F87E1007F113020123B86F0CF049
:1047C0001FFB0346002B0AD1B7F87E30FA7C07F1B5
:1047D000140000920D4A642129F0E0FF07E0B7F8C9
:1047E0007E3007F114000A4A642129F0D7FF07F14F
:1047F00014031946F86802F063FB0649F86802F0F2
:104800005FFB8837BD4680BD681907088C1907080B
:10481000AC190708F811070880B5A4B002AFF8601A
:10482000B9607A600121B86802F00CFCC7F8840016
:10483000D7F88430002B0DD107F11803224A6421E8
:10484000184629F0ABFF07F118031946F86802F083
:1048500037FB35E000220021D7F8840029F05AFE0A
:104860000346A7F882300023FB750CF061FAF86765
:10487000B7F8821007F117020123F86F0CF04FFB15
:104880000346002B0AD1B7F88230FA7D07F11800F1
:1048900000920E4A642129F081FF07E0B7F88230C8
:1048A00007F118000A4A642129F078FF07F118037C
:1048B0001946F86802F004FB0649F86802F000FBAC
:1048C0008837BD4680BD00BFC8190708E41907082E
:1048D000041A0708F811070880B584B000AFF86023
:1048E000B9607A60F86804F0F3FD0449F86802F0F2
:1048F000E7FA00BF1037BD4680BD00BFF8110708BA
:1049000080B584B000AFF860B9607A6004F06AF9ED
:104910000549F86802F0D4FA0449F86802F0D0FAC0
:1049200000BF1037BD4680BD201A0708F8110708E0
:1049300080B584B000AFF860B9607A6004F0D4F953
:104940000549F86802F0BCFA0449F86802F0B8FAC0
:1049500000BF1037BD4680BD381A0708F811070898
:1049600080B5A6B000AFF860B9607A600121B86880
:1049700002F068FBC7F894000221B86802F062FBFD
:10498000C7F89000D7F89430002B03D0D7F89030B8
:10499000002B04D11149F86802F092FA1BE0D7F815
:1049A0009020D7F89410F86804F0A6FC0346002B7A
:1049B0000DD107F11000D7F89430094A802129F071
:1049C000EDFE07F110031946F86802F079FA05497F
:1049D000F86802F075FA9837BD4680BD501A07088E
:1049E000701A0708F811070880B5A8B000AFF86082
:1049F000B9607A600121B86802F024FBC7F89C0016
:104A00000221B86802F01EFBC7F89800D7F89C3066
:104A1000002B03D0D7F89830002B04D11C49F8683C
:104A200002F04EFA31E0D7F89800FBF763FCC7F8C4
:104A30009400D7F89430B3F5005F04D91549F868AD
:104A400002F03EFA21E0D7F89420D7F89810D7F872
:104A50009C0004F0CBF90346002B0ED107F11400A3
:104A6000D7F89C300C4A802129F098FE07F11403F6
:104A70001946F86802F024FA03E00849F86802F0E1
:104A80001FFA0749F86802F01BFAA037BD4680BD3F
:104A9000501A0708881A0708701A0708A41A070886
:104AA000F811070880B586B000AFF860B9607A6089
:104AB0000121B86802F0C6FA78617B69002B04D145
:104AC0000749F86802F0FCF907E07969F86804F032
:104AD00039FB0449F86802F0F3F91837BD4680BD88
:104AE000BC1A0708F811070880B5A8B000AFF86035
:104AF000B9607A6007F19403184604F03DFA034662
:104B0000002B2AD0D7F8943007F11400194A8021DD
:104B100029F044FE07F114031946F86802F0D0F9B1
:104B2000D7F8983007F11400134A802129F036FE97
:104B300007F114031946F86802F0C2F997F89C309F
:104B400007F114000D4A802129F028FE07F1140313
:104B50001946F86802F0B4F903E00949F86802F070
:104B6000AFF90849F86802F0ABF900BFA037BD46BD
:104B700080BD00BFD41A0708E81A0708FC1A070806
:104B8000101B0708F811070880B584B000AFF86063
:104B9000B9607A6080210B48FEF710FD642017F0A1
:104BA0003DFA80210748FEF7FBFC0749F86802F050
:104BB00087F90649F86802F083F900BF1037BD464F
:104BC00080BD00BF001802582C1B0708F811070809
:104BD00080B584B000AFF860B9607A604FF480713E
:104BE0000748FEF7DDFC0749F86802F069F9064955
:104BF000F86802F065F900BF1037BD4680BD00BF00
:104C000000180258481B0708F811070880B584B03F
:104C100000AFF860B9607A604FF480710748FEF722
:104C2000CDFC0749F86802F04BF90649F86802F034
:104C300047F900BF1037BD4680BD00BF00180258BD
:104C4000701B0708F811070880B586B000AFF86040
:104C5000B9607A600121B86802F0F4F978617B6983
:104C6000002B04D11E49F86802F02AF935E01D49ED
:104C70007869FBF735FB0346002B07D11A49F86822
:104C800002F01EF90120FBF707FF22E017497869BF
:104C9000FBF726FB0346002B07D11549F86802F005
:104CA0000FF90220FBF7F8FE13E012497869FBF7D1
:104CB00017FB0346002B07D10F49F86802F000F9F3
:104CC0000020FBF7E9FE04E00C49F86802F0F8F870
:104CD00003E00B49F86802F0F3F81837BD4680BDD1
:104CE000981B0708BC1B0708C01B0708F01B070818
:104CF000F41B0708241C07082C1C0708601C070865
:104D0000F811070880B584B000AFF860B9607A6028
:104D10000520FBF7C1FE0449F86802F0D1F800BF96
:104D20001037BD4680BD00BFF811070880B586B0BA
:104D300000AFF860B9607A600121B86802F082F9CA
:104D400078617B69002B04D11E49F86802F0B8F83D
:104D500034E01D497869FBF7C3FA0346002B07D1FD
:104D60000320FBF799FE1949F86802F0A9F821E041
:104D700017497869FBF7B4FA0346002B07D10420E2
:104D8000FBF78AFE1349F86802F09AF812E012491C
:104D90007869FBF7A5FA0346002B07D10020FBF743
:104DA0007BFE0E49F86802F08BF803E00C49F868C6
:104DB00002F086F80B49F86802F082F81837BD4611
:104DC00080BD00BF981C0708BC1B0708B81C07085B
:104DD000F01B0708001D0708401D0708441D0708B1
:104DE000741D0708F811070880B588B000AFF86097
:104DF000B9607A600121B86802F024F9B861BB6932
:104E0000002B04D11649F86802F05AF825E0B86979
:104E1000FBF770FA78610D211248FDF713FD0023AE
:104E2000FB610AE0BA69FB6913441B7819460D4817
:104E3000FDF708FDFB690133FB61FA697B699A4262
:104E4000F0D30D210748FDF7FDFC0749F86802F093
:104E500037F80649F86802F033F82037BD4680BDC0
:104E6000A81D070800780040C41D0708F8110708AE
:104E700080B584B000AFF860B9607A600949F8681D
:104E800002F01EF80849F86802F01AF80749F868B5
:104E900002F016F80649F86802F012F800BF103761
:104EA000BD4680BD181E07083C1E07085C1E07088B
:104EB000F811070890B5ADF2544D04AF07F58863BB
:104EC000A3F23443186007F58863A3F5876319607C
:104ED00007F58863A3F23C431A601623C7F83434FD
:104EE00017F00EFBC7F8300407F11400D7F8303480
:104EF000734A4FF4807129F051FC07F1140207F551
:104F00008863A3F234431146186801F0D9FF07F50E
:104F10008A730022D7F83414184617F0FDFAC7F840
:104F20002C04D7F82C34002B10D107F58863A3F29A
:104F300034436449186801F0C3FF07F58863A3F29E
:104F400034436149186801F0BBFFB4E007F1140075
:104F5000D7F82C345D4A4FF4807129F01FFC07F11B
:104F6000140207F58863A3F234431146186801F070
:104F7000A7FF07F58863A3F234435549186801F089
:104F80009FFF07F58863A3F234435249186801F084
:104F900097FF0023C7F83C3477E007F58863A3F553
:104FA0004B71D7F83C241346DB0013449B000B44A1
:104FB0000C331B78042B21D801A252F823F000BF38
:104FC000D54F0408DD4F0408E54F0408ED4F0408F1
:104FD000F54F0408404BC7F8383413E03F4BC7F88F
:104FE00038340FE03E4BC7F838340BE03D4BC7F880
:104FF000383407E03C4BC7F8383403E03B4BC7F884
:10500000383400BF07F58863A3F54B71D7F83C240B
:105010001346DB0013449B000B4404331C6807F564
:105020008863A3F54B71D7F83C241346DB00134487
:105030009B000B441033196807F58863A3F54B7088
:10504000D7F83C241346DB0013449B000344203371
:105050001B6807F1140002930191D7F838340093CC
:105060002346234A4FF4807129F098FB07F114027C
:1050700007F58863A3F234431146186801F020FF56
:10508000D7F83C340133C7F83C34D7F83C24D7F880
:105090002C349A4281D307F58863A3F234430D4937
:1050A000186801F00DFF07F58863A3F23443064941
:1050B000186801F005FF07F24447BD4690BD00BFE8
:1050C000781E0708981E0708F8110708BC1E070875
:1050D000D01E0708001F07082C1F0708341F0708E9
:1050E0003C1F0708441F07084C1F0708541F0708E8
:1050F0005C1F070880B582B000AF78600348FDF7F9
:1051000091FF00BF0837BD4680BD00BF04080024E2
:1051100090B587B002AFF860B9607A601349F8685B
:1051200001F0CEFE124B1B68002B0AD1114B0093ED
:10513000002300226421104818F078FA03460C4A34
:1051400013600B4B1B68002B0BD0094B1C6817F02E
:10515000C7F902460023009300230121204618F0DE
:10516000C1FA00BF1437BD4690BD00BF741F0708C9
:10517000EC9C0024F5500408841F070880B58AB011
:1051800000AFF860B9607A600121B86801F05AFF99
:1051900078627B6A002B04D12949F86801F090FEFF
:1051A0004AE02848FEF7D8F9034687F8233097F8F5
:1051B0002330032B3BD1786AFBF79CF8F861FB693D
:1051C000102B04D92049F86801F07AFE34E00BF086
:1051D000AFFDB861FB69DBB2FB7507F11702012374
:1051E0000021B8690BF00CFE0346002B04D01749D0
:1051F000F86801F065FE1FE0FB69002B0ED0FB692B
:105200009BB27A6A0121B8690BF0FAFD0346002BC4
:1052100004D00F49F86801F053FE0DE00D49F8681D
:1052200001F04EFE0C49F86801F04AFE04E00B491B
:10523000F86801F045FE00BF2837BD4680BD00BFBD
:10524000901F070804080024B41F0708DC1F070884
:10525000082007082C200708F81107085020070825
:1052600080B596B000AFF860B9607A600121B86887
:1052700001F0E8FE78651949F86801F021FE7B6DC0
:10528000002B0BD11649F86801F01AFEF86803F0FC
:10529000D5FB1449F86801F013FE16E00A2200213C
:1052A000786D29F0AFF9386507F110003B6D0E4AB3
:1052B000402129F073FA07F110031946F86801F04C
:1052C000FFFDF968386D03F0FDFB0849F86801F04F
:1052D000F7FD00BF5837BD4680BD00BF80200708DE
:1052E00098200708A8200708B8200708F811070821
:1052F00080B584B000AFF860B9607A60FEF73AF923
:1053000080B5A0B000AFF860B9607A600023FB758B
:1053100007F1170207F118031146184605F0EAF9DC
:105320000346002B07D0FB7D07F11C000C4A6421CB
:1053300029F034FA06E007F11C030A4A64211846F2
:1053400029F02CFA07F11C031946F86801F0B8FDA2
:105350000549F86801F0B4FD00BF8037BD4680BD47
:10536000CC200708EC200708F811070880B5A0B08A
:1053700000AFF860B9607A600121B86801F062FEA0
:10538000F867FB6F002B0DD107F11403144A642159
:10539000184629F003FA07F114031946F86801F0DA
:1053A0008FFD19E000220021F86F29F02BF9B86772
:1053B000B86F04F0AFFA07F11400BB6F094A64211B
:1053C00029F0ECF907F114031946F86801F078FDAB
:1053D0000549F86801F074FD8037BD4680BD00BF07
:1053E0001C21070844210708F811070880B5A0B060
:1053F00000AFF860B9607A600121B86801F022FE60
:10540000F867FB6F002B0DD107F114031D4A6421CF
:10541000184629F0C3F907F114031946F86801F09A
:105420004FFD2CE000220021F86F29F0EBF8B8675F
:10543000BB6F1B0EDBB23B74BB6F1B0CDBB27B7410
:10544000BB6F1B0ADBB2BB74BB6FDBB2FB7407F133
:105450001002042399210C481CF0D2FF07F114001C
:10546000BB6F0A4A642129F099F907F11403194620
:10547000F86801F025FD0649F86801F021FD803744
:10548000BD4680BD70210708600800249C210708E4
:10549000F811070890B5A5B004AFF860B9607A605C
:1054A00004F088FA07F1140318460CF043FE3B7D24
:1054B0001C46FB7D3A7E797E07F11C000291019229
:1054C00000932346084A642129F068F907F11C0378
:1054D0001946F86801F0F4FC0449F86801F0F0FCA2
:1054E00000BF8437BD4690BDCC210708F8110708DE
:1054F000F0B5BFB008AFF860B9607A60002387F8F4
:10550000D7300023C7F8D03015E0D7F8D0309BB2A1
:1055100001339BB21946B86801F094FD0246D7F8F2
:10552000D0309B00D8333B4443F8C82CD7F8D03058
:105530000133C7F8D030D7F8D030072BE5DD002392
:10554000C7F8CC301BE0D7F8CC309B00D8333B44B5
:1055500053F8C83C002B0DD107F13003534A962174
:10556000184629F01BF907F130031946F86801F0D5
:10557000A7FC97E0D7F8CC300133C7F8CC30D7F888
:10558000CC30072BDFDD0023C7F8C83033E0D7F875
:10559000C8309B00D8333B4453F8C83C002200215C
:1055A000184629F02FF8034687F8C73097F8C73018
:1055B000012B0ED907F13000D7F8C8303C4A9621AC
:1055C00029F0ECF807F130031946F86801F078FC8F
:1055D00068E097F8C720D7F8C83002FA03F35AB248
:1055E00097F9D73013435BB287F8D730D7F8C83074
:1055F0000133C7F8C830D7F8C830072BC7DD97F894
:10560000D730184604F026FA97F8D7E097F8D73045
:1056100003F001033B6097F8D7205208D2B202F0A2
:10562000010297F8D7108908C9B201F0010197F873
:10563000D700C008C0B200F0010097F8D740240995
:10564000E4B204F0010497F8D7506D09EDB205F00B
:10565000010597F8D760B609F6B206F0010697F88B
:10566000D7C04FEADC1C5FFA8CFC0CF0010307F199
:10567000300C0793069605950494039002910192CD
:105680003B68009373460B4A9621604629F086F8E2
:1056900007F130031946F86801F012FC0649F86872
:1056A00001F00EFCDC37BD46F0BD00BFF821070855
:1056B0003422070870220708F8110708F0B5DFB098
:1056C0000AAF07F5A873A3F59E73186007F5A873D2
:1056D000A3F5A073196007F5A873A3F5A2731A6068
:1056E00007F5A873A3F5A0730121186801F0AAFCBF
:1056F000C7F84C0107F5A873A3F5A0730221186839
:1057000001F0A0FCC7F8480107F5A873A3F5A07342
:105710000321186801F096FCC7F8440107F5A87347
:10572000A3F5A0730421186801F08CFCC7F84001B0
:1057300007F5A873A3F5A0730521186801F082FC92
:10574000C7F83C0107F5A873A3F5A07306211868F4
:1057500001F078FCC7F8380107F5A873A3F5A0732A
:105760000721186801F06EFCC7F8340107F5A8732B
:10577000A3F5A0730821186801F064FCC7F8300194
:1057800007F5A873A3F5A0730921186801F05AFC66
:10579000C7F82C0107F5A873A3F5A0730A211868B0
:1057A00001F050FCC7F82801D7F84C31002B23D06A
:1057B000D7F84831002B1FD0D7F84431002B1BD02D
:1057C000D7F84031002B17D0D7F83C31002B13D03D
:1057D000D7F83831002B0FD0D7F83431002B0BD04D
:1057E000D7F83031002B07D0D7F82C31002B03D05D
:1057F000D7F82831002B12D107F11803644A4FF46F
:105800008071184628F0CAFF07F1180207F5A8733F
:10581000A3F59E731146186801F052FBB3E0002215
:105820000021D7F84C0128F0EDFE0346A7F82631F9
:1058300000220021D7F8480128F0E4FE0346A7F82B
:10584000243100220021D7F8440128F0DBFE034672
:10585000A7F8223100220021D7F8400128F0D2FE1B
:10586000034687F8213100220021D7F83C0128F0B7
:10587000C9FE034687F8203100220021D7F83801FD
:1058800028F0C0FE034687F81F3100220021D7F818
:10589000340128F0B7FE034687F81E3100220021AC
:1058A000D7F8300128F0AEFE034687F81D310022FC
:1058B0000021D7F82C0128F0A5FE0346A7F81A31DD
:1058C00000220021D7F8280128F09CFE034687F823
:1058D000193197F82141B7F82221B7F82411B7F808
:1058E000260197F819310593B7F81A31049397F800
:1058F0001D31039397F81E31029397F81F310193DE
:1059000097F820310093234604F0E6F8B7F826E133
:10591000B7F82431BB60B7F8222197F8211197F826
:10592000200197F81F4197F81E5197F81D61B7F8AD
:105930001A317B6097F819C1634607F1180C089378
:105940007B68079306960595049403900291019253
:10595000BB68009373460F4A4FF48071604628F08D
:105960001DFF07F1180207F5A873A3F59E731146F2
:10597000186801F0A5FA07F5A873A3F59E73064908
:10598000186801F09DFA07F5AA77BD46F0BD00BF83
:10599000F022070870230708F811070880B584B0C3
:1059A00000AFF860B9607A6004F01CF90549F86846
:1059B00001F086FA0449F86801F082FA00BF103756
:1059C000BD4680BDC0230708F811070880B584B024
:1059D00000AFF860B9607A6004F042F90549F868F0
:1059E00001F06EFA0449F86801F06AFA00BF103756
:1059F000BD4680BDDC230708F811070880B5A4B0B8
:105A000002AFF860B9607A600121B86801F01AFB52
:105A1000C7F884000221B86801F014FBC7F88000C1
:105A20000321B86801F00EFBF867D7F88430002B2B
:105A300006D0D7F88030002B02D0FB6F002B0DD1A1
:105A400007F11003254A6421184628F0A7FE07F144
:105A500010031946F86801F033FA3BE000220021F8
:105A6000D7F8840028F0CEFD0346A7F87A3000224C
:105A70000021D7F8800028F0C5FD034687F879306B
:105A800000220021F86F28F0BDFD0346A7F876300C
:105A9000B7F8762097F87910B7F87A30184604F0FE
:105AA0001DF9B7F87A1097F87930B7F8762007F132
:105AB0001000019200930B46094A642128F06EFE03
:105AC00007F110031946F86801F0FAF90549F8687A
:105AD00001F0F6F98837BD4680BD00BFF8230708FE
