:020000040800F2
:100000000000052001720008516F0008596F0008B8
:10001000616F0008696F0008716F00080000000040
:10002000000000000000000000000000796F0008E0
:10003000876F000800000000956F0008A36F00089C
:100040005172000851720008517200085172000884
:100050005172000851720008517200085172000874
:100060005172000851720008517200085172000864
:100070005172000851720008517200085172000854
:100080005172000851720008517200085172000844
:100090005172000851720008517200085172000834
:1000A0005172000851720008517200085172000824
:1000B0005172000851720008517200085172000814
:1000C0005172000851720008517200085172000804
:1000D00051720008B96F000851720008517200088F
:1000E00051720008517200085172000851720008E4
:1000F00051720008517200085172000851720008D4
:1001000051720008517200085172000851720008C3
:1001100051720008517200085172000851720008B3
:1001200051720008517200085172000851720008A3
:10013000CD6F00085172000851720008517200081A
:100140005172000851720008517200085172000883
:100150005172000851720008517200087570000851
:100160005172000851720008517200085172000863
:10017000517200085172000851720008000000001E
:100180005172000851720008517200085172000843
:1001900051720008897000085172000851720008FD
:1001A0005172000851720008517200085172000823
:1001B0005172000851720008517200085172000813
:0801C0005172000851720008A1
:1001D00010B5054C237833B9044B13B10448AFF381
:1001E00000800123237010BD4401002000000000A6
:1001F00060CD000808B5034B1BB103490348AFF3BA
:10020000008008BD000000004801002060CD00080B
:1002100010F8012B11F8013B012A28BF9A42F7D0B0
:10022000D01A7047034613F8012B002AFBD1181A85
:1002300001387047000000000000000000000000CE
:1002400001F0FF01102A2BDB10F0070F08D010F887
:10025000013B013A8B422DD010F0070F42B3F6D18B
:10026000F0B441EA012141EA014122F007047FF0A4
:1002700000070023F0E80256083C85EA010586EAFB
:10028000010685FA47F5A3FA87F586FA47F6A5FA37
:1002900087F68EB9EED1F0BC01F0FF0102F0070243
:1002A00032B110F8013B013A83EA010313B1F8D1EE
:1002B0000020704701387047002D06BF35460338CF
:1002C000073815F0010F07D1013015F4807F02BF08
:1002D000013015F4C03F0130F0BC0138704700BF59
:1002E00053B94AB9002908BF00281CBF4FF0FF319D
:1002F0004FF0FF3000F088B9ADF1080C6DE904CE85
:1003000000F006F8DDF804E0DDE9022304B07047F0
:100310002DE9F047089D8E4604468846002B4AD1B9
:100320008A42174662D9B2FA82F64EB1C6F120036C
:1003300001FA06F820FA03F3B74043EA0808B4408C
:100340004FEA174E1FFA87FCB8FBFEF1230C0EFB99
:10035000118843EA084301FB0CF29A4209D9FB18C1
:1003600001F1FF3080F0EA809A4240F2E7800239E2
:100370003B449A1AA3B2B2FBFEF00EFB102243EAF2
:10038000024300FB0CFC9C4509D9FB1800F1FF322D
:1003900080F0D6809C4540F2D3803B44023840EA4E
:1003A0000140A3EB0C0300211DB1F3400022C5E97D
:1003B0000032BDE8F0878B4205D90DB1C5E90001D7
:1003C00000210846F5E7B3FA83F1002946D17345C9
:1003D00002D3824200F20581841A6EEB03020120EF
:1003E0009046002DE5D0C5E90048E2E7002A00F07C
:1003F0009080B2FA82F6002E40F0A4808A1A030C94
:100400004FEA174E80B2BCB20121B2FBFEFC0EFBDC
:100410001C2243EA024304FB0CF29A4207D9FB1860
:100420000CF1FF3802D29A4200F2E080C4469B1AD7
:10043000B3FBFEF20EFB123340EA034302FB04F46B
:100440009C4207D9FB1802F1FF3002D29C4200F215
:10045000CA8002461B1B42EA0C40A5E7C1F12006F8
:100460008B4022FA06F71F430EFA01F420FA06F336
:100470002EFA06FE4FEA1749234300FA01F81FFA45
:1004800087FCBEFBF9F01C0C09FB10EE44EA0E449D
:1004900000FB0CFEA64502FA01F209D93C1900F155
:1004A000FF3A80F09C80A64540F2998002383C4497
:1004B000A4EB0E041FFA83FEB4FBF9F309FB13440B
:1004C0004EEA044403FB0CFCA44508D93C1903F193
:1004D000FF3E80F08280A4457FD9023B3C4443EA42
:1004E0000040A4EB0C04A0FB02EC64457346E1461B
:1004F00062D35FD05DB1B8EB030264EB090404FA88
:1005000006F622FA01F31E43CC40C5E9006400213F
:100510004FE7B1FBF2FC010C41EA0E4180B240EA28
:1005200001423B4638463C46B846BE462026B1FB13
:10053000F7F1A2EB080241EA0C4166E7014618E731
:1005400010462CE7C6F120022EFA02F3B740B14064
:1005500020FA02F24FEA174E0A43B3FBFEF8BCB290
:100560000EFB1833110C41EA034108FB04F9B040BB
:1005700089454FEA104380B23ED9791808F1FF3C13
:1005800001D289451FD8A1EB0901B1FBFEF909FB96
:1005900004F80EFB191192B242EA0142424529D2F7
:1005A000BA1809F1FF31C4D24245C2D2A9F1020101
:1005B0003A44BEE7F0459DD2BEEB02036CEB070C5C
:1005C0000138E14696E7A7EB09094944A8F1020C76
:1005D000B1FBFEF909FB04F8DBE773467FE7504601
:1005E00066E70846FDE63B44023A33E7ACF1020C0D
:1005F0003B441CE749469CE7A1EB0901C446B1FB1B
:10060000FEF909FB04F8C4E7704700BF80B588B065
:1006100002AF00F0E9FA03F0EFFF03F031FD01F063
:1006200089FE07F1110307F1120207F1130107F127
:10063000140004F045F8FB7C1946BB7C1A467B7C11
:1006400018461D4B009303461C480BF04BFA00F074
:1006500045FC0346002B15D007F1090307F10A02F8
:1006600007F10B0107F10C0004F02AF8FB7A194698
:10067000BB7A1A467B7A18460F4B00930346104804
:100680000BF030FA00F060FF03F0EAFA7B1CBA1CB2
:10069000F91C381D04F014F8FB781946BB781A468B
:1006A0007B781846044B0093034606480BF01AFA71
:1006B00000BF1837BD4680BDA0CD000878CD00082A
:1006C000ACCD0008D8CD000880B584B002AF00F0F2
:1006D0003BF800F0C7FB7B1CBA1CF91C381D03F06B
:1006E000EFFFFB781946BB781A467B781846054B16
:1006F0000093034604480BF0F5F900BF0837BD46E8
:1007000080BD00BFA0CD000800CE000880B584B039
:1007100002AF7B1CBA1CF91C381D03F0D1FFFB781B
:100720001946BB781A467B781846054B009303465A
:1007300004480BF0D7F900F051F900F05BF9FCE741
:10074000A0CD00082CCE000880B500AF174B0022CA
:100750001A60174B00221A70164B00221A70164BA3
:1007600000221A70154B00221A704FF4C07200213B
:1007700013480BF083FBA022002112480BF07EFBF4
:100780000822002110480BF079FB042200210F48B9
:100790000BF074FB042200210D480BF06FFB0422C8
:1007A00000210C480BF06AFB00BF80BD9C030020B9
:1007B000E402002088030020900300206001002054
:1007C00064010020E8020020A00300209403002020
:1007D000980300208C03002080B584B000AF7860BF
:1007E00039600123FB737B68002B30D03B68002B02
:1007F0002DD0194B1B780F2B29D8174B1B781A4675
:1008000013465B001344DB00144A1344BB60BB680F
:1008100008331022396818460BF0CBFBBB68002266
:100820005A603B681B78022B14BF01230023DBB204
:100830001A46BB681A70084B1A787B681A70064B08
:100840001B780133DAB2044B1A700023FB73FB7B75
:1008500018461037BD4680BDE40200206401002028
:1008600080B487B000AF544B1B78002B00F09E8003
:10087000524B1B680133514A13600023FB7535E06E
:10088000FA7D13465B001344DB004D4A1344BB6002
:10089000BB681B7A012B26D1BB681B78012B22D1A8
:1008A000BB685B685A1CBB685A60BB685A68BB6807
:1008B000DB689A4217D3BB6800225A60FB7D5B0954
:1008C000FB71FB7D03F01F03BB71FB793D4A52F8BE
:1008D0002320BB79012101FA03F31946FB790A436E
:1008E000384941F82320FB7D0133FB75364B1B78DB
:1008F000FA7D9A42C4D30023BB753BE0BA7D134610
:100900009B0013449B00314A13443B613B691B78B5
:10091000012B2CD13B695B685A1C3B695A603B69CF
:100920005A683B69DB689A4221D3BB7D5B09FB7344
:10093000BB7D03F01F03BB73FB7B254A52F82320CA
:10094000BB7B012101FA03F31946FB7B0A432049D3
:1009500041F823203B6900225A603B691B7A022B35
:100960000CBF01230023DBB21A463B691A70BB7D22
:100970000133BB75174B1B78BA7D9A42BED3002357
:10098000BB7510E0BB7D144A52F82330002B07D012
:10099000BB7D114A52F82320013A0F4941F8232028
:1009A000BB7D0133BB75BB7D012BEBD900BF1C3771
:1009B000BD465DF8047B7047600100209C03002069
:1009C0006401002094030020E4020020E8020020DB
:1009D0009803002088030020A003002080B400AF0B
:1009E000034B01221A7000BFBD465DF8047B7047BF
:1009F0006001002080B588B000AF5B4B1B78002BF6
:100A000000F0AD800323FB775CE00023BB7750E070
:100A1000BB7F564A52F82330BB6000237B7742E00D
:100A20007B7F012202FA03F31A46BB681340002BB6
:100A300036D0BB7F5B01DAB27B7F1344FB714C4B3A
:100A40001B78FA799A422BD2FA7913465B00134449
:100A5000DB00484A13443B603B685B7A1A4697F9CF
:100A60001F309A421CD13B681B78012B18D1BB7FE9
:100A70003E4A52F823207B7F012101FA03F3DB4336
:100A80001946BB7F0A40394941F823203B681B695E
:100A900098473B681B7A022B02D13B6800221A70F0
:100AA0007B7F01337B777B7F1F2BB9D9BB7F0133E2
:100AB000BB77BB7F002BABD097F91F30DBB2013B7C
:100AC000DBB2FB7797F91F30002B9EDA00233B77D0
:100AD00042E03B7F284A52F823307B610023FB76BB
:100AE00034E0FB7E012202FA03F31A467B691340CD
:100AF000002B28D03B7F5B01DAB2FB7E1344FB74F2
:100B00001E4B1B78FA7C9A421DD23B7F1A4A52F840
:100B10002320FB7E012101FA03F3DB4319463B7FCF
:100B20000A40154941F82320FA7C13469B001344E0
:100B30009B00134A1344FB60FB681B69002B02D027
:100B4000FB681B699847FB7E0133FB76FB7E1F2BFE
:100B5000C7D93B7F01333B773B7F002BB9D000BF28
:100B60002037BD4680BD00BF6001002094030020F7
:100B7000E402002064010020980300208803002084
:100B8000E802002080B483B000AF786039607B68F1
:100B90005A693B6813403A689A420CBF012300230C
:100BA000DBB218460C37BD465DF8047B704780B455
:100BB00083B000AF786039607B683A689A6100BFA3
:100BC0000C37BD465DF8047B704780B483B000AF3E
:100BD000786039603B681A047B689A6100BF0C3703
:100BE000BD465DF8047B704780B500AF4FF480616F
:100BF0000548FFF7DCFF01210348FFF7D8FF03207A
:100C000000F004F800BF80BD0000024080B582B053
:100C100000AF0346FB71FB79032B33D801A252F8D6
:100C200023F000BF350C0008490C00085D0C0008DB
:100C3000710C00084FF480611948FFF7C6FF0121CD
:100C40001748FFF7C2FF27E04FF480611448FFF711
:100C5000BCFF01211248FFF7AAFF1DE04FF480619D
:100C60000F48FFF7A4FF01210D48FFF7AEFF13E087
:100C70004FF480610A48FFF79AFF01210848FFF707
:100C800096FF09E04FF480610548FFF79EFF0121C0
:100C90000348FFF79AFF00BF00BF0837BD4680BD7D
:100CA0000000024080B582B000AF4FF48061194867
:100CB000FFF768FF0346002B14BF01230023DBB2BC
:100CC000FB7101211348FFF75DFF0346002B14BFA2
:100CD00001230023DBB2BB71FB79002B04D1BB796C
:100CE000002B01D1002310E0FB79002B04D1BB794C
:100CF000012B01D1012308E0FB79012B04D1BB7941
:100D0000002B01D1022300E0032318460837BD461B
:100D100080BD00BF0000024080B500AF4021024806
:100D2000FFF745FF00BF80BD0018024080B582B0CC
:100D300000AF0346FB71FB79002B04D1402106482C
:100D4000FFF735FF03E040210348FFF73EFF00BFF8
:100D50000837BD4680BD00BF0018024080B483B094
:100D600000AF786039607B683A689A6100BF0C37E1
:100D7000BD465DF8047B704780B483B000AF7860F7
:100D800039603B681A047B689A6100BF0C37BD4626
:100D90005DF8047B7047000080B500AF0A4B1B78FC
:100DA000002B07D110210948FFF7D8FF064B01227D
:100DB0001A7006E010210548FFF7DEFF024B002203
:100DC0001A7000BF80BD00BFAA030020000C0240C3
:100DD00080B400AF00BFBD465DF8047B70470000E3
:100DE00080B500AF094B1B78012B07D101220849C0
:100DF000084808F01EFC054B00221A7001F0E6FAC4
:100E00000346184601F0FBFB00BF80BD50000020E8
:100E1000A9030020981A002080B500AF02F04CFF13
:100E200000BF80BD80B582B000AF78607B681B6872
:100E30000A4A93420DD101F0C9FA0246084B1B78C9
:100E40001946104601F0B8FB01220549786808F000
:100E5000F0FB00BF0837BD4680BD00BF0010014059
:100E6000A903002080B582B000AF0023FB7129E008
:100E7000FA7913469B0013449B00164A9818FA7996
:100E800013469B0013449B00124A13440433194633
:100E9000FFF7A2FCFA790F4913469B0013449B000D
:100EA0000B4404331B78022B09D1FA790949134604
:100EB0009B0013449B000B441A78074B1A70FB7974
:100EC0000133FB71FB79032BD2D900BF00BF083778
:100ED000BD4680BD00000020A803002080B500AF03
:100EE00000F02AF90346002B01D0012318E001206D
:100EF00006F00CFA00F016F80346002B01D001238F
:100F00000EE000F047F80346002B01D0012307E074
:100F100000F08AF80346002B01D0012300E00023F3
:100F2000184680BD80B594B000AF4FF480733B632A
:100F30000523BB6100237B630023BB634FF08073F9
:100F4000FB630023FB6200237B640023BB6400235C
:100F5000FB6400233B6001237B6000233B61012392
:100F6000FB601023BB604FF480037B613A4607F1BE
:100F7000180141F28833064806F04FFF0346002B64
:100F800001D0012300E0002318465037BD4680BD44
:100F90004C1A002080B594B000AF4FF480733B63CF
:100FA0000623BB6100237B630023BB630023FB6339
:100FB0000023FB6200237B640023BB640023FB64EB
:100FC00007F1180341F288321946164806F08EFDE3
:100FD0000346002B01D001231FE002233B600223C4
:100FE0007B6000233B610123FB601023BB604FF457
:100FF00080037B610523BB614FF08073FB633A463E
:1010000007F1180141F28833064806F006FF03464F
:10101000002B01D0012300E0002318465037BD46C5
:1010200080BD00BF4C1A002080B592B000AF4FF4D5
:1010300080733B628523BB6000237B620023BB621D
:101040004FF08073FB620023FB6100237B6300236E
:10105000BB630023FB6301233B6307F1080341F2F9
:1010600088321946334806F041FD0346002B01D073
:1010700001235BE0FB1D41F2883219462D4806F042
:101080002AFE0346002B01D001234FE0FFF782FF29
:101090000346002B01D0012348E0FB795BB203F04B
:1010A0000F035AB2F0237B647B6C93FAA3F33B6487
:1010B0003B6CB3FA83F3DBB219460A238B405BB275
:1010C00013435BB2DBB2FB714FF480733B620023CE
:1010D000BB6200237B630023BB630023FB6381238C
:1010E000BB6000237B624FF08073FB620023FB61D7
:1010F00001233B6307F1080341F2883219460D488A
:1011000006F0F4FC0346002B01D001230EE0FB1D8A
:1011100041F288321946074806F046FD0346002B87
:1011200003D005F083FD012300E000231846483773
:10113000BD4680BD4C1A002080B590B000AF0023A2
:10114000FB634FF48073FB614FF400533B6100235A
:101150007B6200233B6300237B630023BB63662326
:101160007B6000233B620023BB600023BB62002343
:10117000BB613B1D41F2883219461D4806F0B6FCA2
:101180000346002B01D001232EE00023FB6303E084
:1011900000BFFB6B0133FB63FB6B2E2BF8D94FF4C5
:1011A0008073FB614FF400533B6100237B6200239B
:1011B0003B6300237B630023BB6399237B60002395
:1011C0003B620023BB600023BB620023BB613B1D6D
:1011D00041F288321946064806F088FC0346002B87
:1011E00001D0012300E0002318464037BD4680BDF2
:1011F0004C1A002080B592B000AFF860B9607A60F8
:101200004FF48073BB62EB233B614FF44063FB629E
:101210004FF40053FB61BB687B6100233B634FF0DD
:1012200040737B630A237B627B68BB630023FB63A1
:1012300000233B6400237B6407F1100341F28832F2
:101240001946164806F052FC0346002B01D0012334
:101250001FE0124B1B685B6823F4E0620F4B1B68B6
:1012600042F400725A6041F28832F9680B4806F085
:1012700032FD0346002B01D001230AE0074B1B6817
:101280005B6823F4E062054B1B6842F4A0625A607D
:10129000002318464837BD4680BD00BF4C1A0020C9
:1012A00080B483B000AF78607B68DB6903F0020331
:1012B000022B01D1012300E0002318460C37BD4664
:1012C0005DF8047B704780B483B000AF78607B68C2
:1012D000DB6903F00403042B01D1012300E00023A8
:1012E00018460C37BD465DF8047B704780B483B068
:1012F00000AF78607B68DB6903F00803082B01D13D
:10130000012300E0002318460C37BD465DF8047B3E
:10131000704780B483B000AF78607B68DB6903F00E
:101320002003202B01D1012300E0002318460C37B5
:10133000BD465DF8047B704780B483B000AF786031
:101340007B68DB6903F08003802B01D1012300E07F
:10135000002318460C37BD465DF8047B704780B407
:1013600083B000AF78607B6802221A6200BF0C373E
:10137000BD465DF8047B704780B483B000AF7860F1
:101380007B6804221A6200BF0C37BD465DF8047BFF
:10139000704780B483B000AF78607B6808221A621F
:1013A00000BF0C37BD465DF8047B704780B489B040
:1013B00000AF78607B68FB60FB6853E8003FBB6070
:1013C000BB6843F02003FB617B68FA69BA617B610B
:1013D0007969BA6941E800233B613B69002BE9D197
:1013E00000BF00BF2437BD465DF8047B704780B462
:1013F00089B000AF78607B68FB60FB6853E8003F12
:10140000BB60BB6843F08003FB617B68FA69BA612B
:101410007B617969BA6941E800233B613B69002B34
:10142000E9D100BF00BF2437BD465DF8047B70479B
:1014300080B489B000AF78607B68FB60FB6853E8DC
:10144000003FBB60BB6823F08003FB617B68FA69E7
:10145000BA617B617969BA6941E800233B613B6904
:10146000002BE9D100BF00BF2437BD465DF8047BE7
:10147000704780B483B000AF78607B681B6803F06E
:101480002003202B01D1012300E0002318460C3754
:10149000BD465DF8047B704780B483B000AF7860D0
:1014A0007B681B6803F08003802B01D1012300E0DF
:1014B000002318460C37BD465DF8047B704780B4A6
:1014C00083B000AF78607B685B6ADBB218460C378C
:1014D000BD465DF8047B704780B483B000AF786090
:1014E0000B46FB70FA787B689A6200BF0C37BD46EA
:1014F0005DF8047B7047000080B485B000AF786071
:101500000023FB6013E00F4AFB68642101FB03F337
:1015100013441B687A689A4206D1FB68642202FB76
:1015200003F3084A134406E0FB680133FB60FB68E1
:10153000002BE8DD002318461437BD465DF8047B18
:10154000704700BF5400002080B582B002AF4FF456
:10155000806300930A4B0B4A01210B4803F0DCF82F
:101560004FF480630093094B094A0221094803F0B4
:10157000D3F80948FFF71AFF00231846BD4680BD7F
:10158000AC03002054CE000858000020AC07002017
:1015900060CE0008880000200014014080B584B0AF
:1015A00000AF78607868FFF7A7FFF860FB68002B52
:1015B00002D14FF0FF330EE0FB68043307F10B025A
:1015C0001146184603F021F90346002B01D0FB7A9F
:1015D00001E04FF0FF3318461037BD4680BD80B59F
:1015E00084B000AF78600B46FB707868FFF784FF2B
:1015F000F860FB68002B11D000BFFB683433FA7829
:101600001146184603F0BBF8034683F00103DBB232
:10161000002BF2D17868FFF7EAFE00E000BF103738
:10162000BD4680BD80B584B000AF78607868FFF7B4
:1016300063FFF860FB68002B01D1002305E0FB6825
:101640000433184603F05EF9034618461037BD46CA
:1016500080BD80B584B000AF78607868FFF74CFF3C
:10166000F860FB68002B01D1002306E0FB683433EF
:10167000184603F00BF9034600BF18461037BD4665
:1016800080BD80B584B000AF78607868FFF734FF24
:10169000F860FB68002B53D07868FFF73AFE0346EA
:1016A000002B2CD07868FFF7E4FE0346002B26D0F1
:1016B0007868FFF704FF0346FB727868FFF716FEB1
:1016C0000346002B02D07868FFF763FE7868FFF7C7
:1016D000E7FD0346002B02D07868FFF740FE7868EC
:1016E000FFF7F1FD0346002B02D07868FFF744FEB8
:1016F000FB680433FA7A1146184603F040F878681C
:10170000FFF71AFE0346002B1BD07868FFF7C4FED4
:101710000346002B15D0FB68343307F10A0211464B
:10172000184603F072F80346002B05D0BB7A194621
:101730007868FFF7D1FE04E07868FFF779FE00E0F3
:1017400000BF1037BD4680BD80B485B000AF0346F2
:101750000A46FB8013467B7141F22103BB817B79F2
:101760001BB21B021AB2B7F9063053401BB2FB8002
:101770000023FB7313E0B7F90630002B09DAB7F941
:1017800006305B001AB2B7F90C3053401BB2FB8035
:1017900002E0FB885B00FB80FB7B0133FB73FB7B80
:1017A000072BE8D9FB8818461437BD465DF8047B43
:1017B0007047000080B59EB000AFF860B9607A60F5
:1017C00010237B6600237B6782E007F110007B6FAC
:1017D000444A50210AF0FEF907F110031846FEF7BB
:1017E00021FD024607F1100313443B670023FB660B
:1017F00015E007F110033A6FD31AC3F150017A6F65
:10180000FB6E1344BA6813441B78374A386F0AF0EA
:10181000E1F93B6F03333B67FB6E0133FB66FA6E06
:101820007B6E9A420BD27A6FFB6E13447A689A42AF
:10183000DFD804E03B6F5A1C3A6720221A707A6E98
:1018400013465B001344063307F1100213443A6F4A
:101850009A42EFD33B6F5A1C3A677C221A700023DE
:10186000BB661BE07A6FBB6E1344BA6813441B78E7
:1018700087F8633097F863301F2B06D997F86330E9
:101880007E2B02D897F8631000E02E213B6F5A1C84
:101890003A670A461A70BB6E0133BB66BA6E7B6E3E
:1018A0009A4205D27A6FBB6E13447A689A42D9D8AD
:1018B0003B6F00221A7007F110031946F86800F018
:1018C0002FFF012005F022FD7A6F7B6E13447B67AA
:1018D0007A6F7B689A42FFF478AF00BF00BF783719
:1018E000BD4680BD60D0000868D0000880B588B0D3
:1018F00000AFF860B9607A6007F11403074A0A2163
:1019000018460AF067F907F114031946F86800F061
:1019100007FF00BF2037BD4680BD00BF70D0000864
:10192000F0B5B3B006AFF860B9607A600121B8686D
:1019300000F0B8FFC7F8AC000221B86800F0B2FFB1
:10194000C7F8A8000321B86800F0ACFFC7F8A400EE
:101950000421B86800F0A6FFC7F8A0000521B86808
:1019600000F0A0FFC7F89C000621B86800F09AFFBD
:10197000C7F89800D7F8AC30002B13D0D7F8A830B0
:10198000002B0FD0D7F8A430002B0BD0D7F8A03005
:10199000002B07D0D7F89C30002B03D0D7F8983015
:1019A000002B0DD107F11C035E4A642118460AF092
:1019B00011F907F11C031946F86800F0B1FEADE01B
:1019C000D7F8AC0009F0CCFEC7F89400D7F8A8000F
:1019D00009F0C6FEC7F89000D7F8A40009F0C0FED1
:1019E000C7F88C00D7F8A00009F0BAFEC7F8880045
:1019F000D7F89C0009F0B4FEC7F88400D7F8980027
:101A000009F0AEFEC7F88000D7F89430002B03DB56
:101A1000D7F89430172B04DD4349F86800F080FEB6
:101A20007CE0D7F89030002B03DBD7F890303B2BCD
:101A300004DD3E49F86800F073FE6FE0D7F88C30A3
:101A4000002B03DBD7F88C303B2B04DD3849F868DA
:101A500000F066FE62E0D7F88830002B03DDD7F88F
:101A600088301F2B04DD3349F86800F059FE55E03B
:101A7000D7F88430002B03DDD7F884300C2B04DD3D
:101A80002D49F86800F04CFE48E0D7F88030002B74
:101A900003DBD7F88030632B04DD2849F86800F0B9
:101AA0003FFE3BE0D7F89430DBB2FB75D7F89030BF
:101AB000DBB23B76D7F88C30DBB27B76D7F8883058
:101AC000DBB23B75D7F88430DBB27B75D7F880305A
:101AD000DBB2BB7507F11403184602F0CDFDFB7DA8
:101AE0001E463B7E7A7E397D787D0446B87D05466C
:101AF00007F11C0004950394029101920093334670
:101B00000F4A64210AF066F807F11C031946F868C9
:101B100000F006FE0B49F86800F002FEB437BD463F
:101B2000F0BD00BF78D00008B8D00008ECD00008A5
:101B300020D1000854D1000884D10008B8D1000891
:101B400000D2000830D20008F0B5AFB006AFF860A0
:101B5000B9607A600121B86800F0A4FEC7F89C0063
:101B6000D7F89C30002B0DD107F13403754A64215E
:101B700018460AF02FF807F134031946F86800F008
:101B8000CFFDDBE07049D7F89C00FEF741FB034630
:101B9000002B26D107F12C03184602F057FD97F8C9
:101BA0002F301E4697F8303097F8312097F82C10D8
:101BB00097F82D00044697F82E00054607F13400EB
:101BC0000495039402910192009333465F4A642185
:101BD0000AF000F807F134031946F86800F0A0FD98
:101BE000A8E05B49D7F89C00FEF712FB0346002BE8
:101BF0002ED10023BB62002387F82730002387F80B
:101C00002630002387F8253007F1250307F1260247
:101C100007F1270107F1280002F052FD97F827305D
:101C20001C4697F8263097F82520B96AC9B207F103
:101C300034000291019200932346464A642109F040
:101C4000C9FF07F134031946F86800F069FD71E037
:101C50004149D7F89C00FEF7DBFA0346002B5CD124
:101C600007F11C03184602F0F1FCFB7F1E4697F8B3
:101C7000203097F82120397F787F0446B87F0546C9
:101C800007F13400049503940291019200933346C6
:101C90002E4A642109F09EFF07F134031946F868C3
:101CA00000F03EFD0023BB610023FB750023BB75E4
:101CB00000237B7507F1150307F1160207F11701E1
:101CC00007F1180002F0FCFCFB7D1C46BB7D7A7D11
:101CD000B969C9B207F13400029101920093234619
:101CE0001C4A642109F076FF07F134031946F868AD
:101CF00000F016FD02F0D6FCC7F8980007F134009A
:101D0000D7F89830154A642109F064FF07F13403CD
:101D10001946F86800F004FD0CE007F13403104A9E
:101D20006421184609F056FF07F134031946F86894
:101D300000F0F6FC0B49F86800F0F2FCA437BD4651
:101D4000F0BD00BF34D2000854D200085CD20008B5
:101D500098D20008A0D20008D4D20008D8D2000837
:101D6000E8D2000830D2000890B5ABB004AFF860FC
:101D7000B9607A600121B86800F094FDC7F894005A
:101D80000221B86800F08EFDC7F89000D7F89430B3
:101D9000002B03D0D7F89030002B04D13449F868D9
:101DA00000F0BEFC61E0D7F8940009F0D9FC0346CE
:101DB00087F88F3000220021D7F8900009F0C6FD87
:101DC000C7F888002B4A97F88F30D7F88810184644
:101DD00002F088F9034687F8873097F88730002BA0
:101DE0001ED107F11003184602F018FA0346002B23
:101DF00037D17A693B7C1946BB69B88B044607F139
:101E0000200002940193009113461B4A642109F0BB
:101E1000E1FE07F120031946F86800F081FC20E09C
:101E200097F88730022B0ED197F88F3007F12000FA
:101E3000124A642109F0CEFE07F120031946F86822
:101E400000F06EFC0DE097F8873007F120000C4A97
:101E5000642109F0BFFE07F120031946F86800F07D
:101E60005FFC0849F86800F05BFC9C37BD4690BDFC
:101E700014D30008741C002038D3000878D300085D
:101E800098D3000830D2000880B5A4B002AFF86043
:101E9000B9607A600121B86800F004FDF867FB6F53
:101EA000002B0DD107F114033B4A6421184609F0B9
:101EB00091FE07F114031946F86800F031FC67E061
:101EC00000220021F86F09F041FDB867BB6F002BBD
:101ED00003D0BB6FB3F5C83F0ED907F114004FF420
:101EE000C8332E4A642109F075FE07F11403194620
:101EF000F86800F015FC4BE0BA6F00212848FFF7A6
:101F000079F90346002B0DD007F11403254A64210B
:101F1000184609F05FFE07F114031946F86800F04F
:101F2000FFFB35E00023A7F886300023C7F8803098
:101F300012E0D7F880301A4A13441A78B7F886307E
:101F400011461846FFF700FC0346A7F88630D7F87D
:101F500080300133C7F88030D7F88020BB6F9A42B9
:101F6000E7D3012005F0D2F9B7F8863007F1140065
:101F70000093BB6F0C4A642109F02CFE07F1140397
:101F80001946F86800F0CCFB0849F86800F0C8FB77
:101F90008837BD4680BD00BFC0D30008E8D3000825
:101FA000741C002010D400082CD4000830D2000883
:101FB00080B5A0B000AFF860B9607A600121B86860
:101FC00000F070FCF867FB6F002B0DD107F11403D4
:101FD000224A6421184609F0FDFD07F11403194651
:101FE000F86800F09DFB35E000220021F86F09F051
:101FF000ADFCB867BB6F002B03D0BB6FB3F5C83F18
:102000000ED907F114004FF4C833154A642109F0C2
:10201000E1FD07F114031946F86800F081FB19E0AF
:1020200007F11400BB6F0F4A642109F0D3FD07F1DB
:1020300014031946F86800F073FBBA6F0A49F86890
:10204000FFF7B8FB0949F86800F06AFB0849F8682F
:1020500000F066FB8037BD4680BD00BF64D4000839
:10206000E8D300088CD40008743C0320B0D40008E6
:1020700030D2000880B5A6B002AFF860B9607A60CF
:102080000121B86800F00EFCC7F88000D7F8803056
:10209000002B0DD107F11003594A6421184609F0AD
:1020A00099FD07F110031946F86800F039FBA4E028
:1020B00000220021D7F8800009F048FCF867514B56
:1020C0001B881A46504B1B681344013B4D4A12882B
:1020D000B3FBF2F3BB674C4B1B68002B03D0494B9F
:1020E0001B88002B0DD107F11003484A64211846C4
:1020F00009F070FD07F110031946F86800F010FBB5
:102100007BE0FA6FBB6F9A420FD307F11000BB6FF1
:102110000093FB6F3E4A642109F05CFD07F1100358
:102120001946F86800F0FCFA67E0364B1B881A463F
:10213000FB6F02FB03F37B67BB6F013BFA6F9A42B5
:1021400009D1314B1B682F4A1288B3FBF2F101FB16
:1021500002F29B1A01E02B4B1B88C7F88C30D7F892
:102160008C30002B03D1274B1B88C7F88C30002301
:10217000A7F88A300023C7F8843014E07A6FD7F8C4
:1021800084301344234A13441A78B7F88A3011462E
:102190001846FFF7D9FA0346A7F88A30D7F88430F3
:1021A0000133C7F88430D7F88420D7F88C309A42AE
:1021B000E4D3B7F88A3007F110000193D7F88C30D8
:1021C0000093FB6F144A642109F004FD07F110032A
:1021D0001946F86800F0A4FA7B6F0E4A1344D7F84A
:1021E0008C201946F868FFF7E5FA0C49F86800F00A
:1021F00097FA0B49F86800F093FA9037BD4680BD16
:10220000C0D400081C1A0020181A0020DCD40008D2
:10221000F8D40008741C002014D50008B0D40008BD
:1022200030D2000880B5A0B000AFF860B9607A6025
:102230000121B86800F036FBF867FB6F002B0DD169
:1022400007F11403224A6421184609F0C3FC07F180
:1022500014031946F86800F063FA35E00022002103
:10226000F86F09F073FBB867BB6F002B03D0BB6F2F
:10227000B3F5205F0ED907F114004FF42053154A2F
:10228000642109F0A7FC07F114031946F86800F06F
:1022900047FA19E007F11400BB6F0F4A642109F0F7
:1022A00099FC07F114031946F86800F039FABA6F7F
:1022B0000A49F868FFF77EFA0949F86800F030FA31
:1022C0000849F86800F02CFA8037BD4680BD00BF91
:1022D00048D50008E8D300086CD50008743C0320FA
:1022E000B0D4000830D2000880B400AF024B1846CA
:1022F000BD465DF8047B704740DC000880B400AF49
:1023000009231846BD465DF8047B704780B582B04E
:1023100000AF78600B46FB70F91C4FF6FF7301228B
:10232000034807F0FDF800BF0837BD4680BD00BF79
:10233000981A002080B582B000AF00F053F87860A2
:102340007B681D4ADA607B684FF400621A827B6802
:1023500010229A807B684022DA807B6880221A8172
:102360007B6820225A817B6801229A747B68134A19
:102370001A60FFF7B9FF02467B685A61FFF7BEFF9C
:1023800003461A467B681A83786800F086F803468D
:102390000B4A13600A4B1B68002B01D1012307E095
:1023A000074B1B68074A1A60074B01221A7000236B
:1023B00018460837BD4680BDAC0B00208CD5000800
:1023C000AC1300200D230008B013002080B400AF30
:1023D000034B1B681846BD465DF8047B704700BF81
:1023E000AC13002080B400AF114B40229A80104BF8
:1023F0004022DA800E4B80221A810D4B0022DA60D7
:102400000B4B00221A820A4B08225A81084B0122E8
:102410009A74074B074A1A60054B00221A83044B33
:1024200000225A61024B1846BD465DF8047B704796
:10243000B4130020B8D5000880B485B000AF786030
:102440007B685B69002B02D17B685B8900E000231D
:10245000FB817B689B8803339A087B68DB880333A6
:102460009B081A447B681B8903339B08D118FA899F
:1024700013465B001344DB0003339B08CA18FB8937
:1024800003339B08134412339BB29B009BB2184644
:102490001437BD465DF8047B704780B588B000AF47
:1024A00078600023FB617868FFF7C6FF0346BB61D5
:1024B0000023FB757B68DB68002B05D07B681B8ADB
:1024C0001A46BB69934201D9002371E07B68DB683F
:1024D0003B61BA690021386909F0D0FC3B69FB61B6
:1024E0003B6910333B61FB693A69DA603B69383319
:1024F0003B61FB69DB68FB60FB683A691A617B68DA
:102500009B88033323F003033A6913443B61FB6860
:102510003A69DA617B68DB88033323F003033A69A5
:1025200013443B617B685A69FB685A627B681A8B6B
:10253000FB689A857B681A8BFB68DA85FB683A69C9
:102540005A607B681A89FB681A81FB7D002B08D0D2
:10255000FB6893F8333043F00403DAB2FB6883F886
:1025600033207B689B7C002B08D0FB6893F83330CA
:1025700043F02003DAB2FB6883F833207B689A8843
:10258000FB681A83FB6800229A82FB680022DA82C9
:102590007B68DA88FB685A84FB68002283F8322063
:1025A0007B681A68FB681A60FB6800229A86FB69E0
:1025B00018462037BD4680BD80B584B000AF786036
:1025C0000B46FB707B68DB68FB60FB681033FA78B6
:1025D0001146184600F08AFF034683F00103DBB280
:1025E000002B08D0FB6893F8333043F00103DAB2D4
:1025F000FB6883F8332000BF1037BD4680BD80B52F
:1026000084B000AF78607B681B68002B00F083808B
:102610007B68DB68FB60FB6893F8333003F00203F0
:10262000002B55D1FB6893F8333043F00203DAB244
:10263000FB6883F83320FB681B681946786800F054
:102640007EFE45E0FB681033184600F027FF034686
:10265000FB72FB6893F8333003F00803002B05D0BE
:10266000FB7A1946786800F0F5F92AE0FB6893F8E0
:1026700032301B2B0CD1FB7A5B2B09D1FB6893F812
:10268000333043F00803DAB2FB6883F8332018E0F4
:10269000FB7A184600F0AAFE0346002B05D0FB7A11
:1026A0001946786800F086FA0BE0FB7A184600F0CD
:1026B000BDFE0346002B04D0FB7A1946786800F073
:1026C00027FA786800F012FDFB68FA7A83F8322066
:1026D000FB681033184600F0C0FE0346002BB1D152
:1026E000FB6893F8333003F00103002B14D0FB6830
:1026F00000221A84FB68DB69FA68128C13440022FA
:102700001A70FB6893F8333023F00103DAB2FB68E8
:1027100083F8332000E000BF1037BD4680BD0000C5
:1027200080B584B000AF786039607B681B68002B8F
:102730003ED07B68DB68FB60FB689B8E7B81FB681F
:1027400093F8333003F01003002B02D1786800F0C7
:10275000C1FDFB687A899A863968786800F0EFFDD8
:10276000154B1B681946786800F0E9FDFB6893F883
:10277000333003F01003002B1BD1FB681B68194694
:10278000786800F0DCFDFB68DB691946786800F0CA
:10279000D6FDFB681A8CFB681A86FB689B8E0022AC
:1027A0001946786800F0ECFD786800F09FFC00E0C6
:1027B00000BF1037BD4680BDB800002080B588B08E
:1027C00000AF78607B68002B66D0354BFB60002340
:1027D000FB770023BB770023BB6100237B6147E0CD
:1027E0007B6901337B61BB7F002B02D00023BB7769
:1027F00029E0FB7C5C2B02D10123BB7738E0FB7C1A
:10280000222B10D1FB7F002B14BF01230023DBB24E
:1028100083F00103DBB2FB77FB7F03F00103FB775F
:102820000023FB740FE0FB7F83F00103DBB2002B7E
:1028300009D0FB7C1946F86809F028FB0346002BF9
:1028400001D00023FB74FB7C002B09D1BB69002B5A
:102850000EDDBB69013B7A6813441B78002B07D05F
:10286000BB697A681344FA7C1A70BB690133BB6197
:102870007B697A6813441B78FB74FB7C002BAFD117
:10288000BB697A68134400221A70BB6901337A6805
:10289000134400221A7000E000BF2037BD4680BDFF
:1028A000BCD5000880B584B000AF78600B467B8053
:1028B0007B881946786800F020FF0346FB81FB897E
:1028C0004FF6FF72934203D0FB897A68134400E00D
:1028D000002318461037BD4680BD80B584B000AFD8
:1028E00078600B467B807B881946786800F005FF8E
:1028F0000346FB81FB894FF6FF72934203D0FB89AD
:102900007A68134400E0002318461037BD4680BDA6
:1029100080B485B000AF78607B68002B03D07B6803
:102920001B78002B01D1002319E00023FB60012359
:102930007B81FB687A6813441B78002B09D1FB6804
:1029400001337A6813441B78002B06D07B8901334E
:102950007B81FB680133FB60EBE700BF7B89184696
:102960001437BD465DF8047B7047000080B586B023
:1029700000AF78600B46FB707B68DB683B613B69AE
:102980009B89002B5FD0FB78002B05D03B695A89CF
:102990003B699B899A4256D0FB7883F00103DBB2F6
:1029A000002B03D03B695B89002B4CD0786800F08A
:1029B00091FC3B691B681946786800F0C0FCFB7805
:1029C000002B06D03B695B8901339AB23B695A817F
:1029D00005E03B695B89013B9AB23B695A813B69DF
:1029E0001A1D3B695B891946104600F00DFE78619F
:1029F0007B69002B01D1164B7B617869FDF712FCD6
:102A00000346FB813B69DB69FA897969184609F05D
:102A1000D0FA3B69DA69FB89134400221A703B69DA
:102A2000FA891A843B69DB691946786800F087FCEB
:102A30003B691A8C3B691A863B6900229A86786842
:102A400000F054FB00E000BF1837BD4680BD00BF5A
:102A5000C0D5000890B585B000AF78600B46FB701C
:102A60007B68DB68FB60FB783F2B48D9FB787E2BCB
:102A700045D8FB6893F8333023F00803DAB2FB68DB
:102A800083F83320FB78412B02D0FB78422B09D10D
:102A9000FB78412B0CBF01230023DBB21946786879
:102AA000FFF764FFFB78432B0FD1FB689B8E002B55
:102AB0000BD0FB689B8E013B9AB2FB689A86124B47
:102AC0001B681946786800F03AFCFB78442B16D155
:102AD000FB689B8E1C46FB68DB691846FDF7A2FB72
:102AE00003469C420BD2FB689B8E01339AB2FB6873
:102AF0009A86064B1B681946786800F020FC00BFD8
:102B00001437BD4690BD00BFBC000020C0000020AF
:102B100080B584B000AF78600B46FB707B68DB68E3
:102B2000FB60FB681B8C0233FA68528C93423BDAE1
:102B3000FB68DB691846FDF775FB0246FB689B8E58
:102B4000D31ABB60FB68DA69BB680133D018FB6835
:102B5000DA69BB68D118FB689B8E01331A4609F00D
:102B600073F9FB681B8C01339AB2FB681A84FB680B
:102B70001B8E01339AB2FB681A86FB68DA69BB6860
:102B80001344FA781A70FB689B8E002B05D0084B13
:102B90001B681946786800F0D2FB7B681B68FA78DE
:102BA00011467868984700E000BF1037BD4680BDE9
:102BB000CC00002080B584B000AF78600B46FB707D
:102BC0007B68DB68FB60FB6893F832300D2B02D129
:102BD000FB780A2B78D0FB6893F832300A2B02D1AD
:102BE000FB780D2B70D0FB780D2B02D0FB780A2BD5
:102BF00029D1786800F0DCFA354B1B6819467868F3
:102C000000F09DFBFB681B8C002B02D0786800F065
:102C100065F8FB6800221A84FB68DB69FA68128C8D
:102C2000134400221A70FB6800221A86FB680022F7
:102C30005A81FB6800229A86FB681B6819467868EF
:102C400000F07DFB41E0FB78082B02D0FB787F2B66
:102C500033D1FB681B8C1A46FB689B8ED31A002B62
:102C60002BDD1C4B1B681946786800F068FB1A4B7B
:102C70001B681946786800F062FBFB68DB69184640
:102C8000FDF7D0FA0246FB689B8ED31ABB60FB6847
:102C9000DA69BB68013BD018FB68DA69BB68D118F8
:102CA000FB689B8E01331A4609F0CEF8FB681B8C3B
:102CB000013B9AB2FB681A8407E0FB78092B04D128
:102CC000786800F075FA00E000BF1037BD4680BD9F
:102CD000B8000020C0000020D000002090B58FB0C8
:102CE00000AF78607B68DB68BB61012387F8373011
:102CF00000233B630DE0BB69DA693B6B13441B782F
:102D0000202B03D0002387F8373008E03B6B0133DA
:102D10003B63BB691B8C1A463B6B9342EBDB97F81A
:102D20003730002B40F0FA80BB691A1DBB69DB69A4
:102D30001946104600F004FC0023FB620023BB622E
:102D4000002387F8273000233B6230E0BB69DA6953
:102D50003B6A13441B78FB75FB7D202B0FD1BB6AAC
:102D6000002B05D1BB69DA693B6A134400221A7053
:102D7000FB6A002B18D0012387F8273014E0FB6A88
:102D8000002B05D1BB69DA693B6A1344FB620BE097
:102D9000BB6A002B08D197F82730002B04D0BB6901
:102DA000DA693B6A1344BB623B6A01333B62BB692D
:102DB0001B8C1A463B6A9342C8DBBB69DA69BB6964
:102DC0001B8C0133134400221A70FB6A002B00F0A5
:102DD000A7800023FB6172E0BB69596AFA69134658
:102DE0005B001344DB000B445B681946F86AFDF78F
:102DF0000FFA0346002B5FD1BB69596AFA69134683
:102E00005B001344DB000B445B69002B5ED0BB69A5
:102E1000596AFA6913465B001344DB000B441B7BC1
:102E2000002B02D0B86AFFF7C9FCBB6993F83330B6
:102E300043F01003DAB2BB6983F83320BB6A002B7E
:102E40001AD03949B86AFDF7E3F90346002B06D0DA
:102E50003649B86AFDF7DCF90346002B0CD1BB6993
:102E6000596AFA6913465B001344DB000B441946A8
:102E7000786800F05DF815E0BB69596AFA69134695
:102E80005B001344DB000B445C69BB69596AFA6957
:102E900013465B001344DB000B441B691A46B96AF6
:102EA0007868A047BB6993F8333023F01003DAB297
:102EB000BB6983F8332034E0FB690133FB61BB69F4
:102EC0009B8D1A46FB69934286DB00E000BF7B685E
:102ED0005B68002B1DD0FB6AFB60BB6A3B61BB6972
:102EE00093F8333043F01003DAB2BB6983F8332030
:102EF0007B685B6807F10C02114678689847BB69EC
:102F000093F8333023F01003DAB2BB6983F833202F
:102F100007E0F96A786800F05FFE02E000BF00E0B9
:102F200000BF3C37BD4690BDC4D50008C8D50008D9
:102F300080B582B000AF786039603B689B68002B39
:102F400010D07B681B680921786898473B689B68AC
:102F50001946786800F0F3F9044B1B681946786845
:102F600000F0EDF900BF0837BD4680BDB800002075
:102F700080B58EB000AFF860B9607A6000233B6125
:102F80000023BB820023FB827868FDF74BF978624F
:102F9000BB68DB683B623B6A9B8D002B02D07B6A7F
:102FA000002B08D1FB681A4607F1100393E80300D1
:102FB00082E8030095E000237B6383E03B6A596A63
:102FC0007A6B13465B001344DB000B445B68FB61C8
:102FD000F869FDF727F9B8613B6A9A6A7B6B13447D
:102FE0001A783B6A996A7B6B0B4422F00102D2B2D9
:102FF0001A70BA697B6A9A425ED3012387F833302C
:103000000023FB6210E07A68FB6A13441A78F969BE
:10301000FB6A0B441B789A4203D0002387F83330B5
:1030200006E0FB6A0133FB62FA6A7B6A9A42EAD3E2
:1030300097F8333083F00103DBB2002B3ED13B6ABB
:103040009A6A7B6B13441A783B6A996A7B6B0B44D0
:1030500042F00102D2B21A70FB8A002B04D0BB8A64
:103060001A46BB69934202D2BB699BB2BB82FB8A00
:1030700001339BB2FB82FB8A012B02D1FB693B61CE
:103080001DE03B6A1B8CBB6210E03A69BB6A1344CB
:103090001A78F969BB6A0B441B789A4203D0BB6A61
:1030A0009BB2BB820BE0BB6A0133BB62BB8A1A4690
:1030B000BB6A9342E9D302E000BF00E000BF7B6B34
:1030C00001337B633B6A9B8D1A467B6B9342FFF611
:1030D00075AFFB681A4607F1100393E8030082E816
:1030E0000300F8683837BD4680BD000080B588B061
:1030F00000AF78607B68DB687B617B6993F8333075
:1031000003F02003002B4AD07B69DA6907F10C0336
:1031100079681846FFF72CFF7B8A002B02D17B6968
:103120001B8C3B82204B1B681946786800F007F91E
:103130007B699B8E01221946786800F021F97B6932
:103140001B8CFB610BE07B681B68F968FA690A4419
:103150001278114678689847FB690133FB613B8A16
:103160001A46FB699342EED33B8ABB6107E07B685A
:103170001B68202178689847BB690133BB617B6974
:103180001B8E1A46BB699342F1D33A8A7B691A8631
:10319000064B1B681946786800F0D1F800E000BFC4
:1031A0002037BD4680BD00BFC4000020C8000020FD
:1031B00080B588B000AF78607B68DB68BB61BB69B5
:1031C000DA6907F10C0379681846FFF7D1FE7B8AAC
:1031D000002B78D07B8A012B04D03A8ABB691B8CE8
:1031E0009A4231D9BB69DB69F9683A8A184608F016
:1031F000E0FE7B8A012B09D1BB69DB693A8A134463
:1032000020221A703B8A01339BB23B82BB69DB6987
:103210003A8A134400221A70BB69DB69BA69128CBE
:103220001146BA69928E8A1A13441946786800F0DA
:1032300086F83A8ABB691A84BB691A8CBB691A86FC
:10324000BB6900229A863FE0786800F043F80023CB
:10325000FB6121E0BB699A6AFB6913441B7803F0A8
:103260000103002B14D0BB69596AFA6913465B004D
:103270001344DB000B445B687B617969786800F07C
:103280005EF8134B1B681946786800F058F800E0A8
:1032900000BFFB690133FB61BB699B8D1A46FB696B
:1032A0009342D7DBBB691B681946786800F047F882
:1032B000BB69DB691946786800F041F8BB691A8C74
:1032C000BB691A8600E000BF2037BD4680BD00BF45
:1032D000B800002090B587B000AF78607B68DB68ED
:1032E0003B613B691B8E1C463B691B681846FCF71B
:1032F00099FF03462344FB607B681B680D217868B7
:10330000984700237B6107E07B681B682021786871
:1033100098477B6901337B617A69FB689A42F3D3F2
:103320007B681B680D21786898473B6900221A86E4
:103330003B6900229A8600BF1C37BD4690BD80B510
:1033400084B000AF786039603868FCF76BFFB86014
:103350000023FB600BE07B681B683968FA680A444D
:103360001278114678689847FB680133FB60FA6869
:10337000BB689A42EFD300BF00BF1037BD4680BD87
:1033800080B586B000AF78600B467B8013467B70BB
:103390007B88002B20D007F10C0300221A605A60B2
:1033A0001A727B78002B04D00D4B1B6802331B78FC
:1033B00003E00C4B1B6802331B78FB757A88FB7D9E
:1033C00007F10C00084908F03BFC07F10C03194613
:1033D0007868FFF7B4FF00E000BF1837BD4680BD36
:1033E000BC000020C0000020D0D5000880B483B00D
:1033F00000AF0346FB71FB790D2B0BD0FB790A2B39
:1034000008D0FB79082B05D0FB79092B02D0FB797A
:103410007F2B01D1012300E0002303F00103DBB285
:1034200018460C37BD465DF8047B704780B483B006
:1034300000AF0346FB71FB791F2B04D9FB797E2B70
:1034400001D8012300E0002303F00103DBB218469A
:103450000C37BD465DF8047B704780B483B000AF85
:1034600078607B68DA887B689B889A4206D37B68A1
:10347000DA887B689B88D31A9BB209E07B681A893B
:103480007B689B88D31A9AB27B68DB8813449BB213
:1034900018460C37BD465DF8047B704780B485B094
:1034A00000AF78600023FB737B689A887B68DB88B9
:1034B0009A4214D07B681B687A68928813441B7800
:1034C000FB737B689B8801339BB27A681289B3FBDC
:1034D000F2F101FB02F29B1A9AB27B689A80FB7BA5
:1034E00018461437BD465DF8047B704780B485B03C
:1034F00000AF78600B46FB707B68DB8801339BB2C2
:103500007A681289B3FBF2F101FB02F29B1AFB818C
:103510007B689B88FA899A420BD07B681B687A6823
:10352000D2881344FA781A707B68FA89DA8001230A
:1035300000E0002318461437BD465DF8047B704751
:1035400080B588B000AF786039603868FCF76AFEF3
:10355000B8617B689B881A46BB6901339A4201D2E5
:1035600000234DE03968786800F06AF824E07B6851
:103570001B891946786800F047F878617869FCF78C
:1035800051FE38617B681B687A69D31A1A463B6919
:1035900013440133FB617B689B881A46FB69D31A8D
:1035A000FB60BB690133FA689A420AD27B681B89C7
:1035B000013B9AB27B681A817B681B89002BD6D1AC
:1035C00000E000BF7B681B89002B0AD07B681A686B
:1035D000BB690133D0187B681B68FA69194608F08B
:1035E00033FC7B681868BB6901331A46396808F0F8
:1035F000E0FC7B681B8901339AB27B681A81012346
:1036000018462037BD4680BD80B582B000AF7860D7
:103610000B467B807B88002B04D07B681B897A88D3
:103620009A4201D9002307E07B681B687A8811461B
:103630001846FFF737F9034618460837BD4680BDE0
:1036400080B586B000AF786039603B68002B4CD005
:103650007B681B89002B48D000237B6101237B8280
:1036600013E07B681B687A8A11461846FFF735F924
:10367000786139687869FCF7CBFD0346002B0AD0E6
:1036800000237B617B8A01337B827B681B897A8A7A
:103690009A42E6D900E000BF7B69002B27D07B6807
:1036A0001B89013B9AB27B681A817A8A7B681B89E5
:1036B00001339A421DD07869FCF7B4FDF8607B684D
:1036C0009B881946FB6801337A691A447B681B683A
:1036D000D31ACB1ABB60FB6801337A691344BA680A
:1036E0001946786908F0B0FB04E000BF02E000BFB3
:1036F00000E000BF1837BD4680BD80B485B000AF84
:1037000078600B467B807B68002B02D07B88002B87
:1037100002D14FF6FF7328E00023FB810123BB8118
:10372000BA897B889A4213D0FB897A6813441B7844
:10373000002B09D1BB890133BB81FB8901337A6836
:1037400013441B78002B05D0FB890133FB81E7E78D
:1037500000BF00E000BFFB897A6813441B78002B90
:1037600001D0FB8901E04FF6FF7318461437BD46C0
:103770005DF8047B704780B586B000AFF860B96033
:103780007A6000237B6110E07B699B00BA68134478
:103790001B681946F868FCF73BFD0346002B01D176
:1037A0007B6908E07B6901337B617A697B689A42B7
:1037B000EADB4FF0FF3318461837BD4680BD0000E6
:1037C00080B586B000AFF860B9607A60B868FCF781
:1037D00029FD03463B61B968F868FFF7B0FD002397
:1037E0007B6106E00849F868FFF7A9FD7B690133B2
:1037F0007B617A683B69D31A7A699A42F2DB00BF2F
:1038000000BF1837BD4680BDBCD500082DE9F04388
:1038100095B000AFF860B9607A60FB68DB687B63E5
:103820007B6B9B8D002B0AD18C49F868FFF787FDD5
:103830008B4B1B681946F868FFF781FDBAE1B86841
:10384000FFF766F803467B867B8E002B40F0F68000
:103850006B461E462023BB62BB6A013B7B62BB6A90
:103860000022984691464FF000024FF000034FEAC5
:10387000491343EAD8634FEA4812BB6A00221C4648
:1038800015464FF000024FF000036B0143EAD4638A
:103890006201BB6A9B000733DB08DB00ADEB030D65
:1038A0006B4603339B089B003B620023FB640023B1
:1038B000BB642DE07B6B596ABA6C13465B00134402
:1038C000DB000B441B68002B09D07B6B596ABA6C78
:1038D00013465B001344DB000B441B6800E0614BA4
:1038E000BB61FA6C396AB869FFF745FF78617B699B
:1038F000002B0ADAFA6CBB6A9A4206DAFB6C5A1C95
:10390000FA643A6AB96942F82310BB6C0133BB64AC
:103910007B6B9B8D1A46BB6C9342CBDB00237B6495
:1039200085E05149F868FFF70AFD3B6A7A6C53F865
:1039300022301946F868FFF702FD4C49F868FFF796
:10394000FEFC474B1B681946F868FFF7F8FC00239C
:103950003B645DE07B6B596A3A6C13465B00134431
:10396000DB000B441B68002B09D07B6B596A3A6C57
:1039700013465B001344DB000B441B6800E0394B2B
:10398000FB613B6A7A6C53F822301946F869FCF700
:103990003FFC0346002B38D13549F868FFF7CFFCD0
:1039A0007B6B596A3A6C13465B001344DB000B4493
:1039B0005B6810221946F868FFF702FF2D49F86886
:1039C000FFF7BDFC7B6B596A3A6C13465B001344EE
:1039D000DB000B449B68002B0DD07B6B596A3A6C63
:1039E00013465B001344DB000B449B681946F868E0
:1039F000FFF7A5FC03E02049F868FFF7A0FC184B8F
:103A00001B681946F868FFF79AFC3B6C01333B646E
:103A10007B6B9B8D1A463B6C93429BDB104B1B6868
:103A20001946F868FFF78BFC7B6C01337B647A6C7A
:103A3000FB6C9A42FFF675AFB546BBE07B8E012B5F
:103A400040F0AE800121B868FEF72CFFF862002339
:103A500087F83F300023BB638FE000BFD8D5000854
:103A6000B8000020F0D5000800D6000804D60008F1
:103A700008D6000810D6000814D600087B6B596AD7
:103A8000BA6B13465B001344DB000B445B68F96AB6
:103A90001846FCF7BDFB0346002B6BD1012387F8CA
:103AA0003F304649F868FFF74AFC7B6B596ABA6BAE
:103AB00013465B001344DB000B445B681946F8684F
:103AC000FFF73DFC3E4B1B681946F868FFF737FCD3
:103AD0003C49F868FFF733FC7B6B596ABA6B1346B5
:103AE0005B001344DB000B441B68002B09D07B6B8D
:103AF000596ABA6B13465B001344DB000B441B6826
:103B000000E0314B1946F868FFF719FC2C4B1B6895
:103B10001946F868FFF713FC7B6B596ABA6B1346BA
:103B20005B001344DB000B449B68002B17D0274934
:103B3000F868FFF704FC7B6B596ABA6B13465B00AD
:103B40001344DB000B449B681946F868FFF7F7FB4A
:103B50001B4B1B681946F868FFF7F1FB14E01C4982
:103B6000F868FFF7ECFB164B1B681946F868FFF77F
:103B7000E6FB09E0BB6B0133BB637B6B9B8D1A4695
:103B8000BB6B9342FFF67AAF97F83F3083F00103A7
:103B9000DBB2002B0ED0F96AF86800F01DF809E0DE
:103BA0000C49F868FFF7CBFB054B1B681946F86812
:103BB000FFF7C5FB5437BD46BDE8F08320D60008AB
:103BC000B80000202CD60008F0D5000838D6000830
:103BD00014D6000840D6000880B582B000AF7860E7
:103BE00039600B497868FFF7AAFB39687868FFF7F6
:103BF000A6FB08497868FFF7A2FB074B1B6819462C
:103C00007868FFF79CFB00BF0837BD4680BD00BF4A
:103C100070D6000884D60008B800002080B586B0B1
:103C200002AF786007F1090307F10A0207F10B01FF
:103C300007F10C0000F044FDFB7A1946BB7A1A46E6
:103C40007B7A1846044B00930346044807F04AFF6A
:103C500000BF1037BD4680BDE0D60008B8D60008CA
:103C600080B584B002AF00210F4801F093FDFDF74D
:103C700053F80E490C4801F0DAFD7B1CBA1CF91C04
:103C8000381D00F01DFDFB781946BB781A467B787D
:103C90001846074B00930346064807F023FF00BF72
:103CA0000837BD4680BD00BFD01300201D3C000872
:103CB000E0D60008ECD6000880B582B000AF12E074
:103CC0001048FDF76BFC78607B68002B0BDB7B6892
:103CD000DBB2FB70FB1C012219460B4801F0B6FD5C
:103CE0000120FDF723F80748FDF79CFC0346002B55
:103CF000E6D100220021044801F0A8FD00BF0837EA
:103D0000BD4680BD00140140D013002080B483B0B4
:103D100000AF78607B681B6843F040027B681A60E4
:103D200000BF0C37BD465DF8047B704780B483B09C
:103D300000AF78607B681B6823F040027B681A60E4
:103D400000BF0C37BD465DF8047B704780B483B07C
:103D500000AF78607B685B6843F002027B685A6062
:103D600000BF0C37BD465DF8047B704780B483B05C
:103D700000AF78607B685B6823F002027B685A6062
:103D800000BF0C37BD465DF8047B704780B483B03C
:103D900000AF78607B680C3318460C37BD465DF881
:103DA000047B704780B483B000AF786039600C4A00
:103DB0003B6813441B781A467B6813441B68084908
:103DC0003A680A44127811467A680A4443F00103BB
:103DD000136000BF0C37BD465DF8047B704700BF21
:103DE00018DD000880B483B000AF786039600C4AF9
:103DF0003B6813441B781A467B6813441B680849C8
:103E00003A680A44127811467A680A4423F001039A
:103E1000136000BF0C37BD465DF8047B704700BFE0
:103E200018DD000880B485B000AFF860B9607A6032
:103E30000D4ABB6813441B781A46FB6813441B6881
:103E400023F4C0420849BB680B441B781946FB6841
:103E50000B4419467B6813430B6000BF1437BD4603
:103E60005DF8047B704700BF18DD000880B485B0A2
:103E700000AFF860B9607A600D4ABB6813441B78E4
:103E80001A46FB6813445A680A4B13400849BA683B
:103E90000A4412781146FA680A4411467A681343B4
:103EA0004B6000BF1437BD465DF8047B704700BF10
:103EB00018DD00080000FFFF80B485B000AFF86097
:103EC000B9607A603B60BB69402B14D1174ABB686C
:103ED00013441B781A46FB6813441A467B68D36068
:103EE000124ABB6813441B781A46FB6813441A46EF
:103EF0003B68936013E00D4ABB6813441B781A4675
:103F0000FB6813441A467B689360084ABB681344F5
:103F10001B781A46FB6813441A463B68D36000BFFF
:103F20001437BD465DF8047B704700BF18DD0008FC
:103F300080B485B000AFF860B9607A60074ABB68AA
:103F400013441B781A46FB6813441A467B68936037
:103F500000BF1437BD465DF8047B704718DD0008CC
:103F600080B483B000AF78607B682022DA6000BF45
:103F70000C37BD465DF8047B704780B483B000AF5A
:103F800078607B680822DA6000BF0C37BD465DF8B8
:103F9000047B704780B483B000AF786039600C4A0E
:103FA0003B6813441B781A467B6813441B68084916
:103FB0003A680A44127811467A680A4443F00403C6
:103FC000136000BF0C37BD465DF8047B704700BF2F
:103FD00018DD000880B483B000AF786039600C4A07
:103FE0003B6813441B781A467B6813441B680849D6
:103FF0003A680A44127811467A680A4443F010037A
:10400000136000BF0C37BD465DF8047B704700BFEE
:1040100018DD000880B485B000AF03460A46FB8077
:1040200013467B7141F22103BB817B791BB21B02DA
:104030001AB2B7F9063053401BB2FB800023FB7362
:1040400013E0B7F90630002B09DAB7F906305B0048
:104050001AB2B7F90C3053401BB2FB8002E0FB8868
:104060005B00FB80FB7B0133FB73FB7B072BE8D9F9
:10407000FB8818461437BD465DF8047B7047000086
:1040800080B500AF144B1B7D002B01D0002321E035
:10409000002204211148FFF7C5FE1148FFF776FE04
:1040A00003461A4604210D48FFF742FF04210B483E
:1040B000FFF790FF04210948FFF76CFFFCF794FD20
:1040C000054B00229A74044B01221A75024B002200
:1040D0001A700023184680BDE015002000640240DD
:1040E0000050014080B588B000AF0346B9607A60E7
:1040F000FB73474B1B7D83F00103DBB2002B01D028
:10410000012380E0FCF7CEFD0346032B01D0012301
:1041100079E0FB7B032B01D9012374E0BB68002B02
:1041200008D0BB683B4A934204D8BB685B00B3F538
:10413000483F01D9012366E00220FCF767FD344BBC
:1041400000229A74FB7B002B59D10023FB837B68F0
:104150007B610023BB612BE0BB692F4AA2FB0312EA
:10416000991A49080A44520A40F2E93101FB02F265
:104170009A1A13467B82BB695B007A6913447A8A78
:104180001A807B8ADAB2FB8B11461846FFF742FF92
:104190000346FB837B8A1B0A9BB2DAB2FB8B114678
:1041A0001846FFF737FF0346FB83BB690133BB614A
:1041B000BA69BB689A42CFD3154AFB7B1371144A84
:1041C000BB689360BB685B00114AD360104AFB8BED
:1041D00013820F4B01229A740D4BDB6819467868E5
:1041E00000F040F80346002B04D00020FCF70EFD41
:1041F000012308E00120FCF709FD002303E0032070
:10420000FCF704FD022318462037BD4680BD00BFE1
:10421000E0150020A08601007BD2E10590B482B0B9
:1042200000AF78600E4B1B7D83F00103DBB2002BE7
:1042300006D10B4B9B7C83F00103DBB2002B01D03A
:10424000012307E07A68064B144604330FCB84E859
:104250000F00002318460837BD4690BC704700BFCA
:10426000E015002080B584B002AF786039601F4B44
:104270001B7D83F00103DBB2002B01D0012330E072
:104280000220FCF7C3FC04211948FFF7ABFD1948D5
:10429000FFF76CFD1748FFF749FD1548FFF760FE73
:1042A0001348FFF76AFE1348FFF770FD03464022EC
:1042B00000927A6804210E48FFF7FEFD3A68042157
:1042C0000B48FFF7D3FD0B48FFF720FD0948FFF728
:1042D0003DFD04210648FFF765FD044B00221A70DE
:1042E000002318460837BD4680BD00BFE0150020FA
:1042F000006402400050014080B500AF104B1B7DB0
:1043000083F00103DBB2002B01D0012316E004216E
:104310000C48FFF767FD0C48FFF728FD0948FFF739
:104320001FFE0848FFF729FE054B00221A70044BB8
:1043300000229A740320FCF769FC0023184680BD14
:10434000E0150020006402400050014080B483B0BA
:1043500000AF0346FB71044AFB79137000BF0C37B2
:10436000BD465DF8047B7047E015002080B483B043
:1043700000AF0346FB80FB8803F003039BB2002BD6
:104380001AD1FB88104AA2FB03125209642101FBD7
:1043900002F29B1A9BB2002B0CD1FB880A4AA2FBAB
:1043A0000312D2094FF4C87101FB02F29B1A9BB2AF
:1043B000002B01D1012300E00023DBB218460C37AB
:1043C000BD465DF8047B70471F85EB5180B582B018
:1043D00000AF03460A46FB711346BB80FB79022BF4
:1043E00007D1BB881846FFF7C1FF03461C33DBB279
:1043F00003E0FB79013B034AD35C18460837BD460E
:1044000080BD00BF20DD000880B586B000AF7860B9
:1044100000237B617B689B7803F5FA63FB814FF493
:10442000FA637B820DE07B8A1846FFF79FFF034605
:1044300003F26D131A467B6913447B617B8A013357
:104440007B827A8AFB899A42EDD301237B740DE04B
:10445000FA897B7C11461846FFF7B8FF03461A46D7
:104460007B6913447B617B7C01337B747B685B7865
:104470007A7C9A42ECD37B681B781A467B6913449A
:10448000013B7B617B690D4A03FB02F27B68DB78B1
:1044900019464FF4616301FB03F31A447B681B79EF
:1044A00019460B461B015B1A9B0013447A6852792C
:1044B000134418461837BD4680BD00BF8051010027
:1044C00098B500AF494B1B8801339AB2474B1A800D
:1044D000464B1B88B3F57A7FC0F08680434B0022A1
:1044E0001A80434B5B790133DAB2414B5A71404B2E
:1044F0005B793B2B4CD93E4B00225A713C4B1B79CC
:104500000133DAB23A4B1A71394B1B793B2B3FD945
:10451000374B00221A71364BDB780133DAB2344B59
:10452000DA70334BDB78172B32D9314B0022DA703B
:104530002F4B1B780133DAB22D4B1A702C4B1C78A1
:104540002B4B5B782A4A927811461846FFF73EFFBC
:1045500003469C421CD9264B01221A70244B5B78DF
:104560000133DAB2224B5A70214B5B780C2B0FD9F6
:104570001F4B01225A701E4B9B780133DAB21C4B41
:104580009A701B4B9B78632B02D9194B00229A70AF
:10459000184B9B790133DAB2164B9A71154B9B7904
:1045A0003B2B21D9134B00229A71124B5B790133BB
:1045B000DAB2104B5A710F4B5B793B2B14D90D4B70
:1045C00000225A710B4B1B790133DAB2094B1A7175
:1045D000084B1B79172B07D9064B00221A71054B84
:1045E0001B680133034A136000BF98BD001600200A
:1045F000D4000020F815002080B400AF114B002239
:104600009A70104B01225A700E4B01221A700D4BFA
:104610000022DA700B4B00221A710A4B00225A71E9
:10462000094B00221A60084B00221A71064B002227
:104630005A71054B00229A7100BFBD465DF8047B9C
:10464000704700BFD4000020F815002080B483B06C
:1046500000AF78607B68002B06D07B68054A106845
:10466000186092889A8000E000BF0C37BD465DF864
:10467000047B7047D400002080B483B000AF786022
:104680007B68002B06D0064B7A6810681860928809
:104690009A8000E000BF0C37BD465DF8047B704790
:1046A000D400002080B500AF0348FFF7ADFE0246FE
:1046B000024B1344184680BDD400002080436D385F
:1046C00080B485B000AFF860B9607A603B60FB6889
:1046D000002B03D00F4B1A68FB681A60BB68002BD5
:1046E00003D00C4B1A79BB681A707B68002B03D07F
:1046F000084B5A797B681A703B68002B03D0054B36
:104700009A793B681A7000BF1437BD465DF8047B88
:10471000704700BFF815002080B588B000AFF86082
:10472000B9607A603B60FB68BA681A60FB68043362
:104730001F227968184607F0B6FBFB68002283F851
:104740002320FB683A685A62FB683A8D1A85FB6839
:104750002A33FB610023FB82FA8AFB69BFF35B8F7C
:104760001A80FB682C33BB610023BB82BA8ABB6909
:10477000BFF35B8F1A8000BF2037BD4680BD80B479
:104780008BB000AF78600B46FB707B682A333B62CE
:104790003B6A1B889BB2FB81FB890133FB847B68EE
:1047A0001B8DFA8C9A4201D10023FB847B682C3349
:1047B000FB61FB691B88BFF35B8F9BB2BB81BB892D
:1047C0007B83FA8C7B8B9A4218D07B685B6A7A6811
:1047D0002A327A617A69128892B27A817A8913448C
:1047E000FA781A707B682A333B61FB8C3B813A89EB
:1047F0003B69BFF35B8F1A80012300E0002318465A
:104800002C37BD465DF8047B704780B48BB000AF99
:10481000786039607B682C333B623B6A1B889BB2B3
:104820007B827B8AFB847B682A33FB61FB691B8864
:10483000BFF35B8F9BB23B823B8A7B837A8BFB8C83
:104840009A421CD07B685A6AFB8C13441A783B68E6
:104850001A70FB8C0133FB847B681B8DFA8C9A42A7
:1048600001D10023FB847B682C337B61FB8CFB81B3
:10487000FA897B69BFF35B8F1A80012300E0002374
:1048800018462C37BD465DF8047B704780B489B06C
:1048900000AF78607B682A33FB61FB691B88BFF33C
:1048A0005B8F9BB23B823B8A7B837B682C337B6133
:1048B0007B691B889BB2FB81FB897B827A8B7B8A1D
:1048C0009A4204D17B681B8D013B9BB214E07A8B2A
:1048D0007B8A9A4206D27A8A7B8BD31A9BB2013B9F
:1048E0009BB209E07B681A8D7B8A13449AB27B8B5A
:1048F000D31A9BB2013B9BB218462437BD465DF8E4
:10490000047B704780B489B000AF78607B682A333D
:10491000FB61FB691B88BFF35B8F9BB23B823B8AC9
:104920007B837B682C337B617B691B889BB2FB811B
:10493000FB897B827A8B7B8A9A4214BF01230023F6
:10494000DBB218462437BD465DF8047B704780B45F
:1049500083B000AF78607B684FF0FF321A6000BF11
:104960000C37BD465DF8047B7047000080B485B00D
:1049700000AF78600B46FB707B681A68FB785A4082
:104980007B681A600023FB6011E07B681B6803F002
:1049900001035B42BB607B681B685A08B968094B1E
:1049A0000B405A407B681A60FB680133FB60FB6870
:1049B000072BEAD900BF00BF1437BD465DF8047B62
:1049C000704700BF2083B8ED80B483B000AF78603B
:1049D0007B681B68DB4318460C37BD465DF8047BDB
:1049E000704780B582B000AF78600B46FB7013460D
:1049F000BB707B6893F80032FA781146184600F0D5
:104A000095FEBB78002B07D07B6803F5FA73FA7824
:104A100011461846FFF7AAFFFB78AA2B18D17B682E
:104A200093F8FF31013BDAB27B6883F8FF217B68A2
:104A300093F8FF31002B0FD17B6893F8003255219A
:104A4000184600F073FE7B68022283F8FF2103E022
:104A50007B68022283F8FF2100BF0837BD4680BD76
:104A600080B586B000AFF8607B600B46FB721346E2
:104A7000BB72FB68022283F8FF21FB6803F5FA731F
:104A80001846FFF764FFFB6893F80032184600F001
:104A900063FEFB6893F80032AA21184600F046FE38
:104AA000FB6893F80032AA21184600F03FFEFB682D
:104AB00093F80032AA21184600F038FEFB7A012252
:104AC0001946F868FFF78DFF97F90B30002B05DAD0
:104AD000BB7A01221946F868FFF783FF97F8283060
:104AE00001221946F868FFF77CFF0023BB7597F891
:104AF0002830FB7515E03B8C7A6813441B78012243
:104B00001946F868FFF76DFF3B8C01333B843A8C04
:104B1000BB8C13403B84FB7D013BFB75BB7D0133AC
:104B2000BB75FB7D002BE6D1FB6803F5FA731846D5
:104B3000FFF74AFF38613B691B0EDBB200221946C2
:104B4000F868FFF74EFF3B691B0CDBB200221946E9
:104B5000F868FFF746FF3B691B0ADBB200221946E3
:104B6000F868FFF73EFF3B69DBB200221946F868A0
:104B7000FFF737FFFB6893F800325521184600F025
:104B8000D5FDFB6893F80032184600F0F0FD00BF39
:104B90001837BD4680BD000080B584B000AF786096
:104BA0007B6893F8E4301A4613465B0013449B007D
:104BB0007A681344FB60FB68DB791946FB681B7A53
:104BC0001A46154800F08CFD7B6893F8E230013BF3
:104BD000DAB27B6883F8E2207B6893F8E430013333
:104BE000DAB27B6883F8E4207B6893F8E43003F062
:104BF0000F03DAB27B6883F8E4207B68B3F8DC301B
:104C0000FA6892799B1A9AB27B68A3F8DC2000BFFD
:104C10001037BD4680BD00BF18D7000880B584B0EE
:104C200000AF78600B467B800023FB607B6893F8C5
:104C3000E2300F2B72D87B68B3F8DC301A467B88E1
:104C4000C3F580639A4260D87B6893F8E230013301
:104C5000DAB27B6883F8E2207B6893F8E2207B6815
:104C600093F8E3309A4205D97B6893F8E2207B6899
:104C700083F8E3207B6893F8E5301A4613465B001F
:104C800013449B007A681344FB607B68B3F8E02010
:104C9000FB689A807B68B3F8DC207B8813449AB267
:104CA0007B68A3F8DC207B68B3F8DC207B68B3F872
:104CB000DE309A4205D97B68B3F8DC207B68A3F824
:104CC000DE207B68B3F8E0207B8813449AB27B68CF
:104CD000A3F8E0207B68B3F8E030C3F309039AB28D
:104CE0007B68A3F8E0207B6893F8E5300133DAB203
:104CF0007B6883F8E5207B6893F8E53003F00F03C9
:104D0000DAB27B6883F8E5200BE079887B68B3F83A
:104D1000DC301A46054800F0E3FC02E0044800F0ED
:104D2000DFFCFB6818461037BD4680BD34D700084D
:104D300074D7000880B485B000AF78600B46FB7074
:104D40007B6893F8E430FB73FA7BFB781344DBB2A7
:104D500003F00F0213465B0013449B007A68134470
:104D600018461437BD465DF8047B704780B586B0A1
:104D700004AF786039603B68DB7919463B681B7A81
:104D80001A463B689B79104800F0AAFC3B68DB7927
:104D900063F07F03D9B23B68187A3B689B883A6816
:104DA0009279029240F2FF3201920093074B024641
:104DB0007868FFF755FE064B1A683B681A6000BF1B
:104DC0000837BD4680BD00BF8CD700080416002000
:104DD000041A002080B586B004AF78607B6893F831
:104DE000E8301946114800F07BFC7B6893F80032EC
:104DF000184600F08BFC03460A2B13D97B6893F806
:104E0000E8207B68E83301210291FF210191002114
:104E10000091FF217868FFF723FE054B1A687B6835
:104E2000C3F8C02000BF0837BD4680BDC4D7000806
:104E3000041A002080B586B004AF78600D4800F0F9
:104E40004FFC7B6893F80032184600F05FFC034685
:104E50000A2B0BD900230293002301930023009314
:104E600000230022FE217868FFF7FAFD00BF083713
:104E7000BD4680BDD8D7000880B582B000AF78604D
:104E80007B68002283F8E2207B68002283F8E4201C
:104E90007B68002283F8E5207B680022A3F8DC20F1
:104EA0007B680022A3F8E0207B68002283F8E720DB
:104EB0007B68002283F8E6207B68002283F8E820E4
:104EC000094B1A687B68C3F8C420074B1A687B68D3
:104ED000C3F8C0207B680022C3F8C820FBF71CFF82
:104EE00000BF0837BD4680BD041A002080B582B0DF
:104EF00000AF78600B46FB70FB78002B01D00A4BAB
:104F000000E00A4B19460A4800F0EAFBFB78002B48
:104F100002D07868FFF78EFF7868FFF7ADFF00BF1B
:104F20000837BD4680BD00BFE4D70008F4D70008AD
:104F300008D8000880B588B000AFF8607A601A46DB
:104F40000B46FB721346BB72BB7A9BB21946F868DC
:104F5000FFF764FE78617B69002B2BD0FB7A03F0AE
:104F60003F03DAB27B69DA717B69BA7A9A717B693D
:104F70009B887B830023FB6110E07A68FB691A44FD
:104F80007B8B1178114AD1547B8B01337B837B8BD4
:104F9000C3F309037B83FB690133FB61BB7AFA69C5
:104FA0009A42EAD3FB7ABA7A1946094800F098FB8C
:104FB000012307E0FB68D3F8CC305A1CFB68C3F828
:104FC000CC20002318462037BD4680BD04160020A3
:104FD00024D8000880B483B000AF78600B46FB7023
:104FE0007B6893F8E2300F2B0AD87B68B3F8DC308B
:104FF0001A46FB78C3F580639A4201D8012300E08A
:10500000002303F00103DBB218460C37BD465DF800
:10501000047B704780B489B000AF78607B6893F8F8
:10502000E7207B6893F8E630D31AFB747B6893F82B
:10503000E4301A4613465B0013449B007A6813441D
:10504000BB611E4B1A68BB691B68D31A7B617B6806
:1050500093F8E430FB770023BB7723E0174B196804
:10506000FA7F786813465B0013449B0003441B6877
:10507000CB1AFB60FA687B699A4209D9FB687B61AD
:10508000FA7F13465B0013449B007A681344BB61AC
:10509000FB7F0133FB77FB7F03F00F03FB77BB7FC5
:1050A0000133BB77BA7FFB7C9A42D7D3BB691846E2
:1050B0002437BD465DF8047B704700BF041A00200A
:1050C00080B588B000AF78607B6893F8FB317B7760
:1050D0007B68EC33BB617B6893F8FE31FB757B68C2
:1050E00093F8FC31BB75654B1A687B68C3F8C42024
:1050F0007B7FFE2B5ED0FF2B6AD17B6893F8E63076
:10510000BA7DD31A7B75BB691A78BB7DD31A3B7500
:105110007B6893F8E7207B6893F8E630D31AFB743A
:105120007A7DFB7C9A4238D87B68BA7D83F8E6208A
:10513000B97D7A7D3B7D524800F0D2FA0023FB779F
:1051400005E07868FFF728FDFB7F0133FB77FA7FE6
:105150007B7D9A42F5D37B6893F8E430BB770023DC
:10516000FB7715E0BA7F13465B0013449B007A6817
:105170001344FB60F9687868FFF7F8FDBB7F0133E3
:10518000BB77BB7F03F00F03BB77FB7F0133FB775C
:10519000FA7F3B7D9A42E5D36CE0BB7D19463948E6
:1051A00000F09EFA7B68D3F8D0305A1C7B68C3F8B5
:1051B000D0205FE0344800F093FA7B68D3F8D83011
:1051C0005A1C7B68C3F8D8207868FFF755FE51E079
:1051D00097F91D30002B39DA284B1A687B68C3F821
:1051E000C8207B6893F8E830BA7D9A421ED17B686C
:1051F00093F8E8300133DAB27B6883F8E820786806
:10520000FFF7E8FDB97D7B7F03F03F02FB7D1F4880
:1052100000F066FA7B7F03F03F03D8B27B6893F817
:105220000032FA7DB96900F081FB22E07B68D3F897
:10523000D4305A1C7B68C3F8D420B97D7B6893F8BE
:10524000E8301A46124800F04BFA12E07B7F03F078
:105250003F03FA7D19460F4800F042FA7B7F03F0C6
:105260003F03D8B27B6893F80032FA7DB96900F049
:105270005DFB00BF00BF2037BD4680BD041A002083
:105280003CD8000870D8000890D80008A0D80008C2
:10529000DCD8000814D9000880B584B000AF78606D
:1052A0000B46FB707B6893F8F831022B14D17B68B6
:1052B000002283F8F821FB78AA2B04D17B68012215
:1052C00083F8F92126E1FB78552B00F01E817B68DD
:1052D000002283F8F9211DE1FB78AA2B08D17B6815
:1052E00093F8F8310133DAB27B6883F8F82103E0F0
:1052F0007B68002283F8F8217B6893F8F931092B49
:1053000000F2F68001A252F823F000BF0F5500080A
:105310003553000885530008A7530008E5530008DB
:1053200035540008495400086554000881540008A9
:10533000CF5400087B68FA7883F8FB217B68002251
:1053400083F8FA217B6803F5F8731846FFF7FFFA34
:105350007B6803F5F873FA7811461846FFF706FBE9
:1053600097F90330002B04DA7B68022283F8F921D5
:10537000D0E07B68002283F8FC217B68032283F85D
:10538000F921C7E07B68FA7883F8FC217B6803F594
:10539000F873FA7811461846FFF7E8FA7B6803229B
:1053A00083F8F921B6E07B68FA7883F8FD217B6801
:1053B000FA7883F8FE217B6803F5F873FA781146D2
:1053C0001846FFF7D3FA7B6893F8FD31002B04D021
:1053D0007B68042283F8F9219CE07B68052283F82E
:1053E000F92197E07B6893F8FA315A1CD1B27A68B8
:1053F00082F8FA111A467B681344FA7883F8EC2095
:105400007B6803F5F873FA7811461846FFF7AEFA91
:105410007B6893F8FD31013BDAB27B6883F8FD21AC
:105420007B6893F8FD31002B73D17B68052283F8EC
:10543000F9216EE0FB781A067B68C3F8EC217B68E3
:10544000062283F8F92165E07B68D3F8EC21FB782C
:105450001B041A437B68C3F8EC217B68072283F89E
:10546000F92157E07B68D3F8EC21FB781B021A4343
:105470007B68C3F8EC217B68082283F8F92149E0B6
:105480007B68D3F8EC21FB781A437B68C3F8EC21E6
:105490007B6803F5F8731846FFF796FAF8607B68A7
:1054A000D3F8EC31FA689A420CD07B68D3F8EC312F
:1054B000FA681946194800F013F97B68002283F84E
:1054C000F92127E07B68092283F8F92122E0FB78A3
:1054D000552B03D17868FFF7F3FD04E0FB781946FC
:1054E0000F4800F0FDF87B68002283F8F92111E0F5
:1054F000F9787B6893F8F9311A460A4800F0F0F819
:105500007B68002283F8F92104E000BF02E000BFBD
:1055100000E000BF1037BD4680BD00BF40D9000885
:1055200074D9000890D9000890B589B000AFF86030
:10553000B9607A600023FB610AE0BA68FB69134432
:105540001B781946F868FFF7A7FEFB690133FB617A
:10555000FA697B689A42F0D300F014F90346444A92
:105560001360434B1A68FB68D3F8C430D31A40F277
:10557000E732934294BF01230023FB763C4B1A6829
:10558000FB68D3F8C830D31A40F2E732934294BF95
:1055900001230023BB76FB6893F8E720FB6893F8B0
:1055A000E630D31A7B767B7E032B2AD8FB6893F8F0
:1055B000E2307A7E9A4224D27B7E1946F868FFF761
:1055C000B9FB78617B699B7903F10B04FB6893F865
:1055D0000032184600F09AF803469C4234D8FB6823
:1055E00093F8E7207B691A727969F868FFF7BEFBC8
:1055F000FB6893F8E7300133DAB2FB6883F8E72001
:1056000022E07B7E002B20D0FB7E002B1DD0F86893
:10561000FFF700FD3861164B1A683B691B68D31A07
:10562000F92B12D93B699B7903F10B04FB6893F8C2
:105630000032184600F06AF803469C4205D83969E2
:10564000F868FFF793FB00E000BF094B1A68FB689E
:10565000D3F8C030D31AFA2B05D9BB7E002B02D069
:10566000F868FFF7B7FB00BF2437BD4690BD00BF09
:10567000041A002080B582B000AF78600B46FB7042
:105680007B68002283F8F8217B68002283F8F921E7
:105690007B68FA7883F800227B680022C3F8D02068
:1056A0007B680022C3F8D4207B680022C3F8CC209A
:1056B0007B680022C3F8D8207B680022A3F8DE2094
:1056C0007B68002283F8E3207868FFF7D5FB034866
:1056D00000F006F800BF0837BD4680BDBCD9000801
:1056E0000FB480B582B000AF07F114037B60796816
:1056F000386906F00BFB0D2006F006FA00BF0837EC
:10570000BD46BDE8804004B07047000080B582B05F
:1057100000AF0346FB710448FBF79BFF03461846A6
:105720000837BD4680BD00BF0014014080B582B07F
:1057300000AF03460A46FB711346BB71FB79002B91
:1057400004D1BB7919460348FBF749FF00BF08376E
:10575000BD4680BD0014014080B483B000AF034655
:10576000FB7100BF0C37BD465DF8047B704780B409
:1057700083B000AF0346FB7100BF0C37BD465DF838
:10578000047B704780B500AF01F0B4FD03461846B6
:1057900080BD000080B582B000AF78600B46FB7022
:1057A0007B68FA7811461846FFF764FF7B68012191
:1057B0001846FFF79BFBFFF7E5FF02467B68C3F83F
:1057C00004227B68002283F80C227B68012283F884
:1057D0000D22FB78032B04D8FB7804497A6841F842
:1057E000232000BF0837BD4680BD00BF081A002037
:1057F00080B582B000AF78607A687B6893F8003239
:1058000019461046FFF736FF7B6801211846FFF75F
:105810006DFBFFF7B7FF02467B68C3F804227B6885
:10582000002283F80C2200BF0837BD4680BD80B43B
:1058300083B000AF786039607B683A68C3F80822AB
:1058400000BF0C37BD465DF8047B704780B586B05D
:1058500000AFF860B9607A60FB687A68B96818468A
:10586000FFF762FEFFF78EFF7861FB6893F8E23086
:10587000002B35D0FB6893F8E4301A4613465B00E2
:1058800013449B00FA6813443B613B691B687A69C7
:10589000D31A40F6B83293421ED9FB6893F80C3203
:1058A00083F00103DBB2002B1AD0FB68D3F8083277
:1058B000002B04D0FB68D3F80832F8689847FB68DF
:1058C000012283F80C22FB6893F80D32002B07D0DD
:1058D000F868FFF78DFF03E0FB68002283F80C22D5
:1058E000FB687A69C3F8042200BF1837BD4680BD43
:1058F00080B584B000AFF8607A601A460B46FB7240
:105900001346BB72FB68BA7A11461846FFF762FB72
:105910000346002B05D0F868BB7AF97A7A68FFF75E
:1059200009FB00BF1037BD4680BD000080B586B0C2
:1059300000AF396011461A460346FB710B46BB7136
:1059400013467B717B79032B2DD87B79194A52F84A
:1059500023303B613B69002B27D00020FBF7E6F9A1
:1059600000F0F4FBF86000F0FBFBB86000237B6103
:1059700014E07B69DB00FA6813441B78FA799A42D9
:1059800009D17B69DB00FA6813445B68BA7939682E
:10599000386998470AE07B6901337B617A69BB68A3
:1059A0009A42E6DB02E000BF00E000BF1837BD46C8
:1059B00080BD00BF081A002080B485B000AF034648
:1059C0000A46FB8013467B7141F22103BB817B7940
:1059D0001BB21B021AB2B7F9063053401BB2FB8050
:1059E0000023FB7313E0B7F90630002B09DAB7F98F
:1059F00006305B001AB2B7F90C3053401BB2FB8083
:105A000002E0FB885B00FB80FB7B0133FB73FB7BCD
:105A1000072BE8D9FB8818461437BD465DF8047B90
:105A20007047000080B584B000AFF860B9601346DD
:105A3000FB71FB79032B03D8134806F0C3F81FE072
:105A4000BB6803331B781A06BB6802331B781B0440
:105A50001A43BB6801331B781B021343BA681278E0
:105A600013431A46094B1A60084B1B68194608482D
:105A700006F038F8002300223F21F868FFF738FFCE
:105A80001037BD4680BD00BFD0D90008201A0020C5
:105A9000ECD9000880B586B000AFF860B960134655
:105AA000FB71124B1B68DBB23B75104B1B681B0A6A
:105AB000DBB27B750D4B1B681B0CDBB2BB750B4B54
:105AC0001B681B0EDBB2FB75084B1B6819460848A8
:105AD00006F008F807F1140204231921F868FFF70B
