:020000040810E2
:1000000000800410892810082127100829271008CB
:100010003127100839271008412710080000000078
:100020000000000000000000000000004927100848
:1000300057271008000000006527100873271008D4
:10004000DD281008DD281008DD281008DD2810083C
:10005000DD281008DD281008DD281008DD2810082C
:10006000DD281008DD281008DD281008DD2810081C
:10007000DD281008DD281008DD281008DD2810080C
:10008000DD281008DD281008DD281008DD281008FC
:10009000DD281008DD281008DD281008DD281008EC
:1000A000DD281008DD281008DD281008DD281008DC
:1000B00081271008DD28100891271008DD28100876
:1000C000DD281008DD281008DD281008DD281008BC
:1000D000DD281008DD281008DD281008DD281008AC
:1000E000DD281008DD28100800000000DD281008B9
:1000F000DD281008DD281008DD281008DD2810088C
:10010000DD281008DD281008DD281008DD2810087B
:10011000DD281008DD281008DD281008DD2810086B
:10012000A5271008DD281008DD281008DD28100894
:10013000DD281008DD281008DD281008DD2810084B
:10014000DD281008DD281008000000000000000075
:10015000DD281008DD281008DD28100829281008DF
:10016000DD281008DD281008DD281008DD2810081B
:10017000DD281008DD281008DD2810080000000028
:10018000DD281008DD281008DD281008DD281008FB
:10019000DD281008DD281008DD281008DD281008EB
:1001A000DD281008DD281008DD281008DD281008DB
:1001B000DD281008DD281008DD281008DD281008CB
:1001C000DD281008DD281008DD281008DD281008BB
:1001D000DD28100861281008DD281008DD28100827
:1001E000DD281008DD281008DD281008DD2810089B
:1001F000DD281008DD281008DD281008DD2810088B
:10020000DD281008DD281008DD281008DD2810087A
:10021000DD281008DD281008DD281008DD2810086A
:10022000DD281008DD281008DD2810080000000077
:1002300075281008DD281008DD281008DD281008B2
:10024000DD281008DD281008DD281008DD2810083A
:10025000DD281008DD281008DD281008DD2810082A
:10026000DD281008DD281008DD281008DD2810081A
:10027000DD281008DD281008DD281008DD2810080A
:10028000DD281008DD281008DD2810080000000017
:08029000DD281008DD2810082C
:1002980010B5054C237833B9044B13B10448AFF3B8
:1002A80000800123237010BDFC2103100000000012
:1002B8009CEB100808B5034B1BB103490348AFF387
:1002C800008008BD00000000002203109CEB10080D
:1002D80080B500AF00F088FD00F076FF00BF80BD5C
:1002E80080B500AF00F008F800F034FB00F04EF9DC
:1002F80000F058F9FCE7000080B500AF174B00226A
:100308001A60174B00221A70164B00221A70164BEF
:1003180000221A70154B00221A704FF4C072002187
:1003280013480EF0E9FBA022002112480EF0E4FB6E
:100338000822002110480EF0DFFB042200210F489C
:100348000EF0DAFB042200210D480EF0D5FB042242
:1003580000210C480EF0D0FB00BF80BD54240310D0
:100368009C23031040240310482403101822031070
:100378001C220310A0230310582403104C2403103C
:10038800502403104424031080B584B000AF786073
:1003980039600123FB737B68002B30D03B68002B4E
:1003A8002DD0194B1B780F2B29D8174B1B781A46C1
:1003B80013465B001344DB00144A1344BB60BB685C
:1003C80008331022396818460EF0D6FBBB680022A5
:1003D8005A603B681B78022B14BF01230023DBB251
:1003E8001A46BB681A70084B1A787B681A70064B55
:1003F8001B780133DAB2044B1A700023FB73FB7BC2
:1004080018461037BD4680BD9C2303101C220310DC
:1004180080B487B000AF544B1B78002B00F09E804F
:10042800524B1B680133514A13600023FB7535E0BA
:10043800FA7D13465B001344DB004D4A1344BB604E
:10044800BB681B7A012B26D1BB681B78012B22D1F4
:10045800BB685B685A1CBB685A60BB685A68BB6853
:10046800DB689A4217D3BB6800225A60FB7D5B09A0
:10047800FB71FB7D03F01F03BB71FB793D4A52F80A
:100488002320BB79012101FA03F31946FB790A43BA
:10049800384941F82320FB7D0133FB75364B1B7827
:1004A800FA7D9A42C4D30023BB753BE0BA7D13465C
:1004B8009B0013449B00314A13443B613B691B7802
:1004C800012B2CD13B695B685A1C3B695A603B691C
:1004D8005A683B69DB689A4221D3BB7D5B09FB7391
:1004E800BB7D03F01F03BB73FB7B254A52F8232017
:1004F800BB7B012101FA03F31946FB7B0A43204920
:1005080041F823203B6900225A603B691B7A022B81
:100518000CBF01230023DBB21A463B691A70BB7D6E
:100528000133BB75174B1B78BA7D9A42BED30023A3
:10053800BB7510E0BB7D144A52F82330002B07D05E
:10054800BB7D114A52F82320013A0F4941F8232074
:10055800BB7D0133BB75BB7D012BEBD900BF1C37BD
:10056800BD465DF8047B704718220310542403101D
:100578001C2203104C2403109C230310A0230310F7
:1005880050240310402403105824031080B400AFF3
:10059800034B01221A7000BFBD465DF8047B70470B
:1005A8001822031080B588B000AF5B4B1B78002B76
:1005B80000F0AD800323FB775CE00023BB7750E0BD
:1005C800BB7F564A52F82330BB6000237B7742E05A
:1005D8007B7F012202FA03F31A46BB681340002B03
:1005E80036D0BB7F5B01DAB27B7F1344FB714C4B87
:1005F8001B78FA799A422BD2FA7913465B00134496
:10060800DB00484A13443B603B685B7A1A4697F91B
:100618001F309A421CD13B681B78012B18D1BB7F35
:100628003E4A52F823207B7F012101FA03F3DB4382
:100638001946BB7F0A40394941F823203B681B69AA
:1006480098473B681B7A022B02D13B6800221A703C
:100658007B7F01337B777B7F1F2BB9D9BB7F01332E
:10066800BB77BB7F002BABD097F91F30DBB2013BC8
:10067800DBB2FB7797F91F30002B9EDA00233B771C
:1006880042E03B7F284A52F823307B610023FB7607
:1006980034E0FB7E012202FA03F31A467B69134019
:1006A800002B28D03B7F5B01DAB2FB7E1344FB743E
:1006B8001E4B1B78FA7C9A421DD23B7F1A4A52F88D
:1006C8002320FB7E012101FA03F3DB4319463B7F1C
:1006D8000A40154941F82320FA7C13469B0013442D
:1006E8009B00134A1344FB60FB681B69002B02D074
:1006F800FB681B699847FB7E0133FB76FB7E1F2B4B
:10070800C7D93B7F01333B773B7F002BB9D000BF74
:100718002037BD4680BD00BF182203104C240310AB
:100728009C2303101C2203105024031040240310A0
:10073800A023031080B483B000AF786039607B6871
:100748003A689A6100BF0C37BD465DF8047B704774
:1007580080B483B000AF786039603B681A047B6866
:100768009A6100BF0C37BD465DF8047B70470000F6
:1007780080B483B000AF0346FB710B46BB801346C1
:10078800BB71BB88B3F5806F11D2FB79012B10D1F7
:10079800FB79002B04D10A49BB88BA79CA5409E00D
:1007A800074ABB881344BA7983F8002402E000BFE3
:1007B80000E000BF0C37BD465DF8047B704700BF02
:1007C80000F8003880B500AF0B4B1B78002B08D120
:1007D800094B01221A704FF480410848FFF7AAFF1D
:1007E80007E04FF480410548FFF7B2FF024B0022B3
:1007F8001A7000BF80BD00BF61240310000C0258AE
:1008080080B400AF00BFBD465DF8047B70470000B0
:1008180080B582B000AF00F09DFD0346002B10D0DC
:10082800002000F0A3FD04E0FB791946074800F01A
:10083800B3FBFB1D184600F065FD0346002BF3D102
:1008480000E000BF0837BD4680BD00BF001401406E
:1008580080B5ADF6080D00AF0DF0E8FC034683F057
:100868000103DBB2002B25D10023A7F8063804E0EA
:10087800B7F806380133A7F80638B7F80638B3F5DD
:10088800006F09D2B7F806383A1D1344184600F02D
:1008980029FD0346002BEBD1B7F80638002B0BD007
:1008A800B7F806283B1D114618460DF07BFC034699
:1008B800002B02E000BF00E000BF07F60807BD46B6
:1008C80080BD000080B582B000AF00F05FFD034638
:1008D800002B1AD0002000F065FD0DF09BFC0346AC
:1008E800FB71FB79002B05D04FF400410948FFF755
:1008F8002FFF04E04FF400410648FFF71BFFFB7988
:100908001A4600210120FFF733FF00BF0837BD4614
:1009180080BD00BF000C025880B582B000AF0C4803
:1009280000F03AFC0346002B0DD004E07B68DBB2F4
:10093800184600F064FD064800F00DFC78607B68FE
:10094800B3F1FF3FF2D100BF0837BD4680BD00BFFD
:100958000014014080B582B000AF0023FB7129E08C
:10096800FA7913469B0013449B00164A9818FA79A3
:1009780013469B0013449B00124A13440433194640
:10098800FFF702FDFA790F4913469B0013449B00B9
:100998000B4404331B78022B09D1FA790949134611
:1009A8009B0013449B000B441A78074B1A70FB7981
:1009B8000133FB71FB79052BD2D900BF00BF083783
:1009C800BD4680BD002003106024031080B483B0AE
:1009D80000AF78607B681B6843F001027B681A608F
:1009E80000BF0C37BD465DF8047B704780B483B008
:1009F80000AF78607B681B6823F001027B681A608F
:100A080000BF0C37BD465DF8047B704780B483B0E7
:100A180000AF78607B68DB6903F08003802B01D12D
:100A2800012300E0002318460C37BD465DF8047B1F
:100A3800704780B489B000AF78607B68FB60FB6862
:100A480053E8003FBB60BB6843F01003FB617B6861
:100A5800FA69BA617B617969BA6941E800233B6147
:100A68003B69002BE9D100BF00BF2437BD465DF8C4
:100A7800047B704780B489B000AF78607B68FB6006
:100A8800FB6853E8003FBB60BB6843F08003FB6131
:100A98007B68FA69BA617B617969BA6941E80023C0
:100AA8003B613B69002BE9D100BF00BF2437BD463D
:100AB8005DF8047B704780B489B000AF78607B68CC
:100AC800FB60FB6853E8003FBB60BB6823F0800312
:100AD800FB617B68FA69BA617B617969BA6941E847
:100AE80000233B613B69002BE9D100BF00BF2437DD
:100AF800BD465DF8047B704780B483B000AF786072
:100B08007B681B6803F08003802B01D1012300E080
:100B1800002318460C37BD465DF8047B704780B447
:100B280089B000AF78607B680833FB60FB6853E8E6
:100B3800003FBB60BB6843F04003FB617B68083340
:100B4800FA69BA617B617969BA6941E800233B6156
:100B58003B69002BE7D100BF00BF2437BD465DF8D5
:100B6800047B704780B485B000AF786039603B681B
:100B7800002B03D17B682833FB6002E07B682433B9
:100B8800FB60FB6818461437BD465DF8047B704768
:100B980080B483B000AF78600B46FB70FA787B684E
:100BA8009A6200BF0C37BD465DF8047B70470000B1
:100BB80080B485B000AF786039607B68FB600C4A10
:100BC8003B6813441B781A46FB6813441B680849A2
:100BD8003A680A4412781146FA680A4443F0010355
:100BE800136000BF1437BD465DF8047B704700BF33
:100BF80038EC100880B485B000AF786039607B6845
:100C0800FB600C4A3B6813441B781A46FB68134484
:100C18001B6808493A680A4412781146FA680A4477
:100C280023F00103136000BF1437BD465DF8047B51
:100C3800704700BF38EC100880B487B000AFF86088
:100C4800B9607A60FB687B610D4ABB6813441B7806
:100C58001A467B6913445B681B0C1B040849BA6875
:100C68000A44127811467A690A4411467A6813438D
:100C78004B6000BF1C37BD465DF8047B704700BF62
:100C880038EC100880B485B000AF786039607B68B4
:100C9800FB60074A3B6813441B781A46FB681344F9
:100CA8005B689BB218461437BD465DF8047B7047F5
:100CB80038EC100880B487B000AFF860B9607A608B
:100CC800FB687B61074ABB6813441B781A467B693B
:100CD80013441A467B68D36000BF1C37BD465DF8D5
:100CE800047B704738EC100880B487B000AFF86018
:100CF800B9607A60FB687B61074ABB6813441B785C
:100D08001A467B6913441A467B68936000BF1C37F8
:100D1800BD465DF8047B704738EC100880B485B098
:100D280000AF786039607B68FB600C4A3B6813440D
:100D38001B781A46FB6813441B6808493A680A443A
:100D480012781146FA680A4443F00803136000BF9A
:100D58001437BD465DF8047B704700BF38EC1008B7
:100D680080B485B000AF786039607B68FB600C4A5E
:100D78003B6813441B781A46FB6813441B680849F0
:100D88003A680A4412781146FA680A4443F00403A0
:100D9800136000BF1437BD465DF8047B704700BF81
:100DA80038EC100880B485B000AF786039607B6893
:100DB800FB600C4A3B6813441B781A46FB681344D3
:100DC8001B6808493A680A4412781146FA680A44C6
:100DD80043F01003136000BF1437BD465DF8047B71
:100DE800704700BF38EC1008B0B584B002AF0023DC
:100DF8007B6022E04B497A6813461B019B1ADB0093
:100E08000B441B681846FFF7F1FD46497A681346FC
:100E18001B019B1ADB000B446433186841497A684C
:100E280013461B019B1ADB000B4468331B681946E9
:100E3800FFF7E0FE7B6801337B607B68002BD9DD20
:100E48004FF400630093384B384A0121384800F0CA
:100E5800E4FA4FF400630093364B374A02213748CF
:100E680000F0DBFA2F4B5C6E2E4B9D6E012134484F
:100E7800FFF778FE03461A4629462046FFF734FF57
:100E8800284B5B6E274A916E264AD26E1846FFF7AA
:100E980011FF244B5B6E234A916E224AB2F87020F0
:100EA8001846FFF7C9FE1F4B5B6E1E4A926E11462D
:100EB8001846FFF777FF1B4B5B6E1A4A926E114676
:100EC8001846FFF72BFF174B5B6E164A926E1146BA
:100ED8001846FFF745FF134B5B6E124A926E114698
:100EE8001846FFF765FE1648FFF719FE1448FFF786
:100EF800A0FD00233B600DE00A493A6813461B0138
:100F08009B1ADB000B441B681846FFF75FFD3B6824
:100F180001333B603B68002BEEDD002318460837A1
:100F2800BD46B0BD78200310642C0310B4EB100844
:100F38007C20031064340310C0EB1008AC200310AD
:100F48000014014080B485B000AF78600023FB60D6
:100F580015E01049FA6813461B019B1ADB000B4485
:100F68001B687A689A4207D1FA6813461B019B1AD4
:100F7800DB00084A134406E0FB680133FB60FB68AA
:100F8800002BE6DD002318461437BD465DF8047BC8
:100F9800704700BF7820031080B584B000AF786038
:100FA8000B46FB707868FFF7CDFFB860BB68002B75
:100FB8001FD0134BFB6005E0FB68013BFB60FB683F
:100FC800002B18D0BB683433FA781146184600F065
:100FD80057FA034683F00103DBB2002BECD17868A3
:100FE800FFF78AFD0346002B06D17868FFF742FD1C
:100FF80002E000BF00E000BF1037BD4680BD00BF63
:1010080020A1070080B584B000AF78607868FFF74A
:1010180099FFF860FB68002B20D07868FFF7F6FC92
:101028000346002B1BD07868FFF766FD0346002BAC
:1010380015D0FB68343307F10B021146184600F04F
:1010480065FA0346002B05D0FB7A19467868FFF746
:101058009FFD04E07868FFF72EFD00E000BF103721
:10106800BD4680BD80B58AB000AF78607868FFF76C
:1010780069FFB861BB69002B69D0BB695B6F7B6195
:10108800BB695A6EBB699B6E19461046FFF7FAFD9D
:1010980003467B82BB69B3F870301A467B8AD31A41
:1010A800FB60FA687B699A4252D0FA687B699A4277
:1010B80014D97B697B620CE0BB69181DBB69DA6EC9
:1010C8007B6A13441B78194600F0DAF97B6A01330E
:1010D8007B627A6AFB689A42EED32AE07B693B62BC
:1010E8000CE0BB69181DBB69DA6E3B6A13441B78B8
:1010F800194600F0C5F93B6A01333B62BB69B3F896
:1011080070301A463B6A9342EBD30023FB610CE034
:10111800BB69181DBB69DA6EFB6913441B78194655
:1011280000F0AEF9FB690133FB61FA69FB689A428A
:10113800EED3BB69FA685A67BB695B6FBA69B2F8E4
:101148007020934204D1BB6900225A6700E000BFB7
:101158002837BD4680BD80B584B000AF7860786818
:10116800FFF7F0FEF860FB68002B02D14FF0FF3369
:101178000EE0FB68043307F10B021146184600F035
:10118800C5F90346002B01D0FB7A01E04FF0FF338D
:1011980018461037BD4680BD80B584B000AF786072
:1011A8007868FFF7CFFEF860FB68002B01D10023B9
:1011B80005E0FB680433184600F0E9F903461846D1
:1011C8001037BD4680BD000080B582B002AF4FF435
:1011D80000630093084B094A0321094800F01DF9F0
:1011E8004FF400630093074B074A0421074800F0B7
:1011F80014F900BFBD4680BD94440310CCEB100821
:10120800944C0310643C0310D4EB1008644403109E
:1012180080B582B000AF0346FB71FB7919460448DC
:1012280000F02EF9034618460837BD4680BD00BFBA
:10123800944C031080B582B000AF0346FB71FB7974
:101248001946044800F01CF9034618460837BD46FD
:1012580080BD00BF6444031080B584B000AF7860DF
:1012680039600023FB600023BB600FE07A68BB682D
:1012780013441B781846FFF7CBFF0346002B02D018
:10128800FB680133FB60BB680133BB60BA683B682D
:101298009A42EBD3FB6818461037BD4680BD80B52F
:1012A80084B000AF786039600023FB600023BB6026
:1012B8000FE07A68BB6813441B781846FFF7BAFF3B
:1012C8000346002B02D0FB680133FB60BB68013387
:1012D800BB60BA683B689A42EBD3FB681846103784
:1012E800BD4680BD80B582B000AF7860796804489B
:1012F80000F00CF9034618460837BD4680BD00BF0C
:10130800944C031080B582B000AF786079680448C7
:1013180000F0FCF8034618460837BD4680BD00BFFC
:101328006444031080B400AF034B01221A7000BF5D
:10133800BD465DF8047B7047C44C031080B400AF11
:10134800034B01221A7000BFBD465DF8047B70474D
:10135800C54C031080B400AF034B1B78DBB21846B2
:10136800BD465DF8047B7047C44C031080B483B05D
:1013780000AF0346FB71044AFB79137000BF0C37BA
:10138800BD465DF8047B7047C44C031080B400AFC1
:10139800034B1B78DBB21846BD465DF8047B7047EB
:1013A800C54C031080B483B000AF0346FB71044AF8
:1013B800FB79137000BF0C37BD465DF8047B70479E
:1013C800C54C031080B584B000AF786039603B68C5
:1013D800002B02D07B68002B01D101230BE0396878
:1013E8007868FFF739FFF860FA683B689A420CBFE3
:1013F80001230023DBB218461037BD4680BD80B5F7
:1014080082B000AF0346FB71FB791846FFF700FF77
:10141800034618460837BD4680BD80B588B000AF82
:10142800F860B9607A603B60FB68BA681A60FB686C
:1014380004331F22796818460DF066FBFB6800220A
:1014480083F82320FB683A685A62FB683A8D1A854C
:10145800FB682A33FB610023FB82FA8AFB69BFF32E
:101468005B8F1A80FB682C33BB610023BB82BA8A6E
:10147800BB69BFF35B8F1A8000BF2037BD4680BDB4
:1014880080B48BB000AF78600B46FB707B682A3362
:101498003B623B6A1B889BB2FB81FB890133FB845F
:1014A8007B681B8DFA8C9A4201D10023FB847B68F0
:1014B8002C33FB61FB691B88BFF35B8F9BB2BB813D
:1014C800BB897B83FA8C7B8B9A4218D07B685B6ADA
:1014D8007A682A327A617A69128892B27A817A892C
:1014E8001344FA781A707B682A333B61FB8C3B8182
:1014F8003A893B69BFF35B8F1A80012300E0002320
:1015080018462C37BD465DF8047B704780B48BB015
:1015180000AF786039607B682C333B623B6A1B887C
:101528009BB27B827B8AFB847B682A33FB61FB69E5
:101538001B88BFF35B8F9BB23B823B8A7B837A8B92
:10154800FB8C9A421CD07B685A6AFB8C13441A782D
:101558003B681A70FB8C0133FB847B681B8DFA8C0B
:101568009A4201D10023FB847B682C337B61FB8C7E
:10157800FB81FA897B69BFF35B8F1A80012300E046
:10158800002318462C37BD465DF8047B704780B4AD
:1015980089B000AF78607B682A33FB61FB691B88E0
:1015A800BFF35B8F9BB23B823B8A7B837B682C3388
:1015B8007B617B691B889BB2FB81FB897B827A8B71
:1015C8007B8A9A4214BF01230023DBB218462437D2
:1015D800BD465DF8047B704780B483B000AF786087
:1015E8007B686FF001021A6100BF0C37BD465DF8D9
:1015F800047B704780B483B000AF78607B681B6958
:1016080003F00103012B01D1012300E00023184658
:101618000C37BD465DF8047B7047000080B500AF0D
:101628004FF08040FFF7E6FF0346002B08D04FF04D
:101638008040FFF7D1FF034B1B680133014A136059
:1016480000BF80BDC84C031080B400AF094BD3F86D
:101658008830084A43F47003C2F88830054B1B6988
:10166800044A43F01003136100BFBD465DF8047BD4
:10167800704700BF00ED00E080B400AF0A4BDB68A4
:1016880023F00603084A43F00203D36000BF064B69
:101698005B6803F40053002BF9D000BF00BFBD46C0
:1016A8005DF8047B704700BF0048025880B400AF63
:1016B800044BDB681B0A03F007031846BD465DF8B8
:1016C800047B704700ED00E080B483B000AF0346B0
:1016D800FB80B7F90630002B0BDBFB8803F01F02F9
:1016E8000749B7F906305B09012000FA02F241F810
:1016F800232000BF0C37BD465DF8047B704700BF50
:1017080000E100E080B483B000AF03463960FB809D
:10171800B7F90630002B0ADB3B68DAB20C49B7F997
:1017280006301201D2B20B4483F800230AE03B686A
:10173800DAB20849FB8803F00F03043B1201D2B266
:101748000B441A7600BF0C37BD465DF8047B704722
:1017580000E100E000ED00E080B489B000AFF8607F
:10176800B9607A60FB6803F00703FB61FB69C3F1AA
:101778000703042B28BF0423BB61FB690433062B32
:1017880002D9FB69033B00E000237B614FF0FF3285
:10179800BB6902FA03F3DA43BB681A407B699A40D3
:1017A8004FF0FF317B6901FA03F3D9437B680B40A3
:1017B800134318462437BD465DF8047B704780B450
:1017C80083B000AF78607B681B6843F001027B68D8
:1017D8001A6000BF0C37BD465DF8047B704780B4C3
:1017E80083B000AF78607B681B6823F002027B68D7
:1017F8001A6000BF0C37BD465DF8047B704780B4A3
:1018080083B000AF78607B681B6843F080027B6818
:101818001A6000BF0C37BD465DF8047B704780B482
:1018280083B000AF786039607B689B6823F4A0338D
:1018380023F007033A681A437B689A6000BF0C37A5
:10184800BD465DF8047B704780B483B000AF786014
:1018580039607B685B6823F070023B681A437B68D9
:101868005A6000BF0C37BD465DF8047B704780B4F2
:1018780083B000AF78607B689B6823F080027B6848
:101888009A6000BF0C37BD465DF8047B704780B492
:1018980083B000AF78607B68DB6843F001027B6847
:1018A800DA6000BF0C37BD465DF8047B704780B432
:1018B80083B000AF78607B681B6843F001027B68E7
:1018C8001A6000BF0C37BD465DF8047B704780B4D2
:1018D80083B000AF78607B681B6823F000527B6898
:1018E8001A6000BF0C37BD465DF8047B704780B4B2
:1018F80089B000AF786039607B680833FB60FB68AB
:1019080053E8003FBB60BB6823F060423B685B075D
:101918001343FB617B680833FA69BA617B617969B3
:10192800BA6941E800233B613B69002BE4D100BF61
:1019380000BF2437BD465DF8047B704780B489B08A
:1019480000AF786039607B680833FB60FB6853E858
:10195800003FBB60BB6823F060623B685B061343D3
:10196800FB617B680833FA69BA617B617969BA6996
:1019780041E800233B613B69002BE4D100BF00BF75
:101988002437BD465DF8047B704780B483B000AF50
:1019980078607B685B6823F490427B685A607B6858
:1019A8009B6823F02A027B689A6000BF0C37BD460B
:1019B8005DF8047B704780B483B000AF78607B68C3
:1019C800DB6903F40013B3F5001F01D1012300E024
:1019D800002318460C37BD465DF8047B704780B479
:1019E80083B000AF78607B68DB6903F48003B3F5EC
:1019F800800F01D1012300E0002318460C37BD46B3
:101A08005DF8047B704780B483B000AF78603960BC
:101A18003B681A047B689A6100BF0C37BD465DF8C5
:101A2800047B704780B485B000AF78600A4BD3F868
:101A3800E02009497B681343C1F8E030064BD3F82E
:101A4800E0207B681340FB60FB6800BF1437BD468D
:101A58005DF8047B704700BF0044025880B485B02D
:101A680000AF78600A4BD3F8E82009497B68134334
:101A7800C1F8E830064BD3F8E8207B681340FB60D8
:101A8800FB6800BF1437BD465DF8047B704700BF94
:101A98000044025880B485B000AF78600A4BD3F890
:101AA800F02009497B681343C1F8F030064BD3F89E
:101AB800F0207B681340FB60FB6800BF1437BD460D
:101AC8005DF8047B704700BF0044025880B487B0BB
:101AD80000AFF860B9607A60FB687B610D4ABB684B
:101AE80013441B781A467B6913441B6823F0C00211
:101AF8000849BB680B441B7819467B690B44194697
:101B08007B6813430B6000BF1C37BD465DF8047B40
:101B1800704700BF50EC100880B487B000AFF86081
:101B2800B9607A60FB687B610D4ABB6813441B7817
:101B38001A467B6913441B6823F490720849BB68F2
:101B48000B441B7819467B690B4419467B68134381
:101B58000B6000BF1C37BD465DF8047B704700BFB3
:101B680050EC100880B487B000AFF860B9607A60B4
:101B7800FB687B610D4ABB6813441B781A467B6976
:101B880013441B6823F400720849BB680B441B7894
:101B980019467B690B4419467B6813430B6000BFE9
:101BA8001C37BD465DF8047B704700BF50EC100839
:101BB80080B487B000AFF860B9607A60FB687B6179
:101BC8000D4ABB6813441B781A467B6913441B688B
:101BD80023F480620849BB680B441B7819467B696B
:101BE8000B4419467B6813430B6000BF1C37BD4686
:101BF8005DF8047B704700BF50EC100880B487B0D4
:101C080000AFF860B9607A60FB687B610D4ABB6819
:101C180013441B781A467B6913441B6823F4C0528B
:101C28000849BB680B441B7819467B690B44194665
:101C38007B6813430B6000BF1C37BD465DF8047B0F
:101C4800704700BF50EC100880B487B000AFF86050
:101C5800B9607A60FB687B610D4ABB6813441B78E6
:101C68001A467B6913441B6823F4C0420849BB68C1
:101C78000B441B7819467B690B4419467B68134350
:101C88000B6000BF1C37BD465DF8047B704700BF82
:101C980050EC100880B487B000AFF860B9607A6083
:101CA800FB687B610D4ABB6813441B781A467B6945
:101CB80013441B6823F440320849BB680B441B7863
:101CC80019467B690B4419467B6813430B6000BFB8
:101CD8001C37BD465DF8047B704700BF50EC100808
:101CE80080B485B000AFF860B9607A60BB6803F172
:101CF800805303F502439B00FA6811498A4201D1D7
:101D0800002200E0202213441B6823F0FF02BB6876
:101D180003F1805303F502439B00F96808488142A8
:101D280001D1002100E020210B4419467B681343B0
:101D38000B6000BF1437BD465DF8047B704700BFD9
:101D48000000024080B485B000AF786039607B68DD
:101D5800FB600C4A3B6813441B781A46FB68134423
:101D68005B6908493A680A4412781146FA680A44D5
:101D780023F00403536100BF1437BD465DF8047BAC
:101D8800704700BF50EC100880B582B000AF244BFC
:101D9800D3F8E030224A43F00073C2F8E030204B19
:101DA800D3F8E03003F000737B607B68012001F01A
:101DB800D7F803F0B1FD01220221002003F032FD23
:101DC800184B1B6803F0F003702B08D1164BD3F89F
:101DD8000431154A43F00103C2F8043107E0124BFD
:101DE800D3F81431104A43F00103C2F8143100F05B
:101DF80073FD00F0AFF900F075F900F059F900F043
:101E0800C3F900F013F800F083F800F033F80CF091
:101E1800CDF8FEF75DFAFEF763FA00BFFDE700BFF5
:101E28000044025800ED00E00064025880B500AF9D
:101E38000E4B0F4A1A600D4B00225A600B4B0022C2
:101E48009A600A4B4FF48042DA60084B00221A610C
:101E5800064B04225A61054801F094F80346002B0A
:101E680001D000F0D9F900BF80BD00BFCC4C0310F1
:101E78000024024880B586B000AF3B1D00221A60DE
:101E88005A609A60DA601A610120FFF7E7FDFFF7F0
:101E98000DFC0346002200211846FFF75DFC0346AF
:101EA80019461C20FFF72EFC1C20FFF70DFC77239A
:101EB800BB800023BB6040F2E733FB6000233B613B
:101EC8003B1D19464FF0804008F048FB4FF080401A
:101ED800FFF795FC00214FF08040FFF7A0FC202180
:101EE8004FF08040FFF7B0FC4FF08040FFF7BFFC99
:101EF8004FF08040FFF7CBFC4FF08040FFF76FFCBE
:101F08004FF08040FFF75BFC00BF1837BD4680BD2F
:101F180080B5BEB000AF07F1D803202200211846D3
:101F28000CF0EAFD07F1C00300221A605A609A60BB
:101F3800DA601A615A613B46C022002118460CF04B
:101F4800DBFD4FF001024FF00003C7E90023002337
:101F5800FB673B46184603F001FF0346002B01D000
:101F680000F05AF92020FFF795FD4020FFF75AFDB1
:101F78004FF48443C7F8C0300223C7F8C4300023A5
:101F8800C7F8C8300023C7F8CC300023C7F8D030D2
:101F98000723C7F8D43007F1C0031946414806F0B3
:101FA8007DFF472200214048FFF79AFE00220021CA
:101FB8003D48FFF78BFD002200213B48FFF76AFEF2
:101FC8004FF4807200213848FFF7A6FD0022002157
:101FD8003548FFF7C7FD4FF4806200213248FFF70C
:101FE800E7FD002200213048FFF708FE002200210B
:101FF8002D48FFF729FE00212B48FFF7A3FEFFF726
:1020080055FB0346002200211846FFF7A5FB0346AF
:1020180019464720FFF776FB4720FFF755FB0023BB
:10202800C7F8D8304FF4E133C7F8DC300023C7F8DD
:10203800E0300023C7F8E4300023C7F8E8300C2369
:10204800C7F8EC300023C7F8F0300023C7F8F430A5
:1020580007F1D8031946154808F0B2FB00211348C8
:10206800FFF745FC00211148FFF768FC0F48FFF710
:102078002EFC0E48FFF789FC0C48FFF718FC00BF40
:102088000A48FFF798FC0346002BF9D00748FFF7EA
:10209800A6FC0346002BF3D000BF00BFF837BD46AF
:1020A80080BD00BF0018025800040240001401401F
:1020B80080B483B000AF0A4BD3F8E030084A43F449
:1020C8000013C2F8E030064BD3F8E03003F40013F5
:1020D8007B607B6800BF0C37BD465DF8047B7047AA
:1020E8000044025880B582B000AF194BD3F8D830FD
:1020F800174A43F00203C2F8D830154BD3F8D8304A
:1021080003F002037B607B68114BD3F8D830104A88
:1021180043F00103C2F8D8300D4BD3F8D83003F0A0
:1021280001033B603B68FFF7C1FA03460022002128
:102138001846FFF711FB034619463820FFF7E2FA65
:102148003820FFF7C1FA00BF0837BD4680BD00BF81
:102158000044025880B483B000AF0A4BD3F8D4309F
:10216800084A43F00103C2F8D430064BD3F8D43000
:1021780003F001037B607B6800BF0C37BD465DF848
:10218800047B70470044025880B586B000AF3B46D8
:1021980000221A605A609A60DA601A615A61042053
:1021A800FFF740FC0120FFF73DFC0220FFF73AFC57
:1021B8000820FFF737FC4020FFF734FC4FF440417C
:1021C8000B48FFF720FC4FF440433B6001237B6042
:1021D8000023BB600023FB6000233B613B4619469C
:1021E800034806F05BFE00BF1837BD4680BD00BF40
:1021F800000C025880B582B000AF78607B681B681D
:10220800044A934201D100F0C5FB00BF0837BD4620
:1022180080BD00BF0008004080B400AF72B600BFA8
:1022280000BFFDE780B483B000AF0A4BD3F8F430A9
:10223800084A43F00203C2F8F430064BD3F8F430EE
:1022480003F002037B607B6800BF0C37BD465DF876
:10225800047B70470044025880B5BEB000AF786078
:1022680007F1E40300221A605A609A60DA601A6182
:1022780007F12003C022002118460CF03DFC7B68C2
:102288001B68614A934240F0BB804FF480324FF0A4
:102298000003C7E9082300233B6707F1200318461A
:1022A80003F05CFD0346002B01D0FFF7B5FF574B49
:1022B800D3F8DC30554A43F40073C2F8DC30534B92
:1022C800D3F8DC3003F40073FB61FB694F4BD3F8A0
:1022D800E0304E4A43F00403C2F8E0304B4BD3F8E9
:1022E800E03003F00403BB61BB69484BD3F8E0302E
:1022F800464A43F00103C2F8E030444BD3F8E030DB
:1023080003F001037B617B69404BD3F8E0303F4A1F
:1023180043F00203C2F8E0303C4BD3F8E03003F05E
:1023280002033B613B69394BD3F8E030374A43F04D
:102338004003C2F8E030354BD3F8E03003F04003F7
:10234800FB60FB680223C7F8E4300223C7F8E830D3
:102358000023C7F8EC300323C7F8F0300923C7F887
:10236800F43007F1E4031946294800F049FC012339
:10237800C7F8E4300223C7F8E8300023C7F8EC3088
:102388000323C7F8F0300923C7F8F43007F1E40352
:102398001946204800F034FC4CF21003C7F8E4302A
:1023A8000223C7F8E8300023C7F8EC300323C7F846
:1023B800F0300923C7F8F43007F1E403194616484A
:1023C80000F01EFC4FF40063C7F8E4300223C7F89E
:1023D800E8300023C7F8EC300323C7F8F0300A23AD
:1023E800C7F8F43007F1E40319460C4800F008FC7C
:1023F800002200217C2000F0C9FB7C2000F0E0FBDB
:1024080000BFF837BD4680BD00240248004402588A
:102418000008025800000258000402580018025828
:1024280080B590B000AF78607B680F2B27D800226A
:1024380079681E2000F0AAFB1E2000F0C1FB294A83
:102448007B681360284BD3F8E830274A43F004032D
:10245800C2F8E830244BD3F8E83003F00403FB60FB
:10246800FB6807F1100207F114031146184603F040
:1024780033FCBB6ABB63BB6B002B06D101E00123B5
:102488002BE003F013FCF86304E003F00FFC0346B1
:102498005B00FB63FB6B154AA2FB03239B0C013B10
:1024A8007B63134B134A1A60114B40F2E732DA6030
:1024B8000F4A7B6B53600E4B00221A610C4B0022B3
:1024C8009A600B4806F048F90346002B04D10848E7
:1024D80006F0A4F9034600E0012318464037BD463C
:1024E80080BD00BFF82003100044025883DE1B4360
:1024F800444F03100008004080B483B000AF7860F8
:102508007B68DB6903F01003102B01D1012300E085
:10251800002318460C37BD465DF8047B704780B42D
:1025280083B000AF78607B6810221A6200BF0C3756
:10253800BD465DF8047B704780B483B000AF786017
:102548007B681B6803F01003102B01D1012300E006
:10255800002318460C37BD465DF8047B7047000021
:1025680080B485B000AF786039607B68FB600C4A46
:102578003B6813441B781A46FB6813441B680849D8
:102588003A680A4412781146FA680A4443F001038B
:10259800136000BF1437BD465DF8047B704700BF69
:1025A80058EC100880B483B000AF78607B681B6873
:1025B80003F01003102B01D1012300E0002318467B
:1025C8000C37BD465DF8047B704780B483B000AF1C
:1025D80078607B681B6803F02003202B01D101235E
:1025E80000E0002318460C37BD465DF8047B7047B1
:1025F80080B483B000AF78607B681B6803F0080381
:10260800082B01D1012300E0002318460C37BD46F2
:102618005DF8047B704780B483B000AF78607B6856
:1026280010229A6000BF0C37BD465DF8047B7047E6
:1026380080B483B000AF78607B6820229A6000BFC6
:102648000C37BD465DF8047B704780B483B000AF9B
:1026580078607B6808229A6000BF0C37BD465DF839
:10266800047B704780B485B000AF786039607B68C0
:10267800FB600A4A3B6813441B781A46FB681344FC
:102688001B6803F00803082B01D1012300E0002395
:1026980018461437BD465DF8047B704758EC10089F
:1026A80080B485B000AF786039607B68FB600A4A07
:1026B8003B6813441B781A46FB6813441B6803F0F5
:1026C8000403042B01D1012300E00023184614372A
:1026D800BD465DF8047B704758EC100880B485B09F
:1026E80000AF786039607B68FB600A4A3B68134436
:1026F8001B781A46FB6813441B6803F01003102B61
:1027080001D1012300E0002318461437BD465DF8C7
:10271800047B704758EC100880B400AF00BFFDE799
:1027280080B400AF00BFFDE780B400AF00BFFDE795
:1027380080B400AF00BFFDE780B400AF00BFFDE785
:1027480080B400AF00BFBD465DF8047B704780B41D
:1027580000AF00BFBD465DF8047B704780B400AF92
:1027680000BFBD465DF8047B704780B400AF00BF72
:10277800BD465DF8047B704780B500AFFEF74EFF9D
:10278800FDF746FE00BF80BD80B500AF024806F0E9
:10279800BDF800BF80BD00BF444F031080B500AF37
:1027A80000211D48FFF75EFF0346002B0BD01A4897
:1027B800FFF7F8FE0346002B05D01748FFF72BFF5D
:1027C8001648FEF74FFC00211348FFF787FF034622
:1027D800002B0BD01048FFF7F8FE0346002B05D05E
:1027E8000D48FFF725FF0D48FEF73CFC00210A487D
:1027F800FFF756FF0346002B0CD00748FFF7F8FEFB
:102808000346002B06D00448FFF71FFF00210248AB
:10281800FFF7A6FE00BF80BD00040240001401407F
:1028280080B500AF0B48FFF787FE0346002B0BD09F
:102838000848FFF761FE0346002B05D00548FFF75F
:102848006EFE0448FEF70EFC0248FEF7DBFB00BFF5
:1028580080BD00BF0014014080B500AF024801F000
:1028680082FE00BF80BD00BF7864031080B500AF52
:10287800024800F063FC00BF80BD00BFCC4C0310D1
:10288800DFF838D0FEF7F8FEFEF7DEFE0C480D49FB
:102898000D4A002302E0D458C4500433C4188C42B3
:1028A800F9D30A4A0A4C002301E013600432A24219
:1028B800FBD30CF03DF9FFF767FA7047008004106E
:1028C80000200310FC210310A8EC1008FC210310C1
:1028D8007C6B0310FEE7000080B582B000AF284B88
:1028E800D3F8D830264A43F48043C2F8D830244B72
:1028F800D3F8D83003F480433B603B68214B1B6816
:1029080023F47F2323F470631E4A43F401431360C6
:102918001C4B1B681B4A43F001031360032000F0A3
:102928002AF903F017F80246154B9B691B0A03F0B6
:102938000F031549CB5C03F01F0322FA03F37B60F6
:102948000F4B9B6903F00F030F4AD35C03F01F037F
:102958007A6822FA03F30D4A13600C4B1B680C4A81
:1029680013600F20FFF75CFD0346002B01D0012305
:1029780002E0FFF757FC002318460837BD4680BD24
:10298800004402580044024040EC1008F4200310B0
:10299800F020031080B400AF064B1B781A46064B94
:1029A8001B681344044A136000BFBD465DF8047BEE
:1029B800704700BFFC200310904F031080B400AF95
:1029C800034B1B681846BD465DF8047B704700BF83
:1029D800904F031080B584B000AF7860FFF7EEFF2A
:1029E800B8607B68FB60FB68B3F1FF3F05D00A4B1A
:1029F8001B781A46FB681344FB6000BFFFF7DEFF35
:102A08000246BB68D31AFA689A42F7D800BF00BFDB
:102A18001037BD4680BD00BFFC20031080B485B0D0
:102A280000AF78607B6803F00703FB600C4BDB6842
:102A3800BB60BA684FF6FF031340BB60FB681A021D
:102A4800BB68134343F0BF6343F40033BB60044ADD
:102A5800BB68D36000BF1437BD465DF8047B704780
:102A680000ED00E080B400AF044BDB681B0A03F004
:102A780007031846BD465DF8047B704700ED00E08B
:102A880080B483B000AF0346FB80B7F90630002B53
:102A98000BDBFB8803F01F020749B7F906305B0917
:102AA800012000FA02F241F8232000BF0C37BD468E
:102AB8005DF8047B704700BF00E100E080B483B09C
:102AC80000AF03463960FB80B7F90630002B0ADBFC
:102AD8003B68DAB20C49B7F906301201D2B20B449E
:102AE80083F800230AE03B68DAB20849FB8803F060
:102AF8000F03043B1201D2B20B441A7600BF0C3705
:102B0800BD465DF8047B704700E100E000ED00E0A1
:102B180080B489B000AFF860B9607A60FB6803F0F0
:102B28000703FB61FB69C3F10703042B28BF0423D8
:102B3800BB61FB690433062B02D9FB69033B00E048
:102B480000237B614FF0FF32BB6902FA03F3DA43DB
:102B5800BB681A407B699A404FF0FF317B6901FAE4
:102B680003F3D9437B680B40134318462437BD460B
:102B78005DF8047B704780B582B000AF78607868F4
:102B8800FFF74CFF00BF0837BD4680BD80B586B053
:102B980000AF0346B9607A60FB81FFF763FF786195
:102BA8007A68B9687869FFF7B3FF0246B7F90E305B
:102BB80011461846FFF782FF00BF1837BD4680BD93
:102BC80080B582B000AF0346FB80B7F906301846DF
:102BD800FFF756FF00BF0837BD4680BD80B400AF81
:102BE800064B1B6803F0F003702B01D1032300E0B0
:102BF80001231846BD465DF8047B704700ED00E0F0
:102C080080B489B000AF786039600023FB61894BDC
:102C18007B6194E13B681A680121FB6901FA03F3BF
:102C280013403B613B69002B00F086813B685B6881
:102C380003F00303012B05D03B685B6803F0030333
:102C4800022B30D17B689B68BB61FB695B00032268
:102C580002FA03F3DB43BA691340BB613B68DA68E5
:102C6800FB695B0002FA03F3BA691343BB617B6833
:102C7800BA699A607B685B68BB610122FB6902FAEA
:102C880003F3DB43BA691340BB613B685B681B090C
:102C980003F00102FB6902FA03F3BA691343BB614B
:102CA8007B68BA695A603B685B6803F00303032BCF
:102CB80017D07B68DB68BB61FB695B00032202FA03
:102CC80003F3DB43BA691340BB613B689A68FB694D
:102CD8005B0002FA03F3BA691343BB617B68BA6904
:102CE800DA603B685B6803F00303022B23D1FB69BE
:102CF800DA087B68083253F82230BB61FB6903F0BD
:102D080007039B000F2202FA03F3DB43BA6913405F
:102D1800BB613B681A69FB6903F007039B0002FA71
:102D280003F3BA691343BB61FB69DA087B680832AD
:102D3800B96943F822107B681B68BB61FB695B00BB
:102D4800032202FA03F3DB43BA691340BB613B6811
:102D58005B6803F00302FB695B0002FA03F3BA69DC
:102D68001343BB617B68BA691A603B685B6803F40C
:102D78004033002B00F0E0802F4BD3F8F4302E4A7C
:102D880043F00203C2F8F4302B4BD3F8F43003F0CD
:102D98000203FB60FB68294AFB699B08023352F86F
:102DA8002330BB61FB6903F003039B000F2202FA87
:102DB80003F3DB43BA691340BB617B68204A934243
:102DC80052D07B681F4A934231D07B681E4A934297
:102DD8002BD07B681D4A934225D07B681C4A9342BE
:102DE8001FD07B681B4A934219D07B681A4A9342CA
:102DF80013D07B68194A93420DD07B68184A9342D6
:102E080007D07B68174A934201D109232DE00A2392
:102E18002BE0082329E0072327E0062325E00523E4
:102E280023E0042321E003231FE002231DE0012304
:102E38001BE000BFC00000580044025800040058BE
:102E4800000002580004025800080258000C0258FA
:102E5800001002580014025800180258001C0258AA
:102E680000200258002402580023FA6902F00302E5
:102E780092009340BA691343BB613849FB699B08C8
:102E88000233BA6941F823204FF0B0431B68BB6195
:102E98003B69DB43BA691340BB613B685B6803F479
:102EA8008013002B03D0BA693B691343BB614FF011
:102EB800B042BB6913604FF0B0435B68BB613B69CC
:102EC800DB43BA691340BB613B685B6803F40013DA
:102ED800002B03D0BA693B691343BB614FF0B04282
:102EE800BB6953607B695B68BB613B69DB43BA695B
:102EF8001340BB613B685B6803F40033002B03D0CD
:102F0800BA693B691343BB617B69BA695A607B69DB
:102F18001B68BB613B69DB43BA691340BB613B6813
:102F28005B6803F48033002B03D0BA693B69134311
:102F3800BB617B69BA691A60FB690133FB613B6855
:102F48001A68FB6922FA03F3002B7FF463AE00BF13
:102F580000BF2437BD465DF8047B70470004005865
:102F680080B483B000AF7860054B1A6804497B6869
:102F780013430B6000BF0C37BD465DF8047B7047F8
:102F88001065025880B582B000AF78607B68002B6E
:102F980001D1012331E07B6893F83030DBB2002B9C
:102FA80005D17B6800221A767868FFF755F97B68A7
:102FB800032283F83020786800F024F80346012BB8
:102FC80001D1012319E07B6800225A637B68002243
:102FD800DA627B68012283F830207B68DB68002B8B
:102FE8000AD07B68DB681946786800F015FD03464F
:102FF800002B01D0012300E0002318460837BD4606
:1030080080BD000090B58DB002AF78600023FB60F2
:1030180000233B6100237B610023BB614FF48030B8
:103028004FF0000104F0A4F878627B6A002B09D104
:103038007B68012283F830207B684FF000625A6376
:10304800012370E07B6A1B0A394AA2FB03231B0990
:10305800FB617B681C686A4607F1180393E8030064
:1030680082E8030007F10C030ECB204606F026FE8B
:103078007B681B68184606F069FEFB69002B05D0C3
:10308800FB695B007A6AB2FBF3F37B627B6A002B15
:1030980007D0284A7B6AB2FBF3F301331846FFF7DF
:1030A80099FC786800F082FE38623B6A002B0BD0EE
:1030B8007B68012283F830207B685A6B3B6A1A438D
:1030C8007B685A6301232EE0786800F071FD38624E
:1030D8003B6A002B0BD07B68012283F830207B6889
:1030E8005A6B3B6A1A437B685A6301231BE07B686F
:1030F8001B684FF40071184606F0BEFE38623B6A42
:10310800002B0FD07B681B680B4A9A637B685A6B4D
:103118003B6A1A437B685A637B68012283F8302034
:10312800012300E0002318462C37BD4690BD00BFA0
:10313800598B4F0110210100FF0FE01F80B584B0AB
:1031480000AF78607B68DB6AFB607B681B685B6B41
:1031580003F40043002B08D0FB6803F00803002B9E
:1031680003D0786800F066FF94E17B681B685B6BAE
:1031780003F48073002B00F0AC807B681B684FF46D
:1031880080729A637B681B68DB6B7A68126823F429
:10319800414323F03A03D3637B681B68DA6B7B688F
:1031A8001B6822F08052DA637B681B68DA687B68E8
:1031B8001B6822F04002DA60FB6803F08003002BF2
:1031C8004BD07B681B6800229A627B681B680022D0
:1031D800DA627B681B6800221A65FB6803F0020349
:1031E800002B04D1FB6803F02003002B11D07B686F
:1031F8001B68184606F064FEB860BB68002B08D050
:103208007B685A6BBB681A437B685A63786800F01E
:1032180059F97B681B689C4A9A637B68012283F88A
:103228003020FB6803F01003002B04D1FB6803F087
:103238002003002B02D0786800F030F9FB6803F017
:103248000103002B05D1FB6803F00203002B00F0FB
:103258002181786800F02CF91CE1FB6803F0080371
:10326800002B00F01781FB6803F00203002B04D148
:10327800FB6803F02003002B11D07B681B681846FD
:1032880006F01EFEB860BB68002B08D07B685A6B3E
:10329800BB681A437B685A63786800F013F97B6847
:1032A8001B68794A9A637B68012283F83020FB689F
:1032B80003F00103002B04D1FB6803F00203002B89
:1032C80003D0786800F0F4F8E4E0786800F0E6F8F5
:1032D800E0E07B681B685B6B03F48043002B08D03D
:1032E800FB6803F00803002B03D0786800F0E8FEC1
:1032F800D0E07B681B685B6B03F03A03002B00F09F
:103308009A807B681B685B6B03F00203002B05D077
:103318007B685B6B43F002027B685A637B681B68BF
:103328005B6B03F00803002B05D07B685B6B43F0F5
:1033380008027B685A637B681B685B6B03F0200399
:10334800002B05D07B685B6B43F020027B685A63D7
:103358007B681B685B6B03F01003002B05D07B6850
:103368005B6B43F010027B685A637B681B68464AB4
:103378009A637B681B68DA6B7B681B6822F49D7212
:10338800DA637B681B68DA687B681B6822F0400296
:10339800DA607B681B68DA6A7B681B6842F4005253
:1033A800DA627B681B68DA687B681B6842F0800217
:1033B800DA607B681B68184606F082FD02467B6867
:1033C8005B6B1A437B685A637B681B68DA687B68A7
:1033D8001B6822F08002DA607B681B684FF4006289
:1033E8009A63FB6803F00803002B07D07B6801226F
:1033F80083F83020786800F065F84BE0FB6803F04C
:103408008003002B46D07B685B6B002B42D07B6827
:103418001B68DA6B7B681B6822F08052DA637B6872
:103428001B6800221A657B68012283F830207868BF
:1034380000F048F82EE07B681B685B6B03F0805354
:10344800002B27D07B681B684FF080529A637B68FB
:103458001B681B6D03F00403002B0CD1FB6803F001
:103468002003002B03D0786800F032FF12E0786860
:1034780000F01AFF0EE0FB6803F02003002B05D0D4
:10348800786800F01BFF05E03A0F0018786800F034
:1034980001FFFFE700BF1037BD4680BD80B483B091
:1034A80000AF786000BF0C37BD465DF8047B7047FD
:1034B80080B483B000AF786000BF0C37BD465DF8BC
:1034C800047B704780B483B000AF786000BF0C37CE
:1034D800BD465DF8047B704780B584B000AF786066
:1034E80039600023FB607B689B6D9B0FDAB23B68F9
:1034F8001A707B689B6D9B0EDBB203F00F03DAB288
:103508003B685A707B689B6D1B0EDBB203F00303AC
:10351800DAB23B689A707B689B6D1B0CDAB23B6829
:10352800DA707B689B6D1B0ADAB23B681A717B689C
:103538009B6DDAB23B685A717B68DB6D1B0D9AB2E2
:103548003B68DA807B68DB6D1B0CDBB203F00F0392
:10355800DAB23B681A727B68DB6DDB0BDBB203F017
:103568000103DAB23B685A727B68DB6D9B0BDBB2F6
:1035780003F00103DAB23B689A727B68DB6D5B0B80
:10358800DBB203F00103DAB23B68DA727B68DB6D09
:103598001B0BDBB203F00103DAB23B681A733B681A
:1035A80000225A7307F10C016FF07043D422786837
:1035B80000F04CFC0346002B01D0012329E17B6875
:1035C800DB6B002B63D17B68DB6D9A0040F6FC73E4
:1035D80013407A68126E920F1A433B681A617B682F
:1035E8001B6EDB0EDBB203F00703DAB23B681A7519
:1035F8007B681B6E1B0EDBB203F00703DAB23B6875
:103608005A757B681B6E5B0DDBB203F00703DAB2F9
:103618003B689A757B681B6E9B0CDBB203F0070353
:10362800DAB23B68DA757B681B6EDB0BDBB203F042
:103638000703DAB23B681A763B681B695A1C7B6839
:103648009A643B681B7EDBB203F007030233012256
:1036580002FA03F37A68926C03FB02F27B689A64BD
:103668003B681B7ADBB203F00F0301229A407B68A8
:10367800DA647B689B6C7A68D26C520A03FB02F2AC
:103688007B681A657B684FF400725A6523E07B6893
:10369800DB6B012B0FD1FA687B689A647B689A6CA4
:1036A8007B681A657B684FF40072DA647B68DA6CB1
:1036B8007B685A650FE07B681B68584A9A637B6889
:1036C8005B6B43F080527B685A637B68012283F806
:1036D800302001239DE07B681B6E9B0BDBB203F05F
:1036E8000103DAB23B685A767B681B6EDB09DBB2F2
:1036F80003F07F03DAB23B689A767B681B6EDBB215
:1037080003F07F03DAB23B68DA767B685B6EDB0F27
:10371800DAB23B681A777B685B6E5B0FDBB203F04B
:103728000303DAB23B685A777B685B6E9B0EDBB2A9
:1037380003F00703DAB23B689A777B685B6E9B0DF0
:10374800DBB203F00F03DAB23B68DA777B685B6EB3
:103758005B0DDBB203F00103DAB23B6883F820208B
:103768003B68002283F821207B685B6E1B0CDBB270
:1037780003F00103DAB23B6883F822207B685B6EB2
:10378800DB0BDBB203F00103DAB23B6883F82320DA
:103798007B685B6E9B0BDBB203F00103DAB23B681C
:1037A80083F824207B685B6E5B0BDBB203F00103BC
:1037B800DAB23B6883F825207B685B6E1B0BDBB2B3
:1037C80003F00103DAB23B6883F826207B685B6E5E
:1037D8009B0ADBB203F00303DAB23B6883F82720C5
:1037E8007B685B6E1B0ADBB203F00303DAB23B684B
:1037F80083F828207B685B6E5B08DBB203F07F03ED
:10380800DAB23B6883F829203B68012283F82A2032
:10381800002318461037BD4680BD00BFFF0FE01FCC
:1038280080B58EB000AFF860B9607A60FFF7C6F86F
:10383800F862BB68002B07D1FB685B6B43F0006242
:10384800FB685A630123DEE0FB6893F83030DBB293
:10385800012B40F0D780FB6800225A63FB680322E3
:1038680083F83020FB681B680022DA62BB683B6380
:103878004FF0FF333B614FF400737B619023BB61D2
:103888000223FB6100233B6200237B62FB681B6809
:1038980007F110021146184606F0C2FAFB681B68C9
:1038A800DA68FB681B6842F04002DA60FB681B6854
:1038B8000021184606F04BFCB862BB6A002B45D0C5
:1038C800FB681B68524A9A63FB685A6BBB6A1A43C7
:1038D800FB685A63FB68012283F83020012392E0D9
:1038E800FB681B685B6B03F40043002B13D00023B9
:1038F8007B630DE0FB681B68184606F009FA024670
:103908003B6B1A603B6B04333B637B6B01337B631C
:103918007B6B072BEED9FFF751F80246FB6AD31AE7
:103928007A689A4202D97B68002B0FD1FB681B6822
:10393800374A9A63FB685B6B43F00042FB685A6343
:10394800FB68012283F8302003235CE0FB681B68D6
:103958005B6B03F49573002BC2D0FB681B68DA68B5
:10396800FB681B6822F04002DA60FB681B685B6B2F
:1039780003F00803002B0FD0FB681B68244A9A63E6
:10398800FB685B6B43F00802FB685A63FB68012223
:1039980083F83020012336E0FB681B685B6B03F07B
:1039A8000203002B0FD0FB681B68194A9A63FB6857
:1039B8005B6B43F00202FB685A63FB68012283F8E1
:1039C800302001231FE0FB681B685B6B03F02003BA
:1039D800002B0FD0FB681B680D4A9A63FB685B6B72
:1039E80043F02002FB685A63FB68012283F8302009
:1039F800012308E0FB681B68064A9A63FB680122FA
:103A080083F83020002318463837BD4680BD00BFF4
:103A1800FF0FE01F3A0F0018B0B58CB002AF786006
:103A280039600023FB617B68032283F830207B68C0
:103A38001B685B6803F40023002B14D07B681B68A9
:103A48005B6803F48023002B06D004223968786869
:103A580000F080FB38620CE002223968786800F0D8
:103A680079FB386205E001223968786800F072FB5A
:103A780038623B6A002B7BD13B68B3F5004F07D116
:103A88007B681B684649184606F03EFB386219E019
:103A98003B68B3F5804F07D17B681B6841491846DE
:103AA80006F032FB38620DE03B68002B07D17B68DB
:103AB8001B683D49184606F027FB386202E04FF0C4
:103AC80000633B623B6A002B52D14FF6FF737B6267
:103AD8007B681A687B685B6C1B041946104606F005
:103AE800D0FA38623B6A002B12D17B681B68002130
:103AF800184606F082F9F8617B6A013B7B62FB6934
:103B080003F48073002B04D17B6A002BE0D100E022
:103B180000BF7B6A002B25D03B6A002B22D1FB69B2
:103B280003F08003002B03D04FF480333B621FE087
:103B38007B6807F108041D1D0FCD0FC42B68236097
:103B48003B683B617B681C686A4607F1140393E88D
:103B5800030082E8030007F108030ECB204606F0B5
:103B6800ADF805E07B6A002B02D14FF000433B62C1
:103B78007B68012283F830203B6A002B0BD07B68DE
:103B88001B680A4A9A637B685A6B3B6A1A437B68CC
:103B98005A63012300E0002318462837BD46B0BD0C
:103BA8000002B7030001B7030000B703FF0FE01FCF
:103BB800B0B596B002AF78600223A7F84E307B68A4
:103BC8001B68184606F0D3F80346002B02D14FF0C5
:103BD8008063E6E07B681B68184606F0EEF9B86477
:103BE800BB6C002B01D0BB6CDBE07B681B68002141
:103BF800184606F002F902467B689A667B681B68DD
:103C08000421184606F0F9F802467B68DA667B68F4
:103C18001B680821184606F0F0F802467B681A6708
:103C28007B681B680C21184606F0E7F802467B689B
:103C38005A677B681B68B7F84E201146184606F08D
:103C4800FBF9B864BB6C002B01D0BB6CA9E0B7F8DA
:103C58004E207B685A647B681A687B685B6C1B041F
:103C68001946104606F0C8F9B864BB6C002B01D0A1
:103C7800BB6C96E07B681B680021184606F0BDF80F
:103C880002467B689A657B681B680421184606F023
:103C9800B4F802467B68DA657B681B680821184619
:103CA80006F0ABF802467B681A667B681B680C2135
:103CB800184606F0A2F802467B685A667B681B68BD
:103CC8000421184606F099F803461A0D7B681A6411
:103CD8007B681A687B685B6C1B041946104606F003
:103CE8002BF9B864BB6C002B01D0BB6C59E007F111
:103CF8001C0319467868FFF7EFFB0346002B02D038
:103D08007B685B6B4DE07B681A687B685B6C1B04A7
:103D18001946104606F0B5F9B864BB6C002B05D0FF
:103D28007B685A6BBB6C1A437B685A637B68783331
:103D38004FF0FF3219467868FFF772FD0346002BF3
:103D480002D07B685B6B2CE07B681A687B685B6CD5
:103D58001B041946104606F094F9B864BB6C002B96
:103D680005D07B685A6BBB6C1A437B685A637B68C7
:103D780007F108041D1D0FCD0FC42B682360002315
:103D88003B617B681C686A4607F1140393E80300EB
:103D980082E8030007F108030ECB204605F08EFFEA
:103DA800002318465037BD46B0BD000080B586B028
:103DB80000AF78600023BB6000237B6100233B6178
:103DC8007B681B68184606F0DAF8F860FB68002B79
:103DD80027D0FB6834E0BB685A1CBA604FF6FF7204
:103DE800934202D14FF080732AE07B681B68164922
:103DF800184606F069F9F860FB68002B02D04FF00E
:103E080080531DE07B681B680021184605F0F5FF0C
:103E180078617B69DB0F012B01D1012300E00023CE
:103E28003B613B69002BD6D07B691B0EC02B03D1AD
:103E38007B680122DA6302E07B680022DA630023F0
:103E480018461837BD4680BD0080FFC080B590B0C9
:103E580000AFF860B9603B601346FB80FEF7AEFD2B
:103E680078630023BB63FB6800225A63FB681B6806
:103E78000022DA624FF0FF337B614FF40073BB61BD
:103E88009023FB6102233B6200237B620123BB6218
:103E9800FB681B6807F114021146184605F0C0FFBD
:103EA800FB681B680021184606F051F938633B6B24
:103EB800002B4ED0FB681B685C4A9A63FB685A6B00
:103EC8003B6B1A43FB685A63FB68012283F8302076
:103ED8000123A6E0FB681B685B6B03F40043002B1F
:103EE8001CD00023FB6313E0FB681B68184605F031
:103EF8000FFFF862BA6BFB6B1344FA88920892B210
:103F0800934202D1BB68FA6A1A60FB6B0133FB6308
:103F1800FB6B072BE8D9BB6B0833BB63FEF74EFD81
:103F280002467B6BD31A3A689A4202D93B68002B47
:103F38000FD1FB681B683D4A9A63FB685B6B43F0D3
:103F48000042FB685A63FB68012283F83020032390
:103F580067E0FB681B685B6B03F49573002BB9D0B3
:103F6800FB681B685B6B03F00803002B0FD0FB6832
:103F78001B682E4A9A63FB685B6B43F00802FB6878
:103F88005A63FB68012283F83020012349E0FB686B
:103F98001B685B6B03F00203002B0FD0FB681B68E8
:103FA800224A9A63FB685B6B43F00202FB685A6320
:103FB800FB68012283F83020012332E0FB681B688C
:103FC8005B6B03F02003002B0FD0FB681B68174ABC
:103FD8009A63FB685B6B43F02002FB685A63FB68DB
:103FE800012283F8302001231BE0FB681A68FB6874
:103FF8005B6C1B041946104606F043F838633B6BAC
:10400800002B05D0FB685A6B3B6B1A43FB685A635D
:10401800FB681B68064A9A63FB68012283F8302014
:10402800002318464037BD4680BD00BFFF0FE01F84
:104038003A0F001880B586B000AF78607B685B6A7D
:104048003B617B689B6A1F2B36D900237B6127E085
:104058007B681B68184605F05BFEF860FB68DAB2FF
:104068003B691A703B6901333B61FB681B0ADAB292
:104078003B691A703B6901333B61FB681B0CDAB280
:104088003B691A703B6901333B61FB681B0EDAB26E
:104098003B691A703B6901333B617B6901337B6182
:1040A8007B69072BD4D97B683A695A627B689B6A1B
:1040B800A3F120027B689A6200BF1837BD4680BD15
:1040C80080B586B000AF78607B68DB693B617B6850
:1040D8001B6A1F2B3AD900237B612BE03B691B78B5
:1040E800FB603B6901333B613B691B781A02FB6843
:1040F8001343FB603B6901333B613B691B781A043E
:10410800FB681343FB603B6901333B613B691B78E8
:104118001A06FB681343FB603B6901333B617B680C
:104128001B6807F10C021146184605F0FEFD7B6975
:1041380001337B617B69072BD0D97B683A69DA61E7
:104148007B681B6AA3F120027B681A6200BF1837DC
:10415800BD4680BD80B58AB000AFF860B9607A60AE
:1041680000233B620023FB61BB68B3F5004F04D01A
:10417800BB68B3F5804F40F0888000237B6107F16E
:1041880014014FF0FF33BB22F868FFF75FFE0346C8
:10419800002B03D04FF48033FB6102E07B691B0ED8
:1041A8007B617B68042B05D1FB68D3F864311B0E57
:1041B800BB610EE07B68022B06D1FB68D3F8403167
:1041C8001B0CDBB2BB6104E0FB68D3F840311B0E6B
:1041D800BB61FB69002B58D1BB68B3F5004F02D116
:1041E800BB691B09BB617A69BB69534003F00F03C4
:1041F800002B4AD0FB681A68BB691B0203F4706382
:1042080043F06E7343F440331946104605F07CFFC3
:10421800F861FB69002B38D14FF6FF737B62FB68AE
:104228001A68FB685B6C1B041946104605F029FFE9
:10423800F861FB69002B12D1FB681B680021184646
:1042480005F0DBFD38627B6A013B7B623B6A03F465
:104258008073002B04D17B6A002BE0D100E000BF03
:104268007B6A002B0BD0FB69002B08D13B6A03F05B
:104278008003002B09D04FF08053FB6105E07B6A77
:10428800002B02D14FF00043FB61FB691846283729
:10429800BD4680BD80B483B000AF786000BF0C37E6
:1042A800BD465DF8047B704780B483B000AF78608A
:1042B80000BF0C37BD465DF8047B704780B483B0FF
:1042C80000AF786000BF0C37BD465DF8047B7047CF
:1042D80080B483B000AF786000BF0C37BD465DF88E
:1042E800047B704780B586B002AF78607B68002B8E
:1042F80001D10123FEE07B6893F89534DBB2002BF3
:1043080006D17B68002283F8942478680AF0ACF818
:104318007B68032283F895247B681B68184606F09F
:104328001EFC7B6818687B681A7C8DF800200433B3
:104338000ECB06F0EFFA0346002B05D07B6802226D
:1043480083F895240123D5E07B681B680021184673
:1043580006F016FC0346002B05D07B68022283F882
:1043680095240123C6E00023FB734AE0FA7B7968B1
:104378001346DB0013449B000B44153301221A70CB
:10438800FA7B79681346DB0013449B000B44143313
:10439800FA7B1A70FA7BFB7B98B279681346DB00CC
:1043A80013449B000B442E3302461A80FA7B79682B
:1043B8001346DB0013449B000B44183300221A7089
:1043C800FA7B79681346DB0013449B000B441C33CB
:1043D80000221A60FA7B79681346DB0013449B00BD
:1043E8000B44203300221A60FA7B79681346DB00FD
:1043F80013449B000B44243300221A60FB7B0133D7
:10440800FB737B681B79FA7B9A42AFD30023FB735B
:1044180044E0FA7B79681346DB0013449B000B44A5
:1044280003F2552300221A70FA7B79681346DB00E1
:1044380013449B000B4403F51573FA7B1A70FA7B3F
:1044480079681346DB0013449B000B4403F516738D
:1044580000221A70FA7B79681346DB0013449B002C
:104468000B4403F5177300221A60FA7B7968134628
:10447800DB0013449B000B4403F5187300221A60F9
:10448800FA7B79681346DB0013449B000B4403F561
:10449800197300221A60FB7B0133FB737B681B795D
:1044A800FA7B9A42B5D37B6818687B681A7C8DF8CA
:1044B800002004330ECB06F0AFFB0346002B05D0DB
:1044C8007B68022283F89524012313E07B6800228D
:1044D8005A747B68012283F895247B681B7B012B27
:1044E80002D1786801F06EF97B681B68184607F0FE
:1044F800ECFB002318461037BD4680BD80B584B05C
:1045080000AF78607B681B68FB607B6893F8943425
:10451800012B01D1022322E07B68012283F8942435
:10452800FB68DB6803F04003002B09D07B685B7BEA
:10453800012B05D1FB689B6B43F48032FB689A63BF
:104548007B681B68184606F0F9FA7B681B681846F2
:1045580007F09AFB7B68002283F89424002318460E
:104568001037BD4680BD90B58DB000AF78607B68D0
:104578001B683B623B6AFB617B681B68184607F057
:1045880058FC0346002B40F0B9847B681B6818462A
:1045980007F0BCFB0346002B00F0AF84FB6903F572
:1045A80000639B681B0AC3F30D027B68C3F8D4241D
:1045B8007B681B68184607F0A9FB034603F0020353
:1045C800022B07D17B681B685A697B681B6802F05D
:1045D80002025A617B681B68184607F097FB03467E
:1045E80003F01003102B61D17B681B689A697B6804
:1045F8001B6822F010029A613B6A1B6ABB61BB69A7
:1046080003F00F021346DB0013449B0003F51473F9
:104618007A68134404337B61BB6903F4F013B3F580
:10462800802F24D1BA6947F6F0731340002B35D098
:104638007B69D968BB691B099BB2C3F30A039BB2A8
:104648001A46386A07F0CEF97B69DA68BB691B0934
:10465800C3F30A031A447B69DA607B695A69BB6948
:104668001B09C3F30A031A447B695A6116E0BB6944
:1046780003F4F013B3F5402F10D17B6803F29C4389
:1046880008221946386A07F0ADF97B695A69BB698F
:104698001B09C3F30A031A447B695A617B681B68C8
:1046A8009A697B681B6842F010029A617B681B68F4
:1046B800184607F02BFB034603F40023B3F5002F3D
:1046C80040F0A78000237B627B681B68184607F0D0
:1046D80030FBB86299E0BB6A03F00103002B00F0DD
:1046E8008E807B681B687A6AD2B21146184607F03A
:1046F80054FB38613B6903F00103002B0CD07B6A43
:104708005A01FB69134403F530631A460123936089
:10471800796A786800F0D0FE3B6903F00803002B43
:104728000CD07B6A5A01FB69134403F530631A46BF
:1047380008239360796A786800F0A6FF3B6903F064
:104748001003002B08D07B6A5A01FB69134403F558
:1047580030631A46102393603B6903F00203002B71
:1047680030D03B6A5B6903F08003802B09D1FB6979
:1047780003F500635B68FA6902F5006243F480633D
:1047880053607A6A1346DB0013449B0003F51473E5
:104798007A68134404337B617B69DB78012B08D189
:1047A8007B690022DA707B6ADBB21946786809F007
:1047B80091FF7B6A5A01FB69134403F530631A467B
:1047C800022393603B6903F02003002B08D07B6A27
:1047D8005A01FB69134403F530631A46202393609A
:1047E8003B6903F40053002B09D07B6A5A01FB692B
:1047F800134403F530631A464FF4005393607B6A01
:1048080001337B62BB6A5B08BB62BB6A002B7FF427
:1048180062AF7B681B68184607F078FA034603F412
:104828008023B3F5802F40F0DB807B681B68184637
:1048380007F099FAB86200237B62CDE0BB6A03F007
:104848000103002B00F0C2807B681B687A6AD2B231
:104858001146184607F0BFFA38613B6903F00103B7
:10486800002B57D07B6A03F00F03012202FA03F3EF
:10487800FB60FB6903F500635A6BFB68DB43F9696E
:1048880001F5006113404B637B6A5A01FB691344CD
:1048980003F510631A46012393607B689B79012B0B
:1048A80032D179687A6A1346DB0013449B000B44C3
:1048B8002033196878687A6A1346DB0013449B0032
:1048C80003441C331B68194478687A6A1346DB0072
:1048D80013449B000344203319607B6A002B13D1D7
:1048E80079687A6A1346DB0013449B000B4424332F
:1048F8001B68002B08D17B6818687B6803F29C430F
:104908001A46012107F0C6FA7B6ADBB219467868B5
:1049180009F05BFE3B6903F00803002B08D07B6AB3
:104928005A01FB69134403F510631A460823936080
:104938003B6903F01003002B08D07B6A5A01FB691E
:10494800134403F510631A46102393603B6903F080
:104958004003002B08D07B6A5A01FB69134403F516
:1049680010631A46402393603B6903F00203002B4F
:1049780023D0796A386A06F0ADFA7A6A1346DB0002
:1049880013449B0010337A68134404337B617B69BA
:10499800DB78012B08D17B690022DA707B6ADBB2F5
:1049A8001946786809F0A8FE7B6A5A01FB69134426
:1049B80003F510631A46022393603B6903F08003F2
:1049C800002B03D0796A786800F0EAFC7B6A01332F
:1049D8007B62BB6A5B08BB62BB6A002B7FF42EAFAD
:1049E8007B681B68184607F091F9034603F00043FB
:1049F800B3F1004F22D1FB6903F500635B68FA69E4
:104A080002F5006223F0010353607B6893F8CC340D
:104A1800012B08D17B68002283F8CC240021786818
:104A280000F0F4FE02E0786809F046FE7B681B6837
:104A38005A697B681B6802F000425A617B681B68F0
:104A4800184607F063F9034603F40063B3F5006FF3
:104A580012D1FB6903F500639B6803F00103012B86
:104A680002D1786809F002FE7B681B685A697B6886
:104A78001B6802F400625A617B681B68184607F0DD
:104A880045F9034603F00063B3F1006F21D17B6859
:104A98001B685A697B681B6802F000625A617B6870
:104AA80093F8CC34002B11D17B68012283F8CC24F5
:104AB8007B681B685B6D9B0803F00F027B68C3F87B
:104AC800D0240121786800F0A1FE02E0786809F09E
:104AD800CDFD7B681B68184607F018F9034603F4F8
:104AE8008053B3F5805F40F0B780FB6903F500633E
:104AF8005B68FA6902F5006223F0010353607B6882
:104B08001B681021184606F0E5F90023FB6246E011
:104B1800FB6A5A01FB69134403F510631A464FF602
:104B28007F339360FB6A5A01FB69134403F51063F2
:104B38001B68FA6A5101FA690A4402F5106223F403
:104B480000131360FB6A5A01FB69134403F53063D1
:104B58001A464FF67F339360FB6A5A01FB69134488
:104B680003F530631B68FA6A5101FA690A4402F5D1
:104B7800306223F400131360FB6A5A01FB69134483
:104B880003F530631B68FA6A5101FA690A4402F5B1
:104B9800306243F000631360FB6A0133FB627B6899
:104BA8001B791A46FB6A9342B2D3FB6903F500638B
:104BB800DB69FA6902F5006243F00113D3617B688F
:104BC800DB7B002B16D0FB6903F50063D3F8843038
:104BD800FA6902F5006243F00B03C2F88430FB69FE
:104BE80003F500635B6CFA6902F5006243F00B039E
:104BF800536415E0FB6903F500635B69FA6902F524
:104C0800006243F4005343F02B035361FB6903F53F
:104C180000631B69FA6902F5006243F00B03136134
:104C2800FB6903F500631B68FA6902F5006223F467
:104C3800FE6313607B6818687B6899797B6803F268
:104C48009C431A4607F026F97B681B685A697B68FB
:104C58001B6802F480525A617B681B68184607F08B
:104C680055F8034603F40053B3F5005F23D17B687E
:104C78001B68184607F0EBF87B681B68184606F0B7
:104C8800A2F903461A467B68DA717B681C6800F053
:104C9800DBFF01467B68DB791A46204605F0ACFE4F
:104CA800786809F0BAFC7B681B685A697B681B68DE
:104CB80002F400525A617B681B68184607F026F810
:104CC800034603F00803082B0AD1786809F097FC1B
:104CD8007B681B685A697B681B6802F008025A6186
:104CE8007B681B68184607F011F8034603F0800339
:104CF800802B23D13B6A9B6923F080023B6A9A612F
:104D080001237B6214E079687A6A1346DB00134456
:104D18009B000B4403F257231B78012B05D17B6AB8
:104D2800DBB21946786800F00AFB7B6A01337B62C4
:104D38007B681B791A467B6A9342E4D37B681B68BD
:104D4800184606F0E3FF034603F48013B3F5801F0B
:104D58003CD101237B622BE07B6A5A01FB69134437
:104D680003F510631B68BB6179687A6A1346DB0038
:104D780013449B000B4418331B78012B15D1BB69D6
:104D8800002B12DA79687A6A1346DB0013449B0019
:104D98000B44173301221A707B6ADBB263F07F037E
:104DA800DBB21946786800F0CAFA7B6A01337B6285
:104DB8007B681B791A467B6A9342CDD37B681B6854
:104DC8005A697B681B6802F480125A617B681B6809
:104DD800184606F09BFF034603F40013B3F5001FC3
:104DE80056D101237B6245E07B6A5A01FB69134473
:104DF80003F530631B68BB6179687A6A1346DB0088
:104E080013449B000B4403F516731B78012B2ED11A
:104E1800BB69002B2BDABB691A0C7B68D3F8D43436
:104E2800534003F00103002B21D179687A6A1346B5
:104E3800DB0013449B000B4403F2572301221A7032
:104E48003B6A9B6943F080023B6A9A613B6A5B69F3
:104E580003F08003002B0AD1FB6903F500635B684C
:104E6800FA6902F5006243F40073536008E07B6A54
:104E780001337B627B681B791A467B6A9342B3D302
:104E88007B681B685A697B681B6802F400125A61C8
:104E98007B681B68184606F039FF034603F0804319
:104EA800B3F1804F0AD1786809F038FC7B681B6839
:104EB8005A697B681B6802F080425A617B681B68EC
:104EC800184606F023FF034603F00403042B15D10C
:104ED8007B681B685B68BB61BB6903F00403002B3C
:104EE80002D0786809F028FC7B681B6859687B68E1
:104EF8001B68BA690A435A6000E000BF3437BD46F0
:104F080090BD80B582B000AF78600B46FB707B68BF
:104F180093F89434012B01D1022312E07B6801221B
:104F280083F894247B68FA785A747B681B68FA784B
:104F38001146184606F082FE7B68002283F8942406
:104F4800002318460837BD4680BD80B584B000AF41
:104F58007860084611461A460346FB700B463B80AC
:104F68001346BB700023FB7297F90330002B0FDA4E
:104F7800FB7803F00F021346DB0013449B00103349
:104F88007A6813440433FB60FB6801225A700FE00F
:104F9800FB7803F00F021346DB0013449B0003F574
:104FA80014737A6813440433FB60FB6800225A7058
:104FB800FB7803F00F03DAB2FB681A703B88C3F37F
:104FC8000A02FB689A60FB68BA781A71FB685B781A
:104FD800002B04D0FB681B781A46FB685A83BB7801
:104FE800022B02D1FB6800225A717B6893F8943433
:104FF800012B01D102230EE07B68012283F894245F
:105008007B681B68F968184606F002F87B6800227E
:1050180083F89424FB7A18461037BD4680BD80B5C6
:1050280084B000AF78600B46FB7097F90330002B13
:105038000FDAFB7803F00F021346DB0013449B00E2
:1050480010337A6813440433FB60FB6801225A70FA
:105058000FE0FB7803F00F021346DB0013449B00BC
:1050680003F514737A6813440433FB60FB68002269
:105078005A70FB7803F00F03DAB2FB681A707B688A
:1050880093F89434012B01D102230EE07B680122AE
:1050980083F894247B681B68F968184606F040F882
:1050A8007B68002283F89424002318461037BD46F5
:1050B80080BD80B586B000AFF8607A603B600B4673
:1050C800FB72FB7A03F00F021346DB0013449B00CC
:1050D80003F51473FA68134404337B617B697A68B7
:1050E800DA607B693A681A617B6900225A617B69D8
:1050F80000225A70FB7A03F00F03DAB27B691A7048
:10510800FB689B79012B02D17A687B69DA61FB68BD
:105118001868FB689B791A46796906F0DDF8002360
:1051280018461837BD4680BD80B483B000AF78609C
:105138000B46FB70FB7803F00F0279681346DB001F
:1051480013449B000B4403F51A731B6818460C376D
:10515800BD465DF8047B704780B586B000AFF86047
:105168007A603B600B46FB72FB7A03F00F02134632
:10517800DB0013449B001033FA68134404337B614B
:105188007B697A68DA607B693A681A617B69002210
:105198005A617B6901225A70FB7A03F00F03DAB275
:1051A8007B691A70FB689B79012B02D17A687B694D
:1051B800DA61FB681868FB689B791A46796906F01A
:1051C8008BF8002318461837BD4680BD80B584B0DB
:1051D80000AF78600B46FB70FB7803F00F037A682A
:1051E8001279934201D901234FE097F90330002B3C
:1051F8000FDAFB7803F00F021346DB0013449B0021
:1052080010337A6813440433FB60FB6801225A7038
:105218000DE0FA781346DB0013449B0003F5147382
:105228007A6813440433FB60FB6800225A70FB68F9
:1052380001229A70FB7803F00F03DAB2FB681A7048
:105248007B6893F89434012B01D102231DE07B681D
:10525800012283F894247B681B68F968184606F0D5
:1052680019FCFB7803F00F03002B09D17B68186841
:105278007B6899797B6803F29C431A4606F00AFE1C
:105288007B68002283F89424002318461037BD4613
:1052980080BD80B584B000AF78600B46FB70FB78AA
:1052A80003F00F037A681279934201D9012342E08F
:1052B80097F90330002B0FDAFB7803F00F0213463F
:1052C800DB0013449B0010337A6813440433FB60FB
:1052D800FB6801225A700FE0FB7803F00F021346B7
:1052E800DB0013449B0003F514737A6813440433FA
:1052F800FB60FB6800225A70FB6800229A70FB78FA
:1053080003F00F03DAB2FB681A707B6893F89434E1
:10531800012B01D102230EE07B68012283F894243B
:105328007B681B68F968184606F022FC7B68002237
:1053380083F89424002318461037BD4680BD80B5F5
:1053480084B000AF78600B46FB7097F90330002BF0
:105358000CDAFB7803F00F021346DB0013449B00C2
:1053680010337A6813440433FB600CE0FB7803F0D5
:105378000F021346DB0013449B0003F514737A688D
:1053880013440433FB607B681B68F968184606F011
:1053980041FA0346FB72FB7A18461037BD4680BDBA
:1053A80080B58AB002AF786039607B681B687B6122
:1053B8007B693B613A681346DB0013449B0010335A
:1053C8007A6813440433FB60FB685A69FB681B69FD
:1053D8009A4201D901236BE0FB681A69FB685B6993
:1053E800D31AFB61FB689B68FA699A4202D9FB6889
:1053F8009B68FB61FB6903339B08BB612AE0FB6880
:105408001A69FB685B69D31AFB61FB689B68FA69D8
:105418009A4202D9FB689B68FB61FB6903339B08CE
:10542800BB61FB68D9683B68DAB2FB6998B27B68F4
:105438009B7900930346786906F096FAFB68DA6868
:10544800FB691A44FB68DA60FB685A69FB691A440D
:10545800FB685A613B685A013B69134403F51063C2
:105468009B699BB2BA699A4209D8FB685A69FB687A
:105478001B699A4203D2FB681B69002BBFD1FB68EA
:105488001A69FB685B699A4211D83B6803F00F03FD
:10549800012202FA03F3BB603B6903F500635A6B10
:1054A800BB68DB43396901F5006113404B63002396
:1054B80018462037BD4680BD80B588B000AF7860FB
:1054C80039607B681B68FB61FB69BB61FB693C3326
:1054D80004331B687B613B685A01BB69134403F5BD
:1054E80030639B683B617B689B79012B7BD13B696F
:1054F80003F00803002B15D07B69614A934240F200
:10550800B9803B6903F40043002B00F0B3803B688B
:105518005A01BB69134403F530631A464FF400433C
:105528009360A7E03B6903F02003002B09D03B6898
:105538005A01BB69134403F530631A46202393606C
:1055480098E03B6903F02803002B40F093807B69C7
:105558004B4A93420FD93B6903F40043002B0AD00E
:105568003B685A01BB69134403F530631A464FF48C
:10557800004393607EE03A681346DB0013449B00C7
:1055880003F514737A6813440433FB60FB681A6AE2
:105598003B685901BB690B4403F530631B69C3F3CE
:1055A8001203D21AFB685A613B68002B14D1FB68BE
:1055B8001B69002B09D17B6818687B6803F29C4340
:1055C8001A46012106F066FC06E0FB68DA68FB680B
:1055D8005B691A44FB68DA603B68DBB21946786895
:1055E80008F0D8FF46E07B69264A934224D13B69FC
:1055F80003F40043002B0AD03B685A01BB691344EB
:1056080003F530631A464FF40043936032E03B6978
:1056180003F02003002B08D03B685A01BB691344F0
:1056280003F530631A46202393603B68DBB21946C2
:10563800786808F0AFFF1DE03B68002B14D179684B
:105648003A681346DB0013449B000B4403F51973B7
:105658001B68002B08D17B6818687B6803F29C43A1
:105668001A46002106F016FC3B68DBB2194678683A
:1056780008F090FF002318462037BD4680BD00BFC4
:105688000A30544F0A31544F80B586B000AF786065
:1056980039607B681B687B617B693B617B693C3354
:1056A80004331B68FB603B685A013B69134403F5EC
:1056B80030639B68BB60FB68154A93420ED9BB6890
:1056C80003F40043002B09D03B685A013B6913449B
:1056D80003F530631A464FF400439360786808F086
:1056E80047FFFB680A4A93420CD97B689B79012BD8
:1056F80008D17B6818687B6803F29C431A4601212D
:1057080006F0C8FB002318461837BD4680BD00BF09
:105718000A30544F80B485B000AF78600B46FB70F8
:1057280013463B807B681B685B6ABB60FB78002B79
:1057380007D13B8819047B681B68BA680A439A62D8
:1057480028E07B681B689B6A1B0CBA681344BB6023
:105758000023FB730DE07B681A68FB7B40339B00DA
:1057680013445B681B0CBA681344BB60FB7B0133B2
:10577800FB73FA7BFB78013B9A42ECD33B88180415
:105788007B681968FB78013BBA68024340339B0089
:105798000B445A60002318461437BD465DF8047B55
:1057A800704780B483B000AF78600B467B807B681D
:1057B8001B687A885A62002318460C37BD465DF884
:1057C800047B704780B485B000AF78607B681B6845
:1057D800FB607B680122C3F8D8247B68002283F829
:1057E800CC24FB689B6943F00062FB689A61FB6804
:1057F8005B6D43F0805343F00303FA68536500235D
:1058080018461437BD465DF8047B704780B483B0F2
:1058180000AF78600B46FB7000BF0C37BD465DF8E3
:10582800047B704780B584B000AFF8600B467A609F
:10583800FB72374B1B6823F001023549FB681343A1
:105848000B607B68002B23D1FDF7C8F90346032BB7
:1058580058D12F4B1B692E4A23F0010313612D4B9E
:105868001B692C4A43F004031361BFF34F8F00BF39
:10587800BFF36F8F00BFFB7A012B01D130BF00E06F
:1058880020BF244B1B69234A23F0040313613CE027
:105898007B68012B23D1FDF7A1F90346012B33D1F6
:1058A8001B4B5B691A4A23F002035361194B1B69AE
:1058B800184A43F004031361BFF34F8F00BFBFF3CF
:1058C8006F8F00BFFB7A012B01D130BF00E020BFF2
:1058D800104B1B690F4A23F00403136115E0FDF711
:1058E8007DF90346032B06D1094B1B69084A23F0AF
:1058F8000403136109E0064B5B69054A23F00403BE
:10590800536102E000BF00E000BF1037BD4680BD14
:105918000048025800ED00E080B500AFFDF75EF9E1
:105928000346032B01D120BF01E040BF20BF00BFC9
:1059380080BD000080B400AF054BDB68044A43F02B
:105948008073D36000BFBD465DF8047B704700BF1D
:105958000048025880B489B000AFB34B1B6903F00C
:105968003803182B00F2558101A252F823F000BF2A
:10597800DD5910081B5C10081B5C10081B5C100824
:105988001B5C10081B5C10081B5C10081B5C1008D3
:10599800035A10081B5C10081B5C10081B5C1008DD
:1059A8001B5C10081B5C10081B5C10081B5C1008B3
:1059B800095A10081B5C10081B5C10081B5C1008B7
:1059C8001B5C10081B5C10081B5C10081B5C100893
:1059D8000F5A1008944B1B6803F02003002B09D0C2
:1059E800914B1B68DB0803F00303904A22FA03F388
:1059F800BB6111E18D4BBB610EE18D4BBB610BE1CE
:105A08008C4BBB6108E1884B9B6A03F003037B6105
:105A1800854B9B6A1B0903F03F033B61824BDB6AA2
:105A280003F00103FB60804B5B6BDB08C3F30C03E3
:105A3800FA6802FB03F307EE903AF8EE677AC7EDCF
:105A4800027A3B69002B00F0E1807B69022B00F0B1
:105A580083807B69022B00F2A1807B69002B03D035
:105A68007B69012B56D099E06F4B1B6803F020032C
:105A7800002B2DD06C4B1B68DB0803F003036B4A2B
:105A880022FA03F37B607B6807EE903AF8EE676AC8
:105A98003B6907EE903AF8EE677A86EEA77A624B92
:105AA8001B6BC3F3080307EE903AF8EE676A97EDAD
:105AB800026ADFED615AC6EE257A76EEA77AF7EE2E
:105AC800006A77EEA67A67EE277AC7ED077A87E04D
